{
  "_format": "hh-sol-artifact-1",
  "contractName": "SeasonalCumulativeMerkleClaim",
  "sourceName": "contracts/SeasonalCumulativeMerkleClaim/SeasonalCumulativeMerkleClaim.sol",
  "abi": [
    {
      "inputs": [
        {
          "internalType": "address",
          "name": "realmPointsContractAddress",
          "type": "address"
        }
      ],
      "stateMutability": "nonpayable",
      "type": "constructor"
    },
    {
      "inputs": [
        {
          "internalType": "bytes32",
          "name": "season",
          "type": "bytes32"
        },
        {
          "internalType": "uint256",
          "name": "realmId",
          "type": "uint256"
        },
        {
          "internalType": "uint256",
          "name": "realmIdVersion",
          "type": "uint256"
        },
        {
          "internalType": "uint256",
          "name": "amount",
          "type": "uint256"
        },
        {
          "internalType": "bytes32",
          "name": "depositReasonCode",
          "type": "bytes32"
        },
        {
          "internalType": "uint256",
          "name": "nonce",
          "type": "uint256"
        }
      ],
      "name": "AlreadyClaimed",
      "type": "error"
    },
    {
      "inputs": [],
      "name": "IllegalInterfaceId",
      "type": "error"
    },
    {
      "inputs": [
        {
          "internalType": "uint256",
          "name": "amount",
          "type": "uint256"
        }
      ],
      "name": "InvalidClaimAmount",
      "type": "error"
    },
    {
      "inputs": [
        {
          "internalType": "bytes32",
          "name": "season",
          "type": "bytes32"
        },
        {
          "internalType": "uint256",
          "name": "realmId",
          "type": "uint256"
        },
        {
          "internalType": "uint256",
          "name": "realmIdVersion",
          "type": "uint256"
        },
        {
          "internalType": "uint256",
          "name": "amount",
          "type": "uint256"
        },
        {
          "internalType": "bytes32",
          "name": "depositReasonCode",
          "type": "bytes32"
        },
        {
          "internalType": "uint256",
          "name": "nonce",
          "type": "uint256"
        }
      ],
      "name": "InvalidProof",
      "type": "error"
    },
    {
      "inputs": [
        {
          "internalType": "address",
          "name": "realmPointsContractAddress",
          "type": "address"
        }
      ],
      "name": "InvalidRealmPointsContractAddress",
      "type": "error"
    },
    {
      "inputs": [
        {
          "internalType": "bytes32",
          "name": "season",
          "type": "bytes32"
        }
      ],
      "name": "InvalidSeason",
      "type": "error"
    },
    {
      "inputs": [
        {
          "internalType": "bytes32",
          "name": "season",
          "type": "bytes32"
        }
      ],
      "name": "MerkleRootNotExists",
      "type": "error"
    },
    {
      "inputs": [
        {
          "internalType": "address",
          "name": "account",
          "type": "address"
        }
      ],
      "name": "NotContractOwner",
      "type": "error"
    },
    {
      "inputs": [
        {
          "internalType": "bytes32",
          "name": "season",
          "type": "bytes32"
        }
      ],
      "name": "SeasonIsPaused",
      "type": "error"
    },
    {
      "inputs": [
        {
          "internalType": "bytes32",
          "name": "season",
          "type": "bytes32"
        }
      ],
      "name": "SeasonNotPaused",
      "type": "error"
    },
    {
      "anonymous": false,
      "inputs": [
        {
          "indexed": false,
          "internalType": "bytes32",
          "name": "season",
          "type": "bytes32"
        },
        {
          "indexed": false,
          "internalType": "bytes32",
          "name": "root",
          "type": "bytes32"
        }
      ],
      "name": "MerkleRootSet",
      "type": "event"
    },
    {
      "anonymous": false,
      "inputs": [
        {
          "indexed": true,
          "internalType": "address",
          "name": "previousOwner",
          "type": "address"
        },
        {
          "indexed": true,
          "internalType": "address",
          "name": "newOwner",
          "type": "address"
        }
      ],
      "name": "OwnershipTransferred",
      "type": "event"
    },
    {
      "anonymous": false,
      "inputs": [
        {
          "indexed": false,
          "internalType": "bytes32",
          "name": "season",
          "type": "bytes32"
        }
      ],
      "name": "Pause",
      "type": "event"
    },
    {
      "anonymous": false,
      "inputs": [
        {
          "indexed": true,
          "internalType": "bytes32",
          "name": "season",
          "type": "bytes32"
        },
        {
          "indexed": true,
          "internalType": "bytes32",
          "name": "root",
          "type": "bytes32"
        },
        {
          "indexed": true,
          "internalType": "uint256",
          "name": "realmId",
          "type": "uint256"
        },
        {
          "indexed": false,
          "internalType": "uint256",
          "name": "realmIdVersion",
          "type": "uint256"
        },
        {
          "indexed": false,
          "internalType": "uint256",
          "name": "amount",
          "type": "uint256"
        },
        {
          "indexed": false,
          "internalType": "bytes32",
          "name": "depositReasonCode",
          "type": "bytes32"
        },
        {
          "indexed": false,
          "internalType": "uint256",
          "name": "nonce",
          "type": "uint256"
        }
      ],
      "name": "PayoutClaimed",
      "type": "event"
    },
    {
      "anonymous": false,
      "inputs": [
        {
          "indexed": false,
          "internalType": "bytes32",
          "name": "season",
          "type": "bytes32"
        }
      ],
      "name": "Unpause",
      "type": "event"
    },
    {
      "inputs": [],
      "name": "REALM_POINTS_CONTRACT",
      "outputs": [
        {
          "internalType": "contract IRealmPoints",
          "name": "",
          "type": "address"
        }
      ],
      "stateMutability": "view",
      "type": "function"
    },
    {
      "inputs": [
        {
          "internalType": "bytes32",
          "name": "season",
          "type": "bytes32"
        },
        {
          "internalType": "uint256",
          "name": "realmId",
          "type": "uint256"
        },
        {
          "internalType": "uint256",
          "name": "realmIdVersion",
          "type": "uint256"
        },
        {
          "internalType": "uint256",
          "name": "amount",
          "type": "uint256"
        },
        {
          "internalType": "bytes32",
          "name": "depositReasonCode",
          "type": "bytes32"
        },
        {
          "internalType": "bytes32[]",
          "name": "proof",
          "type": "bytes32[]"
        }
      ],
      "name": "claimPayout",
      "outputs": [],
      "stateMutability": "nonpayable",
      "type": "function"
    },
    {
      "inputs": [
        {
          "internalType": "bytes32",
          "name": "",
          "type": "bytes32"
        }
      ],
      "name": "claimed",
      "outputs": [
        {
          "internalType": "bool",
          "name": "",
          "type": "bool"
        }
      ],
      "stateMutability": "view",
      "type": "function"
    },
    {
      "inputs": [
        {
          "internalType": "bytes32",
          "name": "",
          "type": "bytes32"
        }
      ],
      "name": "nonces",
      "outputs": [
        {
          "internalType": "uint256",
          "name": "",
          "type": "uint256"
        }
      ],
      "stateMutability": "view",
      "type": "function"
    },
    {
      "inputs": [],
      "name": "owner",
      "outputs": [
        {
          "internalType": "address",
          "name": "",
          "type": "address"
        }
      ],
      "stateMutability": "view",
      "type": "function"
    },
    {
      "inputs": [
        {
          "internalType": "bytes32",
          "name": "season",
          "type": "bytes32"
        }
      ],
      "name": "pause",
      "outputs": [],
      "stateMutability": "nonpayable",
      "type": "function"
    },
    {
      "inputs": [
        {
          "internalType": "bytes32",
          "name": "",
          "type": "bytes32"
        }
      ],
      "name": "paused",
      "outputs": [
        {
          "internalType": "bool",
          "name": "",
          "type": "bool"
        }
      ],
      "stateMutability": "view",
      "type": "function"
    },
    {
      "inputs": [
        {
          "internalType": "bytes32",
          "name": "",
          "type": "bytes32"
        }
      ],
      "name": "roots",
      "outputs": [
        {
          "internalType": "bytes32",
          "name": "",
          "type": "bytes32"
        }
      ],
      "stateMutability": "view",
      "type": "function"
    },
    {
      "inputs": [
        {
          "internalType": "bytes32",
          "name": "season",
          "type": "bytes32"
        },
        {
          "internalType": "bytes32",
          "name": "merkleRoot",
          "type": "bytes32"
        }
      ],
      "name": "setMerkleRoot",
      "outputs": [],
      "stateMutability": "nonpayable",
      "type": "function"
    },
    {
      "inputs": [
        {
          "internalType": "bytes4",
          "name": "interfaceId",
          "type": "bytes4"
        }
      ],
      "name": "supportsInterface",
      "outputs": [
        {
          "internalType": "bool",
          "name": "",
          "type": "bool"
        }
      ],
      "stateMutability": "view",
      "type": "function"
    },
    {
      "inputs": [
        {
          "internalType": "address",
          "name": "newOwner",
          "type": "address"
        }
      ],
      "name": "transferOwnership",
      "outputs": [],
      "stateMutability": "nonpayable",
      "type": "function"
    },
    {
      "inputs": [
        {
          "internalType": "bytes32",
          "name": "season",
          "type": "bytes32"
        }
      ],
      "name": "unpause",
      "outputs": [],
      "stateMutability": "nonpayable",
      "type": "function"
    }
  ],
  "bytecode": "0x60a06040523480156200001157600080fd5b50604051620011fc380380620011fc8339810160408190526200003491620001d3565b336200004b816200004462000095565b90620000cb565b506001600160a01b03811662000083576040516389f009ad60e01b81526001600160a01b038216600482015260240160405180910390fd5b6001600160a01b031660805262000227565b600080620000c560017fc9ed16f33ab3a66c84bfd83099ccb2a8845871e2e1c1928f63797152f0fd54cd62000205565b92915050565b6001600160a01b03811615620001225781546001600160a01b0319166001600160a01b03821690811783556040516000907f8be0079c531659141344cd1fd0a4f28419497f9722a3daafe3b4186f6b6457e0908290a35b620001426307f5828d60e41b60016200013a62000146565b919062000176565b5050565b600080620000c560017fca9d3e17f264b0f3984e2634e94adb37fa3e6a8103f06aeae6fa59e21c769f5e62000205565b600160e01b6001600160e01b0319831601620001a5576040516372c683bb60e01b815260040160405180910390fd5b6001600160e01b03199190911660009081526020929092526040909120805460ff1916911515919091179055565b600060208284031215620001e657600080fd5b81516001600160a01b0381168114620001fe57600080fd5b9392505050565b81810381811115620000c557634e487b7160e01b600052601160045260246000fd5b608051610fab620002516000396000818161012e0152818161032a01526107290152610fab6000f3fe608060405234801561001057600080fd5b50600436106100d45760003560e01c80639e317f1211610081578063cc3c0f061161005b578063cc3c0f0614610201578063ed56531a14610224578063f2fde38b1461023757600080fd5b80639e317f12146101905780639e9e4666146101be578063ae6dead7146101e157600080fd5b80637ba0d99b116100b25780637ba0d99b146101295780638da5cb5b146101755780639931012e1461017d57600080fd5b806301ffc9a7146100d95780632f4dae9f1461010157806375edcbe014610116575b600080fd5b6100ec6100e7366004610d51565b61024a565b60405190151581526020015b60405180910390f35b61011461010f366004610d93565b610264565b005b610114610124366004610dac565b610282565b6101507f000000000000000000000000000000000000000000000000000000000000000081565b60405173ffffffffffffffffffffffffffffffffffffffff90911681526020016100f8565b610150610441565b61011461018b366004610dce565b61046d565b6101b061019e366004610d93565b60026020526000908152604090205481565b6040519081526020016100f8565b6100ec6101cc366004610d93565b60006020819052908152604090205460ff1681565b6101b06101ef366004610d93565b60016020526000908152604090205481565b6100ec61020f366004610d93565b60036020526000908152604090205460ff1681565b610114610232366004610d93565b6107df565b610114610245366004610e74565b6108f5565b600061025e82610258610909565b90610937565b92915050565b61027633610270610a11565b90610a3f565b61027f81610aae565b50565b61028e33610270610a11565b600082815260016020526040902054156102fb5760008281526020819052604090205460ff166102f2576040517fd7590240000000000000000000000000000000000000000000000000000000008152600481018390526024015b60405180910390fd5b6102fb82610aae565b6040517f4529cc1b000000000000000000000000000000000000000000000000000000008152600481018390527f000000000000000000000000000000000000000000000000000000000000000073ffffffffffffffffffffffffffffffffffffffff1690634529cc1b90602401602060405180830381865afa158015610386573d6000803e3d6000fd5b505050506040513d601f19601f820116820180604052508101906103aa9190610eaa565b6103e3576040517f0b22ca35000000000000000000000000000000000000000000000000000000008152600481018390526024016102e9565b60008281526001602081815260408084208590556002825292839020805490920190915581518481529081018390527f4983a335d43faab715b8e7c23f104092b464c1b553f3f4aa3fc33c473b45dd49910160405180910390a15050565b600061046861044e610a11565b5473ffffffffffffffffffffffffffffffffffffffff1690565b905090565b836000036104aa576040517f27ab1ee2000000000000000000000000000000000000000000000000000000008152600481018590526024016102e9565b60008781526020819052604090205460ff16156104f6576040517f4501e9a2000000000000000000000000000000000000000000000000000000008152600481018890526024016102e9565b60008781526001602052604081205490819003610542576040517f1d3bbc3f000000000000000000000000000000000000000000000000000000008152600481018990526024016102e9565b60008881526002602090815260408083205481519283018c90529082018a9052606082018990526080820188905260a0820187905260c08201819052919060e001604080517fffffffffffffffffffffffffffffffffffffffffffffffffffffffffffffffe0818403018152919052805160209091012090506105c785858584610ba6565b610623576040517f50d53cc8000000000000000000000000000000000000000000000000000000008152600481018b9052602481018a905260448101899052606481018890526084810187905260a4810183905260c4016102e9565b60008181526003602052604090205460ff1615610692576040517f57793e5c000000000000000000000000000000000000000000000000000000008152600481018b9052602481018a905260448101899052606481018890526084810187905260a4810183905260c4016102e9565b6000818152600360205260409081902080547fffffffffffffffffffffffffffffffffffffffffffffffffffffffffffffff00166001179055517f18ee89f0000000000000000000000000000000000000000000000000000000008152600481018b9052602481018a905260448101899052606481018890526084810187905273ffffffffffffffffffffffffffffffffffffffff7f000000000000000000000000000000000000000000000000000000000000000016906318ee89f09060a401600060405180830381600087803b15801561076d57600080fd5b505af1158015610781573d6000803e3d6000fd5b5050604080518b8152602081018b9052908101899052606081018590528b92508591508c907f6e125d7bd8f9609ca71a5f3e816580b0eb4a45663664eb21343914c5db5aeae99060800160405180910390a450505050505050505050565b6107eb33610270610a11565b6000818152600160205260408120549003610835576040517f1d3bbc3f000000000000000000000000000000000000000000000000000000008152600481018290526024016102e9565b60008181526020819052604090205460ff1615610881576040517f4501e9a2000000000000000000000000000000000000000000000000000000008152600481018290526024016102e9565b6000818152602081905260409081902080547fffffffffffffffffffffffffffffffffffffffffffffffffffffffffffffff00166001179055517f6e78d720a83dbf19884c4e27501ba84a8a2e5ca1503419b03ee68d28d548e857906108ea9083815260200190565b60405180910390a150565b61027f3382610902610a11565b9190610bbe565b60008061025e60017fca9d3e17f264b0f3984e2634e94adb37fa3e6a8103f06aeae6fa59e21c769f5e610efb565b60007c01000000000000000000000000000000000000000000000000000000007fffffffff000000000000000000000000000000000000000000000000000000008316016109875750600061025e565b7ffe003659000000000000000000000000000000000000000000000000000000007fffffffff000000000000000000000000000000000000000000000000000000008316016109d85750600161025e565b507fffffffff00000000000000000000000000000000000000000000000000000000166000908152602091909152604090205460ff1690565b60008061025e60017fc9ed16f33ab3a66c84bfd83099ccb2a8845871e2e1c1928f63797152f0fd54cd610efb565b815473ffffffffffffffffffffffffffffffffffffffff828116911614610aaa576040517f2ef4875e00000000000000000000000000000000000000000000000000000000815273ffffffffffffffffffffffffffffffffffffffff821660048201526024016102e9565b5050565b6000818152600160205260408120549003610af8576040517f1d3bbc3f000000000000000000000000000000000000000000000000000000008152600481018290526024016102e9565b60008181526020819052604090205460ff16610b43576040517fd7590240000000000000000000000000000000000000000000000000000000008152600481018290526024016102e9565b6000818152602081815260409182902080547fffffffffffffffffffffffffffffffffffffffffffffffffffffffffffffff0016905590518281527fbd104d77fb864be973a9ad3964a3b186ad15178d292d6e9b0e6783e16162fd2291016108ea565b600082610bb4868685610cd3565b1495945050505050565b825473ffffffffffffffffffffffffffffffffffffffff9081169083168114610c2b576040517f2ef4875e00000000000000000000000000000000000000000000000000000000815273ffffffffffffffffffffffffffffffffffffffff841660048201526024016102e9565b8173ffffffffffffffffffffffffffffffffffffffff168173ffffffffffffffffffffffffffffffffffffffff1614610ccd5783547fffffffffffffffffffffffff00000000000000000000000000000000000000001673ffffffffffffffffffffffffffffffffffffffff8381169182178655604051908316907f8be0079c531659141344cd1fd0a4f28419497f9722a3daafe3b4186f6b6457e090600090a35b50505050565b600081815b84811015610d1657610d0282878784818110610cf657610cf6610f0e565b90506020020135610d1f565b915080610d0e81610f3d565b915050610cd8565b50949350505050565b6000818310610d3b576000828152602084905260409020610d4a565b60008381526020839052604090205b9392505050565b600060208284031215610d6357600080fd5b81357fffffffff0000000000000000000000000000000000000000000000000000000081168114610d4a57600080fd5b600060208284031215610da557600080fd5b5035919050565b60008060408385031215610dbf57600080fd5b50508035926020909101359150565b600080600080600080600060c0888a031215610de957600080fd5b873596506020880135955060408801359450606088013593506080880135925060a088013567ffffffffffffffff80821115610e2457600080fd5b818a0191508a601f830112610e3857600080fd5b813581811115610e4757600080fd5b8b60208260051b8501011115610e5c57600080fd5b60208301945080935050505092959891949750929550565b600060208284031215610e8657600080fd5b813573ffffffffffffffffffffffffffffffffffffffff81168114610d4a57600080fd5b600060208284031215610ebc57600080fd5b81518015158114610d4a57600080fd5b7f4e487b7100000000000000000000000000000000000000000000000000000000600052601160045260246000fd5b8181038181111561025e5761025e610ecc565b7f4e487b7100000000000000000000000000000000000000000000000000000000600052603260045260246000fd5b60007fffffffffffffffffffffffffffffffffffffffffffffffffffffffffffffffff8203610f6e57610f6e610ecc565b506001019056fea2646970667358221220a9f9b521b1c0e8a5f533a0420ce5d6c7d9d530c2160801dfebe2d3068c8f251a64736f6c63430008150033",
  "linkReferences": {},
  "deployedLinkReferences": {}
}