{
  "_format": "hh-sol-artifact-1",
  "contractName": "SeasonalCumulativeMerkleClaim",
  "sourceName": "contracts/SeasonalCumulativeMerkleClaim/SeasonalCumulativeMerkleClaim.sol",
  "abi": [
    {
      "inputs": [
        {
          "internalType": "address",
          "name": "mocaPointsContractAddress",
          "type": "address"
        }
      ],
      "stateMutability": "nonpayable",
      "type": "constructor"
    },
    {
      "inputs": [
        {
          "internalType": "bytes32",
          "name": "season",
          "type": "bytes32"
        },
        {
          "internalType": "uint256",
          "name": "realmId",
          "type": "uint256"
        },
        {
          "internalType": "uint256",
          "name": "realmIdVersion",
          "type": "uint256"
        },
        {
          "internalType": "uint256",
          "name": "amount",
          "type": "uint256"
        },
        {
          "internalType": "bytes32",
          "name": "depositReasonCode",
          "type": "bytes32"
        },
        {
          "internalType": "uint256",
          "name": "nonce",
          "type": "uint256"
        }
      ],
      "name": "AlreadyClaimed",
      "type": "error"
    },
    {
      "inputs": [],
      "name": "IllegalInterfaceId",
      "type": "error"
    },
    {
      "inputs": [
        {
          "internalType": "uint256",
          "name": "amount",
          "type": "uint256"
        }
      ],
      "name": "InvalidClaimAmount",
      "type": "error"
    },
    {
      "inputs": [
        {
          "internalType": "address",
          "name": "mocaPointsContractAddress",
          "type": "address"
        }
      ],
      "name": "InvalidMocaPointsContractAddress",
      "type": "error"
    },
    {
      "inputs": [
        {
          "internalType": "bytes32",
          "name": "season",
          "type": "bytes32"
        },
        {
          "internalType": "uint256",
          "name": "realmId",
          "type": "uint256"
        },
        {
          "internalType": "uint256",
          "name": "realmIdVersion",
          "type": "uint256"
        },
        {
          "internalType": "uint256",
          "name": "amount",
          "type": "uint256"
        },
        {
          "internalType": "bytes32",
          "name": "depositReasonCode",
          "type": "bytes32"
        },
        {
          "internalType": "uint256",
          "name": "nonce",
          "type": "uint256"
        }
      ],
      "name": "InvalidProof",
      "type": "error"
    },
    {
      "inputs": [
        {
          "internalType": "bytes32",
          "name": "season",
          "type": "bytes32"
        }
      ],
      "name": "InvalidSeason",
      "type": "error"
    },
    {
      "inputs": [
        {
          "internalType": "bytes32",
          "name": "season",
          "type": "bytes32"
        }
      ],
      "name": "MerkleRootNotExists",
      "type": "error"
    },
    {
      "inputs": [
        {
          "internalType": "address",
          "name": "account",
          "type": "address"
        }
      ],
      "name": "NotContractOwner",
      "type": "error"
    },
    {
      "inputs": [
        {
          "internalType": "bytes32",
          "name": "season",
          "type": "bytes32"
        }
      ],
      "name": "SeasonIsPaused",
      "type": "error"
    },
    {
      "inputs": [
        {
          "internalType": "bytes32",
          "name": "season",
          "type": "bytes32"
        }
      ],
      "name": "SeasonNotPaused",
      "type": "error"
    },
    {
      "anonymous": false,
      "inputs": [
        {
          "indexed": false,
          "internalType": "bytes32",
          "name": "season",
          "type": "bytes32"
        },
        {
          "indexed": false,
          "internalType": "bytes32",
          "name": "root",
          "type": "bytes32"
        }
      ],
      "name": "MerkleRootSet",
      "type": "event"
    },
    {
      "anonymous": false,
      "inputs": [
        {
          "indexed": true,
          "internalType": "address",
          "name": "previousOwner",
          "type": "address"
        },
        {
          "indexed": true,
          "internalType": "address",
          "name": "newOwner",
          "type": "address"
        }
      ],
      "name": "OwnershipTransferred",
      "type": "event"
    },
    {
      "anonymous": false,
      "inputs": [
        {
          "indexed": false,
          "internalType": "bytes32",
          "name": "season",
          "type": "bytes32"
        }
      ],
      "name": "Pause",
      "type": "event"
    },
    {
      "anonymous": false,
      "inputs": [
        {
          "indexed": true,
          "internalType": "bytes32",
          "name": "season",
          "type": "bytes32"
        },
        {
          "indexed": true,
          "internalType": "bytes32",
          "name": "root",
          "type": "bytes32"
        },
        {
          "indexed": true,
          "internalType": "uint256",
          "name": "realmId",
          "type": "uint256"
        },
        {
          "indexed": false,
          "internalType": "uint256",
          "name": "realmIdVersion",
          "type": "uint256"
        },
        {
          "indexed": false,
          "internalType": "uint256",
          "name": "amount",
          "type": "uint256"
        },
        {
          "indexed": false,
          "internalType": "bytes32",
          "name": "depositReasonCode",
          "type": "bytes32"
        },
        {
          "indexed": false,
          "internalType": "uint256",
          "name": "nonce",
          "type": "uint256"
        }
      ],
      "name": "PayoutClaimed",
      "type": "event"
    },
    {
      "anonymous": false,
      "inputs": [
        {
          "indexed": false,
          "internalType": "bytes32",
          "name": "season",
          "type": "bytes32"
        }
      ],
      "name": "Unpause",
      "type": "event"
    },
    {
      "inputs": [],
      "name": "MOCA_POINTS_CONTRACT",
      "outputs": [
        {
          "internalType": "contract IMocaPoints",
          "name": "",
          "type": "address"
        }
      ],
      "stateMutability": "view",
      "type": "function"
    },
    {
      "inputs": [
        {
          "internalType": "bytes32",
          "name": "season",
          "type": "bytes32"
        },
        {
          "internalType": "uint256",
          "name": "realmId",
          "type": "uint256"
        },
        {
          "internalType": "uint256",
          "name": "realmIdVersion",
          "type": "uint256"
        },
        {
          "internalType": "uint256",
          "name": "amount",
          "type": "uint256"
        },
        {
          "internalType": "bytes32",
          "name": "depositReasonCode",
          "type": "bytes32"
        },
        {
          "internalType": "bytes32[]",
          "name": "proof",
          "type": "bytes32[]"
        }
      ],
      "name": "claimPayout",
      "outputs": [],
      "stateMutability": "nonpayable",
      "type": "function"
    },
    {
      "inputs": [
        {
          "internalType": "bytes32",
          "name": "",
          "type": "bytes32"
        }
      ],
      "name": "claimed",
      "outputs": [
        {
          "internalType": "bool",
          "name": "",
          "type": "bool"
        }
      ],
      "stateMutability": "view",
      "type": "function"
    },
    {
      "inputs": [
        {
          "internalType": "bytes32",
          "name": "",
          "type": "bytes32"
        }
      ],
      "name": "nonces",
      "outputs": [
        {
          "internalType": "uint256",
          "name": "",
          "type": "uint256"
        }
      ],
      "stateMutability": "view",
      "type": "function"
    },
    {
      "inputs": [],
      "name": "owner",
      "outputs": [
        {
          "internalType": "address",
          "name": "",
          "type": "address"
        }
      ],
      "stateMutability": "view",
      "type": "function"
    },
    {
      "inputs": [
        {
          "internalType": "bytes32",
          "name": "season",
          "type": "bytes32"
        }
      ],
      "name": "pause",
      "outputs": [],
      "stateMutability": "nonpayable",
      "type": "function"
    },
    {
      "inputs": [
        {
          "internalType": "bytes32",
          "name": "",
          "type": "bytes32"
        }
      ],
      "name": "paused",
      "outputs": [
        {
          "internalType": "bool",
          "name": "",
          "type": "bool"
        }
      ],
      "stateMutability": "view",
      "type": "function"
    },
    {
      "inputs": [
        {
          "internalType": "bytes32",
          "name": "",
          "type": "bytes32"
        }
      ],
      "name": "roots",
      "outputs": [
        {
          "internalType": "bytes32",
          "name": "",
          "type": "bytes32"
        }
      ],
      "stateMutability": "view",
      "type": "function"
    },
    {
      "inputs": [
        {
          "internalType": "bytes32",
          "name": "season",
          "type": "bytes32"
        },
        {
          "internalType": "bytes32",
          "name": "merkleRoot",
          "type": "bytes32"
        }
      ],
      "name": "setMerkleRoot",
      "outputs": [],
      "stateMutability": "nonpayable",
      "type": "function"
    },
    {
      "inputs": [
        {
          "internalType": "bytes4",
          "name": "interfaceId",
          "type": "bytes4"
        }
      ],
      "name": "supportsInterface",
      "outputs": [
        {
          "internalType": "bool",
          "name": "",
          "type": "bool"
        }
      ],
      "stateMutability": "view",
      "type": "function"
    },
    {
      "inputs": [
        {
          "internalType": "address",
          "name": "newOwner",
          "type": "address"
        }
      ],
      "name": "transferOwnership",
      "outputs": [],
      "stateMutability": "nonpayable",
      "type": "function"
    },
    {
      "inputs": [
        {
          "internalType": "bytes32",
          "name": "season",
          "type": "bytes32"
        }
      ],
      "name": "unpause",
      "outputs": [],
      "stateMutability": "nonpayable",
      "type": "function"
    }
  ],
  "bytecode": "0x60a06040523480156200001157600080fd5b5060405162001175380380620011758339810160408190526200003491620001d3565b336200004b816200004462000095565b90620000cb565b506001600160a01b0381166200008357604051631237cff960e01b81526001600160a01b038216600482015260240160405180910390fd5b6001600160a01b031660805262000227565b600080620000c560017fc9ed16f33ab3a66c84bfd83099ccb2a8845871e2e1c1928f63797152f0fd54cd62000205565b92915050565b6001600160a01b03811615620001225781546001600160a01b0319166001600160a01b03821690811783556040516000907f8be0079c531659141344cd1fd0a4f28419497f9722a3daafe3b4186f6b6457e0908290a35b620001426307f5828d60e41b60016200013a62000146565b919062000176565b5050565b600080620000c560017fca9d3e17f264b0f3984e2634e94adb37fa3e6a8103f06aeae6fa59e21c769f5e62000205565b600160e01b6001600160e01b0319831601620001a5576040516372c683bb60e01b815260040160405180910390fd5b6001600160e01b03199190911660009081526020929092526040909120805460ff1916911515919091179055565b600060208284031215620001e657600080fd5b81516001600160a01b0381168114620001fe57600080fd5b9392505050565b81810381811115620000c557634e487b7160e01b600052601160045260246000fd5b608051610f2462000251600039600081816101060152818161032701526107360152610f246000f3fe608060405234801561001057600080fd5b50600436106100d45760003560e01c80639e317f1211610081578063cc3c0f061161005b578063cc3c0f0614610201578063ed56531a14610224578063f2fde38b1461023757600080fd5b80639e317f12146101905780639e9e4666146101be578063ae6dead7146101e157600080fd5b806375edcbe0116100b257806375edcbe0146101625780638da5cb5b146101755780639931012e1461017d57600080fd5b806301ffc9a7146100d95780632727aae8146101015780632f4dae9f1461014d575b600080fd5b6100ec6100e7366004610cca565b61024a565b60405190151581526020015b60405180910390f35b6101287f000000000000000000000000000000000000000000000000000000000000000081565b60405173ffffffffffffffffffffffffffffffffffffffff90911681526020016100f8565b61016061015b366004610d0c565b610264565b005b610160610170366004610d25565b610282565b61012861044e565b61016061018b366004610d47565b61047a565b6101b061019e366004610d0c565b60026020526000908152604090205481565b6040519081526020016100f8565b6100ec6101cc366004610d0c565b60006020819052908152604090205460ff1681565b6101b06101ef366004610d0c565b60016020526000908152604090205481565b6100ec61020f366004610d0c565b60036020526000908152604090205460ff1681565b610160610232366004610d0c565b6107ec565b610160610245366004610ded565b6108b8565b600061025e826102586108cc565b906108fa565b92915050565b610276336102706109d4565b90610a02565b61027f81610a71565b50565b61028e336102706109d4565b6000828152602081815260408083205460019092529091205460ff90911690158015906102b9575080155b156102f8576040517fd7590240000000000000000000000000000000000000000000000000000000008152600481018490526024015b60405180910390fd5b6040517f4529cc1b000000000000000000000000000000000000000000000000000000008152600481018490527f000000000000000000000000000000000000000000000000000000000000000073ffffffffffffffffffffffffffffffffffffffff1690634529cc1b90602401602060405180830381865afa158015610383573d6000803e3d6000fd5b505050506040513d601f19601f820116820180604052508101906103a79190610e23565b6103e0576040517f0b22ca35000000000000000000000000000000000000000000000000000000008152600481018490526024016102ef565b60008381526001602081815260408084208690556002825292839020805490920190915581518581529081018490527f4983a335d43faab715b8e7c23f104092b464c1b553f3f4aa3fc33c473b45dd49910160405180910390a180156104495761044983610a71565b505050565b600061047561045b6109d4565b5473ffffffffffffffffffffffffffffffffffffffff1690565b905090565b836000036104b7576040517f27ab1ee2000000000000000000000000000000000000000000000000000000008152600481018590526024016102ef565b60008781526020819052604090205460ff1615610503576040517f4501e9a2000000000000000000000000000000000000000000000000000000008152600481018890526024016102ef565b6000878152600160205260408120549081900361054f576040517f1d3bbc3f000000000000000000000000000000000000000000000000000000008152600481018990526024016102ef565b60008881526002602090815260408083205481519283018c90529082018a9052606082018990526080820188905260a0820187905260c08201819052919060e001604080517fffffffffffffffffffffffffffffffffffffffffffffffffffffffffffffffe0818403018152919052805160209091012090506105d485858584610b1f565b610630576040517f50d53cc8000000000000000000000000000000000000000000000000000000008152600481018b9052602481018a905260448101899052606481018890526084810187905260a4810183905260c4016102ef565b60008181526003602052604090205460ff161561069f576040517f57793e5c000000000000000000000000000000000000000000000000000000008152600481018b9052602481018a905260448101899052606481018890526084810187905260a4810183905260c4016102ef565b6000818152600360205260409081902080547fffffffffffffffffffffffffffffffffffffffffffffffffffffffffffffff00166001179055517f18ee89f0000000000000000000000000000000000000000000000000000000008152600481018b9052602481018a905260448101899052606481018890526084810187905273ffffffffffffffffffffffffffffffffffffffff7f000000000000000000000000000000000000000000000000000000000000000016906318ee89f09060a401600060405180830381600087803b15801561077a57600080fd5b505af115801561078e573d6000803e3d6000fd5b5050604080518b8152602081018b9052908101899052606081018590528b92508591508c907f6e125d7bd8f9609ca71a5f3e816580b0eb4a45663664eb21343914c5db5aeae99060800160405180910390a450505050505050505050565b6107f8336102706109d4565b60008181526020819052604090205460ff1615610844576040517f4501e9a2000000000000000000000000000000000000000000000000000000008152600481018290526024016102ef565b6000818152602081905260409081902080547fffffffffffffffffffffffffffffffffffffffffffffffffffffffffffffff00166001179055517f6e78d720a83dbf19884c4e27501ba84a8a2e5ca1503419b03ee68d28d548e857906108ad9083815260200190565b60405180910390a150565b61027f33826108c56109d4565b9190610b37565b60008061025e60017fca9d3e17f264b0f3984e2634e94adb37fa3e6a8103f06aeae6fa59e21c769f5e610e74565b60007c01000000000000000000000000000000000000000000000000000000007fffffffff0000000000000000000000000000000000000000000000000000000083160161094a5750600061025e565b7ffe003659000000000000000000000000000000000000000000000000000000007fffffffff0000000000000000000000000000000000000000000000000000000083160161099b5750600161025e565b507fffffffff00000000000000000000000000000000000000000000000000000000166000908152602091909152604090205460ff1690565b60008061025e60017fc9ed16f33ab3a66c84bfd83099ccb2a8845871e2e1c1928f63797152f0fd54cd610e74565b815473ffffffffffffffffffffffffffffffffffffffff828116911614610a6d576040517f2ef4875e00000000000000000000000000000000000000000000000000000000815273ffffffffffffffffffffffffffffffffffffffff821660048201526024016102ef565b5050565b60008181526020819052604090205460ff16610abc576040517fd7590240000000000000000000000000000000000000000000000000000000008152600481018290526024016102ef565b6000818152602081815260409182902080547fffffffffffffffffffffffffffffffffffffffffffffffffffffffffffffff0016905590518281527fbd104d77fb864be973a9ad3964a3b186ad15178d292d6e9b0e6783e16162fd2291016108ad565b600082610b2d868685610c4c565b1495945050505050565b825473ffffffffffffffffffffffffffffffffffffffff9081169083168114610ba4576040517f2ef4875e00000000000000000000000000000000000000000000000000000000815273ffffffffffffffffffffffffffffffffffffffff841660048201526024016102ef565b8173ffffffffffffffffffffffffffffffffffffffff168173ffffffffffffffffffffffffffffffffffffffff1614610c465783547fffffffffffffffffffffffff00000000000000000000000000000000000000001673ffffffffffffffffffffffffffffffffffffffff8381169182178655604051908316907f8be0079c531659141344cd1fd0a4f28419497f9722a3daafe3b4186f6b6457e090600090a35b50505050565b600081815b84811015610c8f57610c7b82878784818110610c6f57610c6f610e87565b90506020020135610c98565b915080610c8781610eb6565b915050610c51565b50949350505050565b6000818310610cb4576000828152602084905260409020610cc3565b60008381526020839052604090205b9392505050565b600060208284031215610cdc57600080fd5b81357fffffffff0000000000000000000000000000000000000000000000000000000081168114610cc357600080fd5b600060208284031215610d1e57600080fd5b5035919050565b60008060408385031215610d3857600080fd5b50508035926020909101359150565b600080600080600080600060c0888a031215610d6257600080fd5b873596506020880135955060408801359450606088013593506080880135925060a088013567ffffffffffffffff80821115610d9d57600080fd5b818a0191508a601f830112610db157600080fd5b813581811115610dc057600080fd5b8b60208260051b8501011115610dd557600080fd5b60208301945080935050505092959891949750929550565b600060208284031215610dff57600080fd5b813573ffffffffffffffffffffffffffffffffffffffff81168114610cc357600080fd5b600060208284031215610e3557600080fd5b81518015158114610cc357600080fd5b7f4e487b7100000000000000000000000000000000000000000000000000000000600052601160045260246000fd5b8181038181111561025e5761025e610e45565b7f4e487b7100000000000000000000000000000000000000000000000000000000600052603260045260246000fd5b60007fffffffffffffffffffffffffffffffffffffffffffffffffffffffffffffffff8203610ee757610ee7610e45565b506001019056fea26469706673582212206eee125b40f2472fa138670baf1f8704b68252bbd3b91ae2e2d614a4d4e15f3564736f6c63430008150033",
  "linkReferences": {},
  "deployedLinkReferences": {}
}