{
  "_format": "hh-sol-artifact-1",
  "contractName": "MocaPointsUpgrade",
  "sourceName": "contracts/MocaPoints/mock/upgrades/MocaPointsUpgrade.sol",
  "abi": [
    {
      "inputs": [],
      "name": "IllegalInterfaceId",
      "type": "error"
    },
    {
      "inputs": [
        {
          "internalType": "uint256",
          "name": "currentPhase",
          "type": "uint256"
        },
        {
          "internalType": "uint256",
          "name": "newPhase",
          "type": "uint256"
        }
      ],
      "name": "InitializationPhaseAlreadyReached",
      "type": "error"
    },
    {
      "inputs": [
        {
          "internalType": "address",
          "name": "account",
          "type": "address"
        }
      ],
      "name": "NotContractOwner",
      "type": "error"
    },
    {
      "inputs": [
        {
          "internalType": "bytes32",
          "name": "role",
          "type": "bytes32"
        },
        {
          "internalType": "address",
          "name": "account",
          "type": "address"
        }
      ],
      "name": "NotRoleHolder",
      "type": "error"
    },
    {
      "anonymous": false,
      "inputs": [
        {
          "indexed": false,
          "internalType": "address",
          "name": "previousAdmin",
          "type": "address"
        },
        {
          "indexed": false,
          "internalType": "address",
          "name": "newAdmin",
          "type": "address"
        }
      ],
      "name": "AdminChanged",
      "type": "event"
    },
    {
      "anonymous": false,
      "inputs": [
        {
          "indexed": false,
          "internalType": "bytes32[]",
          "name": "reasonCodes",
          "type": "bytes32[]"
        }
      ],
      "name": "BatchAddedConsumeReasonCode",
      "type": "event"
    },
    {
      "anonymous": false,
      "inputs": [
        {
          "indexed": false,
          "internalType": "bytes32[]",
          "name": "reasonCodes",
          "type": "bytes32[]"
        }
      ],
      "name": "BatchRemovedConsumeReasonCode",
      "type": "event"
    },
    {
      "anonymous": false,
      "inputs": [
        {
          "indexed": true,
          "internalType": "address",
          "name": "beacon",
          "type": "address"
        }
      ],
      "name": "BeaconUpgraded",
      "type": "event"
    },
    {
      "anonymous": false,
      "inputs": [
        {
          "indexed": true,
          "internalType": "uint256",
          "name": "realmId",
          "type": "uint256"
        },
        {
          "indexed": true,
          "internalType": "bytes32",
          "name": "season",
          "type": "bytes32"
        },
        {
          "indexed": true,
          "internalType": "bytes32",
          "name": "reasonCode",
          "type": "bytes32"
        },
        {
          "indexed": false,
          "internalType": "address",
          "name": "operator",
          "type": "address"
        },
        {
          "indexed": false,
          "internalType": "uint256",
          "name": "realmIdVersion",
          "type": "uint256"
        },
        {
          "indexed": false,
          "internalType": "uint256",
          "name": "amount",
          "type": "uint256"
        },
        {
          "indexed": false,
          "internalType": "address",
          "name": "realmIdOwner",
          "type": "address"
        }
      ],
      "name": "Consumed",
      "type": "event"
    },
    {
      "anonymous": false,
      "inputs": [
        {
          "indexed": true,
          "internalType": "address",
          "name": "sender",
          "type": "address"
        },
        {
          "indexed": true,
          "internalType": "bytes32",
          "name": "season",
          "type": "bytes32"
        },
        {
          "indexed": true,
          "internalType": "bytes32",
          "name": "reasonCode",
          "type": "bytes32"
        },
        {
          "indexed": false,
          "internalType": "uint256",
          "name": "realmId",
          "type": "uint256"
        },
        {
          "indexed": false,
          "internalType": "uint256",
          "name": "realmIdVersion",
          "type": "uint256"
        },
        {
          "indexed": false,
          "internalType": "uint256",
          "name": "amount",
          "type": "uint256"
        }
      ],
      "name": "Deposited",
      "type": "event"
    },
    {
      "anonymous": false,
      "inputs": [
        {
          "indexed": false,
          "internalType": "uint8",
          "name": "version",
          "type": "uint8"
        }
      ],
      "name": "Initialized",
      "type": "event"
    },
    {
      "anonymous": false,
      "inputs": [
        {
          "indexed": true,
          "internalType": "address",
          "name": "previousOwner",
          "type": "address"
        },
        {
          "indexed": true,
          "internalType": "address",
          "name": "newOwner",
          "type": "address"
        }
      ],
      "name": "OwnershipTransferred",
      "type": "event"
    },
    {
      "anonymous": false,
      "inputs": [
        {
          "indexed": false,
          "internalType": "bytes32",
          "name": "role",
          "type": "bytes32"
        },
        {
          "indexed": false,
          "internalType": "address",
          "name": "account",
          "type": "address"
        },
        {
          "indexed": false,
          "internalType": "address",
          "name": "operator",
          "type": "address"
        }
      ],
      "name": "RoleGranted",
      "type": "event"
    },
    {
      "anonymous": false,
      "inputs": [
        {
          "indexed": false,
          "internalType": "bytes32",
          "name": "role",
          "type": "bytes32"
        },
        {
          "indexed": false,
          "internalType": "address",
          "name": "account",
          "type": "address"
        },
        {
          "indexed": false,
          "internalType": "address",
          "name": "operator",
          "type": "address"
        }
      ],
      "name": "RoleRevoked",
      "type": "event"
    },
    {
      "anonymous": false,
      "inputs": [
        {
          "indexed": false,
          "internalType": "bytes32",
          "name": "season",
          "type": "bytes32"
        }
      ],
      "name": "SetCurrentSeason",
      "type": "event"
    },
    {
      "anonymous": false,
      "inputs": [
        {
          "indexed": true,
          "internalType": "address",
          "name": "implementation",
          "type": "address"
        }
      ],
      "name": "Upgraded",
      "type": "event"
    },
    {
      "anonymous": false,
      "inputs": [
        {
          "indexed": false,
          "internalType": "uint256",
          "name": "newValue",
          "type": "uint256"
        }
      ],
      "name": "ValueSet",
      "type": "event"
    },
    {
      "inputs": [],
      "name": "ADMIN_ROLE",
      "outputs": [
        {
          "internalType": "bytes32",
          "name": "",
          "type": "bytes32"
        }
      ],
      "stateMutability": "view",
      "type": "function"
    },
    {
      "inputs": [],
      "name": "DEPOSITOR_ROLE",
      "outputs": [
        {
          "internalType": "bytes32",
          "name": "",
          "type": "bytes32"
        }
      ],
      "stateMutability": "view",
      "type": "function"
    },
    {
      "inputs": [
        {
          "internalType": "bytes32",
          "name": "",
          "type": "bytes32"
        }
      ],
      "name": "allowedConsumeReasonCodes",
      "outputs": [
        {
          "internalType": "bool",
          "name": "",
          "type": "bool"
        }
      ],
      "stateMutability": "view",
      "type": "function"
    },
    {
      "inputs": [
        {
          "internalType": "bytes32",
          "name": "season",
          "type": "bytes32"
        },
        {
          "internalType": "bytes32",
          "name": "parentNode",
          "type": "bytes32"
        },
        {
          "internalType": "string",
          "name": "_name",
          "type": "string"
        }
      ],
      "name": "balanceOf",
      "outputs": [
        {
          "internalType": "uint256",
          "name": "",
          "type": "uint256"
        }
      ],
      "stateMutability": "view",
      "type": "function"
    },
    {
      "inputs": [
        {
          "internalType": "bytes32",
          "name": "parentNode",
          "type": "bytes32"
        },
        {
          "internalType": "string",
          "name": "_name",
          "type": "string"
        }
      ],
      "name": "balanceOf",
      "outputs": [
        {
          "internalType": "uint256",
          "name": "",
          "type": "uint256"
        }
      ],
      "stateMutability": "view",
      "type": "function"
    },
    {
      "inputs": [
        {
          "internalType": "uint256",
          "name": "realmId",
          "type": "uint256"
        }
      ],
      "name": "balanceOf",
      "outputs": [
        {
          "internalType": "uint256",
          "name": "",
          "type": "uint256"
        }
      ],
      "stateMutability": "view",
      "type": "function"
    },
    {
      "inputs": [
        {
          "internalType": "bytes32",
          "name": "season",
          "type": "bytes32"
        },
        {
          "internalType": "uint256",
          "name": "realmId",
          "type": "uint256"
        }
      ],
      "name": "balanceOf",
      "outputs": [
        {
          "internalType": "uint256",
          "name": "",
          "type": "uint256"
        }
      ],
      "stateMutability": "view",
      "type": "function"
    },
    {
      "inputs": [
        {
          "internalType": "bytes32",
          "name": "",
          "type": "bytes32"
        },
        {
          "internalType": "uint256",
          "name": "",
          "type": "uint256"
        },
        {
          "internalType": "uint256",
          "name": "",
          "type": "uint256"
        }
      ],
      "name": "balances",
      "outputs": [
        {
          "internalType": "uint256",
          "name": "",
          "type": "uint256"
        }
      ],
      "stateMutability": "view",
      "type": "function"
    },
    {
      "inputs": [
        {
          "internalType": "bytes32[]",
          "name": "_reasonCodes",
          "type": "bytes32[]"
        }
      ],
      "name": "batchAddConsumeReasonCodes",
      "outputs": [],
      "stateMutability": "nonpayable",
      "type": "function"
    },
    {
      "inputs": [
        {
          "internalType": "bytes32[]",
          "name": "_reasonCodes",
          "type": "bytes32[]"
        }
      ],
      "name": "batchRemoveConsumeReasonCodes",
      "outputs": [],
      "stateMutability": "nonpayable",
      "type": "function"
    },
    {
      "inputs": [
        {
          "internalType": "bytes32",
          "name": "parentNode",
          "type": "bytes32"
        },
        {
          "internalType": "string",
          "name": "_name",
          "type": "string"
        },
        {
          "internalType": "uint256",
          "name": "amount",
          "type": "uint256"
        },
        {
          "internalType": "bytes32",
          "name": "consumeReasonCode",
          "type": "bytes32"
        },
        {
          "internalType": "uint8",
          "name": "v",
          "type": "uint8"
        },
        {
          "internalType": "bytes32",
          "name": "r",
          "type": "bytes32"
        },
        {
          "internalType": "bytes32",
          "name": "s",
          "type": "bytes32"
        }
      ],
      "name": "consume",
      "outputs": [],
      "stateMutability": "nonpayable",
      "type": "function"
    },
    {
      "inputs": [
        {
          "internalType": "uint256",
          "name": "realmId",
          "type": "uint256"
        },
        {
          "internalType": "uint256",
          "name": "amount",
          "type": "uint256"
        },
        {
          "internalType": "bytes32",
          "name": "consumeReasonCode",
          "type": "bytes32"
        }
      ],
      "name": "consume",
      "outputs": [],
      "stateMutability": "nonpayable",
      "type": "function"
    },
    {
      "inputs": [
        {
          "internalType": "uint256",
          "name": "realmId",
          "type": "uint256"
        },
        {
          "internalType": "uint256",
          "name": "amount",
          "type": "uint256"
        },
        {
          "internalType": "bytes32",
          "name": "consumeReasonCode",
          "type": "bytes32"
        },
        {
          "internalType": "uint8",
          "name": "v",
          "type": "uint8"
        },
        {
          "internalType": "bytes32",
          "name": "r",
          "type": "bytes32"
        },
        {
          "internalType": "bytes32",
          "name": "s",
          "type": "bytes32"
        }
      ],
      "name": "consume",
      "outputs": [],
      "stateMutability": "nonpayable",
      "type": "function"
    },
    {
      "inputs": [
        {
          "internalType": "bytes32",
          "name": "parentNode",
          "type": "bytes32"
        },
        {
          "internalType": "string",
          "name": "_name",
          "type": "string"
        },
        {
          "internalType": "uint256",
          "name": "amount",
          "type": "uint256"
        },
        {
          "internalType": "bytes32",
          "name": "consumeReasonCode",
          "type": "bytes32"
        }
      ],
      "name": "consume",
      "outputs": [],
      "stateMutability": "nonpayable",
      "type": "function"
    },
    {
      "inputs": [],
      "name": "currentSeason",
      "outputs": [
        {
          "internalType": "bytes32",
          "name": "",
          "type": "bytes32"
        }
      ],
      "stateMutability": "view",
      "type": "function"
    },
    {
      "inputs": [
        {
          "internalType": "bytes32",
          "name": "season",
          "type": "bytes32"
        },
        {
          "internalType": "uint256",
          "name": "realmId",
          "type": "uint256"
        },
        {
          "internalType": "uint256",
          "name": "realmIdVersion",
          "type": "uint256"
        },
        {
          "internalType": "uint256",
          "name": "amount",
          "type": "uint256"
        },
        {
          "internalType": "bytes32",
          "name": "depositReasonCode",
          "type": "bytes32"
        }
      ],
      "name": "deposit",
      "outputs": [],
      "stateMutability": "nonpayable",
      "type": "function"
    },
    {
      "inputs": [
        {
          "internalType": "bytes32",
          "name": "season",
          "type": "bytes32"
        },
        {
          "internalType": "bytes32",
          "name": "parentNode",
          "type": "bytes32"
        },
        {
          "internalType": "string",
          "name": "name",
          "type": "string"
        },
        {
          "internalType": "uint256",
          "name": "realmIdVersion",
          "type": "uint256"
        },
        {
          "internalType": "uint256",
          "name": "amount",
          "type": "uint256"
        },
        {
          "internalType": "bytes32",
          "name": "depositReasonCode",
          "type": "bytes32"
        }
      ],
      "name": "deposit",
      "outputs": [],
      "stateMutability": "nonpayable",
      "type": "function"
    },
    {
      "inputs": [
        {
          "internalType": "bytes32",
          "name": "role",
          "type": "bytes32"
        },
        {
          "internalType": "address",
          "name": "account",
          "type": "address"
        }
      ],
      "name": "grantRole",
      "outputs": [],
      "stateMutability": "nonpayable",
      "type": "function"
    },
    {
      "inputs": [
        {
          "internalType": "bytes32",
          "name": "role",
          "type": "bytes32"
        },
        {
          "internalType": "address",
          "name": "account",
          "type": "address"
        }
      ],
      "name": "hasRole",
      "outputs": [
        {
          "internalType": "bool",
          "name": "hasRole_",
          "type": "bool"
        }
      ],
      "stateMutability": "view",
      "type": "function"
    },
    {
      "inputs": [
        {
          "internalType": "address",
          "name": "_realmIdContract",
          "type": "address"
        }
      ],
      "name": "initialize",
      "outputs": [],
      "stateMutability": "nonpayable",
      "type": "function"
    },
    {
      "inputs": [],
      "name": "initializeV2",
      "outputs": [],
      "stateMutability": "nonpayable",
      "type": "function"
    },
    {
      "inputs": [
        {
          "internalType": "uint256",
          "name": "",
          "type": "uint256"
        }
      ],
      "name": "nonces",
      "outputs": [
        {
          "internalType": "uint256",
          "name": "",
          "type": "uint256"
        }
      ],
      "stateMutability": "view",
      "type": "function"
    },
    {
      "inputs": [],
      "name": "owner",
      "outputs": [
        {
          "internalType": "address",
          "name": "",
          "type": "address"
        }
      ],
      "stateMutability": "view",
      "type": "function"
    },
    {
      "inputs": [
        {
          "internalType": "uint256",
          "name": "realmId",
          "type": "uint256"
        },
        {
          "internalType": "uint256",
          "name": "amount",
          "type": "uint256"
        },
        {
          "internalType": "bytes32",
          "name": "reasonCode",
          "type": "bytes32"
        }
      ],
      "name": "preparePayload",
      "outputs": [
        {
          "internalType": "bytes32",
          "name": "",
          "type": "bytes32"
        }
      ],
      "stateMutability": "view",
      "type": "function"
    },
    {
      "inputs": [],
      "name": "proxiableUUID",
      "outputs": [
        {
          "internalType": "bytes32",
          "name": "",
          "type": "bytes32"
        }
      ],
      "stateMutability": "view",
      "type": "function"
    },
    {
      "inputs": [],
      "name": "realmIdContract",
      "outputs": [
        {
          "internalType": "contract IRealmId",
          "name": "",
          "type": "address"
        }
      ],
      "stateMutability": "view",
      "type": "function"
    },
    {
      "inputs": [
        {
          "internalType": "bytes32",
          "name": "role",
          "type": "bytes32"
        }
      ],
      "name": "renounceRole",
      "outputs": [],
      "stateMutability": "nonpayable",
      "type": "function"
    },
    {
      "inputs": [
        {
          "internalType": "bytes32",
          "name": "role",
          "type": "bytes32"
        },
        {
          "internalType": "address",
          "name": "account",
          "type": "address"
        }
      ],
      "name": "revokeRole",
      "outputs": [],
      "stateMutability": "nonpayable",
      "type": "function"
    },
    {
      "inputs": [
        {
          "internalType": "bytes32",
          "name": "",
          "type": "bytes32"
        }
      ],
      "name": "seasons",
      "outputs": [
        {
          "internalType": "bool",
          "name": "",
          "type": "bool"
        }
      ],
      "stateMutability": "view",
      "type": "function"
    },
    {
      "inputs": [
        {
          "internalType": "bytes32",
          "name": "_season",
          "type": "bytes32"
        }
      ],
      "name": "setCurrentSeason",
      "outputs": [],
      "stateMutability": "nonpayable",
      "type": "function"
    },
    {
      "inputs": [
        {
          "internalType": "uint256",
          "name": "_newVal",
          "type": "uint256"
        }
      ],
      "name": "setVal",
      "outputs": [],
      "stateMutability": "nonpayable",
      "type": "function"
    },
    {
      "inputs": [
        {
          "internalType": "address",
          "name": "newOwner",
          "type": "address"
        }
      ],
      "name": "transferOwnership",
      "outputs": [],
      "stateMutability": "nonpayable",
      "type": "function"
    },
    {
      "inputs": [
        {
          "internalType": "address",
          "name": "newImplementation",
          "type": "address"
        }
      ],
      "name": "upgradeTo",
      "outputs": [],
      "stateMutability": "nonpayable",
      "type": "function"
    },
    {
      "inputs": [
        {
          "internalType": "address",
          "name": "newImplementation",
          "type": "address"
        },
        {
          "internalType": "bytes",
          "name": "data",
          "type": "bytes"
        }
      ],
      "name": "upgradeToAndCall",
      "outputs": [],
      "stateMutability": "payable",
      "type": "function"
    },
    {
      "inputs": [],
      "name": "val",
      "outputs": [
        {
          "internalType": "uint256",
          "name": "",
          "type": "uint256"
        }
      ],
      "stateMutability": "view",
      "type": "function"
    }
  ],
  "bytecode": "0x60a06040523060805234801561001457600080fd5b5060805161388761004c6000396000818161098001528181610a3501528181610d8a01528181610e3a0152610f8301526138876000f3fe6080604052600436106102345760003560e01c80638bb9c5bf11610138578063bcb39621116100b0578063dc893ce41161007f578063e564a0e211610064578063e564a0e2146106b1578063f2fde38b146106d1578063f9515962146106f157600080fd5b8063dc893ce414610671578063df00bb241461069157600080fd5b8063bcb39621146105fb578063c4d66de814610611578063d14a5c7114610631578063d547741f1461065157600080fd5b806399d342ac116101075780639d70b005116100ec5780639d70b00514610587578063a3b0b5a3146105a7578063ad3b1d48146105db57600080fd5b806399d342ac146105475780639cc7f7081461056757600080fd5b80638bb9c5bf146104d25780638da5cb5b146104f2578063906405a31461050757806391d148541461052757600080fd5b80633f30b00f116101cb57806352d1902d1161019a57806375b238fc1161017f57806375b238fc1461045e578063794459be1461049257806386a8e98a146104b257600080fd5b806352d1902d146104345780635cd8a76b1461044957600080fd5b80633f30b00f146103835780634529cc1b146103a35780634f1ef286146103e357806351955dfc146103f657600080fd5b80632f2ff15d116102075780632f2ff15d1461030d5780633659cfe61461032d5780633c6bb4361461034d5780633d4197f01461036357600080fd5b8063098b641914610239578063141a468c1461026c57806318ee89f0146102995780632b48dc72146102bb575b600080fd5b34801561024557600080fd5b506102596102543660046131e5565b610721565b6040519081526020015b60405180910390f35b34801561027857600080fd5b50610259610287366004613235565b60696020526000908152604090205481565b3480156102a557600080fd5b506102b96102b436600461324e565b610882565b005b3480156102c757600080fd5b506067546102e89073ffffffffffffffffffffffffffffffffffffffff1681565b60405173ffffffffffffffffffffffffffffffffffffffff9091168152602001610263565b34801561031957600080fd5b506102b96103283660046132ab565b61093b565b34801561033957600080fd5b506102b96103483660046132db565b610969565b34801561035957600080fd5b50610259606b5481565b34801561036f57600080fd5b506102b961037e366004613235565b610b73565b34801561038f57600080fd5b506102b961039e3660046132f8565b610baf565b3480156103af57600080fd5b506103d36103be366004613235565b60666020526000908152604090205460ff1681565b6040519015158152602001610263565b6102b96103f136600461339e565b610d73565b34801561040257600080fd5b50610259610411366004613402565b606860209081526000938452604080852082529284528284209052825290205481565b34801561044057600080fd5b50610259610f69565b34801561045557600080fd5b506102b9611055565b34801561046a57600080fd5b506102597fa49807205ce4d355092ef5a8a18f56e8913cf4a201fbe287825b095693c2177581565b34801561049e57600080fd5b506102596104ad36600461342e565b611189565b3480156104be57600080fd5b506102b96104cd366004613235565b6112f3565b3480156104de57600080fd5b506102b96104ed366004613235565b611404565b3480156104fe57600080fd5b506102e8611418565b34801561051357600080fd5b506102b96105223660046132f8565b611444565b34801561053357600080fd5b506103d36105423660046132ab565b611617565b34801561055357600080fd5b506102b9610562366004613481565b611662565b34801561057357600080fd5b50610259610582366004613235565b611716565b34801561059357600080fd5b506102b96105a23660046134ff565b6117dd565b3480156105b357600080fd5b506102597f8f4f2da22e8ac8f11e15f9fc141cddbb5deea8800186560abb6e68c5496619a981565b3480156105e757600080fd5b506102596105f636600461356b565b61188f565b34801561060757600080fd5b5061025960655481565b34801561061d57600080fd5b506102b961062c3660046132db565b61194d565b34801561063d57600080fd5b506102b961064c366004613402565b611bae565b34801561065d57600080fd5b506102b961066c3660046132ab565b611d6d565b34801561067d57600080fd5b506102b961068c36600461358d565b611d90565b34801561069d57600080fd5b506102596106ac366004613402565b6120b0565b3480156106bd57600080fd5b506102b96106cc3660046135de565b6121ae565b3480156106dd57600080fd5b506102b96106ec3660046132db565b612255565b3480156106fd57600080fd5b506103d361070c366004613235565b606a6020526000908152604090205460ff1681565b6067546040517fcad6b901000000000000000000000000000000000000000000000000000000008152600091829173ffffffffffffffffffffffffffffffffffffffff9091169063cad6b9019061077e90869088906004016136a3565b602060405180830381865afa15801561079b573d6000803e3d6000fd5b505050506040513d601f19601f820116820180604052508101906107bf91906136c5565b6067546040517fa9735f940000000000000000000000000000000000000000000000000000000081526004810183905291925060009173ffffffffffffffffffffffffffffffffffffffff9091169063a9735f9490602401602060405180830381865afa158015610834573d6000803e3d6000fd5b505050506040513d601f19601f8201168201806040525081019061085891906136c5565b60009687526068602090815260408089209489529381528388209188525250909320549392505050565b6108b77f8f4f2da22e8ac8f11e15f9fc141cddbb5deea8800186560abb6e68c5496619a9335b6108b0612269565b9190612297565b60008581526068602090815260408083208784528252808320868452909152812080548492906108e890849061370d565b9091555050604080518581526020810185905280820184905290518291879133917f9092bf6bd1cf7db4fcf41aedc7c0333b51c57f5b80b429bc3d9caa5587c6ad82919081900360600190a45050505050565b3361094e8161094861231d565b9061234b565b61096483838361095c612269565b9291906123b6565b505050565b73ffffffffffffffffffffffffffffffffffffffff7f0000000000000000000000000000000000000000000000000000000000000000163003610a33576040517f08c379a000000000000000000000000000000000000000000000000000000000815260206004820152602c60248201527f46756e6374696f6e206d7573742062652063616c6c6564207468726f7567682060448201527f64656c656761746563616c6c000000000000000000000000000000000000000060648201526084015b60405180910390fd5b7f000000000000000000000000000000000000000000000000000000000000000073ffffffffffffffffffffffffffffffffffffffff16610aa87f360894a13ba1a3210667c828492db98dca3e2076cc3735a920a3ca505d382bbc5473ffffffffffffffffffffffffffffffffffffffff1690565b73ffffffffffffffffffffffffffffffffffffffff1614610b4b576040517f08c379a000000000000000000000000000000000000000000000000000000000815260206004820152602c60248201527f46756e6374696f6e206d7573742062652063616c6c6564207468726f7567682060448201527f6163746976652070726f787900000000000000000000000000000000000000006064820152608401610a2a565b610b548161248d565b60408051600080825260208201909252610b7091839190612499565b50565b606b8190556040518181527f012c78e2b84325878b1bd9d250d772cfe5bda7722d795f45036fa5e1e6e303fc906020015b60405180910390a150565b610bd97fa49807205ce4d355092ef5a8a18f56e8913cf4a201fbe287825b095693c21775336108a8565b6000815111610c44576040517f08c379a000000000000000000000000000000000000000000000000000000000815260206004820152601860248201527f456d70747920526561736f6e20636f64657320617272617900000000000000006044820152606401610a2a565b60005b8151811015610d4357606a6000838381518110610c6657610c66613720565b60209081029190910181015182528101919091526040016000205460ff1615610ceb576040517f08c379a000000000000000000000000000000000000000000000000000000000815260206004820152601a60248201527f526561736f6e20636f646520616c7265616479206578697374730000000000006044820152606401610a2a565b6001606a6000848481518110610d0357610d03613720565b6020026020010151815260200190815260200160002060006101000a81548160ff0219169083151502179055508080610d3b9061374f565b915050610c47565b507f0d8c56a8918ec09c2fe3c4d9fcc00ece66df217a1ab3ad768dd0a71620da5b4e81604051610ba49190613787565b73ffffffffffffffffffffffffffffffffffffffff7f0000000000000000000000000000000000000000000000000000000000000000163003610e38576040517f08c379a000000000000000000000000000000000000000000000000000000000815260206004820152602c60248201527f46756e6374696f6e206d7573742062652063616c6c6564207468726f7567682060448201527f64656c656761746563616c6c00000000000000000000000000000000000000006064820152608401610a2a565b7f000000000000000000000000000000000000000000000000000000000000000073ffffffffffffffffffffffffffffffffffffffff16610ead7f360894a13ba1a3210667c828492db98dca3e2076cc3735a920a3ca505d382bbc5473ffffffffffffffffffffffffffffffffffffffff1690565b73ffffffffffffffffffffffffffffffffffffffff1614610f50576040517f08c379a000000000000000000000000000000000000000000000000000000000815260206004820152602c60248201527f46756e6374696f6e206d7573742062652063616c6c6564207468726f7567682060448201527f6163746976652070726f787900000000000000000000000000000000000000006064820152608401610a2a565b610f598261248d565b610f6582826001612499565b5050565b60003073ffffffffffffffffffffffffffffffffffffffff7f00000000000000000000000000000000000000000000000000000000000000001614611030576040517f08c379a000000000000000000000000000000000000000000000000000000000815260206004820152603860248201527f555550535570677261646561626c653a206d757374206e6f742062652063616c60448201527f6c6564207468726f7567682064656c656761746563616c6c00000000000000006064820152608401610a2a565b507f360894a13ba1a3210667c828492db98dca3e2076cc3735a920a3ca505d382bbc90565b600054600290610100900460ff16158015611077575060005460ff8083169116105b611103576040517f08c379a000000000000000000000000000000000000000000000000000000000815260206004820152602e60248201527f496e697469616c697a61626c653a20636f6e747261637420697320616c72656160448201527f647920696e697469616c697a65640000000000000000000000000000000000006064820152608401610a2a565b600080547fffffffffffffffffffffffffffffffffffffffffffffffffffffffffffff00001660ff8316908117610100177fffffffffffffffffffffffffffffffffffffffffffffffffffffffffffff00ff169091556040519081527f7f26b83ff96e1f2b6a682f133852f6798a09c465da95921460cefb384740249890602001610ba4565b6067546040517fcad6b901000000000000000000000000000000000000000000000000000000008152600091829173ffffffffffffffffffffffffffffffffffffffff9091169063cad6b901906111e690869088906004016136a3565b602060405180830381865afa158015611203573d6000803e3d6000fd5b505050506040513d601f19601f8201168201806040525081019061122791906136c5565b6067546040517fa9735f940000000000000000000000000000000000000000000000000000000081526004810183905291925060009173ffffffffffffffffffffffffffffffffffffffff9091169063a9735f9490602401602060405180830381865afa15801561129c573d6000803e3d6000fd5b505050506040513d601f19601f820116820180604052508101906112c091906136c5565b60655460009081526068602090815260408083209583529481528482209282529190915291909120549150505b92915050565b61131d7fa49807205ce4d355092ef5a8a18f56e8913cf4a201fbe287825b095693c21775336108a8565b60008181526066602052604090205460ff1615611396576040517f08c379a000000000000000000000000000000000000000000000000000000000815260206004820152601260248201527f536561736f6e20616c72656164792073657400000000000000000000000000006044820152606401610a2a565b60658190556000818152606660205260409081902080547fffffffffffffffffffffffffffffffffffffffffffffffffffffffffffffff00166001179055517f61228c895f8ba06548597d3e34a23bc0ecb6d1e62a1eb3fa30be04883a17ef3190610ba49083815260200190565b610b703382611411612269565b9190612698565b600061143f61142561231d565b5473ffffffffffffffffffffffffffffffffffffffff1690565b905090565b61146e7fa49807205ce4d355092ef5a8a18f56e8913cf4a201fbe287825b095693c21775336108a8565b60008151116114d9576040517f08c379a000000000000000000000000000000000000000000000000000000000815260206004820152601960248201527f456d70747920526561736f6e20636f64657320617272617920000000000000006044820152606401610a2a565b60005b81518110156115e757606a60008383815181106114fb576114fb613720565b60209081029190910181015182528101919091526040016000205460ff1661157f576040517f08c379a000000000000000000000000000000000000000000000000000000000815260206004820152601a60248201527f526561736f6e20636f646520646f6573206e6f742065786973740000000000006044820152606401610a2a565b606a600083838151811061159557611595613720565b602090810291909101810151825281019190915260400160002080547fffffffffffffffffffffffffffffffffffffffffffffffffffffffffffffff00169055806115df8161374f565b9150506114dc565b507f5b2c9fcbb27d48bdbfc59f0564b5ba81539309ebf09a940fad64d171bcfb9ff981604051610ba49190613787565b600061165b8383611626612269565b60009283526020908152604080842073ffffffffffffffffffffffffffffffffffffffff909316845291905290205460ff1690565b9392505050565b6067546040517fcad6b90100000000000000000000000000000000000000000000000000000000815260009173ffffffffffffffffffffffffffffffffffffffff169063cad6b901906116bb908a908c906004016136a3565b602060405180830381865afa1580156116d8573d6000803e3d6000fd5b505050506040513d601f19601f820116820180604052508101906116fc91906136c5565b905061170c818787878787611d90565b5050505050505050565b6067546040517fa9735f9400000000000000000000000000000000000000000000000000000000815260048101839052600091829173ffffffffffffffffffffffffffffffffffffffff9091169063a9735f9490602401602060405180830381865afa15801561178a573d6000803e3d6000fd5b505050506040513d601f19601f820116820180604052508101906117ae91906136c5565b606554600090815260686020908152604080832096835295815285822092825291909152929092205492915050565b6067546040517fcad6b90100000000000000000000000000000000000000000000000000000000815260009173ffffffffffffffffffffffffffffffffffffffff169063cad6b901906118369088908a906004016136a3565b602060405180830381865afa158015611853573d6000803e3d6000fd5b505050506040513d601f19601f8201168201806040525081019061187791906136c5565b90506118868782868686610882565b50505050505050565b6067546040517fa9735f9400000000000000000000000000000000000000000000000000000000815260048101839052600091829173ffffffffffffffffffffffffffffffffffffffff9091169063a9735f9490602401602060405180830381865afa158015611903573d6000803e3d6000fd5b505050506040513d601f19601f8201168201806040525081019061192791906136c5565b600094855260686020908152604080872095875294815284862091865252505090205490565b600054610100900460ff161580801561196d5750600054600160ff909116105b806119875750303b158015611987575060005460ff166001145b611a13576040517f08c379a000000000000000000000000000000000000000000000000000000000815260206004820152602e60248201527f496e697469616c697a61626c653a20636f6e747261637420697320616c72656160448201527f647920696e697469616c697a65640000000000000000000000000000000000006064820152608401610a2a565b600080547fffffffffffffffffffffffffffffffffffffffffffffffffffffffffffffff001660011790558015611a7157600080547fffffffffffffffffffffffffffffffffffffffffffffffffffffffffffff00ff166101001790555b611a7961273c565b73ffffffffffffffffffffffffffffffffffffffff8216611af6576040517f08c379a000000000000000000000000000000000000000000000000000000000815260206004820152601c60248201527f4e6f7420612076616c696420436f6e74726163742041646472657373000000006044820152606401610a2a565b611b0833611b0261231d565b906127d5565b606780547fffffffffffffffffffffffff00000000000000000000000000000000000000001673ffffffffffffffffffffffffffffffffffffffff84161790558015610f6557600080547fffffffffffffffffffffffffffffffffffffffffffffffffffffffffffff00ff169055604051600181527f7f26b83ff96e1f2b6a682f133852f6798a09c465da95921460cefb38474024989060200160405180910390a15050565b6067546040517f6352211e0000000000000000000000000000000000000000000000000000000081526004810185905260009173ffffffffffffffffffffffffffffffffffffffff1690636352211e90602401602060405180830381865afa158015611c1e573d6000803e3d6000fd5b505050506040513d601f19601f82011682018060405250810190611c4291906137cb565b90503373ffffffffffffffffffffffffffffffffffffffff821614611cc3576040517f08c379a000000000000000000000000000000000000000000000000000000000815260206004820152601760248201527f53656e646572206973206e6f7420746865206f776e65720000000000000000006044820152606401610a2a565b6067546040517fa9735f940000000000000000000000000000000000000000000000000000000081526004810186905260009173ffffffffffffffffffffffffffffffffffffffff169063a9735f9490602401602060405180830381865afa158015611d33573d6000803e3d6000fd5b505050506040513d601f19601f82011682018060405250810190611d5791906136c5565b9050611d668582868633612814565b5050505050565b33611d7a8161094861231d565b610964838383611d88612269565b9291906129dd565b6067546040517fa9735f940000000000000000000000000000000000000000000000000000000081526004810188905260009173ffffffffffffffffffffffffffffffffffffffff169063a9735f9490602401602060405180830381865afa158015611e00573d6000803e3d6000fd5b505050506040513d601f19601f82011682018060405250810190611e2491906136c5565b60008881526069602090815260408083205460655482518085018e9052808401879052606081018d9052608081019190915260a081018b905260c0808201929092528251808203909201825260e0019091528051910120919250906040517f19457468657265756d205369676e6564204d6573736167653a0a3332000000006020820152603c8101829052909150600090605c01604080517fffffffffffffffffffffffffffffffffffffffffffffffffffffffffffffffe08184030181528282528051602091820120600080855291840180845281905260ff8a169284019290925260608301889052608083018790529092509060019060a0016020604051602081039080840390855afa158015611f41573d6000803e3d6000fd5b50506040517fffffffffffffffffffffffffffffffffffffffffffffffffffffffffffffffe08101516067547f6352211e000000000000000000000000000000000000000000000000000000008352600483018e90529093506000925073ffffffffffffffffffffffffffffffffffffffff1690636352211e90602401602060405180830381865afa158015611fdb573d6000803e3d6000fd5b505050506040513d601f19601f82011682018060405250810190611fff91906137cb565b90508073ffffffffffffffffffffffffffffffffffffffff168273ffffffffffffffffffffffffffffffffffffffff1614612096576040517f08c379a000000000000000000000000000000000000000000000000000000000815260206004820152601760248201527f5369676e6572206973206e6f7420746865206f776e65720000000000000000006044820152606401610a2a565b6120a38b868c8c85612814565b5050505050505050505050565b6067546040517fa9735f9400000000000000000000000000000000000000000000000000000000815260048101859052600091829173ffffffffffffffffffffffffffffffffffffffff9091169063a9735f9490602401602060405180830381865afa158015612124573d6000803e3d6000fd5b505050506040513d601f19601f8201168201806040525081019061214891906136c5565b60008681526069602090815260408083205460655482518085018c9052808401879052606081018b9052608081019190915260a0810189905260c0808201929092528251808203909201825260e0019091528051910120919250905b9695505050505050565b6067546040517fcad6b90100000000000000000000000000000000000000000000000000000000815260009173ffffffffffffffffffffffffffffffffffffffff169063cad6b9019061220790879089906004016136a3565b602060405180830381865afa158015612224573d6000803e3d6000fd5b505050506040513d601f19601f8201168201806040525081019061224891906136c5565b9050611d66818484611bae565b610b70338261226261231d565b9190612aa7565b6000806112ed60017fc8827d3282af6f37b64c3e9e6f3ac9df286ab0bb0fccd6f8661bf19adb368b236137e8565b60008281526020848152604080832073ffffffffffffffffffffffffffffffffffffffff8516845290915290205460ff16610964576040517f7aa728820000000000000000000000000000000000000000000000000000000081526004810183905273ffffffffffffffffffffffffffffffffffffffff82166024820152604401610a2a565b6000806112ed60017fc9ed16f33ab3a66c84bfd83099ccb2a8845871e2e1c1928f63797152f0fd54cd6137e8565b815473ffffffffffffffffffffffffffffffffffffffff828116911614610f65576040517f2ef4875e00000000000000000000000000000000000000000000000000000000815273ffffffffffffffffffffffffffffffffffffffff82166004820152602401610a2a565b60008381526020858152604080832073ffffffffffffffffffffffffffffffffffffffff8616845290915290205460ff166124875760008381526020858152604080832073ffffffffffffffffffffffffffffffffffffffff8681168086529184529382902080547fffffffffffffffffffffffffffffffffffffffffffffffffffffffffffffff00166001179055815187815292830152918316918101919091527f2f8788117e7eff1d82e926ec794901d17c78024a50270940304540a733656f0d906060015b60405180910390a15b50505050565b610b703361094861231d565b7f4910fdfa16fed3260ed0e7147f7cc6da11a60208b5b9406d12a635614ffd91435460ff16156124cc5761096483612bbb565b8273ffffffffffffffffffffffffffffffffffffffff166352d1902d6040518163ffffffff1660e01b8152600401602060405180830381865afa925050508015612551575060408051601f3d9081017fffffffffffffffffffffffffffffffffffffffffffffffffffffffffffffffe016820190925261254e918101906136c5565b60015b6125dd576040517f08c379a000000000000000000000000000000000000000000000000000000000815260206004820152602e60248201527f45524331393637557067726164653a206e657720696d706c656d656e7461746960448201527f6f6e206973206e6f7420555550530000000000000000000000000000000000006064820152608401610a2a565b7f360894a13ba1a3210667c828492db98dca3e2076cc3735a920a3ca505d382bbc811461268c576040517f08c379a000000000000000000000000000000000000000000000000000000000815260206004820152602960248201527f45524331393637557067726164653a20756e737570706f727465642070726f7860448201527f6961626c655555494400000000000000000000000000000000000000000000006064820152608401610a2a565b50610964838383612cc5565b6126a3838284612297565b60008181526020848152604080832073ffffffffffffffffffffffffffffffffffffffff86168085529083529281902080547fffffffffffffffffffffffffffffffffffffffffffffffffffffffffffffff0016905580518481529182018390528101919091527ff6391f5c32d9c69d2a47ea670b442974b53935d1edc7fd64eb21e047a839171b9060600160405180910390a1505050565b600054610100900460ff166127d3576040517f08c379a000000000000000000000000000000000000000000000000000000000815260206004820152602b60248201527f496e697469616c697a61626c653a20636f6e7472616374206973206e6f74206960448201527f6e697469616c697a696e670000000000000000000000000000000000000000006064820152608401610a2a565b565b61280a61280360017f5b388d90dc1312ba799f321972f13311234fa1163bcabec7cf66101c4876eb846137e8565b6001612cea565b610f658282612d36565b606554600090815260686020908152604080832088845282528083208784529091529020548311156128a2576040517f08c379a000000000000000000000000000000000000000000000000000000000815260206004820152601460248201527f496e73756666696369656e742062616c616e63650000000000000000000000006044820152606401610a2a565b6000828152606a602052604090205460ff1661291a576040517f08c379a000000000000000000000000000000000000000000000000000000000815260206004820152601b60248201527f496e76616c696420636f6e73756d6520726561736f6e20636f646500000000006044820152606401610a2a565b606554600090815260686020908152604080832088845282528083208784529091528120805485929061294e9084906137e8565b9091555050606554604080513381526020810187905280820186905273ffffffffffffffffffffffffffffffffffffffff84166060820152905184929188917fe514533875fbd3f8f396088d636e746599d8b5c3ba77e9ccfa9fc01ff70646019181900360800190a460008581526069602052604081208054916129d18361374f565b91905055505050505050565b60008381526020858152604080832073ffffffffffffffffffffffffffffffffffffffff8616845290915290205460ff16156124875760008381526020858152604080832073ffffffffffffffffffffffffffffffffffffffff8681168086529184529382902080547fffffffffffffffffffffffffffffffffffffffffffffffffffffffffffffff00169055815187815292830152918316918101919091527ff6391f5c32d9c69d2a47ea670b442974b53935d1edc7fd64eb21e047a839171b9060600161247e565b825473ffffffffffffffffffffffffffffffffffffffff9081169083168114612b14576040517f2ef4875e00000000000000000000000000000000000000000000000000000000815273ffffffffffffffffffffffffffffffffffffffff84166004820152602401610a2a565b8173ffffffffffffffffffffffffffffffffffffffff168173ffffffffffffffffffffffffffffffffffffffff16146124875783547fffffffffffffffffffffffff00000000000000000000000000000000000000001673ffffffffffffffffffffffffffffffffffffffff8381169182178655604051908316907f8be0079c531659141344cd1fd0a4f28419497f9722a3daafe3b4186f6b6457e090600090a350505050565b73ffffffffffffffffffffffffffffffffffffffff81163b612c5f576040517f08c379a000000000000000000000000000000000000000000000000000000000815260206004820152602d60248201527f455243313936373a206e657720696d706c656d656e746174696f6e206973206e60448201527f6f74206120636f6e7472616374000000000000000000000000000000000000006064820152608401610a2a565b7f360894a13ba1a3210667c828492db98dca3e2076cc3735a920a3ca505d382bbc80547fffffffffffffffffffffffff00000000000000000000000000000000000000001673ffffffffffffffffffffffffffffffffffffffff92909216919091179055565b612cce83612df3565b600082511180612cdb5750805b15610964576124878383612e40565b81548290828110612d31576040517fbf0c18ec0000000000000000000000000000000000000000000000000000000081526004810182905260248101849052604401610a2a565b505550565b73ffffffffffffffffffffffffffffffffffffffff811615612dbe5781547fffffffffffffffffffffffff00000000000000000000000000000000000000001673ffffffffffffffffffffffffffffffffffffffff821690811783556040516000907f8be0079c531659141344cd1fd0a4f28419497f9722a3daafe3b4186f6b6457e0908290a35b610f657f7f5828d0000000000000000000000000000000000000000000000000000000006001612dec612e65565b9190612e93565b612dfc81612bbb565b60405173ffffffffffffffffffffffffffffffffffffffff8216907fbc7cd75a20ee27fd9adebab32041f755214dbc6bffa90cc0225b39da2e5c2d3b90600090a250565b606061165b838360405180606001604052806027815260200161382b60279139612f6f565b6000806112ed60017fca9d3e17f264b0f3984e2634e94adb37fa3e6a8103f06aeae6fa59e21c769f5e6137e8565b7c01000000000000000000000000000000000000000000000000000000007fffffffff00000000000000000000000000000000000000000000000000000000831601612f0b576040517f72c683bb00000000000000000000000000000000000000000000000000000000815260040160405180910390fd5b7fffffffff00000000000000000000000000000000000000000000000000000000919091166000908152602092909252604090912080547fffffffffffffffffffffffffffffffffffffffffffffffffffffffffffffff0016911515919091179055565b60606000808573ffffffffffffffffffffffffffffffffffffffff1685604051612f9991906137fb565b600060405180830381855af49150503d8060008114612fd4576040519150601f19603f3d011682016040523d82523d6000602084013e612fd9565b606091505b50915091506121a4868383876060831561307b5782516000036130745773ffffffffffffffffffffffffffffffffffffffff85163b613074576040517f08c379a000000000000000000000000000000000000000000000000000000000815260206004820152601d60248201527f416464726573733a2063616c6c20746f206e6f6e2d636f6e74726163740000006044820152606401610a2a565b5081613085565b613085838361308d565b949350505050565b81511561309d5781518083602001fd5b806040517f08c379a0000000000000000000000000000000000000000000000000000000008152600401610a2a9190613817565b7f4e487b7100000000000000000000000000000000000000000000000000000000600052604160045260246000fd5b604051601f82017fffffffffffffffffffffffffffffffffffffffffffffffffffffffffffffffe016810167ffffffffffffffff81118282101715613147576131476130d1565b604052919050565b600067ffffffffffffffff831115613169576131696130d1565b61319a60207fffffffffffffffffffffffffffffffffffffffffffffffffffffffffffffffe0601f86011601613100565b90508281528383830111156131ae57600080fd5b828260208301376000602084830101529392505050565b600082601f8301126131d657600080fd5b61165b8383356020850161314f565b6000806000606084860312156131fa57600080fd5b8335925060208401359150604084013567ffffffffffffffff81111561321f57600080fd5b61322b868287016131c5565b9150509250925092565b60006020828403121561324757600080fd5b5035919050565b600080600080600060a0868803121561326657600080fd5b505083359560208501359550604085013594606081013594506080013592509050565b73ffffffffffffffffffffffffffffffffffffffff81168114610b7057600080fd5b600080604083850312156132be57600080fd5b8235915060208301356132d081613289565b809150509250929050565b6000602082840312156132ed57600080fd5b813561165b81613289565b6000602080838503121561330b57600080fd5b823567ffffffffffffffff8082111561332357600080fd5b818501915085601f83011261333757600080fd5b813581811115613349576133496130d1565b8060051b915061335a848301613100565b818152918301840191848101908884111561337457600080fd5b938501935b8385101561339257843582529385019390850190613379565b98975050505050505050565b600080604083850312156133b157600080fd5b82356133bc81613289565b9150602083013567ffffffffffffffff8111156133d857600080fd5b8301601f810185136133e957600080fd5b6133f88582356020840161314f565b9150509250929050565b60008060006060848603121561341757600080fd5b505081359360208301359350604090920135919050565b6000806040838503121561344157600080fd5b82359150602083013567ffffffffffffffff81111561345f57600080fd5b6133f8858286016131c5565b803560ff8116811461347c57600080fd5b919050565b600080600080600080600060e0888a03121561349c57600080fd5b87359650602088013567ffffffffffffffff8111156134ba57600080fd5b6134c68a828b016131c5565b96505060408801359450606088013593506134e36080890161346b565b925060a0880135915060c0880135905092959891949750929550565b60008060008060008060c0878903121561351857600080fd5b8635955060208701359450604087013567ffffffffffffffff81111561353d57600080fd5b61354989828a016131c5565b945050606087013592506080870135915060a087013590509295509295509295565b6000806040838503121561357e57600080fd5b50508035926020909101359150565b60008060008060008060c087890312156135a657600080fd5b8635955060208701359450604087013593506135c46060880161346b565b92506080870135915060a087013590509295509295509295565b600080600080608085870312156135f457600080fd5b84359350602085013567ffffffffffffffff81111561361257600080fd5b61361e878288016131c5565b949794965050505060408301359260600135919050565b60005b83811015613650578181015183820152602001613638565b50506000910152565b60008151808452613671816020860160208601613635565b601f017fffffffffffffffffffffffffffffffffffffffffffffffffffffffffffffffe0169290920160200192915050565b6040815260006136b66040830185613659565b90508260208301529392505050565b6000602082840312156136d757600080fd5b5051919050565b7f4e487b7100000000000000000000000000000000000000000000000000000000600052601160045260246000fd5b808201808211156112ed576112ed6136de565b7f4e487b7100000000000000000000000000000000000000000000000000000000600052603260045260246000fd5b60007fffffffffffffffffffffffffffffffffffffffffffffffffffffffffffffffff8203613780576137806136de565b5060010190565b6020808252825182820181905260009190848201906040850190845b818110156137bf578351835292840192918401916001016137a3565b50909695505050505050565b6000602082840312156137dd57600080fd5b815161165b81613289565b818103818111156112ed576112ed6136de565b6000825161380d818460208701613635565b9190910192915050565b60208152600061165b602083018461365956fe416464726573733a206c6f772d6c6576656c2064656c65676174652063616c6c206661696c6564a26469706673582212202a03d813de46738b5dfd019164f4425a3a966efed14e8b175368308ab105badc64736f6c63430008150033",
  "linkReferences": {},
  "deployedLinkReferences": {}
}