{"contracts/MocaPoints/mock/realmIdContract/mockRealmId.sol":{"MockRealmId":{"abi":[{"anonymous":false,"inputs":[{"indexed":false,"internalType":"address","name":"previousAdmin","type":"address"},{"indexed":false,"internalType":"address","name":"newAdmin","type":"address"}],"name":"AdminChanged","type":"event"},{"anonymous":false,"inputs":[{"indexed":true,"internalType":"address","name":"owner","type":"address"},{"indexed":true,"internalType":"address","name":"approved","type":"address"},{"indexed":true,"internalType":"uint256","name":"tokenId","type":"uint256"}],"name":"Approval","type":"event"},{"anonymous":false,"inputs":[{"indexed":true,"internalType":"address","name":"owner","type":"address"},{"indexed":true,"internalType":"address","name":"operator","type":"address"},{"indexed":false,"internalType":"bool","name":"approved","type":"bool"}],"name":"ApprovalForAll","type":"event"},{"anonymous":false,"inputs":[{"indexed":false,"internalType":"bytes32","name":"node","type":"bytes32"},{"indexed":false,"internalType":"string","name":"uri","type":"string"}],"name":"BaseTokenURISet","type":"event"},{"anonymous":false,"inputs":[{"indexed":true,"internalType":"address","name":"beacon","type":"address"}],"name":"BeaconUpgraded","type":"event"},{"anonymous":false,"inputs":[{"indexed":true,"internalType":"uint256","name":"tokenId","type":"uint256"},{"indexed":false,"internalType":"uint256","name":"burnCount","type":"uint256"}],"name":"Burn","type":"event"},{"anonymous":false,"inputs":[{"indexed":true,"internalType":"uint256","name":"tokenId","type":"uint256"},{"indexed":false,"internalType":"string","name":"key","type":"string"},{"indexed":false,"internalType":"string","name":"value","type":"string"}],"name":"GatedMetadataChanged","type":"event"},{"anonymous":false,"inputs":[{"indexed":true,"internalType":"uint256","name":"tokenId","type":"uint256"},{"indexed":false,"internalType":"uint64","name":"newVersion","type":"uint64"}],"name":"GatedMetadataVersionChanged","type":"event"},{"anonymous":false,"inputs":[{"indexed":false,"internalType":"uint8","name":"version","type":"uint8"}],"name":"Initialized","type":"event"},{"anonymous":false,"inputs":[{"indexed":true,"internalType":"uint256","name":"tokenId","type":"uint256"},{"indexed":false,"internalType":"string","name":"key","type":"string"},{"indexed":false,"internalType":"string","name":"value","type":"string"}],"name":"MetadataChanged","type":"event"},{"anonymous":false,"inputs":[{"indexed":true,"internalType":"uint256","name":"tokenId","type":"uint256"},{"indexed":false,"internalType":"uint64","name":"newVersion","type":"uint64"}],"name":"MetadataVersionChanged","type":"event"},{"anonymous":false,"inputs":[{"indexed":false,"internalType":"bytes32","name":"node","type":"bytes32"},{"indexed":true,"internalType":"address","name":"middleware","type":"address"},{"indexed":false,"internalType":"bytes","name":"data","type":"bytes"}],"name":"MiddlewareSet","type":"event"},{"anonymous":false,"inputs":[{"indexed":true,"internalType":"bytes32","name":"node","type":"bytes32"},{"indexed":false,"internalType":"string","name":"label","type":"string"},{"indexed":false,"internalType":"bytes32","name":"parentNode","type":"bytes32"},{"indexed":false,"internalType":"bool","name":"allowed","type":"bool"}],"name":"NodeAllowanceChanged","type":"event"},{"anonymous":false,"inputs":[{"indexed":true,"internalType":"address","name":"previousOwner","type":"address"},{"indexed":true,"internalType":"address","name":"newOwner","type":"address"}],"name":"OwnershipTransferred","type":"event"},{"anonymous":false,"inputs":[{"indexed":false,"internalType":"address","name":"account","type":"address"}],"name":"Paused","type":"event"},{"anonymous":false,"inputs":[{"indexed":false,"internalType":"string","name":"name","type":"string"},{"indexed":false,"internalType":"bytes32","name":"parentNode","type":"bytes32"},{"indexed":true,"internalType":"uint256","name":"tokenId","type":"uint256"},{"indexed":true,"internalType":"address","name":"to","type":"address"}],"name":"Register","type":"event"},{"anonymous":false,"inputs":[{"indexed":true,"internalType":"address","name":"from","type":"address"},{"indexed":true,"internalType":"address","name":"to","type":"address"},{"indexed":true,"internalType":"uint256","name":"tokenId","type":"uint256"}],"name":"Transfer","type":"event"},{"anonymous":false,"inputs":[{"indexed":false,"internalType":"address","name":"account","type":"address"}],"name":"Unpaused","type":"event"},{"anonymous":false,"inputs":[{"indexed":true,"internalType":"address","name":"implementation","type":"address"}],"name":"Upgraded","type":"event"},{"inputs":[{"internalType":"string","name":"label","type":"string"},{"internalType":"bytes32","name":"parentNode","type":"bytes32"},{"internalType":"bool","name":"allow","type":"bool"},{"internalType":"string","name":"baseTokenURI","type":"string"},{"internalType":"address","name":"middleware","type":"address"},{"internalType":"bytes","name":"middlewareData","type":"bytes"}],"name":"allowNode","outputs":[{"internalType":"bytes32","name":"allowedNode","type":"bytes32"}],"stateMutability":"nonpayable","type":"function"},{"inputs":[{"internalType":"bytes32","name":"","type":"bytes32"}],"name":"allowedParentNodes","outputs":[{"internalType":"bool","name":"","type":"bool"}],"stateMutability":"view","type":"function"},{"inputs":[{"internalType":"address","name":"to","type":"address"},{"internalType":"uint256","name":"tokenId","type":"uint256"}],"name":"approve","outputs":[],"stateMutability":"nonpayable","type":"function"},{"inputs":[{"internalType":"string","name":"_name","type":"string"},{"internalType":"bytes32","name":"parentNode","type":"bytes32"}],"name":"available","outputs":[{"internalType":"bool","name":"","type":"bool"}],"stateMutability":"view","type":"function"},{"inputs":[{"internalType":"address","name":"owner","type":"address"}],"name":"balanceOf","outputs":[{"internalType":"uint256","name":"","type":"uint256"}],"stateMutability":"view","type":"function"},{"inputs":[{"internalType":"bytes32","name":"","type":"bytes32"}],"name":"baseTokenURIs","outputs":[{"internalType":"string","name":"","type":"string"}],"stateMutability":"view","type":"function"},{"inputs":[{"internalType":"uint256","name":"tokenId","type":"uint256"},{"components":[{"internalType":"string","name":"key","type":"string"},{"internalType":"string","name":"value","type":"string"}],"internalType":"struct DataTypes.MetadataPair[]","name":"pairs","type":"tuple[]"}],"name":"batchSetGatedMetadatas","outputs":[],"stateMutability":"nonpayable","type":"function"},{"inputs":[{"internalType":"uint256","name":"tokenId","type":"uint256"},{"components":[{"internalType":"string","name":"key","type":"string"},{"internalType":"string","name":"value","type":"string"}],"internalType":"struct DataTypes.MetadataPair[]","name":"pairs","type":"tuple[]"}],"name":"batchSetMetadatas","outputs":[],"stateMutability":"nonpayable","type":"function"},{"inputs":[{"internalType":"uint256","name":"tokenId","type":"uint256"}],"name":"burn","outputs":[],"stateMutability":"nonpayable","type":"function"},{"inputs":[{"internalType":"uint256","name":"","type":"uint256"}],"name":"burnCounts","outputs":[{"internalType":"uint256","name":"","type":"uint256"}],"stateMutability":"view","type":"function"},{"inputs":[{"internalType":"uint256","name":"tokenId","type":"uint256"}],"name":"clearGatedMetadatas","outputs":[],"stateMutability":"nonpayable","type":"function"},{"inputs":[{"internalType":"uint256","name":"tokenId","type":"uint256"}],"name":"clearMetadatas","outputs":[],"stateMutability":"nonpayable","type":"function"},{"inputs":[{"internalType":"uint256","name":"","type":"uint256"}],"name":"gatedMetadataVersions","outputs":[{"internalType":"uint64","name":"","type":"uint64"}],"stateMutability":"view","type":"function"},{"inputs":[{"internalType":"uint256","name":"tokenId","type":"uint256"}],"name":"getApproved","outputs":[{"internalType":"address","name":"","type":"address"}],"stateMutability":"view","type":"function"},{"inputs":[{"internalType":"uint256","name":"tokenId","type":"uint256"},{"internalType":"string","name":"key","type":"string"}],"name":"getGatedMetadata","outputs":[{"internalType":"string","name":"","type":"string"}],"stateMutability":"view","type":"function"},{"inputs":[{"internalType":"uint256","name":"tokenId","type":"uint256"},{"internalType":"string","name":"key","type":"string"}],"name":"getMetadata","outputs":[{"internalType":"string","name":"","type":"string"}],"stateMutability":"view","type":"function"},{"inputs":[{"internalType":"string","name":"_name","type":"string"},{"internalType":"bytes32","name":"parentNode","type":"bytes32"}],"name":"getTokenId","outputs":[{"internalType":"uint256","name":"","type":"uint256"}],"stateMutability":"pure","type":"function"},{"inputs":[{"internalType":"string","name":"_tokenName","type":"string"},{"internalType":"string","name":"_tokenSymbol","type":"string"},{"internalType":"address","name":"_owner","type":"address"}],"name":"initialize","outputs":[],"stateMutability":"nonpayable","type":"function"},{"inputs":[{"internalType":"address","name":"owner","type":"address"},{"internalType":"address","name":"operator","type":"address"}],"name":"isApprovedForAll","outputs":[{"internalType":"bool","name":"","type":"bool"}],"stateMutability":"view","type":"function"},{"inputs":[{"internalType":"uint256","name":"","type":"uint256"}],"name":"metadataVersions","outputs":[{"internalType":"uint64","name":"","type":"uint64"}],"stateMutability":"view","type":"function"},{"inputs":[{"internalType":"bytes32","name":"","type":"bytes32"}],"name":"middlewares","outputs":[{"internalType":"address","name":"","type":"address"}],"stateMutability":"view","type":"function"},{"inputs":[],"name":"name","outputs":[{"internalType":"string","name":"","type":"string"}],"stateMutability":"view","type":"function"},{"inputs":[],"name":"owner","outputs":[{"internalType":"address","name":"","type":"address"}],"stateMutability":"view","type":"function"},{"inputs":[{"internalType":"uint256","name":"","type":"uint256"}],"name":"ownerOf","outputs":[{"internalType":"address","name":"","type":"address"}],"stateMutability":"pure","type":"function"},{"inputs":[{"internalType":"uint256","name":"","type":"uint256"}],"name":"parents","outputs":[{"internalType":"bytes32","name":"","type":"bytes32"}],"stateMutability":"view","type":"function"},{"inputs":[],"name":"pause","outputs":[],"stateMutability":"nonpayable","type":"function"},{"inputs":[],"name":"paused","outputs":[{"internalType":"bool","name":"","type":"bool"}],"stateMutability":"view","type":"function"},{"inputs":[],"name":"proxiableUUID","outputs":[{"internalType":"bytes32","name":"","type":"bytes32"}],"stateMutability":"view","type":"function"},{"inputs":[{"internalType":"string","name":"_name","type":"string"},{"internalType":"bytes32","name":"parentNode","type":"bytes32"},{"internalType":"address","name":"to","type":"address"},{"internalType":"bytes","name":"preData","type":"bytes"}],"name":"register","outputs":[{"internalType":"uint256","name":"","type":"uint256"}],"stateMutability":"nonpayable","type":"function"},{"inputs":[],"name":"renounceOwnership","outputs":[],"stateMutability":"nonpayable","type":"function"},{"inputs":[{"internalType":"address","name":"from","type":"address"},{"internalType":"address","name":"to","type":"address"},{"internalType":"uint256","name":"tokenId","type":"uint256"}],"name":"safeTransferFrom","outputs":[],"stateMutability":"nonpayable","type":"function"},{"inputs":[{"internalType":"address","name":"from","type":"address"},{"internalType":"address","name":"to","type":"address"},{"internalType":"uint256","name":"tokenId","type":"uint256"},{"internalType":"bytes","name":"data","type":"bytes"}],"name":"safeTransferFrom","outputs":[],"stateMutability":"nonpayable","type":"function"},{"inputs":[{"internalType":"address","name":"operator","type":"address"},{"internalType":"bool","name":"approved","type":"bool"}],"name":"setApprovalForAll","outputs":[],"stateMutability":"nonpayable","type":"function"},{"inputs":[{"internalType":"bytes32","name":"node","type":"bytes32"},{"internalType":"string","name":"uri","type":"string"}],"name":"setBaseTokenURI","outputs":[],"stateMutability":"nonpayable","type":"function"},{"inputs":[{"internalType":"bytes32","name":"node","type":"bytes32"},{"internalType":"address","name":"_middleware","type":"address"},{"internalType":"bytes","name":"data","type":"bytes"}],"name":"setMiddleware","outputs":[],"stateMutability":"nonpayable","type":"function"},{"inputs":[{"internalType":"bytes4","name":"interfaceId","type":"bytes4"}],"name":"supportsInterface","outputs":[{"internalType":"bool","name":"","type":"bool"}],"stateMutability":"view","type":"function"},{"inputs":[],"name":"symbol","outputs":[{"internalType":"string","name":"","type":"string"}],"stateMutability":"view","type":"function"},{"inputs":[{"internalType":"uint256","name":"tokenId","type":"uint256"}],"name":"tokenURI","outputs":[{"internalType":"string","name":"","type":"string"}],"stateMutability":"view","type":"function"},{"inputs":[],"name":"totalSupply","outputs":[{"internalType":"uint256","name":"","type":"uint256"}],"stateMutability":"view","type":"function"},{"inputs":[{"internalType":"address","name":"from","type":"address"},{"internalType":"address","name":"to","type":"address"},{"internalType":"uint256","name":"tokenId","type":"uint256"}],"name":"transferFrom","outputs":[],"stateMutability":"nonpayable","type":"function"},{"inputs":[{"internalType":"address","name":"newOwner","type":"address"}],"name":"transferOwnership","outputs":[],"stateMutability":"nonpayable","type":"function"},{"inputs":[],"name":"unpause","outputs":[],"stateMutability":"nonpayable","type":"function"},{"inputs":[{"internalType":"address","name":"newImplementation","type":"address"}],"name":"upgradeTo","outputs":[],"stateMutability":"nonpayable","type":"function"},{"inputs":[{"internalType":"address","name":"newImplementation","type":"address"},{"internalType":"bytes","name":"data","type":"bytes"}],"name":"upgradeToAndCall","outputs":[],"stateMutability":"payable","type":"function"}],"devdoc":{"events":{"AdminChanged(address,address)":{"details":"Emitted when the admin account has changed."},"Approval(address,address,uint256)":{"details":"Emitted when `owner` enables `approved` to manage the `tokenId` token."},"ApprovalForAll(address,address,bool)":{"details":"Emitted when `owner` enables or disables (`approved`) `operator` to manage all of its assets."},"BaseTokenURISet(bytes32,string)":{"details":"Emit an event when a base token URI is set.","params":{"node":"The node to set the base token URI for","uri":"The base token URI"}},"BeaconUpgraded(address)":{"details":"Emitted when the beacon is changed."},"Burn(uint256,uint256)":{"details":"Emit an event when a realmId is burned.","params":{"burnCount":"The number of burning for the tokenId","tokenId":"The tokenId of the realmId"}},"Initialized(uint8)":{"details":"Triggered when the contract has been initialized or reinitialized."},"MiddlewareSet(bytes32,address,bytes)":{"details":"Emit an event when a middleware is set.","params":{"data":"The data of the middleware","middleware":"The middleware contract address","node":"The node to set the middleware for"}},"NodeAllowanceChanged(bytes32,string,bytes32,bool)":{"details":"Emit an event when a node allowance changed.","params":{"allowed":"The new state of allowance","label":"The label of the node","node":"The node","parentNode":"The parent node of the node"}},"Paused(address)":{"details":"Emitted when the pause is triggered by `account`."},"Register(string,bytes32,uint256,address)":{"details":"Emit an event when a realmId is registered. For example, when \"user.realm\" is registered, the name is \"user\" and the parent node is namehash(\"realm\").","params":{"name":"The name of the realmId","parentNode":"The parent node of the realmId","to":"The address that owns the realmId","tokenId":"The tokenId of the realmId"}},"Transfer(address,address,uint256)":{"details":"Emitted when `tokenId` token is transferred from `from` to `to`."},"Unpaused(address)":{"details":"Emitted when the pause is lifted by `account`."},"Upgraded(address)":{"details":"Emitted when the implementation is upgraded."}},"kind":"dev","methods":{"allowNode(string,bytes32,bool,string,address,bytes)":{"details":"allowNode(\"moca\", bytes32(0)) to allow \".moca\""},"approve(address,uint256)":{"details":"See {IERC721-approve}."},"available(string,bytes32)":{"params":{"_name":"The name to check","parentNode":"The parent node of the realmId"}},"balanceOf(address)":{"details":"See {IERC721-balanceOf}."},"batchSetGatedMetadatas(uint256,(string,string)[])":{"params":{"pairs":"The kv pairs to set.","tokenId":"The token to update."}},"batchSetMetadatas(uint256,(string,string)[])":{"params":{"pairs":"The kv pairs to set.","tokenId":"The token to update."}},"burn(uint256)":{"params":{"tokenId":"The token id to burn."}},"clearGatedMetadatas(uint256)":{"params":{"tokenId":"token to clear metadata."}},"clearMetadatas(uint256)":{"params":{"tokenId":"token to clear metadata."}},"getApproved(uint256)":{"details":"See {IERC721-getApproved}."},"getGatedMetadata(uint256,string)":{"params":{"key":"The metadata key to query.","tokenId":"The token to query."},"returns":{"_0":"The associated metadata."}},"getMetadata(uint256,string)":{"params":{"key":"The metadata key to query.","tokenId":"The token to query."},"returns":{"_0":"The associated metadata."}},"getTokenId(string,bytes32)":{"returns":{"_0":"uint256 The token id."}},"initialize(string,string,address)":{"params":{"_tokenName":"The ERC-721 name of the fname token","_tokenSymbol":"The ERC-721 symbol of the fname token"}},"isApprovedForAll(address,address)":{"details":"See {IERC721-isApprovedForAll}."},"name()":{"details":"See {IERC721Metadata-name}."},"owner()":{"details":"Returns the address of the current owner."},"paused()":{"details":"Returns true if the contract is paused, and false otherwise."},"proxiableUUID()":{"details":"Implementation of the ERC1822 {proxiableUUID} function. This returns the storage slot used by the implementation. It is used to validate the implementation's compatibility when performing an upgrade. IMPORTANT: A proxy pointing at a proxiable contract should not be considered proxiable itself, because this risks bricking a proxy that upgrades to it, by delegating to itself until out of gas. Thus it is critical that this function revert if invoked through a proxy. This is guaranteed by the `notDelegated` modifier."},"register(string,bytes32,address,bytes)":{"params":{"_name":"The name to register","parentNode":"The parent node of the realmId","preData":"The register data for preprocess.","to":"The address that will own the realmId"},"returns":{"_0":"uint256   Minted tokenId"}},"renounceOwnership()":{"details":"Leaves the contract without owner. It will not be possible to call `onlyOwner` functions. Can only be called by the current owner. NOTE: Renouncing ownership will leave the contract without an owner, thereby disabling any functionality that is only available to the owner."},"safeTransferFrom(address,address,uint256)":{"details":"See {IERC721-safeTransferFrom}."},"safeTransferFrom(address,address,uint256,bytes)":{"details":"See {IERC721-safeTransferFrom}."},"setApprovalForAll(address,bool)":{"details":"See {IERC721-setApprovalForAll}."},"supportsInterface(bytes4)":{"details":"See {IERC165-supportsInterface}."},"symbol()":{"details":"See {IERC721Metadata-symbol}."},"tokenURI(uint256)":{"params":{"tokenId":"The uint256 tokenId of the realmId"}},"totalSupply()":{"returns":{"_0":"uint256 The total supply."}},"transferFrom(address,address,uint256)":{"details":"See {IERC721-transferFrom}."},"transferOwnership(address)":{"details":"Transfers ownership of the contract to a new account (`newOwner`). Can only be called by the current owner."},"upgradeTo(address)":{"custom:oz-upgrades-unsafe-allow-reachable":"delegatecall","details":"Upgrade the implementation of the proxy to `newImplementation`. Calls {_authorizeUpgrade}. Emits an {Upgraded} event."},"upgradeToAndCall(address,bytes)":{"custom:oz-upgrades-unsafe-allow-reachable":"delegatecall","details":"Upgrade the implementation of the proxy to `newImplementation`, and subsequently execute the function call encoded in `data`. Calls {_authorizeUpgrade}. Emits an {Upgraded} event."}},"version":1},"evm":{"bytecode":{"linkReferences":{},"object":"60a06040523060805234801561001457600080fd5b5060805161535961004c600039600081816113ff015281816114af0152818161179701528181611847015261198c01526153596000f3fe6080604052600436106102e75760003560e01c80636352211e11610184578063a9735f94116100d6578063cb4799f21161008a578063e985e9c511610064578063e985e9c5146108b8578063f2fde38b1461090e578063f97c6dae1461092e57600080fd5b8063cb4799f214610840578063d619cee514610860578063d9a9eb241461088057600080fd5b8063b88d4fde116100bb578063b88d4fde146107e0578063c87b56dd14610800578063cad6b9011461082057600080fd5b8063a9735f9414610792578063b33dab09146107c057600080fd5b8063898572a61161013857806395d89b411161011257806395d89b411461073d57806396977c1b14610752578063a22cb4651461077257600080fd5b8063898572a6146106c45780638da5cb5b146106f25780638e73361e1461071d57600080fd5b8063715018a611610169578063715018a61461067a5780637c7efe6b1461068f5780638456cb59146106af57600080fd5b80636352211e1461062657806370a082311461065a57600080fd5b806323b872dd1161023d57806342842e0e116101f157806352d1902d116101cb57806352d1902d146105b457806357ad9c90146105c95780635c975abb1461060d57600080fd5b806342842e0e1461056157806342966c68146105815780634f1ef286146105a157600080fd5b806326ec9ad81161022257806326ec9ad81461050c5780633659cfe61461052c5780633f4ba83a1461054c57600080fd5b806323b872dd146104cc5780632595eacb146104ec57600080fd5b8063081812fc1161029f57806316404d011161027957806316404d011461045b57806318160ddd1461048c5780631f0509e0146104ac57600080fd5b8063081812fc146103a5578063095ea7b3146103ea5780630ae16e531461040a57600080fd5b80630739d191116102d05780630739d19114610343578063077f224a1461036357806307b472c41461038557600080fd5b806301ffc9a7146102ec57806306fdde0314610321575b600080fd5b3480156102f857600080fd5b5061030c610307366004614377565b61094e565b60405190151581526020015b60405180910390f35b34801561032d57600080fd5b50610336610a33565b6040516103189190614402565b34801561034f57600080fd5b5061033661035e366004614521565b610ac5565b34801561036f57600080fd5b5061038361037e3660046145da565b610ba6565b005b34801561039157600080fd5b506103836103a036600461465b565b610dd6565b3480156103b157600080fd5b506103c56103c036600461465b565b610e53565b60405173ffffffffffffffffffffffffffffffffffffffff9091168152602001610318565b3480156103f657600080fd5b50610383610405366004614674565b610e87565b34801561041657600080fd5b5061044261042536600461465b565b6101626020526000908152604090205467ffffffffffffffff1681565b60405167ffffffffffffffff9091168152602001610318565b34801561046757600080fd5b5061030c61047636600461465b565b61018d6020526000908152604090205460ff1681565b34801561049857600080fd5b5061018f545b604051908152602001610318565b3480156104b857600080fd5b506103836104c736600461469e565b611013565b3480156104d857600080fd5b506103836104e73660046146ea565b611076565b3480156104f857600080fd5b5061030c610507366004614726565b6110ef565b34801561051857600080fd5b50610383610527366004614772565b611283565b34801561053857600080fd5b506103836105473660046147f1565b6113e8565b34801561055857600080fd5b506103836115ed565b34801561056d57600080fd5b5061038361057c3660046146ea565b6115ff565b34801561058d57600080fd5b5061038361059c36600461465b565b611678565b6103836105af36600461480c565b611780565b3480156105c057600080fd5b5061049e611972565b3480156105d557600080fd5b506103c56105e436600461465b565b61018c6020526000908152604090205473ffffffffffffffffffffffffffffffffffffffff1681565b34801561061957600080fd5b5061012d5460ff1661030c565b34801561063257600080fd5b506103c561064136600461465b565b507390f79bf6eb2c4f870365e785982e1f101e93b90690565b34801561066657600080fd5b5061049e6106753660046147f1565b611a5e565b34801561068657600080fd5b50610383611b2c565b34801561069b57600080fd5b5061049e6106aa366004614844565b611b3e565b3480156106bb57600080fd5b50610383611c80565b3480156106d057600080fd5b5061049e6106df36600461465b565b61018e6020526000908152604090205481565b3480156106fe57600080fd5b5060975473ffffffffffffffffffffffffffffffffffffffff166103c5565b34801561072957600080fd5b5061038361073836600461465b565b611c90565b34801561074957600080fd5b50610336611d09565b34801561075e57600080fd5b5061033661076d36600461465b565b611d18565b34801561077e57600080fd5b5061038361078d3660046148df565b611db3565b34801561079e57600080fd5b5061049e6107ad36600461465b565b6101906020526000908152604090205481565b3480156107cc57600080fd5b506103836107db3660046149a0565b611dbe565b3480156107ec57600080fd5b506103836107fb366004614a6f565b611f13565b34801561080c57600080fd5b5061033661081b36600461465b565b611f8d565b34801561082c57600080fd5b5061049e61083b366004614726565b612068565b34801561084c57600080fd5b5061033661085b36600461469e565b6120da565b34801561086c57600080fd5b5061049e61087b366004614ad7565b6121be565b34801561088c57600080fd5b5061044261089b36600461465b565b6101606020526000908152604090205467ffffffffffffffff1681565b3480156108c457600080fd5b5061030c6108d3366004614ba5565b73ffffffffffffffffffffffffffffffffffffffff9182166000908152606a6020908152604080832093909416825291909152205460ff1690565b34801561091a57600080fd5b506103836109293660046147f1565b6122c9565b34801561093a57600080fd5b50610383610949366004614bd8565b61237d565b60007fffffffff0000000000000000000000000000000000000000000000000000000082167f80ac58cd0000000000000000000000000000000000000000000000000000000014806109e157507fffffffff0000000000000000000000000000000000000000000000000000000082167f5b5e139f00000000000000000000000000000000000000000000000000000000145b80610a2d57507f01ffc9a7000000000000000000000000000000000000000000000000000000007fffffffff000000000000000000000000000000000000000000000000000000008316145b92915050565b606060658054610a4290614c32565b80601f0160208091040260200160405190810160405280929190818152602001828054610a6e90614c32565b8015610abb5780601f10610a9057610100808354040283529160200191610abb565b820191906000526020600020905b815481529060010190602001808311610a9e57829003601f168201915b5050505050905090565b6000828152610162602090815260408083205467ffffffffffffffff168352610161825280832085845290915290819020905160609190610b07908490614c85565b90815260200160405180910390208054610b2090614c32565b80601f0160208091040260200160405190810160405280929190818152602001828054610b4c90614c32565b8015610b995780601f10610b6e57610100808354040283529160200191610b99565b820191906000526020600020905b815481529060010190602001808311610b7c57829003601f168201915b5050505050905092915050565b600054610100900460ff1615808015610bc65750600054600160ff909116105b80610be05750303b158015610be0575060005460ff166001145b610c71576040517f08c379a000000000000000000000000000000000000000000000000000000000815260206004820152602e60248201527f496e697469616c697a61626c653a20636f6e747261637420697320616c72656160448201527f647920696e697469616c697a656400000000000000000000000000000000000060648201526084015b60405180910390fd5b600080547fffffffffffffffffffffffffffffffffffffffffffffffffffffffffffffff001660011790558015610ccf57600080547fffffffffffffffffffffffffffffffffffffffffffffffffffffffffffff00ff166101001790555b610d4286868080601f01602080910402602001604051908101604052809392919081815260200183838082843760009201919091525050604080516020601f8a0181900481028201810190925288815292508891508790819084018382808284376000920191909152506124b992505050565b610d4a61255a565b610d526125f1565b610d5a612690565b610d6261272f565b610d6b826127b5565b8015610dce57600080547fffffffffffffffffffffffffffffffffffffffffffffffffffffffffffff00ff169055604051600181527f7f26b83ff96e1f2b6a682f133852f6798a09c465da95921460cefb38474024989060200160405180910390a15b505050505050565b80610de08161282c565b610e46576040517f08c379a000000000000000000000000000000000000000000000000000000000815260206004820152601560248201527f4d455441444154415f554e415554484f524953454400000000000000000000006044820152606401610c68565b610e4f82612838565b5050565b6000610e5e826128c5565b5060009081526069602052604090205473ffffffffffffffffffffffffffffffffffffffff1690565b6000610e9282612950565b90508073ffffffffffffffffffffffffffffffffffffffff168373ffffffffffffffffffffffffffffffffffffffff1603610f4f576040517f08c379a000000000000000000000000000000000000000000000000000000000815260206004820152602160248201527f4552433732313a20617070726f76616c20746f2063757272656e74206f776e6560448201527f72000000000000000000000000000000000000000000000000000000000000006064820152608401610c68565b3373ffffffffffffffffffffffffffffffffffffffff82161480610f785750610f7881336108d3565b611004576040517f08c379a000000000000000000000000000000000000000000000000000000000815260206004820152603d60248201527f4552433732313a20617070726f76652063616c6c6572206973206e6f7420746f60448201527f6b656e206f776e6572206f7220617070726f76656420666f7220616c6c0000006064820152608401610c68565b61100e83836129dc565b505050565b61101b612a7c565b600083815261018b60205260409020611035828483614ce7565b507fe091ab4d07f328dfaf2dcd8b50b82e02d05cf20d71197646ac6b2611395947b783838360405161106993929190614e4a565b60405180910390a1505050565b61012d5460ff16156110e4576040517f08c379a000000000000000000000000000000000000000000000000000000000815260206004820152601460248201527f5452414e534645525f4e4f545f414c4c4f5745440000000000000000000000006044820152606401610c68565b61100e838383612afd565b600081815261018d602052604081205460ff16611168576040517f08c379a000000000000000000000000000000000000000000000000000000000815260206004820152601060248201527f4e4f44455f4e4f545f414c4c4f574544000000000000000000000000000000006044820152606401610c68565b6000611175858585612068565b60008181526067602052604090205490915073ffffffffffffffffffffffffffffffffffffffff1661127657600083815261018c602052604090205473ffffffffffffffffffffffffffffffffffffffff16801561126b576040517f7ac3e6ea00000000000000000000000000000000000000000000000000000000815273ffffffffffffffffffffffffffffffffffffffff821690637ac3e6ea906112219089908990600401614e6d565b602060405180830381865afa15801561123e573d6000803e3d6000fd5b505050506040513d601f19601f820116820180604052508101906112629190614e81565b9250505061127c565b60019250505061127c565b60009150505b9392505050565b8261128d8161282c565b6112f3576040517f08c379a000000000000000000000000000000000000000000000000000000000815260206004820152601560248201527f4d455441444154415f554e415554484f524953454400000000000000000000006044820152606401610c68565b60005b828110156113e157600084848381811061131257611312614e9e565b90506020028101906113249190614ecd565b61132d90614f01565b6020808201516000898152610160835260408082205467ffffffffffffffff16825261015f84528082208b8352909352829020835192519394509092909161137491614c85565b9081526020016040518091039020908161138e9190614f0d565b508051602082015160405188927f601d4b2f0f06545c0f60d4f70e3bc5d78db246f7b66aaeb1ea23a56aa854c670926113c692615027565b60405180910390a250806113d98161507b565b9150506112f6565b5050505050565b73ffffffffffffffffffffffffffffffffffffffff7f00000000000000000000000000000000000000000000000000000000000000001630036114ad576040517f08c379a000000000000000000000000000000000000000000000000000000000815260206004820152602c60248201527f46756e6374696f6e206d7573742062652063616c6c6564207468726f7567682060448201527f64656c656761746563616c6c00000000000000000000000000000000000000006064820152608401610c68565b7f000000000000000000000000000000000000000000000000000000000000000073ffffffffffffffffffffffffffffffffffffffff166115227f360894a13ba1a3210667c828492db98dca3e2076cc3735a920a3ca505d382bbc5473ffffffffffffffffffffffffffffffffffffffff1690565b73ffffffffffffffffffffffffffffffffffffffff16146115c5576040517f08c379a000000000000000000000000000000000000000000000000000000000815260206004820152602c60248201527f46756e6374696f6e206d7573742062652063616c6c6564207468726f7567682060448201527f6163746976652070726f787900000000000000000000000000000000000000006064820152608401610c68565b6115ce81612b9e565b604080516000808252602082019092526115ea91839190612c3b565b50565b6115f5612a7c565b6115fd612e3a565b565b61012d5460ff161561166d576040517f08c379a000000000000000000000000000000000000000000000000000000000815260206004820152601460248201527f5452414e534645525f4e4f545f414c4c4f5745440000000000000000000000006044820152606401610c68565b61100e838383612e92565b6116823382612ead565b6116e8576040517f08c379a000000000000000000000000000000000000000000000000000000000815260206004820152600c60248201527f554e415554484f52495a454400000000000000000000000000000000000000006044820152606401610c68565b6116f181612838565b6116fa81612f6d565b600081815261018e602052604081205561171381612ffa565b61018f60008154611723906150b3565b90915550600081815261019060205260408120805483927f410c5c259085cde81fedf70c1aa308ec839373c26e9b7ada6560a2aca0254eb692916117669061507b565b91829055506040519081526020015b60405180910390a250565b73ffffffffffffffffffffffffffffffffffffffff7f0000000000000000000000000000000000000000000000000000000000000000163003611845576040517f08c379a000000000000000000000000000000000000000000000000000000000815260206004820152602c60248201527f46756e6374696f6e206d7573742062652063616c6c6564207468726f7567682060448201527f64656c656761746563616c6c00000000000000000000000000000000000000006064820152608401610c68565b7f000000000000000000000000000000000000000000000000000000000000000073ffffffffffffffffffffffffffffffffffffffff166118ba7f360894a13ba1a3210667c828492db98dca3e2076cc3735a920a3ca505d382bbc5473ffffffffffffffffffffffffffffffffffffffff1690565b73ffffffffffffffffffffffffffffffffffffffff161461195d576040517f08c379a000000000000000000000000000000000000000000000000000000000815260206004820152602c60248201527f46756e6374696f6e206d7573742062652063616c6c6564207468726f7567682060448201527f6163746976652070726f787900000000000000000000000000000000000000006064820152608401610c68565b61196682612b9e565b610e4f82826001612c3b565b60003073ffffffffffffffffffffffffffffffffffffffff7f00000000000000000000000000000000000000000000000000000000000000001614611a39576040517f08c379a000000000000000000000000000000000000000000000000000000000815260206004820152603860248201527f555550535570677261646561626c653a206d757374206e6f742062652063616c60448201527f6c6564207468726f7567682064656c656761746563616c6c00000000000000006064820152608401610c68565b507f360894a13ba1a3210667c828492db98dca3e2076cc3735a920a3ca505d382bbc90565b600073ffffffffffffffffffffffffffffffffffffffff8216611b03576040517f08c379a000000000000000000000000000000000000000000000000000000000815260206004820152602960248201527f4552433732313a2061646472657373207a65726f206973206e6f74206120766160448201527f6c6964206f776e657200000000000000000000000000000000000000000000006064820152608401610c68565b5073ffffffffffffffffffffffffffffffffffffffff1660009081526068602052604090205490565b611b34612a7c565b6115fd60006127b5565b600084815261018c602052604081205473ffffffffffffffffffffffffffffffffffffffff168015611c6857600060405180608001604052803373ffffffffffffffffffffffffffffffffffffffff1681526020018a8a8080601f0160208091040260200160405190810160405280939291908181526020018383808284376000920191909152505050908252506020810189905273ffffffffffffffffffffffffffffffffffffffff80891660409283015290517fcab80ede00000000000000000000000000000000000000000000000000000000815291925083169063cab80ede90611c34908490899089906004016150e8565b600060405180830381600087803b158015611c4e57600080fd5b505af1158015611c62573d6000803e3d6000fd5b50505050505b611c74888888886130d2565b98975050505050505050565b611c88612a7c565b6115fd61272f565b80611c9a816131e3565b611d00576040517f08c379a000000000000000000000000000000000000000000000000000000000815260206004820152601b60248201527f47415445445f4d455441444154415f554e415554484f524953454400000000006044820152606401610c68565b610e4f82612f6d565b606060668054610a4290614c32565b61018b6020526000908152604090208054611d3290614c32565b80601f0160208091040260200160405190810160405280929190818152602001828054611d5e90614c32565b8015611dab5780601f10611d8057610100808354040283529160200191611dab565b820191906000526020600020905b815481529060010190602001808311611d8e57829003601f168201915b505050505081565b610e4f3383836132ab565b81611dc8816131e3565b611e2e576040517f08c379a000000000000000000000000000000000000000000000000000000000815260206004820152601b60248201527f47415445445f4d455441444154415f554e415554484f524953454400000000006044820152606401610c68565b60005b8251811015611f0d576000838281518110611e4e57611e4e614e9e565b602090810291909101810151808201516000888152610162845260408082205467ffffffffffffffff16825261016185528082208a83529094528390208251935192945090929091611ea09190614c85565b90815260200160405180910390209081611eba9190614f0d565b508051602082015160405187927f29d4cd326b134d55e630ceb2871cea5e243b89bc9667e0c840b5da53b26ffd6a92611ef292615027565b60405180910390a25080611f058161507b565b915050611e31565b50505050565b61012d5460ff1615611f81576040517f08c379a000000000000000000000000000000000000000000000000000000000815260206004820152601460248201527f5452414e534645525f4e4f545f414c4c4f5745440000000000000000000000006044820152606401610c68565b611f0d848484846133d8565b60008181526067602052604090205460609073ffffffffffffffffffffffffffffffffffffffff1661201b576040517f08c379a000000000000000000000000000000000000000000000000000000000815260206004820152601060248201527f494e56414c49445f544f4b454e5f4944000000000000000000000000000000006044820152606401610c68565b600082815261018e6020908152604080832054835261018b90915290206120418361347a565b60405160200161205292919061515b565b6040516020818303038152906040529050919050565b60008082858560405161207c929190615200565b60405190819003812061209b9291602001918252602082015260400190565b604080518083037fffffffffffffffffffffffffffffffffffffffffffffffffffffffffffffffe0018152919052805160209091012095945050505050565b6000838152610160602090815260408083205467ffffffffffffffff16835261015f82528083208684529091529081902090516060919061211e9085908590615200565b9081526020016040518091039020805461213790614c32565b80601f016020809104026020016040519081016040528092919081815260200182805461216390614c32565b80156121b05780601f10612185576101008083540402835291602001916121b0565b820191906000526020600020905b81548152906001019060200180831161219357829003601f168201915b505050505090509392505050565b60006121c8612a7c565b878a8a6040516121d9929190615200565b6040519081900381206121f89291602001918252602082015260400190565b604080518083037fffffffffffffffffffffffffffffffffffffffffffffffffffffffffffffffe00181528282528051602091820120600081815261018d90925291902080547fffffffffffffffffffffffffffffffffffffffffffffffffffffffffffffff00168a1515179055915081907ffbbc4187cf8cd340d071ee02e4e44eb8e04903a03649ef31a26e38798390351d9061229d908d908d908d908d90615210565b60405180910390a26122b0818787611013565b6122bc8185858561237d565b9998505050505050505050565b6122d1612a7c565b73ffffffffffffffffffffffffffffffffffffffff8116612374576040517f08c379a000000000000000000000000000000000000000000000000000000000815260206004820152602660248201527f4f776e61626c653a206e6577206f776e657220697320746865207a65726f206160448201527f64647265737300000000000000000000000000000000000000000000000000006064820152608401610c68565b6115ea816127b5565b612385612a7c565b600084815261018c6020526040902080547fffffffffffffffffffffffff00000000000000000000000000000000000000001673ffffffffffffffffffffffffffffffffffffffff851690811790915515612461576040517f42a0d9b400000000000000000000000000000000000000000000000000000000815273ffffffffffffffffffffffffffffffffffffffff8416906342a0d9b49061242e9085908590600401614e6d565b600060405180830381600087803b15801561244857600080fd5b505af115801561245c573d6000803e3d6000fd5b505050505b8273ffffffffffffffffffffffffffffffffffffffff167f057da1406f81e1f47cda5874100d33118bf695f202882aacc5ca6d45ca9174498584846040516124ab93929190614e4a565b60405180910390a250505050565b600054610100900460ff16612550576040517f08c379a000000000000000000000000000000000000000000000000000000000815260206004820152602b60248201527f496e697469616c697a61626c653a20636f6e7472616374206973206e6f74206960448201527f6e697469616c697a696e670000000000000000000000000000000000000000006064820152608401610c68565b610e4f82826134e7565b600054610100900460ff166115fd576040517f08c379a000000000000000000000000000000000000000000000000000000000815260206004820152602b60248201527f496e697469616c697a61626c653a20636f6e7472616374206973206e6f74206960448201527f6e697469616c697a696e670000000000000000000000000000000000000000006064820152608401610c68565b600054610100900460ff16612688576040517f08c379a000000000000000000000000000000000000000000000000000000000815260206004820152602b60248201527f496e697469616c697a61626c653a20636f6e7472616374206973206e6f74206960448201527f6e697469616c697a696e670000000000000000000000000000000000000000006064820152608401610c68565b6115fd613597565b600054610100900460ff16612727576040517f08c379a000000000000000000000000000000000000000000000000000000000815260206004820152602b60248201527f496e697469616c697a61626c653a20636f6e7472616374206973206e6f74206960448201527f6e697469616c697a696e670000000000000000000000000000000000000000006064820152608401610c68565b6115fd613637565b6127376136f9565b61012d80547fffffffffffffffffffffffffffffffffffffffffffffffffffffffffffffff001660011790557f62e78cea01bee320cd4e420270b5ea74000d11b0c9f74754ebdbfc544b05a25861278b3390565b60405173ffffffffffffffffffffffffffffffffffffffff909116815260200160405180910390a1565b6097805473ffffffffffffffffffffffffffffffffffffffff8381167fffffffffffffffffffffffff0000000000000000000000000000000000000000831681179093556040519116919082907f8be0079c531659141344cd1fd0a4f28419497f9722a3daafe3b4186f6b6457e090600090a35050565b6000610a2d3383612ead565b600081815261016060205260408120805467ffffffffffffffff169161285d8361523c565b82546101009290920a67ffffffffffffffff818102199093169183160217909155600083815261016060209081526040918290205491519190921681528392507f3773c27b7f05829d86b67403e26562fb9d776452b918d74b238bfdc1203bf0ed9101611775565b60008181526067602052604090205473ffffffffffffffffffffffffffffffffffffffff166115ea576040517f08c379a000000000000000000000000000000000000000000000000000000000815260206004820152601860248201527f4552433732313a20696e76616c696420746f6b656e20494400000000000000006044820152606401610c68565b60008181526067602052604081205473ffffffffffffffffffffffffffffffffffffffff1680610a2d576040517f08c379a000000000000000000000000000000000000000000000000000000000815260206004820152601860248201527f4552433732313a20696e76616c696420746f6b656e20494400000000000000006044820152606401610c68565b600081815260696020526040902080547fffffffffffffffffffffffff00000000000000000000000000000000000000001673ffffffffffffffffffffffffffffffffffffffff84169081179091558190612a3682612950565b73ffffffffffffffffffffffffffffffffffffffff167f8c5be1e5ebec7d5bd14f71427d1e84f3dd0314c0f7b2291e5b200ac8c7c3b92560405160405180910390a45050565b60975473ffffffffffffffffffffffffffffffffffffffff1633146115fd576040517f08c379a000000000000000000000000000000000000000000000000000000000815260206004820181905260248201527f4f776e61626c653a2063616c6c6572206973206e6f7420746865206f776e65726044820152606401610c68565b612b073382612ead565b612b93576040517f08c379a000000000000000000000000000000000000000000000000000000000815260206004820152602d60248201527f4552433732313a2063616c6c6572206973206e6f7420746f6b656e206f776e6560448201527f72206f7220617070726f766564000000000000000000000000000000000000006064820152608401610c68565b61100e838383613767565b33612bbe60975473ffffffffffffffffffffffffffffffffffffffff1690565b73ffffffffffffffffffffffffffffffffffffffff16146115ea576040517f08c379a000000000000000000000000000000000000000000000000000000000815260206004820152600960248201527f4e4f545f4f574e455200000000000000000000000000000000000000000000006044820152606401610c68565b7f4910fdfa16fed3260ed0e7147f7cc6da11a60208b5b9406d12a635614ffd91435460ff1615612c6e5761100e83613a62565b8273ffffffffffffffffffffffffffffffffffffffff166352d1902d6040518163ffffffff1660e01b8152600401602060405180830381865afa925050508015612cf3575060408051601f3d9081017fffffffffffffffffffffffffffffffffffffffffffffffffffffffffffffffe0168201909252612cf091810190615263565b60015b612d7f576040517f08c379a000000000000000000000000000000000000000000000000000000000815260206004820152602e60248201527f45524331393637557067726164653a206e657720696d706c656d656e7461746960448201527f6f6e206973206e6f7420555550530000000000000000000000000000000000006064820152608401610c68565b7f360894a13ba1a3210667c828492db98dca3e2076cc3735a920a3ca505d382bbc8114612e2e576040517f08c379a000000000000000000000000000000000000000000000000000000000815260206004820152602960248201527f45524331393637557067726164653a20756e737570706f727465642070726f7860448201527f6961626c655555494400000000000000000000000000000000000000000000006064820152608401610c68565b5061100e838383613b6c565b612e42613b91565b61012d80547fffffffffffffffffffffffffffffffffffffffffffffffffffffffffffffff001690557f5db9ee0a495bf2e6ff9c91a7834c1ba4fdd244a5e8aa4e537bd38aeae4b073aa3361278b565b61100e83838360405180602001604052806000815250611f13565b600080612eb983612950565b90508073ffffffffffffffffffffffffffffffffffffffff168473ffffffffffffffffffffffffffffffffffffffff161480612f27575073ffffffffffffffffffffffffffffffffffffffff8082166000908152606a602090815260408083209388168352929052205460ff165b80612f6557508373ffffffffffffffffffffffffffffffffffffffff16612f4d84610e53565b73ffffffffffffffffffffffffffffffffffffffff16145b949350505050565b600081815261016260205260408120805467ffffffffffffffff1691612f928361523c565b82546101009290920a67ffffffffffffffff818102199093169183160217909155600083815261016260209081526040918290205491519190921681528392507fc87757beabcc5d61e477f4ffafb24461a0eb17e06d5bbf82354b4df70f3580c39101611775565b600061300582612950565b905061301082612950565b600083815260696020908152604080832080547fffffffffffffffffffffffff000000000000000000000000000000000000000090811690915573ffffffffffffffffffffffffffffffffffffffff85168085526068845282852080547fffffffffffffffffffffffffffffffffffffffffffffffffffffffffffffffff0190558785526067909352818420805490911690555192935084927fddf252ad1be2c89b69c2b068fc378daa952ba7f163c4a11628f55a4df523b3ef908390a45050565b60006130df8585856110ef565b613145576040517f08c379a000000000000000000000000000000000000000000000000000000000815260206004820152601260248201527f4e414d455f4e4f545f415641494c41424c4500000000000000000000000000006044820152606401610c68565b6000613152868686612068565b905061315e8382613bfe565b61018f6000815461316e9061507b565b90915550600081815261018e6020526040908190208590555173ffffffffffffffffffffffffffffffffffffffff84169082907ffe530e3b4b61411a7dd546adc0e6736d4255abefc6b610401d26068e02dd495e906131d2908a908a908a9061527c565b60405180910390a395945050505050565b60008181526067602052604081205473ffffffffffffffffffffffffffffffffffffffff1661326e576040517f08c379a000000000000000000000000000000000000000000000000000000000815260206004820152601060248201527f544f4b454e5f4e4f545f4d494e544544000000000000000000000000000000006044820152606401610c68565b3361328e60975473ffffffffffffffffffffffffffffffffffffffff1690565b73ffffffffffffffffffffffffffffffffffffffff161492915050565b8173ffffffffffffffffffffffffffffffffffffffff168373ffffffffffffffffffffffffffffffffffffffff1603613340576040517f08c379a000000000000000000000000000000000000000000000000000000000815260206004820152601960248201527f4552433732313a20617070726f766520746f2063616c6c6572000000000000006044820152606401610c68565b73ffffffffffffffffffffffffffffffffffffffff8381166000818152606a602090815260408083209487168084529482529182902080547fffffffffffffffffffffffffffffffffffffffffffffffffffffffffffffff001686151590811790915591519182527f17307eab39ab6107e8899845ad3d59bd9653f200f220920489ca2b5937696c31910160405180910390a3505050565b6133e23383612ead565b61346e576040517f08c379a000000000000000000000000000000000000000000000000000000000815260206004820152602d60248201527f4552433732313a2063616c6c6572206973206e6f7420746f6b656e206f776e6560448201527f72206f7220617070726f766564000000000000000000000000000000000000006064820152608401610c68565b611f0d84848484613c18565b604080516080810191829052607f0190826030600a8206018353600a90045b80156134b757600183039250600a81066030018353600a9004613499565b508190037fffffffffffffffffffffffffffffffffffffffffffffffffffffffffffffffe0909101908152919050565b600054610100900460ff1661357e576040517f08c379a000000000000000000000000000000000000000000000000000000000815260206004820152602b60248201527f496e697469616c697a61626c653a20636f6e7472616374206973206e6f74206960448201527f6e697469616c697a696e670000000000000000000000000000000000000000006064820152608401610c68565b606561358a8382614f0d565b50606661100e8282614f0d565b600054610100900460ff1661362e576040517f08c379a000000000000000000000000000000000000000000000000000000000815260206004820152602b60248201527f496e697469616c697a61626c653a20636f6e7472616374206973206e6f74206960448201527f6e697469616c697a696e670000000000000000000000000000000000000000006064820152608401610c68565b6115fd336127b5565b600054610100900460ff166136ce576040517f08c379a000000000000000000000000000000000000000000000000000000000815260206004820152602b60248201527f496e697469616c697a61626c653a20636f6e7472616374206973206e6f74206960448201527f6e697469616c697a696e670000000000000000000000000000000000000000006064820152608401610c68565b61012d80547fffffffffffffffffffffffffffffffffffffffffffffffffffffffffffffff00169055565b61012d5460ff16156115fd576040517f08c379a000000000000000000000000000000000000000000000000000000000815260206004820152601060248201527f5061757361626c653a20706175736564000000000000000000000000000000006044820152606401610c68565b8273ffffffffffffffffffffffffffffffffffffffff1661378782612950565b73ffffffffffffffffffffffffffffffffffffffff161461382a576040517f08c379a000000000000000000000000000000000000000000000000000000000815260206004820152602560248201527f4552433732313a207472616e736665722066726f6d20696e636f72726563742060448201527f6f776e65720000000000000000000000000000000000000000000000000000006064820152608401610c68565b73ffffffffffffffffffffffffffffffffffffffff82166138cc576040517f08c379a0000000000000000000000000000000000000000000000000000000008152602060048201526024808201527f4552433732313a207472616e7366657220746f20746865207a65726f2061646460448201527f72657373000000000000000000000000000000000000000000000000000000006064820152608401610c68565b8273ffffffffffffffffffffffffffffffffffffffff166138ec82612950565b73ffffffffffffffffffffffffffffffffffffffff161461398f576040517f08c379a000000000000000000000000000000000000000000000000000000000815260206004820152602560248201527f4552433732313a207472616e736665722066726f6d20696e636f72726563742060448201527f6f776e65720000000000000000000000000000000000000000000000000000006064820152608401610c68565b600081815260696020908152604080832080547fffffffffffffffffffffffff000000000000000000000000000000000000000090811690915573ffffffffffffffffffffffffffffffffffffffff8781168086526068855283862080547fffffffffffffffffffffffffffffffffffffffffffffffffffffffffffffffff01905590871680865283862080546001019055868652606790945282852080549092168417909155905184937fddf252ad1be2c89b69c2b068fc378daa952ba7f163c4a11628f55a4df523b3ef91a4505050565b73ffffffffffffffffffffffffffffffffffffffff81163b613b06576040517f08c379a000000000000000000000000000000000000000000000000000000000815260206004820152602d60248201527f455243313936373a206e657720696d706c656d656e746174696f6e206973206e60448201527f6f74206120636f6e7472616374000000000000000000000000000000000000006064820152608401610c68565b7f360894a13ba1a3210667c828492db98dca3e2076cc3735a920a3ca505d382bbc80547fffffffffffffffffffffffff00000000000000000000000000000000000000001673ffffffffffffffffffffffffffffffffffffffff92909216919091179055565b613b7583613cbb565b600082511180613b825750805b1561100e57611f0d8383613d08565b61012d5460ff166115fd576040517f08c379a000000000000000000000000000000000000000000000000000000000815260206004820152601460248201527f5061757361626c653a206e6f74207061757365640000000000000000000000006044820152606401610c68565b610e4f828260405180602001604052806000815250613d2d565b613c23848484613767565b613c2f84848484613dd0565b611f0d576040517f08c379a000000000000000000000000000000000000000000000000000000000815260206004820152603260248201527f4552433732313a207472616e7366657220746f206e6f6e20455243373231526560448201527f63656976657220696d706c656d656e74657200000000000000000000000000006064820152608401610c68565b613cc481613a62565b60405173ffffffffffffffffffffffffffffffffffffffff8216907fbc7cd75a20ee27fd9adebab32041f755214dbc6bffa90cc0225b39da2e5c2d3b90600090a250565b606061127c83836040518060600160405280602781526020016152fd60279139613fc0565b613d378383614045565b613d446000848484613dd0565b61100e576040517f08c379a000000000000000000000000000000000000000000000000000000000815260206004820152603260248201527f4552433732313a207472616e7366657220746f206e6f6e20455243373231526560448201527f63656976657220696d706c656d656e74657200000000000000000000000000006064820152608401610c68565b600073ffffffffffffffffffffffffffffffffffffffff84163b15613fb8576040517f150b7a0200000000000000000000000000000000000000000000000000000000815273ffffffffffffffffffffffffffffffffffffffff85169063150b7a0290613e479033908990889088906004016152a0565b6020604051808303816000875af1925050508015613ea0575060408051601f3d9081017fffffffffffffffffffffffffffffffffffffffffffffffffffffffffffffffe0168201909252613e9d918101906152df565b60015b613f6d573d808015613ece576040519150601f19603f3d011682016040523d82523d6000602084013e613ed3565b606091505b508051600003613f65576040517f08c379a000000000000000000000000000000000000000000000000000000000815260206004820152603260248201527f4552433732313a207472616e7366657220746f206e6f6e20455243373231526560448201527f63656976657220696d706c656d656e74657200000000000000000000000000006064820152608401610c68565b805181602001fd5b7fffffffff00000000000000000000000000000000000000000000000000000000167f150b7a0200000000000000000000000000000000000000000000000000000000149050612f65565b506001612f65565b60606000808573ffffffffffffffffffffffffffffffffffffffff1685604051613fea9190614c85565b600060405180830381855af49150503d8060008114614025576040519150601f19603f3d011682016040523d82523d6000602084013e61402a565b606091505b509150915061403b8683838761426a565b9695505050505050565b73ffffffffffffffffffffffffffffffffffffffff82166140c2576040517f08c379a000000000000000000000000000000000000000000000000000000000815260206004820181905260248201527f4552433732313a206d696e7420746f20746865207a65726f20616464726573736044820152606401610c68565b60008181526067602052604090205473ffffffffffffffffffffffffffffffffffffffff161561414e576040517f08c379a000000000000000000000000000000000000000000000000000000000815260206004820152601c60248201527f4552433732313a20746f6b656e20616c7265616479206d696e746564000000006044820152606401610c68565b60008181526067602052604090205473ffffffffffffffffffffffffffffffffffffffff16156141da576040517f08c379a000000000000000000000000000000000000000000000000000000000815260206004820152601c60248201527f4552433732313a20746f6b656e20616c7265616479206d696e746564000000006044820152606401610c68565b73ffffffffffffffffffffffffffffffffffffffff8216600081815260686020908152604080832080546001019055848352606790915280822080547fffffffffffffffffffffffff0000000000000000000000000000000000000000168417905551839291907fddf252ad1be2c89b69c2b068fc378daa952ba7f163c4a11628f55a4df523b3ef908290a45050565b606083156143005782516000036142f95773ffffffffffffffffffffffffffffffffffffffff85163b6142f9576040517f08c379a000000000000000000000000000000000000000000000000000000000815260206004820152601d60248201527f416464726573733a2063616c6c20746f206e6f6e2d636f6e74726163740000006044820152606401610c68565b5081612f65565b612f6583838151156143155781518083602001fd5b806040517f08c379a0000000000000000000000000000000000000000000000000000000008152600401610c689190614402565b7fffffffff00000000000000000000000000000000000000000000000000000000811681146115ea57600080fd5b60006020828403121561438957600080fd5b813561127c81614349565b60005b838110156143af578181015183820152602001614397565b50506000910152565b600081518084526143d0816020860160208601614394565b601f017fffffffffffffffffffffffffffffffffffffffffffffffffffffffffffffffe0169290920160200192915050565b60208152600061127c60208301846143b8565b7f4e487b7100000000000000000000000000000000000000000000000000000000600052604160045260246000fd5b604051601f82017fffffffffffffffffffffffffffffffffffffffffffffffffffffffffffffffe016810167ffffffffffffffff8111828210171561448b5761448b614415565b604052919050565b600082601f8301126144a457600080fd5b813567ffffffffffffffff8111156144be576144be614415565b6144ef60207fffffffffffffffffffffffffffffffffffffffffffffffffffffffffffffffe0601f84011601614444565b81815284602083860101111561450457600080fd5b816020850160208301376000918101602001919091529392505050565b6000806040838503121561453457600080fd5b82359150602083013567ffffffffffffffff81111561455257600080fd5b61455e85828601614493565b9150509250929050565b60008083601f84011261457a57600080fd5b50813567ffffffffffffffff81111561459257600080fd5b6020830191508360208285010111156145aa57600080fd5b9250929050565b803573ffffffffffffffffffffffffffffffffffffffff811681146145d557600080fd5b919050565b6000806000806000606086880312156145f257600080fd5b853567ffffffffffffffff8082111561460a57600080fd5b61461689838a01614568565b9097509550602088013591508082111561462f57600080fd5b5061463c88828901614568565b909450925061464f9050604087016145b1565b90509295509295909350565b60006020828403121561466d57600080fd5b5035919050565b6000806040838503121561468757600080fd5b614690836145b1565b946020939093013593505050565b6000806000604084860312156146b357600080fd5b83359250602084013567ffffffffffffffff8111156146d157600080fd5b6146dd86828701614568565b9497909650939450505050565b6000806000606084860312156146ff57600080fd5b614708846145b1565b9250614716602085016145b1565b9150604084013590509250925092565b60008060006040848603121561473b57600080fd5b833567ffffffffffffffff81111561475257600080fd5b61475e86828701614568565b909790965060209590950135949350505050565b60008060006040848603121561478757600080fd5b83359250602084013567ffffffffffffffff808211156147a657600080fd5b818601915086601f8301126147ba57600080fd5b8135818111156147c957600080fd5b8760208260051b85010111156147de57600080fd5b6020830194508093505050509250925092565b60006020828403121561480357600080fd5b61127c826145b1565b6000806040838503121561481f57600080fd5b614828836145b1565b9150602083013567ffffffffffffffff81111561455257600080fd5b6000806000806000806080878903121561485d57600080fd5b863567ffffffffffffffff8082111561487557600080fd5b6148818a838b01614568565b90985096506020890135955086915061489c60408a016145b1565b945060608901359150808211156148b257600080fd5b506148bf89828a01614568565b979a9699509497509295939492505050565b80151581146115ea57600080fd5b600080604083850312156148f257600080fd5b6148fb836145b1565b9150602083013561490b816148d1565b809150509250929050565b60006040828403121561492857600080fd5b6040516040810167ffffffffffffffff828210818311171561494c5761494c614415565b81604052829350843591508082111561496457600080fd5b61497086838701614493565b8352602085013591508082111561498657600080fd5b5061499385828601614493565b6020830152505092915050565b600080604083850312156149b357600080fd5b8235915060208084013567ffffffffffffffff808211156149d357600080fd5b818601915086601f8301126149e757600080fd5b8135818111156149f9576149f9614415565b8060051b614a08858201614444565b918252838101850191858101908a841115614a2257600080fd5b86860192505b83831015614a5e57823585811115614a405760008081fd5b614a4e8c89838a0101614916565b8352509186019190860190614a28565b809750505050505050509250929050565b60008060008060808587031215614a8557600080fd5b614a8e856145b1565b9350614a9c602086016145b1565b925060408501359150606085013567ffffffffffffffff811115614abf57600080fd5b614acb87828801614493565b91505092959194509250565b600080600080600080600080600060c08a8c031215614af557600080fd5b893567ffffffffffffffff80821115614b0d57600080fd5b614b198d838e01614568565b909b50995060208c0135985060408c01359150614b35826148d1565b90965060608b01359080821115614b4b57600080fd5b614b578d838e01614568565b9097509550859150614b6b60808d016145b1565b945060a08c0135915080821115614b8157600080fd5b50614b8e8c828d01614568565b915080935050809150509295985092959850929598565b60008060408385031215614bb857600080fd5b614bc1836145b1565b9150614bcf602084016145b1565b90509250929050565b60008060008060608587031215614bee57600080fd5b84359350614bfe602086016145b1565b9250604085013567ffffffffffffffff811115614c1a57600080fd5b614c2687828801614568565b95989497509550505050565b600181811c90821680614c4657607f821691505b602082108103614c7f577f4e487b7100000000000000000000000000000000000000000000000000000000600052602260045260246000fd5b50919050565b60008251614c97818460208701614394565b9190910192915050565b601f82111561100e57600081815260208120601f850160051c81016020861015614cc85750805b601f850160051c820191505b81811015610dce57828155600101614cd4565b67ffffffffffffffff831115614cff57614cff614415565b614d1383614d0d8354614c32565b83614ca1565b6000601f841160018114614d655760008515614d2f5750838201355b7fffffffffffffffffffffffffffffffffffffffffffffffffffffffffffffffff600387901b1c1916600186901b1783556113e1565b6000838152602090207fffffffffffffffffffffffffffffffffffffffffffffffffffffffffffffffe0861690835b82811015614db45786850135825560209485019460019092019101614d94565b5086821015614def577fffffffffffffffffffffffffffffffffffffffffffffffffffffffffffffffff60f88860031b161c19848701351681555b505060018560011b0183555050505050565b8183528181602085013750600060208284010152600060207fffffffffffffffffffffffffffffffffffffffffffffffffffffffffffffffe0601f840116840101905092915050565b838152604060208201526000614e64604083018486614e01565b95945050505050565b602081526000612f65602083018486614e01565b600060208284031215614e9357600080fd5b815161127c816148d1565b7f4e487b7100000000000000000000000000000000000000000000000000000000600052603260045260246000fd5b600082357fffffffffffffffffffffffffffffffffffffffffffffffffffffffffffffffc1833603018112614c9757600080fd5b6000610a2d3683614916565b815167ffffffffffffffff811115614f2757614f27614415565b614f3b81614f358454614c32565b84614ca1565b602080601f831160018114614f8e5760008415614f585750858301515b7fffffffffffffffffffffffffffffffffffffffffffffffffffffffffffffffff600386901b1c1916600185901b178555610dce565b6000858152602081207fffffffffffffffffffffffffffffffffffffffffffffffffffffffffffffffe08616915b82811015614fdb57888601518255948401946001909101908401614fbc565b508582101561501757878501517fffffffffffffffffffffffffffffffffffffffffffffffffffffffffffffffff600388901b60f8161c191681555b5050505050600190811b01905550565b60408152600061503a60408301856143b8565b8281036020840152614e6481856143b8565b7f4e487b7100000000000000000000000000000000000000000000000000000000600052601160045260246000fd5b60007fffffffffffffffffffffffffffffffffffffffffffffffffffffffffffffffff82036150ac576150ac61504c565b5060010190565b6000816150c2576150c261504c565b507fffffffffffffffffffffffffffffffffffffffffffffffffffffffffffffffff0190565b60408152600073ffffffffffffffffffffffffffffffffffffffff80865116604084015260208601516080606085015261512560c08501826143b8565b9050604087015160808501528160608801511660a08501528381036020850152615150818688614e01565b979650505050505050565b600080845461516981614c32565b6001828116801561518157600181146151b4576151e3565b7fffffffffffffffffffffffffffffffffffffffffffffffffffffffffffffff00841687528215158302870194506151e3565b8860005260208060002060005b858110156151da5781548a8201529084019082016151c1565b50505082870194505b5050505083516151f7818360208801614394565b01949350505050565b8183823760009101908152919050565b606081526000615224606083018688614e01565b60208301949094525090151560409091015292915050565b600067ffffffffffffffff8083168181036152595761525961504c565b6001019392505050565b60006020828403121561527557600080fd5b5051919050565b604081526000615290604083018587614e01565b9050826020830152949350505050565b600073ffffffffffffffffffffffffffffffffffffffff80871683528086166020840152508360408301526080606083015261403b60808301846143b8565b6000602082840312156152f157600080fd5b815161127c8161434956fe416464726573733a206c6f772d6c6576656c2064656c65676174652063616c6c206661696c6564a2646970667358221220d1db016c911071bb86aea44a7217c8066e8a61f4772aeb9e004c9155fe1740cc64736f6c63430008150033","opcodes":"PUSH1 0xA0 PUSH1 0x40 MSTORE ADDRESS PUSH1 0x80 MSTORE CALLVALUE DUP1 ISZERO PUSH2 0x14 JUMPI PUSH1 0x0 DUP1 REVERT JUMPDEST POP PUSH1 0x80 MLOAD PUSH2 0x5359 PUSH2 0x4C PUSH1 0x0 CODECOPY PUSH1 0x0 DUP2 DUP2 PUSH2 0x13FF ADD MSTORE DUP2 DUP2 PUSH2 0x14AF ADD MSTORE DUP2 DUP2 PUSH2 0x1797 ADD MSTORE DUP2 DUP2 PUSH2 0x1847 ADD MSTORE PUSH2 0x198C ADD MSTORE PUSH2 0x5359 PUSH1 0x0 RETURN INVALID PUSH1 0x80 PUSH1 0x40 MSTORE PUSH1 0x4 CALLDATASIZE LT PUSH2 0x2E7 JUMPI PUSH1 0x0 CALLDATALOAD PUSH1 0xE0 SHR DUP1 PUSH4 0x6352211E GT PUSH2 0x184 JUMPI DUP1 PUSH4 0xA9735F94 GT PUSH2 0xD6 JUMPI DUP1 PUSH4 0xCB4799F2 GT PUSH2 0x8A JUMPI DUP1 PUSH4 0xE985E9C5 GT PUSH2 0x64 JUMPI DUP1 PUSH4 0xE985E9C5 EQ PUSH2 0x8B8 JUMPI DUP1 PUSH4 0xF2FDE38B EQ PUSH2 0x90E JUMPI DUP1 PUSH4 0xF97C6DAE EQ PUSH2 0x92E JUMPI PUSH1 0x0 DUP1 REVERT JUMPDEST DUP1 PUSH4 0xCB4799F2 EQ PUSH2 0x840 JUMPI DUP1 PUSH4 0xD619CEE5 EQ PUSH2 0x860 JUMPI DUP1 PUSH4 0xD9A9EB24 EQ PUSH2 0x880 JUMPI PUSH1 0x0 DUP1 REVERT JUMPDEST DUP1 PUSH4 0xB88D4FDE GT PUSH2 0xBB JUMPI DUP1 PUSH4 0xB88D4FDE EQ PUSH2 0x7E0 JUMPI DUP1 PUSH4 0xC87B56DD EQ PUSH2 0x800 JUMPI DUP1 PUSH4 0xCAD6B901 EQ PUSH2 0x820 JUMPI PUSH1 0x0 DUP1 REVERT JUMPDEST DUP1 PUSH4 0xA9735F94 EQ PUSH2 0x792 JUMPI DUP1 PUSH4 0xB33DAB09 EQ PUSH2 0x7C0 JUMPI PUSH1 0x0 DUP1 REVERT JUMPDEST DUP1 PUSH4 0x898572A6 GT PUSH2 0x138 JUMPI DUP1 PUSH4 0x95D89B41 GT PUSH2 0x112 JUMPI DUP1 PUSH4 0x95D89B41 EQ PUSH2 0x73D JUMPI DUP1 PUSH4 0x96977C1B EQ PUSH2 0x752 JUMPI DUP1 PUSH4 0xA22CB465 EQ PUSH2 0x772 JUMPI PUSH1 0x0 DUP1 REVERT JUMPDEST DUP1 PUSH4 0x898572A6 EQ PUSH2 0x6C4 JUMPI DUP1 PUSH4 0x8DA5CB5B EQ PUSH2 0x6F2 JUMPI DUP1 PUSH4 0x8E73361E EQ PUSH2 0x71D JUMPI PUSH1 0x0 DUP1 REVERT JUMPDEST DUP1 PUSH4 0x715018A6 GT PUSH2 0x169 JUMPI DUP1 PUSH4 0x715018A6 EQ PUSH2 0x67A JUMPI DUP1 PUSH4 0x7C7EFE6B EQ PUSH2 0x68F JUMPI DUP1 PUSH4 0x8456CB59 EQ PUSH2 0x6AF JUMPI PUSH1 0x0 DUP1 REVERT JUMPDEST DUP1 PUSH4 0x6352211E EQ PUSH2 0x626 JUMPI DUP1 PUSH4 0x70A08231 EQ PUSH2 0x65A JUMPI PUSH1 0x0 DUP1 REVERT JUMPDEST DUP1 PUSH4 0x23B872DD GT PUSH2 0x23D JUMPI DUP1 PUSH4 0x42842E0E GT PUSH2 0x1F1 JUMPI DUP1 PUSH4 0x52D1902D GT PUSH2 0x1CB JUMPI DUP1 PUSH4 0x52D1902D EQ PUSH2 0x5B4 JUMPI DUP1 PUSH4 0x57AD9C90 EQ PUSH2 0x5C9 JUMPI DUP1 PUSH4 0x5C975ABB EQ PUSH2 0x60D JUMPI PUSH1 0x0 DUP1 REVERT JUMPDEST DUP1 PUSH4 0x42842E0E EQ PUSH2 0x561 JUMPI DUP1 PUSH4 0x42966C68 EQ PUSH2 0x581 JUMPI DUP1 PUSH4 0x4F1EF286 EQ PUSH2 0x5A1 JUMPI PUSH1 0x0 DUP1 REVERT JUMPDEST DUP1 PUSH4 0x26EC9AD8 GT PUSH2 0x222 JUMPI DUP1 PUSH4 0x26EC9AD8 EQ PUSH2 0x50C JUMPI DUP1 PUSH4 0x3659CFE6 EQ PUSH2 0x52C JUMPI DUP1 PUSH4 0x3F4BA83A EQ PUSH2 0x54C JUMPI PUSH1 0x0 DUP1 REVERT JUMPDEST DUP1 PUSH4 0x23B872DD EQ PUSH2 0x4CC JUMPI DUP1 PUSH4 0x2595EACB EQ PUSH2 0x4EC JUMPI PUSH1 0x0 DUP1 REVERT JUMPDEST DUP1 PUSH4 0x81812FC GT PUSH2 0x29F JUMPI DUP1 PUSH4 0x16404D01 GT PUSH2 0x279 JUMPI DUP1 PUSH4 0x16404D01 EQ PUSH2 0x45B JUMPI DUP1 PUSH4 0x18160DDD EQ PUSH2 0x48C JUMPI DUP1 PUSH4 0x1F0509E0 EQ PUSH2 0x4AC JUMPI PUSH1 0x0 DUP1 REVERT JUMPDEST DUP1 PUSH4 0x81812FC EQ PUSH2 0x3A5 JUMPI DUP1 PUSH4 0x95EA7B3 EQ PUSH2 0x3EA JUMPI DUP1 PUSH4 0xAE16E53 EQ PUSH2 0x40A JUMPI PUSH1 0x0 DUP1 REVERT JUMPDEST DUP1 PUSH4 0x739D191 GT PUSH2 0x2D0 JUMPI DUP1 PUSH4 0x739D191 EQ PUSH2 0x343 JUMPI DUP1 PUSH4 0x77F224A EQ PUSH2 0x363 JUMPI DUP1 PUSH4 0x7B472C4 EQ PUSH2 0x385 JUMPI PUSH1 0x0 DUP1 REVERT JUMPDEST DUP1 PUSH4 0x1FFC9A7 EQ PUSH2 0x2EC JUMPI DUP1 PUSH4 0x6FDDE03 EQ PUSH2 0x321 JUMPI JUMPDEST PUSH1 0x0 DUP1 REVERT JUMPDEST CALLVALUE DUP1 ISZERO PUSH2 0x2F8 JUMPI PUSH1 0x0 DUP1 REVERT JUMPDEST POP PUSH2 0x30C PUSH2 0x307 CALLDATASIZE PUSH1 0x4 PUSH2 0x4377 JUMP JUMPDEST PUSH2 0x94E JUMP JUMPDEST PUSH1 0x40 MLOAD SWAP1 ISZERO ISZERO DUP2 MSTORE PUSH1 0x20 ADD JUMPDEST PUSH1 0x40 MLOAD DUP1 SWAP2 SUB SWAP1 RETURN JUMPDEST CALLVALUE DUP1 ISZERO PUSH2 0x32D JUMPI PUSH1 0x0 DUP1 REVERT JUMPDEST POP PUSH2 0x336 PUSH2 0xA33 JUMP JUMPDEST PUSH1 0x40 MLOAD PUSH2 0x318 SWAP2 SWAP1 PUSH2 0x4402 JUMP JUMPDEST CALLVALUE DUP1 ISZERO PUSH2 0x34F JUMPI PUSH1 0x0 DUP1 REVERT JUMPDEST POP PUSH2 0x336 PUSH2 0x35E CALLDATASIZE PUSH1 0x4 PUSH2 0x4521 JUMP JUMPDEST PUSH2 0xAC5 JUMP JUMPDEST CALLVALUE DUP1 ISZERO PUSH2 0x36F JUMPI PUSH1 0x0 DUP1 REVERT JUMPDEST POP PUSH2 0x383 PUSH2 0x37E CALLDATASIZE PUSH1 0x4 PUSH2 0x45DA JUMP JUMPDEST PUSH2 0xBA6 JUMP JUMPDEST STOP JUMPDEST CALLVALUE DUP1 ISZERO PUSH2 0x391 JUMPI PUSH1 0x0 DUP1 REVERT JUMPDEST POP PUSH2 0x383 PUSH2 0x3A0 CALLDATASIZE PUSH1 0x4 PUSH2 0x465B JUMP JUMPDEST PUSH2 0xDD6 JUMP JUMPDEST CALLVALUE DUP1 ISZERO PUSH2 0x3B1 JUMPI PUSH1 0x0 DUP1 REVERT JUMPDEST POP PUSH2 0x3C5 PUSH2 0x3C0 CALLDATASIZE PUSH1 0x4 PUSH2 0x465B JUMP JUMPDEST PUSH2 0xE53 JUMP JUMPDEST PUSH1 0x40 MLOAD PUSH20 0xFFFFFFFFFFFFFFFFFFFFFFFFFFFFFFFFFFFFFFFF SWAP1 SWAP2 AND DUP2 MSTORE PUSH1 0x20 ADD PUSH2 0x318 JUMP JUMPDEST CALLVALUE DUP1 ISZERO PUSH2 0x3F6 JUMPI PUSH1 0x0 DUP1 REVERT JUMPDEST POP PUSH2 0x383 PUSH2 0x405 CALLDATASIZE PUSH1 0x4 PUSH2 0x4674 JUMP JUMPDEST PUSH2 0xE87 JUMP JUMPDEST CALLVALUE DUP1 ISZERO PUSH2 0x416 JUMPI PUSH1 0x0 DUP1 REVERT JUMPDEST POP PUSH2 0x442 PUSH2 0x425 CALLDATASIZE PUSH1 0x4 PUSH2 0x465B JUMP JUMPDEST PUSH2 0x162 PUSH1 0x20 MSTORE PUSH1 0x0 SWAP1 DUP2 MSTORE PUSH1 0x40 SWAP1 KECCAK256 SLOAD PUSH8 0xFFFFFFFFFFFFFFFF AND DUP2 JUMP JUMPDEST PUSH1 0x40 MLOAD PUSH8 0xFFFFFFFFFFFFFFFF SWAP1 SWAP2 AND DUP2 MSTORE PUSH1 0x20 ADD PUSH2 0x318 JUMP JUMPDEST CALLVALUE DUP1 ISZERO PUSH2 0x467 JUMPI PUSH1 0x0 DUP1 REVERT JUMPDEST POP PUSH2 0x30C PUSH2 0x476 CALLDATASIZE PUSH1 0x4 PUSH2 0x465B JUMP JUMPDEST PUSH2 0x18D PUSH1 0x20 MSTORE PUSH1 0x0 SWAP1 DUP2 MSTORE PUSH1 0x40 SWAP1 KECCAK256 SLOAD PUSH1 0xFF AND DUP2 JUMP JUMPDEST CALLVALUE DUP1 ISZERO PUSH2 0x498 JUMPI PUSH1 0x0 DUP1 REVERT JUMPDEST POP PUSH2 0x18F SLOAD JUMPDEST PUSH1 0x40 MLOAD SWAP1 DUP2 MSTORE PUSH1 0x20 ADD PUSH2 0x318 JUMP JUMPDEST CALLVALUE DUP1 ISZERO PUSH2 0x4B8 JUMPI PUSH1 0x0 DUP1 REVERT JUMPDEST POP PUSH2 0x383 PUSH2 0x4C7 CALLDATASIZE PUSH1 0x4 PUSH2 0x469E JUMP JUMPDEST PUSH2 0x1013 JUMP JUMPDEST CALLVALUE DUP1 ISZERO PUSH2 0x4D8 JUMPI PUSH1 0x0 DUP1 REVERT JUMPDEST POP PUSH2 0x383 PUSH2 0x4E7 CALLDATASIZE PUSH1 0x4 PUSH2 0x46EA JUMP JUMPDEST PUSH2 0x1076 JUMP JUMPDEST CALLVALUE DUP1 ISZERO PUSH2 0x4F8 JUMPI PUSH1 0x0 DUP1 REVERT JUMPDEST POP PUSH2 0x30C PUSH2 0x507 CALLDATASIZE PUSH1 0x4 PUSH2 0x4726 JUMP JUMPDEST PUSH2 0x10EF JUMP JUMPDEST CALLVALUE DUP1 ISZERO PUSH2 0x518 JUMPI PUSH1 0x0 DUP1 REVERT JUMPDEST POP PUSH2 0x383 PUSH2 0x527 CALLDATASIZE PUSH1 0x4 PUSH2 0x4772 JUMP JUMPDEST PUSH2 0x1283 JUMP JUMPDEST CALLVALUE DUP1 ISZERO PUSH2 0x538 JUMPI PUSH1 0x0 DUP1 REVERT JUMPDEST POP PUSH2 0x383 PUSH2 0x547 CALLDATASIZE PUSH1 0x4 PUSH2 0x47F1 JUMP JUMPDEST PUSH2 0x13E8 JUMP JUMPDEST CALLVALUE DUP1 ISZERO PUSH2 0x558 JUMPI PUSH1 0x0 DUP1 REVERT JUMPDEST POP PUSH2 0x383 PUSH2 0x15ED JUMP JUMPDEST CALLVALUE DUP1 ISZERO PUSH2 0x56D JUMPI PUSH1 0x0 DUP1 REVERT JUMPDEST POP PUSH2 0x383 PUSH2 0x57C CALLDATASIZE PUSH1 0x4 PUSH2 0x46EA JUMP JUMPDEST PUSH2 0x15FF JUMP JUMPDEST CALLVALUE DUP1 ISZERO PUSH2 0x58D JUMPI PUSH1 0x0 DUP1 REVERT JUMPDEST POP PUSH2 0x383 PUSH2 0x59C CALLDATASIZE PUSH1 0x4 PUSH2 0x465B JUMP JUMPDEST PUSH2 0x1678 JUMP JUMPDEST PUSH2 0x383 PUSH2 0x5AF CALLDATASIZE PUSH1 0x4 PUSH2 0x480C JUMP JUMPDEST PUSH2 0x1780 JUMP JUMPDEST CALLVALUE DUP1 ISZERO PUSH2 0x5C0 JUMPI PUSH1 0x0 DUP1 REVERT JUMPDEST POP PUSH2 0x49E PUSH2 0x1972 JUMP JUMPDEST CALLVALUE DUP1 ISZERO PUSH2 0x5D5 JUMPI PUSH1 0x0 DUP1 REVERT JUMPDEST POP PUSH2 0x3C5 PUSH2 0x5E4 CALLDATASIZE PUSH1 0x4 PUSH2 0x465B JUMP JUMPDEST PUSH2 0x18C PUSH1 0x20 MSTORE PUSH1 0x0 SWAP1 DUP2 MSTORE PUSH1 0x40 SWAP1 KECCAK256 SLOAD PUSH20 0xFFFFFFFFFFFFFFFFFFFFFFFFFFFFFFFFFFFFFFFF AND DUP2 JUMP JUMPDEST CALLVALUE DUP1 ISZERO PUSH2 0x619 JUMPI PUSH1 0x0 DUP1 REVERT JUMPDEST POP PUSH2 0x12D SLOAD PUSH1 0xFF AND PUSH2 0x30C JUMP JUMPDEST CALLVALUE DUP1 ISZERO PUSH2 0x632 JUMPI PUSH1 0x0 DUP1 REVERT JUMPDEST POP PUSH2 0x3C5 PUSH2 0x641 CALLDATASIZE PUSH1 0x4 PUSH2 0x465B JUMP JUMPDEST POP PUSH20 0x90F79BF6EB2C4F870365E785982E1F101E93B906 SWAP1 JUMP JUMPDEST CALLVALUE DUP1 ISZERO PUSH2 0x666 JUMPI PUSH1 0x0 DUP1 REVERT JUMPDEST POP PUSH2 0x49E PUSH2 0x675 CALLDATASIZE PUSH1 0x4 PUSH2 0x47F1 JUMP JUMPDEST PUSH2 0x1A5E JUMP JUMPDEST CALLVALUE DUP1 ISZERO PUSH2 0x686 JUMPI PUSH1 0x0 DUP1 REVERT JUMPDEST POP PUSH2 0x383 PUSH2 0x1B2C JUMP JUMPDEST CALLVALUE DUP1 ISZERO PUSH2 0x69B JUMPI PUSH1 0x0 DUP1 REVERT JUMPDEST POP PUSH2 0x49E PUSH2 0x6AA CALLDATASIZE PUSH1 0x4 PUSH2 0x4844 JUMP JUMPDEST PUSH2 0x1B3E JUMP JUMPDEST CALLVALUE DUP1 ISZERO PUSH2 0x6BB JUMPI PUSH1 0x0 DUP1 REVERT JUMPDEST POP PUSH2 0x383 PUSH2 0x1C80 JUMP JUMPDEST CALLVALUE DUP1 ISZERO PUSH2 0x6D0 JUMPI PUSH1 0x0 DUP1 REVERT JUMPDEST POP PUSH2 0x49E PUSH2 0x6DF CALLDATASIZE PUSH1 0x4 PUSH2 0x465B JUMP JUMPDEST PUSH2 0x18E PUSH1 0x20 MSTORE PUSH1 0x0 SWAP1 DUP2 MSTORE PUSH1 0x40 SWAP1 KECCAK256 SLOAD DUP2 JUMP JUMPDEST CALLVALUE DUP1 ISZERO PUSH2 0x6FE JUMPI PUSH1 0x0 DUP1 REVERT JUMPDEST POP PUSH1 0x97 SLOAD PUSH20 0xFFFFFFFFFFFFFFFFFFFFFFFFFFFFFFFFFFFFFFFF AND PUSH2 0x3C5 JUMP JUMPDEST CALLVALUE DUP1 ISZERO PUSH2 0x729 JUMPI PUSH1 0x0 DUP1 REVERT JUMPDEST POP PUSH2 0x383 PUSH2 0x738 CALLDATASIZE PUSH1 0x4 PUSH2 0x465B JUMP JUMPDEST PUSH2 0x1C90 JUMP JUMPDEST CALLVALUE DUP1 ISZERO PUSH2 0x749 JUMPI PUSH1 0x0 DUP1 REVERT JUMPDEST POP PUSH2 0x336 PUSH2 0x1D09 JUMP JUMPDEST CALLVALUE DUP1 ISZERO PUSH2 0x75E JUMPI PUSH1 0x0 DUP1 REVERT JUMPDEST POP PUSH2 0x336 PUSH2 0x76D CALLDATASIZE PUSH1 0x4 PUSH2 0x465B JUMP JUMPDEST PUSH2 0x1D18 JUMP JUMPDEST CALLVALUE DUP1 ISZERO PUSH2 0x77E JUMPI PUSH1 0x0 DUP1 REVERT JUMPDEST POP PUSH2 0x383 PUSH2 0x78D CALLDATASIZE PUSH1 0x4 PUSH2 0x48DF JUMP JUMPDEST PUSH2 0x1DB3 JUMP JUMPDEST CALLVALUE DUP1 ISZERO PUSH2 0x79E JUMPI PUSH1 0x0 DUP1 REVERT JUMPDEST POP PUSH2 0x49E PUSH2 0x7AD CALLDATASIZE PUSH1 0x4 PUSH2 0x465B JUMP JUMPDEST PUSH2 0x190 PUSH1 0x20 MSTORE PUSH1 0x0 SWAP1 DUP2 MSTORE PUSH1 0x40 SWAP1 KECCAK256 SLOAD DUP2 JUMP JUMPDEST CALLVALUE DUP1 ISZERO PUSH2 0x7CC JUMPI PUSH1 0x0 DUP1 REVERT JUMPDEST POP PUSH2 0x383 PUSH2 0x7DB CALLDATASIZE PUSH1 0x4 PUSH2 0x49A0 JUMP JUMPDEST PUSH2 0x1DBE JUMP JUMPDEST CALLVALUE DUP1 ISZERO PUSH2 0x7EC JUMPI PUSH1 0x0 DUP1 REVERT JUMPDEST POP PUSH2 0x383 PUSH2 0x7FB CALLDATASIZE PUSH1 0x4 PUSH2 0x4A6F JUMP JUMPDEST PUSH2 0x1F13 JUMP JUMPDEST CALLVALUE DUP1 ISZERO PUSH2 0x80C JUMPI PUSH1 0x0 DUP1 REVERT JUMPDEST POP PUSH2 0x336 PUSH2 0x81B CALLDATASIZE PUSH1 0x4 PUSH2 0x465B JUMP JUMPDEST PUSH2 0x1F8D JUMP JUMPDEST CALLVALUE DUP1 ISZERO PUSH2 0x82C JUMPI PUSH1 0x0 DUP1 REVERT JUMPDEST POP PUSH2 0x49E PUSH2 0x83B CALLDATASIZE PUSH1 0x4 PUSH2 0x4726 JUMP JUMPDEST PUSH2 0x2068 JUMP JUMPDEST CALLVALUE DUP1 ISZERO PUSH2 0x84C JUMPI PUSH1 0x0 DUP1 REVERT JUMPDEST POP PUSH2 0x336 PUSH2 0x85B CALLDATASIZE PUSH1 0x4 PUSH2 0x469E JUMP JUMPDEST PUSH2 0x20DA JUMP JUMPDEST CALLVALUE DUP1 ISZERO PUSH2 0x86C JUMPI PUSH1 0x0 DUP1 REVERT JUMPDEST POP PUSH2 0x49E PUSH2 0x87B CALLDATASIZE PUSH1 0x4 PUSH2 0x4AD7 JUMP JUMPDEST PUSH2 0x21BE JUMP JUMPDEST CALLVALUE DUP1 ISZERO PUSH2 0x88C JUMPI PUSH1 0x0 DUP1 REVERT JUMPDEST POP PUSH2 0x442 PUSH2 0x89B CALLDATASIZE PUSH1 0x4 PUSH2 0x465B JUMP JUMPDEST PUSH2 0x160 PUSH1 0x20 MSTORE PUSH1 0x0 SWAP1 DUP2 MSTORE PUSH1 0x40 SWAP1 KECCAK256 SLOAD PUSH8 0xFFFFFFFFFFFFFFFF AND DUP2 JUMP JUMPDEST CALLVALUE DUP1 ISZERO PUSH2 0x8C4 JUMPI PUSH1 0x0 DUP1 REVERT JUMPDEST POP PUSH2 0x30C PUSH2 0x8D3 CALLDATASIZE PUSH1 0x4 PUSH2 0x4BA5 JUMP JUMPDEST PUSH20 0xFFFFFFFFFFFFFFFFFFFFFFFFFFFFFFFFFFFFFFFF SWAP2 DUP3 AND PUSH1 0x0 SWAP1 DUP2 MSTORE PUSH1 0x6A PUSH1 0x20 SWAP1 DUP2 MSTORE PUSH1 0x40 DUP1 DUP4 KECCAK256 SWAP4 SWAP1 SWAP5 AND DUP3 MSTORE SWAP2 SWAP1 SWAP2 MSTORE KECCAK256 SLOAD PUSH1 0xFF AND SWAP1 JUMP JUMPDEST CALLVALUE DUP1 ISZERO PUSH2 0x91A JUMPI PUSH1 0x0 DUP1 REVERT JUMPDEST POP PUSH2 0x383 PUSH2 0x929 CALLDATASIZE PUSH1 0x4 PUSH2 0x47F1 JUMP JUMPDEST PUSH2 0x22C9 JUMP JUMPDEST CALLVALUE DUP1 ISZERO PUSH2 0x93A JUMPI PUSH1 0x0 DUP1 REVERT JUMPDEST POP PUSH2 0x383 PUSH2 0x949 CALLDATASIZE PUSH1 0x4 PUSH2 0x4BD8 JUMP JUMPDEST PUSH2 0x237D JUMP JUMPDEST PUSH1 0x0 PUSH32 0xFFFFFFFF00000000000000000000000000000000000000000000000000000000 DUP3 AND PUSH32 0x80AC58CD00000000000000000000000000000000000000000000000000000000 EQ DUP1 PUSH2 0x9E1 JUMPI POP PUSH32 0xFFFFFFFF00000000000000000000000000000000000000000000000000000000 DUP3 AND PUSH32 0x5B5E139F00000000000000000000000000000000000000000000000000000000 EQ JUMPDEST DUP1 PUSH2 0xA2D JUMPI POP PUSH32 0x1FFC9A700000000000000000000000000000000000000000000000000000000 PUSH32 0xFFFFFFFF00000000000000000000000000000000000000000000000000000000 DUP4 AND EQ JUMPDEST SWAP3 SWAP2 POP POP JUMP JUMPDEST PUSH1 0x60 PUSH1 0x65 DUP1 SLOAD PUSH2 0xA42 SWAP1 PUSH2 0x4C32 JUMP JUMPDEST DUP1 PUSH1 0x1F ADD PUSH1 0x20 DUP1 SWAP2 DIV MUL PUSH1 0x20 ADD PUSH1 0x40 MLOAD SWAP1 DUP2 ADD PUSH1 0x40 MSTORE DUP1 SWAP3 SWAP2 SWAP1 DUP2 DUP2 MSTORE PUSH1 0x20 ADD DUP3 DUP1 SLOAD PUSH2 0xA6E SWAP1 PUSH2 0x4C32 JUMP JUMPDEST DUP1 ISZERO PUSH2 0xABB JUMPI DUP1 PUSH1 0x1F LT PUSH2 0xA90 JUMPI PUSH2 0x100 DUP1 DUP4 SLOAD DIV MUL DUP4 MSTORE SWAP2 PUSH1 0x20 ADD SWAP2 PUSH2 0xABB JUMP JUMPDEST DUP3 ADD SWAP2 SWAP1 PUSH1 0x0 MSTORE PUSH1 0x20 PUSH1 0x0 KECCAK256 SWAP1 JUMPDEST DUP2 SLOAD DUP2 MSTORE SWAP1 PUSH1 0x1 ADD SWAP1 PUSH1 0x20 ADD DUP1 DUP4 GT PUSH2 0xA9E JUMPI DUP3 SWAP1 SUB PUSH1 0x1F AND DUP3 ADD SWAP2 JUMPDEST POP POP POP POP POP SWAP1 POP SWAP1 JUMP JUMPDEST PUSH1 0x0 DUP3 DUP2 MSTORE PUSH2 0x162 PUSH1 0x20 SWAP1 DUP2 MSTORE PUSH1 0x40 DUP1 DUP4 KECCAK256 SLOAD PUSH8 0xFFFFFFFFFFFFFFFF AND DUP4 MSTORE PUSH2 0x161 DUP3 MSTORE DUP1 DUP4 KECCAK256 DUP6 DUP5 MSTORE SWAP1 SWAP2 MSTORE SWAP1 DUP2 SWAP1 KECCAK256 SWAP1 MLOAD PUSH1 0x60 SWAP2 SWAP1 PUSH2 0xB07 SWAP1 DUP5 SWAP1 PUSH2 0x4C85 JUMP JUMPDEST SWAP1 DUP2 MSTORE PUSH1 0x20 ADD PUSH1 0x40 MLOAD DUP1 SWAP2 SUB SWAP1 KECCAK256 DUP1 SLOAD PUSH2 0xB20 SWAP1 PUSH2 0x4C32 JUMP JUMPDEST DUP1 PUSH1 0x1F ADD PUSH1 0x20 DUP1 SWAP2 DIV MUL PUSH1 0x20 ADD PUSH1 0x40 MLOAD SWAP1 DUP2 ADD PUSH1 0x40 MSTORE DUP1 SWAP3 SWAP2 SWAP1 DUP2 DUP2 MSTORE PUSH1 0x20 ADD DUP3 DUP1 SLOAD PUSH2 0xB4C SWAP1 PUSH2 0x4C32 JUMP JUMPDEST DUP1 ISZERO PUSH2 0xB99 JUMPI DUP1 PUSH1 0x1F LT PUSH2 0xB6E JUMPI PUSH2 0x100 DUP1 DUP4 SLOAD DIV MUL DUP4 MSTORE SWAP2 PUSH1 0x20 ADD SWAP2 PUSH2 0xB99 JUMP JUMPDEST DUP3 ADD SWAP2 SWAP1 PUSH1 0x0 MSTORE PUSH1 0x20 PUSH1 0x0 KECCAK256 SWAP1 JUMPDEST DUP2 SLOAD DUP2 MSTORE SWAP1 PUSH1 0x1 ADD SWAP1 PUSH1 0x20 ADD DUP1 DUP4 GT PUSH2 0xB7C JUMPI DUP3 SWAP1 SUB PUSH1 0x1F AND DUP3 ADD SWAP2 JUMPDEST POP POP POP POP POP SWAP1 POP SWAP3 SWAP2 POP POP JUMP JUMPDEST PUSH1 0x0 SLOAD PUSH2 0x100 SWAP1 DIV PUSH1 0xFF AND ISZERO DUP1 DUP1 ISZERO PUSH2 0xBC6 JUMPI POP PUSH1 0x0 SLOAD PUSH1 0x1 PUSH1 0xFF SWAP1 SWAP2 AND LT JUMPDEST DUP1 PUSH2 0xBE0 JUMPI POP ADDRESS EXTCODESIZE ISZERO DUP1 ISZERO PUSH2 0xBE0 JUMPI POP PUSH1 0x0 SLOAD PUSH1 0xFF AND PUSH1 0x1 EQ JUMPDEST PUSH2 0xC71 JUMPI PUSH1 0x40 MLOAD PUSH32 0x8C379A000000000000000000000000000000000000000000000000000000000 DUP2 MSTORE PUSH1 0x20 PUSH1 0x4 DUP3 ADD MSTORE PUSH1 0x2E PUSH1 0x24 DUP3 ADD MSTORE PUSH32 0x496E697469616C697A61626C653A20636F6E747261637420697320616C726561 PUSH1 0x44 DUP3 ADD MSTORE PUSH32 0x647920696E697469616C697A6564000000000000000000000000000000000000 PUSH1 0x64 DUP3 ADD MSTORE PUSH1 0x84 ADD JUMPDEST PUSH1 0x40 MLOAD DUP1 SWAP2 SUB SWAP1 REVERT JUMPDEST PUSH1 0x0 DUP1 SLOAD PUSH32 0xFFFFFFFFFFFFFFFFFFFFFFFFFFFFFFFFFFFFFFFFFFFFFFFFFFFFFFFFFFFFFF00 AND PUSH1 0x1 OR SWAP1 SSTORE DUP1 ISZERO PUSH2 0xCCF JUMPI PUSH1 0x0 DUP1 SLOAD PUSH32 0xFFFFFFFFFFFFFFFFFFFFFFFFFFFFFFFFFFFFFFFFFFFFFFFFFFFFFFFFFFFF00FF AND PUSH2 0x100 OR SWAP1 SSTORE JUMPDEST PUSH2 0xD42 DUP7 DUP7 DUP1 DUP1 PUSH1 0x1F ADD PUSH1 0x20 DUP1 SWAP2 DIV MUL PUSH1 0x20 ADD PUSH1 0x40 MLOAD SWAP1 DUP2 ADD PUSH1 0x40 MSTORE DUP1 SWAP4 SWAP3 SWAP2 SWAP1 DUP2 DUP2 MSTORE PUSH1 0x20 ADD DUP4 DUP4 DUP1 DUP3 DUP5 CALLDATACOPY PUSH1 0x0 SWAP3 ADD SWAP2 SWAP1 SWAP2 MSTORE POP POP PUSH1 0x40 DUP1 MLOAD PUSH1 0x20 PUSH1 0x1F DUP11 ADD DUP2 SWAP1 DIV DUP2 MUL DUP3 ADD DUP2 ADD SWAP1 SWAP3 MSTORE DUP9 DUP2 MSTORE SWAP3 POP DUP9 SWAP2 POP DUP8 SWAP1 DUP2 SWAP1 DUP5 ADD DUP4 DUP3 DUP1 DUP3 DUP5 CALLDATACOPY PUSH1 0x0 SWAP3 ADD SWAP2 SWAP1 SWAP2 MSTORE POP PUSH2 0x24B9 SWAP3 POP POP POP JUMP JUMPDEST PUSH2 0xD4A PUSH2 0x255A JUMP JUMPDEST PUSH2 0xD52 PUSH2 0x25F1 JUMP JUMPDEST PUSH2 0xD5A PUSH2 0x2690 JUMP JUMPDEST PUSH2 0xD62 PUSH2 0x272F JUMP JUMPDEST PUSH2 0xD6B DUP3 PUSH2 0x27B5 JUMP JUMPDEST DUP1 ISZERO PUSH2 0xDCE JUMPI PUSH1 0x0 DUP1 SLOAD PUSH32 0xFFFFFFFFFFFFFFFFFFFFFFFFFFFFFFFFFFFFFFFFFFFFFFFFFFFFFFFFFFFF00FF AND SWAP1 SSTORE PUSH1 0x40 MLOAD PUSH1 0x1 DUP2 MSTORE PUSH32 0x7F26B83FF96E1F2B6A682F133852F6798A09C465DA95921460CEFB3847402498 SWAP1 PUSH1 0x20 ADD PUSH1 0x40 MLOAD DUP1 SWAP2 SUB SWAP1 LOG1 JUMPDEST POP POP POP POP POP POP JUMP JUMPDEST DUP1 PUSH2 0xDE0 DUP2 PUSH2 0x282C JUMP JUMPDEST PUSH2 0xE46 JUMPI PUSH1 0x40 MLOAD PUSH32 0x8C379A000000000000000000000000000000000000000000000000000000000 DUP2 MSTORE PUSH1 0x20 PUSH1 0x4 DUP3 ADD MSTORE PUSH1 0x15 PUSH1 0x24 DUP3 ADD MSTORE PUSH32 0x4D455441444154415F554E415554484F52495345440000000000000000000000 PUSH1 0x44 DUP3 ADD MSTORE PUSH1 0x64 ADD PUSH2 0xC68 JUMP JUMPDEST PUSH2 0xE4F DUP3 PUSH2 0x2838 JUMP JUMPDEST POP POP JUMP JUMPDEST PUSH1 0x0 PUSH2 0xE5E DUP3 PUSH2 0x28C5 JUMP JUMPDEST POP PUSH1 0x0 SWAP1 DUP2 MSTORE PUSH1 0x69 PUSH1 0x20 MSTORE PUSH1 0x40 SWAP1 KECCAK256 SLOAD PUSH20 0xFFFFFFFFFFFFFFFFFFFFFFFFFFFFFFFFFFFFFFFF AND SWAP1 JUMP JUMPDEST PUSH1 0x0 PUSH2 0xE92 DUP3 PUSH2 0x2950 JUMP JUMPDEST SWAP1 POP DUP1 PUSH20 0xFFFFFFFFFFFFFFFFFFFFFFFFFFFFFFFFFFFFFFFF AND DUP4 PUSH20 0xFFFFFFFFFFFFFFFFFFFFFFFFFFFFFFFFFFFFFFFF AND SUB PUSH2 0xF4F JUMPI PUSH1 0x40 MLOAD PUSH32 0x8C379A000000000000000000000000000000000000000000000000000000000 DUP2 MSTORE PUSH1 0x20 PUSH1 0x4 DUP3 ADD MSTORE PUSH1 0x21 PUSH1 0x24 DUP3 ADD MSTORE PUSH32 0x4552433732313A20617070726F76616C20746F2063757272656E74206F776E65 PUSH1 0x44 DUP3 ADD MSTORE PUSH32 0x7200000000000000000000000000000000000000000000000000000000000000 PUSH1 0x64 DUP3 ADD MSTORE PUSH1 0x84 ADD PUSH2 0xC68 JUMP JUMPDEST CALLER PUSH20 0xFFFFFFFFFFFFFFFFFFFFFFFFFFFFFFFFFFFFFFFF DUP3 AND EQ DUP1 PUSH2 0xF78 JUMPI POP PUSH2 0xF78 DUP2 CALLER PUSH2 0x8D3 JUMP JUMPDEST PUSH2 0x1004 JUMPI PUSH1 0x40 MLOAD PUSH32 0x8C379A000000000000000000000000000000000000000000000000000000000 DUP2 MSTORE PUSH1 0x20 PUSH1 0x4 DUP3 ADD MSTORE PUSH1 0x3D PUSH1 0x24 DUP3 ADD MSTORE PUSH32 0x4552433732313A20617070726F76652063616C6C6572206973206E6F7420746F PUSH1 0x44 DUP3 ADD MSTORE PUSH32 0x6B656E206F776E6572206F7220617070726F76656420666F7220616C6C000000 PUSH1 0x64 DUP3 ADD MSTORE PUSH1 0x84 ADD PUSH2 0xC68 JUMP JUMPDEST PUSH2 0x100E DUP4 DUP4 PUSH2 0x29DC JUMP JUMPDEST POP POP POP JUMP JUMPDEST PUSH2 0x101B PUSH2 0x2A7C JUMP JUMPDEST PUSH1 0x0 DUP4 DUP2 MSTORE PUSH2 0x18B PUSH1 0x20 MSTORE PUSH1 0x40 SWAP1 KECCAK256 PUSH2 0x1035 DUP3 DUP5 DUP4 PUSH2 0x4CE7 JUMP JUMPDEST POP PUSH32 0xE091AB4D07F328DFAF2DCD8B50B82E02D05CF20D71197646AC6B2611395947B7 DUP4 DUP4 DUP4 PUSH1 0x40 MLOAD PUSH2 0x1069 SWAP4 SWAP3 SWAP2 SWAP1 PUSH2 0x4E4A JUMP JUMPDEST PUSH1 0x40 MLOAD DUP1 SWAP2 SUB SWAP1 LOG1 POP POP POP JUMP JUMPDEST PUSH2 0x12D SLOAD PUSH1 0xFF AND ISZERO PUSH2 0x10E4 JUMPI PUSH1 0x40 MLOAD PUSH32 0x8C379A000000000000000000000000000000000000000000000000000000000 DUP2 MSTORE PUSH1 0x20 PUSH1 0x4 DUP3 ADD MSTORE PUSH1 0x14 PUSH1 0x24 DUP3 ADD MSTORE PUSH32 0x5452414E534645525F4E4F545F414C4C4F574544000000000000000000000000 PUSH1 0x44 DUP3 ADD MSTORE PUSH1 0x64 ADD PUSH2 0xC68 JUMP JUMPDEST PUSH2 0x100E DUP4 DUP4 DUP4 PUSH2 0x2AFD JUMP JUMPDEST PUSH1 0x0 DUP2 DUP2 MSTORE PUSH2 0x18D PUSH1 0x20 MSTORE PUSH1 0x40 DUP2 KECCAK256 SLOAD PUSH1 0xFF AND PUSH2 0x1168 JUMPI PUSH1 0x40 MLOAD PUSH32 0x8C379A000000000000000000000000000000000000000000000000000000000 DUP2 MSTORE PUSH1 0x20 PUSH1 0x4 DUP3 ADD MSTORE PUSH1 0x10 PUSH1 0x24 DUP3 ADD MSTORE PUSH32 0x4E4F44455F4E4F545F414C4C4F57454400000000000000000000000000000000 PUSH1 0x44 DUP3 ADD MSTORE PUSH1 0x64 ADD PUSH2 0xC68 JUMP JUMPDEST PUSH1 0x0 PUSH2 0x1175 DUP6 DUP6 DUP6 PUSH2 0x2068 JUMP JUMPDEST PUSH1 0x0 DUP2 DUP2 MSTORE PUSH1 0x67 PUSH1 0x20 MSTORE PUSH1 0x40 SWAP1 KECCAK256 SLOAD SWAP1 SWAP2 POP PUSH20 0xFFFFFFFFFFFFFFFFFFFFFFFFFFFFFFFFFFFFFFFF AND PUSH2 0x1276 JUMPI PUSH1 0x0 DUP4 DUP2 MSTORE PUSH2 0x18C PUSH1 0x20 MSTORE PUSH1 0x40 SWAP1 KECCAK256 SLOAD PUSH20 0xFFFFFFFFFFFFFFFFFFFFFFFFFFFFFFFFFFFFFFFF AND DUP1 ISZERO PUSH2 0x126B JUMPI PUSH1 0x40 MLOAD PUSH32 0x7AC3E6EA00000000000000000000000000000000000000000000000000000000 DUP2 MSTORE PUSH20 0xFFFFFFFFFFFFFFFFFFFFFFFFFFFFFFFFFFFFFFFF DUP3 AND SWAP1 PUSH4 0x7AC3E6EA SWAP1 PUSH2 0x1221 SWAP1 DUP10 SWAP1 DUP10 SWAP1 PUSH1 0x4 ADD PUSH2 0x4E6D JUMP JUMPDEST PUSH1 0x20 PUSH1 0x40 MLOAD DUP1 DUP4 SUB DUP2 DUP7 GAS STATICCALL ISZERO DUP1 ISZERO PUSH2 0x123E JUMPI RETURNDATASIZE PUSH1 0x0 DUP1 RETURNDATACOPY RETURNDATASIZE PUSH1 0x0 REVERT JUMPDEST POP POP POP POP PUSH1 0x40 MLOAD RETURNDATASIZE PUSH1 0x1F NOT PUSH1 0x1F DUP3 ADD AND DUP3 ADD DUP1 PUSH1 0x40 MSTORE POP DUP2 ADD SWAP1 PUSH2 0x1262 SWAP2 SWAP1 PUSH2 0x4E81 JUMP JUMPDEST SWAP3 POP POP POP PUSH2 0x127C JUMP JUMPDEST PUSH1 0x1 SWAP3 POP POP POP PUSH2 0x127C JUMP JUMPDEST PUSH1 0x0 SWAP2 POP POP JUMPDEST SWAP4 SWAP3 POP POP POP JUMP JUMPDEST DUP3 PUSH2 0x128D DUP2 PUSH2 0x282C JUMP JUMPDEST PUSH2 0x12F3 JUMPI PUSH1 0x40 MLOAD PUSH32 0x8C379A000000000000000000000000000000000000000000000000000000000 DUP2 MSTORE PUSH1 0x20 PUSH1 0x4 DUP3 ADD MSTORE PUSH1 0x15 PUSH1 0x24 DUP3 ADD MSTORE PUSH32 0x4D455441444154415F554E415554484F52495345440000000000000000000000 PUSH1 0x44 DUP3 ADD MSTORE PUSH1 0x64 ADD PUSH2 0xC68 JUMP JUMPDEST PUSH1 0x0 JUMPDEST DUP3 DUP2 LT ISZERO PUSH2 0x13E1 JUMPI PUSH1 0x0 DUP5 DUP5 DUP4 DUP2 DUP2 LT PUSH2 0x1312 JUMPI PUSH2 0x1312 PUSH2 0x4E9E JUMP JUMPDEST SWAP1 POP PUSH1 0x20 MUL DUP2 ADD SWAP1 PUSH2 0x1324 SWAP2 SWAP1 PUSH2 0x4ECD JUMP JUMPDEST PUSH2 0x132D SWAP1 PUSH2 0x4F01 JUMP JUMPDEST PUSH1 0x20 DUP1 DUP3 ADD MLOAD PUSH1 0x0 DUP10 DUP2 MSTORE PUSH2 0x160 DUP4 MSTORE PUSH1 0x40 DUP1 DUP3 KECCAK256 SLOAD PUSH8 0xFFFFFFFFFFFFFFFF AND DUP3 MSTORE PUSH2 0x15F DUP5 MSTORE DUP1 DUP3 KECCAK256 DUP12 DUP4 MSTORE SWAP1 SWAP4 MSTORE DUP3 SWAP1 KECCAK256 DUP4 MLOAD SWAP3 MLOAD SWAP4 SWAP5 POP SWAP1 SWAP3 SWAP1 SWAP2 PUSH2 0x1374 SWAP2 PUSH2 0x4C85 JUMP JUMPDEST SWAP1 DUP2 MSTORE PUSH1 0x20 ADD PUSH1 0x40 MLOAD DUP1 SWAP2 SUB SWAP1 KECCAK256 SWAP1 DUP2 PUSH2 0x138E SWAP2 SWAP1 PUSH2 0x4F0D JUMP JUMPDEST POP DUP1 MLOAD PUSH1 0x20 DUP3 ADD MLOAD PUSH1 0x40 MLOAD DUP9 SWAP3 PUSH32 0x601D4B2F0F06545C0F60D4F70E3BC5D78DB246F7B66AAEB1EA23A56AA854C670 SWAP3 PUSH2 0x13C6 SWAP3 PUSH2 0x5027 JUMP JUMPDEST PUSH1 0x40 MLOAD DUP1 SWAP2 SUB SWAP1 LOG2 POP DUP1 PUSH2 0x13D9 DUP2 PUSH2 0x507B JUMP JUMPDEST SWAP2 POP POP PUSH2 0x12F6 JUMP JUMPDEST POP POP POP POP POP JUMP JUMPDEST PUSH20 0xFFFFFFFFFFFFFFFFFFFFFFFFFFFFFFFFFFFFFFFF PUSH32 0x0 AND ADDRESS SUB PUSH2 0x14AD JUMPI PUSH1 0x40 MLOAD PUSH32 0x8C379A000000000000000000000000000000000000000000000000000000000 DUP2 MSTORE PUSH1 0x20 PUSH1 0x4 DUP3 ADD MSTORE PUSH1 0x2C PUSH1 0x24 DUP3 ADD MSTORE PUSH32 0x46756E6374696F6E206D7573742062652063616C6C6564207468726F75676820 PUSH1 0x44 DUP3 ADD MSTORE PUSH32 0x64656C656761746563616C6C0000000000000000000000000000000000000000 PUSH1 0x64 DUP3 ADD MSTORE PUSH1 0x84 ADD PUSH2 0xC68 JUMP JUMPDEST PUSH32 0x0 PUSH20 0xFFFFFFFFFFFFFFFFFFFFFFFFFFFFFFFFFFFFFFFF AND PUSH2 0x1522 PUSH32 0x360894A13BA1A3210667C828492DB98DCA3E2076CC3735A920A3CA505D382BBC SLOAD PUSH20 0xFFFFFFFFFFFFFFFFFFFFFFFFFFFFFFFFFFFFFFFF AND SWAP1 JUMP JUMPDEST PUSH20 0xFFFFFFFFFFFFFFFFFFFFFFFFFFFFFFFFFFFFFFFF AND EQ PUSH2 0x15C5 JUMPI PUSH1 0x40 MLOAD PUSH32 0x8C379A000000000000000000000000000000000000000000000000000000000 DUP2 MSTORE PUSH1 0x20 PUSH1 0x4 DUP3 ADD MSTORE PUSH1 0x2C PUSH1 0x24 DUP3 ADD MSTORE PUSH32 0x46756E6374696F6E206D7573742062652063616C6C6564207468726F75676820 PUSH1 0x44 DUP3 ADD MSTORE PUSH32 0x6163746976652070726F78790000000000000000000000000000000000000000 PUSH1 0x64 DUP3 ADD MSTORE PUSH1 0x84 ADD PUSH2 0xC68 JUMP JUMPDEST PUSH2 0x15CE DUP2 PUSH2 0x2B9E JUMP JUMPDEST PUSH1 0x40 DUP1 MLOAD PUSH1 0x0 DUP1 DUP3 MSTORE PUSH1 0x20 DUP3 ADD SWAP1 SWAP3 MSTORE PUSH2 0x15EA SWAP2 DUP4 SWAP2 SWAP1 PUSH2 0x2C3B JUMP JUMPDEST POP JUMP JUMPDEST PUSH2 0x15F5 PUSH2 0x2A7C JUMP JUMPDEST PUSH2 0x15FD PUSH2 0x2E3A JUMP JUMPDEST JUMP JUMPDEST PUSH2 0x12D SLOAD PUSH1 0xFF AND ISZERO PUSH2 0x166D JUMPI PUSH1 0x40 MLOAD PUSH32 0x8C379A000000000000000000000000000000000000000000000000000000000 DUP2 MSTORE PUSH1 0x20 PUSH1 0x4 DUP3 ADD MSTORE PUSH1 0x14 PUSH1 0x24 DUP3 ADD MSTORE PUSH32 0x5452414E534645525F4E4F545F414C4C4F574544000000000000000000000000 PUSH1 0x44 DUP3 ADD MSTORE PUSH1 0x64 ADD PUSH2 0xC68 JUMP JUMPDEST PUSH2 0x100E DUP4 DUP4 DUP4 PUSH2 0x2E92 JUMP JUMPDEST PUSH2 0x1682 CALLER DUP3 PUSH2 0x2EAD JUMP JUMPDEST PUSH2 0x16E8 JUMPI PUSH1 0x40 MLOAD PUSH32 0x8C379A000000000000000000000000000000000000000000000000000000000 DUP2 MSTORE PUSH1 0x20 PUSH1 0x4 DUP3 ADD MSTORE PUSH1 0xC PUSH1 0x24 DUP3 ADD MSTORE PUSH32 0x554E415554484F52495A45440000000000000000000000000000000000000000 PUSH1 0x44 DUP3 ADD MSTORE PUSH1 0x64 ADD PUSH2 0xC68 JUMP JUMPDEST PUSH2 0x16F1 DUP2 PUSH2 0x2838 JUMP JUMPDEST PUSH2 0x16FA DUP2 PUSH2 0x2F6D JUMP JUMPDEST PUSH1 0x0 DUP2 DUP2 MSTORE PUSH2 0x18E PUSH1 0x20 MSTORE PUSH1 0x40 DUP2 KECCAK256 SSTORE PUSH2 0x1713 DUP2 PUSH2 0x2FFA JUMP JUMPDEST PUSH2 0x18F PUSH1 0x0 DUP2 SLOAD PUSH2 0x1723 SWAP1 PUSH2 0x50B3 JUMP JUMPDEST SWAP1 SWAP2 SSTORE POP PUSH1 0x0 DUP2 DUP2 MSTORE PUSH2 0x190 PUSH1 0x20 MSTORE PUSH1 0x40 DUP2 KECCAK256 DUP1 SLOAD DUP4 SWAP3 PUSH32 0x410C5C259085CDE81FEDF70C1AA308EC839373C26E9B7ADA6560A2ACA0254EB6 SWAP3 SWAP2 PUSH2 0x1766 SWAP1 PUSH2 0x507B JUMP JUMPDEST SWAP2 DUP3 SWAP1 SSTORE POP PUSH1 0x40 MLOAD SWAP1 DUP2 MSTORE PUSH1 0x20 ADD JUMPDEST PUSH1 0x40 MLOAD DUP1 SWAP2 SUB SWAP1 LOG2 POP JUMP JUMPDEST PUSH20 0xFFFFFFFFFFFFFFFFFFFFFFFFFFFFFFFFFFFFFFFF PUSH32 0x0 AND ADDRESS SUB PUSH2 0x1845 JUMPI PUSH1 0x40 MLOAD PUSH32 0x8C379A000000000000000000000000000000000000000000000000000000000 DUP2 MSTORE PUSH1 0x20 PUSH1 0x4 DUP3 ADD MSTORE PUSH1 0x2C PUSH1 0x24 DUP3 ADD MSTORE PUSH32 0x46756E6374696F6E206D7573742062652063616C6C6564207468726F75676820 PUSH1 0x44 DUP3 ADD MSTORE PUSH32 0x64656C656761746563616C6C0000000000000000000000000000000000000000 PUSH1 0x64 DUP3 ADD MSTORE PUSH1 0x84 ADD PUSH2 0xC68 JUMP JUMPDEST PUSH32 0x0 PUSH20 0xFFFFFFFFFFFFFFFFFFFFFFFFFFFFFFFFFFFFFFFF AND PUSH2 0x18BA PUSH32 0x360894A13BA1A3210667C828492DB98DCA3E2076CC3735A920A3CA505D382BBC SLOAD PUSH20 0xFFFFFFFFFFFFFFFFFFFFFFFFFFFFFFFFFFFFFFFF AND SWAP1 JUMP JUMPDEST PUSH20 0xFFFFFFFFFFFFFFFFFFFFFFFFFFFFFFFFFFFFFFFF AND EQ PUSH2 0x195D JUMPI PUSH1 0x40 MLOAD PUSH32 0x8C379A000000000000000000000000000000000000000000000000000000000 DUP2 MSTORE PUSH1 0x20 PUSH1 0x4 DUP3 ADD MSTORE PUSH1 0x2C PUSH1 0x24 DUP3 ADD MSTORE PUSH32 0x46756E6374696F6E206D7573742062652063616C6C6564207468726F75676820 PUSH1 0x44 DUP3 ADD MSTORE PUSH32 0x6163746976652070726F78790000000000000000000000000000000000000000 PUSH1 0x64 DUP3 ADD MSTORE PUSH1 0x84 ADD PUSH2 0xC68 JUMP JUMPDEST PUSH2 0x1966 DUP3 PUSH2 0x2B9E JUMP JUMPDEST PUSH2 0xE4F DUP3 DUP3 PUSH1 0x1 PUSH2 0x2C3B JUMP JUMPDEST PUSH1 0x0 ADDRESS PUSH20 0xFFFFFFFFFFFFFFFFFFFFFFFFFFFFFFFFFFFFFFFF PUSH32 0x0 AND EQ PUSH2 0x1A39 JUMPI PUSH1 0x40 MLOAD PUSH32 0x8C379A000000000000000000000000000000000000000000000000000000000 DUP2 MSTORE PUSH1 0x20 PUSH1 0x4 DUP3 ADD MSTORE PUSH1 0x38 PUSH1 0x24 DUP3 ADD MSTORE PUSH32 0x555550535570677261646561626C653A206D757374206E6F742062652063616C PUSH1 0x44 DUP3 ADD MSTORE PUSH32 0x6C6564207468726F7567682064656C656761746563616C6C0000000000000000 PUSH1 0x64 DUP3 ADD MSTORE PUSH1 0x84 ADD PUSH2 0xC68 JUMP JUMPDEST POP PUSH32 0x360894A13BA1A3210667C828492DB98DCA3E2076CC3735A920A3CA505D382BBC SWAP1 JUMP JUMPDEST PUSH1 0x0 PUSH20 0xFFFFFFFFFFFFFFFFFFFFFFFFFFFFFFFFFFFFFFFF DUP3 AND PUSH2 0x1B03 JUMPI PUSH1 0x40 MLOAD PUSH32 0x8C379A000000000000000000000000000000000000000000000000000000000 DUP2 MSTORE PUSH1 0x20 PUSH1 0x4 DUP3 ADD MSTORE PUSH1 0x29 PUSH1 0x24 DUP3 ADD MSTORE PUSH32 0x4552433732313A2061646472657373207A65726F206973206E6F742061207661 PUSH1 0x44 DUP3 ADD MSTORE PUSH32 0x6C6964206F776E65720000000000000000000000000000000000000000000000 PUSH1 0x64 DUP3 ADD MSTORE PUSH1 0x84 ADD PUSH2 0xC68 JUMP JUMPDEST POP PUSH20 0xFFFFFFFFFFFFFFFFFFFFFFFFFFFFFFFFFFFFFFFF AND PUSH1 0x0 SWAP1 DUP2 MSTORE PUSH1 0x68 PUSH1 0x20 MSTORE PUSH1 0x40 SWAP1 KECCAK256 SLOAD SWAP1 JUMP JUMPDEST PUSH2 0x1B34 PUSH2 0x2A7C JUMP JUMPDEST PUSH2 0x15FD PUSH1 0x0 PUSH2 0x27B5 JUMP JUMPDEST PUSH1 0x0 DUP5 DUP2 MSTORE PUSH2 0x18C PUSH1 0x20 MSTORE PUSH1 0x40 DUP2 KECCAK256 SLOAD PUSH20 0xFFFFFFFFFFFFFFFFFFFFFFFFFFFFFFFFFFFFFFFF AND DUP1 ISZERO PUSH2 0x1C68 JUMPI PUSH1 0x0 PUSH1 0x40 MLOAD DUP1 PUSH1 0x80 ADD PUSH1 0x40 MSTORE DUP1 CALLER PUSH20 0xFFFFFFFFFFFFFFFFFFFFFFFFFFFFFFFFFFFFFFFF AND DUP2 MSTORE PUSH1 0x20 ADD DUP11 DUP11 DUP1 DUP1 PUSH1 0x1F ADD PUSH1 0x20 DUP1 SWAP2 DIV MUL PUSH1 0x20 ADD PUSH1 0x40 MLOAD SWAP1 DUP2 ADD PUSH1 0x40 MSTORE DUP1 SWAP4 SWAP3 SWAP2 SWAP1 DUP2 DUP2 MSTORE PUSH1 0x20 ADD DUP4 DUP4 DUP1 DUP3 DUP5 CALLDATACOPY PUSH1 0x0 SWAP3 ADD SWAP2 SWAP1 SWAP2 MSTORE POP POP POP SWAP1 DUP3 MSTORE POP PUSH1 0x20 DUP2 ADD DUP10 SWAP1 MSTORE PUSH20 0xFFFFFFFFFFFFFFFFFFFFFFFFFFFFFFFFFFFFFFFF DUP1 DUP10 AND PUSH1 0x40 SWAP3 DUP4 ADD MSTORE SWAP1 MLOAD PUSH32 0xCAB80EDE00000000000000000000000000000000000000000000000000000000 DUP2 MSTORE SWAP2 SWAP3 POP DUP4 AND SWAP1 PUSH4 0xCAB80EDE SWAP1 PUSH2 0x1C34 SWAP1 DUP5 SWAP1 DUP10 SWAP1 DUP10 SWAP1 PUSH1 0x4 ADD PUSH2 0x50E8 JUMP JUMPDEST PUSH1 0x0 PUSH1 0x40 MLOAD DUP1 DUP4 SUB DUP2 PUSH1 0x0 DUP8 DUP1 EXTCODESIZE ISZERO DUP1 ISZERO PUSH2 0x1C4E JUMPI PUSH1 0x0 DUP1 REVERT JUMPDEST POP GAS CALL ISZERO DUP1 ISZERO PUSH2 0x1C62 JUMPI RETURNDATASIZE PUSH1 0x0 DUP1 RETURNDATACOPY RETURNDATASIZE PUSH1 0x0 REVERT JUMPDEST POP POP POP POP POP JUMPDEST PUSH2 0x1C74 DUP9 DUP9 DUP9 DUP9 PUSH2 0x30D2 JUMP JUMPDEST SWAP9 SWAP8 POP POP POP POP POP POP POP POP JUMP JUMPDEST PUSH2 0x1C88 PUSH2 0x2A7C JUMP JUMPDEST PUSH2 0x15FD PUSH2 0x272F JUMP JUMPDEST DUP1 PUSH2 0x1C9A DUP2 PUSH2 0x31E3 JUMP JUMPDEST PUSH2 0x1D00 JUMPI PUSH1 0x40 MLOAD PUSH32 0x8C379A000000000000000000000000000000000000000000000000000000000 DUP2 MSTORE PUSH1 0x20 PUSH1 0x4 DUP3 ADD MSTORE PUSH1 0x1B PUSH1 0x24 DUP3 ADD MSTORE PUSH32 0x47415445445F4D455441444154415F554E415554484F52495345440000000000 PUSH1 0x44 DUP3 ADD MSTORE PUSH1 0x64 ADD PUSH2 0xC68 JUMP JUMPDEST PUSH2 0xE4F DUP3 PUSH2 0x2F6D JUMP JUMPDEST PUSH1 0x60 PUSH1 0x66 DUP1 SLOAD PUSH2 0xA42 SWAP1 PUSH2 0x4C32 JUMP JUMPDEST PUSH2 0x18B PUSH1 0x20 MSTORE PUSH1 0x0 SWAP1 DUP2 MSTORE PUSH1 0x40 SWAP1 KECCAK256 DUP1 SLOAD PUSH2 0x1D32 SWAP1 PUSH2 0x4C32 JUMP JUMPDEST DUP1 PUSH1 0x1F ADD PUSH1 0x20 DUP1 SWAP2 DIV MUL PUSH1 0x20 ADD PUSH1 0x40 MLOAD SWAP1 DUP2 ADD PUSH1 0x40 MSTORE DUP1 SWAP3 SWAP2 SWAP1 DUP2 DUP2 MSTORE PUSH1 0x20 ADD DUP3 DUP1 SLOAD PUSH2 0x1D5E SWAP1 PUSH2 0x4C32 JUMP JUMPDEST DUP1 ISZERO PUSH2 0x1DAB JUMPI DUP1 PUSH1 0x1F LT PUSH2 0x1D80 JUMPI PUSH2 0x100 DUP1 DUP4 SLOAD DIV MUL DUP4 MSTORE SWAP2 PUSH1 0x20 ADD SWAP2 PUSH2 0x1DAB JUMP JUMPDEST DUP3 ADD SWAP2 SWAP1 PUSH1 0x0 MSTORE PUSH1 0x20 PUSH1 0x0 KECCAK256 SWAP1 JUMPDEST DUP2 SLOAD DUP2 MSTORE SWAP1 PUSH1 0x1 ADD SWAP1 PUSH1 0x20 ADD DUP1 DUP4 GT PUSH2 0x1D8E JUMPI DUP3 SWAP1 SUB PUSH1 0x1F AND DUP3 ADD SWAP2 JUMPDEST POP POP POP POP POP DUP2 JUMP JUMPDEST PUSH2 0xE4F CALLER DUP4 DUP4 PUSH2 0x32AB JUMP JUMPDEST DUP2 PUSH2 0x1DC8 DUP2 PUSH2 0x31E3 JUMP JUMPDEST PUSH2 0x1E2E JUMPI PUSH1 0x40 MLOAD PUSH32 0x8C379A000000000000000000000000000000000000000000000000000000000 DUP2 MSTORE PUSH1 0x20 PUSH1 0x4 DUP3 ADD MSTORE PUSH1 0x1B PUSH1 0x24 DUP3 ADD MSTORE PUSH32 0x47415445445F4D455441444154415F554E415554484F52495345440000000000 PUSH1 0x44 DUP3 ADD MSTORE PUSH1 0x64 ADD PUSH2 0xC68 JUMP JUMPDEST PUSH1 0x0 JUMPDEST DUP3 MLOAD DUP2 LT ISZERO PUSH2 0x1F0D JUMPI PUSH1 0x0 DUP4 DUP3 DUP2 MLOAD DUP2 LT PUSH2 0x1E4E JUMPI PUSH2 0x1E4E PUSH2 0x4E9E JUMP JUMPDEST PUSH1 0x20 SWAP1 DUP2 MUL SWAP2 SWAP1 SWAP2 ADD DUP2 ADD MLOAD DUP1 DUP3 ADD MLOAD PUSH1 0x0 DUP9 DUP2 MSTORE PUSH2 0x162 DUP5 MSTORE PUSH1 0x40 DUP1 DUP3 KECCAK256 SLOAD PUSH8 0xFFFFFFFFFFFFFFFF AND DUP3 MSTORE PUSH2 0x161 DUP6 MSTORE DUP1 DUP3 KECCAK256 DUP11 DUP4 MSTORE SWAP1 SWAP5 MSTORE DUP4 SWAP1 KECCAK256 DUP3 MLOAD SWAP4 MLOAD SWAP3 SWAP5 POP SWAP1 SWAP3 SWAP1 SWAP2 PUSH2 0x1EA0 SWAP2 SWAP1 PUSH2 0x4C85 JUMP JUMPDEST SWAP1 DUP2 MSTORE PUSH1 0x20 ADD PUSH1 0x40 MLOAD DUP1 SWAP2 SUB SWAP1 KECCAK256 SWAP1 DUP2 PUSH2 0x1EBA SWAP2 SWAP1 PUSH2 0x4F0D JUMP JUMPDEST POP DUP1 MLOAD PUSH1 0x20 DUP3 ADD MLOAD PUSH1 0x40 MLOAD DUP8 SWAP3 PUSH32 0x29D4CD326B134D55E630CEB2871CEA5E243B89BC9667E0C840B5DA53B26FFD6A SWAP3 PUSH2 0x1EF2 SWAP3 PUSH2 0x5027 JUMP JUMPDEST PUSH1 0x40 MLOAD DUP1 SWAP2 SUB SWAP1 LOG2 POP DUP1 PUSH2 0x1F05 DUP2 PUSH2 0x507B JUMP JUMPDEST SWAP2 POP POP PUSH2 0x1E31 JUMP JUMPDEST POP POP POP POP JUMP JUMPDEST PUSH2 0x12D SLOAD PUSH1 0xFF AND ISZERO PUSH2 0x1F81 JUMPI PUSH1 0x40 MLOAD PUSH32 0x8C379A000000000000000000000000000000000000000000000000000000000 DUP2 MSTORE PUSH1 0x20 PUSH1 0x4 DUP3 ADD MSTORE PUSH1 0x14 PUSH1 0x24 DUP3 ADD MSTORE PUSH32 0x5452414E534645525F4E4F545F414C4C4F574544000000000000000000000000 PUSH1 0x44 DUP3 ADD MSTORE PUSH1 0x64 ADD PUSH2 0xC68 JUMP JUMPDEST PUSH2 0x1F0D DUP5 DUP5 DUP5 DUP5 PUSH2 0x33D8 JUMP JUMPDEST PUSH1 0x0 DUP2 DUP2 MSTORE PUSH1 0x67 PUSH1 0x20 MSTORE PUSH1 0x40 SWAP1 KECCAK256 SLOAD PUSH1 0x60 SWAP1 PUSH20 0xFFFFFFFFFFFFFFFFFFFFFFFFFFFFFFFFFFFFFFFF AND PUSH2 0x201B JUMPI PUSH1 0x40 MLOAD PUSH32 0x8C379A000000000000000000000000000000000000000000000000000000000 DUP2 MSTORE PUSH1 0x20 PUSH1 0x4 DUP3 ADD MSTORE PUSH1 0x10 PUSH1 0x24 DUP3 ADD MSTORE PUSH32 0x494E56414C49445F544F4B454E5F494400000000000000000000000000000000 PUSH1 0x44 DUP3 ADD MSTORE PUSH1 0x64 ADD PUSH2 0xC68 JUMP JUMPDEST PUSH1 0x0 DUP3 DUP2 MSTORE PUSH2 0x18E PUSH1 0x20 SWAP1 DUP2 MSTORE PUSH1 0x40 DUP1 DUP4 KECCAK256 SLOAD DUP4 MSTORE PUSH2 0x18B SWAP1 SWAP2 MSTORE SWAP1 KECCAK256 PUSH2 0x2041 DUP4 PUSH2 0x347A JUMP JUMPDEST PUSH1 0x40 MLOAD PUSH1 0x20 ADD PUSH2 0x2052 SWAP3 SWAP2 SWAP1 PUSH2 0x515B JUMP JUMPDEST PUSH1 0x40 MLOAD PUSH1 0x20 DUP2 DUP4 SUB SUB DUP2 MSTORE SWAP1 PUSH1 0x40 MSTORE SWAP1 POP SWAP2 SWAP1 POP JUMP JUMPDEST PUSH1 0x0 DUP1 DUP3 DUP6 DUP6 PUSH1 0x40 MLOAD PUSH2 0x207C SWAP3 SWAP2 SWAP1 PUSH2 0x5200 JUMP JUMPDEST PUSH1 0x40 MLOAD SWAP1 DUP2 SWAP1 SUB DUP2 KECCAK256 PUSH2 0x209B SWAP3 SWAP2 PUSH1 0x20 ADD SWAP2 DUP3 MSTORE PUSH1 0x20 DUP3 ADD MSTORE PUSH1 0x40 ADD SWAP1 JUMP JUMPDEST PUSH1 0x40 DUP1 MLOAD DUP1 DUP4 SUB PUSH32 0xFFFFFFFFFFFFFFFFFFFFFFFFFFFFFFFFFFFFFFFFFFFFFFFFFFFFFFFFFFFFFFE0 ADD DUP2 MSTORE SWAP2 SWAP1 MSTORE DUP1 MLOAD PUSH1 0x20 SWAP1 SWAP2 ADD KECCAK256 SWAP6 SWAP5 POP POP POP POP POP JUMP JUMPDEST PUSH1 0x0 DUP4 DUP2 MSTORE PUSH2 0x160 PUSH1 0x20 SWAP1 DUP2 MSTORE PUSH1 0x40 DUP1 DUP4 KECCAK256 SLOAD PUSH8 0xFFFFFFFFFFFFFFFF AND DUP4 MSTORE PUSH2 0x15F DUP3 MSTORE DUP1 DUP4 KECCAK256 DUP7 DUP5 MSTORE SWAP1 SWAP2 MSTORE SWAP1 DUP2 SWAP1 KECCAK256 SWAP1 MLOAD PUSH1 0x60 SWAP2 SWAP1 PUSH2 0x211E SWAP1 DUP6 SWAP1 DUP6 SWAP1 PUSH2 0x5200 JUMP JUMPDEST SWAP1 DUP2 MSTORE PUSH1 0x20 ADD PUSH1 0x40 MLOAD DUP1 SWAP2 SUB SWAP1 KECCAK256 DUP1 SLOAD PUSH2 0x2137 SWAP1 PUSH2 0x4C32 JUMP JUMPDEST DUP1 PUSH1 0x1F ADD PUSH1 0x20 DUP1 SWAP2 DIV MUL PUSH1 0x20 ADD PUSH1 0x40 MLOAD SWAP1 DUP2 ADD PUSH1 0x40 MSTORE DUP1 SWAP3 SWAP2 SWAP1 DUP2 DUP2 MSTORE PUSH1 0x20 ADD DUP3 DUP1 SLOAD PUSH2 0x2163 SWAP1 PUSH2 0x4C32 JUMP JUMPDEST DUP1 ISZERO PUSH2 0x21B0 JUMPI DUP1 PUSH1 0x1F LT PUSH2 0x2185 JUMPI PUSH2 0x100 DUP1 DUP4 SLOAD DIV MUL DUP4 MSTORE SWAP2 PUSH1 0x20 ADD SWAP2 PUSH2 0x21B0 JUMP JUMPDEST DUP3 ADD SWAP2 SWAP1 PUSH1 0x0 MSTORE PUSH1 0x20 PUSH1 0x0 KECCAK256 SWAP1 JUMPDEST DUP2 SLOAD DUP2 MSTORE SWAP1 PUSH1 0x1 ADD SWAP1 PUSH1 0x20 ADD DUP1 DUP4 GT PUSH2 0x2193 JUMPI DUP3 SWAP1 SUB PUSH1 0x1F AND DUP3 ADD SWAP2 JUMPDEST POP POP POP POP POP SWAP1 POP SWAP4 SWAP3 POP POP POP JUMP JUMPDEST PUSH1 0x0 PUSH2 0x21C8 PUSH2 0x2A7C JUMP JUMPDEST DUP8 DUP11 DUP11 PUSH1 0x40 MLOAD PUSH2 0x21D9 SWAP3 SWAP2 SWAP1 PUSH2 0x5200 JUMP JUMPDEST PUSH1 0x40 MLOAD SWAP1 DUP2 SWAP1 SUB DUP2 KECCAK256 PUSH2 0x21F8 SWAP3 SWAP2 PUSH1 0x20 ADD SWAP2 DUP3 MSTORE PUSH1 0x20 DUP3 ADD MSTORE PUSH1 0x40 ADD SWAP1 JUMP JUMPDEST PUSH1 0x40 DUP1 MLOAD DUP1 DUP4 SUB PUSH32 0xFFFFFFFFFFFFFFFFFFFFFFFFFFFFFFFFFFFFFFFFFFFFFFFFFFFFFFFFFFFFFFE0 ADD DUP2 MSTORE DUP3 DUP3 MSTORE DUP1 MLOAD PUSH1 0x20 SWAP2 DUP3 ADD KECCAK256 PUSH1 0x0 DUP2 DUP2 MSTORE PUSH2 0x18D SWAP1 SWAP3 MSTORE SWAP2 SWAP1 KECCAK256 DUP1 SLOAD PUSH32 0xFFFFFFFFFFFFFFFFFFFFFFFFFFFFFFFFFFFFFFFFFFFFFFFFFFFFFFFFFFFFFF00 AND DUP11 ISZERO ISZERO OR SWAP1 SSTORE SWAP2 POP DUP2 SWAP1 PUSH32 0xFBBC4187CF8CD340D071EE02E4E44EB8E04903A03649EF31A26E38798390351D SWAP1 PUSH2 0x229D SWAP1 DUP14 SWAP1 DUP14 SWAP1 DUP14 SWAP1 DUP14 SWAP1 PUSH2 0x5210 JUMP JUMPDEST PUSH1 0x40 MLOAD DUP1 SWAP2 SUB SWAP1 LOG2 PUSH2 0x22B0 DUP2 DUP8 DUP8 PUSH2 0x1013 JUMP JUMPDEST PUSH2 0x22BC DUP2 DUP6 DUP6 DUP6 PUSH2 0x237D JUMP JUMPDEST SWAP10 SWAP9 POP POP POP POP POP POP POP POP POP JUMP JUMPDEST PUSH2 0x22D1 PUSH2 0x2A7C JUMP JUMPDEST PUSH20 0xFFFFFFFFFFFFFFFFFFFFFFFFFFFFFFFFFFFFFFFF DUP2 AND PUSH2 0x2374 JUMPI PUSH1 0x40 MLOAD PUSH32 0x8C379A000000000000000000000000000000000000000000000000000000000 DUP2 MSTORE PUSH1 0x20 PUSH1 0x4 DUP3 ADD MSTORE PUSH1 0x26 PUSH1 0x24 DUP3 ADD MSTORE PUSH32 0x4F776E61626C653A206E6577206F776E657220697320746865207A65726F2061 PUSH1 0x44 DUP3 ADD MSTORE PUSH32 0x6464726573730000000000000000000000000000000000000000000000000000 PUSH1 0x64 DUP3 ADD MSTORE PUSH1 0x84 ADD PUSH2 0xC68 JUMP JUMPDEST PUSH2 0x15EA DUP2 PUSH2 0x27B5 JUMP JUMPDEST PUSH2 0x2385 PUSH2 0x2A7C JUMP JUMPDEST PUSH1 0x0 DUP5 DUP2 MSTORE PUSH2 0x18C PUSH1 0x20 MSTORE PUSH1 0x40 SWAP1 KECCAK256 DUP1 SLOAD PUSH32 0xFFFFFFFFFFFFFFFFFFFFFFFF0000000000000000000000000000000000000000 AND PUSH20 0xFFFFFFFFFFFFFFFFFFFFFFFFFFFFFFFFFFFFFFFF DUP6 AND SWAP1 DUP2 OR SWAP1 SWAP2 SSTORE ISZERO PUSH2 0x2461 JUMPI PUSH1 0x40 MLOAD PUSH32 0x42A0D9B400000000000000000000000000000000000000000000000000000000 DUP2 MSTORE PUSH20 0xFFFFFFFFFFFFFFFFFFFFFFFFFFFFFFFFFFFFFFFF DUP5 AND SWAP1 PUSH4 0x42A0D9B4 SWAP1 PUSH2 0x242E SWAP1 DUP6 SWAP1 DUP6 SWAP1 PUSH1 0x4 ADD PUSH2 0x4E6D JUMP JUMPDEST PUSH1 0x0 PUSH1 0x40 MLOAD DUP1 DUP4 SUB DUP2 PUSH1 0x0 DUP8 DUP1 EXTCODESIZE ISZERO DUP1 ISZERO PUSH2 0x2448 JUMPI PUSH1 0x0 DUP1 REVERT JUMPDEST POP GAS CALL ISZERO DUP1 ISZERO PUSH2 0x245C JUMPI RETURNDATASIZE PUSH1 0x0 DUP1 RETURNDATACOPY RETURNDATASIZE PUSH1 0x0 REVERT JUMPDEST POP POP POP POP JUMPDEST DUP3 PUSH20 0xFFFFFFFFFFFFFFFFFFFFFFFFFFFFFFFFFFFFFFFF AND PUSH32 0x57DA1406F81E1F47CDA5874100D33118BF695F202882AACC5CA6D45CA917449 DUP6 DUP5 DUP5 PUSH1 0x40 MLOAD PUSH2 0x24AB SWAP4 SWAP3 SWAP2 SWAP1 PUSH2 0x4E4A JUMP JUMPDEST PUSH1 0x40 MLOAD DUP1 SWAP2 SUB SWAP1 LOG2 POP POP POP POP JUMP JUMPDEST PUSH1 0x0 SLOAD PUSH2 0x100 SWAP1 DIV PUSH1 0xFF AND PUSH2 0x2550 JUMPI PUSH1 0x40 MLOAD PUSH32 0x8C379A000000000000000000000000000000000000000000000000000000000 DUP2 MSTORE PUSH1 0x20 PUSH1 0x4 DUP3 ADD MSTORE PUSH1 0x2B PUSH1 0x24 DUP3 ADD MSTORE PUSH32 0x496E697469616C697A61626C653A20636F6E7472616374206973206E6F742069 PUSH1 0x44 DUP3 ADD MSTORE PUSH32 0x6E697469616C697A696E67000000000000000000000000000000000000000000 PUSH1 0x64 DUP3 ADD MSTORE PUSH1 0x84 ADD PUSH2 0xC68 JUMP JUMPDEST PUSH2 0xE4F DUP3 DUP3 PUSH2 0x34E7 JUMP JUMPDEST PUSH1 0x0 SLOAD PUSH2 0x100 SWAP1 DIV PUSH1 0xFF AND PUSH2 0x15FD JUMPI PUSH1 0x40 MLOAD PUSH32 0x8C379A000000000000000000000000000000000000000000000000000000000 DUP2 MSTORE PUSH1 0x20 PUSH1 0x4 DUP3 ADD MSTORE PUSH1 0x2B PUSH1 0x24 DUP3 ADD MSTORE PUSH32 0x496E697469616C697A61626C653A20636F6E7472616374206973206E6F742069 PUSH1 0x44 DUP3 ADD MSTORE PUSH32 0x6E697469616C697A696E67000000000000000000000000000000000000000000 PUSH1 0x64 DUP3 ADD MSTORE PUSH1 0x84 ADD PUSH2 0xC68 JUMP JUMPDEST PUSH1 0x0 SLOAD PUSH2 0x100 SWAP1 DIV PUSH1 0xFF AND PUSH2 0x2688 JUMPI PUSH1 0x40 MLOAD PUSH32 0x8C379A000000000000000000000000000000000000000000000000000000000 DUP2 MSTORE PUSH1 0x20 PUSH1 0x4 DUP3 ADD MSTORE PUSH1 0x2B PUSH1 0x24 DUP3 ADD MSTORE PUSH32 0x496E697469616C697A61626C653A20636F6E7472616374206973206E6F742069 PUSH1 0x44 DUP3 ADD MSTORE PUSH32 0x6E697469616C697A696E67000000000000000000000000000000000000000000 PUSH1 0x64 DUP3 ADD MSTORE PUSH1 0x84 ADD PUSH2 0xC68 JUMP JUMPDEST PUSH2 0x15FD PUSH2 0x3597 JUMP JUMPDEST PUSH1 0x0 SLOAD PUSH2 0x100 SWAP1 DIV PUSH1 0xFF AND PUSH2 0x2727 JUMPI PUSH1 0x40 MLOAD PUSH32 0x8C379A000000000000000000000000000000000000000000000000000000000 DUP2 MSTORE PUSH1 0x20 PUSH1 0x4 DUP3 ADD MSTORE PUSH1 0x2B PUSH1 0x24 DUP3 ADD MSTORE PUSH32 0x496E697469616C697A61626C653A20636F6E7472616374206973206E6F742069 PUSH1 0x44 DUP3 ADD MSTORE PUSH32 0x6E697469616C697A696E67000000000000000000000000000000000000000000 PUSH1 0x64 DUP3 ADD MSTORE PUSH1 0x84 ADD PUSH2 0xC68 JUMP JUMPDEST PUSH2 0x15FD PUSH2 0x3637 JUMP JUMPDEST PUSH2 0x2737 PUSH2 0x36F9 JUMP JUMPDEST PUSH2 0x12D DUP1 SLOAD PUSH32 0xFFFFFFFFFFFFFFFFFFFFFFFFFFFFFFFFFFFFFFFFFFFFFFFFFFFFFFFFFFFFFF00 AND PUSH1 0x1 OR SWAP1 SSTORE PUSH32 0x62E78CEA01BEE320CD4E420270B5EA74000D11B0C9F74754EBDBFC544B05A258 PUSH2 0x278B CALLER SWAP1 JUMP JUMPDEST PUSH1 0x40 MLOAD PUSH20 0xFFFFFFFFFFFFFFFFFFFFFFFFFFFFFFFFFFFFFFFF SWAP1 SWAP2 AND DUP2 MSTORE PUSH1 0x20 ADD PUSH1 0x40 MLOAD DUP1 SWAP2 SUB SWAP1 LOG1 JUMP JUMPDEST PUSH1 0x97 DUP1 SLOAD PUSH20 0xFFFFFFFFFFFFFFFFFFFFFFFFFFFFFFFFFFFFFFFF DUP4 DUP2 AND PUSH32 0xFFFFFFFFFFFFFFFFFFFFFFFF0000000000000000000000000000000000000000 DUP4 AND DUP2 OR SWAP1 SWAP4 SSTORE PUSH1 0x40 MLOAD SWAP2 AND SWAP2 SWAP1 DUP3 SWAP1 PUSH32 0x8BE0079C531659141344CD1FD0A4F28419497F9722A3DAAFE3B4186F6B6457E0 SWAP1 PUSH1 0x0 SWAP1 LOG3 POP POP JUMP JUMPDEST PUSH1 0x0 PUSH2 0xA2D CALLER DUP4 PUSH2 0x2EAD JUMP JUMPDEST PUSH1 0x0 DUP2 DUP2 MSTORE PUSH2 0x160 PUSH1 0x20 MSTORE PUSH1 0x40 DUP2 KECCAK256 DUP1 SLOAD PUSH8 0xFFFFFFFFFFFFFFFF AND SWAP2 PUSH2 0x285D DUP4 PUSH2 0x523C JUMP JUMPDEST DUP3 SLOAD PUSH2 0x100 SWAP3 SWAP1 SWAP3 EXP PUSH8 0xFFFFFFFFFFFFFFFF DUP2 DUP2 MUL NOT SWAP1 SWAP4 AND SWAP2 DUP4 AND MUL OR SWAP1 SWAP2 SSTORE PUSH1 0x0 DUP4 DUP2 MSTORE PUSH2 0x160 PUSH1 0x20 SWAP1 DUP2 MSTORE PUSH1 0x40 SWAP2 DUP3 SWAP1 KECCAK256 SLOAD SWAP2 MLOAD SWAP2 SWAP1 SWAP3 AND DUP2 MSTORE DUP4 SWAP3 POP PUSH32 0x3773C27B7F05829D86B67403E26562FB9D776452B918D74B238BFDC1203BF0ED SWAP2 ADD PUSH2 0x1775 JUMP JUMPDEST PUSH1 0x0 DUP2 DUP2 MSTORE PUSH1 0x67 PUSH1 0x20 MSTORE PUSH1 0x40 SWAP1 KECCAK256 SLOAD PUSH20 0xFFFFFFFFFFFFFFFFFFFFFFFFFFFFFFFFFFFFFFFF AND PUSH2 0x15EA JUMPI PUSH1 0x40 MLOAD PUSH32 0x8C379A000000000000000000000000000000000000000000000000000000000 DUP2 MSTORE PUSH1 0x20 PUSH1 0x4 DUP3 ADD MSTORE PUSH1 0x18 PUSH1 0x24 DUP3 ADD MSTORE PUSH32 0x4552433732313A20696E76616C696420746F6B656E2049440000000000000000 PUSH1 0x44 DUP3 ADD MSTORE PUSH1 0x64 ADD PUSH2 0xC68 JUMP JUMPDEST PUSH1 0x0 DUP2 DUP2 MSTORE PUSH1 0x67 PUSH1 0x20 MSTORE PUSH1 0x40 DUP2 KECCAK256 SLOAD PUSH20 0xFFFFFFFFFFFFFFFFFFFFFFFFFFFFFFFFFFFFFFFF AND DUP1 PUSH2 0xA2D JUMPI PUSH1 0x40 MLOAD PUSH32 0x8C379A000000000000000000000000000000000000000000000000000000000 DUP2 MSTORE PUSH1 0x20 PUSH1 0x4 DUP3 ADD MSTORE PUSH1 0x18 PUSH1 0x24 DUP3 ADD MSTORE PUSH32 0x4552433732313A20696E76616C696420746F6B656E2049440000000000000000 PUSH1 0x44 DUP3 ADD MSTORE PUSH1 0x64 ADD PUSH2 0xC68 JUMP JUMPDEST PUSH1 0x0 DUP2 DUP2 MSTORE PUSH1 0x69 PUSH1 0x20 MSTORE PUSH1 0x40 SWAP1 KECCAK256 DUP1 SLOAD PUSH32 0xFFFFFFFFFFFFFFFFFFFFFFFF0000000000000000000000000000000000000000 AND PUSH20 0xFFFFFFFFFFFFFFFFFFFFFFFFFFFFFFFFFFFFFFFF DUP5 AND SWAP1 DUP2 OR SWAP1 SWAP2 SSTORE DUP2 SWAP1 PUSH2 0x2A36 DUP3 PUSH2 0x2950 JUMP JUMPDEST PUSH20 0xFFFFFFFFFFFFFFFFFFFFFFFFFFFFFFFFFFFFFFFF AND PUSH32 0x8C5BE1E5EBEC7D5BD14F71427D1E84F3DD0314C0F7B2291E5B200AC8C7C3B925 PUSH1 0x40 MLOAD PUSH1 0x40 MLOAD DUP1 SWAP2 SUB SWAP1 LOG4 POP POP JUMP JUMPDEST PUSH1 0x97 SLOAD PUSH20 0xFFFFFFFFFFFFFFFFFFFFFFFFFFFFFFFFFFFFFFFF AND CALLER EQ PUSH2 0x15FD JUMPI PUSH1 0x40 MLOAD PUSH32 0x8C379A000000000000000000000000000000000000000000000000000000000 DUP2 MSTORE PUSH1 0x20 PUSH1 0x4 DUP3 ADD DUP2 SWAP1 MSTORE PUSH1 0x24 DUP3 ADD MSTORE PUSH32 0x4F776E61626C653A2063616C6C6572206973206E6F7420746865206F776E6572 PUSH1 0x44 DUP3 ADD MSTORE PUSH1 0x64 ADD PUSH2 0xC68 JUMP JUMPDEST PUSH2 0x2B07 CALLER DUP3 PUSH2 0x2EAD JUMP JUMPDEST PUSH2 0x2B93 JUMPI PUSH1 0x40 MLOAD PUSH32 0x8C379A000000000000000000000000000000000000000000000000000000000 DUP2 MSTORE PUSH1 0x20 PUSH1 0x4 DUP3 ADD MSTORE PUSH1 0x2D PUSH1 0x24 DUP3 ADD MSTORE PUSH32 0x4552433732313A2063616C6C6572206973206E6F7420746F6B656E206F776E65 PUSH1 0x44 DUP3 ADD MSTORE PUSH32 0x72206F7220617070726F76656400000000000000000000000000000000000000 PUSH1 0x64 DUP3 ADD MSTORE PUSH1 0x84 ADD PUSH2 0xC68 JUMP JUMPDEST PUSH2 0x100E DUP4 DUP4 DUP4 PUSH2 0x3767 JUMP JUMPDEST CALLER PUSH2 0x2BBE PUSH1 0x97 SLOAD PUSH20 0xFFFFFFFFFFFFFFFFFFFFFFFFFFFFFFFFFFFFFFFF AND SWAP1 JUMP JUMPDEST PUSH20 0xFFFFFFFFFFFFFFFFFFFFFFFFFFFFFFFFFFFFFFFF AND EQ PUSH2 0x15EA JUMPI PUSH1 0x40 MLOAD PUSH32 0x8C379A000000000000000000000000000000000000000000000000000000000 DUP2 MSTORE PUSH1 0x20 PUSH1 0x4 DUP3 ADD MSTORE PUSH1 0x9 PUSH1 0x24 DUP3 ADD MSTORE PUSH32 0x4E4F545F4F574E45520000000000000000000000000000000000000000000000 PUSH1 0x44 DUP3 ADD MSTORE PUSH1 0x64 ADD PUSH2 0xC68 JUMP JUMPDEST PUSH32 0x4910FDFA16FED3260ED0E7147F7CC6DA11A60208B5B9406D12A635614FFD9143 SLOAD PUSH1 0xFF AND ISZERO PUSH2 0x2C6E JUMPI PUSH2 0x100E DUP4 PUSH2 0x3A62 JUMP JUMPDEST DUP3 PUSH20 0xFFFFFFFFFFFFFFFFFFFFFFFFFFFFFFFFFFFFFFFF AND PUSH4 0x52D1902D PUSH1 0x40 MLOAD DUP2 PUSH4 0xFFFFFFFF AND PUSH1 0xE0 SHL DUP2 MSTORE PUSH1 0x4 ADD PUSH1 0x20 PUSH1 0x40 MLOAD DUP1 DUP4 SUB DUP2 DUP7 GAS STATICCALL SWAP3 POP POP POP DUP1 ISZERO PUSH2 0x2CF3 JUMPI POP PUSH1 0x40 DUP1 MLOAD PUSH1 0x1F RETURNDATASIZE SWAP1 DUP2 ADD PUSH32 0xFFFFFFFFFFFFFFFFFFFFFFFFFFFFFFFFFFFFFFFFFFFFFFFFFFFFFFFFFFFFFFE0 AND DUP3 ADD SWAP1 SWAP3 MSTORE PUSH2 0x2CF0 SWAP2 DUP2 ADD SWAP1 PUSH2 0x5263 JUMP JUMPDEST PUSH1 0x1 JUMPDEST PUSH2 0x2D7F JUMPI PUSH1 0x40 MLOAD PUSH32 0x8C379A000000000000000000000000000000000000000000000000000000000 DUP2 MSTORE PUSH1 0x20 PUSH1 0x4 DUP3 ADD MSTORE PUSH1 0x2E PUSH1 0x24 DUP3 ADD MSTORE PUSH32 0x45524331393637557067726164653A206E657720696D706C656D656E74617469 PUSH1 0x44 DUP3 ADD MSTORE PUSH32 0x6F6E206973206E6F742055555053000000000000000000000000000000000000 PUSH1 0x64 DUP3 ADD MSTORE PUSH1 0x84 ADD PUSH2 0xC68 JUMP JUMPDEST PUSH32 0x360894A13BA1A3210667C828492DB98DCA3E2076CC3735A920A3CA505D382BBC DUP2 EQ PUSH2 0x2E2E JUMPI PUSH1 0x40 MLOAD PUSH32 0x8C379A000000000000000000000000000000000000000000000000000000000 DUP2 MSTORE PUSH1 0x20 PUSH1 0x4 DUP3 ADD MSTORE PUSH1 0x29 PUSH1 0x24 DUP3 ADD MSTORE PUSH32 0x45524331393637557067726164653A20756E737570706F727465642070726F78 PUSH1 0x44 DUP3 ADD MSTORE PUSH32 0x6961626C65555549440000000000000000000000000000000000000000000000 PUSH1 0x64 DUP3 ADD MSTORE PUSH1 0x84 ADD PUSH2 0xC68 JUMP JUMPDEST POP PUSH2 0x100E DUP4 DUP4 DUP4 PUSH2 0x3B6C JUMP JUMPDEST PUSH2 0x2E42 PUSH2 0x3B91 JUMP JUMPDEST PUSH2 0x12D DUP1 SLOAD PUSH32 0xFFFFFFFFFFFFFFFFFFFFFFFFFFFFFFFFFFFFFFFFFFFFFFFFFFFFFFFFFFFFFF00 AND SWAP1 SSTORE PUSH32 0x5DB9EE0A495BF2E6FF9C91A7834C1BA4FDD244A5E8AA4E537BD38AEAE4B073AA CALLER PUSH2 0x278B JUMP JUMPDEST PUSH2 0x100E DUP4 DUP4 DUP4 PUSH1 0x40 MLOAD DUP1 PUSH1 0x20 ADD PUSH1 0x40 MSTORE DUP1 PUSH1 0x0 DUP2 MSTORE POP PUSH2 0x1F13 JUMP JUMPDEST PUSH1 0x0 DUP1 PUSH2 0x2EB9 DUP4 PUSH2 0x2950 JUMP JUMPDEST SWAP1 POP DUP1 PUSH20 0xFFFFFFFFFFFFFFFFFFFFFFFFFFFFFFFFFFFFFFFF AND DUP5 PUSH20 0xFFFFFFFFFFFFFFFFFFFFFFFFFFFFFFFFFFFFFFFF AND EQ DUP1 PUSH2 0x2F27 JUMPI POP PUSH20 0xFFFFFFFFFFFFFFFFFFFFFFFFFFFFFFFFFFFFFFFF DUP1 DUP3 AND PUSH1 0x0 SWAP1 DUP2 MSTORE PUSH1 0x6A PUSH1 0x20 SWAP1 DUP2 MSTORE PUSH1 0x40 DUP1 DUP4 KECCAK256 SWAP4 DUP9 AND DUP4 MSTORE SWAP3 SWAP1 MSTORE KECCAK256 SLOAD PUSH1 0xFF AND JUMPDEST DUP1 PUSH2 0x2F65 JUMPI POP DUP4 PUSH20 0xFFFFFFFFFFFFFFFFFFFFFFFFFFFFFFFFFFFFFFFF AND PUSH2 0x2F4D DUP5 PUSH2 0xE53 JUMP JUMPDEST PUSH20 0xFFFFFFFFFFFFFFFFFFFFFFFFFFFFFFFFFFFFFFFF AND EQ JUMPDEST SWAP5 SWAP4 POP POP POP POP JUMP JUMPDEST PUSH1 0x0 DUP2 DUP2 MSTORE PUSH2 0x162 PUSH1 0x20 MSTORE PUSH1 0x40 DUP2 KECCAK256 DUP1 SLOAD PUSH8 0xFFFFFFFFFFFFFFFF AND SWAP2 PUSH2 0x2F92 DUP4 PUSH2 0x523C JUMP JUMPDEST DUP3 SLOAD PUSH2 0x100 SWAP3 SWAP1 SWAP3 EXP PUSH8 0xFFFFFFFFFFFFFFFF DUP2 DUP2 MUL NOT SWAP1 SWAP4 AND SWAP2 DUP4 AND MUL OR SWAP1 SWAP2 SSTORE PUSH1 0x0 DUP4 DUP2 MSTORE PUSH2 0x162 PUSH1 0x20 SWAP1 DUP2 MSTORE PUSH1 0x40 SWAP2 DUP3 SWAP1 KECCAK256 SLOAD SWAP2 MLOAD SWAP2 SWAP1 SWAP3 AND DUP2 MSTORE DUP4 SWAP3 POP PUSH32 0xC87757BEABCC5D61E477F4FFAFB24461A0EB17E06D5BBF82354B4DF70F3580C3 SWAP2 ADD PUSH2 0x1775 JUMP JUMPDEST PUSH1 0x0 PUSH2 0x3005 DUP3 PUSH2 0x2950 JUMP JUMPDEST SWAP1 POP PUSH2 0x3010 DUP3 PUSH2 0x2950 JUMP JUMPDEST PUSH1 0x0 DUP4 DUP2 MSTORE PUSH1 0x69 PUSH1 0x20 SWAP1 DUP2 MSTORE PUSH1 0x40 DUP1 DUP4 KECCAK256 DUP1 SLOAD PUSH32 0xFFFFFFFFFFFFFFFFFFFFFFFF0000000000000000000000000000000000000000 SWAP1 DUP2 AND SWAP1 SWAP2 SSTORE PUSH20 0xFFFFFFFFFFFFFFFFFFFFFFFFFFFFFFFFFFFFFFFF DUP6 AND DUP1 DUP6 MSTORE PUSH1 0x68 DUP5 MSTORE DUP3 DUP6 KECCAK256 DUP1 SLOAD PUSH32 0xFFFFFFFFFFFFFFFFFFFFFFFFFFFFFFFFFFFFFFFFFFFFFFFFFFFFFFFFFFFFFFFF ADD SWAP1 SSTORE DUP8 DUP6 MSTORE PUSH1 0x67 SWAP1 SWAP4 MSTORE DUP2 DUP5 KECCAK256 DUP1 SLOAD SWAP1 SWAP2 AND SWAP1 SSTORE MLOAD SWAP3 SWAP4 POP DUP5 SWAP3 PUSH32 0xDDF252AD1BE2C89B69C2B068FC378DAA952BA7F163C4A11628F55A4DF523B3EF SWAP1 DUP4 SWAP1 LOG4 POP POP JUMP JUMPDEST PUSH1 0x0 PUSH2 0x30DF DUP6 DUP6 DUP6 PUSH2 0x10EF JUMP JUMPDEST PUSH2 0x3145 JUMPI PUSH1 0x40 MLOAD PUSH32 0x8C379A000000000000000000000000000000000000000000000000000000000 DUP2 MSTORE PUSH1 0x20 PUSH1 0x4 DUP3 ADD MSTORE PUSH1 0x12 PUSH1 0x24 DUP3 ADD MSTORE PUSH32 0x4E414D455F4E4F545F415641494C41424C450000000000000000000000000000 PUSH1 0x44 DUP3 ADD MSTORE PUSH1 0x64 ADD PUSH2 0xC68 JUMP JUMPDEST PUSH1 0x0 PUSH2 0x3152 DUP7 DUP7 DUP7 PUSH2 0x2068 JUMP JUMPDEST SWAP1 POP PUSH2 0x315E DUP4 DUP3 PUSH2 0x3BFE JUMP JUMPDEST PUSH2 0x18F PUSH1 0x0 DUP2 SLOAD PUSH2 0x316E SWAP1 PUSH2 0x507B JUMP JUMPDEST SWAP1 SWAP2 SSTORE POP PUSH1 0x0 DUP2 DUP2 MSTORE PUSH2 0x18E PUSH1 0x20 MSTORE PUSH1 0x40 SWAP1 DUP2 SWAP1 KECCAK256 DUP6 SWAP1 SSTORE MLOAD PUSH20 0xFFFFFFFFFFFFFFFFFFFFFFFFFFFFFFFFFFFFFFFF DUP5 AND SWAP1 DUP3 SWAP1 PUSH32 0xFE530E3B4B61411A7DD546ADC0E6736D4255ABEFC6B610401D26068E02DD495E SWAP1 PUSH2 0x31D2 SWAP1 DUP11 SWAP1 DUP11 SWAP1 DUP11 SWAP1 PUSH2 0x527C JUMP JUMPDEST PUSH1 0x40 MLOAD DUP1 SWAP2 SUB SWAP1 LOG3 SWAP6 SWAP5 POP POP POP POP POP JUMP JUMPDEST PUSH1 0x0 DUP2 DUP2 MSTORE PUSH1 0x67 PUSH1 0x20 MSTORE PUSH1 0x40 DUP2 KECCAK256 SLOAD PUSH20 0xFFFFFFFFFFFFFFFFFFFFFFFFFFFFFFFFFFFFFFFF AND PUSH2 0x326E JUMPI PUSH1 0x40 MLOAD PUSH32 0x8C379A000000000000000000000000000000000000000000000000000000000 DUP2 MSTORE PUSH1 0x20 PUSH1 0x4 DUP3 ADD MSTORE PUSH1 0x10 PUSH1 0x24 DUP3 ADD MSTORE PUSH32 0x544F4B454E5F4E4F545F4D494E54454400000000000000000000000000000000 PUSH1 0x44 DUP3 ADD MSTORE PUSH1 0x64 ADD PUSH2 0xC68 JUMP JUMPDEST CALLER PUSH2 0x328E PUSH1 0x97 SLOAD PUSH20 0xFFFFFFFFFFFFFFFFFFFFFFFFFFFFFFFFFFFFFFFF AND SWAP1 JUMP JUMPDEST PUSH20 0xFFFFFFFFFFFFFFFFFFFFFFFFFFFFFFFFFFFFFFFF AND EQ SWAP3 SWAP2 POP POP JUMP JUMPDEST DUP2 PUSH20 0xFFFFFFFFFFFFFFFFFFFFFFFFFFFFFFFFFFFFFFFF AND DUP4 PUSH20 0xFFFFFFFFFFFFFFFFFFFFFFFFFFFFFFFFFFFFFFFF AND SUB PUSH2 0x3340 JUMPI PUSH1 0x40 MLOAD PUSH32 0x8C379A000000000000000000000000000000000000000000000000000000000 DUP2 MSTORE PUSH1 0x20 PUSH1 0x4 DUP3 ADD MSTORE PUSH1 0x19 PUSH1 0x24 DUP3 ADD MSTORE PUSH32 0x4552433732313A20617070726F766520746F2063616C6C657200000000000000 PUSH1 0x44 DUP3 ADD MSTORE PUSH1 0x64 ADD PUSH2 0xC68 JUMP JUMPDEST PUSH20 0xFFFFFFFFFFFFFFFFFFFFFFFFFFFFFFFFFFFFFFFF DUP4 DUP2 AND PUSH1 0x0 DUP2 DUP2 MSTORE PUSH1 0x6A PUSH1 0x20 SWAP1 DUP2 MSTORE PUSH1 0x40 DUP1 DUP4 KECCAK256 SWAP5 DUP8 AND DUP1 DUP5 MSTORE SWAP5 DUP3 MSTORE SWAP2 DUP3 SWAP1 KECCAK256 DUP1 SLOAD PUSH32 0xFFFFFFFFFFFFFFFFFFFFFFFFFFFFFFFFFFFFFFFFFFFFFFFFFFFFFFFFFFFFFF00 AND DUP7 ISZERO ISZERO SWAP1 DUP2 OR SWAP1 SWAP2 SSTORE SWAP2 MLOAD SWAP2 DUP3 MSTORE PUSH32 0x17307EAB39AB6107E8899845AD3D59BD9653F200F220920489CA2B5937696C31 SWAP2 ADD PUSH1 0x40 MLOAD DUP1 SWAP2 SUB SWAP1 LOG3 POP POP POP JUMP JUMPDEST PUSH2 0x33E2 CALLER DUP4 PUSH2 0x2EAD JUMP JUMPDEST PUSH2 0x346E JUMPI PUSH1 0x40 MLOAD PUSH32 0x8C379A000000000000000000000000000000000000000000000000000000000 DUP2 MSTORE PUSH1 0x20 PUSH1 0x4 DUP3 ADD MSTORE PUSH1 0x2D PUSH1 0x24 DUP3 ADD MSTORE PUSH32 0x4552433732313A2063616C6C6572206973206E6F7420746F6B656E206F776E65 PUSH1 0x44 DUP3 ADD MSTORE PUSH32 0x72206F7220617070726F76656400000000000000000000000000000000000000 PUSH1 0x64 DUP3 ADD MSTORE PUSH1 0x84 ADD PUSH2 0xC68 JUMP JUMPDEST PUSH2 0x1F0D DUP5 DUP5 DUP5 DUP5 PUSH2 0x3C18 JUMP JUMPDEST PUSH1 0x40 DUP1 MLOAD PUSH1 0x80 DUP2 ADD SWAP2 DUP3 SWAP1 MSTORE PUSH1 0x7F ADD SWAP1 DUP3 PUSH1 0x30 PUSH1 0xA DUP3 MOD ADD DUP4 MSTORE8 PUSH1 0xA SWAP1 DIV JUMPDEST DUP1 ISZERO PUSH2 0x34B7 JUMPI PUSH1 0x1 DUP4 SUB SWAP3 POP PUSH1 0xA DUP2 MOD PUSH1 0x30 ADD DUP4 MSTORE8 PUSH1 0xA SWAP1 DIV PUSH2 0x3499 JUMP JUMPDEST POP DUP2 SWAP1 SUB PUSH32 0xFFFFFFFFFFFFFFFFFFFFFFFFFFFFFFFFFFFFFFFFFFFFFFFFFFFFFFFFFFFFFFE0 SWAP1 SWAP2 ADD SWAP1 DUP2 MSTORE SWAP2 SWAP1 POP JUMP JUMPDEST PUSH1 0x0 SLOAD PUSH2 0x100 SWAP1 DIV PUSH1 0xFF AND PUSH2 0x357E JUMPI PUSH1 0x40 MLOAD PUSH32 0x8C379A000000000000000000000000000000000000000000000000000000000 DUP2 MSTORE PUSH1 0x20 PUSH1 0x4 DUP3 ADD MSTORE PUSH1 0x2B PUSH1 0x24 DUP3 ADD MSTORE PUSH32 0x496E697469616C697A61626C653A20636F6E7472616374206973206E6F742069 PUSH1 0x44 DUP3 ADD MSTORE PUSH32 0x6E697469616C697A696E67000000000000000000000000000000000000000000 PUSH1 0x64 DUP3 ADD MSTORE PUSH1 0x84 ADD PUSH2 0xC68 JUMP JUMPDEST PUSH1 0x65 PUSH2 0x358A DUP4 DUP3 PUSH2 0x4F0D JUMP JUMPDEST POP PUSH1 0x66 PUSH2 0x100E DUP3 DUP3 PUSH2 0x4F0D JUMP JUMPDEST PUSH1 0x0 SLOAD PUSH2 0x100 SWAP1 DIV PUSH1 0xFF AND PUSH2 0x362E JUMPI PUSH1 0x40 MLOAD PUSH32 0x8C379A000000000000000000000000000000000000000000000000000000000 DUP2 MSTORE PUSH1 0x20 PUSH1 0x4 DUP3 ADD MSTORE PUSH1 0x2B PUSH1 0x24 DUP3 ADD MSTORE PUSH32 0x496E697469616C697A61626C653A20636F6E7472616374206973206E6F742069 PUSH1 0x44 DUP3 ADD MSTORE PUSH32 0x6E697469616C697A696E67000000000000000000000000000000000000000000 PUSH1 0x64 DUP3 ADD MSTORE PUSH1 0x84 ADD PUSH2 0xC68 JUMP JUMPDEST PUSH2 0x15FD CALLER PUSH2 0x27B5 JUMP JUMPDEST PUSH1 0x0 SLOAD PUSH2 0x100 SWAP1 DIV PUSH1 0xFF AND PUSH2 0x36CE JUMPI PUSH1 0x40 MLOAD PUSH32 0x8C379A000000000000000000000000000000000000000000000000000000000 DUP2 MSTORE PUSH1 0x20 PUSH1 0x4 DUP3 ADD MSTORE PUSH1 0x2B PUSH1 0x24 DUP3 ADD MSTORE PUSH32 0x496E697469616C697A61626C653A20636F6E7472616374206973206E6F742069 PUSH1 0x44 DUP3 ADD MSTORE PUSH32 0x6E697469616C697A696E67000000000000000000000000000000000000000000 PUSH1 0x64 DUP3 ADD MSTORE PUSH1 0x84 ADD PUSH2 0xC68 JUMP JUMPDEST PUSH2 0x12D DUP1 SLOAD PUSH32 0xFFFFFFFFFFFFFFFFFFFFFFFFFFFFFFFFFFFFFFFFFFFFFFFFFFFFFFFFFFFFFF00 AND SWAP1 SSTORE JUMP JUMPDEST PUSH2 0x12D SLOAD PUSH1 0xFF AND ISZERO PUSH2 0x15FD JUMPI PUSH1 0x40 MLOAD PUSH32 0x8C379A000000000000000000000000000000000000000000000000000000000 DUP2 MSTORE PUSH1 0x20 PUSH1 0x4 DUP3 ADD MSTORE PUSH1 0x10 PUSH1 0x24 DUP3 ADD MSTORE PUSH32 0x5061757361626C653A2070617573656400000000000000000000000000000000 PUSH1 0x44 DUP3 ADD MSTORE PUSH1 0x64 ADD PUSH2 0xC68 JUMP JUMPDEST DUP3 PUSH20 0xFFFFFFFFFFFFFFFFFFFFFFFFFFFFFFFFFFFFFFFF AND PUSH2 0x3787 DUP3 PUSH2 0x2950 JUMP JUMPDEST PUSH20 0xFFFFFFFFFFFFFFFFFFFFFFFFFFFFFFFFFFFFFFFF AND EQ PUSH2 0x382A JUMPI PUSH1 0x40 MLOAD PUSH32 0x8C379A000000000000000000000000000000000000000000000000000000000 DUP2 MSTORE PUSH1 0x20 PUSH1 0x4 DUP3 ADD MSTORE PUSH1 0x25 PUSH1 0x24 DUP3 ADD MSTORE PUSH32 0x4552433732313A207472616E736665722066726F6D20696E636F727265637420 PUSH1 0x44 DUP3 ADD MSTORE PUSH32 0x6F776E6572000000000000000000000000000000000000000000000000000000 PUSH1 0x64 DUP3 ADD MSTORE PUSH1 0x84 ADD PUSH2 0xC68 JUMP JUMPDEST PUSH20 0xFFFFFFFFFFFFFFFFFFFFFFFFFFFFFFFFFFFFFFFF DUP3 AND PUSH2 0x38CC JUMPI PUSH1 0x40 MLOAD PUSH32 0x8C379A000000000000000000000000000000000000000000000000000000000 DUP2 MSTORE PUSH1 0x20 PUSH1 0x4 DUP3 ADD MSTORE PUSH1 0x24 DUP1 DUP3 ADD MSTORE PUSH32 0x4552433732313A207472616E7366657220746F20746865207A65726F20616464 PUSH1 0x44 DUP3 ADD MSTORE PUSH32 0x7265737300000000000000000000000000000000000000000000000000000000 PUSH1 0x64 DUP3 ADD MSTORE PUSH1 0x84 ADD PUSH2 0xC68 JUMP JUMPDEST DUP3 PUSH20 0xFFFFFFFFFFFFFFFFFFFFFFFFFFFFFFFFFFFFFFFF AND PUSH2 0x38EC DUP3 PUSH2 0x2950 JUMP JUMPDEST PUSH20 0xFFFFFFFFFFFFFFFFFFFFFFFFFFFFFFFFFFFFFFFF AND EQ PUSH2 0x398F JUMPI PUSH1 0x40 MLOAD PUSH32 0x8C379A000000000000000000000000000000000000000000000000000000000 DUP2 MSTORE PUSH1 0x20 PUSH1 0x4 DUP3 ADD MSTORE PUSH1 0x25 PUSH1 0x24 DUP3 ADD MSTORE PUSH32 0x4552433732313A207472616E736665722066726F6D20696E636F727265637420 PUSH1 0x44 DUP3 ADD MSTORE PUSH32 0x6F776E6572000000000000000000000000000000000000000000000000000000 PUSH1 0x64 DUP3 ADD MSTORE PUSH1 0x84 ADD PUSH2 0xC68 JUMP JUMPDEST PUSH1 0x0 DUP2 DUP2 MSTORE PUSH1 0x69 PUSH1 0x20 SWAP1 DUP2 MSTORE PUSH1 0x40 DUP1 DUP4 KECCAK256 DUP1 SLOAD PUSH32 0xFFFFFFFFFFFFFFFFFFFFFFFF0000000000000000000000000000000000000000 SWAP1 DUP2 AND SWAP1 SWAP2 SSTORE PUSH20 0xFFFFFFFFFFFFFFFFFFFFFFFFFFFFFFFFFFFFFFFF DUP8 DUP2 AND DUP1 DUP7 MSTORE PUSH1 0x68 DUP6 MSTORE DUP4 DUP7 KECCAK256 DUP1 SLOAD PUSH32 0xFFFFFFFFFFFFFFFFFFFFFFFFFFFFFFFFFFFFFFFFFFFFFFFFFFFFFFFFFFFFFFFF ADD SWAP1 SSTORE SWAP1 DUP8 AND DUP1 DUP7 MSTORE DUP4 DUP7 KECCAK256 DUP1 SLOAD PUSH1 0x1 ADD SWAP1 SSTORE DUP7 DUP7 MSTORE PUSH1 0x67 SWAP1 SWAP5 MSTORE DUP3 DUP6 KECCAK256 DUP1 SLOAD SWAP1 SWAP3 AND DUP5 OR SWAP1 SWAP2 SSTORE SWAP1 MLOAD DUP5 SWAP4 PUSH32 0xDDF252AD1BE2C89B69C2B068FC378DAA952BA7F163C4A11628F55A4DF523B3EF SWAP2 LOG4 POP POP POP JUMP JUMPDEST PUSH20 0xFFFFFFFFFFFFFFFFFFFFFFFFFFFFFFFFFFFFFFFF DUP2 AND EXTCODESIZE PUSH2 0x3B06 JUMPI PUSH1 0x40 MLOAD PUSH32 0x8C379A000000000000000000000000000000000000000000000000000000000 DUP2 MSTORE PUSH1 0x20 PUSH1 0x4 DUP3 ADD MSTORE PUSH1 0x2D PUSH1 0x24 DUP3 ADD MSTORE PUSH32 0x455243313936373A206E657720696D706C656D656E746174696F6E206973206E PUSH1 0x44 DUP3 ADD MSTORE PUSH32 0x6F74206120636F6E747261637400000000000000000000000000000000000000 PUSH1 0x64 DUP3 ADD MSTORE PUSH1 0x84 ADD PUSH2 0xC68 JUMP JUMPDEST PUSH32 0x360894A13BA1A3210667C828492DB98DCA3E2076CC3735A920A3CA505D382BBC DUP1 SLOAD PUSH32 0xFFFFFFFFFFFFFFFFFFFFFFFF0000000000000000000000000000000000000000 AND PUSH20 0xFFFFFFFFFFFFFFFFFFFFFFFFFFFFFFFFFFFFFFFF SWAP3 SWAP1 SWAP3 AND SWAP2 SWAP1 SWAP2 OR SWAP1 SSTORE JUMP JUMPDEST PUSH2 0x3B75 DUP4 PUSH2 0x3CBB JUMP JUMPDEST PUSH1 0x0 DUP3 MLOAD GT DUP1 PUSH2 0x3B82 JUMPI POP DUP1 JUMPDEST ISZERO PUSH2 0x100E JUMPI PUSH2 0x1F0D DUP4 DUP4 PUSH2 0x3D08 JUMP JUMPDEST PUSH2 0x12D SLOAD PUSH1 0xFF AND PUSH2 0x15FD JUMPI PUSH1 0x40 MLOAD PUSH32 0x8C379A000000000000000000000000000000000000000000000000000000000 DUP2 MSTORE PUSH1 0x20 PUSH1 0x4 DUP3 ADD MSTORE PUSH1 0x14 PUSH1 0x24 DUP3 ADD MSTORE PUSH32 0x5061757361626C653A206E6F7420706175736564000000000000000000000000 PUSH1 0x44 DUP3 ADD MSTORE PUSH1 0x64 ADD PUSH2 0xC68 JUMP JUMPDEST PUSH2 0xE4F DUP3 DUP3 PUSH1 0x40 MLOAD DUP1 PUSH1 0x20 ADD PUSH1 0x40 MSTORE DUP1 PUSH1 0x0 DUP2 MSTORE POP PUSH2 0x3D2D JUMP JUMPDEST PUSH2 0x3C23 DUP5 DUP5 DUP5 PUSH2 0x3767 JUMP JUMPDEST PUSH2 0x3C2F DUP5 DUP5 DUP5 DUP5 PUSH2 0x3DD0 JUMP JUMPDEST PUSH2 0x1F0D JUMPI PUSH1 0x40 MLOAD PUSH32 0x8C379A000000000000000000000000000000000000000000000000000000000 DUP2 MSTORE PUSH1 0x20 PUSH1 0x4 DUP3 ADD MSTORE PUSH1 0x32 PUSH1 0x24 DUP3 ADD MSTORE PUSH32 0x4552433732313A207472616E7366657220746F206E6F6E204552433732315265 PUSH1 0x44 DUP3 ADD MSTORE PUSH32 0x63656976657220696D706C656D656E7465720000000000000000000000000000 PUSH1 0x64 DUP3 ADD MSTORE PUSH1 0x84 ADD PUSH2 0xC68 JUMP JUMPDEST PUSH2 0x3CC4 DUP2 PUSH2 0x3A62 JUMP JUMPDEST PUSH1 0x40 MLOAD PUSH20 0xFFFFFFFFFFFFFFFFFFFFFFFFFFFFFFFFFFFFFFFF DUP3 AND SWAP1 PUSH32 0xBC7CD75A20EE27FD9ADEBAB32041F755214DBC6BFFA90CC0225B39DA2E5C2D3B SWAP1 PUSH1 0x0 SWAP1 LOG2 POP JUMP JUMPDEST PUSH1 0x60 PUSH2 0x127C DUP4 DUP4 PUSH1 0x40 MLOAD DUP1 PUSH1 0x60 ADD PUSH1 0x40 MSTORE DUP1 PUSH1 0x27 DUP2 MSTORE PUSH1 0x20 ADD PUSH2 0x52FD PUSH1 0x27 SWAP2 CODECOPY PUSH2 0x3FC0 JUMP JUMPDEST PUSH2 0x3D37 DUP4 DUP4 PUSH2 0x4045 JUMP JUMPDEST PUSH2 0x3D44 PUSH1 0x0 DUP5 DUP5 DUP5 PUSH2 0x3DD0 JUMP JUMPDEST PUSH2 0x100E JUMPI PUSH1 0x40 MLOAD PUSH32 0x8C379A000000000000000000000000000000000000000000000000000000000 DUP2 MSTORE PUSH1 0x20 PUSH1 0x4 DUP3 ADD MSTORE PUSH1 0x32 PUSH1 0x24 DUP3 ADD MSTORE PUSH32 0x4552433732313A207472616E7366657220746F206E6F6E204552433732315265 PUSH1 0x44 DUP3 ADD MSTORE PUSH32 0x63656976657220696D706C656D656E7465720000000000000000000000000000 PUSH1 0x64 DUP3 ADD MSTORE PUSH1 0x84 ADD PUSH2 0xC68 JUMP JUMPDEST PUSH1 0x0 PUSH20 0xFFFFFFFFFFFFFFFFFFFFFFFFFFFFFFFFFFFFFFFF DUP5 AND EXTCODESIZE ISZERO PUSH2 0x3FB8 JUMPI PUSH1 0x40 MLOAD PUSH32 0x150B7A0200000000000000000000000000000000000000000000000000000000 DUP2 MSTORE PUSH20 0xFFFFFFFFFFFFFFFFFFFFFFFFFFFFFFFFFFFFFFFF DUP6 AND SWAP1 PUSH4 0x150B7A02 SWAP1 PUSH2 0x3E47 SWAP1 CALLER SWAP1 DUP10 SWAP1 DUP9 SWAP1 DUP9 SWAP1 PUSH1 0x4 ADD PUSH2 0x52A0 JUMP JUMPDEST PUSH1 0x20 PUSH1 0x40 MLOAD DUP1 DUP4 SUB DUP2 PUSH1 0x0 DUP8 GAS CALL SWAP3 POP POP POP DUP1 ISZERO PUSH2 0x3EA0 JUMPI POP PUSH1 0x40 DUP1 MLOAD PUSH1 0x1F RETURNDATASIZE SWAP1 DUP2 ADD PUSH32 0xFFFFFFFFFFFFFFFFFFFFFFFFFFFFFFFFFFFFFFFFFFFFFFFFFFFFFFFFFFFFFFE0 AND DUP3 ADD SWAP1 SWAP3 MSTORE PUSH2 0x3E9D SWAP2 DUP2 ADD SWAP1 PUSH2 0x52DF JUMP JUMPDEST PUSH1 0x1 JUMPDEST PUSH2 0x3F6D JUMPI RETURNDATASIZE DUP1 DUP1 ISZERO PUSH2 0x3ECE JUMPI PUSH1 0x40 MLOAD SWAP2 POP PUSH1 0x1F NOT PUSH1 0x3F RETURNDATASIZE ADD AND DUP3 ADD PUSH1 0x40 MSTORE RETURNDATASIZE DUP3 MSTORE RETURNDATASIZE PUSH1 0x0 PUSH1 0x20 DUP5 ADD RETURNDATACOPY PUSH2 0x3ED3 JUMP JUMPDEST PUSH1 0x60 SWAP2 POP JUMPDEST POP DUP1 MLOAD PUSH1 0x0 SUB PUSH2 0x3F65 JUMPI PUSH1 0x40 MLOAD PUSH32 0x8C379A000000000000000000000000000000000000000000000000000000000 DUP2 MSTORE PUSH1 0x20 PUSH1 0x4 DUP3 ADD MSTORE PUSH1 0x32 PUSH1 0x24 DUP3 ADD MSTORE PUSH32 0x4552433732313A207472616E7366657220746F206E6F6E204552433732315265 PUSH1 0x44 DUP3 ADD MSTORE PUSH32 0x63656976657220696D706C656D656E7465720000000000000000000000000000 PUSH1 0x64 DUP3 ADD MSTORE PUSH1 0x84 ADD PUSH2 0xC68 JUMP JUMPDEST DUP1 MLOAD DUP2 PUSH1 0x20 ADD REVERT JUMPDEST PUSH32 0xFFFFFFFF00000000000000000000000000000000000000000000000000000000 AND PUSH32 0x150B7A0200000000000000000000000000000000000000000000000000000000 EQ SWAP1 POP PUSH2 0x2F65 JUMP JUMPDEST POP PUSH1 0x1 PUSH2 0x2F65 JUMP JUMPDEST PUSH1 0x60 PUSH1 0x0 DUP1 DUP6 PUSH20 0xFFFFFFFFFFFFFFFFFFFFFFFFFFFFFFFFFFFFFFFF AND DUP6 PUSH1 0x40 MLOAD PUSH2 0x3FEA SWAP2 SWAP1 PUSH2 0x4C85 JUMP JUMPDEST PUSH1 0x0 PUSH1 0x40 MLOAD DUP1 DUP4 SUB DUP2 DUP6 GAS DELEGATECALL SWAP2 POP POP RETURNDATASIZE DUP1 PUSH1 0x0 DUP2 EQ PUSH2 0x4025 JUMPI PUSH1 0x40 MLOAD SWAP2 POP PUSH1 0x1F NOT PUSH1 0x3F RETURNDATASIZE ADD AND DUP3 ADD PUSH1 0x40 MSTORE RETURNDATASIZE DUP3 MSTORE RETURNDATASIZE PUSH1 0x0 PUSH1 0x20 DUP5 ADD RETURNDATACOPY PUSH2 0x402A JUMP JUMPDEST PUSH1 0x60 SWAP2 POP JUMPDEST POP SWAP2 POP SWAP2 POP PUSH2 0x403B DUP7 DUP4 DUP4 DUP8 PUSH2 0x426A JUMP JUMPDEST SWAP7 SWAP6 POP POP POP POP POP POP JUMP JUMPDEST PUSH20 0xFFFFFFFFFFFFFFFFFFFFFFFFFFFFFFFFFFFFFFFF DUP3 AND PUSH2 0x40C2 JUMPI PUSH1 0x40 MLOAD PUSH32 0x8C379A000000000000000000000000000000000000000000000000000000000 DUP2 MSTORE PUSH1 0x20 PUSH1 0x4 DUP3 ADD DUP2 SWAP1 MSTORE PUSH1 0x24 DUP3 ADD MSTORE PUSH32 0x4552433732313A206D696E7420746F20746865207A65726F2061646472657373 PUSH1 0x44 DUP3 ADD MSTORE PUSH1 0x64 ADD PUSH2 0xC68 JUMP JUMPDEST PUSH1 0x0 DUP2 DUP2 MSTORE PUSH1 0x67 PUSH1 0x20 MSTORE PUSH1 0x40 SWAP1 KECCAK256 SLOAD PUSH20 0xFFFFFFFFFFFFFFFFFFFFFFFFFFFFFFFFFFFFFFFF AND ISZERO PUSH2 0x414E JUMPI PUSH1 0x40 MLOAD PUSH32 0x8C379A000000000000000000000000000000000000000000000000000000000 DUP2 MSTORE PUSH1 0x20 PUSH1 0x4 DUP3 ADD MSTORE PUSH1 0x1C PUSH1 0x24 DUP3 ADD MSTORE PUSH32 0x4552433732313A20746F6B656E20616C7265616479206D696E74656400000000 PUSH1 0x44 DUP3 ADD MSTORE PUSH1 0x64 ADD PUSH2 0xC68 JUMP JUMPDEST PUSH1 0x0 DUP2 DUP2 MSTORE PUSH1 0x67 PUSH1 0x20 MSTORE PUSH1 0x40 SWAP1 KECCAK256 SLOAD PUSH20 0xFFFFFFFFFFFFFFFFFFFFFFFFFFFFFFFFFFFFFFFF AND ISZERO PUSH2 0x41DA JUMPI PUSH1 0x40 MLOAD PUSH32 0x8C379A000000000000000000000000000000000000000000000000000000000 DUP2 MSTORE PUSH1 0x20 PUSH1 0x4 DUP3 ADD MSTORE PUSH1 0x1C PUSH1 0x24 DUP3 ADD MSTORE PUSH32 0x4552433732313A20746F6B656E20616C7265616479206D696E74656400000000 PUSH1 0x44 DUP3 ADD MSTORE PUSH1 0x64 ADD PUSH2 0xC68 JUMP JUMPDEST PUSH20 0xFFFFFFFFFFFFFFFFFFFFFFFFFFFFFFFFFFFFFFFF DUP3 AND PUSH1 0x0 DUP2 DUP2 MSTORE PUSH1 0x68 PUSH1 0x20 SWAP1 DUP2 MSTORE PUSH1 0x40 DUP1 DUP4 KECCAK256 DUP1 SLOAD PUSH1 0x1 ADD SWAP1 SSTORE DUP5 DUP4 MSTORE PUSH1 0x67 SWAP1 SWAP2 MSTORE DUP1 DUP3 KECCAK256 DUP1 SLOAD PUSH32 0xFFFFFFFFFFFFFFFFFFFFFFFF0000000000000000000000000000000000000000 AND DUP5 OR SWAP1 SSTORE MLOAD DUP4 SWAP3 SWAP2 SWAP1 PUSH32 0xDDF252AD1BE2C89B69C2B068FC378DAA952BA7F163C4A11628F55A4DF523B3EF SWAP1 DUP3 SWAP1 LOG4 POP POP JUMP JUMPDEST PUSH1 0x60 DUP4 ISZERO PUSH2 0x4300 JUMPI DUP3 MLOAD PUSH1 0x0 SUB PUSH2 0x42F9 JUMPI PUSH20 0xFFFFFFFFFFFFFFFFFFFFFFFFFFFFFFFFFFFFFFFF DUP6 AND EXTCODESIZE PUSH2 0x42F9 JUMPI PUSH1 0x40 MLOAD PUSH32 0x8C379A000000000000000000000000000000000000000000000000000000000 DUP2 MSTORE PUSH1 0x20 PUSH1 0x4 DUP3 ADD MSTORE PUSH1 0x1D PUSH1 0x24 DUP3 ADD MSTORE PUSH32 0x416464726573733A2063616C6C20746F206E6F6E2D636F6E7472616374000000 PUSH1 0x44 DUP3 ADD MSTORE PUSH1 0x64 ADD PUSH2 0xC68 JUMP JUMPDEST POP DUP2 PUSH2 0x2F65 JUMP JUMPDEST PUSH2 0x2F65 DUP4 DUP4 DUP2 MLOAD ISZERO PUSH2 0x4315 JUMPI DUP2 MLOAD DUP1 DUP4 PUSH1 0x20 ADD REVERT JUMPDEST DUP1 PUSH1 0x40 MLOAD PUSH32 0x8C379A000000000000000000000000000000000000000000000000000000000 DUP2 MSTORE PUSH1 0x4 ADD PUSH2 0xC68 SWAP2 SWAP1 PUSH2 0x4402 JUMP JUMPDEST PUSH32 0xFFFFFFFF00000000000000000000000000000000000000000000000000000000 DUP2 AND DUP2 EQ PUSH2 0x15EA JUMPI PUSH1 0x0 DUP1 REVERT JUMPDEST PUSH1 0x0 PUSH1 0x20 DUP3 DUP5 SUB SLT ISZERO PUSH2 0x4389 JUMPI PUSH1 0x0 DUP1 REVERT JUMPDEST DUP2 CALLDATALOAD PUSH2 0x127C DUP2 PUSH2 0x4349 JUMP JUMPDEST PUSH1 0x0 JUMPDEST DUP4 DUP2 LT ISZERO PUSH2 0x43AF JUMPI DUP2 DUP2 ADD MLOAD DUP4 DUP3 ADD MSTORE PUSH1 0x20 ADD PUSH2 0x4397 JUMP JUMPDEST POP POP PUSH1 0x0 SWAP2 ADD MSTORE JUMP JUMPDEST PUSH1 0x0 DUP2 MLOAD DUP1 DUP5 MSTORE PUSH2 0x43D0 DUP2 PUSH1 0x20 DUP7 ADD PUSH1 0x20 DUP7 ADD PUSH2 0x4394 JUMP JUMPDEST PUSH1 0x1F ADD PUSH32 0xFFFFFFFFFFFFFFFFFFFFFFFFFFFFFFFFFFFFFFFFFFFFFFFFFFFFFFFFFFFFFFE0 AND SWAP3 SWAP1 SWAP3 ADD PUSH1 0x20 ADD SWAP3 SWAP2 POP POP JUMP JUMPDEST PUSH1 0x20 DUP2 MSTORE PUSH1 0x0 PUSH2 0x127C PUSH1 0x20 DUP4 ADD DUP5 PUSH2 0x43B8 JUMP JUMPDEST PUSH32 0x4E487B7100000000000000000000000000000000000000000000000000000000 PUSH1 0x0 MSTORE PUSH1 0x41 PUSH1 0x4 MSTORE PUSH1 0x24 PUSH1 0x0 REVERT JUMPDEST PUSH1 0x40 MLOAD PUSH1 0x1F DUP3 ADD PUSH32 0xFFFFFFFFFFFFFFFFFFFFFFFFFFFFFFFFFFFFFFFFFFFFFFFFFFFFFFFFFFFFFFE0 AND DUP2 ADD PUSH8 0xFFFFFFFFFFFFFFFF DUP2 GT DUP3 DUP3 LT OR ISZERO PUSH2 0x448B JUMPI PUSH2 0x448B PUSH2 0x4415 JUMP JUMPDEST PUSH1 0x40 MSTORE SWAP2 SWAP1 POP JUMP JUMPDEST PUSH1 0x0 DUP3 PUSH1 0x1F DUP4 ADD SLT PUSH2 0x44A4 JUMPI PUSH1 0x0 DUP1 REVERT JUMPDEST DUP2 CALLDATALOAD PUSH8 0xFFFFFFFFFFFFFFFF DUP2 GT ISZERO PUSH2 0x44BE JUMPI PUSH2 0x44BE PUSH2 0x4415 JUMP JUMPDEST PUSH2 0x44EF PUSH1 0x20 PUSH32 0xFFFFFFFFFFFFFFFFFFFFFFFFFFFFFFFFFFFFFFFFFFFFFFFFFFFFFFFFFFFFFFE0 PUSH1 0x1F DUP5 ADD AND ADD PUSH2 0x4444 JUMP JUMPDEST DUP2 DUP2 MSTORE DUP5 PUSH1 0x20 DUP4 DUP7 ADD ADD GT ISZERO PUSH2 0x4504 JUMPI PUSH1 0x0 DUP1 REVERT JUMPDEST DUP2 PUSH1 0x20 DUP6 ADD PUSH1 0x20 DUP4 ADD CALLDATACOPY PUSH1 0x0 SWAP2 DUP2 ADD PUSH1 0x20 ADD SWAP2 SWAP1 SWAP2 MSTORE SWAP4 SWAP3 POP POP POP JUMP JUMPDEST PUSH1 0x0 DUP1 PUSH1 0x40 DUP4 DUP6 SUB SLT ISZERO PUSH2 0x4534 JUMPI PUSH1 0x0 DUP1 REVERT JUMPDEST DUP3 CALLDATALOAD SWAP2 POP PUSH1 0x20 DUP4 ADD CALLDATALOAD PUSH8 0xFFFFFFFFFFFFFFFF DUP2 GT ISZERO PUSH2 0x4552 JUMPI PUSH1 0x0 DUP1 REVERT JUMPDEST PUSH2 0x455E DUP6 DUP3 DUP7 ADD PUSH2 0x4493 JUMP JUMPDEST SWAP2 POP POP SWAP3 POP SWAP3 SWAP1 POP JUMP JUMPDEST PUSH1 0x0 DUP1 DUP4 PUSH1 0x1F DUP5 ADD SLT PUSH2 0x457A JUMPI PUSH1 0x0 DUP1 REVERT JUMPDEST POP DUP2 CALLDATALOAD PUSH8 0xFFFFFFFFFFFFFFFF DUP2 GT ISZERO PUSH2 0x4592 JUMPI PUSH1 0x0 DUP1 REVERT JUMPDEST PUSH1 0x20 DUP4 ADD SWAP2 POP DUP4 PUSH1 0x20 DUP3 DUP6 ADD ADD GT ISZERO PUSH2 0x45AA JUMPI PUSH1 0x0 DUP1 REVERT JUMPDEST SWAP3 POP SWAP3 SWAP1 POP JUMP JUMPDEST DUP1 CALLDATALOAD PUSH20 0xFFFFFFFFFFFFFFFFFFFFFFFFFFFFFFFFFFFFFFFF DUP2 AND DUP2 EQ PUSH2 0x45D5 JUMPI PUSH1 0x0 DUP1 REVERT JUMPDEST SWAP2 SWAP1 POP JUMP JUMPDEST PUSH1 0x0 DUP1 PUSH1 0x0 DUP1 PUSH1 0x0 PUSH1 0x60 DUP7 DUP9 SUB SLT ISZERO PUSH2 0x45F2 JUMPI PUSH1 0x0 DUP1 REVERT JUMPDEST DUP6 CALLDATALOAD PUSH8 0xFFFFFFFFFFFFFFFF DUP1 DUP3 GT ISZERO PUSH2 0x460A JUMPI PUSH1 0x0 DUP1 REVERT JUMPDEST PUSH2 0x4616 DUP10 DUP4 DUP11 ADD PUSH2 0x4568 JUMP JUMPDEST SWAP1 SWAP8 POP SWAP6 POP PUSH1 0x20 DUP9 ADD CALLDATALOAD SWAP2 POP DUP1 DUP3 GT ISZERO PUSH2 0x462F JUMPI PUSH1 0x0 DUP1 REVERT JUMPDEST POP PUSH2 0x463C DUP9 DUP3 DUP10 ADD PUSH2 0x4568 JUMP JUMPDEST SWAP1 SWAP5 POP SWAP3 POP PUSH2 0x464F SWAP1 POP PUSH1 0x40 DUP8 ADD PUSH2 0x45B1 JUMP JUMPDEST SWAP1 POP SWAP3 SWAP6 POP SWAP3 SWAP6 SWAP1 SWAP4 POP JUMP JUMPDEST PUSH1 0x0 PUSH1 0x20 DUP3 DUP5 SUB SLT ISZERO PUSH2 0x466D JUMPI PUSH1 0x0 DUP1 REVERT JUMPDEST POP CALLDATALOAD SWAP2 SWAP1 POP JUMP JUMPDEST PUSH1 0x0 DUP1 PUSH1 0x40 DUP4 DUP6 SUB SLT ISZERO PUSH2 0x4687 JUMPI PUSH1 0x0 DUP1 REVERT JUMPDEST PUSH2 0x4690 DUP4 PUSH2 0x45B1 JUMP JUMPDEST SWAP5 PUSH1 0x20 SWAP4 SWAP1 SWAP4 ADD CALLDATALOAD SWAP4 POP POP POP JUMP JUMPDEST PUSH1 0x0 DUP1 PUSH1 0x0 PUSH1 0x40 DUP5 DUP7 SUB SLT ISZERO PUSH2 0x46B3 JUMPI PUSH1 0x0 DUP1 REVERT JUMPDEST DUP4 CALLDATALOAD SWAP3 POP PUSH1 0x20 DUP5 ADD CALLDATALOAD PUSH8 0xFFFFFFFFFFFFFFFF DUP2 GT ISZERO PUSH2 0x46D1 JUMPI PUSH1 0x0 DUP1 REVERT JUMPDEST PUSH2 0x46DD DUP7 DUP3 DUP8 ADD PUSH2 0x4568 JUMP JUMPDEST SWAP5 SWAP8 SWAP1 SWAP7 POP SWAP4 SWAP5 POP POP POP POP JUMP JUMPDEST PUSH1 0x0 DUP1 PUSH1 0x0 PUSH1 0x60 DUP5 DUP7 SUB SLT ISZERO PUSH2 0x46FF JUMPI PUSH1 0x0 DUP1 REVERT JUMPDEST PUSH2 0x4708 DUP5 PUSH2 0x45B1 JUMP JUMPDEST SWAP3 POP PUSH2 0x4716 PUSH1 0x20 DUP6 ADD PUSH2 0x45B1 JUMP JUMPDEST SWAP2 POP PUSH1 0x40 DUP5 ADD CALLDATALOAD SWAP1 POP SWAP3 POP SWAP3 POP SWAP3 JUMP JUMPDEST PUSH1 0x0 DUP1 PUSH1 0x0 PUSH1 0x40 DUP5 DUP7 SUB SLT ISZERO PUSH2 0x473B JUMPI PUSH1 0x0 DUP1 REVERT JUMPDEST DUP4 CALLDATALOAD PUSH8 0xFFFFFFFFFFFFFFFF DUP2 GT ISZERO PUSH2 0x4752 JUMPI PUSH1 0x0 DUP1 REVERT JUMPDEST PUSH2 0x475E DUP7 DUP3 DUP8 ADD PUSH2 0x4568 JUMP JUMPDEST SWAP1 SWAP8 SWAP1 SWAP7 POP PUSH1 0x20 SWAP6 SWAP1 SWAP6 ADD CALLDATALOAD SWAP5 SWAP4 POP POP POP POP JUMP JUMPDEST PUSH1 0x0 DUP1 PUSH1 0x0 PUSH1 0x40 DUP5 DUP7 SUB SLT ISZERO PUSH2 0x4787 JUMPI PUSH1 0x0 DUP1 REVERT JUMPDEST DUP4 CALLDATALOAD SWAP3 POP PUSH1 0x20 DUP5 ADD CALLDATALOAD PUSH8 0xFFFFFFFFFFFFFFFF DUP1 DUP3 GT ISZERO PUSH2 0x47A6 JUMPI PUSH1 0x0 DUP1 REVERT JUMPDEST DUP2 DUP7 ADD SWAP2 POP DUP7 PUSH1 0x1F DUP4 ADD SLT PUSH2 0x47BA JUMPI PUSH1 0x0 DUP1 REVERT JUMPDEST DUP2 CALLDATALOAD DUP2 DUP2 GT ISZERO PUSH2 0x47C9 JUMPI PUSH1 0x0 DUP1 REVERT JUMPDEST DUP8 PUSH1 0x20 DUP3 PUSH1 0x5 SHL DUP6 ADD ADD GT ISZERO PUSH2 0x47DE JUMPI PUSH1 0x0 DUP1 REVERT JUMPDEST PUSH1 0x20 DUP4 ADD SWAP5 POP DUP1 SWAP4 POP POP POP POP SWAP3 POP SWAP3 POP SWAP3 JUMP JUMPDEST PUSH1 0x0 PUSH1 0x20 DUP3 DUP5 SUB SLT ISZERO PUSH2 0x4803 JUMPI PUSH1 0x0 DUP1 REVERT JUMPDEST PUSH2 0x127C DUP3 PUSH2 0x45B1 JUMP JUMPDEST PUSH1 0x0 DUP1 PUSH1 0x40 DUP4 DUP6 SUB SLT ISZERO PUSH2 0x481F JUMPI PUSH1 0x0 DUP1 REVERT JUMPDEST PUSH2 0x4828 DUP4 PUSH2 0x45B1 JUMP JUMPDEST SWAP2 POP PUSH1 0x20 DUP4 ADD CALLDATALOAD PUSH8 0xFFFFFFFFFFFFFFFF DUP2 GT ISZERO PUSH2 0x4552 JUMPI PUSH1 0x0 DUP1 REVERT JUMPDEST PUSH1 0x0 DUP1 PUSH1 0x0 DUP1 PUSH1 0x0 DUP1 PUSH1 0x80 DUP8 DUP10 SUB SLT ISZERO PUSH2 0x485D JUMPI PUSH1 0x0 DUP1 REVERT JUMPDEST DUP7 CALLDATALOAD PUSH8 0xFFFFFFFFFFFFFFFF DUP1 DUP3 GT ISZERO PUSH2 0x4875 JUMPI PUSH1 0x0 DUP1 REVERT JUMPDEST PUSH2 0x4881 DUP11 DUP4 DUP12 ADD PUSH2 0x4568 JUMP JUMPDEST SWAP1 SWAP9 POP SWAP7 POP PUSH1 0x20 DUP10 ADD CALLDATALOAD SWAP6 POP DUP7 SWAP2 POP PUSH2 0x489C PUSH1 0x40 DUP11 ADD PUSH2 0x45B1 JUMP JUMPDEST SWAP5 POP PUSH1 0x60 DUP10 ADD CALLDATALOAD SWAP2 POP DUP1 DUP3 GT ISZERO PUSH2 0x48B2 JUMPI PUSH1 0x0 DUP1 REVERT JUMPDEST POP PUSH2 0x48BF DUP10 DUP3 DUP11 ADD PUSH2 0x4568 JUMP JUMPDEST SWAP8 SWAP11 SWAP7 SWAP10 POP SWAP5 SWAP8 POP SWAP3 SWAP6 SWAP4 SWAP5 SWAP3 POP POP POP JUMP JUMPDEST DUP1 ISZERO ISZERO DUP2 EQ PUSH2 0x15EA JUMPI PUSH1 0x0 DUP1 REVERT JUMPDEST PUSH1 0x0 DUP1 PUSH1 0x40 DUP4 DUP6 SUB SLT ISZERO PUSH2 0x48F2 JUMPI PUSH1 0x0 DUP1 REVERT JUMPDEST PUSH2 0x48FB DUP4 PUSH2 0x45B1 JUMP JUMPDEST SWAP2 POP PUSH1 0x20 DUP4 ADD CALLDATALOAD PUSH2 0x490B DUP2 PUSH2 0x48D1 JUMP JUMPDEST DUP1 SWAP2 POP POP SWAP3 POP SWAP3 SWAP1 POP JUMP JUMPDEST PUSH1 0x0 PUSH1 0x40 DUP3 DUP5 SUB SLT ISZERO PUSH2 0x4928 JUMPI PUSH1 0x0 DUP1 REVERT JUMPDEST PUSH1 0x40 MLOAD PUSH1 0x40 DUP2 ADD PUSH8 0xFFFFFFFFFFFFFFFF DUP3 DUP3 LT DUP2 DUP4 GT OR ISZERO PUSH2 0x494C JUMPI PUSH2 0x494C PUSH2 0x4415 JUMP JUMPDEST DUP2 PUSH1 0x40 MSTORE DUP3 SWAP4 POP DUP5 CALLDATALOAD SWAP2 POP DUP1 DUP3 GT ISZERO PUSH2 0x4964 JUMPI PUSH1 0x0 DUP1 REVERT JUMPDEST PUSH2 0x4970 DUP7 DUP4 DUP8 ADD PUSH2 0x4493 JUMP JUMPDEST DUP4 MSTORE PUSH1 0x20 DUP6 ADD CALLDATALOAD SWAP2 POP DUP1 DUP3 GT ISZERO PUSH2 0x4986 JUMPI PUSH1 0x0 DUP1 REVERT JUMPDEST POP PUSH2 0x4993 DUP6 DUP3 DUP7 ADD PUSH2 0x4493 JUMP JUMPDEST PUSH1 0x20 DUP4 ADD MSTORE POP POP SWAP3 SWAP2 POP POP JUMP JUMPDEST PUSH1 0x0 DUP1 PUSH1 0x40 DUP4 DUP6 SUB SLT ISZERO PUSH2 0x49B3 JUMPI PUSH1 0x0 DUP1 REVERT JUMPDEST DUP3 CALLDATALOAD SWAP2 POP PUSH1 0x20 DUP1 DUP5 ADD CALLDATALOAD PUSH8 0xFFFFFFFFFFFFFFFF DUP1 DUP3 GT ISZERO PUSH2 0x49D3 JUMPI PUSH1 0x0 DUP1 REVERT JUMPDEST DUP2 DUP7 ADD SWAP2 POP DUP7 PUSH1 0x1F DUP4 ADD SLT PUSH2 0x49E7 JUMPI PUSH1 0x0 DUP1 REVERT JUMPDEST DUP2 CALLDATALOAD DUP2 DUP2 GT ISZERO PUSH2 0x49F9 JUMPI PUSH2 0x49F9 PUSH2 0x4415 JUMP JUMPDEST DUP1 PUSH1 0x5 SHL PUSH2 0x4A08 DUP6 DUP3 ADD PUSH2 0x4444 JUMP JUMPDEST SWAP2 DUP3 MSTORE DUP4 DUP2 ADD DUP6 ADD SWAP2 DUP6 DUP2 ADD SWAP1 DUP11 DUP5 GT ISZERO PUSH2 0x4A22 JUMPI PUSH1 0x0 DUP1 REVERT JUMPDEST DUP7 DUP7 ADD SWAP3 POP JUMPDEST DUP4 DUP4 LT ISZERO PUSH2 0x4A5E JUMPI DUP3 CALLDATALOAD DUP6 DUP2 GT ISZERO PUSH2 0x4A40 JUMPI PUSH1 0x0 DUP1 DUP2 REVERT JUMPDEST PUSH2 0x4A4E DUP13 DUP10 DUP4 DUP11 ADD ADD PUSH2 0x4916 JUMP JUMPDEST DUP4 MSTORE POP SWAP2 DUP7 ADD SWAP2 SWAP1 DUP7 ADD SWAP1 PUSH2 0x4A28 JUMP JUMPDEST DUP1 SWAP8 POP POP POP POP POP POP POP POP SWAP3 POP SWAP3 SWAP1 POP JUMP JUMPDEST PUSH1 0x0 DUP1 PUSH1 0x0 DUP1 PUSH1 0x80 DUP6 DUP8 SUB SLT ISZERO PUSH2 0x4A85 JUMPI PUSH1 0x0 DUP1 REVERT JUMPDEST PUSH2 0x4A8E DUP6 PUSH2 0x45B1 JUMP JUMPDEST SWAP4 POP PUSH2 0x4A9C PUSH1 0x20 DUP7 ADD PUSH2 0x45B1 JUMP JUMPDEST SWAP3 POP PUSH1 0x40 DUP6 ADD CALLDATALOAD SWAP2 POP PUSH1 0x60 DUP6 ADD CALLDATALOAD PUSH8 0xFFFFFFFFFFFFFFFF DUP2 GT ISZERO PUSH2 0x4ABF JUMPI PUSH1 0x0 DUP1 REVERT JUMPDEST PUSH2 0x4ACB DUP8 DUP3 DUP9 ADD PUSH2 0x4493 JUMP JUMPDEST SWAP2 POP POP SWAP3 SWAP6 SWAP2 SWAP5 POP SWAP3 POP JUMP JUMPDEST PUSH1 0x0 DUP1 PUSH1 0x0 DUP1 PUSH1 0x0 DUP1 PUSH1 0x0 DUP1 PUSH1 0x0 PUSH1 0xC0 DUP11 DUP13 SUB SLT ISZERO PUSH2 0x4AF5 JUMPI PUSH1 0x0 DUP1 REVERT JUMPDEST DUP10 CALLDATALOAD PUSH8 0xFFFFFFFFFFFFFFFF DUP1 DUP3 GT ISZERO PUSH2 0x4B0D JUMPI PUSH1 0x0 DUP1 REVERT JUMPDEST PUSH2 0x4B19 DUP14 DUP4 DUP15 ADD PUSH2 0x4568 JUMP JUMPDEST SWAP1 SWAP12 POP SWAP10 POP PUSH1 0x20 DUP13 ADD CALLDATALOAD SWAP9 POP PUSH1 0x40 DUP13 ADD CALLDATALOAD SWAP2 POP PUSH2 0x4B35 DUP3 PUSH2 0x48D1 JUMP JUMPDEST SWAP1 SWAP7 POP PUSH1 0x60 DUP12 ADD CALLDATALOAD SWAP1 DUP1 DUP3 GT ISZERO PUSH2 0x4B4B JUMPI PUSH1 0x0 DUP1 REVERT JUMPDEST PUSH2 0x4B57 DUP14 DUP4 DUP15 ADD PUSH2 0x4568 JUMP JUMPDEST SWAP1 SWAP8 POP SWAP6 POP DUP6 SWAP2 POP PUSH2 0x4B6B PUSH1 0x80 DUP14 ADD PUSH2 0x45B1 JUMP JUMPDEST SWAP5 POP PUSH1 0xA0 DUP13 ADD CALLDATALOAD SWAP2 POP DUP1 DUP3 GT ISZERO PUSH2 0x4B81 JUMPI PUSH1 0x0 DUP1 REVERT JUMPDEST POP PUSH2 0x4B8E DUP13 DUP3 DUP14 ADD PUSH2 0x4568 JUMP JUMPDEST SWAP2 POP DUP1 SWAP4 POP POP DUP1 SWAP2 POP POP SWAP3 SWAP6 SWAP9 POP SWAP3 SWAP6 SWAP9 POP SWAP3 SWAP6 SWAP9 JUMP JUMPDEST PUSH1 0x0 DUP1 PUSH1 0x40 DUP4 DUP6 SUB SLT ISZERO PUSH2 0x4BB8 JUMPI PUSH1 0x0 DUP1 REVERT JUMPDEST PUSH2 0x4BC1 DUP4 PUSH2 0x45B1 JUMP JUMPDEST SWAP2 POP PUSH2 0x4BCF PUSH1 0x20 DUP5 ADD PUSH2 0x45B1 JUMP JUMPDEST SWAP1 POP SWAP3 POP SWAP3 SWAP1 POP JUMP JUMPDEST PUSH1 0x0 DUP1 PUSH1 0x0 DUP1 PUSH1 0x60 DUP6 DUP8 SUB SLT ISZERO PUSH2 0x4BEE JUMPI PUSH1 0x0 DUP1 REVERT JUMPDEST DUP5 CALLDATALOAD SWAP4 POP PUSH2 0x4BFE PUSH1 0x20 DUP7 ADD PUSH2 0x45B1 JUMP JUMPDEST SWAP3 POP PUSH1 0x40 DUP6 ADD CALLDATALOAD PUSH8 0xFFFFFFFFFFFFFFFF DUP2 GT ISZERO PUSH2 0x4C1A JUMPI PUSH1 0x0 DUP1 REVERT JUMPDEST PUSH2 0x4C26 DUP8 DUP3 DUP9 ADD PUSH2 0x4568 JUMP JUMPDEST SWAP6 SWAP9 SWAP5 SWAP8 POP SWAP6 POP POP POP POP JUMP JUMPDEST PUSH1 0x1 DUP2 DUP2 SHR SWAP1 DUP3 AND DUP1 PUSH2 0x4C46 JUMPI PUSH1 0x7F DUP3 AND SWAP2 POP JUMPDEST PUSH1 0x20 DUP3 LT DUP2 SUB PUSH2 0x4C7F JUMPI PUSH32 0x4E487B7100000000000000000000000000000000000000000000000000000000 PUSH1 0x0 MSTORE PUSH1 0x22 PUSH1 0x4 MSTORE PUSH1 0x24 PUSH1 0x0 REVERT JUMPDEST POP SWAP2 SWAP1 POP JUMP JUMPDEST PUSH1 0x0 DUP3 MLOAD PUSH2 0x4C97 DUP2 DUP5 PUSH1 0x20 DUP8 ADD PUSH2 0x4394 JUMP JUMPDEST SWAP2 SWAP1 SWAP2 ADD SWAP3 SWAP2 POP POP JUMP JUMPDEST PUSH1 0x1F DUP3 GT ISZERO PUSH2 0x100E JUMPI PUSH1 0x0 DUP2 DUP2 MSTORE PUSH1 0x20 DUP2 KECCAK256 PUSH1 0x1F DUP6 ADD PUSH1 0x5 SHR DUP2 ADD PUSH1 0x20 DUP7 LT ISZERO PUSH2 0x4CC8 JUMPI POP DUP1 JUMPDEST PUSH1 0x1F DUP6 ADD PUSH1 0x5 SHR DUP3 ADD SWAP2 POP JUMPDEST DUP2 DUP2 LT ISZERO PUSH2 0xDCE JUMPI DUP3 DUP2 SSTORE PUSH1 0x1 ADD PUSH2 0x4CD4 JUMP JUMPDEST PUSH8 0xFFFFFFFFFFFFFFFF DUP4 GT ISZERO PUSH2 0x4CFF JUMPI PUSH2 0x4CFF PUSH2 0x4415 JUMP JUMPDEST PUSH2 0x4D13 DUP4 PUSH2 0x4D0D DUP4 SLOAD PUSH2 0x4C32 JUMP JUMPDEST DUP4 PUSH2 0x4CA1 JUMP JUMPDEST PUSH1 0x0 PUSH1 0x1F DUP5 GT PUSH1 0x1 DUP2 EQ PUSH2 0x4D65 JUMPI PUSH1 0x0 DUP6 ISZERO PUSH2 0x4D2F JUMPI POP DUP4 DUP3 ADD CALLDATALOAD JUMPDEST PUSH32 0xFFFFFFFFFFFFFFFFFFFFFFFFFFFFFFFFFFFFFFFFFFFFFFFFFFFFFFFFFFFFFFFF PUSH1 0x3 DUP8 SWAP1 SHL SHR NOT AND PUSH1 0x1 DUP7 SWAP1 SHL OR DUP4 SSTORE PUSH2 0x13E1 JUMP JUMPDEST PUSH1 0x0 DUP4 DUP2 MSTORE PUSH1 0x20 SWAP1 KECCAK256 PUSH32 0xFFFFFFFFFFFFFFFFFFFFFFFFFFFFFFFFFFFFFFFFFFFFFFFFFFFFFFFFFFFFFFE0 DUP7 AND SWAP1 DUP4 JUMPDEST DUP3 DUP2 LT ISZERO PUSH2 0x4DB4 JUMPI DUP7 DUP6 ADD CALLDATALOAD DUP3 SSTORE PUSH1 0x20 SWAP5 DUP6 ADD SWAP5 PUSH1 0x1 SWAP1 SWAP3 ADD SWAP2 ADD PUSH2 0x4D94 JUMP JUMPDEST POP DUP7 DUP3 LT ISZERO PUSH2 0x4DEF JUMPI PUSH32 0xFFFFFFFFFFFFFFFFFFFFFFFFFFFFFFFFFFFFFFFFFFFFFFFFFFFFFFFFFFFFFFFF PUSH1 0xF8 DUP9 PUSH1 0x3 SHL AND SHR NOT DUP5 DUP8 ADD CALLDATALOAD AND DUP2 SSTORE JUMPDEST POP POP PUSH1 0x1 DUP6 PUSH1 0x1 SHL ADD DUP4 SSTORE POP POP POP POP POP JUMP JUMPDEST DUP2 DUP4 MSTORE DUP2 DUP2 PUSH1 0x20 DUP6 ADD CALLDATACOPY POP PUSH1 0x0 PUSH1 0x20 DUP3 DUP5 ADD ADD MSTORE PUSH1 0x0 PUSH1 0x20 PUSH32 0xFFFFFFFFFFFFFFFFFFFFFFFFFFFFFFFFFFFFFFFFFFFFFFFFFFFFFFFFFFFFFFE0 PUSH1 0x1F DUP5 ADD AND DUP5 ADD ADD SWAP1 POP SWAP3 SWAP2 POP POP JUMP JUMPDEST DUP4 DUP2 MSTORE PUSH1 0x40 PUSH1 0x20 DUP3 ADD MSTORE PUSH1 0x0 PUSH2 0x4E64 PUSH1 0x40 DUP4 ADD DUP5 DUP7 PUSH2 0x4E01 JUMP JUMPDEST SWAP6 SWAP5 POP POP POP POP POP JUMP JUMPDEST PUSH1 0x20 DUP2 MSTORE PUSH1 0x0 PUSH2 0x2F65 PUSH1 0x20 DUP4 ADD DUP5 DUP7 PUSH2 0x4E01 JUMP JUMPDEST PUSH1 0x0 PUSH1 0x20 DUP3 DUP5 SUB SLT ISZERO PUSH2 0x4E93 JUMPI PUSH1 0x0 DUP1 REVERT JUMPDEST DUP2 MLOAD PUSH2 0x127C DUP2 PUSH2 0x48D1 JUMP JUMPDEST PUSH32 0x4E487B7100000000000000000000000000000000000000000000000000000000 PUSH1 0x0 MSTORE PUSH1 0x32 PUSH1 0x4 MSTORE PUSH1 0x24 PUSH1 0x0 REVERT JUMPDEST PUSH1 0x0 DUP3 CALLDATALOAD PUSH32 0xFFFFFFFFFFFFFFFFFFFFFFFFFFFFFFFFFFFFFFFFFFFFFFFFFFFFFFFFFFFFFFC1 DUP4 CALLDATASIZE SUB ADD DUP2 SLT PUSH2 0x4C97 JUMPI PUSH1 0x0 DUP1 REVERT JUMPDEST PUSH1 0x0 PUSH2 0xA2D CALLDATASIZE DUP4 PUSH2 0x4916 JUMP JUMPDEST DUP2 MLOAD PUSH8 0xFFFFFFFFFFFFFFFF DUP2 GT ISZERO PUSH2 0x4F27 JUMPI PUSH2 0x4F27 PUSH2 0x4415 JUMP JUMPDEST PUSH2 0x4F3B DUP2 PUSH2 0x4F35 DUP5 SLOAD PUSH2 0x4C32 JUMP JUMPDEST DUP5 PUSH2 0x4CA1 JUMP JUMPDEST PUSH1 0x20 DUP1 PUSH1 0x1F DUP4 GT PUSH1 0x1 DUP2 EQ PUSH2 0x4F8E JUMPI PUSH1 0x0 DUP5 ISZERO PUSH2 0x4F58 JUMPI POP DUP6 DUP4 ADD MLOAD JUMPDEST PUSH32 0xFFFFFFFFFFFFFFFFFFFFFFFFFFFFFFFFFFFFFFFFFFFFFFFFFFFFFFFFFFFFFFFF PUSH1 0x3 DUP7 SWAP1 SHL SHR NOT AND PUSH1 0x1 DUP6 SWAP1 SHL OR DUP6 SSTORE PUSH2 0xDCE JUMP JUMPDEST PUSH1 0x0 DUP6 DUP2 MSTORE PUSH1 0x20 DUP2 KECCAK256 PUSH32 0xFFFFFFFFFFFFFFFFFFFFFFFFFFFFFFFFFFFFFFFFFFFFFFFFFFFFFFFFFFFFFFE0 DUP7 AND SWAP2 JUMPDEST DUP3 DUP2 LT ISZERO PUSH2 0x4FDB JUMPI DUP9 DUP7 ADD MLOAD DUP3 SSTORE SWAP5 DUP5 ADD SWAP5 PUSH1 0x1 SWAP1 SWAP2 ADD SWAP1 DUP5 ADD PUSH2 0x4FBC JUMP JUMPDEST POP DUP6 DUP3 LT ISZERO PUSH2 0x5017 JUMPI DUP8 DUP6 ADD MLOAD PUSH32 0xFFFFFFFFFFFFFFFFFFFFFFFFFFFFFFFFFFFFFFFFFFFFFFFFFFFFFFFFFFFFFFFF PUSH1 0x3 DUP9 SWAP1 SHL PUSH1 0xF8 AND SHR NOT AND DUP2 SSTORE JUMPDEST POP POP POP POP POP PUSH1 0x1 SWAP1 DUP2 SHL ADD SWAP1 SSTORE POP JUMP JUMPDEST PUSH1 0x40 DUP2 MSTORE PUSH1 0x0 PUSH2 0x503A PUSH1 0x40 DUP4 ADD DUP6 PUSH2 0x43B8 JUMP JUMPDEST DUP3 DUP2 SUB PUSH1 0x20 DUP5 ADD MSTORE PUSH2 0x4E64 DUP2 DUP6 PUSH2 0x43B8 JUMP JUMPDEST PUSH32 0x4E487B7100000000000000000000000000000000000000000000000000000000 PUSH1 0x0 MSTORE PUSH1 0x11 PUSH1 0x4 MSTORE PUSH1 0x24 PUSH1 0x0 REVERT JUMPDEST PUSH1 0x0 PUSH32 0xFFFFFFFFFFFFFFFFFFFFFFFFFFFFFFFFFFFFFFFFFFFFFFFFFFFFFFFFFFFFFFFF DUP3 SUB PUSH2 0x50AC JUMPI PUSH2 0x50AC PUSH2 0x504C JUMP JUMPDEST POP PUSH1 0x1 ADD SWAP1 JUMP JUMPDEST PUSH1 0x0 DUP2 PUSH2 0x50C2 JUMPI PUSH2 0x50C2 PUSH2 0x504C JUMP JUMPDEST POP PUSH32 0xFFFFFFFFFFFFFFFFFFFFFFFFFFFFFFFFFFFFFFFFFFFFFFFFFFFFFFFFFFFFFFFF ADD SWAP1 JUMP JUMPDEST PUSH1 0x40 DUP2 MSTORE PUSH1 0x0 PUSH20 0xFFFFFFFFFFFFFFFFFFFFFFFFFFFFFFFFFFFFFFFF DUP1 DUP7 MLOAD AND PUSH1 0x40 DUP5 ADD MSTORE PUSH1 0x20 DUP7 ADD MLOAD PUSH1 0x80 PUSH1 0x60 DUP6 ADD MSTORE PUSH2 0x5125 PUSH1 0xC0 DUP6 ADD DUP3 PUSH2 0x43B8 JUMP JUMPDEST SWAP1 POP PUSH1 0x40 DUP8 ADD MLOAD PUSH1 0x80 DUP6 ADD MSTORE DUP2 PUSH1 0x60 DUP9 ADD MLOAD AND PUSH1 0xA0 DUP6 ADD MSTORE DUP4 DUP2 SUB PUSH1 0x20 DUP6 ADD MSTORE PUSH2 0x5150 DUP2 DUP7 DUP9 PUSH2 0x4E01 JUMP JUMPDEST SWAP8 SWAP7 POP POP POP POP POP POP POP JUMP JUMPDEST PUSH1 0x0 DUP1 DUP5 SLOAD PUSH2 0x5169 DUP2 PUSH2 0x4C32 JUMP JUMPDEST PUSH1 0x1 DUP3 DUP2 AND DUP1 ISZERO PUSH2 0x5181 JUMPI PUSH1 0x1 DUP2 EQ PUSH2 0x51B4 JUMPI PUSH2 0x51E3 JUMP JUMPDEST PUSH32 0xFFFFFFFFFFFFFFFFFFFFFFFFFFFFFFFFFFFFFFFFFFFFFFFFFFFFFFFFFFFFFF00 DUP5 AND DUP8 MSTORE DUP3 ISZERO ISZERO DUP4 MUL DUP8 ADD SWAP5 POP PUSH2 0x51E3 JUMP JUMPDEST DUP9 PUSH1 0x0 MSTORE PUSH1 0x20 DUP1 PUSH1 0x0 KECCAK256 PUSH1 0x0 JUMPDEST DUP6 DUP2 LT ISZERO PUSH2 0x51DA JUMPI DUP2 SLOAD DUP11 DUP3 ADD MSTORE SWAP1 DUP5 ADD SWAP1 DUP3 ADD PUSH2 0x51C1 JUMP JUMPDEST POP POP POP DUP3 DUP8 ADD SWAP5 POP JUMPDEST POP POP POP POP DUP4 MLOAD PUSH2 0x51F7 DUP2 DUP4 PUSH1 0x20 DUP9 ADD PUSH2 0x4394 JUMP JUMPDEST ADD SWAP5 SWAP4 POP POP POP POP JUMP JUMPDEST DUP2 DUP4 DUP3 CALLDATACOPY PUSH1 0x0 SWAP2 ADD SWAP1 DUP2 MSTORE SWAP2 SWAP1 POP JUMP JUMPDEST PUSH1 0x60 DUP2 MSTORE PUSH1 0x0 PUSH2 0x5224 PUSH1 0x60 DUP4 ADD DUP7 DUP9 PUSH2 0x4E01 JUMP JUMPDEST PUSH1 0x20 DUP4 ADD SWAP5 SWAP1 SWAP5 MSTORE POP SWAP1 ISZERO ISZERO PUSH1 0x40 SWAP1 SWAP2 ADD MSTORE SWAP3 SWAP2 POP POP JUMP JUMPDEST PUSH1 0x0 PUSH8 0xFFFFFFFFFFFFFFFF DUP1 DUP4 AND DUP2 DUP2 SUB PUSH2 0x5259 JUMPI PUSH2 0x5259 PUSH2 0x504C JUMP JUMPDEST PUSH1 0x1 ADD SWAP4 SWAP3 POP POP POP JUMP JUMPDEST PUSH1 0x0 PUSH1 0x20 DUP3 DUP5 SUB SLT ISZERO PUSH2 0x5275 JUMPI PUSH1 0x0 DUP1 REVERT JUMPDEST POP MLOAD SWAP2 SWAP1 POP JUMP JUMPDEST PUSH1 0x40 DUP2 MSTORE PUSH1 0x0 PUSH2 0x5290 PUSH1 0x40 DUP4 ADD DUP6 DUP8 PUSH2 0x4E01 JUMP JUMPDEST SWAP1 POP DUP3 PUSH1 0x20 DUP4 ADD MSTORE SWAP5 SWAP4 POP POP POP POP JUMP JUMPDEST PUSH1 0x0 PUSH20 0xFFFFFFFFFFFFFFFFFFFFFFFFFFFFFFFFFFFFFFFF DUP1 DUP8 AND DUP4 MSTORE DUP1 DUP7 AND PUSH1 0x20 DUP5 ADD MSTORE POP DUP4 PUSH1 0x40 DUP4 ADD MSTORE PUSH1 0x80 PUSH1 0x60 DUP4 ADD MSTORE PUSH2 0x403B PUSH1 0x80 DUP4 ADD DUP5 PUSH2 0x43B8 JUMP JUMPDEST PUSH1 0x0 PUSH1 0x20 DUP3 DUP5 SUB SLT ISZERO PUSH2 0x52F1 JUMPI PUSH1 0x0 DUP1 REVERT JUMPDEST DUP2 MLOAD PUSH2 0x127C DUP2 PUSH2 0x4349 JUMP INVALID COINBASE PUSH5 0x6472657373 GASPRICE KECCAK256 PUSH13 0x6F772D6C6576656C2064656C65 PUSH8 0x6174652063616C6C KECCAK256 PUSH7 0x61696C6564A264 PUSH10 0x70667358221220D1DB01 PUSH13 0x911071BB86AEA44A7217C8066E DUP11 PUSH2 0xF477 0x2A 0xEB SWAP15 STOP 0x4C SWAP2 SSTORE INVALID OR BLOCKHASH 0xCC PUSH5 0x736F6C6343 STOP ADDMOD ISZERO STOP CALLER "},"gasEstimates":{"creation":{"codeDepositCost":"4267400","executionCost":"infinite","totalCost":"infinite"},"external":{"allowNode(string,bytes32,bool,string,address,bytes)":"infinite","allowedParentNodes(bytes32)":"2507","approve(address,uint256)":"infinite","available(string,bytes32)":"infinite","balanceOf(address)":"2644","baseTokenURIs(bytes32)":"infinite","batchSetGatedMetadatas(uint256,(string,string)[])":"infinite","batchSetMetadatas(uint256,(string,string)[])":"infinite","burn(uint256)":"infinite","burnCounts(uint256)":"2506","clearGatedMetadatas(uint256)":"34921","clearMetadatas(uint256)":"infinite","gatedMetadataVersions(uint256)":"2566","getApproved(uint256)":"4757","getGatedMetadata(uint256,string)":"infinite","getMetadata(uint256,string)":"infinite","getTokenId(string,bytes32)":"infinite","initialize(string,string,address)":"infinite","isApprovedForAll(address,address)":"infinite","metadataVersions(uint256)":"2564","middlewares(bytes32)":"2542","name()":"infinite","owner()":"2397","ownerOf(uint256)":"352","parents(uint256)":"2506","pause()":"infinite","paused()":"2404","proxiableUUID()":"infinite","register(string,bytes32,address,bytes)":"infinite","renounceOwnership()":"infinite","safeTransferFrom(address,address,uint256)":"infinite","safeTransferFrom(address,address,uint256,bytes)":"infinite","setApprovalForAll(address,bool)":"26772","setBaseTokenURI(bytes32,string)":"infinite","setMiddleware(bytes32,address,bytes)":"infinite","supportsInterface(bytes4)":"502","symbol()":"infinite","tokenURI(uint256)":"infinite","totalSupply()":"2371","transferFrom(address,address,uint256)":"infinite","transferOwnership(address)":"28361","unpause()":"infinite","upgradeTo(address)":"infinite","upgradeToAndCall(address,bytes)":"infinite"}},"methodIdentifiers":{"allowNode(string,bytes32,bool,string,address,bytes)":"d619cee5","allowedParentNodes(bytes32)":"16404d01","approve(address,uint256)":"095ea7b3","available(string,bytes32)":"2595eacb","balanceOf(address)":"70a08231","baseTokenURIs(bytes32)":"96977c1b","batchSetGatedMetadatas(uint256,(string,string)[])":"b33dab09","batchSetMetadatas(uint256,(string,string)[])":"26ec9ad8","burn(uint256)":"42966c68","burnCounts(uint256)":"a9735f94","clearGatedMetadatas(uint256)":"8e73361e","clearMetadatas(uint256)":"07b472c4","gatedMetadataVersions(uint256)":"0ae16e53","getApproved(uint256)":"081812fc","getGatedMetadata(uint256,string)":"0739d191","getMetadata(uint256,string)":"cb4799f2","getTokenId(string,bytes32)":"cad6b901","initialize(string,string,address)":"077f224a","isApprovedForAll(address,address)":"e985e9c5","metadataVersions(uint256)":"d9a9eb24","middlewares(bytes32)":"57ad9c90","name()":"06fdde03","owner()":"8da5cb5b","ownerOf(uint256)":"6352211e","parents(uint256)":"898572a6","pause()":"8456cb59","paused()":"5c975abb","proxiableUUID()":"52d1902d","register(string,bytes32,address,bytes)":"7c7efe6b","renounceOwnership()":"715018a6","safeTransferFrom(address,address,uint256)":"42842e0e","safeTransferFrom(address,address,uint256,bytes)":"b88d4fde","setApprovalForAll(address,bool)":"a22cb465","setBaseTokenURI(bytes32,string)":"1f0509e0","setMiddleware(bytes32,address,bytes)":"f97c6dae","supportsInterface(bytes4)":"01ffc9a7","symbol()":"95d89b41","tokenURI(uint256)":"c87b56dd","totalSupply()":"18160ddd","transferFrom(address,address,uint256)":"23b872dd","transferOwnership(address)":"f2fde38b","unpause()":"3f4ba83a","upgradeTo(address)":"3659cfe6","upgradeToAndCall(address,bytes)":"4f1ef286"}},"storageLayout":{"storage":[{"astId":503,"contract":"contracts/MocaPoints/mock/realmIdContract/mockRealmId.sol:MockRealmId","label":"_initialized","offset":0,"slot":"0","type":"t_uint8"},{"astId":506,"contract":"contracts/MocaPoints/mock/realmIdContract/mockRealmId.sol:MockRealmId","label":"_initializing","offset":1,"slot":"0","type":"t_bool"},{"astId":2412,"contract":"contracts/MocaPoints/mock/realmIdContract/mockRealmId.sol:MockRealmId","label":"__gap","offset":0,"slot":"1","type":"t_array(t_uint256)50_storage"},{"astId":2795,"contract":"contracts/MocaPoints/mock/realmIdContract/mockRealmId.sol:MockRealmId","label":"__gap","offset":0,"slot":"51","type":"t_array(t_uint256)50_storage"},{"astId":957,"contract":"contracts/MocaPoints/mock/realmIdContract/mockRealmId.sol:MockRealmId","label":"_name","offset":0,"slot":"101","type":"t_string_storage"},{"astId":959,"contract":"contracts/MocaPoints/mock/realmIdContract/mockRealmId.sol:MockRealmId","label":"_symbol","offset":0,"slot":"102","type":"t_string_storage"},{"astId":963,"contract":"contracts/MocaPoints/mock/realmIdContract/mockRealmId.sol:MockRealmId","label":"_owners","offset":0,"slot":"103","type":"t_mapping(t_uint256,t_address)"},{"astId":967,"contract":"contracts/MocaPoints/mock/realmIdContract/mockRealmId.sol:MockRealmId","label":"_balances","offset":0,"slot":"104","type":"t_mapping(t_address,t_uint256)"},{"astId":971,"contract":"contracts/MocaPoints/mock/realmIdContract/mockRealmId.sol:MockRealmId","label":"_tokenApprovals","offset":0,"slot":"105","type":"t_mapping(t_uint256,t_address)"},{"astId":977,"contract":"contracts/MocaPoints/mock/realmIdContract/mockRealmId.sol:MockRealmId","label":"_operatorApprovals","offset":0,"slot":"106","type":"t_mapping(t_address,t_mapping(t_address,t_bool))"},{"astId":1879,"contract":"contracts/MocaPoints/mock/realmIdContract/mockRealmId.sol:MockRealmId","label":"__gap","offset":0,"slot":"107","type":"t_array(t_uint256)44_storage"},{"astId":10,"contract":"contracts/MocaPoints/mock/realmIdContract/mockRealmId.sol:MockRealmId","label":"_owner","offset":0,"slot":"151","type":"t_address"},{"astId":130,"contract":"contracts/MocaPoints/mock/realmIdContract/mockRealmId.sol:MockRealmId","label":"__gap","offset":0,"slot":"152","type":"t_array(t_uint256)49_storage"},{"astId":485,"contract":"contracts/MocaPoints/mock/realmIdContract/mockRealmId.sol:MockRealmId","label":"__gap","offset":0,"slot":"201","type":"t_array(t_uint256)50_storage"},{"astId":800,"contract":"contracts/MocaPoints/mock/realmIdContract/mockRealmId.sol:MockRealmId","label":"__gap","offset":0,"slot":"251","type":"t_array(t_uint256)50_storage"},{"astId":822,"contract":"contracts/MocaPoints/mock/realmIdContract/mockRealmId.sol:MockRealmId","label":"_paused","offset":0,"slot":"301","type":"t_bool"},{"astId":927,"contract":"contracts/MocaPoints/mock/realmIdContract/mockRealmId.sol:MockRealmId","label":"__gap","offset":0,"slot":"302","type":"t_array(t_uint256)49_storage"},{"astId":4240,"contract":"contracts/MocaPoints/mock/realmIdContract/mockRealmId.sol:MockRealmId","label":"_metadatas","offset":0,"slot":"351","type":"t_mapping(t_uint64,t_mapping(t_uint256,t_mapping(t_string_memory_ptr,t_string_storage)))"},{"astId":4244,"contract":"contracts/MocaPoints/mock/realmIdContract/mockRealmId.sol:MockRealmId","label":"metadataVersions","offset":0,"slot":"352","type":"t_mapping(t_uint256,t_uint64)"},{"astId":4252,"contract":"contracts/MocaPoints/mock/realmIdContract/mockRealmId.sol:MockRealmId","label":"_gatedMetadatas","offset":0,"slot":"353","type":"t_mapping(t_uint64,t_mapping(t_uint256,t_mapping(t_string_memory_ptr,t_string_storage)))"},{"astId":4256,"contract":"contracts/MocaPoints/mock/realmIdContract/mockRealmId.sol:MockRealmId","label":"gatedMetadataVersions","offset":0,"slot":"354","type":"t_mapping(t_uint256,t_uint64)"},{"astId":4261,"contract":"contracts/MocaPoints/mock/realmIdContract/mockRealmId.sol:MockRealmId","label":"__gap","offset":0,"slot":"355","type":"t_array(t_uint256)40_storage"},{"astId":4591,"contract":"contracts/MocaPoints/mock/realmIdContract/mockRealmId.sol:MockRealmId","label":"baseTokenURIs","offset":0,"slot":"395","type":"t_mapping(t_bytes32,t_string_storage)"},{"astId":4596,"contract":"contracts/MocaPoints/mock/realmIdContract/mockRealmId.sol:MockRealmId","label":"middlewares","offset":0,"slot":"396","type":"t_mapping(t_bytes32,t_address)"},{"astId":4601,"contract":"contracts/MocaPoints/mock/realmIdContract/mockRealmId.sol:MockRealmId","label":"allowedParentNodes","offset":0,"slot":"397","type":"t_mapping(t_bytes32,t_bool)"},{"astId":4606,"contract":"contracts/MocaPoints/mock/realmIdContract/mockRealmId.sol:MockRealmId","label":"parents","offset":0,"slot":"398","type":"t_mapping(t_uint256,t_bytes32)"},{"astId":4609,"contract":"contracts/MocaPoints/mock/realmIdContract/mockRealmId.sol:MockRealmId","label":"_mintCount","offset":0,"slot":"399","type":"t_uint256"},{"astId":4614,"contract":"contracts/MocaPoints/mock/realmIdContract/mockRealmId.sol:MockRealmId","label":"burnCounts","offset":0,"slot":"400","type":"t_mapping(t_uint256,t_uint256)"}],"types":{"t_address":{"encoding":"inplace","label":"address","numberOfBytes":"20"},"t_array(t_uint256)40_storage":{"base":"t_uint256","encoding":"inplace","label":"uint256[40]","numberOfBytes":"1280"},"t_array(t_uint256)44_storage":{"base":"t_uint256","encoding":"inplace","label":"uint256[44]","numberOfBytes":"1408"},"t_array(t_uint256)49_storage":{"base":"t_uint256","encoding":"inplace","label":"uint256[49]","numberOfBytes":"1568"},"t_array(t_uint256)50_storage":{"base":"t_uint256","encoding":"inplace","label":"uint256[50]","numberOfBytes":"1600"},"t_bool":{"encoding":"inplace","label":"bool","numberOfBytes":"1"},"t_bytes32":{"encoding":"inplace","label":"bytes32","numberOfBytes":"32"},"t_mapping(t_address,t_bool)":{"encoding":"mapping","key":"t_address","label":"mapping(address => bool)","numberOfBytes":"32","value":"t_bool"},"t_mapping(t_address,t_mapping(t_address,t_bool))":{"encoding":"mapping","key":"t_address","label":"mapping(address => mapping(address => bool))","numberOfBytes":"32","value":"t_mapping(t_address,t_bool)"},"t_mapping(t_address,t_uint256)":{"encoding":"mapping","key":"t_address","label":"mapping(address => uint256)","numberOfBytes":"32","value":"t_uint256"},"t_mapping(t_bytes32,t_address)":{"encoding":"mapping","key":"t_bytes32","label":"mapping(bytes32 => address)","numberOfBytes":"32","value":"t_address"},"t_mapping(t_bytes32,t_bool)":{"encoding":"mapping","key":"t_bytes32","label":"mapping(bytes32 => bool)","numberOfBytes":"32","value":"t_bool"},"t_mapping(t_bytes32,t_string_storage)":{"encoding":"mapping","key":"t_bytes32","label":"mapping(bytes32 => string)","numberOfBytes":"32","value":"t_string_storage"},"t_mapping(t_string_memory_ptr,t_string_storage)":{"encoding":"mapping","key":"t_string_memory_ptr","label":"mapping(string => string)","numberOfBytes":"32","value":"t_string_storage"},"t_mapping(t_uint256,t_address)":{"encoding":"mapping","key":"t_uint256","label":"mapping(uint256 => address)","numberOfBytes":"32","value":"t_address"},"t_mapping(t_uint256,t_bytes32)":{"encoding":"mapping","key":"t_uint256","label":"mapping(uint256 => bytes32)","numberOfBytes":"32","value":"t_bytes32"},"t_mapping(t_uint256,t_mapping(t_string_memory_ptr,t_string_storage))":{"encoding":"mapping","key":"t_uint256","label":"mapping(uint256 => mapping(string => string))","numberOfBytes":"32","value":"t_mapping(t_string_memory_ptr,t_string_storage)"},"t_mapping(t_uint256,t_uint256)":{"encoding":"mapping","key":"t_uint256","label":"mapping(uint256 => uint256)","numberOfBytes":"32","value":"t_uint256"},"t_mapping(t_uint256,t_uint64)":{"encoding":"mapping","key":"t_uint256","label":"mapping(uint256 => uint64)","numberOfBytes":"32","value":"t_uint64"},"t_mapping(t_uint64,t_mapping(t_uint256,t_mapping(t_string_memory_ptr,t_string_storage)))":{"encoding":"mapping","key":"t_uint64","label":"mapping(uint64 => mapping(uint256 => mapping(string => string)))","numberOfBytes":"32","value":"t_mapping(t_uint256,t_mapping(t_string_memory_ptr,t_string_storage))"},"t_string_memory_ptr":{"encoding":"bytes","label":"string","numberOfBytes":"32"},"t_string_storage":{"encoding":"bytes","label":"string","numberOfBytes":"32"},"t_uint256":{"encoding":"inplace","label":"uint256","numberOfBytes":"32"},"t_uint64":{"encoding":"inplace","label":"uint64","numberOfBytes":"8"},"t_uint8":{"encoding":"inplace","label":"uint8","numberOfBytes":"1"}}},"userdoc":{"kind":"user","methods":{"allowNode(string,bytes32,bool,string,address,bytes)":{"notice":"allows node. E.g. '.moca', '.music'. So that users can register realmId like 'abc.moca', 'abc.music'."},"allowedParentNodes(bytes32)":{"notice":"The allowed parent nodes of the realmId. e.g. namehash('moca'), namehash('music') https://eips.ethereum.org/EIPS/eip-137"},"available(string,bytes32)":{"notice":"Checks if a realmId is available for registration."},"baseTokenURIs(bytes32)":{"notice":"Token URI prefix."},"batchSetGatedMetadatas(uint256,(string,string)[])":{"notice":"Sets the gated metadatas associated with an token and keys."},"batchSetMetadatas(uint256,(string,string)[])":{"notice":"Sets the metadatas associated with an token and keys. Only can be called by the owner or approved operators of that token."},"burn(uint256)":{"notice":"Burns a token."},"burnCounts(uint256)":{"notice":"The number of burning for a tokenId."},"clearGatedMetadatas(uint256)":{"notice":"Clears all gated metadata on a token."},"clearMetadatas(uint256)":{"notice":"Clears all metadata on a token."},"getGatedMetadata(uint256,string)":{"notice":"Returns the gated metadata associated with an token and key."},"getMetadata(uint256,string)":{"notice":"Returns the metadata associated with an token and key."},"getTokenId(string,bytes32)":{"notice":"Gets token id of the gievn name and parent node."},"initialize(string,string,address)":{"notice":"Initialize default storage values and inherited contracts. This should be called         once after the contract is deployed via the ERC1967 proxy."},"middlewares(bytes32)":{"notice":"Middleware contract that processes before and after the registration."},"parents(uint256)":{"notice":"The parent node of the tokenId."},"pause()":{"notice":"Pauses all token transfers."},"register(string,bytes32,address,bytes)":{"notice":"Mints a new realmId."},"setBaseTokenURI(bytes32,string)":{"notice":"Sets the base token uri."},"setMiddleware(bytes32,address,bytes)":{"notice":"Sets the middleware and data."},"tokenURI(uint256)":{"notice":"Returns a distinct URI for a tokenId"},"totalSupply()":{"notice":"Gets total number of tokens in existence, burned tokens will reduce the count."},"unpause()":{"notice":"Unpauses all token transfers."}},"version":1}}}}