{"contracts/MocaPoints/MocaPoints.sol":{"MocaPoints":{"abi":[{"inputs":[{"internalType":"address","name":"realmIdContractAddress","type":"address"}],"stateMutability":"nonpayable","type":"constructor"},{"inputs":[{"internalType":"bytes32","name":"reasonCode","type":"bytes32"}],"name":"ConsumeReasonCodeAlreadyExists","type":"error"},{"inputs":[{"internalType":"bytes32","name":"reasonCode","type":"bytes32"}],"name":"ConsumeReasonCodeDoesNotExist","type":"error"},{"inputs":[],"name":"ConsumeReasonCodesArrayEmpty","type":"error"},{"inputs":[],"name":"IllegalInterfaceId","type":"error"},{"inputs":[{"internalType":"address","name":"signer","type":"address"}],"name":"IncorrectSigner","type":"error"},{"inputs":[{"internalType":"uint256","name":"currentPhase","type":"uint256"},{"internalType":"uint256","name":"newPhase","type":"uint256"}],"name":"InitializationPhaseAlreadyReached","type":"error"},{"inputs":[{"internalType":"uint256","name":"realmId","type":"uint256"},{"internalType":"uint256","name":"requiredBalance","type":"uint256"}],"name":"InsufficientBalance","type":"error"},{"inputs":[{"internalType":"address","name":"addr","type":"address"}],"name":"InvalidRealmIdContractAddress","type":"error"},{"inputs":[{"internalType":"uint256","name":"realmId","type":"uint256"},{"internalType":"uint256","name":"realmIdVersion","type":"uint256"}],"name":"InvalidRealmIdVersion","type":"error"},{"inputs":[{"internalType":"address","name":"account","type":"address"}],"name":"NotContractOwner","type":"error"},{"inputs":[{"internalType":"bytes32","name":"role","type":"bytes32"},{"internalType":"address","name":"account","type":"address"}],"name":"NotRoleHolder","type":"error"},{"inputs":[{"internalType":"bytes32","name":"season","type":"bytes32"}],"name":"SeasonAlreadySet","type":"error"},{"anonymous":false,"inputs":[{"indexed":false,"internalType":"address","name":"previousAdmin","type":"address"},{"indexed":false,"internalType":"address","name":"newAdmin","type":"address"}],"name":"AdminChanged","type":"event"},{"anonymous":false,"inputs":[{"indexed":false,"internalType":"bytes32[]","name":"reasonCodes","type":"bytes32[]"}],"name":"BatchAddedConsumeReasonCode","type":"event"},{"anonymous":false,"inputs":[{"indexed":false,"internalType":"bytes32[]","name":"reasonCodes","type":"bytes32[]"}],"name":"BatchRemovedConsumeReasonCode","type":"event"},{"anonymous":false,"inputs":[{"indexed":true,"internalType":"address","name":"beacon","type":"address"}],"name":"BeaconUpgraded","type":"event"},{"anonymous":false,"inputs":[{"indexed":true,"internalType":"uint256","name":"realmId","type":"uint256"},{"indexed":true,"internalType":"bytes32","name":"season","type":"bytes32"},{"indexed":true,"internalType":"bytes32","name":"reasonCode","type":"bytes32"},{"indexed":false,"internalType":"address","name":"operator","type":"address"},{"indexed":false,"internalType":"uint256","name":"realmIdVersion","type":"uint256"},{"indexed":false,"internalType":"uint256","name":"amount","type":"uint256"},{"indexed":false,"internalType":"address","name":"realmIdOwner","type":"address"}],"name":"Consumed","type":"event"},{"anonymous":false,"inputs":[{"indexed":true,"internalType":"address","name":"sender","type":"address"},{"indexed":true,"internalType":"bytes32","name":"season","type":"bytes32"},{"indexed":true,"internalType":"bytes32","name":"reasonCode","type":"bytes32"},{"indexed":false,"internalType":"uint256","name":"realmId","type":"uint256"},{"indexed":false,"internalType":"uint256","name":"realmIdVersion","type":"uint256"},{"indexed":false,"internalType":"uint256","name":"amount","type":"uint256"}],"name":"Deposited","type":"event"},{"anonymous":false,"inputs":[{"indexed":false,"internalType":"uint8","name":"version","type":"uint8"}],"name":"Initialized","type":"event"},{"anonymous":false,"inputs":[{"indexed":true,"internalType":"address","name":"previousOwner","type":"address"},{"indexed":true,"internalType":"address","name":"newOwner","type":"address"}],"name":"OwnershipTransferred","type":"event"},{"anonymous":false,"inputs":[{"indexed":false,"internalType":"bytes32","name":"role","type":"bytes32"},{"indexed":false,"internalType":"address","name":"account","type":"address"},{"indexed":false,"internalType":"address","name":"operator","type":"address"}],"name":"RoleGranted","type":"event"},{"anonymous":false,"inputs":[{"indexed":false,"internalType":"bytes32","name":"role","type":"bytes32"},{"indexed":false,"internalType":"address","name":"account","type":"address"},{"indexed":false,"internalType":"address","name":"operator","type":"address"}],"name":"RoleRevoked","type":"event"},{"anonymous":false,"inputs":[{"indexed":false,"internalType":"bytes32","name":"season","type":"bytes32"}],"name":"SetCurrentSeason","type":"event"},{"anonymous":false,"inputs":[{"indexed":true,"internalType":"address","name":"implementation","type":"address"}],"name":"Upgraded","type":"event"},{"inputs":[],"name":"ADMIN_ROLE","outputs":[{"internalType":"bytes32","name":"","type":"bytes32"}],"stateMutability":"view","type":"function"},{"inputs":[],"name":"DEPOSITOR_ROLE","outputs":[{"internalType":"bytes32","name":"","type":"bytes32"}],"stateMutability":"view","type":"function"},{"inputs":[{"internalType":"bytes32","name":"","type":"bytes32"}],"name":"allowedConsumeReasonCodes","outputs":[{"internalType":"bool","name":"","type":"bool"}],"stateMutability":"view","type":"function"},{"inputs":[{"internalType":"bytes32","name":"season","type":"bytes32"},{"internalType":"bytes32","name":"parentNode","type":"bytes32"},{"internalType":"string","name":"name","type":"string"}],"name":"balanceOf","outputs":[{"internalType":"uint256","name":"","type":"uint256"}],"stateMutability":"view","type":"function"},{"inputs":[{"internalType":"bytes32","name":"parentNode","type":"bytes32"},{"internalType":"string","name":"name","type":"string"}],"name":"balanceOf","outputs":[{"internalType":"uint256","name":"","type":"uint256"}],"stateMutability":"view","type":"function"},{"inputs":[{"internalType":"uint256","name":"realmId","type":"uint256"}],"name":"balanceOf","outputs":[{"internalType":"uint256","name":"","type":"uint256"}],"stateMutability":"view","type":"function"},{"inputs":[{"internalType":"bytes32","name":"season","type":"bytes32"},{"internalType":"uint256","name":"realmId","type":"uint256"}],"name":"balanceOf","outputs":[{"internalType":"uint256","name":"","type":"uint256"}],"stateMutability":"view","type":"function"},{"inputs":[{"internalType":"bytes32","name":"","type":"bytes32"},{"internalType":"uint256","name":"","type":"uint256"},{"internalType":"uint256","name":"","type":"uint256"}],"name":"balances","outputs":[{"internalType":"uint256","name":"","type":"uint256"}],"stateMutability":"view","type":"function"},{"inputs":[{"internalType":"bytes32[]","name":"reasonCodes","type":"bytes32[]"}],"name":"batchAddConsumeReasonCodes","outputs":[],"stateMutability":"nonpayable","type":"function"},{"inputs":[{"internalType":"bytes32[]","name":"reasonCodes","type":"bytes32[]"}],"name":"batchRemoveConsumeReasonCodes","outputs":[],"stateMutability":"nonpayable","type":"function"},{"inputs":[{"internalType":"bytes32","name":"parentNode","type":"bytes32"},{"internalType":"string","name":"name","type":"string"},{"internalType":"uint256","name":"amount","type":"uint256"},{"internalType":"bytes32","name":"consumeReasonCode","type":"bytes32"},{"internalType":"uint8","name":"v","type":"uint8"},{"internalType":"bytes32","name":"r","type":"bytes32"},{"internalType":"bytes32","name":"s","type":"bytes32"}],"name":"consume","outputs":[],"stateMutability":"nonpayable","type":"function"},{"inputs":[{"internalType":"uint256","name":"realmId","type":"uint256"},{"internalType":"uint256","name":"amount","type":"uint256"},{"internalType":"bytes32","name":"consumeReasonCode","type":"bytes32"}],"name":"consume","outputs":[],"stateMutability":"nonpayable","type":"function"},{"inputs":[{"internalType":"uint256","name":"realmId","type":"uint256"},{"internalType":"uint256","name":"amount","type":"uint256"},{"internalType":"bytes32","name":"consumeReasonCode","type":"bytes32"},{"internalType":"uint8","name":"v","type":"uint8"},{"internalType":"bytes32","name":"r","type":"bytes32"},{"internalType":"bytes32","name":"s","type":"bytes32"}],"name":"consume","outputs":[],"stateMutability":"nonpayable","type":"function"},{"inputs":[{"internalType":"bytes32","name":"parentNode","type":"bytes32"},{"internalType":"string","name":"name","type":"string"},{"internalType":"uint256","name":"amount","type":"uint256"},{"internalType":"bytes32","name":"consumeReasonCode","type":"bytes32"}],"name":"consume","outputs":[],"stateMutability":"nonpayable","type":"function"},{"inputs":[],"name":"currentSeason","outputs":[{"internalType":"bytes32","name":"","type":"bytes32"}],"stateMutability":"view","type":"function"},{"inputs":[{"internalType":"bytes32","name":"season","type":"bytes32"},{"internalType":"uint256","name":"realmId","type":"uint256"},{"internalType":"uint256","name":"realmIdVersion","type":"uint256"},{"internalType":"uint256","name":"amount","type":"uint256"},{"internalType":"bytes32","name":"depositReasonCode","type":"bytes32"}],"name":"deposit","outputs":[],"stateMutability":"nonpayable","type":"function"},{"inputs":[{"internalType":"bytes32","name":"season","type":"bytes32"},{"internalType":"bytes32","name":"parentNode","type":"bytes32"},{"internalType":"string","name":"name","type":"string"},{"internalType":"uint256","name":"realmIdVersion","type":"uint256"},{"internalType":"uint256","name":"amount","type":"uint256"},{"internalType":"bytes32","name":"depositReasonCode","type":"bytes32"}],"name":"deposit","outputs":[],"stateMutability":"nonpayable","type":"function"},{"inputs":[{"internalType":"bytes32","name":"role","type":"bytes32"},{"internalType":"address","name":"account","type":"address"}],"name":"grantRole","outputs":[],"stateMutability":"nonpayable","type":"function"},{"inputs":[{"internalType":"bytes32","name":"role","type":"bytes32"},{"internalType":"address","name":"account","type":"address"}],"name":"hasRole","outputs":[{"internalType":"bool","name":"hasRole_","type":"bool"}],"stateMutability":"view","type":"function"},{"inputs":[],"name":"initialize","outputs":[],"stateMutability":"nonpayable","type":"function"},{"inputs":[{"internalType":"uint256","name":"","type":"uint256"}],"name":"nonces","outputs":[{"internalType":"uint256","name":"","type":"uint256"}],"stateMutability":"view","type":"function"},{"inputs":[],"name":"owner","outputs":[{"internalType":"address","name":"","type":"address"}],"stateMutability":"view","type":"function"},{"inputs":[{"internalType":"uint256","name":"realmId","type":"uint256"},{"internalType":"uint256","name":"amount","type":"uint256"},{"internalType":"bytes32","name":"reasonCode","type":"bytes32"}],"name":"preparePayload","outputs":[{"internalType":"bytes32","name":"","type":"bytes32"}],"stateMutability":"view","type":"function"},{"inputs":[],"name":"proxiableUUID","outputs":[{"internalType":"bytes32","name":"","type":"bytes32"}],"stateMutability":"view","type":"function"},{"inputs":[],"name":"realmIdContract","outputs":[{"internalType":"contract IRealmId","name":"","type":"address"}],"stateMutability":"view","type":"function"},{"inputs":[{"internalType":"bytes32","name":"role","type":"bytes32"}],"name":"renounceRole","outputs":[],"stateMutability":"nonpayable","type":"function"},{"inputs":[{"internalType":"bytes32","name":"role","type":"bytes32"},{"internalType":"address","name":"account","type":"address"}],"name":"revokeRole","outputs":[],"stateMutability":"nonpayable","type":"function"},{"inputs":[{"internalType":"bytes32","name":"","type":"bytes32"}],"name":"seasons","outputs":[{"internalType":"bool","name":"","type":"bool"}],"stateMutability":"view","type":"function"},{"inputs":[{"internalType":"bytes32","name":"season","type":"bytes32"}],"name":"setCurrentSeason","outputs":[],"stateMutability":"nonpayable","type":"function"},{"inputs":[{"internalType":"address","name":"newOwner","type":"address"}],"name":"transferOwnership","outputs":[],"stateMutability":"nonpayable","type":"function"},{"inputs":[{"internalType":"address","name":"newImplementation","type":"address"}],"name":"upgradeTo","outputs":[],"stateMutability":"nonpayable","type":"function"},{"inputs":[{"internalType":"address","name":"newImplementation","type":"address"},{"internalType":"bytes","name":"data","type":"bytes"}],"name":"upgradeToAndCall","outputs":[],"stateMutability":"payable","type":"function"}],"devdoc":{"errors":{"InitializationPhaseAlreadyReached(uint256,uint256)":[{"params":{"currentPhase":"The current phase.","newPhase":"The new phase trying to be set."}}],"NotContractOwner(address)":[{"params":{"account":"The account that was checked."}}],"NotRoleHolder(bytes32,address)":[{"params":{"account":"The account that was checked.","role":"The role the caller is missing."}}]},"events":{"AdminChanged(address,address)":{"details":"Emitted when the admin account has changed."},"BatchAddedConsumeReasonCode(bytes32[])":{"params":{"reasonCodes":"The reason codes added to the mapping."}},"BatchRemovedConsumeReasonCode(bytes32[])":{"params":{"reasonCodes":"The reason codes removed from the mapping."}},"BeaconUpgraded(address)":{"details":"Emitted when the beacon is changed."},"Consumed(uint256,bytes32,bytes32,address,uint256,uint256,address)":{"params":{"amount":"The amount consumed.","operator":"The sender of the consumption.","realmId":"The realmId of the balance consumed from.","realmIdOwner":"The realmId owner's address.","realmIdVersion":"The realmId version.","reasonCode":"The reason code of the consumption.","season":"The season of the balance consumed from."}},"Deposited(address,bytes32,bytes32,uint256,uint256,uint256)":{"params":{"amount":"The amount deposited.","realmId":"The realmId of the balance deposited to.","realmIdVersion":"The realmId version.","reasonCode":"The reason code of the deposit.","season":"The season of the balance deposited to.","sender":"The sender of the deposit."}},"Initialized(uint8)":{"details":"Triggered when the contract has been initialized or reinitialized."},"OwnershipTransferred(address,address)":{"params":{"newOwner":"the new contract owner.","previousOwner":"the previous contract owner."}},"RoleGranted(bytes32,address,address)":{"params":{"account":"The account that has been granted the role.","operator":"The account that granted the role.","role":"The role that has been granted."}},"RoleRevoked(bytes32,address,address)":{"params":{"account":"The account that has been revoked the role.","operator":"The account that revoked the role.","role":"The role that has been revoked."}},"SetCurrentSeason(bytes32)":{"params":{"season":"The new season being set."}},"Upgraded(address)":{"details":"Emitted when the implementation is upgraded."}},"kind":"dev","methods":{"balanceOf(bytes32,bytes32,string)":{"details":"Reverts if fails to resolve realmId from the given parent node and name.Reverts if fails to resolve realmId's version.","params":{"name":"The name of the realmId.","parentNode":"The parent node of the realmId.","season":"The season."},"returns":{"_0":"The balance."}},"balanceOf(bytes32,string)":{"details":"Reverts if fails to resolve realmId from the given parent node and name.Reverts if fails to resolve realmId's version.","params":{"name":"The name of the realmId.","parentNode":"The parent node of the realmId."},"returns":{"_0":"The balance."}},"balanceOf(bytes32,uint256)":{"details":"Reverts if fails to resolve realmId's version.","params":{"realmId":"The realmId.","season":"The season."},"returns":{"_0":"The balance."}},"balanceOf(uint256)":{"details":"Reverts if fails to resolve realmId's version.","params":{"realmId":"The realmId."},"returns":{"_0":"The balance."}},"batchAddConsumeReasonCodes(bytes32[])":{"details":"Reverts if sender does not have Admin role.Reverts if the given reason codes array is empty.Reverts if any of the given reason codes already exists in the mapping.Emits a {BatchAddedConsumeReasonCode} event if all the given reason codes are successfully added.","params":{"reasonCodes":"Array of reason codes to add."}},"batchRemoveConsumeReasonCodes(bytes32[])":{"details":"Reverts if sender does not have Admin role.Reverts if the given reason codes array is empty.Reverts if any of the given reason codes do not exist in the mapping.Emits a {BatchRemovedConsumeReasonCode} event if all the given reason codes are successfully removed.","params":{"reasonCodes":"Array of reason codes to remove."}},"constructor":{"custom:oz-upgrades-unsafe-allow":"constructor","params":{"realmIdContractAddress":"The realmId contract address."}},"consume(bytes32,string,uint256,bytes32)":{"details":"Reverts if fails to resolve realmId from the given parent node and name.Reverts if fails to resolve owner of the realmId.Reverts if the sender is not the owner of the realmId.Reverts if fails to resolve realmId's version.Reverts if balance is insufficient.Reverts if the consume reason code is not allowed.Emits a {Consumed} event if the consumption is successful.","params":{"amount":"The amount to consume.","consumeReasonCode":"The reason code of the consumption.","name":"The name of the realmId.","parentNode":"The parent node of the realmId."}},"consume(bytes32,string,uint256,bytes32,uint8,bytes32,bytes32)":{"details":"Reverts if fails to resolve realmId from the given parent node and name.Reverts if fails to resolve realmId's version.Reverts if signature is invalid.Reverts if fails to resolve owner of the realmId.Reverts if signer is not the realmId owner.Reverts if balance is insufficient.Reverts if the consume reason code is not allowed.Emits a {Consumed} event if the consumption is successful.","params":{"amount":"The amount to consume.","consumeReasonCode":"The reason code of the consumption.","name":"The name of the realmId.","parentNode":"The parent node of the realmId.","r":"r value of the signature.","s":"s value of the signature.","v":"v value of the signature."}},"consume(uint256,uint256,bytes32)":{"details":"Reverts if fails to resolve owner of the realmId.Reverts if the sender is not the owner of the realmId.Reverts if fails to resolve realmId's version.Reverts if balance is insufficient.Reverts if the consume reason code is not allowed.Emits a {Consumed} event if the consumption is successful.","params":{"amount":"The amount to consume.","consumeReasonCode":"The reason code of the consumption.","realmId":"The realmId to deposit to."}},"consume(uint256,uint256,bytes32,uint8,bytes32,bytes32)":{"details":"Reverts if failes to resolve realmId's version.Reverts if signature is invalid.Reverts if fails to resolve owner of the realmId.Reverts if signer is not the realmId owner.Reverts if balance is insufficient.Reverts if the consume reason code is not allowed.Emits a {Consumed} event if the consumption is successful.","params":{"amount":"The amount to consume.","consumeReasonCode":"The reason code of the consumption.","r":"r value of the signature.","realmId":"The realmId to consume from.","s":"s value of the signature.","v":"v value of the signature."}},"deposit(bytes32,bytes32,string,uint256,uint256,bytes32)":{"details":"Reverts if sender does not have Depositor role.Emits a {Deposited} event with msg.sender as the sender.","params":{"amount":"The amount to deposit.","depositReasonCode":"The reason code of the deposit.","name":"The name associated with the realmId.","parentNode":"The parent node associated with the realmId.","realmIdVersion":"The realmId version.","season":"The season to deposit to."}},"deposit(bytes32,uint256,uint256,uint256,bytes32)":{"details":"Reverts if sender does not have Depositor role.Emits a {Deposited} event if successful.","params":{"amount":"The amount to deposit.","depositReasonCode":"The reason code of the deposit.","realmId":"The realmId to deposit to.","realmIdVersion":"The realmId version.","season":"The season to deposit to."}},"grantRole(bytes32,address)":{"details":"Reverts with {NotContractOwner} if the sender is not the contract owner.Emits a {RoleGranted} event if the account did not previously have the role.","params":{"account":"The account to grant the role to.","role":"The role to grant."}},"hasRole(bytes32,address)":{"params":{"account":"The account.","role":"The role."},"returns":{"hasRole_":"Whether `account` has `role`."}},"initialize()":{"details":"Reverts if the given address is invalid (equal to ZeroAddress)."},"owner()":{"returns":{"_0":"The address of the contract owner."}},"preparePayload(uint256,uint256,bytes32)":{"details":"Reverts if fails to resolve the realmId's version.","params":{"amount":"The amount.","realmId":"The realmId.","reasonCode":"The reason code."},"returns":{"_0":"The payload."}},"proxiableUUID()":{"details":"Implementation of the ERC1822 {proxiableUUID} function. This returns the storage slot used by the implementation. It is used to validate the implementation's compatibility when performing an upgrade. IMPORTANT: A proxy pointing at a proxiable contract should not be considered proxiable itself, because this risks bricking a proxy that upgrades to it, by delegating to itself until out of gas. Thus it is critical that this function revert if invoked through a proxy. This is guaranteed by the `notDelegated` modifier."},"renounceRole(bytes32)":{"details":"Reverts if `sender` does not have `role`.Emits a {RoleRevoked} event.","params":{"role":"The role to renounce."}},"revokeRole(bytes32,address)":{"details":"Reverts with {NotContractOwner} if the sender is not the contract owner.Emits a {RoleRevoked} event if the account previously had the role.","params":{"account":"The account to revoke the role from.","role":"The role to revoke."}},"setCurrentSeason(bytes32)":{"details":"Reverts if sender does not have Admin role.Reverts if the given season has already been set before.Emits a {SetCurrentSeason} event if successful.","params":{"season":"The season to set."}},"transferOwnership(address)":{"details":"Reverts if the sender is not the contract owner.Emits an {OwnershipTransferred} event if `newOwner` is different from the current contract owner.","params":{"newOwner":"The address of the new contract owner. Using the zero address means renouncing ownership."}},"upgradeTo(address)":{"custom:oz-upgrades-unsafe-allow-reachable":"delegatecall","details":"Upgrade the implementation of the proxy to `newImplementation`. Calls {_authorizeUpgrade}. Emits an {Upgraded} event."},"upgradeToAndCall(address,bytes)":{"custom:oz-upgrades-unsafe-allow-reachable":"delegatecall","details":"Upgrade the implementation of the proxy to `newImplementation`, and subsequently execute the function call encoded in `data`. Calls {_authorizeUpgrade}. Emits an {Upgraded} event."}},"stateVariables":{"realmIdContract":{"custom:oz-upgrades-unsafe-allow":"state-variable-immutable"}},"title":"MocaPoints","version":1},"evm":{"bytecode":{"linkReferences":{},"object":"60c0604052306080523480156200001557600080fd5b50604051620038f9380380620038f9833981016040819052620000389162000081565b6001600160a01b0381166200006f576040516382dd9ba360e01b81526001600160a01b038216600482015260240160405180910390fd5b6001600160a01b031660a052620000b3565b6000602082840312156200009457600080fd5b81516001600160a01b0381168114620000ac57600080fd5b9392505050565b60805160a051613794620001656000396000818161027c015281816106860152818161076c0152818161086d0152818161092001528181611110015281816111f601528181611772015281816118500152818161192a01528181611a0601528181611ac901528181611bce01528181611cb901528181611eb1015281816120320152612143015260008181610ab401528181610b6401528181610e4001528181610ef0015261103901526137946000f3fe6080604052600436106101e35760003560e01c80638da5cb5b11610102578063bcb3962111610095578063df00bb2411610064578063df00bb24146105f1578063e564a0e214610611578063f2fde38b14610631578063f95159621461065157600080fd5b8063bcb396211461057b578063d14a5c7114610591578063d547741f146105b1578063dc893ce4146105d157600080fd5b80639cc7f708116100d15780639cc7f708146104e75780639d70b00514610507578063a3b0b5a314610527578063ad3b1d481461055b57600080fd5b80638da5cb5b14610472578063906405a31461048757806391d14854146104a757806399d342ac146104c757600080fd5b80634f1ef2861161017a578063794459be11610149578063794459be146103fd5780638129fc1c1461041d57806386a8e98a146104325780638bb9c5bf1461045257600080fd5b80634f1ef2861461036357806351955dfc1461037657806352d1902d146103b457806375b238fc146103c957600080fd5b80632f2ff15d116101b65780632f2ff15d146102c35780633659cfe6146102e35780633f30b00f146103035780634529cc1b1461032357600080fd5b8063098b6419146101e8578063141a468c1461021b57806318ee89f0146102485780632b48dc721461026a575b600080fd5b3480156101f457600080fd5b50610208610203366004613018565b610681565b6040519081526020015b60405180910390f35b34801561022757600080fd5b5061020861023636600461306b565b60686020526000908152604090205481565b34801561025457600080fd5b50610268610263366004613084565b610809565b005b34801561027657600080fd5b5061029e7f000000000000000000000000000000000000000000000000000000000000000081565b60405173ffffffffffffffffffffffffffffffffffffffff9091168152602001610212565b3480156102cf57600080fd5b506102686102de3660046130e1565b610a6f565b3480156102ef57600080fd5b506102686102fe366004613111565b610a9d565b34801561030f57600080fd5b5061026861031e366004613135565b610ca2565b34801561032f57600080fd5b5061035361033e36600461306b565b60666020526000908152604090205460ff1681565b6040519015158152602001610212565b6102686103713660046131d9565b610e29565b34801561038257600080fd5b506102086103913660046132bb565b606760209081526000938452604080852082529284528284209052825290205481565b3480156103c057600080fd5b5061020861101f565b3480156103d557600080fd5b506102087fa49807205ce4d355092ef5a8a18f56e8913cf4a201fbe287825b095693c2177581565b34801561040957600080fd5b506102086104183660046132e7565b61110b565b34801561042957600080fd5b50610268611293565b34801561043e57600080fd5b5061026861044d36600461306b565b611437565b34801561045e57600080fd5b5061026861046d36600461306b565b61151b565b34801561047e57600080fd5b5061029e61152f565b34801561049357600080fd5b506102686104a2366004613135565b61155b565b3480156104b357600080fd5b506103536104c23660046130e1565b6116e5565b3480156104d357600080fd5b506102686104e2366004613349565b611732565b3480156104f357600080fd5b5061020861050236600461306b565b611807565b34801561051357600080fd5b506102686105223660046133cc565b6118ea565b34801561053357600080fd5b506102087f8f4f2da22e8ac8f11e15f9fc141cddbb5deea8800186560abb6e68c5496619a981565b34801561056757600080fd5b5061020861057636600461343a565b6119bd565b34801561058757600080fd5b5061020860655481565b34801561059d57600080fd5b506102686105ac3660046132bb565b611a97565b3480156105bd57600080fd5b506102686105cc3660046130e1565b611c64565b3480156105dd57600080fd5b506102686105ec36600461345c565b611c87565b3480156105fd57600080fd5b5061020861060c3660046132bb565b611fe9565b34801561061d57600080fd5b5061026861062c3660046134ad565b612103565b34801561063d57600080fd5b5061026861064c366004613111565b6121d2565b34801561065d57600080fd5b5061035361066c36600461306b565b60696020526000908152604090205460ff1681565b6000807f000000000000000000000000000000000000000000000000000000000000000073ffffffffffffffffffffffffffffffffffffffff1663cad6b9018585886040518463ffffffff1660e01b81526004016106e19392919061350b565b602060405180830381865afa1580156106fe573d6000803e3d6000fd5b505050506040513d601f19601f820116820180604052508101906107229190613562565b6040517fa9735f940000000000000000000000000000000000000000000000000000000081526004810182905290915060009073ffffffffffffffffffffffffffffffffffffffff7f0000000000000000000000000000000000000000000000000000000000000000169063a9735f9490602401602060405180830381865afa1580156107b3573d6000803e3d6000fd5b505050506040513d601f19601f820116820180604052508101906107d79190613562565b60008881526067602090815260408083209583529481528482209282529190915291909120549150505b949350505050565b61083e7f8f4f2da22e8ac8f11e15f9fc141cddbb5deea8800186560abb6e68c5496619a9335b6108376121e6565b9190612214565b6040517f6352211e000000000000000000000000000000000000000000000000000000008152600481018590527f000000000000000000000000000000000000000000000000000000000000000073ffffffffffffffffffffffffffffffffffffffff1690636352211e90602401602060405180830381865afa1580156108c9573d6000803e3d6000fd5b505050506040513d601f19601f820116820180604052508101906108ed919061357b565b506040517fa9735f94000000000000000000000000000000000000000000000000000000008152600481018590526000907f000000000000000000000000000000000000000000000000000000000000000073ffffffffffffffffffffffffffffffffffffffff169063a9735f9490602401602060405180830381865afa15801561097c573d6000803e3d6000fd5b505050506040513d601f19601f820116820180604052508101906109a09190613562565b90508381146109ea576040517fb196cc7700000000000000000000000000000000000000000000000000000000815260048101869052602481018590526044015b60405180910390fd5b6000868152606760209081526040808320888452825280832087845290915281208054859290610a1b9084906135c7565b9091555050604080518681526020810186905280820185905290518391889133917f9092bf6bd1cf7db4fcf41aedc7c0333b51c57f5b80b429bc3d9caa5587c6ad82919081900360600190a4505050505050565b33610a8281610a7c61229a565b906122c8565b610a98838383610a906121e6565b929190612333565b505050565b73ffffffffffffffffffffffffffffffffffffffff7f0000000000000000000000000000000000000000000000000000000000000000163003610b62576040517f08c379a000000000000000000000000000000000000000000000000000000000815260206004820152602c60248201527f46756e6374696f6e206d7573742062652063616c6c6564207468726f7567682060448201527f64656c656761746563616c6c000000000000000000000000000000000000000060648201526084016109e1565b7f000000000000000000000000000000000000000000000000000000000000000073ffffffffffffffffffffffffffffffffffffffff16610bd77f360894a13ba1a3210667c828492db98dca3e2076cc3735a920a3ca505d382bbc5473ffffffffffffffffffffffffffffffffffffffff1690565b73ffffffffffffffffffffffffffffffffffffffff1614610c7a576040517f08c379a000000000000000000000000000000000000000000000000000000000815260206004820152602c60248201527f46756e6374696f6e206d7573742062652063616c6c6564207468726f7567682060448201527f6163746976652070726f7879000000000000000000000000000000000000000060648201526084016109e1565b610c838161240a565b60408051600080825260208201909252610c9f91839190612416565b50565b610ccc7fa49807205ce4d355092ef5a8a18f56e8913cf4a201fbe287825b095693c217753361082f565b80610d03576040517f3fb4608600000000000000000000000000000000000000000000000000000000815260040160405180910390fd5b60005b81811015610deb5760696000848484818110610d2457610d246135da565b602090810292909201358352508101919091526040016000205460ff1615610d9457828282818110610d5857610d586135da565b905060200201356040517fb64212420000000000000000000000000000000000000000000000000000000081526004016109e191815260200190565b600160696000858585818110610dac57610dac6135da565b90506020020135815260200190815260200160002060006101000a81548160ff0219169083151502179055508080610de390613609565b915050610d06565b507f0d8c56a8918ec09c2fe3c4d9fcc00ece66df217a1ab3ad768dd0a71620da5b4e8282604051610e1d929190613641565b60405180910390a15050565b73ffffffffffffffffffffffffffffffffffffffff7f0000000000000000000000000000000000000000000000000000000000000000163003610eee576040517f08c379a000000000000000000000000000000000000000000000000000000000815260206004820152602c60248201527f46756e6374696f6e206d7573742062652063616c6c6564207468726f7567682060448201527f64656c656761746563616c6c000000000000000000000000000000000000000060648201526084016109e1565b7f000000000000000000000000000000000000000000000000000000000000000073ffffffffffffffffffffffffffffffffffffffff16610f637f360894a13ba1a3210667c828492db98dca3e2076cc3735a920a3ca505d382bbc5473ffffffffffffffffffffffffffffffffffffffff1690565b73ffffffffffffffffffffffffffffffffffffffff1614611006576040517f08c379a000000000000000000000000000000000000000000000000000000000815260206004820152602c60248201527f46756e6374696f6e206d7573742062652063616c6c6564207468726f7567682060448201527f6163746976652070726f7879000000000000000000000000000000000000000060648201526084016109e1565b61100f8261240a565b61101b82826001612416565b5050565b60003073ffffffffffffffffffffffffffffffffffffffff7f000000000000000000000000000000000000000000000000000000000000000016146110e6576040517f08c379a000000000000000000000000000000000000000000000000000000000815260206004820152603860248201527f555550535570677261646561626c653a206d757374206e6f742062652063616c60448201527f6c6564207468726f7567682064656c656761746563616c6c000000000000000060648201526084016109e1565b507f360894a13ba1a3210667c828492db98dca3e2076cc3735a920a3ca505d382bbc90565b6000807f000000000000000000000000000000000000000000000000000000000000000073ffffffffffffffffffffffffffffffffffffffff1663cad6b9018585886040518463ffffffff1660e01b815260040161116b9392919061350b565b602060405180830381865afa158015611188573d6000803e3d6000fd5b505050506040513d601f19601f820116820180604052508101906111ac9190613562565b6040517fa9735f940000000000000000000000000000000000000000000000000000000081526004810182905290915060009073ffffffffffffffffffffffffffffffffffffffff7f0000000000000000000000000000000000000000000000000000000000000000169063a9735f9490602401602060405180830381865afa15801561123d573d6000803e3d6000fd5b505050506040513d601f19601f820116820180604052508101906112619190613562565b606554600090815260676020908152604080832095835294815284822092825291909152919091205495945050505050565b600054610100900460ff16158080156112b35750600054600160ff909116105b806112cd5750303b1580156112cd575060005460ff166001145b611359576040517f08c379a000000000000000000000000000000000000000000000000000000000815260206004820152602e60248201527f496e697469616c697a61626c653a20636f6e747261637420697320616c72656160448201527f647920696e697469616c697a656400000000000000000000000000000000000060648201526084016109e1565b600080547fffffffffffffffffffffffffffffffffffffffffffffffffffffffffffffff0016600117905580156113b757600080547fffffffffffffffffffffffffffffffffffffffffffffffffffffffffffff00ff166101001790555b6113bf612615565b6113d1336113cb61229a565b906126ae565b8015610c9f57600080547fffffffffffffffffffffffffffffffffffffffffffffffffffffffffffff00ff169055604051600181527f7f26b83ff96e1f2b6a682f133852f6798a09c465da95921460cefb3847402498906020015b60405180910390a150565b6114617fa49807205ce4d355092ef5a8a18f56e8913cf4a201fbe287825b095693c217753361082f565b60008181526066602052604090205460ff16156114ad576040517f796c3e9a000000000000000000000000000000000000000000000000000000008152600481018290526024016109e1565b60658190556000818152606660205260409081902080547fffffffffffffffffffffffffffffffffffffffffffffffffffffffffffffff00166001179055517f61228c895f8ba06548597d3e34a23bc0ecb6d1e62a1eb3fa30be04883a17ef319061142c9083815260200190565b610c9f33826115286121e6565b91906126ed565b600061155661153c61229a565b5473ffffffffffffffffffffffffffffffffffffffff1690565b905090565b6115857fa49807205ce4d355092ef5a8a18f56e8913cf4a201fbe287825b095693c217753361082f565b806115bc576040517f3fb4608600000000000000000000000000000000000000000000000000000000815260040160405180910390fd5b60005b818110156116b357606960008484848181106115dd576115dd6135da565b602090810292909201358352508101919091526040016000205460ff1661164c57828282818110611610576116106135da565b905060200201356040517fa89513e10000000000000000000000000000000000000000000000000000000081526004016109e191815260200190565b60696000848484818110611662576116626135da565b6020908102929092013583525081019190915260400160002080547fffffffffffffffffffffffffffffffffffffffffffffffffffffffffffffff00169055806116ab81613609565b9150506115bf565b507f5b2c9fcbb27d48bdbfc59f0564b5ba81539309ebf09a940fad64d171bcfb9ff98282604051610e1d929190613641565b600061172983836116f46121e6565b60009283526020908152604080842073ffffffffffffffffffffffffffffffffffffffff909316845291905290205460ff1690565b90505b92915050565b6040517fcad6b90100000000000000000000000000000000000000000000000000000000815260009073ffffffffffffffffffffffffffffffffffffffff7f0000000000000000000000000000000000000000000000000000000000000000169063cad6b901906117ab908b908b908e9060040161350b565b602060405180830381865afa1580156117c8573d6000803e3d6000fd5b505050506040513d601f19601f820116820180604052508101906117ec9190613562565b90506117fc818787878787611c87565b505050505050505050565b6040517fa9735f9400000000000000000000000000000000000000000000000000000000815260048101829052600090819073ffffffffffffffffffffffffffffffffffffffff7f0000000000000000000000000000000000000000000000000000000000000000169063a9735f9490602401602060405180830381865afa158015611897573d6000803e3d6000fd5b505050506040513d601f19601f820116820180604052508101906118bb9190613562565b606554600090815260676020908152604080832096835295815285822092825291909152929092205492915050565b6040517fcad6b90100000000000000000000000000000000000000000000000000000000815260009073ffffffffffffffffffffffffffffffffffffffff7f0000000000000000000000000000000000000000000000000000000000000000169063cad6b9019061196390899089908c9060040161350b565b602060405180830381865afa158015611980573d6000803e3d6000fd5b505050506040513d601f19601f820116820180604052508101906119a49190613562565b90506119b38882868686610809565b5050505050505050565b6040517fa9735f9400000000000000000000000000000000000000000000000000000000815260048101829052600090819073ffffffffffffffffffffffffffffffffffffffff7f0000000000000000000000000000000000000000000000000000000000000000169063a9735f9490602401602060405180830381865afa158015611a4d573d6000803e3d6000fd5b505050506040513d601f19601f82011682018060405250810190611a719190613562565b600094855260676020908152604080872095875294815284862091865252505090205490565b6040517f6352211e000000000000000000000000000000000000000000000000000000008152600481018490526000907f000000000000000000000000000000000000000000000000000000000000000073ffffffffffffffffffffffffffffffffffffffff1690636352211e90602401602060405180830381865afa158015611b25573d6000803e3d6000fd5b505050506040513d601f19601f82011682018060405250810190611b49919061357b565b90503373ffffffffffffffffffffffffffffffffffffffff821614611b9c576040517f33ffff9b0000000000000000000000000000000000000000000000000000000081523360048201526024016109e1565b6040517fa9735f94000000000000000000000000000000000000000000000000000000008152600481018590526000907f000000000000000000000000000000000000000000000000000000000000000073ffffffffffffffffffffffffffffffffffffffff169063a9735f9490602401602060405180830381865afa158015611c2a573d6000803e3d6000fd5b505050506040513d601f19601f82011682018060405250810190611c4e9190613562565b9050611c5d8582868686612791565b5050505050565b33611c7181610a7c61229a565b610a98838383611c7f6121e6565b9291906128e8565b6040517fa9735f94000000000000000000000000000000000000000000000000000000008152600481018790526000907f000000000000000000000000000000000000000000000000000000000000000073ffffffffffffffffffffffffffffffffffffffff169063a9735f9490602401602060405180830381865afa158015611d15573d6000803e3d6000fd5b505050506040513d601f19601f82011682018060405250810190611d399190613562565b60008881526068602090815260408083205460655482518085018e9052808401879052606081018d9052608081019190915260a081018b905260c0808201929092528251808203909201825260e0019091528051910120919250906040517f19457468657265756d205369676e6564204d6573736167653a0a3332000000006020820152603c8101829052909150600090605c01604080517fffffffffffffffffffffffffffffffffffffffffffffffffffffffffffffffe08184030181528282528051602091820120600080855291840180845281905260ff8a169284019290925260608301889052608083018790529092509060019060a0016020604051602081039080840390855afa158015611e56573d6000803e3d6000fd5b50506040517fffffffffffffffffffffffffffffffffffffffffffffffffffffffffffffffe08101517f6352211e000000000000000000000000000000000000000000000000000000008252600482018d90529250600091507f000000000000000000000000000000000000000000000000000000000000000073ffffffffffffffffffffffffffffffffffffffff1690636352211e90602401602060405180830381865afa158015611f0d573d6000803e3d6000fd5b505050506040513d601f19601f82011682018060405250810190611f31919061357b565b90508073ffffffffffffffffffffffffffffffffffffffff168273ffffffffffffffffffffffffffffffffffffffff1614611fb0576040517f33ffff9b00000000000000000000000000000000000000000000000000000000815273ffffffffffffffffffffffffffffffffffffffff831660048201526024016109e1565b611fbd8b868c8c85612791565b60008b8152606860205260408120805491611fd783613609565b91905055505050505050505050505050565b6040517fa9735f9400000000000000000000000000000000000000000000000000000000815260048101849052600090819073ffffffffffffffffffffffffffffffffffffffff7f0000000000000000000000000000000000000000000000000000000000000000169063a9735f9490602401602060405180830381865afa158015612079573d6000803e3d6000fd5b505050506040513d601f19601f8201168201806040525081019061209d9190613562565b60008681526068602090815260408083205460655482518085018c9052808401879052606081018b9052608081019190915260a0810189905260c0808201929092528251808203909201825260e0019091528051910120919250905b9695505050505050565b6040517fcad6b90100000000000000000000000000000000000000000000000000000000815260009073ffffffffffffffffffffffffffffffffffffffff7f0000000000000000000000000000000000000000000000000000000000000000169063cad6b9019061217c90889088908b9060040161350b565b602060405180830381865afa158015612199573d6000803e3d6000fd5b505050506040513d601f19601f820116820180604052508101906121bd9190613562565b90506121ca818484611a97565b505050505050565b610c9f33826121df61229a565b91906129b2565b60008061172c60017fc8827d3282af6f37b64c3e9e6f3ac9df286ab0bb0fccd6f8661bf19adb368b23613693565b60008281526020848152604080832073ffffffffffffffffffffffffffffffffffffffff8516845290915290205460ff16610a98576040517f7aa728820000000000000000000000000000000000000000000000000000000081526004810183905273ffffffffffffffffffffffffffffffffffffffff821660248201526044016109e1565b60008061172c60017fc9ed16f33ab3a66c84bfd83099ccb2a8845871e2e1c1928f63797152f0fd54cd613693565b815473ffffffffffffffffffffffffffffffffffffffff82811691161461101b576040517f2ef4875e00000000000000000000000000000000000000000000000000000000815273ffffffffffffffffffffffffffffffffffffffff821660048201526024016109e1565b60008381526020858152604080832073ffffffffffffffffffffffffffffffffffffffff8616845290915290205460ff166124045760008381526020858152604080832073ffffffffffffffffffffffffffffffffffffffff8681168086529184529382902080547fffffffffffffffffffffffffffffffffffffffffffffffffffffffffffffff00166001179055815187815292830152918316918101919091527f2f8788117e7eff1d82e926ec794901d17c78024a50270940304540a733656f0d906060015b60405180910390a15b50505050565b610c9f33610a7c61229a565b7f4910fdfa16fed3260ed0e7147f7cc6da11a60208b5b9406d12a635614ffd91435460ff161561244957610a9883612ac6565b8273ffffffffffffffffffffffffffffffffffffffff166352d1902d6040518163ffffffff1660e01b8152600401602060405180830381865afa9250505080156124ce575060408051601f3d9081017fffffffffffffffffffffffffffffffffffffffffffffffffffffffffffffffe01682019092526124cb91810190613562565b60015b61255a576040517f08c379a000000000000000000000000000000000000000000000000000000000815260206004820152602e60248201527f45524331393637557067726164653a206e657720696d706c656d656e7461746960448201527f6f6e206973206e6f74205555505300000000000000000000000000000000000060648201526084016109e1565b7f360894a13ba1a3210667c828492db98dca3e2076cc3735a920a3ca505d382bbc8114612609576040517f08c379a000000000000000000000000000000000000000000000000000000000815260206004820152602960248201527f45524331393637557067726164653a20756e737570706f727465642070726f7860448201527f6961626c6555554944000000000000000000000000000000000000000000000060648201526084016109e1565b50610a98838383612bd0565b600054610100900460ff166126ac576040517f08c379a000000000000000000000000000000000000000000000000000000000815260206004820152602b60248201527f496e697469616c697a61626c653a20636f6e7472616374206973206e6f74206960448201527f6e697469616c697a696e6700000000000000000000000000000000000000000060648201526084016109e1565b565b6126e36126dc60017f5b388d90dc1312ba799f321972f13311234fa1163bcabec7cf66101c4876eb84613693565b6001612bf5565b61101b8282612c41565b6126f8838284612214565b60008181526020848152604080832073ffffffffffffffffffffffffffffffffffffffff86168085529083529281902080547fffffffffffffffffffffffffffffffffffffffffffffffffffffffffffffff0016905580518481529182018390528101919091527ff6391f5c32d9c69d2a47ea670b442974b53935d1edc7fd64eb21e047a839171b9060600160405180910390a1505050565b606554600090815260676020908152604080832088845282528083208784529091529020548311156127f9576040517fcf47918100000000000000000000000000000000000000000000000000000000815260048101869052602481018490526044016109e1565b60008281526069602052604090205460ff16612844576040517fa89513e1000000000000000000000000000000000000000000000000000000008152600481018390526024016109e1565b6065546000908152606760209081526040808320888452825280832087845290915281208054859290612878908490613693565b9091555050606554604080513381526020810187905280820186905273ffffffffffffffffffffffffffffffffffffffff84166060820152905184929188917fe514533875fbd3f8f396088d636e746599d8b5c3ba77e9ccfa9fc01ff70646019181900360800190a45050505050565b60008381526020858152604080832073ffffffffffffffffffffffffffffffffffffffff8616845290915290205460ff16156124045760008381526020858152604080832073ffffffffffffffffffffffffffffffffffffffff8681168086529184529382902080547fffffffffffffffffffffffffffffffffffffffffffffffffffffffffffffff00169055815187815292830152918316918101919091527ff6391f5c32d9c69d2a47ea670b442974b53935d1edc7fd64eb21e047a839171b906060016123fb565b825473ffffffffffffffffffffffffffffffffffffffff9081169083168114612a1f576040517f2ef4875e00000000000000000000000000000000000000000000000000000000815273ffffffffffffffffffffffffffffffffffffffff841660048201526024016109e1565b8173ffffffffffffffffffffffffffffffffffffffff168173ffffffffffffffffffffffffffffffffffffffff16146124045783547fffffffffffffffffffffffff00000000000000000000000000000000000000001673ffffffffffffffffffffffffffffffffffffffff8381169182178655604051908316907f8be0079c531659141344cd1fd0a4f28419497f9722a3daafe3b4186f6b6457e090600090a350505050565b73ffffffffffffffffffffffffffffffffffffffff81163b612b6a576040517f08c379a000000000000000000000000000000000000000000000000000000000815260206004820152602d60248201527f455243313936373a206e657720696d706c656d656e746174696f6e206973206e60448201527f6f74206120636f6e74726163740000000000000000000000000000000000000060648201526084016109e1565b7f360894a13ba1a3210667c828492db98dca3e2076cc3735a920a3ca505d382bbc80547fffffffffffffffffffffffff00000000000000000000000000000000000000001673ffffffffffffffffffffffffffffffffffffffff92909216919091179055565b612bd983612cfe565b600082511180612be65750805b15610a98576124048383612d4b565b81548290828110612c3c576040517fbf0c18ec00000000000000000000000000000000000000000000000000000000815260048101829052602481018490526044016109e1565b505550565b73ffffffffffffffffffffffffffffffffffffffff811615612cc95781547fffffffffffffffffffffffff00000000000000000000000000000000000000001673ffffffffffffffffffffffffffffffffffffffff821690811783556040516000907f8be0079c531659141344cd1fd0a4f28419497f9722a3daafe3b4186f6b6457e0908290a35b61101b7f7f5828d0000000000000000000000000000000000000000000000000000000006001612cf7612d70565b9190612d9e565b612d0781612ac6565b60405173ffffffffffffffffffffffffffffffffffffffff8216907fbc7cd75a20ee27fd9adebab32041f755214dbc6bffa90cc0225b39da2e5c2d3b90600090a250565b6060611729838360405180606001604052806027815260200161373860279139612e7a565b60008061172c60017fca9d3e17f264b0f3984e2634e94adb37fa3e6a8103f06aeae6fa59e21c769f5e613693565b7c01000000000000000000000000000000000000000000000000000000007fffffffff00000000000000000000000000000000000000000000000000000000831601612e16576040517f72c683bb00000000000000000000000000000000000000000000000000000000815260040160405180910390fd5b7fffffffff00000000000000000000000000000000000000000000000000000000919091166000908152602092909252604090912080547fffffffffffffffffffffffffffffffffffffffffffffffffffffffffffffff0016911515919091179055565b60606000808573ffffffffffffffffffffffffffffffffffffffff1685604051612ea491906136ca565b600060405180830381855af49150503d8060008114612edf576040519150601f19603f3d011682016040523d82523d6000602084013e612ee4565b606091505b50915091506120f98683838760608315612f86578251600003612f7f5773ffffffffffffffffffffffffffffffffffffffff85163b612f7f576040517f08c379a000000000000000000000000000000000000000000000000000000000815260206004820152601d60248201527f416464726573733a2063616c6c20746f206e6f6e2d636f6e747261637400000060448201526064016109e1565b5081610801565b6108018383815115612f9b5781518083602001fd5b806040517f08c379a00000000000000000000000000000000000000000000000000000000081526004016109e191906136e6565b60008083601f840112612fe157600080fd5b50813567ffffffffffffffff811115612ff957600080fd5b60208301915083602082850101111561301157600080fd5b9250929050565b6000806000806060858703121561302e57600080fd5b8435935060208501359250604085013567ffffffffffffffff81111561305357600080fd5b61305f87828801612fcf565b95989497509550505050565b60006020828403121561307d57600080fd5b5035919050565b600080600080600060a0868803121561309c57600080fd5b505083359560208501359550604085013594606081013594506080013592509050565b73ffffffffffffffffffffffffffffffffffffffff81168114610c9f57600080fd5b600080604083850312156130f457600080fd5b823591506020830135613106816130bf565b809150509250929050565b60006020828403121561312357600080fd5b813561312e816130bf565b9392505050565b6000806020838503121561314857600080fd5b823567ffffffffffffffff8082111561316057600080fd5b818501915085601f83011261317457600080fd5b81358181111561318357600080fd5b8660208260051b850101111561319857600080fd5b60209290920196919550909350505050565b7f4e487b7100000000000000000000000000000000000000000000000000000000600052604160045260246000fd5b600080604083850312156131ec57600080fd5b82356131f7816130bf565b9150602083013567ffffffffffffffff8082111561321457600080fd5b818501915085601f83011261322857600080fd5b81358181111561323a5761323a6131aa565b604051601f82017fffffffffffffffffffffffffffffffffffffffffffffffffffffffffffffffe0908116603f01168101908382118183101715613280576132806131aa565b8160405282815288602084870101111561329957600080fd5b8260208601602083013760006020848301015280955050505050509250929050565b6000806000606084860312156132d057600080fd5b505081359360208301359350604090920135919050565b6000806000604084860312156132fc57600080fd5b83359250602084013567ffffffffffffffff81111561331a57600080fd5b61332686828701612fcf565b9497909650939450505050565b803560ff8116811461334457600080fd5b919050565b60008060008060008060008060e0898b03121561336557600080fd5b88359750602089013567ffffffffffffffff81111561338357600080fd5b61338f8b828c01612fcf565b90985096505060408901359450606089013593506133af60808a01613333565b925060a0890135915060c089013590509295985092959890939650565b600080600080600080600060c0888a0312156133e757600080fd5b8735965060208801359550604088013567ffffffffffffffff81111561340c57600080fd5b6134188a828b01612fcf565b989b979a50986060810135976080820135975060a09091013595509350505050565b6000806040838503121561344d57600080fd5b50508035926020909101359150565b60008060008060008060c0878903121561347557600080fd5b86359550602087013594506040870135935061349360608801613333565b92506080870135915060a087013590509295509295509295565b6000806000806000608086880312156134c557600080fd5b85359450602086013567ffffffffffffffff8111156134e357600080fd5b6134ef88828901612fcf565b9699909850959660408101359660609091013595509350505050565b6040815282604082015282846060830137600060608483010152600060607fffffffffffffffffffffffffffffffffffffffffffffffffffffffffffffffe0601f8601168301019050826020830152949350505050565b60006020828403121561357457600080fd5b5051919050565b60006020828403121561358d57600080fd5b815161312e816130bf565b7f4e487b7100000000000000000000000000000000000000000000000000000000600052601160045260246000fd5b8082018082111561172c5761172c613598565b7f4e487b7100000000000000000000000000000000000000000000000000000000600052603260045260246000fd5b60007fffffffffffffffffffffffffffffffffffffffffffffffffffffffffffffffff820361363a5761363a613598565b5060010190565b6020815281602082015260007f07ffffffffffffffffffffffffffffffffffffffffffffffffffffffffffffff83111561367a57600080fd5b8260051b80856040850137919091016040019392505050565b8181038181111561172c5761172c613598565b60005b838110156136c15781810151838201526020016136a9565b50506000910152565b600082516136dc8184602087016136a6565b9190910192915050565b60208152600082518060208401526137058160408501602087016136a6565b601f017fffffffffffffffffffffffffffffffffffffffffffffffffffffffffffffffe016919091016040019291505056fe416464726573733a206c6f772d6c6576656c2064656c65676174652063616c6c206661696c6564a2646970667358221220d7e1b3dfb6e26341cae5d102f59c1fb9865ce23797fdd1f2729177dc4b79407764736f6c63430008150033","opcodes":"PUSH1 0xC0 PUSH1 0x40 MSTORE ADDRESS PUSH1 0x80 MSTORE CALLVALUE DUP1 ISZERO PUSH3 0x15 JUMPI PUSH1 0x0 DUP1 REVERT JUMPDEST POP PUSH1 0x40 MLOAD PUSH3 0x38F9 CODESIZE SUB DUP1 PUSH3 0x38F9 DUP4 CODECOPY DUP2 ADD PUSH1 0x40 DUP2 SWAP1 MSTORE PUSH3 0x38 SWAP2 PUSH3 0x81 JUMP JUMPDEST PUSH1 0x1 PUSH1 0x1 PUSH1 0xA0 SHL SUB DUP2 AND PUSH3 0x6F JUMPI PUSH1 0x40 MLOAD PUSH4 0x82DD9BA3 PUSH1 0xE0 SHL DUP2 MSTORE PUSH1 0x1 PUSH1 0x1 PUSH1 0xA0 SHL SUB DUP3 AND PUSH1 0x4 DUP3 ADD MSTORE PUSH1 0x24 ADD PUSH1 0x40 MLOAD DUP1 SWAP2 SUB SWAP1 REVERT JUMPDEST PUSH1 0x1 PUSH1 0x1 PUSH1 0xA0 SHL SUB AND PUSH1 0xA0 MSTORE PUSH3 0xB3 JUMP JUMPDEST PUSH1 0x0 PUSH1 0x20 DUP3 DUP5 SUB SLT ISZERO PUSH3 0x94 JUMPI PUSH1 0x0 DUP1 REVERT JUMPDEST DUP2 MLOAD PUSH1 0x1 PUSH1 0x1 PUSH1 0xA0 SHL SUB DUP2 AND DUP2 EQ PUSH3 0xAC JUMPI PUSH1 0x0 DUP1 REVERT JUMPDEST SWAP4 SWAP3 POP POP POP JUMP JUMPDEST PUSH1 0x80 MLOAD PUSH1 0xA0 MLOAD PUSH2 0x3794 PUSH3 0x165 PUSH1 0x0 CODECOPY PUSH1 0x0 DUP2 DUP2 PUSH2 0x27C ADD MSTORE DUP2 DUP2 PUSH2 0x686 ADD MSTORE DUP2 DUP2 PUSH2 0x76C ADD MSTORE DUP2 DUP2 PUSH2 0x86D ADD MSTORE DUP2 DUP2 PUSH2 0x920 ADD MSTORE DUP2 DUP2 PUSH2 0x1110 ADD MSTORE DUP2 DUP2 PUSH2 0x11F6 ADD MSTORE DUP2 DUP2 PUSH2 0x1772 ADD MSTORE DUP2 DUP2 PUSH2 0x1850 ADD MSTORE DUP2 DUP2 PUSH2 0x192A ADD MSTORE DUP2 DUP2 PUSH2 0x1A06 ADD MSTORE DUP2 DUP2 PUSH2 0x1AC9 ADD MSTORE DUP2 DUP2 PUSH2 0x1BCE ADD MSTORE DUP2 DUP2 PUSH2 0x1CB9 ADD MSTORE DUP2 DUP2 PUSH2 0x1EB1 ADD MSTORE DUP2 DUP2 PUSH2 0x2032 ADD MSTORE PUSH2 0x2143 ADD MSTORE PUSH1 0x0 DUP2 DUP2 PUSH2 0xAB4 ADD MSTORE DUP2 DUP2 PUSH2 0xB64 ADD MSTORE DUP2 DUP2 PUSH2 0xE40 ADD MSTORE DUP2 DUP2 PUSH2 0xEF0 ADD MSTORE PUSH2 0x1039 ADD MSTORE PUSH2 0x3794 PUSH1 0x0 RETURN INVALID PUSH1 0x80 PUSH1 0x40 MSTORE PUSH1 0x4 CALLDATASIZE LT PUSH2 0x1E3 JUMPI PUSH1 0x0 CALLDATALOAD PUSH1 0xE0 SHR DUP1 PUSH4 0x8DA5CB5B GT PUSH2 0x102 JUMPI DUP1 PUSH4 0xBCB39621 GT PUSH2 0x95 JUMPI DUP1 PUSH4 0xDF00BB24 GT PUSH2 0x64 JUMPI DUP1 PUSH4 0xDF00BB24 EQ PUSH2 0x5F1 JUMPI DUP1 PUSH4 0xE564A0E2 EQ PUSH2 0x611 JUMPI DUP1 PUSH4 0xF2FDE38B EQ PUSH2 0x631 JUMPI DUP1 PUSH4 0xF9515962 EQ PUSH2 0x651 JUMPI PUSH1 0x0 DUP1 REVERT JUMPDEST DUP1 PUSH4 0xBCB39621 EQ PUSH2 0x57B JUMPI DUP1 PUSH4 0xD14A5C71 EQ PUSH2 0x591 JUMPI DUP1 PUSH4 0xD547741F EQ PUSH2 0x5B1 JUMPI DUP1 PUSH4 0xDC893CE4 EQ PUSH2 0x5D1 JUMPI PUSH1 0x0 DUP1 REVERT JUMPDEST DUP1 PUSH4 0x9CC7F708 GT PUSH2 0xD1 JUMPI DUP1 PUSH4 0x9CC7F708 EQ PUSH2 0x4E7 JUMPI DUP1 PUSH4 0x9D70B005 EQ PUSH2 0x507 JUMPI DUP1 PUSH4 0xA3B0B5A3 EQ PUSH2 0x527 JUMPI DUP1 PUSH4 0xAD3B1D48 EQ PUSH2 0x55B JUMPI PUSH1 0x0 DUP1 REVERT JUMPDEST DUP1 PUSH4 0x8DA5CB5B EQ PUSH2 0x472 JUMPI DUP1 PUSH4 0x906405A3 EQ PUSH2 0x487 JUMPI DUP1 PUSH4 0x91D14854 EQ PUSH2 0x4A7 JUMPI DUP1 PUSH4 0x99D342AC EQ PUSH2 0x4C7 JUMPI PUSH1 0x0 DUP1 REVERT JUMPDEST DUP1 PUSH4 0x4F1EF286 GT PUSH2 0x17A JUMPI DUP1 PUSH4 0x794459BE GT PUSH2 0x149 JUMPI DUP1 PUSH4 0x794459BE EQ PUSH2 0x3FD JUMPI DUP1 PUSH4 0x8129FC1C EQ PUSH2 0x41D JUMPI DUP1 PUSH4 0x86A8E98A EQ PUSH2 0x432 JUMPI DUP1 PUSH4 0x8BB9C5BF EQ PUSH2 0x452 JUMPI PUSH1 0x0 DUP1 REVERT JUMPDEST DUP1 PUSH4 0x4F1EF286 EQ PUSH2 0x363 JUMPI DUP1 PUSH4 0x51955DFC EQ PUSH2 0x376 JUMPI DUP1 PUSH4 0x52D1902D EQ PUSH2 0x3B4 JUMPI DUP1 PUSH4 0x75B238FC EQ PUSH2 0x3C9 JUMPI PUSH1 0x0 DUP1 REVERT JUMPDEST DUP1 PUSH4 0x2F2FF15D GT PUSH2 0x1B6 JUMPI DUP1 PUSH4 0x2F2FF15D EQ PUSH2 0x2C3 JUMPI DUP1 PUSH4 0x3659CFE6 EQ PUSH2 0x2E3 JUMPI DUP1 PUSH4 0x3F30B00F EQ PUSH2 0x303 JUMPI DUP1 PUSH4 0x4529CC1B EQ PUSH2 0x323 JUMPI PUSH1 0x0 DUP1 REVERT JUMPDEST DUP1 PUSH4 0x98B6419 EQ PUSH2 0x1E8 JUMPI DUP1 PUSH4 0x141A468C EQ PUSH2 0x21B JUMPI DUP1 PUSH4 0x18EE89F0 EQ PUSH2 0x248 JUMPI DUP1 PUSH4 0x2B48DC72 EQ PUSH2 0x26A JUMPI JUMPDEST PUSH1 0x0 DUP1 REVERT JUMPDEST CALLVALUE DUP1 ISZERO PUSH2 0x1F4 JUMPI PUSH1 0x0 DUP1 REVERT JUMPDEST POP PUSH2 0x208 PUSH2 0x203 CALLDATASIZE PUSH1 0x4 PUSH2 0x3018 JUMP JUMPDEST PUSH2 0x681 JUMP JUMPDEST PUSH1 0x40 MLOAD SWAP1 DUP2 MSTORE PUSH1 0x20 ADD JUMPDEST PUSH1 0x40 MLOAD DUP1 SWAP2 SUB SWAP1 RETURN JUMPDEST CALLVALUE DUP1 ISZERO PUSH2 0x227 JUMPI PUSH1 0x0 DUP1 REVERT JUMPDEST POP PUSH2 0x208 PUSH2 0x236 CALLDATASIZE PUSH1 0x4 PUSH2 0x306B JUMP JUMPDEST PUSH1 0x68 PUSH1 0x20 MSTORE PUSH1 0x0 SWAP1 DUP2 MSTORE PUSH1 0x40 SWAP1 KECCAK256 SLOAD DUP2 JUMP JUMPDEST CALLVALUE DUP1 ISZERO PUSH2 0x254 JUMPI PUSH1 0x0 DUP1 REVERT JUMPDEST POP PUSH2 0x268 PUSH2 0x263 CALLDATASIZE PUSH1 0x4 PUSH2 0x3084 JUMP JUMPDEST PUSH2 0x809 JUMP JUMPDEST STOP JUMPDEST CALLVALUE DUP1 ISZERO PUSH2 0x276 JUMPI PUSH1 0x0 DUP1 REVERT JUMPDEST POP PUSH2 0x29E PUSH32 0x0 DUP2 JUMP JUMPDEST PUSH1 0x40 MLOAD PUSH20 0xFFFFFFFFFFFFFFFFFFFFFFFFFFFFFFFFFFFFFFFF SWAP1 SWAP2 AND DUP2 MSTORE PUSH1 0x20 ADD PUSH2 0x212 JUMP JUMPDEST CALLVALUE DUP1 ISZERO PUSH2 0x2CF JUMPI PUSH1 0x0 DUP1 REVERT JUMPDEST POP PUSH2 0x268 PUSH2 0x2DE CALLDATASIZE PUSH1 0x4 PUSH2 0x30E1 JUMP JUMPDEST PUSH2 0xA6F JUMP JUMPDEST CALLVALUE DUP1 ISZERO PUSH2 0x2EF JUMPI PUSH1 0x0 DUP1 REVERT JUMPDEST POP PUSH2 0x268 PUSH2 0x2FE CALLDATASIZE PUSH1 0x4 PUSH2 0x3111 JUMP JUMPDEST PUSH2 0xA9D JUMP JUMPDEST CALLVALUE DUP1 ISZERO PUSH2 0x30F JUMPI PUSH1 0x0 DUP1 REVERT JUMPDEST POP PUSH2 0x268 PUSH2 0x31E CALLDATASIZE PUSH1 0x4 PUSH2 0x3135 JUMP JUMPDEST PUSH2 0xCA2 JUMP JUMPDEST CALLVALUE DUP1 ISZERO PUSH2 0x32F JUMPI PUSH1 0x0 DUP1 REVERT JUMPDEST POP PUSH2 0x353 PUSH2 0x33E CALLDATASIZE PUSH1 0x4 PUSH2 0x306B JUMP JUMPDEST PUSH1 0x66 PUSH1 0x20 MSTORE PUSH1 0x0 SWAP1 DUP2 MSTORE PUSH1 0x40 SWAP1 KECCAK256 SLOAD PUSH1 0xFF AND DUP2 JUMP JUMPDEST PUSH1 0x40 MLOAD SWAP1 ISZERO ISZERO DUP2 MSTORE PUSH1 0x20 ADD PUSH2 0x212 JUMP JUMPDEST PUSH2 0x268 PUSH2 0x371 CALLDATASIZE PUSH1 0x4 PUSH2 0x31D9 JUMP JUMPDEST PUSH2 0xE29 JUMP JUMPDEST CALLVALUE DUP1 ISZERO PUSH2 0x382 JUMPI PUSH1 0x0 DUP1 REVERT JUMPDEST POP PUSH2 0x208 PUSH2 0x391 CALLDATASIZE PUSH1 0x4 PUSH2 0x32BB JUMP JUMPDEST PUSH1 0x67 PUSH1 0x20 SWAP1 DUP2 MSTORE PUSH1 0x0 SWAP4 DUP5 MSTORE PUSH1 0x40 DUP1 DUP6 KECCAK256 DUP3 MSTORE SWAP3 DUP5 MSTORE DUP3 DUP5 KECCAK256 SWAP1 MSTORE DUP3 MSTORE SWAP1 KECCAK256 SLOAD DUP2 JUMP JUMPDEST CALLVALUE DUP1 ISZERO PUSH2 0x3C0 JUMPI PUSH1 0x0 DUP1 REVERT JUMPDEST POP PUSH2 0x208 PUSH2 0x101F JUMP JUMPDEST CALLVALUE DUP1 ISZERO PUSH2 0x3D5 JUMPI PUSH1 0x0 DUP1 REVERT JUMPDEST POP PUSH2 0x208 PUSH32 0xA49807205CE4D355092EF5A8A18F56E8913CF4A201FBE287825B095693C21775 DUP2 JUMP JUMPDEST CALLVALUE DUP1 ISZERO PUSH2 0x409 JUMPI PUSH1 0x0 DUP1 REVERT JUMPDEST POP PUSH2 0x208 PUSH2 0x418 CALLDATASIZE PUSH1 0x4 PUSH2 0x32E7 JUMP JUMPDEST PUSH2 0x110B JUMP JUMPDEST CALLVALUE DUP1 ISZERO PUSH2 0x429 JUMPI PUSH1 0x0 DUP1 REVERT JUMPDEST POP PUSH2 0x268 PUSH2 0x1293 JUMP JUMPDEST CALLVALUE DUP1 ISZERO PUSH2 0x43E JUMPI PUSH1 0x0 DUP1 REVERT JUMPDEST POP PUSH2 0x268 PUSH2 0x44D CALLDATASIZE PUSH1 0x4 PUSH2 0x306B JUMP JUMPDEST PUSH2 0x1437 JUMP JUMPDEST CALLVALUE DUP1 ISZERO PUSH2 0x45E JUMPI PUSH1 0x0 DUP1 REVERT JUMPDEST POP PUSH2 0x268 PUSH2 0x46D CALLDATASIZE PUSH1 0x4 PUSH2 0x306B JUMP JUMPDEST PUSH2 0x151B JUMP JUMPDEST CALLVALUE DUP1 ISZERO PUSH2 0x47E JUMPI PUSH1 0x0 DUP1 REVERT JUMPDEST POP PUSH2 0x29E PUSH2 0x152F JUMP JUMPDEST CALLVALUE DUP1 ISZERO PUSH2 0x493 JUMPI PUSH1 0x0 DUP1 REVERT JUMPDEST POP PUSH2 0x268 PUSH2 0x4A2 CALLDATASIZE PUSH1 0x4 PUSH2 0x3135 JUMP JUMPDEST PUSH2 0x155B JUMP JUMPDEST CALLVALUE DUP1 ISZERO PUSH2 0x4B3 JUMPI PUSH1 0x0 DUP1 REVERT JUMPDEST POP PUSH2 0x353 PUSH2 0x4C2 CALLDATASIZE PUSH1 0x4 PUSH2 0x30E1 JUMP JUMPDEST PUSH2 0x16E5 JUMP JUMPDEST CALLVALUE DUP1 ISZERO PUSH2 0x4D3 JUMPI PUSH1 0x0 DUP1 REVERT JUMPDEST POP PUSH2 0x268 PUSH2 0x4E2 CALLDATASIZE PUSH1 0x4 PUSH2 0x3349 JUMP JUMPDEST PUSH2 0x1732 JUMP JUMPDEST CALLVALUE DUP1 ISZERO PUSH2 0x4F3 JUMPI PUSH1 0x0 DUP1 REVERT JUMPDEST POP PUSH2 0x208 PUSH2 0x502 CALLDATASIZE PUSH1 0x4 PUSH2 0x306B JUMP JUMPDEST PUSH2 0x1807 JUMP JUMPDEST CALLVALUE DUP1 ISZERO PUSH2 0x513 JUMPI PUSH1 0x0 DUP1 REVERT JUMPDEST POP PUSH2 0x268 PUSH2 0x522 CALLDATASIZE PUSH1 0x4 PUSH2 0x33CC JUMP JUMPDEST PUSH2 0x18EA JUMP JUMPDEST CALLVALUE DUP1 ISZERO PUSH2 0x533 JUMPI PUSH1 0x0 DUP1 REVERT JUMPDEST POP PUSH2 0x208 PUSH32 0x8F4F2DA22E8AC8F11E15F9FC141CDDBB5DEEA8800186560ABB6E68C5496619A9 DUP2 JUMP JUMPDEST CALLVALUE DUP1 ISZERO PUSH2 0x567 JUMPI PUSH1 0x0 DUP1 REVERT JUMPDEST POP PUSH2 0x208 PUSH2 0x576 CALLDATASIZE PUSH1 0x4 PUSH2 0x343A JUMP JUMPDEST PUSH2 0x19BD JUMP JUMPDEST CALLVALUE DUP1 ISZERO PUSH2 0x587 JUMPI PUSH1 0x0 DUP1 REVERT JUMPDEST POP PUSH2 0x208 PUSH1 0x65 SLOAD DUP2 JUMP JUMPDEST CALLVALUE DUP1 ISZERO PUSH2 0x59D JUMPI PUSH1 0x0 DUP1 REVERT JUMPDEST POP PUSH2 0x268 PUSH2 0x5AC CALLDATASIZE PUSH1 0x4 PUSH2 0x32BB JUMP JUMPDEST PUSH2 0x1A97 JUMP JUMPDEST CALLVALUE DUP1 ISZERO PUSH2 0x5BD JUMPI PUSH1 0x0 DUP1 REVERT JUMPDEST POP PUSH2 0x268 PUSH2 0x5CC CALLDATASIZE PUSH1 0x4 PUSH2 0x30E1 JUMP JUMPDEST PUSH2 0x1C64 JUMP JUMPDEST CALLVALUE DUP1 ISZERO PUSH2 0x5DD JUMPI PUSH1 0x0 DUP1 REVERT JUMPDEST POP PUSH2 0x268 PUSH2 0x5EC CALLDATASIZE PUSH1 0x4 PUSH2 0x345C JUMP JUMPDEST PUSH2 0x1C87 JUMP JUMPDEST CALLVALUE DUP1 ISZERO PUSH2 0x5FD JUMPI PUSH1 0x0 DUP1 REVERT JUMPDEST POP PUSH2 0x208 PUSH2 0x60C CALLDATASIZE PUSH1 0x4 PUSH2 0x32BB JUMP JUMPDEST PUSH2 0x1FE9 JUMP JUMPDEST CALLVALUE DUP1 ISZERO PUSH2 0x61D JUMPI PUSH1 0x0 DUP1 REVERT JUMPDEST POP PUSH2 0x268 PUSH2 0x62C CALLDATASIZE PUSH1 0x4 PUSH2 0x34AD JUMP JUMPDEST PUSH2 0x2103 JUMP JUMPDEST CALLVALUE DUP1 ISZERO PUSH2 0x63D JUMPI PUSH1 0x0 DUP1 REVERT JUMPDEST POP PUSH2 0x268 PUSH2 0x64C CALLDATASIZE PUSH1 0x4 PUSH2 0x3111 JUMP JUMPDEST PUSH2 0x21D2 JUMP JUMPDEST CALLVALUE DUP1 ISZERO PUSH2 0x65D JUMPI PUSH1 0x0 DUP1 REVERT JUMPDEST POP PUSH2 0x353 PUSH2 0x66C CALLDATASIZE PUSH1 0x4 PUSH2 0x306B JUMP JUMPDEST PUSH1 0x69 PUSH1 0x20 MSTORE PUSH1 0x0 SWAP1 DUP2 MSTORE PUSH1 0x40 SWAP1 KECCAK256 SLOAD PUSH1 0xFF AND DUP2 JUMP JUMPDEST PUSH1 0x0 DUP1 PUSH32 0x0 PUSH20 0xFFFFFFFFFFFFFFFFFFFFFFFFFFFFFFFFFFFFFFFF AND PUSH4 0xCAD6B901 DUP6 DUP6 DUP9 PUSH1 0x40 MLOAD DUP5 PUSH4 0xFFFFFFFF AND PUSH1 0xE0 SHL DUP2 MSTORE PUSH1 0x4 ADD PUSH2 0x6E1 SWAP4 SWAP3 SWAP2 SWAP1 PUSH2 0x350B JUMP JUMPDEST PUSH1 0x20 PUSH1 0x40 MLOAD DUP1 DUP4 SUB DUP2 DUP7 GAS STATICCALL ISZERO DUP1 ISZERO PUSH2 0x6FE JUMPI RETURNDATASIZE PUSH1 0x0 DUP1 RETURNDATACOPY RETURNDATASIZE PUSH1 0x0 REVERT JUMPDEST POP POP POP POP PUSH1 0x40 MLOAD RETURNDATASIZE PUSH1 0x1F NOT PUSH1 0x1F DUP3 ADD AND DUP3 ADD DUP1 PUSH1 0x40 MSTORE POP DUP2 ADD SWAP1 PUSH2 0x722 SWAP2 SWAP1 PUSH2 0x3562 JUMP JUMPDEST PUSH1 0x40 MLOAD PUSH32 0xA9735F9400000000000000000000000000000000000000000000000000000000 DUP2 MSTORE PUSH1 0x4 DUP2 ADD DUP3 SWAP1 MSTORE SWAP1 SWAP2 POP PUSH1 0x0 SWAP1 PUSH20 0xFFFFFFFFFFFFFFFFFFFFFFFFFFFFFFFFFFFFFFFF PUSH32 0x0 AND SWAP1 PUSH4 0xA9735F94 SWAP1 PUSH1 0x24 ADD PUSH1 0x20 PUSH1 0x40 MLOAD DUP1 DUP4 SUB DUP2 DUP7 GAS STATICCALL ISZERO DUP1 ISZERO PUSH2 0x7B3 JUMPI RETURNDATASIZE PUSH1 0x0 DUP1 RETURNDATACOPY RETURNDATASIZE PUSH1 0x0 REVERT JUMPDEST POP POP POP POP PUSH1 0x40 MLOAD RETURNDATASIZE PUSH1 0x1F NOT PUSH1 0x1F DUP3 ADD AND DUP3 ADD DUP1 PUSH1 0x40 MSTORE POP DUP2 ADD SWAP1 PUSH2 0x7D7 SWAP2 SWAP1 PUSH2 0x3562 JUMP JUMPDEST PUSH1 0x0 DUP9 DUP2 MSTORE PUSH1 0x67 PUSH1 0x20 SWAP1 DUP2 MSTORE PUSH1 0x40 DUP1 DUP4 KECCAK256 SWAP6 DUP4 MSTORE SWAP5 DUP2 MSTORE DUP5 DUP3 KECCAK256 SWAP3 DUP3 MSTORE SWAP2 SWAP1 SWAP2 MSTORE SWAP2 SWAP1 SWAP2 KECCAK256 SLOAD SWAP2 POP POP JUMPDEST SWAP5 SWAP4 POP POP POP POP JUMP JUMPDEST PUSH2 0x83E PUSH32 0x8F4F2DA22E8AC8F11E15F9FC141CDDBB5DEEA8800186560ABB6E68C5496619A9 CALLER JUMPDEST PUSH2 0x837 PUSH2 0x21E6 JUMP JUMPDEST SWAP2 SWAP1 PUSH2 0x2214 JUMP JUMPDEST PUSH1 0x40 MLOAD PUSH32 0x6352211E00000000000000000000000000000000000000000000000000000000 DUP2 MSTORE PUSH1 0x4 DUP2 ADD DUP6 SWAP1 MSTORE PUSH32 0x0 PUSH20 0xFFFFFFFFFFFFFFFFFFFFFFFFFFFFFFFFFFFFFFFF AND SWAP1 PUSH4 0x6352211E SWAP1 PUSH1 0x24 ADD PUSH1 0x20 PUSH1 0x40 MLOAD DUP1 DUP4 SUB DUP2 DUP7 GAS STATICCALL ISZERO DUP1 ISZERO PUSH2 0x8C9 JUMPI RETURNDATASIZE PUSH1 0x0 DUP1 RETURNDATACOPY RETURNDATASIZE PUSH1 0x0 REVERT JUMPDEST POP POP POP POP PUSH1 0x40 MLOAD RETURNDATASIZE PUSH1 0x1F NOT PUSH1 0x1F DUP3 ADD AND DUP3 ADD DUP1 PUSH1 0x40 MSTORE POP DUP2 ADD SWAP1 PUSH2 0x8ED SWAP2 SWAP1 PUSH2 0x357B JUMP JUMPDEST POP PUSH1 0x40 MLOAD PUSH32 0xA9735F9400000000000000000000000000000000000000000000000000000000 DUP2 MSTORE PUSH1 0x4 DUP2 ADD DUP6 SWAP1 MSTORE PUSH1 0x0 SWAP1 PUSH32 0x0 PUSH20 0xFFFFFFFFFFFFFFFFFFFFFFFFFFFFFFFFFFFFFFFF AND SWAP1 PUSH4 0xA9735F94 SWAP1 PUSH1 0x24 ADD PUSH1 0x20 PUSH1 0x40 MLOAD DUP1 DUP4 SUB DUP2 DUP7 GAS STATICCALL ISZERO DUP1 ISZERO PUSH2 0x97C JUMPI RETURNDATASIZE PUSH1 0x0 DUP1 RETURNDATACOPY RETURNDATASIZE PUSH1 0x0 REVERT JUMPDEST POP POP POP POP PUSH1 0x40 MLOAD RETURNDATASIZE PUSH1 0x1F NOT PUSH1 0x1F DUP3 ADD AND DUP3 ADD DUP1 PUSH1 0x40 MSTORE POP DUP2 ADD SWAP1 PUSH2 0x9A0 SWAP2 SWAP1 PUSH2 0x3562 JUMP JUMPDEST SWAP1 POP DUP4 DUP2 EQ PUSH2 0x9EA JUMPI PUSH1 0x40 MLOAD PUSH32 0xB196CC7700000000000000000000000000000000000000000000000000000000 DUP2 MSTORE PUSH1 0x4 DUP2 ADD DUP7 SWAP1 MSTORE PUSH1 0x24 DUP2 ADD DUP6 SWAP1 MSTORE PUSH1 0x44 ADD JUMPDEST PUSH1 0x40 MLOAD DUP1 SWAP2 SUB SWAP1 REVERT JUMPDEST PUSH1 0x0 DUP7 DUP2 MSTORE PUSH1 0x67 PUSH1 0x20 SWAP1 DUP2 MSTORE PUSH1 0x40 DUP1 DUP4 KECCAK256 DUP9 DUP5 MSTORE DUP3 MSTORE DUP1 DUP4 KECCAK256 DUP8 DUP5 MSTORE SWAP1 SWAP2 MSTORE DUP2 KECCAK256 DUP1 SLOAD DUP6 SWAP3 SWAP1 PUSH2 0xA1B SWAP1 DUP5 SWAP1 PUSH2 0x35C7 JUMP JUMPDEST SWAP1 SWAP2 SSTORE POP POP PUSH1 0x40 DUP1 MLOAD DUP7 DUP2 MSTORE PUSH1 0x20 DUP2 ADD DUP7 SWAP1 MSTORE DUP1 DUP3 ADD DUP6 SWAP1 MSTORE SWAP1 MLOAD DUP4 SWAP2 DUP9 SWAP2 CALLER SWAP2 PUSH32 0x9092BF6BD1CF7DB4FCF41AEDC7C0333B51C57F5B80B429BC3D9CAA5587C6AD82 SWAP2 SWAP1 DUP2 SWAP1 SUB PUSH1 0x60 ADD SWAP1 LOG4 POP POP POP POP POP POP JUMP JUMPDEST CALLER PUSH2 0xA82 DUP2 PUSH2 0xA7C PUSH2 0x229A JUMP JUMPDEST SWAP1 PUSH2 0x22C8 JUMP JUMPDEST PUSH2 0xA98 DUP4 DUP4 DUP4 PUSH2 0xA90 PUSH2 0x21E6 JUMP JUMPDEST SWAP3 SWAP2 SWAP1 PUSH2 0x2333 JUMP JUMPDEST POP POP POP JUMP JUMPDEST PUSH20 0xFFFFFFFFFFFFFFFFFFFFFFFFFFFFFFFFFFFFFFFF PUSH32 0x0 AND ADDRESS SUB PUSH2 0xB62 JUMPI PUSH1 0x40 MLOAD PUSH32 0x8C379A000000000000000000000000000000000000000000000000000000000 DUP2 MSTORE PUSH1 0x20 PUSH1 0x4 DUP3 ADD MSTORE PUSH1 0x2C PUSH1 0x24 DUP3 ADD MSTORE PUSH32 0x46756E6374696F6E206D7573742062652063616C6C6564207468726F75676820 PUSH1 0x44 DUP3 ADD MSTORE PUSH32 0x64656C656761746563616C6C0000000000000000000000000000000000000000 PUSH1 0x64 DUP3 ADD MSTORE PUSH1 0x84 ADD PUSH2 0x9E1 JUMP JUMPDEST PUSH32 0x0 PUSH20 0xFFFFFFFFFFFFFFFFFFFFFFFFFFFFFFFFFFFFFFFF AND PUSH2 0xBD7 PUSH32 0x360894A13BA1A3210667C828492DB98DCA3E2076CC3735A920A3CA505D382BBC SLOAD PUSH20 0xFFFFFFFFFFFFFFFFFFFFFFFFFFFFFFFFFFFFFFFF AND SWAP1 JUMP JUMPDEST PUSH20 0xFFFFFFFFFFFFFFFFFFFFFFFFFFFFFFFFFFFFFFFF AND EQ PUSH2 0xC7A JUMPI PUSH1 0x40 MLOAD PUSH32 0x8C379A000000000000000000000000000000000000000000000000000000000 DUP2 MSTORE PUSH1 0x20 PUSH1 0x4 DUP3 ADD MSTORE PUSH1 0x2C PUSH1 0x24 DUP3 ADD MSTORE PUSH32 0x46756E6374696F6E206D7573742062652063616C6C6564207468726F75676820 PUSH1 0x44 DUP3 ADD MSTORE PUSH32 0x6163746976652070726F78790000000000000000000000000000000000000000 PUSH1 0x64 DUP3 ADD MSTORE PUSH1 0x84 ADD PUSH2 0x9E1 JUMP JUMPDEST PUSH2 0xC83 DUP2 PUSH2 0x240A JUMP JUMPDEST PUSH1 0x40 DUP1 MLOAD PUSH1 0x0 DUP1 DUP3 MSTORE PUSH1 0x20 DUP3 ADD SWAP1 SWAP3 MSTORE PUSH2 0xC9F SWAP2 DUP4 SWAP2 SWAP1 PUSH2 0x2416 JUMP JUMPDEST POP JUMP JUMPDEST PUSH2 0xCCC PUSH32 0xA49807205CE4D355092EF5A8A18F56E8913CF4A201FBE287825B095693C21775 CALLER PUSH2 0x82F JUMP JUMPDEST DUP1 PUSH2 0xD03 JUMPI PUSH1 0x40 MLOAD PUSH32 0x3FB4608600000000000000000000000000000000000000000000000000000000 DUP2 MSTORE PUSH1 0x4 ADD PUSH1 0x40 MLOAD DUP1 SWAP2 SUB SWAP1 REVERT JUMPDEST PUSH1 0x0 JUMPDEST DUP2 DUP2 LT ISZERO PUSH2 0xDEB JUMPI PUSH1 0x69 PUSH1 0x0 DUP5 DUP5 DUP5 DUP2 DUP2 LT PUSH2 0xD24 JUMPI PUSH2 0xD24 PUSH2 0x35DA JUMP JUMPDEST PUSH1 0x20 SWAP1 DUP2 MUL SWAP3 SWAP1 SWAP3 ADD CALLDATALOAD DUP4 MSTORE POP DUP2 ADD SWAP2 SWAP1 SWAP2 MSTORE PUSH1 0x40 ADD PUSH1 0x0 KECCAK256 SLOAD PUSH1 0xFF AND ISZERO PUSH2 0xD94 JUMPI DUP3 DUP3 DUP3 DUP2 DUP2 LT PUSH2 0xD58 JUMPI PUSH2 0xD58 PUSH2 0x35DA JUMP JUMPDEST SWAP1 POP PUSH1 0x20 MUL ADD CALLDATALOAD PUSH1 0x40 MLOAD PUSH32 0xB642124200000000000000000000000000000000000000000000000000000000 DUP2 MSTORE PUSH1 0x4 ADD PUSH2 0x9E1 SWAP2 DUP2 MSTORE PUSH1 0x20 ADD SWAP1 JUMP JUMPDEST PUSH1 0x1 PUSH1 0x69 PUSH1 0x0 DUP6 DUP6 DUP6 DUP2 DUP2 LT PUSH2 0xDAC JUMPI PUSH2 0xDAC PUSH2 0x35DA JUMP JUMPDEST SWAP1 POP PUSH1 0x20 MUL ADD CALLDATALOAD DUP2 MSTORE PUSH1 0x20 ADD SWAP1 DUP2 MSTORE PUSH1 0x20 ADD PUSH1 0x0 KECCAK256 PUSH1 0x0 PUSH2 0x100 EXP DUP2 SLOAD DUP2 PUSH1 0xFF MUL NOT AND SWAP1 DUP4 ISZERO ISZERO MUL OR SWAP1 SSTORE POP DUP1 DUP1 PUSH2 0xDE3 SWAP1 PUSH2 0x3609 JUMP JUMPDEST SWAP2 POP POP PUSH2 0xD06 JUMP JUMPDEST POP PUSH32 0xD8C56A8918EC09C2FE3C4D9FCC00ECE66DF217A1AB3AD768DD0A71620DA5B4E DUP3 DUP3 PUSH1 0x40 MLOAD PUSH2 0xE1D SWAP3 SWAP2 SWAP1 PUSH2 0x3641 JUMP JUMPDEST PUSH1 0x40 MLOAD DUP1 SWAP2 SUB SWAP1 LOG1 POP POP JUMP JUMPDEST PUSH20 0xFFFFFFFFFFFFFFFFFFFFFFFFFFFFFFFFFFFFFFFF PUSH32 0x0 AND ADDRESS SUB PUSH2 0xEEE JUMPI PUSH1 0x40 MLOAD PUSH32 0x8C379A000000000000000000000000000000000000000000000000000000000 DUP2 MSTORE PUSH1 0x20 PUSH1 0x4 DUP3 ADD MSTORE PUSH1 0x2C PUSH1 0x24 DUP3 ADD MSTORE PUSH32 0x46756E6374696F6E206D7573742062652063616C6C6564207468726F75676820 PUSH1 0x44 DUP3 ADD MSTORE PUSH32 0x64656C656761746563616C6C0000000000000000000000000000000000000000 PUSH1 0x64 DUP3 ADD MSTORE PUSH1 0x84 ADD PUSH2 0x9E1 JUMP JUMPDEST PUSH32 0x0 PUSH20 0xFFFFFFFFFFFFFFFFFFFFFFFFFFFFFFFFFFFFFFFF AND PUSH2 0xF63 PUSH32 0x360894A13BA1A3210667C828492DB98DCA3E2076CC3735A920A3CA505D382BBC SLOAD PUSH20 0xFFFFFFFFFFFFFFFFFFFFFFFFFFFFFFFFFFFFFFFF AND SWAP1 JUMP JUMPDEST PUSH20 0xFFFFFFFFFFFFFFFFFFFFFFFFFFFFFFFFFFFFFFFF AND EQ PUSH2 0x1006 JUMPI PUSH1 0x40 MLOAD PUSH32 0x8C379A000000000000000000000000000000000000000000000000000000000 DUP2 MSTORE PUSH1 0x20 PUSH1 0x4 DUP3 ADD MSTORE PUSH1 0x2C PUSH1 0x24 DUP3 ADD MSTORE PUSH32 0x46756E6374696F6E206D7573742062652063616C6C6564207468726F75676820 PUSH1 0x44 DUP3 ADD MSTORE PUSH32 0x6163746976652070726F78790000000000000000000000000000000000000000 PUSH1 0x64 DUP3 ADD MSTORE PUSH1 0x84 ADD PUSH2 0x9E1 JUMP JUMPDEST PUSH2 0x100F DUP3 PUSH2 0x240A JUMP JUMPDEST PUSH2 0x101B DUP3 DUP3 PUSH1 0x1 PUSH2 0x2416 JUMP JUMPDEST POP POP JUMP JUMPDEST PUSH1 0x0 ADDRESS PUSH20 0xFFFFFFFFFFFFFFFFFFFFFFFFFFFFFFFFFFFFFFFF PUSH32 0x0 AND EQ PUSH2 0x10E6 JUMPI PUSH1 0x40 MLOAD PUSH32 0x8C379A000000000000000000000000000000000000000000000000000000000 DUP2 MSTORE PUSH1 0x20 PUSH1 0x4 DUP3 ADD MSTORE PUSH1 0x38 PUSH1 0x24 DUP3 ADD MSTORE PUSH32 0x555550535570677261646561626C653A206D757374206E6F742062652063616C PUSH1 0x44 DUP3 ADD MSTORE PUSH32 0x6C6564207468726F7567682064656C656761746563616C6C0000000000000000 PUSH1 0x64 DUP3 ADD MSTORE PUSH1 0x84 ADD PUSH2 0x9E1 JUMP JUMPDEST POP PUSH32 0x360894A13BA1A3210667C828492DB98DCA3E2076CC3735A920A3CA505D382BBC SWAP1 JUMP JUMPDEST PUSH1 0x0 DUP1 PUSH32 0x0 PUSH20 0xFFFFFFFFFFFFFFFFFFFFFFFFFFFFFFFFFFFFFFFF AND PUSH4 0xCAD6B901 DUP6 DUP6 DUP9 PUSH1 0x40 MLOAD DUP5 PUSH4 0xFFFFFFFF AND PUSH1 0xE0 SHL DUP2 MSTORE PUSH1 0x4 ADD PUSH2 0x116B SWAP4 SWAP3 SWAP2 SWAP1 PUSH2 0x350B JUMP JUMPDEST PUSH1 0x20 PUSH1 0x40 MLOAD DUP1 DUP4 SUB DUP2 DUP7 GAS STATICCALL ISZERO DUP1 ISZERO PUSH2 0x1188 JUMPI RETURNDATASIZE PUSH1 0x0 DUP1 RETURNDATACOPY RETURNDATASIZE PUSH1 0x0 REVERT JUMPDEST POP POP POP POP PUSH1 0x40 MLOAD RETURNDATASIZE PUSH1 0x1F NOT PUSH1 0x1F DUP3 ADD AND DUP3 ADD DUP1 PUSH1 0x40 MSTORE POP DUP2 ADD SWAP1 PUSH2 0x11AC SWAP2 SWAP1 PUSH2 0x3562 JUMP JUMPDEST PUSH1 0x40 MLOAD PUSH32 0xA9735F9400000000000000000000000000000000000000000000000000000000 DUP2 MSTORE PUSH1 0x4 DUP2 ADD DUP3 SWAP1 MSTORE SWAP1 SWAP2 POP PUSH1 0x0 SWAP1 PUSH20 0xFFFFFFFFFFFFFFFFFFFFFFFFFFFFFFFFFFFFFFFF PUSH32 0x0 AND SWAP1 PUSH4 0xA9735F94 SWAP1 PUSH1 0x24 ADD PUSH1 0x20 PUSH1 0x40 MLOAD DUP1 DUP4 SUB DUP2 DUP7 GAS STATICCALL ISZERO DUP1 ISZERO PUSH2 0x123D JUMPI RETURNDATASIZE PUSH1 0x0 DUP1 RETURNDATACOPY RETURNDATASIZE PUSH1 0x0 REVERT JUMPDEST POP POP POP POP PUSH1 0x40 MLOAD RETURNDATASIZE PUSH1 0x1F NOT PUSH1 0x1F DUP3 ADD AND DUP3 ADD DUP1 PUSH1 0x40 MSTORE POP DUP2 ADD SWAP1 PUSH2 0x1261 SWAP2 SWAP1 PUSH2 0x3562 JUMP JUMPDEST PUSH1 0x65 SLOAD PUSH1 0x0 SWAP1 DUP2 MSTORE PUSH1 0x67 PUSH1 0x20 SWAP1 DUP2 MSTORE PUSH1 0x40 DUP1 DUP4 KECCAK256 SWAP6 DUP4 MSTORE SWAP5 DUP2 MSTORE DUP5 DUP3 KECCAK256 SWAP3 DUP3 MSTORE SWAP2 SWAP1 SWAP2 MSTORE SWAP2 SWAP1 SWAP2 KECCAK256 SLOAD SWAP6 SWAP5 POP POP POP POP POP JUMP JUMPDEST PUSH1 0x0 SLOAD PUSH2 0x100 SWAP1 DIV PUSH1 0xFF AND ISZERO DUP1 DUP1 ISZERO PUSH2 0x12B3 JUMPI POP PUSH1 0x0 SLOAD PUSH1 0x1 PUSH1 0xFF SWAP1 SWAP2 AND LT JUMPDEST DUP1 PUSH2 0x12CD JUMPI POP ADDRESS EXTCODESIZE ISZERO DUP1 ISZERO PUSH2 0x12CD JUMPI POP PUSH1 0x0 SLOAD PUSH1 0xFF AND PUSH1 0x1 EQ JUMPDEST PUSH2 0x1359 JUMPI PUSH1 0x40 MLOAD PUSH32 0x8C379A000000000000000000000000000000000000000000000000000000000 DUP2 MSTORE PUSH1 0x20 PUSH1 0x4 DUP3 ADD MSTORE PUSH1 0x2E PUSH1 0x24 DUP3 ADD MSTORE PUSH32 0x496E697469616C697A61626C653A20636F6E747261637420697320616C726561 PUSH1 0x44 DUP3 ADD MSTORE PUSH32 0x647920696E697469616C697A6564000000000000000000000000000000000000 PUSH1 0x64 DUP3 ADD MSTORE PUSH1 0x84 ADD PUSH2 0x9E1 JUMP JUMPDEST PUSH1 0x0 DUP1 SLOAD PUSH32 0xFFFFFFFFFFFFFFFFFFFFFFFFFFFFFFFFFFFFFFFFFFFFFFFFFFFFFFFFFFFFFF00 AND PUSH1 0x1 OR SWAP1 SSTORE DUP1 ISZERO PUSH2 0x13B7 JUMPI PUSH1 0x0 DUP1 SLOAD PUSH32 0xFFFFFFFFFFFFFFFFFFFFFFFFFFFFFFFFFFFFFFFFFFFFFFFFFFFFFFFFFFFF00FF AND PUSH2 0x100 OR SWAP1 SSTORE JUMPDEST PUSH2 0x13BF PUSH2 0x2615 JUMP JUMPDEST PUSH2 0x13D1 CALLER PUSH2 0x13CB PUSH2 0x229A JUMP JUMPDEST SWAP1 PUSH2 0x26AE JUMP JUMPDEST DUP1 ISZERO PUSH2 0xC9F JUMPI PUSH1 0x0 DUP1 SLOAD PUSH32 0xFFFFFFFFFFFFFFFFFFFFFFFFFFFFFFFFFFFFFFFFFFFFFFFFFFFFFFFFFFFF00FF AND SWAP1 SSTORE PUSH1 0x40 MLOAD PUSH1 0x1 DUP2 MSTORE PUSH32 0x7F26B83FF96E1F2B6A682F133852F6798A09C465DA95921460CEFB3847402498 SWAP1 PUSH1 0x20 ADD JUMPDEST PUSH1 0x40 MLOAD DUP1 SWAP2 SUB SWAP1 LOG1 POP JUMP JUMPDEST PUSH2 0x1461 PUSH32 0xA49807205CE4D355092EF5A8A18F56E8913CF4A201FBE287825B095693C21775 CALLER PUSH2 0x82F JUMP JUMPDEST PUSH1 0x0 DUP2 DUP2 MSTORE PUSH1 0x66 PUSH1 0x20 MSTORE PUSH1 0x40 SWAP1 KECCAK256 SLOAD PUSH1 0xFF AND ISZERO PUSH2 0x14AD JUMPI PUSH1 0x40 MLOAD PUSH32 0x796C3E9A00000000000000000000000000000000000000000000000000000000 DUP2 MSTORE PUSH1 0x4 DUP2 ADD DUP3 SWAP1 MSTORE PUSH1 0x24 ADD PUSH2 0x9E1 JUMP JUMPDEST PUSH1 0x65 DUP2 SWAP1 SSTORE PUSH1 0x0 DUP2 DUP2 MSTORE PUSH1 0x66 PUSH1 0x20 MSTORE PUSH1 0x40 SWAP1 DUP2 SWAP1 KECCAK256 DUP1 SLOAD PUSH32 0xFFFFFFFFFFFFFFFFFFFFFFFFFFFFFFFFFFFFFFFFFFFFFFFFFFFFFFFFFFFFFF00 AND PUSH1 0x1 OR SWAP1 SSTORE MLOAD PUSH32 0x61228C895F8BA06548597D3E34A23BC0ECB6D1E62A1EB3FA30BE04883A17EF31 SWAP1 PUSH2 0x142C SWAP1 DUP4 DUP2 MSTORE PUSH1 0x20 ADD SWAP1 JUMP JUMPDEST PUSH2 0xC9F CALLER DUP3 PUSH2 0x1528 PUSH2 0x21E6 JUMP JUMPDEST SWAP2 SWAP1 PUSH2 0x26ED JUMP JUMPDEST PUSH1 0x0 PUSH2 0x1556 PUSH2 0x153C PUSH2 0x229A JUMP JUMPDEST SLOAD PUSH20 0xFFFFFFFFFFFFFFFFFFFFFFFFFFFFFFFFFFFFFFFF AND SWAP1 JUMP JUMPDEST SWAP1 POP SWAP1 JUMP JUMPDEST PUSH2 0x1585 PUSH32 0xA49807205CE4D355092EF5A8A18F56E8913CF4A201FBE287825B095693C21775 CALLER PUSH2 0x82F JUMP JUMPDEST DUP1 PUSH2 0x15BC JUMPI PUSH1 0x40 MLOAD PUSH32 0x3FB4608600000000000000000000000000000000000000000000000000000000 DUP2 MSTORE PUSH1 0x4 ADD PUSH1 0x40 MLOAD DUP1 SWAP2 SUB SWAP1 REVERT JUMPDEST PUSH1 0x0 JUMPDEST DUP2 DUP2 LT ISZERO PUSH2 0x16B3 JUMPI PUSH1 0x69 PUSH1 0x0 DUP5 DUP5 DUP5 DUP2 DUP2 LT PUSH2 0x15DD JUMPI PUSH2 0x15DD PUSH2 0x35DA JUMP JUMPDEST PUSH1 0x20 SWAP1 DUP2 MUL SWAP3 SWAP1 SWAP3 ADD CALLDATALOAD DUP4 MSTORE POP DUP2 ADD SWAP2 SWAP1 SWAP2 MSTORE PUSH1 0x40 ADD PUSH1 0x0 KECCAK256 SLOAD PUSH1 0xFF AND PUSH2 0x164C JUMPI DUP3 DUP3 DUP3 DUP2 DUP2 LT PUSH2 0x1610 JUMPI PUSH2 0x1610 PUSH2 0x35DA JUMP JUMPDEST SWAP1 POP PUSH1 0x20 MUL ADD CALLDATALOAD PUSH1 0x40 MLOAD PUSH32 0xA89513E100000000000000000000000000000000000000000000000000000000 DUP2 MSTORE PUSH1 0x4 ADD PUSH2 0x9E1 SWAP2 DUP2 MSTORE PUSH1 0x20 ADD SWAP1 JUMP JUMPDEST PUSH1 0x69 PUSH1 0x0 DUP5 DUP5 DUP5 DUP2 DUP2 LT PUSH2 0x1662 JUMPI PUSH2 0x1662 PUSH2 0x35DA JUMP JUMPDEST PUSH1 0x20 SWAP1 DUP2 MUL SWAP3 SWAP1 SWAP3 ADD CALLDATALOAD DUP4 MSTORE POP DUP2 ADD SWAP2 SWAP1 SWAP2 MSTORE PUSH1 0x40 ADD PUSH1 0x0 KECCAK256 DUP1 SLOAD PUSH32 0xFFFFFFFFFFFFFFFFFFFFFFFFFFFFFFFFFFFFFFFFFFFFFFFFFFFFFFFFFFFFFF00 AND SWAP1 SSTORE DUP1 PUSH2 0x16AB DUP2 PUSH2 0x3609 JUMP JUMPDEST SWAP2 POP POP PUSH2 0x15BF JUMP JUMPDEST POP PUSH32 0x5B2C9FCBB27D48BDBFC59F0564B5BA81539309EBF09A940FAD64D171BCFB9FF9 DUP3 DUP3 PUSH1 0x40 MLOAD PUSH2 0xE1D SWAP3 SWAP2 SWAP1 PUSH2 0x3641 JUMP JUMPDEST PUSH1 0x0 PUSH2 0x1729 DUP4 DUP4 PUSH2 0x16F4 PUSH2 0x21E6 JUMP JUMPDEST PUSH1 0x0 SWAP3 DUP4 MSTORE PUSH1 0x20 SWAP1 DUP2 MSTORE PUSH1 0x40 DUP1 DUP5 KECCAK256 PUSH20 0xFFFFFFFFFFFFFFFFFFFFFFFFFFFFFFFFFFFFFFFF SWAP1 SWAP4 AND DUP5 MSTORE SWAP2 SWAP1 MSTORE SWAP1 KECCAK256 SLOAD PUSH1 0xFF AND SWAP1 JUMP JUMPDEST SWAP1 POP JUMPDEST SWAP3 SWAP2 POP POP JUMP JUMPDEST PUSH1 0x40 MLOAD PUSH32 0xCAD6B90100000000000000000000000000000000000000000000000000000000 DUP2 MSTORE PUSH1 0x0 SWAP1 PUSH20 0xFFFFFFFFFFFFFFFFFFFFFFFFFFFFFFFFFFFFFFFF PUSH32 0x0 AND SWAP1 PUSH4 0xCAD6B901 SWAP1 PUSH2 0x17AB SWAP1 DUP12 SWAP1 DUP12 SWAP1 DUP15 SWAP1 PUSH1 0x4 ADD PUSH2 0x350B JUMP JUMPDEST PUSH1 0x20 PUSH1 0x40 MLOAD DUP1 DUP4 SUB DUP2 DUP7 GAS STATICCALL ISZERO DUP1 ISZERO PUSH2 0x17C8 JUMPI RETURNDATASIZE PUSH1 0x0 DUP1 RETURNDATACOPY RETURNDATASIZE PUSH1 0x0 REVERT JUMPDEST POP POP POP POP PUSH1 0x40 MLOAD RETURNDATASIZE PUSH1 0x1F NOT PUSH1 0x1F DUP3 ADD AND DUP3 ADD DUP1 PUSH1 0x40 MSTORE POP DUP2 ADD SWAP1 PUSH2 0x17EC SWAP2 SWAP1 PUSH2 0x3562 JUMP JUMPDEST SWAP1 POP PUSH2 0x17FC DUP2 DUP8 DUP8 DUP8 DUP8 DUP8 PUSH2 0x1C87 JUMP JUMPDEST POP POP POP POP POP POP POP POP POP JUMP JUMPDEST PUSH1 0x40 MLOAD PUSH32 0xA9735F9400000000000000000000000000000000000000000000000000000000 DUP2 MSTORE PUSH1 0x4 DUP2 ADD DUP3 SWAP1 MSTORE PUSH1 0x0 SWAP1 DUP2 SWAP1 PUSH20 0xFFFFFFFFFFFFFFFFFFFFFFFFFFFFFFFFFFFFFFFF PUSH32 0x0 AND SWAP1 PUSH4 0xA9735F94 SWAP1 PUSH1 0x24 ADD PUSH1 0x20 PUSH1 0x40 MLOAD DUP1 DUP4 SUB DUP2 DUP7 GAS STATICCALL ISZERO DUP1 ISZERO PUSH2 0x1897 JUMPI RETURNDATASIZE PUSH1 0x0 DUP1 RETURNDATACOPY RETURNDATASIZE PUSH1 0x0 REVERT JUMPDEST POP POP POP POP PUSH1 0x40 MLOAD RETURNDATASIZE PUSH1 0x1F NOT PUSH1 0x1F DUP3 ADD AND DUP3 ADD DUP1 PUSH1 0x40 MSTORE POP DUP2 ADD SWAP1 PUSH2 0x18BB SWAP2 SWAP1 PUSH2 0x3562 JUMP JUMPDEST PUSH1 0x65 SLOAD PUSH1 0x0 SWAP1 DUP2 MSTORE PUSH1 0x67 PUSH1 0x20 SWAP1 DUP2 MSTORE PUSH1 0x40 DUP1 DUP4 KECCAK256 SWAP7 DUP4 MSTORE SWAP6 DUP2 MSTORE DUP6 DUP3 KECCAK256 SWAP3 DUP3 MSTORE SWAP2 SWAP1 SWAP2 MSTORE SWAP3 SWAP1 SWAP3 KECCAK256 SLOAD SWAP3 SWAP2 POP POP JUMP JUMPDEST PUSH1 0x40 MLOAD PUSH32 0xCAD6B90100000000000000000000000000000000000000000000000000000000 DUP2 MSTORE PUSH1 0x0 SWAP1 PUSH20 0xFFFFFFFFFFFFFFFFFFFFFFFFFFFFFFFFFFFFFFFF PUSH32 0x0 AND SWAP1 PUSH4 0xCAD6B901 SWAP1 PUSH2 0x1963 SWAP1 DUP10 SWAP1 DUP10 SWAP1 DUP13 SWAP1 PUSH1 0x4 ADD PUSH2 0x350B JUMP JUMPDEST PUSH1 0x20 PUSH1 0x40 MLOAD DUP1 DUP4 SUB DUP2 DUP7 GAS STATICCALL ISZERO DUP1 ISZERO PUSH2 0x1980 JUMPI RETURNDATASIZE PUSH1 0x0 DUP1 RETURNDATACOPY RETURNDATASIZE PUSH1 0x0 REVERT JUMPDEST POP POP POP POP PUSH1 0x40 MLOAD RETURNDATASIZE PUSH1 0x1F NOT PUSH1 0x1F DUP3 ADD AND DUP3 ADD DUP1 PUSH1 0x40 MSTORE POP DUP2 ADD SWAP1 PUSH2 0x19A4 SWAP2 SWAP1 PUSH2 0x3562 JUMP JUMPDEST SWAP1 POP PUSH2 0x19B3 DUP9 DUP3 DUP7 DUP7 DUP7 PUSH2 0x809 JUMP JUMPDEST POP POP POP POP POP POP POP POP JUMP JUMPDEST PUSH1 0x40 MLOAD PUSH32 0xA9735F9400000000000000000000000000000000000000000000000000000000 DUP2 MSTORE PUSH1 0x4 DUP2 ADD DUP3 SWAP1 MSTORE PUSH1 0x0 SWAP1 DUP2 SWAP1 PUSH20 0xFFFFFFFFFFFFFFFFFFFFFFFFFFFFFFFFFFFFFFFF PUSH32 0x0 AND SWAP1 PUSH4 0xA9735F94 SWAP1 PUSH1 0x24 ADD PUSH1 0x20 PUSH1 0x40 MLOAD DUP1 DUP4 SUB DUP2 DUP7 GAS STATICCALL ISZERO DUP1 ISZERO PUSH2 0x1A4D JUMPI RETURNDATASIZE PUSH1 0x0 DUP1 RETURNDATACOPY RETURNDATASIZE PUSH1 0x0 REVERT JUMPDEST POP POP POP POP PUSH1 0x40 MLOAD RETURNDATASIZE PUSH1 0x1F NOT PUSH1 0x1F DUP3 ADD AND DUP3 ADD DUP1 PUSH1 0x40 MSTORE POP DUP2 ADD SWAP1 PUSH2 0x1A71 SWAP2 SWAP1 PUSH2 0x3562 JUMP JUMPDEST PUSH1 0x0 SWAP5 DUP6 MSTORE PUSH1 0x67 PUSH1 0x20 SWAP1 DUP2 MSTORE PUSH1 0x40 DUP1 DUP8 KECCAK256 SWAP6 DUP8 MSTORE SWAP5 DUP2 MSTORE DUP5 DUP7 KECCAK256 SWAP2 DUP7 MSTORE MSTORE POP POP SWAP1 KECCAK256 SLOAD SWAP1 JUMP JUMPDEST PUSH1 0x40 MLOAD PUSH32 0x6352211E00000000000000000000000000000000000000000000000000000000 DUP2 MSTORE PUSH1 0x4 DUP2 ADD DUP5 SWAP1 MSTORE PUSH1 0x0 SWAP1 PUSH32 0x0 PUSH20 0xFFFFFFFFFFFFFFFFFFFFFFFFFFFFFFFFFFFFFFFF AND SWAP1 PUSH4 0x6352211E SWAP1 PUSH1 0x24 ADD PUSH1 0x20 PUSH1 0x40 MLOAD DUP1 DUP4 SUB DUP2 DUP7 GAS STATICCALL ISZERO DUP1 ISZERO PUSH2 0x1B25 JUMPI RETURNDATASIZE PUSH1 0x0 DUP1 RETURNDATACOPY RETURNDATASIZE PUSH1 0x0 REVERT JUMPDEST POP POP POP POP PUSH1 0x40 MLOAD RETURNDATASIZE PUSH1 0x1F NOT PUSH1 0x1F DUP3 ADD AND DUP3 ADD DUP1 PUSH1 0x40 MSTORE POP DUP2 ADD SWAP1 PUSH2 0x1B49 SWAP2 SWAP1 PUSH2 0x357B JUMP JUMPDEST SWAP1 POP CALLER PUSH20 0xFFFFFFFFFFFFFFFFFFFFFFFFFFFFFFFFFFFFFFFF DUP3 AND EQ PUSH2 0x1B9C JUMPI PUSH1 0x40 MLOAD PUSH32 0x33FFFF9B00000000000000000000000000000000000000000000000000000000 DUP2 MSTORE CALLER PUSH1 0x4 DUP3 ADD MSTORE PUSH1 0x24 ADD PUSH2 0x9E1 JUMP JUMPDEST PUSH1 0x40 MLOAD PUSH32 0xA9735F9400000000000000000000000000000000000000000000000000000000 DUP2 MSTORE PUSH1 0x4 DUP2 ADD DUP6 SWAP1 MSTORE PUSH1 0x0 SWAP1 PUSH32 0x0 PUSH20 0xFFFFFFFFFFFFFFFFFFFFFFFFFFFFFFFFFFFFFFFF AND SWAP1 PUSH4 0xA9735F94 SWAP1 PUSH1 0x24 ADD PUSH1 0x20 PUSH1 0x40 MLOAD DUP1 DUP4 SUB DUP2 DUP7 GAS STATICCALL ISZERO DUP1 ISZERO PUSH2 0x1C2A JUMPI RETURNDATASIZE PUSH1 0x0 DUP1 RETURNDATACOPY RETURNDATASIZE PUSH1 0x0 REVERT JUMPDEST POP POP POP POP PUSH1 0x40 MLOAD RETURNDATASIZE PUSH1 0x1F NOT PUSH1 0x1F DUP3 ADD AND DUP3 ADD DUP1 PUSH1 0x40 MSTORE POP DUP2 ADD SWAP1 PUSH2 0x1C4E SWAP2 SWAP1 PUSH2 0x3562 JUMP JUMPDEST SWAP1 POP PUSH2 0x1C5D DUP6 DUP3 DUP7 DUP7 DUP7 PUSH2 0x2791 JUMP JUMPDEST POP POP POP POP POP JUMP JUMPDEST CALLER PUSH2 0x1C71 DUP2 PUSH2 0xA7C PUSH2 0x229A JUMP JUMPDEST PUSH2 0xA98 DUP4 DUP4 DUP4 PUSH2 0x1C7F PUSH2 0x21E6 JUMP JUMPDEST SWAP3 SWAP2 SWAP1 PUSH2 0x28E8 JUMP JUMPDEST PUSH1 0x40 MLOAD PUSH32 0xA9735F9400000000000000000000000000000000000000000000000000000000 DUP2 MSTORE PUSH1 0x4 DUP2 ADD DUP8 SWAP1 MSTORE PUSH1 0x0 SWAP1 PUSH32 0x0 PUSH20 0xFFFFFFFFFFFFFFFFFFFFFFFFFFFFFFFFFFFFFFFF AND SWAP1 PUSH4 0xA9735F94 SWAP1 PUSH1 0x24 ADD PUSH1 0x20 PUSH1 0x40 MLOAD DUP1 DUP4 SUB DUP2 DUP7 GAS STATICCALL ISZERO DUP1 ISZERO PUSH2 0x1D15 JUMPI RETURNDATASIZE PUSH1 0x0 DUP1 RETURNDATACOPY RETURNDATASIZE PUSH1 0x0 REVERT JUMPDEST POP POP POP POP PUSH1 0x40 MLOAD RETURNDATASIZE PUSH1 0x1F NOT PUSH1 0x1F DUP3 ADD AND DUP3 ADD DUP1 PUSH1 0x40 MSTORE POP DUP2 ADD SWAP1 PUSH2 0x1D39 SWAP2 SWAP1 PUSH2 0x3562 JUMP JUMPDEST PUSH1 0x0 DUP9 DUP2 MSTORE PUSH1 0x68 PUSH1 0x20 SWAP1 DUP2 MSTORE PUSH1 0x40 DUP1 DUP4 KECCAK256 SLOAD PUSH1 0x65 SLOAD DUP3 MLOAD DUP1 DUP6 ADD DUP15 SWAP1 MSTORE DUP1 DUP5 ADD DUP8 SWAP1 MSTORE PUSH1 0x60 DUP2 ADD DUP14 SWAP1 MSTORE PUSH1 0x80 DUP2 ADD SWAP2 SWAP1 SWAP2 MSTORE PUSH1 0xA0 DUP2 ADD DUP12 SWAP1 MSTORE PUSH1 0xC0 DUP1 DUP3 ADD SWAP3 SWAP1 SWAP3 MSTORE DUP3 MLOAD DUP1 DUP3 SUB SWAP1 SWAP3 ADD DUP3 MSTORE PUSH1 0xE0 ADD SWAP1 SWAP2 MSTORE DUP1 MLOAD SWAP2 ADD KECCAK256 SWAP2 SWAP3 POP SWAP1 PUSH1 0x40 MLOAD PUSH32 0x19457468657265756D205369676E6564204D6573736167653A0A333200000000 PUSH1 0x20 DUP3 ADD MSTORE PUSH1 0x3C DUP2 ADD DUP3 SWAP1 MSTORE SWAP1 SWAP2 POP PUSH1 0x0 SWAP1 PUSH1 0x5C ADD PUSH1 0x40 DUP1 MLOAD PUSH32 0xFFFFFFFFFFFFFFFFFFFFFFFFFFFFFFFFFFFFFFFFFFFFFFFFFFFFFFFFFFFFFFE0 DUP2 DUP5 SUB ADD DUP2 MSTORE DUP3 DUP3 MSTORE DUP1 MLOAD PUSH1 0x20 SWAP2 DUP3 ADD KECCAK256 PUSH1 0x0 DUP1 DUP6 MSTORE SWAP2 DUP5 ADD DUP1 DUP5 MSTORE DUP2 SWAP1 MSTORE PUSH1 0xFF DUP11 AND SWAP3 DUP5 ADD SWAP3 SWAP1 SWAP3 MSTORE PUSH1 0x60 DUP4 ADD DUP9 SWAP1 MSTORE PUSH1 0x80 DUP4 ADD DUP8 SWAP1 MSTORE SWAP1 SWAP3 POP SWAP1 PUSH1 0x1 SWAP1 PUSH1 0xA0 ADD PUSH1 0x20 PUSH1 0x40 MLOAD PUSH1 0x20 DUP2 SUB SWAP1 DUP1 DUP5 SUB SWAP1 DUP6 GAS STATICCALL ISZERO DUP1 ISZERO PUSH2 0x1E56 JUMPI RETURNDATASIZE PUSH1 0x0 DUP1 RETURNDATACOPY RETURNDATASIZE PUSH1 0x0 REVERT JUMPDEST POP POP PUSH1 0x40 MLOAD PUSH32 0xFFFFFFFFFFFFFFFFFFFFFFFFFFFFFFFFFFFFFFFFFFFFFFFFFFFFFFFFFFFFFFE0 DUP2 ADD MLOAD PUSH32 0x6352211E00000000000000000000000000000000000000000000000000000000 DUP3 MSTORE PUSH1 0x4 DUP3 ADD DUP14 SWAP1 MSTORE SWAP3 POP PUSH1 0x0 SWAP2 POP PUSH32 0x0 PUSH20 0xFFFFFFFFFFFFFFFFFFFFFFFFFFFFFFFFFFFFFFFF AND SWAP1 PUSH4 0x6352211E SWAP1 PUSH1 0x24 ADD PUSH1 0x20 PUSH1 0x40 MLOAD DUP1 DUP4 SUB DUP2 DUP7 GAS STATICCALL ISZERO DUP1 ISZERO PUSH2 0x1F0D JUMPI RETURNDATASIZE PUSH1 0x0 DUP1 RETURNDATACOPY RETURNDATASIZE PUSH1 0x0 REVERT JUMPDEST POP POP POP POP PUSH1 0x40 MLOAD RETURNDATASIZE PUSH1 0x1F NOT PUSH1 0x1F DUP3 ADD AND DUP3 ADD DUP1 PUSH1 0x40 MSTORE POP DUP2 ADD SWAP1 PUSH2 0x1F31 SWAP2 SWAP1 PUSH2 0x357B JUMP JUMPDEST SWAP1 POP DUP1 PUSH20 0xFFFFFFFFFFFFFFFFFFFFFFFFFFFFFFFFFFFFFFFF AND DUP3 PUSH20 0xFFFFFFFFFFFFFFFFFFFFFFFFFFFFFFFFFFFFFFFF AND EQ PUSH2 0x1FB0 JUMPI PUSH1 0x40 MLOAD PUSH32 0x33FFFF9B00000000000000000000000000000000000000000000000000000000 DUP2 MSTORE PUSH20 0xFFFFFFFFFFFFFFFFFFFFFFFFFFFFFFFFFFFFFFFF DUP4 AND PUSH1 0x4 DUP3 ADD MSTORE PUSH1 0x24 ADD PUSH2 0x9E1 JUMP JUMPDEST PUSH2 0x1FBD DUP12 DUP7 DUP13 DUP13 DUP6 PUSH2 0x2791 JUMP JUMPDEST PUSH1 0x0 DUP12 DUP2 MSTORE PUSH1 0x68 PUSH1 0x20 MSTORE PUSH1 0x40 DUP2 KECCAK256 DUP1 SLOAD SWAP2 PUSH2 0x1FD7 DUP4 PUSH2 0x3609 JUMP JUMPDEST SWAP2 SWAP1 POP SSTORE POP POP POP POP POP POP POP POP POP POP POP POP JUMP JUMPDEST PUSH1 0x40 MLOAD PUSH32 0xA9735F9400000000000000000000000000000000000000000000000000000000 DUP2 MSTORE PUSH1 0x4 DUP2 ADD DUP5 SWAP1 MSTORE PUSH1 0x0 SWAP1 DUP2 SWAP1 PUSH20 0xFFFFFFFFFFFFFFFFFFFFFFFFFFFFFFFFFFFFFFFF PUSH32 0x0 AND SWAP1 PUSH4 0xA9735F94 SWAP1 PUSH1 0x24 ADD PUSH1 0x20 PUSH1 0x40 MLOAD DUP1 DUP4 SUB DUP2 DUP7 GAS STATICCALL ISZERO DUP1 ISZERO PUSH2 0x2079 JUMPI RETURNDATASIZE PUSH1 0x0 DUP1 RETURNDATACOPY RETURNDATASIZE PUSH1 0x0 REVERT JUMPDEST POP POP POP POP PUSH1 0x40 MLOAD RETURNDATASIZE PUSH1 0x1F NOT PUSH1 0x1F DUP3 ADD AND DUP3 ADD DUP1 PUSH1 0x40 MSTORE POP DUP2 ADD SWAP1 PUSH2 0x209D SWAP2 SWAP1 PUSH2 0x3562 JUMP JUMPDEST PUSH1 0x0 DUP7 DUP2 MSTORE PUSH1 0x68 PUSH1 0x20 SWAP1 DUP2 MSTORE PUSH1 0x40 DUP1 DUP4 KECCAK256 SLOAD PUSH1 0x65 SLOAD DUP3 MLOAD DUP1 DUP6 ADD DUP13 SWAP1 MSTORE DUP1 DUP5 ADD DUP8 SWAP1 MSTORE PUSH1 0x60 DUP2 ADD DUP12 SWAP1 MSTORE PUSH1 0x80 DUP2 ADD SWAP2 SWAP1 SWAP2 MSTORE PUSH1 0xA0 DUP2 ADD DUP10 SWAP1 MSTORE PUSH1 0xC0 DUP1 DUP3 ADD SWAP3 SWAP1 SWAP3 MSTORE DUP3 MLOAD DUP1 DUP3 SUB SWAP1 SWAP3 ADD DUP3 MSTORE PUSH1 0xE0 ADD SWAP1 SWAP2 MSTORE DUP1 MLOAD SWAP2 ADD KECCAK256 SWAP2 SWAP3 POP SWAP1 JUMPDEST SWAP7 SWAP6 POP POP POP POP POP POP JUMP JUMPDEST PUSH1 0x40 MLOAD PUSH32 0xCAD6B90100000000000000000000000000000000000000000000000000000000 DUP2 MSTORE PUSH1 0x0 SWAP1 PUSH20 0xFFFFFFFFFFFFFFFFFFFFFFFFFFFFFFFFFFFFFFFF PUSH32 0x0 AND SWAP1 PUSH4 0xCAD6B901 SWAP1 PUSH2 0x217C SWAP1 DUP9 SWAP1 DUP9 SWAP1 DUP12 SWAP1 PUSH1 0x4 ADD PUSH2 0x350B JUMP JUMPDEST PUSH1 0x20 PUSH1 0x40 MLOAD DUP1 DUP4 SUB DUP2 DUP7 GAS STATICCALL ISZERO DUP1 ISZERO PUSH2 0x2199 JUMPI RETURNDATASIZE PUSH1 0x0 DUP1 RETURNDATACOPY RETURNDATASIZE PUSH1 0x0 REVERT JUMPDEST POP POP POP POP PUSH1 0x40 MLOAD RETURNDATASIZE PUSH1 0x1F NOT PUSH1 0x1F DUP3 ADD AND DUP3 ADD DUP1 PUSH1 0x40 MSTORE POP DUP2 ADD SWAP1 PUSH2 0x21BD SWAP2 SWAP1 PUSH2 0x3562 JUMP JUMPDEST SWAP1 POP PUSH2 0x21CA DUP2 DUP5 DUP5 PUSH2 0x1A97 JUMP JUMPDEST POP POP POP POP POP POP JUMP JUMPDEST PUSH2 0xC9F CALLER DUP3 PUSH2 0x21DF PUSH2 0x229A JUMP JUMPDEST SWAP2 SWAP1 PUSH2 0x29B2 JUMP JUMPDEST PUSH1 0x0 DUP1 PUSH2 0x172C PUSH1 0x1 PUSH32 0xC8827D3282AF6F37B64C3E9E6F3AC9DF286AB0BB0FCCD6F8661BF19ADB368B23 PUSH2 0x3693 JUMP JUMPDEST PUSH1 0x0 DUP3 DUP2 MSTORE PUSH1 0x20 DUP5 DUP2 MSTORE PUSH1 0x40 DUP1 DUP4 KECCAK256 PUSH20 0xFFFFFFFFFFFFFFFFFFFFFFFFFFFFFFFFFFFFFFFF DUP6 AND DUP5 MSTORE SWAP1 SWAP2 MSTORE SWAP1 KECCAK256 SLOAD PUSH1 0xFF AND PUSH2 0xA98 JUMPI PUSH1 0x40 MLOAD PUSH32 0x7AA7288200000000000000000000000000000000000000000000000000000000 DUP2 MSTORE PUSH1 0x4 DUP2 ADD DUP4 SWAP1 MSTORE PUSH20 0xFFFFFFFFFFFFFFFFFFFFFFFFFFFFFFFFFFFFFFFF DUP3 AND PUSH1 0x24 DUP3 ADD MSTORE PUSH1 0x44 ADD PUSH2 0x9E1 JUMP JUMPDEST PUSH1 0x0 DUP1 PUSH2 0x172C PUSH1 0x1 PUSH32 0xC9ED16F33AB3A66C84BFD83099CCB2A8845871E2E1C1928F63797152F0FD54CD PUSH2 0x3693 JUMP JUMPDEST DUP2 SLOAD PUSH20 0xFFFFFFFFFFFFFFFFFFFFFFFFFFFFFFFFFFFFFFFF DUP3 DUP2 AND SWAP2 AND EQ PUSH2 0x101B JUMPI PUSH1 0x40 MLOAD PUSH32 0x2EF4875E00000000000000000000000000000000000000000000000000000000 DUP2 MSTORE PUSH20 0xFFFFFFFFFFFFFFFFFFFFFFFFFFFFFFFFFFFFFFFF DUP3 AND PUSH1 0x4 DUP3 ADD MSTORE PUSH1 0x24 ADD PUSH2 0x9E1 JUMP JUMPDEST PUSH1 0x0 DUP4 DUP2 MSTORE PUSH1 0x20 DUP6 DUP2 MSTORE PUSH1 0x40 DUP1 DUP4 KECCAK256 PUSH20 0xFFFFFFFFFFFFFFFFFFFFFFFFFFFFFFFFFFFFFFFF DUP7 AND DUP5 MSTORE SWAP1 SWAP2 MSTORE SWAP1 KECCAK256 SLOAD PUSH1 0xFF AND PUSH2 0x2404 JUMPI PUSH1 0x0 DUP4 DUP2 MSTORE PUSH1 0x20 DUP6 DUP2 MSTORE PUSH1 0x40 DUP1 DUP4 KECCAK256 PUSH20 0xFFFFFFFFFFFFFFFFFFFFFFFFFFFFFFFFFFFFFFFF DUP7 DUP2 AND DUP1 DUP7 MSTORE SWAP2 DUP5 MSTORE SWAP4 DUP3 SWAP1 KECCAK256 DUP1 SLOAD PUSH32 0xFFFFFFFFFFFFFFFFFFFFFFFFFFFFFFFFFFFFFFFFFFFFFFFFFFFFFFFFFFFFFF00 AND PUSH1 0x1 OR SWAP1 SSTORE DUP2 MLOAD DUP8 DUP2 MSTORE SWAP3 DUP4 ADD MSTORE SWAP2 DUP4 AND SWAP2 DUP2 ADD SWAP2 SWAP1 SWAP2 MSTORE PUSH32 0x2F8788117E7EFF1D82E926EC794901D17C78024A50270940304540A733656F0D SWAP1 PUSH1 0x60 ADD JUMPDEST PUSH1 0x40 MLOAD DUP1 SWAP2 SUB SWAP1 LOG1 JUMPDEST POP POP POP POP JUMP JUMPDEST PUSH2 0xC9F CALLER PUSH2 0xA7C PUSH2 0x229A JUMP JUMPDEST PUSH32 0x4910FDFA16FED3260ED0E7147F7CC6DA11A60208B5B9406D12A635614FFD9143 SLOAD PUSH1 0xFF AND ISZERO PUSH2 0x2449 JUMPI PUSH2 0xA98 DUP4 PUSH2 0x2AC6 JUMP JUMPDEST DUP3 PUSH20 0xFFFFFFFFFFFFFFFFFFFFFFFFFFFFFFFFFFFFFFFF AND PUSH4 0x52D1902D PUSH1 0x40 MLOAD DUP2 PUSH4 0xFFFFFFFF AND PUSH1 0xE0 SHL DUP2 MSTORE PUSH1 0x4 ADD PUSH1 0x20 PUSH1 0x40 MLOAD DUP1 DUP4 SUB DUP2 DUP7 GAS STATICCALL SWAP3 POP POP POP DUP1 ISZERO PUSH2 0x24CE JUMPI POP PUSH1 0x40 DUP1 MLOAD PUSH1 0x1F RETURNDATASIZE SWAP1 DUP2 ADD PUSH32 0xFFFFFFFFFFFFFFFFFFFFFFFFFFFFFFFFFFFFFFFFFFFFFFFFFFFFFFFFFFFFFFE0 AND DUP3 ADD SWAP1 SWAP3 MSTORE PUSH2 0x24CB SWAP2 DUP2 ADD SWAP1 PUSH2 0x3562 JUMP JUMPDEST PUSH1 0x1 JUMPDEST PUSH2 0x255A JUMPI PUSH1 0x40 MLOAD PUSH32 0x8C379A000000000000000000000000000000000000000000000000000000000 DUP2 MSTORE PUSH1 0x20 PUSH1 0x4 DUP3 ADD MSTORE PUSH1 0x2E PUSH1 0x24 DUP3 ADD MSTORE PUSH32 0x45524331393637557067726164653A206E657720696D706C656D656E74617469 PUSH1 0x44 DUP3 ADD MSTORE PUSH32 0x6F6E206973206E6F742055555053000000000000000000000000000000000000 PUSH1 0x64 DUP3 ADD MSTORE PUSH1 0x84 ADD PUSH2 0x9E1 JUMP JUMPDEST PUSH32 0x360894A13BA1A3210667C828492DB98DCA3E2076CC3735A920A3CA505D382BBC DUP2 EQ PUSH2 0x2609 JUMPI PUSH1 0x40 MLOAD PUSH32 0x8C379A000000000000000000000000000000000000000000000000000000000 DUP2 MSTORE PUSH1 0x20 PUSH1 0x4 DUP3 ADD MSTORE PUSH1 0x29 PUSH1 0x24 DUP3 ADD MSTORE PUSH32 0x45524331393637557067726164653A20756E737570706F727465642070726F78 PUSH1 0x44 DUP3 ADD MSTORE PUSH32 0x6961626C65555549440000000000000000000000000000000000000000000000 PUSH1 0x64 DUP3 ADD MSTORE PUSH1 0x84 ADD PUSH2 0x9E1 JUMP JUMPDEST POP PUSH2 0xA98 DUP4 DUP4 DUP4 PUSH2 0x2BD0 JUMP JUMPDEST PUSH1 0x0 SLOAD PUSH2 0x100 SWAP1 DIV PUSH1 0xFF AND PUSH2 0x26AC JUMPI PUSH1 0x40 MLOAD PUSH32 0x8C379A000000000000000000000000000000000000000000000000000000000 DUP2 MSTORE PUSH1 0x20 PUSH1 0x4 DUP3 ADD MSTORE PUSH1 0x2B PUSH1 0x24 DUP3 ADD MSTORE PUSH32 0x496E697469616C697A61626C653A20636F6E7472616374206973206E6F742069 PUSH1 0x44 DUP3 ADD MSTORE PUSH32 0x6E697469616C697A696E67000000000000000000000000000000000000000000 PUSH1 0x64 DUP3 ADD MSTORE PUSH1 0x84 ADD PUSH2 0x9E1 JUMP JUMPDEST JUMP JUMPDEST PUSH2 0x26E3 PUSH2 0x26DC PUSH1 0x1 PUSH32 0x5B388D90DC1312BA799F321972F13311234FA1163BCABEC7CF66101C4876EB84 PUSH2 0x3693 JUMP JUMPDEST PUSH1 0x1 PUSH2 0x2BF5 JUMP JUMPDEST PUSH2 0x101B DUP3 DUP3 PUSH2 0x2C41 JUMP JUMPDEST PUSH2 0x26F8 DUP4 DUP3 DUP5 PUSH2 0x2214 JUMP JUMPDEST PUSH1 0x0 DUP2 DUP2 MSTORE PUSH1 0x20 DUP5 DUP2 MSTORE PUSH1 0x40 DUP1 DUP4 KECCAK256 PUSH20 0xFFFFFFFFFFFFFFFFFFFFFFFFFFFFFFFFFFFFFFFF DUP7 AND DUP1 DUP6 MSTORE SWAP1 DUP4 MSTORE SWAP3 DUP2 SWAP1 KECCAK256 DUP1 SLOAD PUSH32 0xFFFFFFFFFFFFFFFFFFFFFFFFFFFFFFFFFFFFFFFFFFFFFFFFFFFFFFFFFFFFFF00 AND SWAP1 SSTORE DUP1 MLOAD DUP5 DUP2 MSTORE SWAP2 DUP3 ADD DUP4 SWAP1 MSTORE DUP2 ADD SWAP2 SWAP1 SWAP2 MSTORE PUSH32 0xF6391F5C32D9C69D2A47EA670B442974B53935D1EDC7FD64EB21E047A839171B SWAP1 PUSH1 0x60 ADD PUSH1 0x40 MLOAD DUP1 SWAP2 SUB SWAP1 LOG1 POP POP POP JUMP JUMPDEST PUSH1 0x65 SLOAD PUSH1 0x0 SWAP1 DUP2 MSTORE PUSH1 0x67 PUSH1 0x20 SWAP1 DUP2 MSTORE PUSH1 0x40 DUP1 DUP4 KECCAK256 DUP9 DUP5 MSTORE DUP3 MSTORE DUP1 DUP4 KECCAK256 DUP8 DUP5 MSTORE SWAP1 SWAP2 MSTORE SWAP1 KECCAK256 SLOAD DUP4 GT ISZERO PUSH2 0x27F9 JUMPI PUSH1 0x40 MLOAD PUSH32 0xCF47918100000000000000000000000000000000000000000000000000000000 DUP2 MSTORE PUSH1 0x4 DUP2 ADD DUP7 SWAP1 MSTORE PUSH1 0x24 DUP2 ADD DUP5 SWAP1 MSTORE PUSH1 0x44 ADD PUSH2 0x9E1 JUMP JUMPDEST PUSH1 0x0 DUP3 DUP2 MSTORE PUSH1 0x69 PUSH1 0x20 MSTORE PUSH1 0x40 SWAP1 KECCAK256 SLOAD PUSH1 0xFF AND PUSH2 0x2844 JUMPI PUSH1 0x40 MLOAD PUSH32 0xA89513E100000000000000000000000000000000000000000000000000000000 DUP2 MSTORE PUSH1 0x4 DUP2 ADD DUP4 SWAP1 MSTORE PUSH1 0x24 ADD PUSH2 0x9E1 JUMP JUMPDEST PUSH1 0x65 SLOAD PUSH1 0x0 SWAP1 DUP2 MSTORE PUSH1 0x67 PUSH1 0x20 SWAP1 DUP2 MSTORE PUSH1 0x40 DUP1 DUP4 KECCAK256 DUP9 DUP5 MSTORE DUP3 MSTORE DUP1 DUP4 KECCAK256 DUP8 DUP5 MSTORE SWAP1 SWAP2 MSTORE DUP2 KECCAK256 DUP1 SLOAD DUP6 SWAP3 SWAP1 PUSH2 0x2878 SWAP1 DUP5 SWAP1 PUSH2 0x3693 JUMP JUMPDEST SWAP1 SWAP2 SSTORE POP POP PUSH1 0x65 SLOAD PUSH1 0x40 DUP1 MLOAD CALLER DUP2 MSTORE PUSH1 0x20 DUP2 ADD DUP8 SWAP1 MSTORE DUP1 DUP3 ADD DUP7 SWAP1 MSTORE PUSH20 0xFFFFFFFFFFFFFFFFFFFFFFFFFFFFFFFFFFFFFFFF DUP5 AND PUSH1 0x60 DUP3 ADD MSTORE SWAP1 MLOAD DUP5 SWAP3 SWAP2 DUP9 SWAP2 PUSH32 0xE514533875FBD3F8F396088D636E746599D8B5C3BA77E9CCFA9FC01FF7064601 SWAP2 DUP2 SWAP1 SUB PUSH1 0x80 ADD SWAP1 LOG4 POP POP POP POP POP JUMP JUMPDEST PUSH1 0x0 DUP4 DUP2 MSTORE PUSH1 0x20 DUP6 DUP2 MSTORE PUSH1 0x40 DUP1 DUP4 KECCAK256 PUSH20 0xFFFFFFFFFFFFFFFFFFFFFFFFFFFFFFFFFFFFFFFF DUP7 AND DUP5 MSTORE SWAP1 SWAP2 MSTORE SWAP1 KECCAK256 SLOAD PUSH1 0xFF AND ISZERO PUSH2 0x2404 JUMPI PUSH1 0x0 DUP4 DUP2 MSTORE PUSH1 0x20 DUP6 DUP2 MSTORE PUSH1 0x40 DUP1 DUP4 KECCAK256 PUSH20 0xFFFFFFFFFFFFFFFFFFFFFFFFFFFFFFFFFFFFFFFF DUP7 DUP2 AND DUP1 DUP7 MSTORE SWAP2 DUP5 MSTORE SWAP4 DUP3 SWAP1 KECCAK256 DUP1 SLOAD PUSH32 0xFFFFFFFFFFFFFFFFFFFFFFFFFFFFFFFFFFFFFFFFFFFFFFFFFFFFFFFFFFFFFF00 AND SWAP1 SSTORE DUP2 MLOAD DUP8 DUP2 MSTORE SWAP3 DUP4 ADD MSTORE SWAP2 DUP4 AND SWAP2 DUP2 ADD SWAP2 SWAP1 SWAP2 MSTORE PUSH32 0xF6391F5C32D9C69D2A47EA670B442974B53935D1EDC7FD64EB21E047A839171B SWAP1 PUSH1 0x60 ADD PUSH2 0x23FB JUMP JUMPDEST DUP3 SLOAD PUSH20 0xFFFFFFFFFFFFFFFFFFFFFFFFFFFFFFFFFFFFFFFF SWAP1 DUP2 AND SWAP1 DUP4 AND DUP2 EQ PUSH2 0x2A1F JUMPI PUSH1 0x40 MLOAD PUSH32 0x2EF4875E00000000000000000000000000000000000000000000000000000000 DUP2 MSTORE PUSH20 0xFFFFFFFFFFFFFFFFFFFFFFFFFFFFFFFFFFFFFFFF DUP5 AND PUSH1 0x4 DUP3 ADD MSTORE PUSH1 0x24 ADD PUSH2 0x9E1 JUMP JUMPDEST DUP2 PUSH20 0xFFFFFFFFFFFFFFFFFFFFFFFFFFFFFFFFFFFFFFFF AND DUP2 PUSH20 0xFFFFFFFFFFFFFFFFFFFFFFFFFFFFFFFFFFFFFFFF AND EQ PUSH2 0x2404 JUMPI DUP4 SLOAD PUSH32 0xFFFFFFFFFFFFFFFFFFFFFFFF0000000000000000000000000000000000000000 AND PUSH20 0xFFFFFFFFFFFFFFFFFFFFFFFFFFFFFFFFFFFFFFFF DUP4 DUP2 AND SWAP2 DUP3 OR DUP7 SSTORE PUSH1 0x40 MLOAD SWAP1 DUP4 AND SWAP1 PUSH32 0x8BE0079C531659141344CD1FD0A4F28419497F9722A3DAAFE3B4186F6B6457E0 SWAP1 PUSH1 0x0 SWAP1 LOG3 POP POP POP POP JUMP JUMPDEST PUSH20 0xFFFFFFFFFFFFFFFFFFFFFFFFFFFFFFFFFFFFFFFF DUP2 AND EXTCODESIZE PUSH2 0x2B6A JUMPI PUSH1 0x40 MLOAD PUSH32 0x8C379A000000000000000000000000000000000000000000000000000000000 DUP2 MSTORE PUSH1 0x20 PUSH1 0x4 DUP3 ADD MSTORE PUSH1 0x2D PUSH1 0x24 DUP3 ADD MSTORE PUSH32 0x455243313936373A206E657720696D706C656D656E746174696F6E206973206E PUSH1 0x44 DUP3 ADD MSTORE PUSH32 0x6F74206120636F6E747261637400000000000000000000000000000000000000 PUSH1 0x64 DUP3 ADD MSTORE PUSH1 0x84 ADD PUSH2 0x9E1 JUMP JUMPDEST PUSH32 0x360894A13BA1A3210667C828492DB98DCA3E2076CC3735A920A3CA505D382BBC DUP1 SLOAD PUSH32 0xFFFFFFFFFFFFFFFFFFFFFFFF0000000000000000000000000000000000000000 AND PUSH20 0xFFFFFFFFFFFFFFFFFFFFFFFFFFFFFFFFFFFFFFFF SWAP3 SWAP1 SWAP3 AND SWAP2 SWAP1 SWAP2 OR SWAP1 SSTORE JUMP JUMPDEST PUSH2 0x2BD9 DUP4 PUSH2 0x2CFE JUMP JUMPDEST PUSH1 0x0 DUP3 MLOAD GT DUP1 PUSH2 0x2BE6 JUMPI POP DUP1 JUMPDEST ISZERO PUSH2 0xA98 JUMPI PUSH2 0x2404 DUP4 DUP4 PUSH2 0x2D4B JUMP JUMPDEST DUP2 SLOAD DUP3 SWAP1 DUP3 DUP2 LT PUSH2 0x2C3C JUMPI PUSH1 0x40 MLOAD PUSH32 0xBF0C18EC00000000000000000000000000000000000000000000000000000000 DUP2 MSTORE PUSH1 0x4 DUP2 ADD DUP3 SWAP1 MSTORE PUSH1 0x24 DUP2 ADD DUP5 SWAP1 MSTORE PUSH1 0x44 ADD PUSH2 0x9E1 JUMP JUMPDEST POP SSTORE POP JUMP JUMPDEST PUSH20 0xFFFFFFFFFFFFFFFFFFFFFFFFFFFFFFFFFFFFFFFF DUP2 AND ISZERO PUSH2 0x2CC9 JUMPI DUP2 SLOAD PUSH32 0xFFFFFFFFFFFFFFFFFFFFFFFF0000000000000000000000000000000000000000 AND PUSH20 0xFFFFFFFFFFFFFFFFFFFFFFFFFFFFFFFFFFFFFFFF DUP3 AND SWAP1 DUP2 OR DUP4 SSTORE PUSH1 0x40 MLOAD PUSH1 0x0 SWAP1 PUSH32 0x8BE0079C531659141344CD1FD0A4F28419497F9722A3DAAFE3B4186F6B6457E0 SWAP1 DUP3 SWAP1 LOG3 JUMPDEST PUSH2 0x101B PUSH32 0x7F5828D000000000000000000000000000000000000000000000000000000000 PUSH1 0x1 PUSH2 0x2CF7 PUSH2 0x2D70 JUMP JUMPDEST SWAP2 SWAP1 PUSH2 0x2D9E JUMP JUMPDEST PUSH2 0x2D07 DUP2 PUSH2 0x2AC6 JUMP JUMPDEST PUSH1 0x40 MLOAD PUSH20 0xFFFFFFFFFFFFFFFFFFFFFFFFFFFFFFFFFFFFFFFF DUP3 AND SWAP1 PUSH32 0xBC7CD75A20EE27FD9ADEBAB32041F755214DBC6BFFA90CC0225B39DA2E5C2D3B SWAP1 PUSH1 0x0 SWAP1 LOG2 POP JUMP JUMPDEST PUSH1 0x60 PUSH2 0x1729 DUP4 DUP4 PUSH1 0x40 MLOAD DUP1 PUSH1 0x60 ADD PUSH1 0x40 MSTORE DUP1 PUSH1 0x27 DUP2 MSTORE PUSH1 0x20 ADD PUSH2 0x3738 PUSH1 0x27 SWAP2 CODECOPY PUSH2 0x2E7A JUMP JUMPDEST PUSH1 0x0 DUP1 PUSH2 0x172C PUSH1 0x1 PUSH32 0xCA9D3E17F264B0F3984E2634E94ADB37FA3E6A8103F06AEAE6FA59E21C769F5E PUSH2 0x3693 JUMP JUMPDEST PUSH29 0x100000000000000000000000000000000000000000000000000000000 PUSH32 0xFFFFFFFF00000000000000000000000000000000000000000000000000000000 DUP4 AND ADD PUSH2 0x2E16 JUMPI PUSH1 0x40 MLOAD PUSH32 0x72C683BB00000000000000000000000000000000000000000000000000000000 DUP2 MSTORE PUSH1 0x4 ADD PUSH1 0x40 MLOAD DUP1 SWAP2 SUB SWAP1 REVERT JUMPDEST PUSH32 0xFFFFFFFF00000000000000000000000000000000000000000000000000000000 SWAP2 SWAP1 SWAP2 AND PUSH1 0x0 SWAP1 DUP2 MSTORE PUSH1 0x20 SWAP3 SWAP1 SWAP3 MSTORE PUSH1 0x40 SWAP1 SWAP2 KECCAK256 DUP1 SLOAD PUSH32 0xFFFFFFFFFFFFFFFFFFFFFFFFFFFFFFFFFFFFFFFFFFFFFFFFFFFFFFFFFFFFFF00 AND SWAP2 ISZERO ISZERO SWAP2 SWAP1 SWAP2 OR SWAP1 SSTORE JUMP JUMPDEST PUSH1 0x60 PUSH1 0x0 DUP1 DUP6 PUSH20 0xFFFFFFFFFFFFFFFFFFFFFFFFFFFFFFFFFFFFFFFF AND DUP6 PUSH1 0x40 MLOAD PUSH2 0x2EA4 SWAP2 SWAP1 PUSH2 0x36CA JUMP JUMPDEST PUSH1 0x0 PUSH1 0x40 MLOAD DUP1 DUP4 SUB DUP2 DUP6 GAS DELEGATECALL SWAP2 POP POP RETURNDATASIZE DUP1 PUSH1 0x0 DUP2 EQ PUSH2 0x2EDF JUMPI PUSH1 0x40 MLOAD SWAP2 POP PUSH1 0x1F NOT PUSH1 0x3F RETURNDATASIZE ADD AND DUP3 ADD PUSH1 0x40 MSTORE RETURNDATASIZE DUP3 MSTORE RETURNDATASIZE PUSH1 0x0 PUSH1 0x20 DUP5 ADD RETURNDATACOPY PUSH2 0x2EE4 JUMP JUMPDEST PUSH1 0x60 SWAP2 POP JUMPDEST POP SWAP2 POP SWAP2 POP PUSH2 0x20F9 DUP7 DUP4 DUP4 DUP8 PUSH1 0x60 DUP4 ISZERO PUSH2 0x2F86 JUMPI DUP3 MLOAD PUSH1 0x0 SUB PUSH2 0x2F7F JUMPI PUSH20 0xFFFFFFFFFFFFFFFFFFFFFFFFFFFFFFFFFFFFFFFF DUP6 AND EXTCODESIZE PUSH2 0x2F7F JUMPI PUSH1 0x40 MLOAD PUSH32 0x8C379A000000000000000000000000000000000000000000000000000000000 DUP2 MSTORE PUSH1 0x20 PUSH1 0x4 DUP3 ADD MSTORE PUSH1 0x1D PUSH1 0x24 DUP3 ADD MSTORE PUSH32 0x416464726573733A2063616C6C20746F206E6F6E2D636F6E7472616374000000 PUSH1 0x44 DUP3 ADD MSTORE PUSH1 0x64 ADD PUSH2 0x9E1 JUMP JUMPDEST POP DUP2 PUSH2 0x801 JUMP JUMPDEST PUSH2 0x801 DUP4 DUP4 DUP2 MLOAD ISZERO PUSH2 0x2F9B JUMPI DUP2 MLOAD DUP1 DUP4 PUSH1 0x20 ADD REVERT JUMPDEST DUP1 PUSH1 0x40 MLOAD PUSH32 0x8C379A000000000000000000000000000000000000000000000000000000000 DUP2 MSTORE PUSH1 0x4 ADD PUSH2 0x9E1 SWAP2 SWAP1 PUSH2 0x36E6 JUMP JUMPDEST PUSH1 0x0 DUP1 DUP4 PUSH1 0x1F DUP5 ADD SLT PUSH2 0x2FE1 JUMPI PUSH1 0x0 DUP1 REVERT JUMPDEST POP DUP2 CALLDATALOAD PUSH8 0xFFFFFFFFFFFFFFFF DUP2 GT ISZERO PUSH2 0x2FF9 JUMPI PUSH1 0x0 DUP1 REVERT JUMPDEST PUSH1 0x20 DUP4 ADD SWAP2 POP DUP4 PUSH1 0x20 DUP3 DUP6 ADD ADD GT ISZERO PUSH2 0x3011 JUMPI PUSH1 0x0 DUP1 REVERT JUMPDEST SWAP3 POP SWAP3 SWAP1 POP JUMP JUMPDEST PUSH1 0x0 DUP1 PUSH1 0x0 DUP1 PUSH1 0x60 DUP6 DUP8 SUB SLT ISZERO PUSH2 0x302E JUMPI PUSH1 0x0 DUP1 REVERT JUMPDEST DUP5 CALLDATALOAD SWAP4 POP PUSH1 0x20 DUP6 ADD CALLDATALOAD SWAP3 POP PUSH1 0x40 DUP6 ADD CALLDATALOAD PUSH8 0xFFFFFFFFFFFFFFFF DUP2 GT ISZERO PUSH2 0x3053 JUMPI PUSH1 0x0 DUP1 REVERT JUMPDEST PUSH2 0x305F DUP8 DUP3 DUP9 ADD PUSH2 0x2FCF JUMP JUMPDEST SWAP6 SWAP9 SWAP5 SWAP8 POP SWAP6 POP POP POP POP JUMP JUMPDEST PUSH1 0x0 PUSH1 0x20 DUP3 DUP5 SUB SLT ISZERO PUSH2 0x307D JUMPI PUSH1 0x0 DUP1 REVERT JUMPDEST POP CALLDATALOAD SWAP2 SWAP1 POP JUMP JUMPDEST PUSH1 0x0 DUP1 PUSH1 0x0 DUP1 PUSH1 0x0 PUSH1 0xA0 DUP7 DUP9 SUB SLT ISZERO PUSH2 0x309C JUMPI PUSH1 0x0 DUP1 REVERT JUMPDEST POP POP DUP4 CALLDATALOAD SWAP6 PUSH1 0x20 DUP6 ADD CALLDATALOAD SWAP6 POP PUSH1 0x40 DUP6 ADD CALLDATALOAD SWAP5 PUSH1 0x60 DUP2 ADD CALLDATALOAD SWAP5 POP PUSH1 0x80 ADD CALLDATALOAD SWAP3 POP SWAP1 POP JUMP JUMPDEST PUSH20 0xFFFFFFFFFFFFFFFFFFFFFFFFFFFFFFFFFFFFFFFF DUP2 AND DUP2 EQ PUSH2 0xC9F JUMPI PUSH1 0x0 DUP1 REVERT JUMPDEST PUSH1 0x0 DUP1 PUSH1 0x40 DUP4 DUP6 SUB SLT ISZERO PUSH2 0x30F4 JUMPI PUSH1 0x0 DUP1 REVERT JUMPDEST DUP3 CALLDATALOAD SWAP2 POP PUSH1 0x20 DUP4 ADD CALLDATALOAD PUSH2 0x3106 DUP2 PUSH2 0x30BF JUMP JUMPDEST DUP1 SWAP2 POP POP SWAP3 POP SWAP3 SWAP1 POP JUMP JUMPDEST PUSH1 0x0 PUSH1 0x20 DUP3 DUP5 SUB SLT ISZERO PUSH2 0x3123 JUMPI PUSH1 0x0 DUP1 REVERT JUMPDEST DUP2 CALLDATALOAD PUSH2 0x312E DUP2 PUSH2 0x30BF JUMP JUMPDEST SWAP4 SWAP3 POP POP POP JUMP JUMPDEST PUSH1 0x0 DUP1 PUSH1 0x20 DUP4 DUP6 SUB SLT ISZERO PUSH2 0x3148 JUMPI PUSH1 0x0 DUP1 REVERT JUMPDEST DUP3 CALLDATALOAD PUSH8 0xFFFFFFFFFFFFFFFF DUP1 DUP3 GT ISZERO PUSH2 0x3160 JUMPI PUSH1 0x0 DUP1 REVERT JUMPDEST DUP2 DUP6 ADD SWAP2 POP DUP6 PUSH1 0x1F DUP4 ADD SLT PUSH2 0x3174 JUMPI PUSH1 0x0 DUP1 REVERT JUMPDEST DUP2 CALLDATALOAD DUP2 DUP2 GT ISZERO PUSH2 0x3183 JUMPI PUSH1 0x0 DUP1 REVERT JUMPDEST DUP7 PUSH1 0x20 DUP3 PUSH1 0x5 SHL DUP6 ADD ADD GT ISZERO PUSH2 0x3198 JUMPI PUSH1 0x0 DUP1 REVERT JUMPDEST PUSH1 0x20 SWAP3 SWAP1 SWAP3 ADD SWAP7 SWAP2 SWAP6 POP SWAP1 SWAP4 POP POP POP POP JUMP JUMPDEST PUSH32 0x4E487B7100000000000000000000000000000000000000000000000000000000 PUSH1 0x0 MSTORE PUSH1 0x41 PUSH1 0x4 MSTORE PUSH1 0x24 PUSH1 0x0 REVERT JUMPDEST PUSH1 0x0 DUP1 PUSH1 0x40 DUP4 DUP6 SUB SLT ISZERO PUSH2 0x31EC JUMPI PUSH1 0x0 DUP1 REVERT JUMPDEST DUP3 CALLDATALOAD PUSH2 0x31F7 DUP2 PUSH2 0x30BF JUMP JUMPDEST SWAP2 POP PUSH1 0x20 DUP4 ADD CALLDATALOAD PUSH8 0xFFFFFFFFFFFFFFFF DUP1 DUP3 GT ISZERO PUSH2 0x3214 JUMPI PUSH1 0x0 DUP1 REVERT JUMPDEST DUP2 DUP6 ADD SWAP2 POP DUP6 PUSH1 0x1F DUP4 ADD SLT PUSH2 0x3228 JUMPI PUSH1 0x0 DUP1 REVERT JUMPDEST DUP2 CALLDATALOAD DUP2 DUP2 GT ISZERO PUSH2 0x323A JUMPI PUSH2 0x323A PUSH2 0x31AA JUMP JUMPDEST PUSH1 0x40 MLOAD PUSH1 0x1F DUP3 ADD PUSH32 0xFFFFFFFFFFFFFFFFFFFFFFFFFFFFFFFFFFFFFFFFFFFFFFFFFFFFFFFFFFFFFFE0 SWAP1 DUP2 AND PUSH1 0x3F ADD AND DUP2 ADD SWAP1 DUP4 DUP3 GT DUP2 DUP4 LT OR ISZERO PUSH2 0x3280 JUMPI PUSH2 0x3280 PUSH2 0x31AA JUMP JUMPDEST DUP2 PUSH1 0x40 MSTORE DUP3 DUP2 MSTORE DUP9 PUSH1 0x20 DUP5 DUP8 ADD ADD GT ISZERO PUSH2 0x3299 JUMPI PUSH1 0x0 DUP1 REVERT JUMPDEST DUP3 PUSH1 0x20 DUP7 ADD PUSH1 0x20 DUP4 ADD CALLDATACOPY PUSH1 0x0 PUSH1 0x20 DUP5 DUP4 ADD ADD MSTORE DUP1 SWAP6 POP POP POP POP POP POP SWAP3 POP SWAP3 SWAP1 POP JUMP JUMPDEST PUSH1 0x0 DUP1 PUSH1 0x0 PUSH1 0x60 DUP5 DUP7 SUB SLT ISZERO PUSH2 0x32D0 JUMPI PUSH1 0x0 DUP1 REVERT JUMPDEST POP POP DUP2 CALLDATALOAD SWAP4 PUSH1 0x20 DUP4 ADD CALLDATALOAD SWAP4 POP PUSH1 0x40 SWAP1 SWAP3 ADD CALLDATALOAD SWAP2 SWAP1 POP JUMP JUMPDEST PUSH1 0x0 DUP1 PUSH1 0x0 PUSH1 0x40 DUP5 DUP7 SUB SLT ISZERO PUSH2 0x32FC JUMPI PUSH1 0x0 DUP1 REVERT JUMPDEST DUP4 CALLDATALOAD SWAP3 POP PUSH1 0x20 DUP5 ADD CALLDATALOAD PUSH8 0xFFFFFFFFFFFFFFFF DUP2 GT ISZERO PUSH2 0x331A JUMPI PUSH1 0x0 DUP1 REVERT JUMPDEST PUSH2 0x3326 DUP7 DUP3 DUP8 ADD PUSH2 0x2FCF JUMP JUMPDEST SWAP5 SWAP8 SWAP1 SWAP7 POP SWAP4 SWAP5 POP POP POP POP JUMP JUMPDEST DUP1 CALLDATALOAD PUSH1 0xFF DUP2 AND DUP2 EQ PUSH2 0x3344 JUMPI PUSH1 0x0 DUP1 REVERT JUMPDEST SWAP2 SWAP1 POP JUMP JUMPDEST PUSH1 0x0 DUP1 PUSH1 0x0 DUP1 PUSH1 0x0 DUP1 PUSH1 0x0 DUP1 PUSH1 0xE0 DUP10 DUP12 SUB SLT ISZERO PUSH2 0x3365 JUMPI PUSH1 0x0 DUP1 REVERT JUMPDEST DUP9 CALLDATALOAD SWAP8 POP PUSH1 0x20 DUP10 ADD CALLDATALOAD PUSH8 0xFFFFFFFFFFFFFFFF DUP2 GT ISZERO PUSH2 0x3383 JUMPI PUSH1 0x0 DUP1 REVERT JUMPDEST PUSH2 0x338F DUP12 DUP3 DUP13 ADD PUSH2 0x2FCF JUMP JUMPDEST SWAP1 SWAP9 POP SWAP7 POP POP PUSH1 0x40 DUP10 ADD CALLDATALOAD SWAP5 POP PUSH1 0x60 DUP10 ADD CALLDATALOAD SWAP4 POP PUSH2 0x33AF PUSH1 0x80 DUP11 ADD PUSH2 0x3333 JUMP JUMPDEST SWAP3 POP PUSH1 0xA0 DUP10 ADD CALLDATALOAD SWAP2 POP PUSH1 0xC0 DUP10 ADD CALLDATALOAD SWAP1 POP SWAP3 SWAP6 SWAP9 POP SWAP3 SWAP6 SWAP9 SWAP1 SWAP4 SWAP7 POP JUMP JUMPDEST PUSH1 0x0 DUP1 PUSH1 0x0 DUP1 PUSH1 0x0 DUP1 PUSH1 0x0 PUSH1 0xC0 DUP9 DUP11 SUB SLT ISZERO PUSH2 0x33E7 JUMPI PUSH1 0x0 DUP1 REVERT JUMPDEST DUP8 CALLDATALOAD SWAP7 POP PUSH1 0x20 DUP9 ADD CALLDATALOAD SWAP6 POP PUSH1 0x40 DUP9 ADD CALLDATALOAD PUSH8 0xFFFFFFFFFFFFFFFF DUP2 GT ISZERO PUSH2 0x340C JUMPI PUSH1 0x0 DUP1 REVERT JUMPDEST PUSH2 0x3418 DUP11 DUP3 DUP12 ADD PUSH2 0x2FCF JUMP JUMPDEST SWAP9 SWAP12 SWAP8 SWAP11 POP SWAP9 PUSH1 0x60 DUP2 ADD CALLDATALOAD SWAP8 PUSH1 0x80 DUP3 ADD CALLDATALOAD SWAP8 POP PUSH1 0xA0 SWAP1 SWAP2 ADD CALLDATALOAD SWAP6 POP SWAP4 POP POP POP POP JUMP JUMPDEST PUSH1 0x0 DUP1 PUSH1 0x40 DUP4 DUP6 SUB SLT ISZERO PUSH2 0x344D JUMPI PUSH1 0x0 DUP1 REVERT JUMPDEST POP POP DUP1 CALLDATALOAD SWAP3 PUSH1 0x20 SWAP1 SWAP2 ADD CALLDATALOAD SWAP2 POP JUMP JUMPDEST PUSH1 0x0 DUP1 PUSH1 0x0 DUP1 PUSH1 0x0 DUP1 PUSH1 0xC0 DUP8 DUP10 SUB SLT ISZERO PUSH2 0x3475 JUMPI PUSH1 0x0 DUP1 REVERT JUMPDEST DUP7 CALLDATALOAD SWAP6 POP PUSH1 0x20 DUP8 ADD CALLDATALOAD SWAP5 POP PUSH1 0x40 DUP8 ADD CALLDATALOAD SWAP4 POP PUSH2 0x3493 PUSH1 0x60 DUP9 ADD PUSH2 0x3333 JUMP JUMPDEST SWAP3 POP PUSH1 0x80 DUP8 ADD CALLDATALOAD SWAP2 POP PUSH1 0xA0 DUP8 ADD CALLDATALOAD SWAP1 POP SWAP3 SWAP6 POP SWAP3 SWAP6 POP SWAP3 SWAP6 JUMP JUMPDEST PUSH1 0x0 DUP1 PUSH1 0x0 DUP1 PUSH1 0x0 PUSH1 0x80 DUP7 DUP9 SUB SLT ISZERO PUSH2 0x34C5 JUMPI PUSH1 0x0 DUP1 REVERT JUMPDEST DUP6 CALLDATALOAD SWAP5 POP PUSH1 0x20 DUP7 ADD CALLDATALOAD PUSH8 0xFFFFFFFFFFFFFFFF DUP2 GT ISZERO PUSH2 0x34E3 JUMPI PUSH1 0x0 DUP1 REVERT JUMPDEST PUSH2 0x34EF DUP9 DUP3 DUP10 ADD PUSH2 0x2FCF JUMP JUMPDEST SWAP7 SWAP10 SWAP1 SWAP9 POP SWAP6 SWAP7 PUSH1 0x40 DUP2 ADD CALLDATALOAD SWAP7 PUSH1 0x60 SWAP1 SWAP2 ADD CALLDATALOAD SWAP6 POP SWAP4 POP POP POP POP JUMP JUMPDEST PUSH1 0x40 DUP2 MSTORE DUP3 PUSH1 0x40 DUP3 ADD MSTORE DUP3 DUP5 PUSH1 0x60 DUP4 ADD CALLDATACOPY PUSH1 0x0 PUSH1 0x60 DUP5 DUP4 ADD ADD MSTORE PUSH1 0x0 PUSH1 0x60 PUSH32 0xFFFFFFFFFFFFFFFFFFFFFFFFFFFFFFFFFFFFFFFFFFFFFFFFFFFFFFFFFFFFFFE0 PUSH1 0x1F DUP7 ADD AND DUP4 ADD ADD SWAP1 POP DUP3 PUSH1 0x20 DUP4 ADD MSTORE SWAP5 SWAP4 POP POP POP POP JUMP JUMPDEST PUSH1 0x0 PUSH1 0x20 DUP3 DUP5 SUB SLT ISZERO PUSH2 0x3574 JUMPI PUSH1 0x0 DUP1 REVERT JUMPDEST POP MLOAD SWAP2 SWAP1 POP JUMP JUMPDEST PUSH1 0x0 PUSH1 0x20 DUP3 DUP5 SUB SLT ISZERO PUSH2 0x358D JUMPI PUSH1 0x0 DUP1 REVERT JUMPDEST DUP2 MLOAD PUSH2 0x312E DUP2 PUSH2 0x30BF JUMP JUMPDEST PUSH32 0x4E487B7100000000000000000000000000000000000000000000000000000000 PUSH1 0x0 MSTORE PUSH1 0x11 PUSH1 0x4 MSTORE PUSH1 0x24 PUSH1 0x0 REVERT JUMPDEST DUP1 DUP3 ADD DUP1 DUP3 GT ISZERO PUSH2 0x172C JUMPI PUSH2 0x172C PUSH2 0x3598 JUMP JUMPDEST PUSH32 0x4E487B7100000000000000000000000000000000000000000000000000000000 PUSH1 0x0 MSTORE PUSH1 0x32 PUSH1 0x4 MSTORE PUSH1 0x24 PUSH1 0x0 REVERT JUMPDEST PUSH1 0x0 PUSH32 0xFFFFFFFFFFFFFFFFFFFFFFFFFFFFFFFFFFFFFFFFFFFFFFFFFFFFFFFFFFFFFFFF DUP3 SUB PUSH2 0x363A JUMPI PUSH2 0x363A PUSH2 0x3598 JUMP JUMPDEST POP PUSH1 0x1 ADD SWAP1 JUMP JUMPDEST PUSH1 0x20 DUP2 MSTORE DUP2 PUSH1 0x20 DUP3 ADD MSTORE PUSH1 0x0 PUSH32 0x7FFFFFFFFFFFFFFFFFFFFFFFFFFFFFFFFFFFFFFFFFFFFFFFFFFFFFFFFFFFFFF DUP4 GT ISZERO PUSH2 0x367A JUMPI PUSH1 0x0 DUP1 REVERT JUMPDEST DUP3 PUSH1 0x5 SHL DUP1 DUP6 PUSH1 0x40 DUP6 ADD CALLDATACOPY SWAP2 SWAP1 SWAP2 ADD PUSH1 0x40 ADD SWAP4 SWAP3 POP POP POP JUMP JUMPDEST DUP2 DUP2 SUB DUP2 DUP2 GT ISZERO PUSH2 0x172C JUMPI PUSH2 0x172C PUSH2 0x3598 JUMP JUMPDEST PUSH1 0x0 JUMPDEST DUP4 DUP2 LT ISZERO PUSH2 0x36C1 JUMPI DUP2 DUP2 ADD MLOAD DUP4 DUP3 ADD MSTORE PUSH1 0x20 ADD PUSH2 0x36A9 JUMP JUMPDEST POP POP PUSH1 0x0 SWAP2 ADD MSTORE JUMP JUMPDEST PUSH1 0x0 DUP3 MLOAD PUSH2 0x36DC DUP2 DUP5 PUSH1 0x20 DUP8 ADD PUSH2 0x36A6 JUMP JUMPDEST SWAP2 SWAP1 SWAP2 ADD SWAP3 SWAP2 POP POP JUMP JUMPDEST PUSH1 0x20 DUP2 MSTORE PUSH1 0x0 DUP3 MLOAD DUP1 PUSH1 0x20 DUP5 ADD MSTORE PUSH2 0x3705 DUP2 PUSH1 0x40 DUP6 ADD PUSH1 0x20 DUP8 ADD PUSH2 0x36A6 JUMP JUMPDEST PUSH1 0x1F ADD PUSH32 0xFFFFFFFFFFFFFFFFFFFFFFFFFFFFFFFFFFFFFFFFFFFFFFFFFFFFFFFFFFFFFFE0 AND SWAP2 SWAP1 SWAP2 ADD PUSH1 0x40 ADD SWAP3 SWAP2 POP POP JUMP INVALID COINBASE PUSH5 0x6472657373 GASPRICE KECCAK256 PUSH13 0x6F772D6C6576656C2064656C65 PUSH8 0x6174652063616C6C KECCAK256 PUSH7 0x61696C6564A264 PUSH10 0x70667358221220D7E1B3 0xDF 0xB6 0xE2 PUSH4 0x41CAE5D1 MUL CREATE2 SWAP13 0x1F 0xB9 DUP7 0x5C 0xE2 CALLDATACOPY SWAP8 REVERT 0xD1 CALLCODE PUSH19 0x9177DC4B79407764736F6C6343000815003300 "},"gasEstimates":{"creation":{"codeDepositCost":"2845600","executionCost":"infinite","totalCost":"infinite"},"external":{"ADMIN_ROLE()":"296","DEPOSITOR_ROLE()":"273","allowedConsumeReasonCodes(bytes32)":"2560","balanceOf(bytes32,bytes32,string)":"infinite","balanceOf(bytes32,string)":"infinite","balanceOf(bytes32,uint256)":"infinite","balanceOf(uint256)":"infinite","balances(bytes32,uint256,uint256)":"2670","batchAddConsumeReasonCodes(bytes32[])":"infinite","batchRemoveConsumeReasonCodes(bytes32[])":"infinite","consume(bytes32,string,uint256,bytes32)":"infinite","consume(bytes32,string,uint256,bytes32,uint8,bytes32,bytes32)":"infinite","consume(uint256,uint256,bytes32)":"infinite","consume(uint256,uint256,bytes32,uint8,bytes32,bytes32)":"infinite","currentSeason()":"2329","deposit(bytes32,bytes32,string,uint256,uint256,bytes32)":"infinite","deposit(bytes32,uint256,uint256,uint256,bytes32)":"infinite","grantRole(bytes32,address)":"infinite","hasRole(bytes32,address)":"infinite","initialize()":"infinite","nonces(uint256)":"2496","owner()":"infinite","preparePayload(uint256,uint256,bytes32)":"infinite","proxiableUUID()":"infinite","realmIdContract()":"infinite","renounceRole(bytes32)":"infinite","revokeRole(bytes32,address)":"infinite","seasons(bytes32)":"2562","setCurrentSeason(bytes32)":"infinite","transferOwnership(address)":"infinite","upgradeTo(address)":"infinite","upgradeToAndCall(address,bytes)":"infinite"},"internal":{"_authorizeUpgrade(address)":"infinite","_consume(uint256,uint256,uint256,bytes32,address)":"infinite","_preparePayload(uint256,uint256,uint256,uint256,bytes32)":"infinite"}},"methodIdentifiers":{"ADMIN_ROLE()":"75b238fc","DEPOSITOR_ROLE()":"a3b0b5a3","allowedConsumeReasonCodes(bytes32)":"f9515962","balanceOf(bytes32,bytes32,string)":"098b6419","balanceOf(bytes32,string)":"794459be","balanceOf(bytes32,uint256)":"ad3b1d48","balanceOf(uint256)":"9cc7f708","balances(bytes32,uint256,uint256)":"51955dfc","batchAddConsumeReasonCodes(bytes32[])":"3f30b00f","batchRemoveConsumeReasonCodes(bytes32[])":"906405a3","consume(bytes32,string,uint256,bytes32)":"e564a0e2","consume(bytes32,string,uint256,bytes32,uint8,bytes32,bytes32)":"99d342ac","consume(uint256,uint256,bytes32)":"d14a5c71","consume(uint256,uint256,bytes32,uint8,bytes32,bytes32)":"dc893ce4","currentSeason()":"bcb39621","deposit(bytes32,bytes32,string,uint256,uint256,bytes32)":"9d70b005","deposit(bytes32,uint256,uint256,uint256,bytes32)":"18ee89f0","grantRole(bytes32,address)":"2f2ff15d","hasRole(bytes32,address)":"91d14854","initialize()":"8129fc1c","nonces(uint256)":"141a468c","owner()":"8da5cb5b","preparePayload(uint256,uint256,bytes32)":"df00bb24","proxiableUUID()":"52d1902d","realmIdContract()":"2b48dc72","renounceRole(bytes32)":"8bb9c5bf","revokeRole(bytes32,address)":"d547741f","seasons(bytes32)":"4529cc1b","setCurrentSeason(bytes32)":"86a8e98a","transferOwnership(address)":"f2fde38b","upgradeTo(address)":"3659cfe6","upgradeToAndCall(address,bytes)":"4f1ef286"}},"storageLayout":{"storage":[{"astId":1363,"contract":"contracts/MocaPoints/MocaPoints.sol:MocaPoints","label":"_initialized","offset":0,"slot":"0","type":"t_uint8"},{"astId":1366,"contract":"contracts/MocaPoints/MocaPoints.sol:MocaPoints","label":"_initializing","offset":1,"slot":"0","type":"t_bool"},{"astId":1345,"contract":"contracts/MocaPoints/MocaPoints.sol:MocaPoints","label":"__gap","offset":0,"slot":"1","type":"t_array(t_uint256)50_storage"},{"astId":1660,"contract":"contracts/MocaPoints/MocaPoints.sol:MocaPoints","label":"__gap","offset":0,"slot":"51","type":"t_array(t_uint256)50_storage"},{"astId":2592,"contract":"contracts/MocaPoints/MocaPoints.sol:MocaPoints","label":"currentSeason","offset":0,"slot":"101","type":"t_bytes32"},{"astId":2596,"contract":"contracts/MocaPoints/MocaPoints.sol:MocaPoints","label":"seasons","offset":0,"slot":"102","type":"t_mapping(t_bytes32,t_bool)"},{"astId":2608,"contract":"contracts/MocaPoints/MocaPoints.sol:MocaPoints","label":"balances","offset":0,"slot":"103","type":"t_mapping(t_bytes32,t_mapping(t_uint256,t_mapping(t_uint256,t_uint256)))"},{"astId":2612,"contract":"contracts/MocaPoints/MocaPoints.sol:MocaPoints","label":"nonces","offset":0,"slot":"104","type":"t_mapping(t_uint256,t_uint256)"},{"astId":2616,"contract":"contracts/MocaPoints/MocaPoints.sol:MocaPoints","label":"allowedConsumeReasonCodes","offset":0,"slot":"105","type":"t_mapping(t_bytes32,t_bool)"}],"types":{"t_array(t_uint256)50_storage":{"base":"t_uint256","encoding":"inplace","label":"uint256[50]","numberOfBytes":"1600"},"t_bool":{"encoding":"inplace","label":"bool","numberOfBytes":"1"},"t_bytes32":{"encoding":"inplace","label":"bytes32","numberOfBytes":"32"},"t_mapping(t_bytes32,t_bool)":{"encoding":"mapping","key":"t_bytes32","label":"mapping(bytes32 => bool)","numberOfBytes":"32","value":"t_bool"},"t_mapping(t_bytes32,t_mapping(t_uint256,t_mapping(t_uint256,t_uint256)))":{"encoding":"mapping","key":"t_bytes32","label":"mapping(bytes32 => mapping(uint256 => mapping(uint256 => uint256)))","numberOfBytes":"32","value":"t_mapping(t_uint256,t_mapping(t_uint256,t_uint256))"},"t_mapping(t_uint256,t_mapping(t_uint256,t_uint256))":{"encoding":"mapping","key":"t_uint256","label":"mapping(uint256 => mapping(uint256 => uint256))","numberOfBytes":"32","value":"t_mapping(t_uint256,t_uint256)"},"t_mapping(t_uint256,t_uint256)":{"encoding":"mapping","key":"t_uint256","label":"mapping(uint256 => uint256)","numberOfBytes":"32","value":"t_uint256"},"t_uint256":{"encoding":"inplace","label":"uint256","numberOfBytes":"32"},"t_uint8":{"encoding":"inplace","label":"uint8","numberOfBytes":"1"}}},"userdoc":{"errors":{"IllegalInterfaceId()":[{"notice":"Thrown when setting the illegal interfaceId 0xffffffff."}],"InitializationPhaseAlreadyReached(uint256,uint256)":[{"notice":"Emitted when trying to set a phase value that has already been reached."}],"NotContractOwner(address)":[{"notice":"Thrown when an account is not the contract owner but is required to."}],"NotRoleHolder(bytes32,address)":[{"notice":"Thrown when an account does not have the required role."}]},"events":{"BatchAddedConsumeReasonCode(bytes32[])":{"notice":"Emitted when one or more reason code(s) are added to the comsume reason code mapping."},"BatchRemovedConsumeReasonCode(bytes32[])":{"notice":"Emitted when one or more reason code(s) are removed from the comsume reason code mapping."},"Consumed(uint256,bytes32,bytes32,address,uint256,uint256,address)":{"notice":"Emitted when an amount is consumed from a balance."},"Deposited(address,bytes32,bytes32,uint256,uint256,uint256)":{"notice":"Emitted when an amount is deposited to a balance."},"OwnershipTransferred(address,address)":{"notice":"Emitted when the contract ownership changes."},"RoleGranted(bytes32,address,address)":{"notice":"Emitted when `role` is granted to `account`."},"RoleRevoked(bytes32,address,address)":{"notice":"Emitted when `role` is revoked from `account`."},"SetCurrentSeason(bytes32)":{"notice":"Emitted when the current season is set."}},"kind":"user","methods":{"balanceOf(bytes32,bytes32,string)":{"notice":"Gets the balance of a realmId for a specified season.The realmId is resolved from the given parent node and name.Applies to the current version of the realmId."},"balanceOf(bytes32,string)":{"notice":"Gets the balance of a realmId.The realmId is resolved from the given parent node and name.Applies to the current version of the realmId.Applies to the current season."},"balanceOf(bytes32,uint256)":{"notice":"Gets the balance of a given realmId for a specified season.Applies to the current version of the realmId."},"balanceOf(uint256)":{"notice":"Gets the balance of a given realmId.Applies to the current version of the realmId.Applies to the current season."},"batchAddConsumeReasonCodes(bytes32[])":{"notice":"Adds one or more reason code(s) to the consume reason code mapping."},"batchRemoveConsumeReasonCodes(bytes32[])":{"notice":"Removes one or more reason code(s) from the consume reason code mapping."},"consume(bytes32,string,uint256,bytes32)":{"notice":"Called by the realmId owner to consume a given amount from the realmId's balance.The realmId is resolved from the given parent node and name.Applies to the current version of the realmId.Applies to the current season."},"consume(bytes32,string,uint256,bytes32,uint8,bytes32,bytes32)":{"notice":"Called with a signature to consume a given amount from the balance of a realmId.The realmId is resolved from the given parent node and name.Applies to the current version of the realmId.Applies to the current season."},"consume(uint256,uint256,bytes32)":{"notice":"Called by the realmId owner to consume a given amount from the given realmId's balance.Applies to the current version of the realmId.Applies to the current season."},"consume(uint256,uint256,bytes32,uint8,bytes32,bytes32)":{"notice":"Called with a signature to consume a given amount from the balance of a given realmId.Applies to the current version of the realmId.Applies to the current season."},"deposit(bytes32,bytes32,string,uint256,uint256,bytes32)":{"notice":"Called by a depoistor to increase the balance of a realmId (with a given version) for a specified season.The realmId is resolved from the given parent node and name."},"deposit(bytes32,uint256,uint256,uint256,bytes32)":{"notice":"Called by a depoistor to increase the balance of a realmId (with a given version) for a specified season."},"grantRole(bytes32,address)":{"notice":"Grants a role to an account."},"hasRole(bytes32,address)":{"notice":"Retrieves whether an account has a role."},"initialize()":{"notice":"Initializes the contract with the provided realmId contract address."},"owner()":{"notice":"Gets the address of the contract owner."},"preparePayload(uint256,uint256,bytes32)":{"notice":"Returns a payload generated from the arguments, current nounce, current season and the given realmId's current version."},"renounceRole(bytes32)":{"notice":"Renounces a role by the sender."},"revokeRole(bytes32,address)":{"notice":"Revokes a role from an account."},"setCurrentSeason(bytes32)":{"notice":"Sets the current season."},"transferOwnership(address)":{"notice":"Sets the address of the new contract owner."}},"notice":"This contract is designed for managing the mocapoints balances of users.Mocapoints balances are registered by realmId (verioned) by season.Methods apply to the current version of the realmId if realmId version is not specified.Methods support identifying the realmId by the realmId itself, or by its parent node and name.","version":1}}}}