{"contracts/MocaPoints/mock/upgrades/MockMocaPointsUpgrade.sol":{"MockMocaPointsUpgrade":{"abi":[{"inputs":[{"internalType":"address","name":"realmIdContract","type":"address"}],"stateMutability":"nonpayable","type":"constructor"},{"inputs":[{"internalType":"bytes32","name":"reasonCode","type":"bytes32"}],"name":"ConsumeReasonCodeAlreadyExists","type":"error"},{"inputs":[{"internalType":"bytes32","name":"reasonCode","type":"bytes32"}],"name":"ConsumeReasonCodeDoesNotExist","type":"error"},{"inputs":[],"name":"ConsumeReasonCodesArrayEmpty","type":"error"},{"inputs":[],"name":"IllegalInterfaceId","type":"error"},{"inputs":[{"internalType":"address","name":"signer","type":"address"}],"name":"IncorrectSigner","type":"error"},{"inputs":[{"internalType":"uint256","name":"currentPhase","type":"uint256"},{"internalType":"uint256","name":"newPhase","type":"uint256"}],"name":"InitializationPhaseAlreadyReached","type":"error"},{"inputs":[{"internalType":"uint256","name":"realmId","type":"uint256"},{"internalType":"uint256","name":"requiredBalance","type":"uint256"}],"name":"InsufficientBalance","type":"error"},{"inputs":[{"internalType":"address","name":"addr","type":"address"}],"name":"InvalidRealmIdContractAddress","type":"error"},{"inputs":[{"internalType":"uint256","name":"realmId","type":"uint256"},{"internalType":"uint256","name":"realmIdVersion","type":"uint256"}],"name":"InvalidRealmIdVersion","type":"error"},{"inputs":[{"internalType":"address","name":"account","type":"address"}],"name":"NotContractOwner","type":"error"},{"inputs":[{"internalType":"bytes32","name":"role","type":"bytes32"},{"internalType":"address","name":"account","type":"address"}],"name":"NotRoleHolder","type":"error"},{"inputs":[{"internalType":"bytes32","name":"season","type":"bytes32"}],"name":"SeasonAlreadySet","type":"error"},{"anonymous":false,"inputs":[{"indexed":false,"internalType":"address","name":"previousAdmin","type":"address"},{"indexed":false,"internalType":"address","name":"newAdmin","type":"address"}],"name":"AdminChanged","type":"event"},{"anonymous":false,"inputs":[{"indexed":false,"internalType":"bytes32[]","name":"reasonCodes","type":"bytes32[]"}],"name":"BatchAddedConsumeReasonCode","type":"event"},{"anonymous":false,"inputs":[{"indexed":false,"internalType":"bytes32[]","name":"reasonCodes","type":"bytes32[]"}],"name":"BatchRemovedConsumeReasonCode","type":"event"},{"anonymous":false,"inputs":[{"indexed":true,"internalType":"address","name":"beacon","type":"address"}],"name":"BeaconUpgraded","type":"event"},{"anonymous":false,"inputs":[{"indexed":true,"internalType":"uint256","name":"realmId","type":"uint256"},{"indexed":true,"internalType":"bytes32","name":"season","type":"bytes32"},{"indexed":true,"internalType":"bytes32","name":"reasonCode","type":"bytes32"},{"indexed":false,"internalType":"address","name":"operator","type":"address"},{"indexed":false,"internalType":"uint256","name":"realmIdVersion","type":"uint256"},{"indexed":false,"internalType":"uint256","name":"amount","type":"uint256"},{"indexed":false,"internalType":"address","name":"realmIdOwner","type":"address"}],"name":"Consumed","type":"event"},{"anonymous":false,"inputs":[{"indexed":true,"internalType":"address","name":"sender","type":"address"},{"indexed":true,"internalType":"bytes32","name":"season","type":"bytes32"},{"indexed":true,"internalType":"bytes32","name":"reasonCode","type":"bytes32"},{"indexed":false,"internalType":"uint256","name":"realmId","type":"uint256"},{"indexed":false,"internalType":"uint256","name":"realmIdVersion","type":"uint256"},{"indexed":false,"internalType":"uint256","name":"amount","type":"uint256"}],"name":"Deposited","type":"event"},{"anonymous":false,"inputs":[{"indexed":false,"internalType":"uint8","name":"version","type":"uint8"}],"name":"Initialized","type":"event"},{"anonymous":false,"inputs":[{"indexed":true,"internalType":"address","name":"previousOwner","type":"address"},{"indexed":true,"internalType":"address","name":"newOwner","type":"address"}],"name":"OwnershipTransferred","type":"event"},{"anonymous":false,"inputs":[{"indexed":false,"internalType":"bytes32","name":"role","type":"bytes32"},{"indexed":false,"internalType":"address","name":"account","type":"address"},{"indexed":false,"internalType":"address","name":"operator","type":"address"}],"name":"RoleGranted","type":"event"},{"anonymous":false,"inputs":[{"indexed":false,"internalType":"bytes32","name":"role","type":"bytes32"},{"indexed":false,"internalType":"address","name":"account","type":"address"},{"indexed":false,"internalType":"address","name":"operator","type":"address"}],"name":"RoleRevoked","type":"event"},{"anonymous":false,"inputs":[{"indexed":false,"internalType":"bytes32","name":"season","type":"bytes32"}],"name":"SetCurrentSeason","type":"event"},{"anonymous":false,"inputs":[{"indexed":true,"internalType":"address","name":"implementation","type":"address"}],"name":"Upgraded","type":"event"},{"inputs":[],"name":"ADMIN_ROLE","outputs":[{"internalType":"bytes32","name":"","type":"bytes32"}],"stateMutability":"view","type":"function"},{"inputs":[],"name":"DEPOSITOR_ROLE","outputs":[{"internalType":"bytes32","name":"","type":"bytes32"}],"stateMutability":"view","type":"function"},{"inputs":[{"internalType":"bytes32","name":"","type":"bytes32"}],"name":"allowedConsumeReasonCodes","outputs":[{"internalType":"bool","name":"","type":"bool"}],"stateMutability":"view","type":"function"},{"inputs":[{"internalType":"bytes32","name":"season","type":"bytes32"},{"internalType":"bytes32","name":"parentNode","type":"bytes32"},{"internalType":"string","name":"name","type":"string"}],"name":"balanceOf","outputs":[{"internalType":"uint256","name":"","type":"uint256"}],"stateMutability":"view","type":"function"},{"inputs":[{"internalType":"bytes32","name":"parentNode","type":"bytes32"},{"internalType":"string","name":"name","type":"string"}],"name":"balanceOf","outputs":[{"internalType":"uint256","name":"","type":"uint256"}],"stateMutability":"view","type":"function"},{"inputs":[{"internalType":"uint256","name":"realmId","type":"uint256"}],"name":"balanceOf","outputs":[{"internalType":"uint256","name":"","type":"uint256"}],"stateMutability":"view","type":"function"},{"inputs":[{"internalType":"bytes32","name":"season","type":"bytes32"},{"internalType":"uint256","name":"realmId","type":"uint256"}],"name":"balanceOf","outputs":[{"internalType":"uint256","name":"","type":"uint256"}],"stateMutability":"view","type":"function"},{"inputs":[{"internalType":"bytes32","name":"","type":"bytes32"},{"internalType":"uint256","name":"","type":"uint256"},{"internalType":"uint256","name":"","type":"uint256"}],"name":"balances","outputs":[{"internalType":"uint256","name":"","type":"uint256"}],"stateMutability":"view","type":"function"},{"inputs":[{"internalType":"bytes32[]","name":"reasonCodes","type":"bytes32[]"}],"name":"batchAddConsumeReasonCodes","outputs":[],"stateMutability":"nonpayable","type":"function"},{"inputs":[{"internalType":"bytes32[]","name":"reasonCodes","type":"bytes32[]"}],"name":"batchRemoveConsumeReasonCodes","outputs":[],"stateMutability":"nonpayable","type":"function"},{"inputs":[{"internalType":"bytes32","name":"parentNode","type":"bytes32"},{"internalType":"string","name":"name","type":"string"},{"internalType":"uint256","name":"amount","type":"uint256"},{"internalType":"bytes32","name":"consumeReasonCode","type":"bytes32"},{"internalType":"uint8","name":"v","type":"uint8"},{"internalType":"bytes32","name":"r","type":"bytes32"},{"internalType":"bytes32","name":"s","type":"bytes32"}],"name":"consume","outputs":[],"stateMutability":"nonpayable","type":"function"},{"inputs":[{"internalType":"uint256","name":"realmId","type":"uint256"},{"internalType":"uint256","name":"amount","type":"uint256"},{"internalType":"bytes32","name":"consumeReasonCode","type":"bytes32"}],"name":"consume","outputs":[],"stateMutability":"nonpayable","type":"function"},{"inputs":[{"internalType":"uint256","name":"realmId","type":"uint256"},{"internalType":"uint256","name":"amount","type":"uint256"},{"internalType":"bytes32","name":"consumeReasonCode","type":"bytes32"},{"internalType":"uint8","name":"v","type":"uint8"},{"internalType":"bytes32","name":"r","type":"bytes32"},{"internalType":"bytes32","name":"s","type":"bytes32"}],"name":"consume","outputs":[],"stateMutability":"nonpayable","type":"function"},{"inputs":[{"internalType":"bytes32","name":"parentNode","type":"bytes32"},{"internalType":"string","name":"name","type":"string"},{"internalType":"uint256","name":"amount","type":"uint256"},{"internalType":"bytes32","name":"consumeReasonCode","type":"bytes32"}],"name":"consume","outputs":[],"stateMutability":"nonpayable","type":"function"},{"inputs":[],"name":"currentSeason","outputs":[{"internalType":"bytes32","name":"","type":"bytes32"}],"stateMutability":"view","type":"function"},{"inputs":[{"internalType":"bytes32","name":"season","type":"bytes32"},{"internalType":"uint256","name":"realmId","type":"uint256"},{"internalType":"uint256","name":"realmIdVersion","type":"uint256"},{"internalType":"uint256","name":"amount","type":"uint256"},{"internalType":"bytes32","name":"depositReasonCode","type":"bytes32"}],"name":"deposit","outputs":[],"stateMutability":"nonpayable","type":"function"},{"inputs":[{"internalType":"bytes32","name":"season","type":"bytes32"},{"internalType":"bytes32","name":"parentNode","type":"bytes32"},{"internalType":"string","name":"name","type":"string"},{"internalType":"uint256","name":"realmIdVersion","type":"uint256"},{"internalType":"uint256","name":"amount","type":"uint256"},{"internalType":"bytes32","name":"depositReasonCode","type":"bytes32"}],"name":"deposit","outputs":[],"stateMutability":"nonpayable","type":"function"},{"inputs":[{"internalType":"bytes32","name":"role","type":"bytes32"},{"internalType":"address","name":"account","type":"address"}],"name":"grantRole","outputs":[],"stateMutability":"nonpayable","type":"function"},{"inputs":[{"internalType":"bytes32","name":"role","type":"bytes32"},{"internalType":"address","name":"account","type":"address"}],"name":"hasRole","outputs":[{"internalType":"bool","name":"hasRole_","type":"bool"}],"stateMutability":"view","type":"function"},{"inputs":[],"name":"initialize","outputs":[],"stateMutability":"nonpayable","type":"function"},{"inputs":[],"name":"initializeV2","outputs":[],"stateMutability":"nonpayable","type":"function"},{"inputs":[{"internalType":"uint256","name":"","type":"uint256"}],"name":"nonces","outputs":[{"internalType":"uint256","name":"","type":"uint256"}],"stateMutability":"view","type":"function"},{"inputs":[],"name":"owner","outputs":[{"internalType":"address","name":"","type":"address"}],"stateMutability":"view","type":"function"},{"inputs":[{"internalType":"uint256","name":"realmId","type":"uint256"},{"internalType":"uint256","name":"amount","type":"uint256"},{"internalType":"bytes32","name":"reasonCode","type":"bytes32"}],"name":"preparePayload","outputs":[{"internalType":"bytes32","name":"","type":"bytes32"}],"stateMutability":"view","type":"function"},{"inputs":[],"name":"proxiableUUID","outputs":[{"internalType":"bytes32","name":"","type":"bytes32"}],"stateMutability":"view","type":"function"},{"inputs":[],"name":"realmIdContract","outputs":[{"internalType":"contract IRealmId","name":"","type":"address"}],"stateMutability":"view","type":"function"},{"inputs":[{"internalType":"bytes32","name":"role","type":"bytes32"}],"name":"renounceRole","outputs":[],"stateMutability":"nonpayable","type":"function"},{"inputs":[{"internalType":"bytes32","name":"role","type":"bytes32"},{"internalType":"address","name":"account","type":"address"}],"name":"revokeRole","outputs":[],"stateMutability":"nonpayable","type":"function"},{"inputs":[{"internalType":"bytes32","name":"","type":"bytes32"}],"name":"seasons","outputs":[{"internalType":"bool","name":"","type":"bool"}],"stateMutability":"view","type":"function"},{"inputs":[{"internalType":"bytes32","name":"season","type":"bytes32"}],"name":"setCurrentSeason","outputs":[],"stateMutability":"nonpayable","type":"function"},{"inputs":[{"internalType":"uint256","name":"_newVal","type":"uint256"}],"name":"setVal","outputs":[],"stateMutability":"nonpayable","type":"function"},{"inputs":[{"internalType":"address","name":"newOwner","type":"address"}],"name":"transferOwnership","outputs":[],"stateMutability":"nonpayable","type":"function"},{"inputs":[{"internalType":"address","name":"newImplementation","type":"address"}],"name":"upgradeTo","outputs":[],"stateMutability":"nonpayable","type":"function"},{"inputs":[{"internalType":"address","name":"newImplementation","type":"address"},{"internalType":"bytes","name":"data","type":"bytes"}],"name":"upgradeToAndCall","outputs":[],"stateMutability":"payable","type":"function"},{"inputs":[],"name":"val","outputs":[{"internalType":"uint256","name":"","type":"uint256"}],"stateMutability":"view","type":"function"}],"devdoc":{"errors":{"InitializationPhaseAlreadyReached(uint256,uint256)":[{"params":{"currentPhase":"The current phase.","newPhase":"The new phase trying to be set."}}],"NotContractOwner(address)":[{"params":{"account":"The account that was checked."}}],"NotRoleHolder(bytes32,address)":[{"params":{"account":"The account that was checked.","role":"The role the caller is missing."}}]},"events":{"AdminChanged(address,address)":{"details":"Emitted when the admin account has changed."},"BatchAddedConsumeReasonCode(bytes32[])":{"params":{"reasonCodes":"The reason codes added to the mapping."}},"BatchRemovedConsumeReasonCode(bytes32[])":{"params":{"reasonCodes":"The reason codes removed from the mapping."}},"BeaconUpgraded(address)":{"details":"Emitted when the beacon is changed."},"Consumed(uint256,bytes32,bytes32,address,uint256,uint256,address)":{"params":{"amount":"The amount consumed.","operator":"The sender of the consumption.","realmId":"The realmId of the balance consumed from.","realmIdOwner":"The realmId owner's address.","realmIdVersion":"The realmId version.","reasonCode":"The reason code of the consumption.","season":"The season of the balance consumed from."}},"Deposited(address,bytes32,bytes32,uint256,uint256,uint256)":{"params":{"amount":"The amount deposited.","realmId":"The realmId of the balance deposited to.","realmIdVersion":"The realmId version.","reasonCode":"The reason code of the deposit.","season":"The season of the balance deposited to.","sender":"The sender of the deposit."}},"Initialized(uint8)":{"details":"Triggered when the contract has been initialized or reinitialized."},"OwnershipTransferred(address,address)":{"params":{"newOwner":"the new contract owner.","previousOwner":"the previous contract owner."}},"RoleGranted(bytes32,address,address)":{"params":{"account":"The account that has been granted the role.","operator":"The account that granted the role.","role":"The role that has been granted."}},"RoleRevoked(bytes32,address,address)":{"params":{"account":"The account that has been revoked the role.","operator":"The account that revoked the role.","role":"The role that has been revoked."}},"SetCurrentSeason(bytes32)":{"params":{"season":"The new season being set."}},"Upgraded(address)":{"details":"Emitted when the implementation is upgraded."}},"kind":"dev","methods":{"balanceOf(bytes32,bytes32,string)":{"details":"Reverts if fails to resolve realmId from the given parent node and name.Reverts if fails to resolve realmId's version.","params":{"name":"The name of the realmId.","parentNode":"The parent node of the realmId.","season":"The season."},"returns":{"_0":"The balance."}},"balanceOf(bytes32,string)":{"details":"Reverts if fails to resolve realmId from the given parent node and name.Reverts if fails to resolve realmId's version.","params":{"name":"The name of the realmId.","parentNode":"The parent node of the realmId."},"returns":{"_0":"The balance."}},"balanceOf(bytes32,uint256)":{"details":"Reverts if fails to resolve realmId's version.","params":{"realmId":"The realmId.","season":"The season."},"returns":{"_0":"The balance."}},"balanceOf(uint256)":{"details":"Reverts if fails to resolve realmId's version.","params":{"realmId":"The realmId."},"returns":{"_0":"The balance."}},"batchAddConsumeReasonCodes(bytes32[])":{"details":"Reverts if sender does not have Admin role.Reverts if the given reason codes array is empty.Reverts if any of the given reason codes already exists in the mapping.Emits a {BatchAddedConsumeReasonCode} event if all the given reason codes are successfully added.","params":{"reasonCodes":"Array of reason codes to add."}},"batchRemoveConsumeReasonCodes(bytes32[])":{"details":"Reverts if sender does not have Admin role.Reverts if the given reason codes array is empty.Reverts if any of the given reason codes do not exist in the mapping.Emits a {BatchRemovedConsumeReasonCode} event if all the given reason codes are successfully removed.","params":{"reasonCodes":"Array of reason codes to remove."}},"constructor":{"custom:oz-upgrades-unsafe-allow":"constructor"},"consume(bytes32,string,uint256,bytes32)":{"details":"Reverts if fails to resolve realmId from the given parent node and name.Reverts if fails to resolve owner of the realmId.Reverts if the sender is not the owner of the realmId.Reverts if fails to resolve realmId's version.Reverts if balance is insufficient.Reverts if the consume reason code is not allowed.Emits a {Consumed} event if the consumption is successful.","params":{"amount":"The amount to consume.","consumeReasonCode":"The reason code of the consumption.","name":"The name of the realmId.","parentNode":"The parent node of the realmId."}},"consume(bytes32,string,uint256,bytes32,uint8,bytes32,bytes32)":{"details":"Reverts if fails to resolve realmId from the given parent node and name.Reverts if fails to resolve realmId's version.Reverts if signature is invalid.Reverts if fails to resolve owner of the realmId.Reverts if signer is not the realmId owner.Reverts if balance is insufficient.Reverts if the consume reason code is not allowed.Emits a {Consumed} event if the consumption is successful.","params":{"amount":"The amount to consume.","consumeReasonCode":"The reason code of the consumption.","name":"The name of the realmId.","parentNode":"The parent node of the realmId.","r":"r value of the signature.","s":"s value of the signature.","v":"v value of the signature."}},"consume(uint256,uint256,bytes32)":{"details":"Reverts if fails to resolve owner of the realmId.Reverts if the sender is not the owner of the realmId.Reverts if fails to resolve realmId's version.Reverts if balance is insufficient.Reverts if the consume reason code is not allowed.Emits a {Consumed} event if the consumption is successful.","params":{"amount":"The amount to consume.","consumeReasonCode":"The reason code of the consumption.","realmId":"The realmId to deposit to."}},"consume(uint256,uint256,bytes32,uint8,bytes32,bytes32)":{"details":"Reverts if failes to resolve realmId's version.Reverts if signature is invalid.Reverts if fails to resolve owner of the realmId.Reverts if signer is not the realmId owner.Reverts if balance is insufficient.Reverts if the consume reason code is not allowed.Emits a {Consumed} event if the consumption is successful.","params":{"amount":"The amount to consume.","consumeReasonCode":"The reason code of the consumption.","r":"r value of the signature.","realmId":"The realmId to consume from.","s":"s value of the signature.","v":"v value of the signature."}},"deposit(bytes32,bytes32,string,uint256,uint256,bytes32)":{"details":"Reverts if sender does not have Depositor role.Emits a {Deposited} event with msg.sender as the sender.","params":{"amount":"The amount to deposit.","depositReasonCode":"The reason code of the deposit.","name":"The name associated with the realmId.","parentNode":"The parent node associated with the realmId.","realmIdVersion":"The realmId version.","season":"The season to deposit to."}},"deposit(bytes32,uint256,uint256,uint256,bytes32)":{"details":"Reverts if sender does not have Depositor role.Emits a {Deposited} event if successful.","params":{"amount":"The amount to deposit.","depositReasonCode":"The reason code of the deposit.","realmId":"The realmId to deposit to.","realmIdVersion":"The realmId version.","season":"The season to deposit to."}},"grantRole(bytes32,address)":{"details":"Reverts with {NotContractOwner} if the sender is not the contract owner.Emits a {RoleGranted} event if the account did not previously have the role.","params":{"account":"The account to grant the role to.","role":"The role to grant."}},"hasRole(bytes32,address)":{"params":{"account":"The account.","role":"The role."},"returns":{"hasRole_":"Whether `account` has `role`."}},"initialize()":{"details":"Reverts if the given address is invalid (equal to ZeroAddress)."},"owner()":{"returns":{"_0":"The address of the contract owner."}},"preparePayload(uint256,uint256,bytes32)":{"details":"Reverts if fails to resolve the realmId's version.","params":{"amount":"The amount.","realmId":"The realmId.","reasonCode":"The reason code."},"returns":{"_0":"The payload."}},"proxiableUUID()":{"details":"Implementation of the ERC1822 {proxiableUUID} function. This returns the storage slot used by the implementation. It is used to validate the implementation's compatibility when performing an upgrade. IMPORTANT: A proxy pointing at a proxiable contract should not be considered proxiable itself, because this risks bricking a proxy that upgrades to it, by delegating to itself until out of gas. Thus it is critical that this function revert if invoked through a proxy. This is guaranteed by the `notDelegated` modifier."},"renounceRole(bytes32)":{"details":"Reverts if `sender` does not have `role`.Emits a {RoleRevoked} event.","params":{"role":"The role to renounce."}},"revokeRole(bytes32,address)":{"details":"Reverts with {NotContractOwner} if the sender is not the contract owner.Emits a {RoleRevoked} event if the account previously had the role.","params":{"account":"The account to revoke the role from.","role":"The role to revoke."}},"setCurrentSeason(bytes32)":{"details":"Reverts if sender does not have Admin role.Reverts if the given season has already been set before.Emits a {SetCurrentSeason} event if successful.","params":{"season":"The season to set."}},"transferOwnership(address)":{"details":"Reverts if the sender is not the contract owner.Emits an {OwnershipTransferred} event if `newOwner` is different from the current contract owner.","params":{"newOwner":"The address of the new contract owner. Using the zero address means renouncing ownership."}},"upgradeTo(address)":{"custom:oz-upgrades-unsafe-allow-reachable":"delegatecall","details":"Upgrade the implementation of the proxy to `newImplementation`. Calls {_authorizeUpgrade}. Emits an {Upgraded} event."},"upgradeToAndCall(address,bytes)":{"custom:oz-upgrades-unsafe-allow-reachable":"delegatecall","details":"Upgrade the implementation of the proxy to `newImplementation`, and subsequently execute the function call encoded in `data`. Calls {_authorizeUpgrade}. Emits an {Upgraded} event."}},"version":1},"evm":{"bytecode":{"linkReferences":{},"object":"60c0604052306080523480156200001557600080fd5b5060405162003acb38038062003acb833981016040819052620000389162000083565b806001600160a01b03811662000070576040516382dd9ba360e01b81526001600160a01b038216600482015260240160405180910390fd5b6001600160a01b031660a05250620000b5565b6000602082840312156200009657600080fd5b81516001600160a01b0381168114620000ae57600080fd5b9392505050565b60805160a05161396462000167600039600081816102cd015281816107220152818161080801528181610909015281816109bc015281816112e7015281816113cd0152818161194201528181611a2001528181611afa01528181611bd601528181611c9901528181611d9e01528181611e8901528181612081015281816122020152612313015260008181610b5001528181610c0001528181610edc01528181610f8c01526110d501526139646000f3fe6080604052600436106102345760003560e01c806386a8e98a11610138578063ad3b1d48116100b0578063dc893ce41161007f578063e564a0e211610064578063e564a0e2146106ad578063f2fde38b146106cd578063f9515962146106ed57600080fd5b8063dc893ce41461066d578063df00bb241461068d57600080fd5b8063ad3b1d48146105f7578063bcb3962114610617578063d14a5c711461062d578063d547741f1461064d57600080fd5b806391d14854116101075780639cc7f708116100ec5780639cc7f708146105835780639d70b005146105a3578063a3b0b5a3146105c357600080fd5b806391d148541461054357806399d342ac1461056357600080fd5b806386a8e98a146104ce5780638bb9c5bf146104ee5780638da5cb5b1461050e578063906405a31461052357600080fd5b80633f30b00f116101cb57806352d1902d1161019a57806375b238fc1161017f57806375b238fc14610465578063794459be146104995780638129fc1c146104b957600080fd5b806352d1902d1461043b5780635cd8a76b1461045057600080fd5b80633f30b00f1461038a5780634529cc1b146103aa5780634f1ef286146103ea57806351955dfc146103fd57600080fd5b80632f2ff15d116102075780632f2ff15d146103145780633659cfe6146103345780633c6bb436146103545780633d4197f01461036a57600080fd5b8063098b641914610239578063141a468c1461026c57806318ee89f0146102995780632b48dc72146102bb575b600080fd5b34801561024557600080fd5b506102596102543660046131e8565b61071d565b6040519081526020015b60405180910390f35b34801561027857600080fd5b5061025961028736600461323b565b60686020526000908152604090205481565b3480156102a557600080fd5b506102b96102b4366004613254565b6108a5565b005b3480156102c757600080fd5b506102ef7f000000000000000000000000000000000000000000000000000000000000000081565b60405173ffffffffffffffffffffffffffffffffffffffff9091168152602001610263565b34801561032057600080fd5b506102b961032f3660046132b1565b610b0b565b34801561034057600080fd5b506102b961034f3660046132e1565b610b39565b34801561036057600080fd5b50610259606a5481565b34801561037657600080fd5b506102b961038536600461323b565b606a55565b34801561039657600080fd5b506102b96103a5366004613305565b610d3e565b3480156103b657600080fd5b506103da6103c536600461323b565b60666020526000908152604090205460ff1681565b6040519015158152602001610263565b6102b96103f83660046133a9565b610ec5565b34801561040957600080fd5b5061025961041836600461348b565b606760209081526000938452604080852082529284528284209052825290205481565b34801561044757600080fd5b506102596110bb565b34801561045c57600080fd5b506102b96111a7565b34801561047157600080fd5b506102597fa49807205ce4d355092ef5a8a18f56e8913cf4a201fbe287825b095693c2177581565b3480156104a557600080fd5b506102596104b43660046134b7565b6112e2565b3480156104c557600080fd5b506102b961146a565b3480156104da57600080fd5b506102b96104e936600461323b565b611607565b3480156104fa57600080fd5b506102b961050936600461323b565b6116eb565b34801561051a57600080fd5b506102ef6116ff565b34801561052f57600080fd5b506102b961053e366004613305565b61172b565b34801561054f57600080fd5b506103da61055e3660046132b1565b6118b5565b34801561056f57600080fd5b506102b961057e366004613519565b611902565b34801561058f57600080fd5b5061025961059e36600461323b565b6119d7565b3480156105af57600080fd5b506102b96105be36600461359c565b611aba565b3480156105cf57600080fd5b506102597f8f4f2da22e8ac8f11e15f9fc141cddbb5deea8800186560abb6e68c5496619a981565b34801561060357600080fd5b5061025961061236600461360a565b611b8d565b34801561062357600080fd5b5061025960655481565b34801561063957600080fd5b506102b961064836600461348b565b611c67565b34801561065957600080fd5b506102b96106683660046132b1565b611e34565b34801561067957600080fd5b506102b961068836600461362c565b611e57565b34801561069957600080fd5b506102596106a836600461348b565b6121b9565b3480156106b957600080fd5b506102b96106c836600461367d565b6122d3565b3480156106d957600080fd5b506102b96106e83660046132e1565b6123a2565b3480156106f957600080fd5b506103da61070836600461323b565b60696020526000908152604090205460ff1681565b6000807f000000000000000000000000000000000000000000000000000000000000000073ffffffffffffffffffffffffffffffffffffffff1663cad6b9018585886040518463ffffffff1660e01b815260040161077d939291906136db565b602060405180830381865afa15801561079a573d6000803e3d6000fd5b505050506040513d601f19601f820116820180604052508101906107be9190613732565b6040517fa9735f940000000000000000000000000000000000000000000000000000000081526004810182905290915060009073ffffffffffffffffffffffffffffffffffffffff7f0000000000000000000000000000000000000000000000000000000000000000169063a9735f9490602401602060405180830381865afa15801561084f573d6000803e3d6000fd5b505050506040513d601f19601f820116820180604052508101906108739190613732565b60008881526067602090815260408083209583529481528482209282529190915291909120549150505b949350505050565b6108da7f8f4f2da22e8ac8f11e15f9fc141cddbb5deea8800186560abb6e68c5496619a9335b6108d36123b6565b91906123e4565b6040517f6352211e000000000000000000000000000000000000000000000000000000008152600481018590527f000000000000000000000000000000000000000000000000000000000000000073ffffffffffffffffffffffffffffffffffffffff1690636352211e90602401602060405180830381865afa158015610965573d6000803e3d6000fd5b505050506040513d601f19601f82011682018060405250810190610989919061374b565b506040517fa9735f94000000000000000000000000000000000000000000000000000000008152600481018590526000907f000000000000000000000000000000000000000000000000000000000000000073ffffffffffffffffffffffffffffffffffffffff169063a9735f9490602401602060405180830381865afa158015610a18573d6000803e3d6000fd5b505050506040513d601f19601f82011682018060405250810190610a3c9190613732565b9050838114610a86576040517fb196cc7700000000000000000000000000000000000000000000000000000000815260048101869052602481018590526044015b60405180910390fd5b6000868152606760209081526040808320888452825280832087845290915281208054859290610ab7908490613797565b9091555050604080518681526020810186905280820185905290518391889133917f9092bf6bd1cf7db4fcf41aedc7c0333b51c57f5b80b429bc3d9caa5587c6ad82919081900360600190a4505050505050565b33610b1e81610b1861246a565b90612498565b610b34838383610b2c6123b6565b929190612503565b505050565b73ffffffffffffffffffffffffffffffffffffffff7f0000000000000000000000000000000000000000000000000000000000000000163003610bfe576040517f08c379a000000000000000000000000000000000000000000000000000000000815260206004820152602c60248201527f46756e6374696f6e206d7573742062652063616c6c6564207468726f7567682060448201527f64656c656761746563616c6c00000000000000000000000000000000000000006064820152608401610a7d565b7f000000000000000000000000000000000000000000000000000000000000000073ffffffffffffffffffffffffffffffffffffffff16610c737f360894a13ba1a3210667c828492db98dca3e2076cc3735a920a3ca505d382bbc5473ffffffffffffffffffffffffffffffffffffffff1690565b73ffffffffffffffffffffffffffffffffffffffff1614610d16576040517f08c379a000000000000000000000000000000000000000000000000000000000815260206004820152602c60248201527f46756e6374696f6e206d7573742062652063616c6c6564207468726f7567682060448201527f6163746976652070726f787900000000000000000000000000000000000000006064820152608401610a7d565b610d1f816125da565b60408051600080825260208201909252610d3b918391906125e6565b50565b610d687fa49807205ce4d355092ef5a8a18f56e8913cf4a201fbe287825b095693c21775336108cb565b80610d9f576040517f3fb4608600000000000000000000000000000000000000000000000000000000815260040160405180910390fd5b60005b81811015610e875760696000848484818110610dc057610dc06137aa565b602090810292909201358352508101919091526040016000205460ff1615610e3057828282818110610df457610df46137aa565b905060200201356040517fb6421242000000000000000000000000000000000000000000000000000000008152600401610a7d91815260200190565b600160696000858585818110610e4857610e486137aa565b90506020020135815260200190815260200160002060006101000a81548160ff0219169083151502179055508080610e7f906137d9565b915050610da2565b507f0d8c56a8918ec09c2fe3c4d9fcc00ece66df217a1ab3ad768dd0a71620da5b4e8282604051610eb9929190613811565b60405180910390a15050565b73ffffffffffffffffffffffffffffffffffffffff7f0000000000000000000000000000000000000000000000000000000000000000163003610f8a576040517f08c379a000000000000000000000000000000000000000000000000000000000815260206004820152602c60248201527f46756e6374696f6e206d7573742062652063616c6c6564207468726f7567682060448201527f64656c656761746563616c6c00000000000000000000000000000000000000006064820152608401610a7d565b7f000000000000000000000000000000000000000000000000000000000000000073ffffffffffffffffffffffffffffffffffffffff16610fff7f360894a13ba1a3210667c828492db98dca3e2076cc3735a920a3ca505d382bbc5473ffffffffffffffffffffffffffffffffffffffff1690565b73ffffffffffffffffffffffffffffffffffffffff16146110a2576040517f08c379a000000000000000000000000000000000000000000000000000000000815260206004820152602c60248201527f46756e6374696f6e206d7573742062652063616c6c6564207468726f7567682060448201527f6163746976652070726f787900000000000000000000000000000000000000006064820152608401610a7d565b6110ab826125da565b6110b7828260016125e6565b5050565b60003073ffffffffffffffffffffffffffffffffffffffff7f00000000000000000000000000000000000000000000000000000000000000001614611182576040517f08c379a000000000000000000000000000000000000000000000000000000000815260206004820152603860248201527f555550535570677261646561626c653a206d757374206e6f742062652063616c60448201527f6c6564207468726f7567682064656c656761746563616c6c00000000000000006064820152608401610a7d565b507f360894a13ba1a3210667c828492db98dca3e2076cc3735a920a3ca505d382bbc90565b600054600290610100900460ff161580156111c9575060005460ff8083169116105b611255576040517f08c379a000000000000000000000000000000000000000000000000000000000815260206004820152602e60248201527f496e697469616c697a61626c653a20636f6e747261637420697320616c72656160448201527f647920696e697469616c697a65640000000000000000000000000000000000006064820152608401610a7d565b600080547fffffffffffffffffffffffffffffffffffffffffffffffffffffffffffff00001660ff8316908117610100177fffffffffffffffffffffffffffffffffffffffffffffffffffffffffffff00ff169091556040519081527f7f26b83ff96e1f2b6a682f133852f6798a09c465da95921460cefb3847402498906020015b60405180910390a150565b6000807f000000000000000000000000000000000000000000000000000000000000000073ffffffffffffffffffffffffffffffffffffffff1663cad6b9018585886040518463ffffffff1660e01b8152600401611342939291906136db565b602060405180830381865afa15801561135f573d6000803e3d6000fd5b505050506040513d601f19601f820116820180604052508101906113839190613732565b6040517fa9735f940000000000000000000000000000000000000000000000000000000081526004810182905290915060009073ffffffffffffffffffffffffffffffffffffffff7f0000000000000000000000000000000000000000000000000000000000000000169063a9735f9490602401602060405180830381865afa158015611414573d6000803e3d6000fd5b505050506040513d601f19601f820116820180604052508101906114389190613732565b606554600090815260676020908152604080832095835294815284822092825291909152919091205495945050505050565b600054610100900460ff161580801561148a5750600054600160ff909116105b806114a45750303b1580156114a4575060005460ff166001145b611530576040517f08c379a000000000000000000000000000000000000000000000000000000000815260206004820152602e60248201527f496e697469616c697a61626c653a20636f6e747261637420697320616c72656160448201527f647920696e697469616c697a65640000000000000000000000000000000000006064820152608401610a7d565b600080547fffffffffffffffffffffffffffffffffffffffffffffffffffffffffffffff00166001179055801561158e57600080547fffffffffffffffffffffffffffffffffffffffffffffffffffffffffffff00ff166101001790555b6115966127e5565b6115a8336115a261246a565b9061287e565b8015610d3b57600080547fffffffffffffffffffffffffffffffffffffffffffffffffffffffffffff00ff169055604051600181527f7f26b83ff96e1f2b6a682f133852f6798a09c465da95921460cefb3847402498906020016112d7565b6116317fa49807205ce4d355092ef5a8a18f56e8913cf4a201fbe287825b095693c21775336108cb565b60008181526066602052604090205460ff161561167d576040517f796c3e9a00000000000000000000000000000000000000000000000000000000815260048101829052602401610a7d565b60658190556000818152606660205260409081902080547fffffffffffffffffffffffffffffffffffffffffffffffffffffffffffffff00166001179055517f61228c895f8ba06548597d3e34a23bc0ecb6d1e62a1eb3fa30be04883a17ef31906112d79083815260200190565b610d3b33826116f86123b6565b91906128bd565b600061172661170c61246a565b5473ffffffffffffffffffffffffffffffffffffffff1690565b905090565b6117557fa49807205ce4d355092ef5a8a18f56e8913cf4a201fbe287825b095693c21775336108cb565b8061178c576040517f3fb4608600000000000000000000000000000000000000000000000000000000815260040160405180910390fd5b60005b8181101561188357606960008484848181106117ad576117ad6137aa565b602090810292909201358352508101919091526040016000205460ff1661181c578282828181106117e0576117e06137aa565b905060200201356040517fa89513e1000000000000000000000000000000000000000000000000000000008152600401610a7d91815260200190565b60696000848484818110611832576118326137aa565b6020908102929092013583525081019190915260400160002080547fffffffffffffffffffffffffffffffffffffffffffffffffffffffffffffff001690558061187b816137d9565b91505061178f565b507f5b2c9fcbb27d48bdbfc59f0564b5ba81539309ebf09a940fad64d171bcfb9ff98282604051610eb9929190613811565b60006118f983836118c46123b6565b60009283526020908152604080842073ffffffffffffffffffffffffffffffffffffffff909316845291905290205460ff1690565b90505b92915050565b6040517fcad6b90100000000000000000000000000000000000000000000000000000000815260009073ffffffffffffffffffffffffffffffffffffffff7f0000000000000000000000000000000000000000000000000000000000000000169063cad6b9019061197b908b908b908e906004016136db565b602060405180830381865afa158015611998573d6000803e3d6000fd5b505050506040513d601f19601f820116820180604052508101906119bc9190613732565b90506119cc818787878787611e57565b505050505050505050565b6040517fa9735f9400000000000000000000000000000000000000000000000000000000815260048101829052600090819073ffffffffffffffffffffffffffffffffffffffff7f0000000000000000000000000000000000000000000000000000000000000000169063a9735f9490602401602060405180830381865afa158015611a67573d6000803e3d6000fd5b505050506040513d601f19601f82011682018060405250810190611a8b9190613732565b606554600090815260676020908152604080832096835295815285822092825291909152929092205492915050565b6040517fcad6b90100000000000000000000000000000000000000000000000000000000815260009073ffffffffffffffffffffffffffffffffffffffff7f0000000000000000000000000000000000000000000000000000000000000000169063cad6b90190611b3390899089908c906004016136db565b602060405180830381865afa158015611b50573d6000803e3d6000fd5b505050506040513d601f19601f82011682018060405250810190611b749190613732565b9050611b8388828686866108a5565b5050505050505050565b6040517fa9735f9400000000000000000000000000000000000000000000000000000000815260048101829052600090819073ffffffffffffffffffffffffffffffffffffffff7f0000000000000000000000000000000000000000000000000000000000000000169063a9735f9490602401602060405180830381865afa158015611c1d573d6000803e3d6000fd5b505050506040513d601f19601f82011682018060405250810190611c419190613732565b600094855260676020908152604080872095875294815284862091865252505090205490565b6040517f6352211e000000000000000000000000000000000000000000000000000000008152600481018490526000907f000000000000000000000000000000000000000000000000000000000000000073ffffffffffffffffffffffffffffffffffffffff1690636352211e90602401602060405180830381865afa158015611cf5573d6000803e3d6000fd5b505050506040513d601f19601f82011682018060405250810190611d19919061374b565b90503373ffffffffffffffffffffffffffffffffffffffff821614611d6c576040517f33ffff9b000000000000000000000000000000000000000000000000000000008152336004820152602401610a7d565b6040517fa9735f94000000000000000000000000000000000000000000000000000000008152600481018590526000907f000000000000000000000000000000000000000000000000000000000000000073ffffffffffffffffffffffffffffffffffffffff169063a9735f9490602401602060405180830381865afa158015611dfa573d6000803e3d6000fd5b505050506040513d601f19601f82011682018060405250810190611e1e9190613732565b9050611e2d8582868686612961565b5050505050565b33611e4181610b1861246a565b610b34838383611e4f6123b6565b929190612ab8565b6040517fa9735f94000000000000000000000000000000000000000000000000000000008152600481018790526000907f000000000000000000000000000000000000000000000000000000000000000073ffffffffffffffffffffffffffffffffffffffff169063a9735f9490602401602060405180830381865afa158015611ee5573d6000803e3d6000fd5b505050506040513d601f19601f82011682018060405250810190611f099190613732565b60008881526068602090815260408083205460655482518085018e9052808401879052606081018d9052608081019190915260a081018b905260c0808201929092528251808203909201825260e0019091528051910120919250906040517f19457468657265756d205369676e6564204d6573736167653a0a3332000000006020820152603c8101829052909150600090605c01604080517fffffffffffffffffffffffffffffffffffffffffffffffffffffffffffffffe08184030181528282528051602091820120600080855291840180845281905260ff8a169284019290925260608301889052608083018790529092509060019060a0016020604051602081039080840390855afa158015612026573d6000803e3d6000fd5b50506040517fffffffffffffffffffffffffffffffffffffffffffffffffffffffffffffffe08101517f6352211e000000000000000000000000000000000000000000000000000000008252600482018d90529250600091507f000000000000000000000000000000000000000000000000000000000000000073ffffffffffffffffffffffffffffffffffffffff1690636352211e90602401602060405180830381865afa1580156120dd573d6000803e3d6000fd5b505050506040513d601f19601f82011682018060405250810190612101919061374b565b90508073ffffffffffffffffffffffffffffffffffffffff168273ffffffffffffffffffffffffffffffffffffffff1614612180576040517f33ffff9b00000000000000000000000000000000000000000000000000000000815273ffffffffffffffffffffffffffffffffffffffff83166004820152602401610a7d565b61218d8b868c8c85612961565b60008b81526068602052604081208054916121a7836137d9565b91905055505050505050505050505050565b6040517fa9735f9400000000000000000000000000000000000000000000000000000000815260048101849052600090819073ffffffffffffffffffffffffffffffffffffffff7f0000000000000000000000000000000000000000000000000000000000000000169063a9735f9490602401602060405180830381865afa158015612249573d6000803e3d6000fd5b505050506040513d601f19601f8201168201806040525081019061226d9190613732565b60008681526068602090815260408083205460655482518085018c9052808401879052606081018b9052608081019190915260a0810189905260c0808201929092528251808203909201825260e0019091528051910120919250905b9695505050505050565b6040517fcad6b90100000000000000000000000000000000000000000000000000000000815260009073ffffffffffffffffffffffffffffffffffffffff7f0000000000000000000000000000000000000000000000000000000000000000169063cad6b9019061234c90889088908b906004016136db565b602060405180830381865afa158015612369573d6000803e3d6000fd5b505050506040513d601f19601f8201168201806040525081019061238d9190613732565b905061239a818484611c67565b505050505050565b610d3b33826123af61246a565b9190612b82565b6000806118fc60017fc8827d3282af6f37b64c3e9e6f3ac9df286ab0bb0fccd6f8661bf19adb368b23613863565b60008281526020848152604080832073ffffffffffffffffffffffffffffffffffffffff8516845290915290205460ff16610b34576040517f7aa728820000000000000000000000000000000000000000000000000000000081526004810183905273ffffffffffffffffffffffffffffffffffffffff82166024820152604401610a7d565b6000806118fc60017fc9ed16f33ab3a66c84bfd83099ccb2a8845871e2e1c1928f63797152f0fd54cd613863565b815473ffffffffffffffffffffffffffffffffffffffff8281169116146110b7576040517f2ef4875e00000000000000000000000000000000000000000000000000000000815273ffffffffffffffffffffffffffffffffffffffff82166004820152602401610a7d565b60008381526020858152604080832073ffffffffffffffffffffffffffffffffffffffff8616845290915290205460ff166125d45760008381526020858152604080832073ffffffffffffffffffffffffffffffffffffffff8681168086529184529382902080547fffffffffffffffffffffffffffffffffffffffffffffffffffffffffffffff00166001179055815187815292830152918316918101919091527f2f8788117e7eff1d82e926ec794901d17c78024a50270940304540a733656f0d906060015b60405180910390a15b50505050565b610d3b33610b1861246a565b7f4910fdfa16fed3260ed0e7147f7cc6da11a60208b5b9406d12a635614ffd91435460ff161561261957610b3483612c96565b8273ffffffffffffffffffffffffffffffffffffffff166352d1902d6040518163ffffffff1660e01b8152600401602060405180830381865afa92505050801561269e575060408051601f3d9081017fffffffffffffffffffffffffffffffffffffffffffffffffffffffffffffffe016820190925261269b91810190613732565b60015b61272a576040517f08c379a000000000000000000000000000000000000000000000000000000000815260206004820152602e60248201527f45524331393637557067726164653a206e657720696d706c656d656e7461746960448201527f6f6e206973206e6f7420555550530000000000000000000000000000000000006064820152608401610a7d565b7f360894a13ba1a3210667c828492db98dca3e2076cc3735a920a3ca505d382bbc81146127d9576040517f08c379a000000000000000000000000000000000000000000000000000000000815260206004820152602960248201527f45524331393637557067726164653a20756e737570706f727465642070726f7860448201527f6961626c655555494400000000000000000000000000000000000000000000006064820152608401610a7d565b50610b34838383612da0565b600054610100900460ff1661287c576040517f08c379a000000000000000000000000000000000000000000000000000000000815260206004820152602b60248201527f496e697469616c697a61626c653a20636f6e7472616374206973206e6f74206960448201527f6e697469616c697a696e670000000000000000000000000000000000000000006064820152608401610a7d565b565b6128b36128ac60017f5b388d90dc1312ba799f321972f13311234fa1163bcabec7cf66101c4876eb84613863565b6001612dc5565b6110b78282612e11565b6128c88382846123e4565b60008181526020848152604080832073ffffffffffffffffffffffffffffffffffffffff86168085529083529281902080547fffffffffffffffffffffffffffffffffffffffffffffffffffffffffffffff0016905580518481529182018390528101919091527ff6391f5c32d9c69d2a47ea670b442974b53935d1edc7fd64eb21e047a839171b9060600160405180910390a1505050565b606554600090815260676020908152604080832088845282528083208784529091529020548311156129c9576040517fcf4791810000000000000000000000000000000000000000000000000000000081526004810186905260248101849052604401610a7d565b60008281526069602052604090205460ff16612a14576040517fa89513e100000000000000000000000000000000000000000000000000000000815260048101839052602401610a7d565b6065546000908152606760209081526040808320888452825280832087845290915281208054859290612a48908490613863565b9091555050606554604080513381526020810187905280820186905273ffffffffffffffffffffffffffffffffffffffff84166060820152905184929188917fe514533875fbd3f8f396088d636e746599d8b5c3ba77e9ccfa9fc01ff70646019181900360800190a45050505050565b60008381526020858152604080832073ffffffffffffffffffffffffffffffffffffffff8616845290915290205460ff16156125d45760008381526020858152604080832073ffffffffffffffffffffffffffffffffffffffff8681168086529184529382902080547fffffffffffffffffffffffffffffffffffffffffffffffffffffffffffffff00169055815187815292830152918316918101919091527ff6391f5c32d9c69d2a47ea670b442974b53935d1edc7fd64eb21e047a839171b906060016125cb565b825473ffffffffffffffffffffffffffffffffffffffff9081169083168114612bef576040517f2ef4875e00000000000000000000000000000000000000000000000000000000815273ffffffffffffffffffffffffffffffffffffffff84166004820152602401610a7d565b8173ffffffffffffffffffffffffffffffffffffffff168173ffffffffffffffffffffffffffffffffffffffff16146125d45783547fffffffffffffffffffffffff00000000000000000000000000000000000000001673ffffffffffffffffffffffffffffffffffffffff8381169182178655604051908316907f8be0079c531659141344cd1fd0a4f28419497f9722a3daafe3b4186f6b6457e090600090a350505050565b73ffffffffffffffffffffffffffffffffffffffff81163b612d3a576040517f08c379a000000000000000000000000000000000000000000000000000000000815260206004820152602d60248201527f455243313936373a206e657720696d706c656d656e746174696f6e206973206e60448201527f6f74206120636f6e7472616374000000000000000000000000000000000000006064820152608401610a7d565b7f360894a13ba1a3210667c828492db98dca3e2076cc3735a920a3ca505d382bbc80547fffffffffffffffffffffffff00000000000000000000000000000000000000001673ffffffffffffffffffffffffffffffffffffffff92909216919091179055565b612da983612ece565b600082511180612db65750805b15610b34576125d48383612f1b565b81548290828110612e0c576040517fbf0c18ec0000000000000000000000000000000000000000000000000000000081526004810182905260248101849052604401610a7d565b505550565b73ffffffffffffffffffffffffffffffffffffffff811615612e995781547fffffffffffffffffffffffff00000000000000000000000000000000000000001673ffffffffffffffffffffffffffffffffffffffff821690811783556040516000907f8be0079c531659141344cd1fd0a4f28419497f9722a3daafe3b4186f6b6457e0908290a35b6110b77f7f5828d0000000000000000000000000000000000000000000000000000000006001612ec7612f40565b9190612f6e565b612ed781612c96565b60405173ffffffffffffffffffffffffffffffffffffffff8216907fbc7cd75a20ee27fd9adebab32041f755214dbc6bffa90cc0225b39da2e5c2d3b90600090a250565b60606118f983836040518060600160405280602781526020016139086027913961304a565b6000806118fc60017fca9d3e17f264b0f3984e2634e94adb37fa3e6a8103f06aeae6fa59e21c769f5e613863565b7c01000000000000000000000000000000000000000000000000000000007fffffffff00000000000000000000000000000000000000000000000000000000831601612fe6576040517f72c683bb00000000000000000000000000000000000000000000000000000000815260040160405180910390fd5b7fffffffff00000000000000000000000000000000000000000000000000000000919091166000908152602092909252604090912080547fffffffffffffffffffffffffffffffffffffffffffffffffffffffffffffff0016911515919091179055565b60606000808573ffffffffffffffffffffffffffffffffffffffff1685604051613074919061389a565b600060405180830381855af49150503d80600081146130af576040519150601f19603f3d011682016040523d82523d6000602084013e6130b4565b606091505b50915091506122c9868383876060831561315657825160000361314f5773ffffffffffffffffffffffffffffffffffffffff85163b61314f576040517f08c379a000000000000000000000000000000000000000000000000000000000815260206004820152601d60248201527f416464726573733a2063616c6c20746f206e6f6e2d636f6e74726163740000006044820152606401610a7d565b508161089d565b61089d838381511561316b5781518083602001fd5b806040517f08c379a0000000000000000000000000000000000000000000000000000000008152600401610a7d91906138b6565b60008083601f8401126131b157600080fd5b50813567ffffffffffffffff8111156131c957600080fd5b6020830191508360208285010111156131e157600080fd5b9250929050565b600080600080606085870312156131fe57600080fd5b8435935060208501359250604085013567ffffffffffffffff81111561322357600080fd5b61322f8782880161319f565b95989497509550505050565b60006020828403121561324d57600080fd5b5035919050565b600080600080600060a0868803121561326c57600080fd5b505083359560208501359550604085013594606081013594506080013592509050565b73ffffffffffffffffffffffffffffffffffffffff81168114610d3b57600080fd5b600080604083850312156132c457600080fd5b8235915060208301356132d68161328f565b809150509250929050565b6000602082840312156132f357600080fd5b81356132fe8161328f565b9392505050565b6000806020838503121561331857600080fd5b823567ffffffffffffffff8082111561333057600080fd5b818501915085601f83011261334457600080fd5b81358181111561335357600080fd5b8660208260051b850101111561336857600080fd5b60209290920196919550909350505050565b7f4e487b7100000000000000000000000000000000000000000000000000000000600052604160045260246000fd5b600080604083850312156133bc57600080fd5b82356133c78161328f565b9150602083013567ffffffffffffffff808211156133e457600080fd5b818501915085601f8301126133f857600080fd5b81358181111561340a5761340a61337a565b604051601f82017fffffffffffffffffffffffffffffffffffffffffffffffffffffffffffffffe0908116603f011681019083821181831017156134505761345061337a565b8160405282815288602084870101111561346957600080fd5b8260208601602083013760006020848301015280955050505050509250929050565b6000806000606084860312156134a057600080fd5b505081359360208301359350604090920135919050565b6000806000604084860312156134cc57600080fd5b83359250602084013567ffffffffffffffff8111156134ea57600080fd5b6134f68682870161319f565b9497909650939450505050565b803560ff8116811461351457600080fd5b919050565b60008060008060008060008060e0898b03121561353557600080fd5b88359750602089013567ffffffffffffffff81111561355357600080fd5b61355f8b828c0161319f565b909850965050604089013594506060890135935061357f60808a01613503565b925060a0890135915060c089013590509295985092959890939650565b600080600080600080600060c0888a0312156135b757600080fd5b8735965060208801359550604088013567ffffffffffffffff8111156135dc57600080fd5b6135e88a828b0161319f565b989b979a50986060810135976080820135975060a09091013595509350505050565b6000806040838503121561361d57600080fd5b50508035926020909101359150565b60008060008060008060c0878903121561364557600080fd5b86359550602087013594506040870135935061366360608801613503565b92506080870135915060a087013590509295509295509295565b60008060008060006080868803121561369557600080fd5b85359450602086013567ffffffffffffffff8111156136b357600080fd5b6136bf8882890161319f565b9699909850959660408101359660609091013595509350505050565b6040815282604082015282846060830137600060608483010152600060607fffffffffffffffffffffffffffffffffffffffffffffffffffffffffffffffe0601f8601168301019050826020830152949350505050565b60006020828403121561374457600080fd5b5051919050565b60006020828403121561375d57600080fd5b81516132fe8161328f565b7f4e487b7100000000000000000000000000000000000000000000000000000000600052601160045260246000fd5b808201808211156118fc576118fc613768565b7f4e487b7100000000000000000000000000000000000000000000000000000000600052603260045260246000fd5b60007fffffffffffffffffffffffffffffffffffffffffffffffffffffffffffffffff820361380a5761380a613768565b5060010190565b6020815281602082015260007f07ffffffffffffffffffffffffffffffffffffffffffffffffffffffffffffff83111561384a57600080fd5b8260051b80856040850137919091016040019392505050565b818103818111156118fc576118fc613768565b60005b83811015613891578181015183820152602001613879565b50506000910152565b600082516138ac818460208701613876565b9190910192915050565b60208152600082518060208401526138d5816040850160208701613876565b601f017fffffffffffffffffffffffffffffffffffffffffffffffffffffffffffffffe016919091016040019291505056fe416464726573733a206c6f772d6c6576656c2064656c65676174652063616c6c206661696c6564a264697066735822122091b73cbbdf46df4d3376167ded8286bc93670b02cc6535f7ba43bed70988c11664736f6c63430008150033","opcodes":"PUSH1 0xC0 PUSH1 0x40 MSTORE ADDRESS PUSH1 0x80 MSTORE CALLVALUE DUP1 ISZERO PUSH3 0x15 JUMPI PUSH1 0x0 DUP1 REVERT JUMPDEST POP PUSH1 0x40 MLOAD PUSH3 0x3ACB CODESIZE SUB DUP1 PUSH3 0x3ACB DUP4 CODECOPY DUP2 ADD PUSH1 0x40 DUP2 SWAP1 MSTORE PUSH3 0x38 SWAP2 PUSH3 0x83 JUMP JUMPDEST DUP1 PUSH1 0x1 PUSH1 0x1 PUSH1 0xA0 SHL SUB DUP2 AND PUSH3 0x70 JUMPI PUSH1 0x40 MLOAD PUSH4 0x82DD9BA3 PUSH1 0xE0 SHL DUP2 MSTORE PUSH1 0x1 PUSH1 0x1 PUSH1 0xA0 SHL SUB DUP3 AND PUSH1 0x4 DUP3 ADD MSTORE PUSH1 0x24 ADD PUSH1 0x40 MLOAD DUP1 SWAP2 SUB SWAP1 REVERT JUMPDEST PUSH1 0x1 PUSH1 0x1 PUSH1 0xA0 SHL SUB AND PUSH1 0xA0 MSTORE POP PUSH3 0xB5 JUMP JUMPDEST PUSH1 0x0 PUSH1 0x20 DUP3 DUP5 SUB SLT ISZERO PUSH3 0x96 JUMPI PUSH1 0x0 DUP1 REVERT JUMPDEST DUP2 MLOAD PUSH1 0x1 PUSH1 0x1 PUSH1 0xA0 SHL SUB DUP2 AND DUP2 EQ PUSH3 0xAE JUMPI PUSH1 0x0 DUP1 REVERT JUMPDEST SWAP4 SWAP3 POP POP POP JUMP JUMPDEST PUSH1 0x80 MLOAD PUSH1 0xA0 MLOAD PUSH2 0x3964 PUSH3 0x167 PUSH1 0x0 CODECOPY PUSH1 0x0 DUP2 DUP2 PUSH2 0x2CD ADD MSTORE DUP2 DUP2 PUSH2 0x722 ADD MSTORE DUP2 DUP2 PUSH2 0x808 ADD MSTORE DUP2 DUP2 PUSH2 0x909 ADD MSTORE DUP2 DUP2 PUSH2 0x9BC ADD MSTORE DUP2 DUP2 PUSH2 0x12E7 ADD MSTORE DUP2 DUP2 PUSH2 0x13CD ADD MSTORE DUP2 DUP2 PUSH2 0x1942 ADD MSTORE DUP2 DUP2 PUSH2 0x1A20 ADD MSTORE DUP2 DUP2 PUSH2 0x1AFA ADD MSTORE DUP2 DUP2 PUSH2 0x1BD6 ADD MSTORE DUP2 DUP2 PUSH2 0x1C99 ADD MSTORE DUP2 DUP2 PUSH2 0x1D9E ADD MSTORE DUP2 DUP2 PUSH2 0x1E89 ADD MSTORE DUP2 DUP2 PUSH2 0x2081 ADD MSTORE DUP2 DUP2 PUSH2 0x2202 ADD MSTORE PUSH2 0x2313 ADD MSTORE PUSH1 0x0 DUP2 DUP2 PUSH2 0xB50 ADD MSTORE DUP2 DUP2 PUSH2 0xC00 ADD MSTORE DUP2 DUP2 PUSH2 0xEDC ADD MSTORE DUP2 DUP2 PUSH2 0xF8C ADD MSTORE PUSH2 0x10D5 ADD MSTORE PUSH2 0x3964 PUSH1 0x0 RETURN INVALID PUSH1 0x80 PUSH1 0x40 MSTORE PUSH1 0x4 CALLDATASIZE LT PUSH2 0x234 JUMPI PUSH1 0x0 CALLDATALOAD PUSH1 0xE0 SHR DUP1 PUSH4 0x86A8E98A GT PUSH2 0x138 JUMPI DUP1 PUSH4 0xAD3B1D48 GT PUSH2 0xB0 JUMPI DUP1 PUSH4 0xDC893CE4 GT PUSH2 0x7F JUMPI DUP1 PUSH4 0xE564A0E2 GT PUSH2 0x64 JUMPI DUP1 PUSH4 0xE564A0E2 EQ PUSH2 0x6AD JUMPI DUP1 PUSH4 0xF2FDE38B EQ PUSH2 0x6CD JUMPI DUP1 PUSH4 0xF9515962 EQ PUSH2 0x6ED JUMPI PUSH1 0x0 DUP1 REVERT JUMPDEST DUP1 PUSH4 0xDC893CE4 EQ PUSH2 0x66D JUMPI DUP1 PUSH4 0xDF00BB24 EQ PUSH2 0x68D JUMPI PUSH1 0x0 DUP1 REVERT JUMPDEST DUP1 PUSH4 0xAD3B1D48 EQ PUSH2 0x5F7 JUMPI DUP1 PUSH4 0xBCB39621 EQ PUSH2 0x617 JUMPI DUP1 PUSH4 0xD14A5C71 EQ PUSH2 0x62D JUMPI DUP1 PUSH4 0xD547741F EQ PUSH2 0x64D JUMPI PUSH1 0x0 DUP1 REVERT JUMPDEST DUP1 PUSH4 0x91D14854 GT PUSH2 0x107 JUMPI DUP1 PUSH4 0x9CC7F708 GT PUSH2 0xEC JUMPI DUP1 PUSH4 0x9CC7F708 EQ PUSH2 0x583 JUMPI DUP1 PUSH4 0x9D70B005 EQ PUSH2 0x5A3 JUMPI DUP1 PUSH4 0xA3B0B5A3 EQ PUSH2 0x5C3 JUMPI PUSH1 0x0 DUP1 REVERT JUMPDEST DUP1 PUSH4 0x91D14854 EQ PUSH2 0x543 JUMPI DUP1 PUSH4 0x99D342AC EQ PUSH2 0x563 JUMPI PUSH1 0x0 DUP1 REVERT JUMPDEST DUP1 PUSH4 0x86A8E98A EQ PUSH2 0x4CE JUMPI DUP1 PUSH4 0x8BB9C5BF EQ PUSH2 0x4EE JUMPI DUP1 PUSH4 0x8DA5CB5B EQ PUSH2 0x50E JUMPI DUP1 PUSH4 0x906405A3 EQ PUSH2 0x523 JUMPI PUSH1 0x0 DUP1 REVERT JUMPDEST DUP1 PUSH4 0x3F30B00F GT PUSH2 0x1CB JUMPI DUP1 PUSH4 0x52D1902D GT PUSH2 0x19A JUMPI DUP1 PUSH4 0x75B238FC GT PUSH2 0x17F JUMPI DUP1 PUSH4 0x75B238FC EQ PUSH2 0x465 JUMPI DUP1 PUSH4 0x794459BE EQ PUSH2 0x499 JUMPI DUP1 PUSH4 0x8129FC1C EQ PUSH2 0x4B9 JUMPI PUSH1 0x0 DUP1 REVERT JUMPDEST DUP1 PUSH4 0x52D1902D EQ PUSH2 0x43B JUMPI DUP1 PUSH4 0x5CD8A76B EQ PUSH2 0x450 JUMPI PUSH1 0x0 DUP1 REVERT JUMPDEST DUP1 PUSH4 0x3F30B00F EQ PUSH2 0x38A JUMPI DUP1 PUSH4 0x4529CC1B EQ PUSH2 0x3AA JUMPI DUP1 PUSH4 0x4F1EF286 EQ PUSH2 0x3EA JUMPI DUP1 PUSH4 0x51955DFC EQ PUSH2 0x3FD JUMPI PUSH1 0x0 DUP1 REVERT JUMPDEST DUP1 PUSH4 0x2F2FF15D GT PUSH2 0x207 JUMPI DUP1 PUSH4 0x2F2FF15D EQ PUSH2 0x314 JUMPI DUP1 PUSH4 0x3659CFE6 EQ PUSH2 0x334 JUMPI DUP1 PUSH4 0x3C6BB436 EQ PUSH2 0x354 JUMPI DUP1 PUSH4 0x3D4197F0 EQ PUSH2 0x36A JUMPI PUSH1 0x0 DUP1 REVERT JUMPDEST DUP1 PUSH4 0x98B6419 EQ PUSH2 0x239 JUMPI DUP1 PUSH4 0x141A468C EQ PUSH2 0x26C JUMPI DUP1 PUSH4 0x18EE89F0 EQ PUSH2 0x299 JUMPI DUP1 PUSH4 0x2B48DC72 EQ PUSH2 0x2BB JUMPI JUMPDEST PUSH1 0x0 DUP1 REVERT JUMPDEST CALLVALUE DUP1 ISZERO PUSH2 0x245 JUMPI PUSH1 0x0 DUP1 REVERT JUMPDEST POP PUSH2 0x259 PUSH2 0x254 CALLDATASIZE PUSH1 0x4 PUSH2 0x31E8 JUMP JUMPDEST PUSH2 0x71D JUMP JUMPDEST PUSH1 0x40 MLOAD SWAP1 DUP2 MSTORE PUSH1 0x20 ADD JUMPDEST PUSH1 0x40 MLOAD DUP1 SWAP2 SUB SWAP1 RETURN JUMPDEST CALLVALUE DUP1 ISZERO PUSH2 0x278 JUMPI PUSH1 0x0 DUP1 REVERT JUMPDEST POP PUSH2 0x259 PUSH2 0x287 CALLDATASIZE PUSH1 0x4 PUSH2 0x323B JUMP JUMPDEST PUSH1 0x68 PUSH1 0x20 MSTORE PUSH1 0x0 SWAP1 DUP2 MSTORE PUSH1 0x40 SWAP1 KECCAK256 SLOAD DUP2 JUMP JUMPDEST CALLVALUE DUP1 ISZERO PUSH2 0x2A5 JUMPI PUSH1 0x0 DUP1 REVERT JUMPDEST POP PUSH2 0x2B9 PUSH2 0x2B4 CALLDATASIZE PUSH1 0x4 PUSH2 0x3254 JUMP JUMPDEST PUSH2 0x8A5 JUMP JUMPDEST STOP JUMPDEST CALLVALUE DUP1 ISZERO PUSH2 0x2C7 JUMPI PUSH1 0x0 DUP1 REVERT JUMPDEST POP PUSH2 0x2EF PUSH32 0x0 DUP2 JUMP JUMPDEST PUSH1 0x40 MLOAD PUSH20 0xFFFFFFFFFFFFFFFFFFFFFFFFFFFFFFFFFFFFFFFF SWAP1 SWAP2 AND DUP2 MSTORE PUSH1 0x20 ADD PUSH2 0x263 JUMP JUMPDEST CALLVALUE DUP1 ISZERO PUSH2 0x320 JUMPI PUSH1 0x0 DUP1 REVERT JUMPDEST POP PUSH2 0x2B9 PUSH2 0x32F CALLDATASIZE PUSH1 0x4 PUSH2 0x32B1 JUMP JUMPDEST PUSH2 0xB0B JUMP JUMPDEST CALLVALUE DUP1 ISZERO PUSH2 0x340 JUMPI PUSH1 0x0 DUP1 REVERT JUMPDEST POP PUSH2 0x2B9 PUSH2 0x34F CALLDATASIZE PUSH1 0x4 PUSH2 0x32E1 JUMP JUMPDEST PUSH2 0xB39 JUMP JUMPDEST CALLVALUE DUP1 ISZERO PUSH2 0x360 JUMPI PUSH1 0x0 DUP1 REVERT JUMPDEST POP PUSH2 0x259 PUSH1 0x6A SLOAD DUP2 JUMP JUMPDEST CALLVALUE DUP1 ISZERO PUSH2 0x376 JUMPI PUSH1 0x0 DUP1 REVERT JUMPDEST POP PUSH2 0x2B9 PUSH2 0x385 CALLDATASIZE PUSH1 0x4 PUSH2 0x323B JUMP JUMPDEST PUSH1 0x6A SSTORE JUMP JUMPDEST CALLVALUE DUP1 ISZERO PUSH2 0x396 JUMPI PUSH1 0x0 DUP1 REVERT JUMPDEST POP PUSH2 0x2B9 PUSH2 0x3A5 CALLDATASIZE PUSH1 0x4 PUSH2 0x3305 JUMP JUMPDEST PUSH2 0xD3E JUMP JUMPDEST CALLVALUE DUP1 ISZERO PUSH2 0x3B6 JUMPI PUSH1 0x0 DUP1 REVERT JUMPDEST POP PUSH2 0x3DA PUSH2 0x3C5 CALLDATASIZE PUSH1 0x4 PUSH2 0x323B JUMP JUMPDEST PUSH1 0x66 PUSH1 0x20 MSTORE PUSH1 0x0 SWAP1 DUP2 MSTORE PUSH1 0x40 SWAP1 KECCAK256 SLOAD PUSH1 0xFF AND DUP2 JUMP JUMPDEST PUSH1 0x40 MLOAD SWAP1 ISZERO ISZERO DUP2 MSTORE PUSH1 0x20 ADD PUSH2 0x263 JUMP JUMPDEST PUSH2 0x2B9 PUSH2 0x3F8 CALLDATASIZE PUSH1 0x4 PUSH2 0x33A9 JUMP JUMPDEST PUSH2 0xEC5 JUMP JUMPDEST CALLVALUE DUP1 ISZERO PUSH2 0x409 JUMPI PUSH1 0x0 DUP1 REVERT JUMPDEST POP PUSH2 0x259 PUSH2 0x418 CALLDATASIZE PUSH1 0x4 PUSH2 0x348B JUMP JUMPDEST PUSH1 0x67 PUSH1 0x20 SWAP1 DUP2 MSTORE PUSH1 0x0 SWAP4 DUP5 MSTORE PUSH1 0x40 DUP1 DUP6 KECCAK256 DUP3 MSTORE SWAP3 DUP5 MSTORE DUP3 DUP5 KECCAK256 SWAP1 MSTORE DUP3 MSTORE SWAP1 KECCAK256 SLOAD DUP2 JUMP JUMPDEST CALLVALUE DUP1 ISZERO PUSH2 0x447 JUMPI PUSH1 0x0 DUP1 REVERT JUMPDEST POP PUSH2 0x259 PUSH2 0x10BB JUMP JUMPDEST CALLVALUE DUP1 ISZERO PUSH2 0x45C JUMPI PUSH1 0x0 DUP1 REVERT JUMPDEST POP PUSH2 0x2B9 PUSH2 0x11A7 JUMP JUMPDEST CALLVALUE DUP1 ISZERO PUSH2 0x471 JUMPI PUSH1 0x0 DUP1 REVERT JUMPDEST POP PUSH2 0x259 PUSH32 0xA49807205CE4D355092EF5A8A18F56E8913CF4A201FBE287825B095693C21775 DUP2 JUMP JUMPDEST CALLVALUE DUP1 ISZERO PUSH2 0x4A5 JUMPI PUSH1 0x0 DUP1 REVERT JUMPDEST POP PUSH2 0x259 PUSH2 0x4B4 CALLDATASIZE PUSH1 0x4 PUSH2 0x34B7 JUMP JUMPDEST PUSH2 0x12E2 JUMP JUMPDEST CALLVALUE DUP1 ISZERO PUSH2 0x4C5 JUMPI PUSH1 0x0 DUP1 REVERT JUMPDEST POP PUSH2 0x2B9 PUSH2 0x146A JUMP JUMPDEST CALLVALUE DUP1 ISZERO PUSH2 0x4DA JUMPI PUSH1 0x0 DUP1 REVERT JUMPDEST POP PUSH2 0x2B9 PUSH2 0x4E9 CALLDATASIZE PUSH1 0x4 PUSH2 0x323B JUMP JUMPDEST PUSH2 0x1607 JUMP JUMPDEST CALLVALUE DUP1 ISZERO PUSH2 0x4FA JUMPI PUSH1 0x0 DUP1 REVERT JUMPDEST POP PUSH2 0x2B9 PUSH2 0x509 CALLDATASIZE PUSH1 0x4 PUSH2 0x323B JUMP JUMPDEST PUSH2 0x16EB JUMP JUMPDEST CALLVALUE DUP1 ISZERO PUSH2 0x51A JUMPI PUSH1 0x0 DUP1 REVERT JUMPDEST POP PUSH2 0x2EF PUSH2 0x16FF JUMP JUMPDEST CALLVALUE DUP1 ISZERO PUSH2 0x52F JUMPI PUSH1 0x0 DUP1 REVERT JUMPDEST POP PUSH2 0x2B9 PUSH2 0x53E CALLDATASIZE PUSH1 0x4 PUSH2 0x3305 JUMP JUMPDEST PUSH2 0x172B JUMP JUMPDEST CALLVALUE DUP1 ISZERO PUSH2 0x54F JUMPI PUSH1 0x0 DUP1 REVERT JUMPDEST POP PUSH2 0x3DA PUSH2 0x55E CALLDATASIZE PUSH1 0x4 PUSH2 0x32B1 JUMP JUMPDEST PUSH2 0x18B5 JUMP JUMPDEST CALLVALUE DUP1 ISZERO PUSH2 0x56F JUMPI PUSH1 0x0 DUP1 REVERT JUMPDEST POP PUSH2 0x2B9 PUSH2 0x57E CALLDATASIZE PUSH1 0x4 PUSH2 0x3519 JUMP JUMPDEST PUSH2 0x1902 JUMP JUMPDEST CALLVALUE DUP1 ISZERO PUSH2 0x58F JUMPI PUSH1 0x0 DUP1 REVERT JUMPDEST POP PUSH2 0x259 PUSH2 0x59E CALLDATASIZE PUSH1 0x4 PUSH2 0x323B JUMP JUMPDEST PUSH2 0x19D7 JUMP JUMPDEST CALLVALUE DUP1 ISZERO PUSH2 0x5AF JUMPI PUSH1 0x0 DUP1 REVERT JUMPDEST POP PUSH2 0x2B9 PUSH2 0x5BE CALLDATASIZE PUSH1 0x4 PUSH2 0x359C JUMP JUMPDEST PUSH2 0x1ABA JUMP JUMPDEST CALLVALUE DUP1 ISZERO PUSH2 0x5CF JUMPI PUSH1 0x0 DUP1 REVERT JUMPDEST POP PUSH2 0x259 PUSH32 0x8F4F2DA22E8AC8F11E15F9FC141CDDBB5DEEA8800186560ABB6E68C5496619A9 DUP2 JUMP JUMPDEST CALLVALUE DUP1 ISZERO PUSH2 0x603 JUMPI PUSH1 0x0 DUP1 REVERT JUMPDEST POP PUSH2 0x259 PUSH2 0x612 CALLDATASIZE PUSH1 0x4 PUSH2 0x360A JUMP JUMPDEST PUSH2 0x1B8D JUMP JUMPDEST CALLVALUE DUP1 ISZERO PUSH2 0x623 JUMPI PUSH1 0x0 DUP1 REVERT JUMPDEST POP PUSH2 0x259 PUSH1 0x65 SLOAD DUP2 JUMP JUMPDEST CALLVALUE DUP1 ISZERO PUSH2 0x639 JUMPI PUSH1 0x0 DUP1 REVERT JUMPDEST POP PUSH2 0x2B9 PUSH2 0x648 CALLDATASIZE PUSH1 0x4 PUSH2 0x348B JUMP JUMPDEST PUSH2 0x1C67 JUMP JUMPDEST CALLVALUE DUP1 ISZERO PUSH2 0x659 JUMPI PUSH1 0x0 DUP1 REVERT JUMPDEST POP PUSH2 0x2B9 PUSH2 0x668 CALLDATASIZE PUSH1 0x4 PUSH2 0x32B1 JUMP JUMPDEST PUSH2 0x1E34 JUMP JUMPDEST CALLVALUE DUP1 ISZERO PUSH2 0x679 JUMPI PUSH1 0x0 DUP1 REVERT JUMPDEST POP PUSH2 0x2B9 PUSH2 0x688 CALLDATASIZE PUSH1 0x4 PUSH2 0x362C JUMP JUMPDEST PUSH2 0x1E57 JUMP JUMPDEST CALLVALUE DUP1 ISZERO PUSH2 0x699 JUMPI PUSH1 0x0 DUP1 REVERT JUMPDEST POP PUSH2 0x259 PUSH2 0x6A8 CALLDATASIZE PUSH1 0x4 PUSH2 0x348B JUMP JUMPDEST PUSH2 0x21B9 JUMP JUMPDEST CALLVALUE DUP1 ISZERO PUSH2 0x6B9 JUMPI PUSH1 0x0 DUP1 REVERT JUMPDEST POP PUSH2 0x2B9 PUSH2 0x6C8 CALLDATASIZE PUSH1 0x4 PUSH2 0x367D JUMP JUMPDEST PUSH2 0x22D3 JUMP JUMPDEST CALLVALUE DUP1 ISZERO PUSH2 0x6D9 JUMPI PUSH1 0x0 DUP1 REVERT JUMPDEST POP PUSH2 0x2B9 PUSH2 0x6E8 CALLDATASIZE PUSH1 0x4 PUSH2 0x32E1 JUMP JUMPDEST PUSH2 0x23A2 JUMP JUMPDEST CALLVALUE DUP1 ISZERO PUSH2 0x6F9 JUMPI PUSH1 0x0 DUP1 REVERT JUMPDEST POP PUSH2 0x3DA PUSH2 0x708 CALLDATASIZE PUSH1 0x4 PUSH2 0x323B JUMP JUMPDEST PUSH1 0x69 PUSH1 0x20 MSTORE PUSH1 0x0 SWAP1 DUP2 MSTORE PUSH1 0x40 SWAP1 KECCAK256 SLOAD PUSH1 0xFF AND DUP2 JUMP JUMPDEST PUSH1 0x0 DUP1 PUSH32 0x0 PUSH20 0xFFFFFFFFFFFFFFFFFFFFFFFFFFFFFFFFFFFFFFFF AND PUSH4 0xCAD6B901 DUP6 DUP6 DUP9 PUSH1 0x40 MLOAD DUP5 PUSH4 0xFFFFFFFF AND PUSH1 0xE0 SHL DUP2 MSTORE PUSH1 0x4 ADD PUSH2 0x77D SWAP4 SWAP3 SWAP2 SWAP1 PUSH2 0x36DB JUMP JUMPDEST PUSH1 0x20 PUSH1 0x40 MLOAD DUP1 DUP4 SUB DUP2 DUP7 GAS STATICCALL ISZERO DUP1 ISZERO PUSH2 0x79A JUMPI RETURNDATASIZE PUSH1 0x0 DUP1 RETURNDATACOPY RETURNDATASIZE PUSH1 0x0 REVERT JUMPDEST POP POP POP POP PUSH1 0x40 MLOAD RETURNDATASIZE PUSH1 0x1F NOT PUSH1 0x1F DUP3 ADD AND DUP3 ADD DUP1 PUSH1 0x40 MSTORE POP DUP2 ADD SWAP1 PUSH2 0x7BE SWAP2 SWAP1 PUSH2 0x3732 JUMP JUMPDEST PUSH1 0x40 MLOAD PUSH32 0xA9735F9400000000000000000000000000000000000000000000000000000000 DUP2 MSTORE PUSH1 0x4 DUP2 ADD DUP3 SWAP1 MSTORE SWAP1 SWAP2 POP PUSH1 0x0 SWAP1 PUSH20 0xFFFFFFFFFFFFFFFFFFFFFFFFFFFFFFFFFFFFFFFF PUSH32 0x0 AND SWAP1 PUSH4 0xA9735F94 SWAP1 PUSH1 0x24 ADD PUSH1 0x20 PUSH1 0x40 MLOAD DUP1 DUP4 SUB DUP2 DUP7 GAS STATICCALL ISZERO DUP1 ISZERO PUSH2 0x84F JUMPI RETURNDATASIZE PUSH1 0x0 DUP1 RETURNDATACOPY RETURNDATASIZE PUSH1 0x0 REVERT JUMPDEST POP POP POP POP PUSH1 0x40 MLOAD RETURNDATASIZE PUSH1 0x1F NOT PUSH1 0x1F DUP3 ADD AND DUP3 ADD DUP1 PUSH1 0x40 MSTORE POP DUP2 ADD SWAP1 PUSH2 0x873 SWAP2 SWAP1 PUSH2 0x3732 JUMP JUMPDEST PUSH1 0x0 DUP9 DUP2 MSTORE PUSH1 0x67 PUSH1 0x20 SWAP1 DUP2 MSTORE PUSH1 0x40 DUP1 DUP4 KECCAK256 SWAP6 DUP4 MSTORE SWAP5 DUP2 MSTORE DUP5 DUP3 KECCAK256 SWAP3 DUP3 MSTORE SWAP2 SWAP1 SWAP2 MSTORE SWAP2 SWAP1 SWAP2 KECCAK256 SLOAD SWAP2 POP POP JUMPDEST SWAP5 SWAP4 POP POP POP POP JUMP JUMPDEST PUSH2 0x8DA PUSH32 0x8F4F2DA22E8AC8F11E15F9FC141CDDBB5DEEA8800186560ABB6E68C5496619A9 CALLER JUMPDEST PUSH2 0x8D3 PUSH2 0x23B6 JUMP JUMPDEST SWAP2 SWAP1 PUSH2 0x23E4 JUMP JUMPDEST PUSH1 0x40 MLOAD PUSH32 0x6352211E00000000000000000000000000000000000000000000000000000000 DUP2 MSTORE PUSH1 0x4 DUP2 ADD DUP6 SWAP1 MSTORE PUSH32 0x0 PUSH20 0xFFFFFFFFFFFFFFFFFFFFFFFFFFFFFFFFFFFFFFFF AND SWAP1 PUSH4 0x6352211E SWAP1 PUSH1 0x24 ADD PUSH1 0x20 PUSH1 0x40 MLOAD DUP1 DUP4 SUB DUP2 DUP7 GAS STATICCALL ISZERO DUP1 ISZERO PUSH2 0x965 JUMPI RETURNDATASIZE PUSH1 0x0 DUP1 RETURNDATACOPY RETURNDATASIZE PUSH1 0x0 REVERT JUMPDEST POP POP POP POP PUSH1 0x40 MLOAD RETURNDATASIZE PUSH1 0x1F NOT PUSH1 0x1F DUP3 ADD AND DUP3 ADD DUP1 PUSH1 0x40 MSTORE POP DUP2 ADD SWAP1 PUSH2 0x989 SWAP2 SWAP1 PUSH2 0x374B JUMP JUMPDEST POP PUSH1 0x40 MLOAD PUSH32 0xA9735F9400000000000000000000000000000000000000000000000000000000 DUP2 MSTORE PUSH1 0x4 DUP2 ADD DUP6 SWAP1 MSTORE PUSH1 0x0 SWAP1 PUSH32 0x0 PUSH20 0xFFFFFFFFFFFFFFFFFFFFFFFFFFFFFFFFFFFFFFFF AND SWAP1 PUSH4 0xA9735F94 SWAP1 PUSH1 0x24 ADD PUSH1 0x20 PUSH1 0x40 MLOAD DUP1 DUP4 SUB DUP2 DUP7 GAS STATICCALL ISZERO DUP1 ISZERO PUSH2 0xA18 JUMPI RETURNDATASIZE PUSH1 0x0 DUP1 RETURNDATACOPY RETURNDATASIZE PUSH1 0x0 REVERT JUMPDEST POP POP POP POP PUSH1 0x40 MLOAD RETURNDATASIZE PUSH1 0x1F NOT PUSH1 0x1F DUP3 ADD AND DUP3 ADD DUP1 PUSH1 0x40 MSTORE POP DUP2 ADD SWAP1 PUSH2 0xA3C SWAP2 SWAP1 PUSH2 0x3732 JUMP JUMPDEST SWAP1 POP DUP4 DUP2 EQ PUSH2 0xA86 JUMPI PUSH1 0x40 MLOAD PUSH32 0xB196CC7700000000000000000000000000000000000000000000000000000000 DUP2 MSTORE PUSH1 0x4 DUP2 ADD DUP7 SWAP1 MSTORE PUSH1 0x24 DUP2 ADD DUP6 SWAP1 MSTORE PUSH1 0x44 ADD JUMPDEST PUSH1 0x40 MLOAD DUP1 SWAP2 SUB SWAP1 REVERT JUMPDEST PUSH1 0x0 DUP7 DUP2 MSTORE PUSH1 0x67 PUSH1 0x20 SWAP1 DUP2 MSTORE PUSH1 0x40 DUP1 DUP4 KECCAK256 DUP9 DUP5 MSTORE DUP3 MSTORE DUP1 DUP4 KECCAK256 DUP8 DUP5 MSTORE SWAP1 SWAP2 MSTORE DUP2 KECCAK256 DUP1 SLOAD DUP6 SWAP3 SWAP1 PUSH2 0xAB7 SWAP1 DUP5 SWAP1 PUSH2 0x3797 JUMP JUMPDEST SWAP1 SWAP2 SSTORE POP POP PUSH1 0x40 DUP1 MLOAD DUP7 DUP2 MSTORE PUSH1 0x20 DUP2 ADD DUP7 SWAP1 MSTORE DUP1 DUP3 ADD DUP6 SWAP1 MSTORE SWAP1 MLOAD DUP4 SWAP2 DUP9 SWAP2 CALLER SWAP2 PUSH32 0x9092BF6BD1CF7DB4FCF41AEDC7C0333B51C57F5B80B429BC3D9CAA5587C6AD82 SWAP2 SWAP1 DUP2 SWAP1 SUB PUSH1 0x60 ADD SWAP1 LOG4 POP POP POP POP POP POP JUMP JUMPDEST CALLER PUSH2 0xB1E DUP2 PUSH2 0xB18 PUSH2 0x246A JUMP JUMPDEST SWAP1 PUSH2 0x2498 JUMP JUMPDEST PUSH2 0xB34 DUP4 DUP4 DUP4 PUSH2 0xB2C PUSH2 0x23B6 JUMP JUMPDEST SWAP3 SWAP2 SWAP1 PUSH2 0x2503 JUMP JUMPDEST POP POP POP JUMP JUMPDEST PUSH20 0xFFFFFFFFFFFFFFFFFFFFFFFFFFFFFFFFFFFFFFFF PUSH32 0x0 AND ADDRESS SUB PUSH2 0xBFE JUMPI PUSH1 0x40 MLOAD PUSH32 0x8C379A000000000000000000000000000000000000000000000000000000000 DUP2 MSTORE PUSH1 0x20 PUSH1 0x4 DUP3 ADD MSTORE PUSH1 0x2C PUSH1 0x24 DUP3 ADD MSTORE PUSH32 0x46756E6374696F6E206D7573742062652063616C6C6564207468726F75676820 PUSH1 0x44 DUP3 ADD MSTORE PUSH32 0x64656C656761746563616C6C0000000000000000000000000000000000000000 PUSH1 0x64 DUP3 ADD MSTORE PUSH1 0x84 ADD PUSH2 0xA7D JUMP JUMPDEST PUSH32 0x0 PUSH20 0xFFFFFFFFFFFFFFFFFFFFFFFFFFFFFFFFFFFFFFFF AND PUSH2 0xC73 PUSH32 0x360894A13BA1A3210667C828492DB98DCA3E2076CC3735A920A3CA505D382BBC SLOAD PUSH20 0xFFFFFFFFFFFFFFFFFFFFFFFFFFFFFFFFFFFFFFFF AND SWAP1 JUMP JUMPDEST PUSH20 0xFFFFFFFFFFFFFFFFFFFFFFFFFFFFFFFFFFFFFFFF AND EQ PUSH2 0xD16 JUMPI PUSH1 0x40 MLOAD PUSH32 0x8C379A000000000000000000000000000000000000000000000000000000000 DUP2 MSTORE PUSH1 0x20 PUSH1 0x4 DUP3 ADD MSTORE PUSH1 0x2C PUSH1 0x24 DUP3 ADD MSTORE PUSH32 0x46756E6374696F6E206D7573742062652063616C6C6564207468726F75676820 PUSH1 0x44 DUP3 ADD MSTORE PUSH32 0x6163746976652070726F78790000000000000000000000000000000000000000 PUSH1 0x64 DUP3 ADD MSTORE PUSH1 0x84 ADD PUSH2 0xA7D JUMP JUMPDEST PUSH2 0xD1F DUP2 PUSH2 0x25DA JUMP JUMPDEST PUSH1 0x40 DUP1 MLOAD PUSH1 0x0 DUP1 DUP3 MSTORE PUSH1 0x20 DUP3 ADD SWAP1 SWAP3 MSTORE PUSH2 0xD3B SWAP2 DUP4 SWAP2 SWAP1 PUSH2 0x25E6 JUMP JUMPDEST POP JUMP JUMPDEST PUSH2 0xD68 PUSH32 0xA49807205CE4D355092EF5A8A18F56E8913CF4A201FBE287825B095693C21775 CALLER PUSH2 0x8CB JUMP JUMPDEST DUP1 PUSH2 0xD9F JUMPI PUSH1 0x40 MLOAD PUSH32 0x3FB4608600000000000000000000000000000000000000000000000000000000 DUP2 MSTORE PUSH1 0x4 ADD PUSH1 0x40 MLOAD DUP1 SWAP2 SUB SWAP1 REVERT JUMPDEST PUSH1 0x0 JUMPDEST DUP2 DUP2 LT ISZERO PUSH2 0xE87 JUMPI PUSH1 0x69 PUSH1 0x0 DUP5 DUP5 DUP5 DUP2 DUP2 LT PUSH2 0xDC0 JUMPI PUSH2 0xDC0 PUSH2 0x37AA JUMP JUMPDEST PUSH1 0x20 SWAP1 DUP2 MUL SWAP3 SWAP1 SWAP3 ADD CALLDATALOAD DUP4 MSTORE POP DUP2 ADD SWAP2 SWAP1 SWAP2 MSTORE PUSH1 0x40 ADD PUSH1 0x0 KECCAK256 SLOAD PUSH1 0xFF AND ISZERO PUSH2 0xE30 JUMPI DUP3 DUP3 DUP3 DUP2 DUP2 LT PUSH2 0xDF4 JUMPI PUSH2 0xDF4 PUSH2 0x37AA JUMP JUMPDEST SWAP1 POP PUSH1 0x20 MUL ADD CALLDATALOAD PUSH1 0x40 MLOAD PUSH32 0xB642124200000000000000000000000000000000000000000000000000000000 DUP2 MSTORE PUSH1 0x4 ADD PUSH2 0xA7D SWAP2 DUP2 MSTORE PUSH1 0x20 ADD SWAP1 JUMP JUMPDEST PUSH1 0x1 PUSH1 0x69 PUSH1 0x0 DUP6 DUP6 DUP6 DUP2 DUP2 LT PUSH2 0xE48 JUMPI PUSH2 0xE48 PUSH2 0x37AA JUMP JUMPDEST SWAP1 POP PUSH1 0x20 MUL ADD CALLDATALOAD DUP2 MSTORE PUSH1 0x20 ADD SWAP1 DUP2 MSTORE PUSH1 0x20 ADD PUSH1 0x0 KECCAK256 PUSH1 0x0 PUSH2 0x100 EXP DUP2 SLOAD DUP2 PUSH1 0xFF MUL NOT AND SWAP1 DUP4 ISZERO ISZERO MUL OR SWAP1 SSTORE POP DUP1 DUP1 PUSH2 0xE7F SWAP1 PUSH2 0x37D9 JUMP JUMPDEST SWAP2 POP POP PUSH2 0xDA2 JUMP JUMPDEST POP PUSH32 0xD8C56A8918EC09C2FE3C4D9FCC00ECE66DF217A1AB3AD768DD0A71620DA5B4E DUP3 DUP3 PUSH1 0x40 MLOAD PUSH2 0xEB9 SWAP3 SWAP2 SWAP1 PUSH2 0x3811 JUMP JUMPDEST PUSH1 0x40 MLOAD DUP1 SWAP2 SUB SWAP1 LOG1 POP POP JUMP JUMPDEST PUSH20 0xFFFFFFFFFFFFFFFFFFFFFFFFFFFFFFFFFFFFFFFF PUSH32 0x0 AND ADDRESS SUB PUSH2 0xF8A JUMPI PUSH1 0x40 MLOAD PUSH32 0x8C379A000000000000000000000000000000000000000000000000000000000 DUP2 MSTORE PUSH1 0x20 PUSH1 0x4 DUP3 ADD MSTORE PUSH1 0x2C PUSH1 0x24 DUP3 ADD MSTORE PUSH32 0x46756E6374696F6E206D7573742062652063616C6C6564207468726F75676820 PUSH1 0x44 DUP3 ADD MSTORE PUSH32 0x64656C656761746563616C6C0000000000000000000000000000000000000000 PUSH1 0x64 DUP3 ADD MSTORE PUSH1 0x84 ADD PUSH2 0xA7D JUMP JUMPDEST PUSH32 0x0 PUSH20 0xFFFFFFFFFFFFFFFFFFFFFFFFFFFFFFFFFFFFFFFF AND PUSH2 0xFFF PUSH32 0x360894A13BA1A3210667C828492DB98DCA3E2076CC3735A920A3CA505D382BBC SLOAD PUSH20 0xFFFFFFFFFFFFFFFFFFFFFFFFFFFFFFFFFFFFFFFF AND SWAP1 JUMP JUMPDEST PUSH20 0xFFFFFFFFFFFFFFFFFFFFFFFFFFFFFFFFFFFFFFFF AND EQ PUSH2 0x10A2 JUMPI PUSH1 0x40 MLOAD PUSH32 0x8C379A000000000000000000000000000000000000000000000000000000000 DUP2 MSTORE PUSH1 0x20 PUSH1 0x4 DUP3 ADD MSTORE PUSH1 0x2C PUSH1 0x24 DUP3 ADD MSTORE PUSH32 0x46756E6374696F6E206D7573742062652063616C6C6564207468726F75676820 PUSH1 0x44 DUP3 ADD MSTORE PUSH32 0x6163746976652070726F78790000000000000000000000000000000000000000 PUSH1 0x64 DUP3 ADD MSTORE PUSH1 0x84 ADD PUSH2 0xA7D JUMP JUMPDEST PUSH2 0x10AB DUP3 PUSH2 0x25DA JUMP JUMPDEST PUSH2 0x10B7 DUP3 DUP3 PUSH1 0x1 PUSH2 0x25E6 JUMP JUMPDEST POP POP JUMP JUMPDEST PUSH1 0x0 ADDRESS PUSH20 0xFFFFFFFFFFFFFFFFFFFFFFFFFFFFFFFFFFFFFFFF PUSH32 0x0 AND EQ PUSH2 0x1182 JUMPI PUSH1 0x40 MLOAD PUSH32 0x8C379A000000000000000000000000000000000000000000000000000000000 DUP2 MSTORE PUSH1 0x20 PUSH1 0x4 DUP3 ADD MSTORE PUSH1 0x38 PUSH1 0x24 DUP3 ADD MSTORE PUSH32 0x555550535570677261646561626C653A206D757374206E6F742062652063616C PUSH1 0x44 DUP3 ADD MSTORE PUSH32 0x6C6564207468726F7567682064656C656761746563616C6C0000000000000000 PUSH1 0x64 DUP3 ADD MSTORE PUSH1 0x84 ADD PUSH2 0xA7D JUMP JUMPDEST POP PUSH32 0x360894A13BA1A3210667C828492DB98DCA3E2076CC3735A920A3CA505D382BBC SWAP1 JUMP JUMPDEST PUSH1 0x0 SLOAD PUSH1 0x2 SWAP1 PUSH2 0x100 SWAP1 DIV PUSH1 0xFF AND ISZERO DUP1 ISZERO PUSH2 0x11C9 JUMPI POP PUSH1 0x0 SLOAD PUSH1 0xFF DUP1 DUP4 AND SWAP2 AND LT JUMPDEST PUSH2 0x1255 JUMPI PUSH1 0x40 MLOAD PUSH32 0x8C379A000000000000000000000000000000000000000000000000000000000 DUP2 MSTORE PUSH1 0x20 PUSH1 0x4 DUP3 ADD MSTORE PUSH1 0x2E PUSH1 0x24 DUP3 ADD MSTORE PUSH32 0x496E697469616C697A61626C653A20636F6E747261637420697320616C726561 PUSH1 0x44 DUP3 ADD MSTORE PUSH32 0x647920696E697469616C697A6564000000000000000000000000000000000000 PUSH1 0x64 DUP3 ADD MSTORE PUSH1 0x84 ADD PUSH2 0xA7D JUMP JUMPDEST PUSH1 0x0 DUP1 SLOAD PUSH32 0xFFFFFFFFFFFFFFFFFFFFFFFFFFFFFFFFFFFFFFFFFFFFFFFFFFFFFFFFFFFF0000 AND PUSH1 0xFF DUP4 AND SWAP1 DUP2 OR PUSH2 0x100 OR PUSH32 0xFFFFFFFFFFFFFFFFFFFFFFFFFFFFFFFFFFFFFFFFFFFFFFFFFFFFFFFFFFFF00FF AND SWAP1 SWAP2 SSTORE PUSH1 0x40 MLOAD SWAP1 DUP2 MSTORE PUSH32 0x7F26B83FF96E1F2B6A682F133852F6798A09C465DA95921460CEFB3847402498 SWAP1 PUSH1 0x20 ADD JUMPDEST PUSH1 0x40 MLOAD DUP1 SWAP2 SUB SWAP1 LOG1 POP JUMP JUMPDEST PUSH1 0x0 DUP1 PUSH32 0x0 PUSH20 0xFFFFFFFFFFFFFFFFFFFFFFFFFFFFFFFFFFFFFFFF AND PUSH4 0xCAD6B901 DUP6 DUP6 DUP9 PUSH1 0x40 MLOAD DUP5 PUSH4 0xFFFFFFFF AND PUSH1 0xE0 SHL DUP2 MSTORE PUSH1 0x4 ADD PUSH2 0x1342 SWAP4 SWAP3 SWAP2 SWAP1 PUSH2 0x36DB JUMP JUMPDEST PUSH1 0x20 PUSH1 0x40 MLOAD DUP1 DUP4 SUB DUP2 DUP7 GAS STATICCALL ISZERO DUP1 ISZERO PUSH2 0x135F JUMPI RETURNDATASIZE PUSH1 0x0 DUP1 RETURNDATACOPY RETURNDATASIZE PUSH1 0x0 REVERT JUMPDEST POP POP POP POP PUSH1 0x40 MLOAD RETURNDATASIZE PUSH1 0x1F NOT PUSH1 0x1F DUP3 ADD AND DUP3 ADD DUP1 PUSH1 0x40 MSTORE POP DUP2 ADD SWAP1 PUSH2 0x1383 SWAP2 SWAP1 PUSH2 0x3732 JUMP JUMPDEST PUSH1 0x40 MLOAD PUSH32 0xA9735F9400000000000000000000000000000000000000000000000000000000 DUP2 MSTORE PUSH1 0x4 DUP2 ADD DUP3 SWAP1 MSTORE SWAP1 SWAP2 POP PUSH1 0x0 SWAP1 PUSH20 0xFFFFFFFFFFFFFFFFFFFFFFFFFFFFFFFFFFFFFFFF PUSH32 0x0 AND SWAP1 PUSH4 0xA9735F94 SWAP1 PUSH1 0x24 ADD PUSH1 0x20 PUSH1 0x40 MLOAD DUP1 DUP4 SUB DUP2 DUP7 GAS STATICCALL ISZERO DUP1 ISZERO PUSH2 0x1414 JUMPI RETURNDATASIZE PUSH1 0x0 DUP1 RETURNDATACOPY RETURNDATASIZE PUSH1 0x0 REVERT JUMPDEST POP POP POP POP PUSH1 0x40 MLOAD RETURNDATASIZE PUSH1 0x1F NOT PUSH1 0x1F DUP3 ADD AND DUP3 ADD DUP1 PUSH1 0x40 MSTORE POP DUP2 ADD SWAP1 PUSH2 0x1438 SWAP2 SWAP1 PUSH2 0x3732 JUMP JUMPDEST PUSH1 0x65 SLOAD PUSH1 0x0 SWAP1 DUP2 MSTORE PUSH1 0x67 PUSH1 0x20 SWAP1 DUP2 MSTORE PUSH1 0x40 DUP1 DUP4 KECCAK256 SWAP6 DUP4 MSTORE SWAP5 DUP2 MSTORE DUP5 DUP3 KECCAK256 SWAP3 DUP3 MSTORE SWAP2 SWAP1 SWAP2 MSTORE SWAP2 SWAP1 SWAP2 KECCAK256 SLOAD SWAP6 SWAP5 POP POP POP POP POP JUMP JUMPDEST PUSH1 0x0 SLOAD PUSH2 0x100 SWAP1 DIV PUSH1 0xFF AND ISZERO DUP1 DUP1 ISZERO PUSH2 0x148A JUMPI POP PUSH1 0x0 SLOAD PUSH1 0x1 PUSH1 0xFF SWAP1 SWAP2 AND LT JUMPDEST DUP1 PUSH2 0x14A4 JUMPI POP ADDRESS EXTCODESIZE ISZERO DUP1 ISZERO PUSH2 0x14A4 JUMPI POP PUSH1 0x0 SLOAD PUSH1 0xFF AND PUSH1 0x1 EQ JUMPDEST PUSH2 0x1530 JUMPI PUSH1 0x40 MLOAD PUSH32 0x8C379A000000000000000000000000000000000000000000000000000000000 DUP2 MSTORE PUSH1 0x20 PUSH1 0x4 DUP3 ADD MSTORE PUSH1 0x2E PUSH1 0x24 DUP3 ADD MSTORE PUSH32 0x496E697469616C697A61626C653A20636F6E747261637420697320616C726561 PUSH1 0x44 DUP3 ADD MSTORE PUSH32 0x647920696E697469616C697A6564000000000000000000000000000000000000 PUSH1 0x64 DUP3 ADD MSTORE PUSH1 0x84 ADD PUSH2 0xA7D JUMP JUMPDEST PUSH1 0x0 DUP1 SLOAD PUSH32 0xFFFFFFFFFFFFFFFFFFFFFFFFFFFFFFFFFFFFFFFFFFFFFFFFFFFFFFFFFFFFFF00 AND PUSH1 0x1 OR SWAP1 SSTORE DUP1 ISZERO PUSH2 0x158E JUMPI PUSH1 0x0 DUP1 SLOAD PUSH32 0xFFFFFFFFFFFFFFFFFFFFFFFFFFFFFFFFFFFFFFFFFFFFFFFFFFFFFFFFFFFF00FF AND PUSH2 0x100 OR SWAP1 SSTORE JUMPDEST PUSH2 0x1596 PUSH2 0x27E5 JUMP JUMPDEST PUSH2 0x15A8 CALLER PUSH2 0x15A2 PUSH2 0x246A JUMP JUMPDEST SWAP1 PUSH2 0x287E JUMP JUMPDEST DUP1 ISZERO PUSH2 0xD3B JUMPI PUSH1 0x0 DUP1 SLOAD PUSH32 0xFFFFFFFFFFFFFFFFFFFFFFFFFFFFFFFFFFFFFFFFFFFFFFFFFFFFFFFFFFFF00FF AND SWAP1 SSTORE PUSH1 0x40 MLOAD PUSH1 0x1 DUP2 MSTORE PUSH32 0x7F26B83FF96E1F2B6A682F133852F6798A09C465DA95921460CEFB3847402498 SWAP1 PUSH1 0x20 ADD PUSH2 0x12D7 JUMP JUMPDEST PUSH2 0x1631 PUSH32 0xA49807205CE4D355092EF5A8A18F56E8913CF4A201FBE287825B095693C21775 CALLER PUSH2 0x8CB JUMP JUMPDEST PUSH1 0x0 DUP2 DUP2 MSTORE PUSH1 0x66 PUSH1 0x20 MSTORE PUSH1 0x40 SWAP1 KECCAK256 SLOAD PUSH1 0xFF AND ISZERO PUSH2 0x167D JUMPI PUSH1 0x40 MLOAD PUSH32 0x796C3E9A00000000000000000000000000000000000000000000000000000000 DUP2 MSTORE PUSH1 0x4 DUP2 ADD DUP3 SWAP1 MSTORE PUSH1 0x24 ADD PUSH2 0xA7D JUMP JUMPDEST PUSH1 0x65 DUP2 SWAP1 SSTORE PUSH1 0x0 DUP2 DUP2 MSTORE PUSH1 0x66 PUSH1 0x20 MSTORE PUSH1 0x40 SWAP1 DUP2 SWAP1 KECCAK256 DUP1 SLOAD PUSH32 0xFFFFFFFFFFFFFFFFFFFFFFFFFFFFFFFFFFFFFFFFFFFFFFFFFFFFFFFFFFFFFF00 AND PUSH1 0x1 OR SWAP1 SSTORE MLOAD PUSH32 0x61228C895F8BA06548597D3E34A23BC0ECB6D1E62A1EB3FA30BE04883A17EF31 SWAP1 PUSH2 0x12D7 SWAP1 DUP4 DUP2 MSTORE PUSH1 0x20 ADD SWAP1 JUMP JUMPDEST PUSH2 0xD3B CALLER DUP3 PUSH2 0x16F8 PUSH2 0x23B6 JUMP JUMPDEST SWAP2 SWAP1 PUSH2 0x28BD JUMP JUMPDEST PUSH1 0x0 PUSH2 0x1726 PUSH2 0x170C PUSH2 0x246A JUMP JUMPDEST SLOAD PUSH20 0xFFFFFFFFFFFFFFFFFFFFFFFFFFFFFFFFFFFFFFFF AND SWAP1 JUMP JUMPDEST SWAP1 POP SWAP1 JUMP JUMPDEST PUSH2 0x1755 PUSH32 0xA49807205CE4D355092EF5A8A18F56E8913CF4A201FBE287825B095693C21775 CALLER PUSH2 0x8CB JUMP JUMPDEST DUP1 PUSH2 0x178C JUMPI PUSH1 0x40 MLOAD PUSH32 0x3FB4608600000000000000000000000000000000000000000000000000000000 DUP2 MSTORE PUSH1 0x4 ADD PUSH1 0x40 MLOAD DUP1 SWAP2 SUB SWAP1 REVERT JUMPDEST PUSH1 0x0 JUMPDEST DUP2 DUP2 LT ISZERO PUSH2 0x1883 JUMPI PUSH1 0x69 PUSH1 0x0 DUP5 DUP5 DUP5 DUP2 DUP2 LT PUSH2 0x17AD JUMPI PUSH2 0x17AD PUSH2 0x37AA JUMP JUMPDEST PUSH1 0x20 SWAP1 DUP2 MUL SWAP3 SWAP1 SWAP3 ADD CALLDATALOAD DUP4 MSTORE POP DUP2 ADD SWAP2 SWAP1 SWAP2 MSTORE PUSH1 0x40 ADD PUSH1 0x0 KECCAK256 SLOAD PUSH1 0xFF AND PUSH2 0x181C JUMPI DUP3 DUP3 DUP3 DUP2 DUP2 LT PUSH2 0x17E0 JUMPI PUSH2 0x17E0 PUSH2 0x37AA JUMP JUMPDEST SWAP1 POP PUSH1 0x20 MUL ADD CALLDATALOAD PUSH1 0x40 MLOAD PUSH32 0xA89513E100000000000000000000000000000000000000000000000000000000 DUP2 MSTORE PUSH1 0x4 ADD PUSH2 0xA7D SWAP2 DUP2 MSTORE PUSH1 0x20 ADD SWAP1 JUMP JUMPDEST PUSH1 0x69 PUSH1 0x0 DUP5 DUP5 DUP5 DUP2 DUP2 LT PUSH2 0x1832 JUMPI PUSH2 0x1832 PUSH2 0x37AA JUMP JUMPDEST PUSH1 0x20 SWAP1 DUP2 MUL SWAP3 SWAP1 SWAP3 ADD CALLDATALOAD DUP4 MSTORE POP DUP2 ADD SWAP2 SWAP1 SWAP2 MSTORE PUSH1 0x40 ADD PUSH1 0x0 KECCAK256 DUP1 SLOAD PUSH32 0xFFFFFFFFFFFFFFFFFFFFFFFFFFFFFFFFFFFFFFFFFFFFFFFFFFFFFFFFFFFFFF00 AND SWAP1 SSTORE DUP1 PUSH2 0x187B DUP2 PUSH2 0x37D9 JUMP JUMPDEST SWAP2 POP POP PUSH2 0x178F JUMP JUMPDEST POP PUSH32 0x5B2C9FCBB27D48BDBFC59F0564B5BA81539309EBF09A940FAD64D171BCFB9FF9 DUP3 DUP3 PUSH1 0x40 MLOAD PUSH2 0xEB9 SWAP3 SWAP2 SWAP1 PUSH2 0x3811 JUMP JUMPDEST PUSH1 0x0 PUSH2 0x18F9 DUP4 DUP4 PUSH2 0x18C4 PUSH2 0x23B6 JUMP JUMPDEST PUSH1 0x0 SWAP3 DUP4 MSTORE PUSH1 0x20 SWAP1 DUP2 MSTORE PUSH1 0x40 DUP1 DUP5 KECCAK256 PUSH20 0xFFFFFFFFFFFFFFFFFFFFFFFFFFFFFFFFFFFFFFFF SWAP1 SWAP4 AND DUP5 MSTORE SWAP2 SWAP1 MSTORE SWAP1 KECCAK256 SLOAD PUSH1 0xFF AND SWAP1 JUMP JUMPDEST SWAP1 POP JUMPDEST SWAP3 SWAP2 POP POP JUMP JUMPDEST PUSH1 0x40 MLOAD PUSH32 0xCAD6B90100000000000000000000000000000000000000000000000000000000 DUP2 MSTORE PUSH1 0x0 SWAP1 PUSH20 0xFFFFFFFFFFFFFFFFFFFFFFFFFFFFFFFFFFFFFFFF PUSH32 0x0 AND SWAP1 PUSH4 0xCAD6B901 SWAP1 PUSH2 0x197B SWAP1 DUP12 SWAP1 DUP12 SWAP1 DUP15 SWAP1 PUSH1 0x4 ADD PUSH2 0x36DB JUMP JUMPDEST PUSH1 0x20 PUSH1 0x40 MLOAD DUP1 DUP4 SUB DUP2 DUP7 GAS STATICCALL ISZERO DUP1 ISZERO PUSH2 0x1998 JUMPI RETURNDATASIZE PUSH1 0x0 DUP1 RETURNDATACOPY RETURNDATASIZE PUSH1 0x0 REVERT JUMPDEST POP POP POP POP PUSH1 0x40 MLOAD RETURNDATASIZE PUSH1 0x1F NOT PUSH1 0x1F DUP3 ADD AND DUP3 ADD DUP1 PUSH1 0x40 MSTORE POP DUP2 ADD SWAP1 PUSH2 0x19BC SWAP2 SWAP1 PUSH2 0x3732 JUMP JUMPDEST SWAP1 POP PUSH2 0x19CC DUP2 DUP8 DUP8 DUP8 DUP8 DUP8 PUSH2 0x1E57 JUMP JUMPDEST POP POP POP POP POP POP POP POP POP JUMP JUMPDEST PUSH1 0x40 MLOAD PUSH32 0xA9735F9400000000000000000000000000000000000000000000000000000000 DUP2 MSTORE PUSH1 0x4 DUP2 ADD DUP3 SWAP1 MSTORE PUSH1 0x0 SWAP1 DUP2 SWAP1 PUSH20 0xFFFFFFFFFFFFFFFFFFFFFFFFFFFFFFFFFFFFFFFF PUSH32 0x0 AND SWAP1 PUSH4 0xA9735F94 SWAP1 PUSH1 0x24 ADD PUSH1 0x20 PUSH1 0x40 MLOAD DUP1 DUP4 SUB DUP2 DUP7 GAS STATICCALL ISZERO DUP1 ISZERO PUSH2 0x1A67 JUMPI RETURNDATASIZE PUSH1 0x0 DUP1 RETURNDATACOPY RETURNDATASIZE PUSH1 0x0 REVERT JUMPDEST POP POP POP POP PUSH1 0x40 MLOAD RETURNDATASIZE PUSH1 0x1F NOT PUSH1 0x1F DUP3 ADD AND DUP3 ADD DUP1 PUSH1 0x40 MSTORE POP DUP2 ADD SWAP1 PUSH2 0x1A8B SWAP2 SWAP1 PUSH2 0x3732 JUMP JUMPDEST PUSH1 0x65 SLOAD PUSH1 0x0 SWAP1 DUP2 MSTORE PUSH1 0x67 PUSH1 0x20 SWAP1 DUP2 MSTORE PUSH1 0x40 DUP1 DUP4 KECCAK256 SWAP7 DUP4 MSTORE SWAP6 DUP2 MSTORE DUP6 DUP3 KECCAK256 SWAP3 DUP3 MSTORE SWAP2 SWAP1 SWAP2 MSTORE SWAP3 SWAP1 SWAP3 KECCAK256 SLOAD SWAP3 SWAP2 POP POP JUMP JUMPDEST PUSH1 0x40 MLOAD PUSH32 0xCAD6B90100000000000000000000000000000000000000000000000000000000 DUP2 MSTORE PUSH1 0x0 SWAP1 PUSH20 0xFFFFFFFFFFFFFFFFFFFFFFFFFFFFFFFFFFFFFFFF PUSH32 0x0 AND SWAP1 PUSH4 0xCAD6B901 SWAP1 PUSH2 0x1B33 SWAP1 DUP10 SWAP1 DUP10 SWAP1 DUP13 SWAP1 PUSH1 0x4 ADD PUSH2 0x36DB JUMP JUMPDEST PUSH1 0x20 PUSH1 0x40 MLOAD DUP1 DUP4 SUB DUP2 DUP7 GAS STATICCALL ISZERO DUP1 ISZERO PUSH2 0x1B50 JUMPI RETURNDATASIZE PUSH1 0x0 DUP1 RETURNDATACOPY RETURNDATASIZE PUSH1 0x0 REVERT JUMPDEST POP POP POP POP PUSH1 0x40 MLOAD RETURNDATASIZE PUSH1 0x1F NOT PUSH1 0x1F DUP3 ADD AND DUP3 ADD DUP1 PUSH1 0x40 MSTORE POP DUP2 ADD SWAP1 PUSH2 0x1B74 SWAP2 SWAP1 PUSH2 0x3732 JUMP JUMPDEST SWAP1 POP PUSH2 0x1B83 DUP9 DUP3 DUP7 DUP7 DUP7 PUSH2 0x8A5 JUMP JUMPDEST POP POP POP POP POP POP POP POP JUMP JUMPDEST PUSH1 0x40 MLOAD PUSH32 0xA9735F9400000000000000000000000000000000000000000000000000000000 DUP2 MSTORE PUSH1 0x4 DUP2 ADD DUP3 SWAP1 MSTORE PUSH1 0x0 SWAP1 DUP2 SWAP1 PUSH20 0xFFFFFFFFFFFFFFFFFFFFFFFFFFFFFFFFFFFFFFFF PUSH32 0x0 AND SWAP1 PUSH4 0xA9735F94 SWAP1 PUSH1 0x24 ADD PUSH1 0x20 PUSH1 0x40 MLOAD DUP1 DUP4 SUB DUP2 DUP7 GAS STATICCALL ISZERO DUP1 ISZERO PUSH2 0x1C1D JUMPI RETURNDATASIZE PUSH1 0x0 DUP1 RETURNDATACOPY RETURNDATASIZE PUSH1 0x0 REVERT JUMPDEST POP POP POP POP PUSH1 0x40 MLOAD RETURNDATASIZE PUSH1 0x1F NOT PUSH1 0x1F DUP3 ADD AND DUP3 ADD DUP1 PUSH1 0x40 MSTORE POP DUP2 ADD SWAP1 PUSH2 0x1C41 SWAP2 SWAP1 PUSH2 0x3732 JUMP JUMPDEST PUSH1 0x0 SWAP5 DUP6 MSTORE PUSH1 0x67 PUSH1 0x20 SWAP1 DUP2 MSTORE PUSH1 0x40 DUP1 DUP8 KECCAK256 SWAP6 DUP8 MSTORE SWAP5 DUP2 MSTORE DUP5 DUP7 KECCAK256 SWAP2 DUP7 MSTORE MSTORE POP POP SWAP1 KECCAK256 SLOAD SWAP1 JUMP JUMPDEST PUSH1 0x40 MLOAD PUSH32 0x6352211E00000000000000000000000000000000000000000000000000000000 DUP2 MSTORE PUSH1 0x4 DUP2 ADD DUP5 SWAP1 MSTORE PUSH1 0x0 SWAP1 PUSH32 0x0 PUSH20 0xFFFFFFFFFFFFFFFFFFFFFFFFFFFFFFFFFFFFFFFF AND SWAP1 PUSH4 0x6352211E SWAP1 PUSH1 0x24 ADD PUSH1 0x20 PUSH1 0x40 MLOAD DUP1 DUP4 SUB DUP2 DUP7 GAS STATICCALL ISZERO DUP1 ISZERO PUSH2 0x1CF5 JUMPI RETURNDATASIZE PUSH1 0x0 DUP1 RETURNDATACOPY RETURNDATASIZE PUSH1 0x0 REVERT JUMPDEST POP POP POP POP PUSH1 0x40 MLOAD RETURNDATASIZE PUSH1 0x1F NOT PUSH1 0x1F DUP3 ADD AND DUP3 ADD DUP1 PUSH1 0x40 MSTORE POP DUP2 ADD SWAP1 PUSH2 0x1D19 SWAP2 SWAP1 PUSH2 0x374B JUMP JUMPDEST SWAP1 POP CALLER PUSH20 0xFFFFFFFFFFFFFFFFFFFFFFFFFFFFFFFFFFFFFFFF DUP3 AND EQ PUSH2 0x1D6C JUMPI PUSH1 0x40 MLOAD PUSH32 0x33FFFF9B00000000000000000000000000000000000000000000000000000000 DUP2 MSTORE CALLER PUSH1 0x4 DUP3 ADD MSTORE PUSH1 0x24 ADD PUSH2 0xA7D JUMP JUMPDEST PUSH1 0x40 MLOAD PUSH32 0xA9735F9400000000000000000000000000000000000000000000000000000000 DUP2 MSTORE PUSH1 0x4 DUP2 ADD DUP6 SWAP1 MSTORE PUSH1 0x0 SWAP1 PUSH32 0x0 PUSH20 0xFFFFFFFFFFFFFFFFFFFFFFFFFFFFFFFFFFFFFFFF AND SWAP1 PUSH4 0xA9735F94 SWAP1 PUSH1 0x24 ADD PUSH1 0x20 PUSH1 0x40 MLOAD DUP1 DUP4 SUB DUP2 DUP7 GAS STATICCALL ISZERO DUP1 ISZERO PUSH2 0x1DFA JUMPI RETURNDATASIZE PUSH1 0x0 DUP1 RETURNDATACOPY RETURNDATASIZE PUSH1 0x0 REVERT JUMPDEST POP POP POP POP PUSH1 0x40 MLOAD RETURNDATASIZE PUSH1 0x1F NOT PUSH1 0x1F DUP3 ADD AND DUP3 ADD DUP1 PUSH1 0x40 MSTORE POP DUP2 ADD SWAP1 PUSH2 0x1E1E SWAP2 SWAP1 PUSH2 0x3732 JUMP JUMPDEST SWAP1 POP PUSH2 0x1E2D DUP6 DUP3 DUP7 DUP7 DUP7 PUSH2 0x2961 JUMP JUMPDEST POP POP POP POP POP JUMP JUMPDEST CALLER PUSH2 0x1E41 DUP2 PUSH2 0xB18 PUSH2 0x246A JUMP JUMPDEST PUSH2 0xB34 DUP4 DUP4 DUP4 PUSH2 0x1E4F PUSH2 0x23B6 JUMP JUMPDEST SWAP3 SWAP2 SWAP1 PUSH2 0x2AB8 JUMP JUMPDEST PUSH1 0x40 MLOAD PUSH32 0xA9735F9400000000000000000000000000000000000000000000000000000000 DUP2 MSTORE PUSH1 0x4 DUP2 ADD DUP8 SWAP1 MSTORE PUSH1 0x0 SWAP1 PUSH32 0x0 PUSH20 0xFFFFFFFFFFFFFFFFFFFFFFFFFFFFFFFFFFFFFFFF AND SWAP1 PUSH4 0xA9735F94 SWAP1 PUSH1 0x24 ADD PUSH1 0x20 PUSH1 0x40 MLOAD DUP1 DUP4 SUB DUP2 DUP7 GAS STATICCALL ISZERO DUP1 ISZERO PUSH2 0x1EE5 JUMPI RETURNDATASIZE PUSH1 0x0 DUP1 RETURNDATACOPY RETURNDATASIZE PUSH1 0x0 REVERT JUMPDEST POP POP POP POP PUSH1 0x40 MLOAD RETURNDATASIZE PUSH1 0x1F NOT PUSH1 0x1F DUP3 ADD AND DUP3 ADD DUP1 PUSH1 0x40 MSTORE POP DUP2 ADD SWAP1 PUSH2 0x1F09 SWAP2 SWAP1 PUSH2 0x3732 JUMP JUMPDEST PUSH1 0x0 DUP9 DUP2 MSTORE PUSH1 0x68 PUSH1 0x20 SWAP1 DUP2 MSTORE PUSH1 0x40 DUP1 DUP4 KECCAK256 SLOAD PUSH1 0x65 SLOAD DUP3 MLOAD DUP1 DUP6 ADD DUP15 SWAP1 MSTORE DUP1 DUP5 ADD DUP8 SWAP1 MSTORE PUSH1 0x60 DUP2 ADD DUP14 SWAP1 MSTORE PUSH1 0x80 DUP2 ADD SWAP2 SWAP1 SWAP2 MSTORE PUSH1 0xA0 DUP2 ADD DUP12 SWAP1 MSTORE PUSH1 0xC0 DUP1 DUP3 ADD SWAP3 SWAP1 SWAP3 MSTORE DUP3 MLOAD DUP1 DUP3 SUB SWAP1 SWAP3 ADD DUP3 MSTORE PUSH1 0xE0 ADD SWAP1 SWAP2 MSTORE DUP1 MLOAD SWAP2 ADD KECCAK256 SWAP2 SWAP3 POP SWAP1 PUSH1 0x40 MLOAD PUSH32 0x19457468657265756D205369676E6564204D6573736167653A0A333200000000 PUSH1 0x20 DUP3 ADD MSTORE PUSH1 0x3C DUP2 ADD DUP3 SWAP1 MSTORE SWAP1 SWAP2 POP PUSH1 0x0 SWAP1 PUSH1 0x5C ADD PUSH1 0x40 DUP1 MLOAD PUSH32 0xFFFFFFFFFFFFFFFFFFFFFFFFFFFFFFFFFFFFFFFFFFFFFFFFFFFFFFFFFFFFFFE0 DUP2 DUP5 SUB ADD DUP2 MSTORE DUP3 DUP3 MSTORE DUP1 MLOAD PUSH1 0x20 SWAP2 DUP3 ADD KECCAK256 PUSH1 0x0 DUP1 DUP6 MSTORE SWAP2 DUP5 ADD DUP1 DUP5 MSTORE DUP2 SWAP1 MSTORE PUSH1 0xFF DUP11 AND SWAP3 DUP5 ADD SWAP3 SWAP1 SWAP3 MSTORE PUSH1 0x60 DUP4 ADD DUP9 SWAP1 MSTORE PUSH1 0x80 DUP4 ADD DUP8 SWAP1 MSTORE SWAP1 SWAP3 POP SWAP1 PUSH1 0x1 SWAP1 PUSH1 0xA0 ADD PUSH1 0x20 PUSH1 0x40 MLOAD PUSH1 0x20 DUP2 SUB SWAP1 DUP1 DUP5 SUB SWAP1 DUP6 GAS STATICCALL ISZERO DUP1 ISZERO PUSH2 0x2026 JUMPI RETURNDATASIZE PUSH1 0x0 DUP1 RETURNDATACOPY RETURNDATASIZE PUSH1 0x0 REVERT JUMPDEST POP POP PUSH1 0x40 MLOAD PUSH32 0xFFFFFFFFFFFFFFFFFFFFFFFFFFFFFFFFFFFFFFFFFFFFFFFFFFFFFFFFFFFFFFE0 DUP2 ADD MLOAD PUSH32 0x6352211E00000000000000000000000000000000000000000000000000000000 DUP3 MSTORE PUSH1 0x4 DUP3 ADD DUP14 SWAP1 MSTORE SWAP3 POP PUSH1 0x0 SWAP2 POP PUSH32 0x0 PUSH20 0xFFFFFFFFFFFFFFFFFFFFFFFFFFFFFFFFFFFFFFFF AND SWAP1 PUSH4 0x6352211E SWAP1 PUSH1 0x24 ADD PUSH1 0x20 PUSH1 0x40 MLOAD DUP1 DUP4 SUB DUP2 DUP7 GAS STATICCALL ISZERO DUP1 ISZERO PUSH2 0x20DD JUMPI RETURNDATASIZE PUSH1 0x0 DUP1 RETURNDATACOPY RETURNDATASIZE PUSH1 0x0 REVERT JUMPDEST POP POP POP POP PUSH1 0x40 MLOAD RETURNDATASIZE PUSH1 0x1F NOT PUSH1 0x1F DUP3 ADD AND DUP3 ADD DUP1 PUSH1 0x40 MSTORE POP DUP2 ADD SWAP1 PUSH2 0x2101 SWAP2 SWAP1 PUSH2 0x374B JUMP JUMPDEST SWAP1 POP DUP1 PUSH20 0xFFFFFFFFFFFFFFFFFFFFFFFFFFFFFFFFFFFFFFFF AND DUP3 PUSH20 0xFFFFFFFFFFFFFFFFFFFFFFFFFFFFFFFFFFFFFFFF AND EQ PUSH2 0x2180 JUMPI PUSH1 0x40 MLOAD PUSH32 0x33FFFF9B00000000000000000000000000000000000000000000000000000000 DUP2 MSTORE PUSH20 0xFFFFFFFFFFFFFFFFFFFFFFFFFFFFFFFFFFFFFFFF DUP4 AND PUSH1 0x4 DUP3 ADD MSTORE PUSH1 0x24 ADD PUSH2 0xA7D JUMP JUMPDEST PUSH2 0x218D DUP12 DUP7 DUP13 DUP13 DUP6 PUSH2 0x2961 JUMP JUMPDEST PUSH1 0x0 DUP12 DUP2 MSTORE PUSH1 0x68 PUSH1 0x20 MSTORE PUSH1 0x40 DUP2 KECCAK256 DUP1 SLOAD SWAP2 PUSH2 0x21A7 DUP4 PUSH2 0x37D9 JUMP JUMPDEST SWAP2 SWAP1 POP SSTORE POP POP POP POP POP POP POP POP POP POP POP POP JUMP JUMPDEST PUSH1 0x40 MLOAD PUSH32 0xA9735F9400000000000000000000000000000000000000000000000000000000 DUP2 MSTORE PUSH1 0x4 DUP2 ADD DUP5 SWAP1 MSTORE PUSH1 0x0 SWAP1 DUP2 SWAP1 PUSH20 0xFFFFFFFFFFFFFFFFFFFFFFFFFFFFFFFFFFFFFFFF PUSH32 0x0 AND SWAP1 PUSH4 0xA9735F94 SWAP1 PUSH1 0x24 ADD PUSH1 0x20 PUSH1 0x40 MLOAD DUP1 DUP4 SUB DUP2 DUP7 GAS STATICCALL ISZERO DUP1 ISZERO PUSH2 0x2249 JUMPI RETURNDATASIZE PUSH1 0x0 DUP1 RETURNDATACOPY RETURNDATASIZE PUSH1 0x0 REVERT JUMPDEST POP POP POP POP PUSH1 0x40 MLOAD RETURNDATASIZE PUSH1 0x1F NOT PUSH1 0x1F DUP3 ADD AND DUP3 ADD DUP1 PUSH1 0x40 MSTORE POP DUP2 ADD SWAP1 PUSH2 0x226D SWAP2 SWAP1 PUSH2 0x3732 JUMP JUMPDEST PUSH1 0x0 DUP7 DUP2 MSTORE PUSH1 0x68 PUSH1 0x20 SWAP1 DUP2 MSTORE PUSH1 0x40 DUP1 DUP4 KECCAK256 SLOAD PUSH1 0x65 SLOAD DUP3 MLOAD DUP1 DUP6 ADD DUP13 SWAP1 MSTORE DUP1 DUP5 ADD DUP8 SWAP1 MSTORE PUSH1 0x60 DUP2 ADD DUP12 SWAP1 MSTORE PUSH1 0x80 DUP2 ADD SWAP2 SWAP1 SWAP2 MSTORE PUSH1 0xA0 DUP2 ADD DUP10 SWAP1 MSTORE PUSH1 0xC0 DUP1 DUP3 ADD SWAP3 SWAP1 SWAP3 MSTORE DUP3 MLOAD DUP1 DUP3 SUB SWAP1 SWAP3 ADD DUP3 MSTORE PUSH1 0xE0 ADD SWAP1 SWAP2 MSTORE DUP1 MLOAD SWAP2 ADD KECCAK256 SWAP2 SWAP3 POP SWAP1 JUMPDEST SWAP7 SWAP6 POP POP POP POP POP POP JUMP JUMPDEST PUSH1 0x40 MLOAD PUSH32 0xCAD6B90100000000000000000000000000000000000000000000000000000000 DUP2 MSTORE PUSH1 0x0 SWAP1 PUSH20 0xFFFFFFFFFFFFFFFFFFFFFFFFFFFFFFFFFFFFFFFF PUSH32 0x0 AND SWAP1 PUSH4 0xCAD6B901 SWAP1 PUSH2 0x234C SWAP1 DUP9 SWAP1 DUP9 SWAP1 DUP12 SWAP1 PUSH1 0x4 ADD PUSH2 0x36DB JUMP JUMPDEST PUSH1 0x20 PUSH1 0x40 MLOAD DUP1 DUP4 SUB DUP2 DUP7 GAS STATICCALL ISZERO DUP1 ISZERO PUSH2 0x2369 JUMPI RETURNDATASIZE PUSH1 0x0 DUP1 RETURNDATACOPY RETURNDATASIZE PUSH1 0x0 REVERT JUMPDEST POP POP POP POP PUSH1 0x40 MLOAD RETURNDATASIZE PUSH1 0x1F NOT PUSH1 0x1F DUP3 ADD AND DUP3 ADD DUP1 PUSH1 0x40 MSTORE POP DUP2 ADD SWAP1 PUSH2 0x238D SWAP2 SWAP1 PUSH2 0x3732 JUMP JUMPDEST SWAP1 POP PUSH2 0x239A DUP2 DUP5 DUP5 PUSH2 0x1C67 JUMP JUMPDEST POP POP POP POP POP POP JUMP JUMPDEST PUSH2 0xD3B CALLER DUP3 PUSH2 0x23AF PUSH2 0x246A JUMP JUMPDEST SWAP2 SWAP1 PUSH2 0x2B82 JUMP JUMPDEST PUSH1 0x0 DUP1 PUSH2 0x18FC PUSH1 0x1 PUSH32 0xC8827D3282AF6F37B64C3E9E6F3AC9DF286AB0BB0FCCD6F8661BF19ADB368B23 PUSH2 0x3863 JUMP JUMPDEST PUSH1 0x0 DUP3 DUP2 MSTORE PUSH1 0x20 DUP5 DUP2 MSTORE PUSH1 0x40 DUP1 DUP4 KECCAK256 PUSH20 0xFFFFFFFFFFFFFFFFFFFFFFFFFFFFFFFFFFFFFFFF DUP6 AND DUP5 MSTORE SWAP1 SWAP2 MSTORE SWAP1 KECCAK256 SLOAD PUSH1 0xFF AND PUSH2 0xB34 JUMPI PUSH1 0x40 MLOAD PUSH32 0x7AA7288200000000000000000000000000000000000000000000000000000000 DUP2 MSTORE PUSH1 0x4 DUP2 ADD DUP4 SWAP1 MSTORE PUSH20 0xFFFFFFFFFFFFFFFFFFFFFFFFFFFFFFFFFFFFFFFF DUP3 AND PUSH1 0x24 DUP3 ADD MSTORE PUSH1 0x44 ADD PUSH2 0xA7D JUMP JUMPDEST PUSH1 0x0 DUP1 PUSH2 0x18FC PUSH1 0x1 PUSH32 0xC9ED16F33AB3A66C84BFD83099CCB2A8845871E2E1C1928F63797152F0FD54CD PUSH2 0x3863 JUMP JUMPDEST DUP2 SLOAD PUSH20 0xFFFFFFFFFFFFFFFFFFFFFFFFFFFFFFFFFFFFFFFF DUP3 DUP2 AND SWAP2 AND EQ PUSH2 0x10B7 JUMPI PUSH1 0x40 MLOAD PUSH32 0x2EF4875E00000000000000000000000000000000000000000000000000000000 DUP2 MSTORE PUSH20 0xFFFFFFFFFFFFFFFFFFFFFFFFFFFFFFFFFFFFFFFF DUP3 AND PUSH1 0x4 DUP3 ADD MSTORE PUSH1 0x24 ADD PUSH2 0xA7D JUMP JUMPDEST PUSH1 0x0 DUP4 DUP2 MSTORE PUSH1 0x20 DUP6 DUP2 MSTORE PUSH1 0x40 DUP1 DUP4 KECCAK256 PUSH20 0xFFFFFFFFFFFFFFFFFFFFFFFFFFFFFFFFFFFFFFFF DUP7 AND DUP5 MSTORE SWAP1 SWAP2 MSTORE SWAP1 KECCAK256 SLOAD PUSH1 0xFF AND PUSH2 0x25D4 JUMPI PUSH1 0x0 DUP4 DUP2 MSTORE PUSH1 0x20 DUP6 DUP2 MSTORE PUSH1 0x40 DUP1 DUP4 KECCAK256 PUSH20 0xFFFFFFFFFFFFFFFFFFFFFFFFFFFFFFFFFFFFFFFF DUP7 DUP2 AND DUP1 DUP7 MSTORE SWAP2 DUP5 MSTORE SWAP4 DUP3 SWAP1 KECCAK256 DUP1 SLOAD PUSH32 0xFFFFFFFFFFFFFFFFFFFFFFFFFFFFFFFFFFFFFFFFFFFFFFFFFFFFFFFFFFFFFF00 AND PUSH1 0x1 OR SWAP1 SSTORE DUP2 MLOAD DUP8 DUP2 MSTORE SWAP3 DUP4 ADD MSTORE SWAP2 DUP4 AND SWAP2 DUP2 ADD SWAP2 SWAP1 SWAP2 MSTORE PUSH32 0x2F8788117E7EFF1D82E926EC794901D17C78024A50270940304540A733656F0D SWAP1 PUSH1 0x60 ADD JUMPDEST PUSH1 0x40 MLOAD DUP1 SWAP2 SUB SWAP1 LOG1 JUMPDEST POP POP POP POP JUMP JUMPDEST PUSH2 0xD3B CALLER PUSH2 0xB18 PUSH2 0x246A JUMP JUMPDEST PUSH32 0x4910FDFA16FED3260ED0E7147F7CC6DA11A60208B5B9406D12A635614FFD9143 SLOAD PUSH1 0xFF AND ISZERO PUSH2 0x2619 JUMPI PUSH2 0xB34 DUP4 PUSH2 0x2C96 JUMP JUMPDEST DUP3 PUSH20 0xFFFFFFFFFFFFFFFFFFFFFFFFFFFFFFFFFFFFFFFF AND PUSH4 0x52D1902D PUSH1 0x40 MLOAD DUP2 PUSH4 0xFFFFFFFF AND PUSH1 0xE0 SHL DUP2 MSTORE PUSH1 0x4 ADD PUSH1 0x20 PUSH1 0x40 MLOAD DUP1 DUP4 SUB DUP2 DUP7 GAS STATICCALL SWAP3 POP POP POP DUP1 ISZERO PUSH2 0x269E JUMPI POP PUSH1 0x40 DUP1 MLOAD PUSH1 0x1F RETURNDATASIZE SWAP1 DUP2 ADD PUSH32 0xFFFFFFFFFFFFFFFFFFFFFFFFFFFFFFFFFFFFFFFFFFFFFFFFFFFFFFFFFFFFFFE0 AND DUP3 ADD SWAP1 SWAP3 MSTORE PUSH2 0x269B SWAP2 DUP2 ADD SWAP1 PUSH2 0x3732 JUMP JUMPDEST PUSH1 0x1 JUMPDEST PUSH2 0x272A JUMPI PUSH1 0x40 MLOAD PUSH32 0x8C379A000000000000000000000000000000000000000000000000000000000 DUP2 MSTORE PUSH1 0x20 PUSH1 0x4 DUP3 ADD MSTORE PUSH1 0x2E PUSH1 0x24 DUP3 ADD MSTORE PUSH32 0x45524331393637557067726164653A206E657720696D706C656D656E74617469 PUSH1 0x44 DUP3 ADD MSTORE PUSH32 0x6F6E206973206E6F742055555053000000000000000000000000000000000000 PUSH1 0x64 DUP3 ADD MSTORE PUSH1 0x84 ADD PUSH2 0xA7D JUMP JUMPDEST PUSH32 0x360894A13BA1A3210667C828492DB98DCA3E2076CC3735A920A3CA505D382BBC DUP2 EQ PUSH2 0x27D9 JUMPI PUSH1 0x40 MLOAD PUSH32 0x8C379A000000000000000000000000000000000000000000000000000000000 DUP2 MSTORE PUSH1 0x20 PUSH1 0x4 DUP3 ADD MSTORE PUSH1 0x29 PUSH1 0x24 DUP3 ADD MSTORE PUSH32 0x45524331393637557067726164653A20756E737570706F727465642070726F78 PUSH1 0x44 DUP3 ADD MSTORE PUSH32 0x6961626C65555549440000000000000000000000000000000000000000000000 PUSH1 0x64 DUP3 ADD MSTORE PUSH1 0x84 ADD PUSH2 0xA7D JUMP JUMPDEST POP PUSH2 0xB34 DUP4 DUP4 DUP4 PUSH2 0x2DA0 JUMP JUMPDEST PUSH1 0x0 SLOAD PUSH2 0x100 SWAP1 DIV PUSH1 0xFF AND PUSH2 0x287C JUMPI PUSH1 0x40 MLOAD PUSH32 0x8C379A000000000000000000000000000000000000000000000000000000000 DUP2 MSTORE PUSH1 0x20 PUSH1 0x4 DUP3 ADD MSTORE PUSH1 0x2B PUSH1 0x24 DUP3 ADD MSTORE PUSH32 0x496E697469616C697A61626C653A20636F6E7472616374206973206E6F742069 PUSH1 0x44 DUP3 ADD MSTORE PUSH32 0x6E697469616C697A696E67000000000000000000000000000000000000000000 PUSH1 0x64 DUP3 ADD MSTORE PUSH1 0x84 ADD PUSH2 0xA7D JUMP JUMPDEST JUMP JUMPDEST PUSH2 0x28B3 PUSH2 0x28AC PUSH1 0x1 PUSH32 0x5B388D90DC1312BA799F321972F13311234FA1163BCABEC7CF66101C4876EB84 PUSH2 0x3863 JUMP JUMPDEST PUSH1 0x1 PUSH2 0x2DC5 JUMP JUMPDEST PUSH2 0x10B7 DUP3 DUP3 PUSH2 0x2E11 JUMP JUMPDEST PUSH2 0x28C8 DUP4 DUP3 DUP5 PUSH2 0x23E4 JUMP JUMPDEST PUSH1 0x0 DUP2 DUP2 MSTORE PUSH1 0x20 DUP5 DUP2 MSTORE PUSH1 0x40 DUP1 DUP4 KECCAK256 PUSH20 0xFFFFFFFFFFFFFFFFFFFFFFFFFFFFFFFFFFFFFFFF DUP7 AND DUP1 DUP6 MSTORE SWAP1 DUP4 MSTORE SWAP3 DUP2 SWAP1 KECCAK256 DUP1 SLOAD PUSH32 0xFFFFFFFFFFFFFFFFFFFFFFFFFFFFFFFFFFFFFFFFFFFFFFFFFFFFFFFFFFFFFF00 AND SWAP1 SSTORE DUP1 MLOAD DUP5 DUP2 MSTORE SWAP2 DUP3 ADD DUP4 SWAP1 MSTORE DUP2 ADD SWAP2 SWAP1 SWAP2 MSTORE PUSH32 0xF6391F5C32D9C69D2A47EA670B442974B53935D1EDC7FD64EB21E047A839171B SWAP1 PUSH1 0x60 ADD PUSH1 0x40 MLOAD DUP1 SWAP2 SUB SWAP1 LOG1 POP POP POP JUMP JUMPDEST PUSH1 0x65 SLOAD PUSH1 0x0 SWAP1 DUP2 MSTORE PUSH1 0x67 PUSH1 0x20 SWAP1 DUP2 MSTORE PUSH1 0x40 DUP1 DUP4 KECCAK256 DUP9 DUP5 MSTORE DUP3 MSTORE DUP1 DUP4 KECCAK256 DUP8 DUP5 MSTORE SWAP1 SWAP2 MSTORE SWAP1 KECCAK256 SLOAD DUP4 GT ISZERO PUSH2 0x29C9 JUMPI PUSH1 0x40 MLOAD PUSH32 0xCF47918100000000000000000000000000000000000000000000000000000000 DUP2 MSTORE PUSH1 0x4 DUP2 ADD DUP7 SWAP1 MSTORE PUSH1 0x24 DUP2 ADD DUP5 SWAP1 MSTORE PUSH1 0x44 ADD PUSH2 0xA7D JUMP JUMPDEST PUSH1 0x0 DUP3 DUP2 MSTORE PUSH1 0x69 PUSH1 0x20 MSTORE PUSH1 0x40 SWAP1 KECCAK256 SLOAD PUSH1 0xFF AND PUSH2 0x2A14 JUMPI PUSH1 0x40 MLOAD PUSH32 0xA89513E100000000000000000000000000000000000000000000000000000000 DUP2 MSTORE PUSH1 0x4 DUP2 ADD DUP4 SWAP1 MSTORE PUSH1 0x24 ADD PUSH2 0xA7D JUMP JUMPDEST PUSH1 0x65 SLOAD PUSH1 0x0 SWAP1 DUP2 MSTORE PUSH1 0x67 PUSH1 0x20 SWAP1 DUP2 MSTORE PUSH1 0x40 DUP1 DUP4 KECCAK256 DUP9 DUP5 MSTORE DUP3 MSTORE DUP1 DUP4 KECCAK256 DUP8 DUP5 MSTORE SWAP1 SWAP2 MSTORE DUP2 KECCAK256 DUP1 SLOAD DUP6 SWAP3 SWAP1 PUSH2 0x2A48 SWAP1 DUP5 SWAP1 PUSH2 0x3863 JUMP JUMPDEST SWAP1 SWAP2 SSTORE POP POP PUSH1 0x65 SLOAD PUSH1 0x40 DUP1 MLOAD CALLER DUP2 MSTORE PUSH1 0x20 DUP2 ADD DUP8 SWAP1 MSTORE DUP1 DUP3 ADD DUP7 SWAP1 MSTORE PUSH20 0xFFFFFFFFFFFFFFFFFFFFFFFFFFFFFFFFFFFFFFFF DUP5 AND PUSH1 0x60 DUP3 ADD MSTORE SWAP1 MLOAD DUP5 SWAP3 SWAP2 DUP9 SWAP2 PUSH32 0xE514533875FBD3F8F396088D636E746599D8B5C3BA77E9CCFA9FC01FF7064601 SWAP2 DUP2 SWAP1 SUB PUSH1 0x80 ADD SWAP1 LOG4 POP POP POP POP POP JUMP JUMPDEST PUSH1 0x0 DUP4 DUP2 MSTORE PUSH1 0x20 DUP6 DUP2 MSTORE PUSH1 0x40 DUP1 DUP4 KECCAK256 PUSH20 0xFFFFFFFFFFFFFFFFFFFFFFFFFFFFFFFFFFFFFFFF DUP7 AND DUP5 MSTORE SWAP1 SWAP2 MSTORE SWAP1 KECCAK256 SLOAD PUSH1 0xFF AND ISZERO PUSH2 0x25D4 JUMPI PUSH1 0x0 DUP4 DUP2 MSTORE PUSH1 0x20 DUP6 DUP2 MSTORE PUSH1 0x40 DUP1 DUP4 KECCAK256 PUSH20 0xFFFFFFFFFFFFFFFFFFFFFFFFFFFFFFFFFFFFFFFF DUP7 DUP2 AND DUP1 DUP7 MSTORE SWAP2 DUP5 MSTORE SWAP4 DUP3 SWAP1 KECCAK256 DUP1 SLOAD PUSH32 0xFFFFFFFFFFFFFFFFFFFFFFFFFFFFFFFFFFFFFFFFFFFFFFFFFFFFFFFFFFFFFF00 AND SWAP1 SSTORE DUP2 MLOAD DUP8 DUP2 MSTORE SWAP3 DUP4 ADD MSTORE SWAP2 DUP4 AND SWAP2 DUP2 ADD SWAP2 SWAP1 SWAP2 MSTORE PUSH32 0xF6391F5C32D9C69D2A47EA670B442974B53935D1EDC7FD64EB21E047A839171B SWAP1 PUSH1 0x60 ADD PUSH2 0x25CB JUMP JUMPDEST DUP3 SLOAD PUSH20 0xFFFFFFFFFFFFFFFFFFFFFFFFFFFFFFFFFFFFFFFF SWAP1 DUP2 AND SWAP1 DUP4 AND DUP2 EQ PUSH2 0x2BEF JUMPI PUSH1 0x40 MLOAD PUSH32 0x2EF4875E00000000000000000000000000000000000000000000000000000000 DUP2 MSTORE PUSH20 0xFFFFFFFFFFFFFFFFFFFFFFFFFFFFFFFFFFFFFFFF DUP5 AND PUSH1 0x4 DUP3 ADD MSTORE PUSH1 0x24 ADD PUSH2 0xA7D JUMP JUMPDEST DUP2 PUSH20 0xFFFFFFFFFFFFFFFFFFFFFFFFFFFFFFFFFFFFFFFF AND DUP2 PUSH20 0xFFFFFFFFFFFFFFFFFFFFFFFFFFFFFFFFFFFFFFFF AND EQ PUSH2 0x25D4 JUMPI DUP4 SLOAD PUSH32 0xFFFFFFFFFFFFFFFFFFFFFFFF0000000000000000000000000000000000000000 AND PUSH20 0xFFFFFFFFFFFFFFFFFFFFFFFFFFFFFFFFFFFFFFFF DUP4 DUP2 AND SWAP2 DUP3 OR DUP7 SSTORE PUSH1 0x40 MLOAD SWAP1 DUP4 AND SWAP1 PUSH32 0x8BE0079C531659141344CD1FD0A4F28419497F9722A3DAAFE3B4186F6B6457E0 SWAP1 PUSH1 0x0 SWAP1 LOG3 POP POP POP POP JUMP JUMPDEST PUSH20 0xFFFFFFFFFFFFFFFFFFFFFFFFFFFFFFFFFFFFFFFF DUP2 AND EXTCODESIZE PUSH2 0x2D3A JUMPI PUSH1 0x40 MLOAD PUSH32 0x8C379A000000000000000000000000000000000000000000000000000000000 DUP2 MSTORE PUSH1 0x20 PUSH1 0x4 DUP3 ADD MSTORE PUSH1 0x2D PUSH1 0x24 DUP3 ADD MSTORE PUSH32 0x455243313936373A206E657720696D706C656D656E746174696F6E206973206E PUSH1 0x44 DUP3 ADD MSTORE PUSH32 0x6F74206120636F6E747261637400000000000000000000000000000000000000 PUSH1 0x64 DUP3 ADD MSTORE PUSH1 0x84 ADD PUSH2 0xA7D JUMP JUMPDEST PUSH32 0x360894A13BA1A3210667C828492DB98DCA3E2076CC3735A920A3CA505D382BBC DUP1 SLOAD PUSH32 0xFFFFFFFFFFFFFFFFFFFFFFFF0000000000000000000000000000000000000000 AND PUSH20 0xFFFFFFFFFFFFFFFFFFFFFFFFFFFFFFFFFFFFFFFF SWAP3 SWAP1 SWAP3 AND SWAP2 SWAP1 SWAP2 OR SWAP1 SSTORE JUMP JUMPDEST PUSH2 0x2DA9 DUP4 PUSH2 0x2ECE JUMP JUMPDEST PUSH1 0x0 DUP3 MLOAD GT DUP1 PUSH2 0x2DB6 JUMPI POP DUP1 JUMPDEST ISZERO PUSH2 0xB34 JUMPI PUSH2 0x25D4 DUP4 DUP4 PUSH2 0x2F1B JUMP JUMPDEST DUP2 SLOAD DUP3 SWAP1 DUP3 DUP2 LT PUSH2 0x2E0C JUMPI PUSH1 0x40 MLOAD PUSH32 0xBF0C18EC00000000000000000000000000000000000000000000000000000000 DUP2 MSTORE PUSH1 0x4 DUP2 ADD DUP3 SWAP1 MSTORE PUSH1 0x24 DUP2 ADD DUP5 SWAP1 MSTORE PUSH1 0x44 ADD PUSH2 0xA7D JUMP JUMPDEST POP SSTORE POP JUMP JUMPDEST PUSH20 0xFFFFFFFFFFFFFFFFFFFFFFFFFFFFFFFFFFFFFFFF DUP2 AND ISZERO PUSH2 0x2E99 JUMPI DUP2 SLOAD PUSH32 0xFFFFFFFFFFFFFFFFFFFFFFFF0000000000000000000000000000000000000000 AND PUSH20 0xFFFFFFFFFFFFFFFFFFFFFFFFFFFFFFFFFFFFFFFF DUP3 AND SWAP1 DUP2 OR DUP4 SSTORE PUSH1 0x40 MLOAD PUSH1 0x0 SWAP1 PUSH32 0x8BE0079C531659141344CD1FD0A4F28419497F9722A3DAAFE3B4186F6B6457E0 SWAP1 DUP3 SWAP1 LOG3 JUMPDEST PUSH2 0x10B7 PUSH32 0x7F5828D000000000000000000000000000000000000000000000000000000000 PUSH1 0x1 PUSH2 0x2EC7 PUSH2 0x2F40 JUMP JUMPDEST SWAP2 SWAP1 PUSH2 0x2F6E JUMP JUMPDEST PUSH2 0x2ED7 DUP2 PUSH2 0x2C96 JUMP JUMPDEST PUSH1 0x40 MLOAD PUSH20 0xFFFFFFFFFFFFFFFFFFFFFFFFFFFFFFFFFFFFFFFF DUP3 AND SWAP1 PUSH32 0xBC7CD75A20EE27FD9ADEBAB32041F755214DBC6BFFA90CC0225B39DA2E5C2D3B SWAP1 PUSH1 0x0 SWAP1 LOG2 POP JUMP JUMPDEST PUSH1 0x60 PUSH2 0x18F9 DUP4 DUP4 PUSH1 0x40 MLOAD DUP1 PUSH1 0x60 ADD PUSH1 0x40 MSTORE DUP1 PUSH1 0x27 DUP2 MSTORE PUSH1 0x20 ADD PUSH2 0x3908 PUSH1 0x27 SWAP2 CODECOPY PUSH2 0x304A JUMP JUMPDEST PUSH1 0x0 DUP1 PUSH2 0x18FC PUSH1 0x1 PUSH32 0xCA9D3E17F264B0F3984E2634E94ADB37FA3E6A8103F06AEAE6FA59E21C769F5E PUSH2 0x3863 JUMP JUMPDEST PUSH29 0x100000000000000000000000000000000000000000000000000000000 PUSH32 0xFFFFFFFF00000000000000000000000000000000000000000000000000000000 DUP4 AND ADD PUSH2 0x2FE6 JUMPI PUSH1 0x40 MLOAD PUSH32 0x72C683BB00000000000000000000000000000000000000000000000000000000 DUP2 MSTORE PUSH1 0x4 ADD PUSH1 0x40 MLOAD DUP1 SWAP2 SUB SWAP1 REVERT JUMPDEST PUSH32 0xFFFFFFFF00000000000000000000000000000000000000000000000000000000 SWAP2 SWAP1 SWAP2 AND PUSH1 0x0 SWAP1 DUP2 MSTORE PUSH1 0x20 SWAP3 SWAP1 SWAP3 MSTORE PUSH1 0x40 SWAP1 SWAP2 KECCAK256 DUP1 SLOAD PUSH32 0xFFFFFFFFFFFFFFFFFFFFFFFFFFFFFFFFFFFFFFFFFFFFFFFFFFFFFFFFFFFFFF00 AND SWAP2 ISZERO ISZERO SWAP2 SWAP1 SWAP2 OR SWAP1 SSTORE JUMP JUMPDEST PUSH1 0x60 PUSH1 0x0 DUP1 DUP6 PUSH20 0xFFFFFFFFFFFFFFFFFFFFFFFFFFFFFFFFFFFFFFFF AND DUP6 PUSH1 0x40 MLOAD PUSH2 0x3074 SWAP2 SWAP1 PUSH2 0x389A JUMP JUMPDEST PUSH1 0x0 PUSH1 0x40 MLOAD DUP1 DUP4 SUB DUP2 DUP6 GAS DELEGATECALL SWAP2 POP POP RETURNDATASIZE DUP1 PUSH1 0x0 DUP2 EQ PUSH2 0x30AF JUMPI PUSH1 0x40 MLOAD SWAP2 POP PUSH1 0x1F NOT PUSH1 0x3F RETURNDATASIZE ADD AND DUP3 ADD PUSH1 0x40 MSTORE RETURNDATASIZE DUP3 MSTORE RETURNDATASIZE PUSH1 0x0 PUSH1 0x20 DUP5 ADD RETURNDATACOPY PUSH2 0x30B4 JUMP JUMPDEST PUSH1 0x60 SWAP2 POP JUMPDEST POP SWAP2 POP SWAP2 POP PUSH2 0x22C9 DUP7 DUP4 DUP4 DUP8 PUSH1 0x60 DUP4 ISZERO PUSH2 0x3156 JUMPI DUP3 MLOAD PUSH1 0x0 SUB PUSH2 0x314F JUMPI PUSH20 0xFFFFFFFFFFFFFFFFFFFFFFFFFFFFFFFFFFFFFFFF DUP6 AND EXTCODESIZE PUSH2 0x314F JUMPI PUSH1 0x40 MLOAD PUSH32 0x8C379A000000000000000000000000000000000000000000000000000000000 DUP2 MSTORE PUSH1 0x20 PUSH1 0x4 DUP3 ADD MSTORE PUSH1 0x1D PUSH1 0x24 DUP3 ADD MSTORE PUSH32 0x416464726573733A2063616C6C20746F206E6F6E2D636F6E7472616374000000 PUSH1 0x44 DUP3 ADD MSTORE PUSH1 0x64 ADD PUSH2 0xA7D JUMP JUMPDEST POP DUP2 PUSH2 0x89D JUMP JUMPDEST PUSH2 0x89D DUP4 DUP4 DUP2 MLOAD ISZERO PUSH2 0x316B JUMPI DUP2 MLOAD DUP1 DUP4 PUSH1 0x20 ADD REVERT JUMPDEST DUP1 PUSH1 0x40 MLOAD PUSH32 0x8C379A000000000000000000000000000000000000000000000000000000000 DUP2 MSTORE PUSH1 0x4 ADD PUSH2 0xA7D SWAP2 SWAP1 PUSH2 0x38B6 JUMP JUMPDEST PUSH1 0x0 DUP1 DUP4 PUSH1 0x1F DUP5 ADD SLT PUSH2 0x31B1 JUMPI PUSH1 0x0 DUP1 REVERT JUMPDEST POP DUP2 CALLDATALOAD PUSH8 0xFFFFFFFFFFFFFFFF DUP2 GT ISZERO PUSH2 0x31C9 JUMPI PUSH1 0x0 DUP1 REVERT JUMPDEST PUSH1 0x20 DUP4 ADD SWAP2 POP DUP4 PUSH1 0x20 DUP3 DUP6 ADD ADD GT ISZERO PUSH2 0x31E1 JUMPI PUSH1 0x0 DUP1 REVERT JUMPDEST SWAP3 POP SWAP3 SWAP1 POP JUMP JUMPDEST PUSH1 0x0 DUP1 PUSH1 0x0 DUP1 PUSH1 0x60 DUP6 DUP8 SUB SLT ISZERO PUSH2 0x31FE JUMPI PUSH1 0x0 DUP1 REVERT JUMPDEST DUP5 CALLDATALOAD SWAP4 POP PUSH1 0x20 DUP6 ADD CALLDATALOAD SWAP3 POP PUSH1 0x40 DUP6 ADD CALLDATALOAD PUSH8 0xFFFFFFFFFFFFFFFF DUP2 GT ISZERO PUSH2 0x3223 JUMPI PUSH1 0x0 DUP1 REVERT JUMPDEST PUSH2 0x322F DUP8 DUP3 DUP9 ADD PUSH2 0x319F JUMP JUMPDEST SWAP6 SWAP9 SWAP5 SWAP8 POP SWAP6 POP POP POP POP JUMP JUMPDEST PUSH1 0x0 PUSH1 0x20 DUP3 DUP5 SUB SLT ISZERO PUSH2 0x324D JUMPI PUSH1 0x0 DUP1 REVERT JUMPDEST POP CALLDATALOAD SWAP2 SWAP1 POP JUMP JUMPDEST PUSH1 0x0 DUP1 PUSH1 0x0 DUP1 PUSH1 0x0 PUSH1 0xA0 DUP7 DUP9 SUB SLT ISZERO PUSH2 0x326C JUMPI PUSH1 0x0 DUP1 REVERT JUMPDEST POP POP DUP4 CALLDATALOAD SWAP6 PUSH1 0x20 DUP6 ADD CALLDATALOAD SWAP6 POP PUSH1 0x40 DUP6 ADD CALLDATALOAD SWAP5 PUSH1 0x60 DUP2 ADD CALLDATALOAD SWAP5 POP PUSH1 0x80 ADD CALLDATALOAD SWAP3 POP SWAP1 POP JUMP JUMPDEST PUSH20 0xFFFFFFFFFFFFFFFFFFFFFFFFFFFFFFFFFFFFFFFF DUP2 AND DUP2 EQ PUSH2 0xD3B JUMPI PUSH1 0x0 DUP1 REVERT JUMPDEST PUSH1 0x0 DUP1 PUSH1 0x40 DUP4 DUP6 SUB SLT ISZERO PUSH2 0x32C4 JUMPI PUSH1 0x0 DUP1 REVERT JUMPDEST DUP3 CALLDATALOAD SWAP2 POP PUSH1 0x20 DUP4 ADD CALLDATALOAD PUSH2 0x32D6 DUP2 PUSH2 0x328F JUMP JUMPDEST DUP1 SWAP2 POP POP SWAP3 POP SWAP3 SWAP1 POP JUMP JUMPDEST PUSH1 0x0 PUSH1 0x20 DUP3 DUP5 SUB SLT ISZERO PUSH2 0x32F3 JUMPI PUSH1 0x0 DUP1 REVERT JUMPDEST DUP2 CALLDATALOAD PUSH2 0x32FE DUP2 PUSH2 0x328F JUMP JUMPDEST SWAP4 SWAP3 POP POP POP JUMP JUMPDEST PUSH1 0x0 DUP1 PUSH1 0x20 DUP4 DUP6 SUB SLT ISZERO PUSH2 0x3318 JUMPI PUSH1 0x0 DUP1 REVERT JUMPDEST DUP3 CALLDATALOAD PUSH8 0xFFFFFFFFFFFFFFFF DUP1 DUP3 GT ISZERO PUSH2 0x3330 JUMPI PUSH1 0x0 DUP1 REVERT JUMPDEST DUP2 DUP6 ADD SWAP2 POP DUP6 PUSH1 0x1F DUP4 ADD SLT PUSH2 0x3344 JUMPI PUSH1 0x0 DUP1 REVERT JUMPDEST DUP2 CALLDATALOAD DUP2 DUP2 GT ISZERO PUSH2 0x3353 JUMPI PUSH1 0x0 DUP1 REVERT JUMPDEST DUP7 PUSH1 0x20 DUP3 PUSH1 0x5 SHL DUP6 ADD ADD GT ISZERO PUSH2 0x3368 JUMPI PUSH1 0x0 DUP1 REVERT JUMPDEST PUSH1 0x20 SWAP3 SWAP1 SWAP3 ADD SWAP7 SWAP2 SWAP6 POP SWAP1 SWAP4 POP POP POP POP JUMP JUMPDEST PUSH32 0x4E487B7100000000000000000000000000000000000000000000000000000000 PUSH1 0x0 MSTORE PUSH1 0x41 PUSH1 0x4 MSTORE PUSH1 0x24 PUSH1 0x0 REVERT JUMPDEST PUSH1 0x0 DUP1 PUSH1 0x40 DUP4 DUP6 SUB SLT ISZERO PUSH2 0x33BC JUMPI PUSH1 0x0 DUP1 REVERT JUMPDEST DUP3 CALLDATALOAD PUSH2 0x33C7 DUP2 PUSH2 0x328F JUMP JUMPDEST SWAP2 POP PUSH1 0x20 DUP4 ADD CALLDATALOAD PUSH8 0xFFFFFFFFFFFFFFFF DUP1 DUP3 GT ISZERO PUSH2 0x33E4 JUMPI PUSH1 0x0 DUP1 REVERT JUMPDEST DUP2 DUP6 ADD SWAP2 POP DUP6 PUSH1 0x1F DUP4 ADD SLT PUSH2 0x33F8 JUMPI PUSH1 0x0 DUP1 REVERT JUMPDEST DUP2 CALLDATALOAD DUP2 DUP2 GT ISZERO PUSH2 0x340A JUMPI PUSH2 0x340A PUSH2 0x337A JUMP JUMPDEST PUSH1 0x40 MLOAD PUSH1 0x1F DUP3 ADD PUSH32 0xFFFFFFFFFFFFFFFFFFFFFFFFFFFFFFFFFFFFFFFFFFFFFFFFFFFFFFFFFFFFFFE0 SWAP1 DUP2 AND PUSH1 0x3F ADD AND DUP2 ADD SWAP1 DUP4 DUP3 GT DUP2 DUP4 LT OR ISZERO PUSH2 0x3450 JUMPI PUSH2 0x3450 PUSH2 0x337A JUMP JUMPDEST DUP2 PUSH1 0x40 MSTORE DUP3 DUP2 MSTORE DUP9 PUSH1 0x20 DUP5 DUP8 ADD ADD GT ISZERO PUSH2 0x3469 JUMPI PUSH1 0x0 DUP1 REVERT JUMPDEST DUP3 PUSH1 0x20 DUP7 ADD PUSH1 0x20 DUP4 ADD CALLDATACOPY PUSH1 0x0 PUSH1 0x20 DUP5 DUP4 ADD ADD MSTORE DUP1 SWAP6 POP POP POP POP POP POP SWAP3 POP SWAP3 SWAP1 POP JUMP JUMPDEST PUSH1 0x0 DUP1 PUSH1 0x0 PUSH1 0x60 DUP5 DUP7 SUB SLT ISZERO PUSH2 0x34A0 JUMPI PUSH1 0x0 DUP1 REVERT JUMPDEST POP POP DUP2 CALLDATALOAD SWAP4 PUSH1 0x20 DUP4 ADD CALLDATALOAD SWAP4 POP PUSH1 0x40 SWAP1 SWAP3 ADD CALLDATALOAD SWAP2 SWAP1 POP JUMP JUMPDEST PUSH1 0x0 DUP1 PUSH1 0x0 PUSH1 0x40 DUP5 DUP7 SUB SLT ISZERO PUSH2 0x34CC JUMPI PUSH1 0x0 DUP1 REVERT JUMPDEST DUP4 CALLDATALOAD SWAP3 POP PUSH1 0x20 DUP5 ADD CALLDATALOAD PUSH8 0xFFFFFFFFFFFFFFFF DUP2 GT ISZERO PUSH2 0x34EA JUMPI PUSH1 0x0 DUP1 REVERT JUMPDEST PUSH2 0x34F6 DUP7 DUP3 DUP8 ADD PUSH2 0x319F JUMP JUMPDEST SWAP5 SWAP8 SWAP1 SWAP7 POP SWAP4 SWAP5 POP POP POP POP JUMP JUMPDEST DUP1 CALLDATALOAD PUSH1 0xFF DUP2 AND DUP2 EQ PUSH2 0x3514 JUMPI PUSH1 0x0 DUP1 REVERT JUMPDEST SWAP2 SWAP1 POP JUMP JUMPDEST PUSH1 0x0 DUP1 PUSH1 0x0 DUP1 PUSH1 0x0 DUP1 PUSH1 0x0 DUP1 PUSH1 0xE0 DUP10 DUP12 SUB SLT ISZERO PUSH2 0x3535 JUMPI PUSH1 0x0 DUP1 REVERT JUMPDEST DUP9 CALLDATALOAD SWAP8 POP PUSH1 0x20 DUP10 ADD CALLDATALOAD PUSH8 0xFFFFFFFFFFFFFFFF DUP2 GT ISZERO PUSH2 0x3553 JUMPI PUSH1 0x0 DUP1 REVERT JUMPDEST PUSH2 0x355F DUP12 DUP3 DUP13 ADD PUSH2 0x319F JUMP JUMPDEST SWAP1 SWAP9 POP SWAP7 POP POP PUSH1 0x40 DUP10 ADD CALLDATALOAD SWAP5 POP PUSH1 0x60 DUP10 ADD CALLDATALOAD SWAP4 POP PUSH2 0x357F PUSH1 0x80 DUP11 ADD PUSH2 0x3503 JUMP JUMPDEST SWAP3 POP PUSH1 0xA0 DUP10 ADD CALLDATALOAD SWAP2 POP PUSH1 0xC0 DUP10 ADD CALLDATALOAD SWAP1 POP SWAP3 SWAP6 SWAP9 POP SWAP3 SWAP6 SWAP9 SWAP1 SWAP4 SWAP7 POP JUMP JUMPDEST PUSH1 0x0 DUP1 PUSH1 0x0 DUP1 PUSH1 0x0 DUP1 PUSH1 0x0 PUSH1 0xC0 DUP9 DUP11 SUB SLT ISZERO PUSH2 0x35B7 JUMPI PUSH1 0x0 DUP1 REVERT JUMPDEST DUP8 CALLDATALOAD SWAP7 POP PUSH1 0x20 DUP9 ADD CALLDATALOAD SWAP6 POP PUSH1 0x40 DUP9 ADD CALLDATALOAD PUSH8 0xFFFFFFFFFFFFFFFF DUP2 GT ISZERO PUSH2 0x35DC JUMPI PUSH1 0x0 DUP1 REVERT JUMPDEST PUSH2 0x35E8 DUP11 DUP3 DUP12 ADD PUSH2 0x319F JUMP JUMPDEST SWAP9 SWAP12 SWAP8 SWAP11 POP SWAP9 PUSH1 0x60 DUP2 ADD CALLDATALOAD SWAP8 PUSH1 0x80 DUP3 ADD CALLDATALOAD SWAP8 POP PUSH1 0xA0 SWAP1 SWAP2 ADD CALLDATALOAD SWAP6 POP SWAP4 POP POP POP POP JUMP JUMPDEST PUSH1 0x0 DUP1 PUSH1 0x40 DUP4 DUP6 SUB SLT ISZERO PUSH2 0x361D JUMPI PUSH1 0x0 DUP1 REVERT JUMPDEST POP POP DUP1 CALLDATALOAD SWAP3 PUSH1 0x20 SWAP1 SWAP2 ADD CALLDATALOAD SWAP2 POP JUMP JUMPDEST PUSH1 0x0 DUP1 PUSH1 0x0 DUP1 PUSH1 0x0 DUP1 PUSH1 0xC0 DUP8 DUP10 SUB SLT ISZERO PUSH2 0x3645 JUMPI PUSH1 0x0 DUP1 REVERT JUMPDEST DUP7 CALLDATALOAD SWAP6 POP PUSH1 0x20 DUP8 ADD CALLDATALOAD SWAP5 POP PUSH1 0x40 DUP8 ADD CALLDATALOAD SWAP4 POP PUSH2 0x3663 PUSH1 0x60 DUP9 ADD PUSH2 0x3503 JUMP JUMPDEST SWAP3 POP PUSH1 0x80 DUP8 ADD CALLDATALOAD SWAP2 POP PUSH1 0xA0 DUP8 ADD CALLDATALOAD SWAP1 POP SWAP3 SWAP6 POP SWAP3 SWAP6 POP SWAP3 SWAP6 JUMP JUMPDEST PUSH1 0x0 DUP1 PUSH1 0x0 DUP1 PUSH1 0x0 PUSH1 0x80 DUP7 DUP9 SUB SLT ISZERO PUSH2 0x3695 JUMPI PUSH1 0x0 DUP1 REVERT JUMPDEST DUP6 CALLDATALOAD SWAP5 POP PUSH1 0x20 DUP7 ADD CALLDATALOAD PUSH8 0xFFFFFFFFFFFFFFFF DUP2 GT ISZERO PUSH2 0x36B3 JUMPI PUSH1 0x0 DUP1 REVERT JUMPDEST PUSH2 0x36BF DUP9 DUP3 DUP10 ADD PUSH2 0x319F JUMP JUMPDEST SWAP7 SWAP10 SWAP1 SWAP9 POP SWAP6 SWAP7 PUSH1 0x40 DUP2 ADD CALLDATALOAD SWAP7 PUSH1 0x60 SWAP1 SWAP2 ADD CALLDATALOAD SWAP6 POP SWAP4 POP POP POP POP JUMP JUMPDEST PUSH1 0x40 DUP2 MSTORE DUP3 PUSH1 0x40 DUP3 ADD MSTORE DUP3 DUP5 PUSH1 0x60 DUP4 ADD CALLDATACOPY PUSH1 0x0 PUSH1 0x60 DUP5 DUP4 ADD ADD MSTORE PUSH1 0x0 PUSH1 0x60 PUSH32 0xFFFFFFFFFFFFFFFFFFFFFFFFFFFFFFFFFFFFFFFFFFFFFFFFFFFFFFFFFFFFFFE0 PUSH1 0x1F DUP7 ADD AND DUP4 ADD ADD SWAP1 POP DUP3 PUSH1 0x20 DUP4 ADD MSTORE SWAP5 SWAP4 POP POP POP POP JUMP JUMPDEST PUSH1 0x0 PUSH1 0x20 DUP3 DUP5 SUB SLT ISZERO PUSH2 0x3744 JUMPI PUSH1 0x0 DUP1 REVERT JUMPDEST POP MLOAD SWAP2 SWAP1 POP JUMP JUMPDEST PUSH1 0x0 PUSH1 0x20 DUP3 DUP5 SUB SLT ISZERO PUSH2 0x375D JUMPI PUSH1 0x0 DUP1 REVERT JUMPDEST DUP2 MLOAD PUSH2 0x32FE DUP2 PUSH2 0x328F JUMP JUMPDEST PUSH32 0x4E487B7100000000000000000000000000000000000000000000000000000000 PUSH1 0x0 MSTORE PUSH1 0x11 PUSH1 0x4 MSTORE PUSH1 0x24 PUSH1 0x0 REVERT JUMPDEST DUP1 DUP3 ADD DUP1 DUP3 GT ISZERO PUSH2 0x18FC JUMPI PUSH2 0x18FC PUSH2 0x3768 JUMP JUMPDEST PUSH32 0x4E487B7100000000000000000000000000000000000000000000000000000000 PUSH1 0x0 MSTORE PUSH1 0x32 PUSH1 0x4 MSTORE PUSH1 0x24 PUSH1 0x0 REVERT JUMPDEST PUSH1 0x0 PUSH32 0xFFFFFFFFFFFFFFFFFFFFFFFFFFFFFFFFFFFFFFFFFFFFFFFFFFFFFFFFFFFFFFFF DUP3 SUB PUSH2 0x380A JUMPI PUSH2 0x380A PUSH2 0x3768 JUMP JUMPDEST POP PUSH1 0x1 ADD SWAP1 JUMP JUMPDEST PUSH1 0x20 DUP2 MSTORE DUP2 PUSH1 0x20 DUP3 ADD MSTORE PUSH1 0x0 PUSH32 0x7FFFFFFFFFFFFFFFFFFFFFFFFFFFFFFFFFFFFFFFFFFFFFFFFFFFFFFFFFFFFFF DUP4 GT ISZERO PUSH2 0x384A JUMPI PUSH1 0x0 DUP1 REVERT JUMPDEST DUP3 PUSH1 0x5 SHL DUP1 DUP6 PUSH1 0x40 DUP6 ADD CALLDATACOPY SWAP2 SWAP1 SWAP2 ADD PUSH1 0x40 ADD SWAP4 SWAP3 POP POP POP JUMP JUMPDEST DUP2 DUP2 SUB DUP2 DUP2 GT ISZERO PUSH2 0x18FC JUMPI PUSH2 0x18FC PUSH2 0x3768 JUMP JUMPDEST PUSH1 0x0 JUMPDEST DUP4 DUP2 LT ISZERO PUSH2 0x3891 JUMPI DUP2 DUP2 ADD MLOAD DUP4 DUP3 ADD MSTORE PUSH1 0x20 ADD PUSH2 0x3879 JUMP JUMPDEST POP POP PUSH1 0x0 SWAP2 ADD MSTORE JUMP JUMPDEST PUSH1 0x0 DUP3 MLOAD PUSH2 0x38AC DUP2 DUP5 PUSH1 0x20 DUP8 ADD PUSH2 0x3876 JUMP JUMPDEST SWAP2 SWAP1 SWAP2 ADD SWAP3 SWAP2 POP POP JUMP JUMPDEST PUSH1 0x20 DUP2 MSTORE PUSH1 0x0 DUP3 MLOAD DUP1 PUSH1 0x20 DUP5 ADD MSTORE PUSH2 0x38D5 DUP2 PUSH1 0x40 DUP6 ADD PUSH1 0x20 DUP8 ADD PUSH2 0x3876 JUMP JUMPDEST PUSH1 0x1F ADD PUSH32 0xFFFFFFFFFFFFFFFFFFFFFFFFFFFFFFFFFFFFFFFFFFFFFFFFFFFFFFFFFFFFFFE0 AND SWAP2 SWAP1 SWAP2 ADD PUSH1 0x40 ADD SWAP3 SWAP2 POP POP JUMP INVALID COINBASE PUSH5 0x6472657373 GASPRICE KECCAK256 PUSH13 0x6F772D6C6576656C2064656C65 PUSH8 0x6174652063616C6C KECCAK256 PUSH7 0x61696C6564A264 PUSH10 0x7066735822122091B73C 0xBB 0xDF CHAINID 0xDF 0x4D CALLER PUSH23 0x167DED8286BC93670B02CC6535F7BA43BED70988C11664 PUSH20 0x6F6C634300081500330000000000000000000000 "},"gasEstimates":{"creation":{"codeDepositCost":"2938400","executionCost":"infinite","totalCost":"infinite"},"external":{"ADMIN_ROLE()":"251","DEPOSITOR_ROLE()":"295","allowedConsumeReasonCodes(bytes32)":"2560","balanceOf(bytes32,bytes32,string)":"infinite","balanceOf(bytes32,string)":"infinite","balanceOf(bytes32,uint256)":"infinite","balanceOf(uint256)":"infinite","balances(bytes32,uint256,uint256)":"2714","batchAddConsumeReasonCodes(bytes32[])":"infinite","batchRemoveConsumeReasonCodes(bytes32[])":"infinite","consume(bytes32,string,uint256,bytes32)":"infinite","consume(bytes32,string,uint256,bytes32,uint8,bytes32,bytes32)":"infinite","consume(uint256,uint256,bytes32)":"infinite","consume(uint256,uint256,bytes32,uint8,bytes32,bytes32)":"infinite","currentSeason()":"2351","deposit(bytes32,bytes32,string,uint256,uint256,bytes32)":"infinite","deposit(bytes32,uint256,uint256,uint256,bytes32)":"infinite","grantRole(bytes32,address)":"infinite","hasRole(bytes32,address)":"infinite","initialize()":"infinite","initializeV2()":"29831","nonces(uint256)":"2496","owner()":"infinite","preparePayload(uint256,uint256,bytes32)":"infinite","proxiableUUID()":"infinite","realmIdContract()":"infinite","renounceRole(bytes32)":"infinite","revokeRole(bytes32,address)":"infinite","seasons(bytes32)":"2518","setCurrentSeason(bytes32)":"infinite","setVal(uint256)":"22424","transferOwnership(address)":"infinite","upgradeTo(address)":"infinite","upgradeToAndCall(address,bytes)":"infinite","val()":"2374"}},"methodIdentifiers":{"ADMIN_ROLE()":"75b238fc","DEPOSITOR_ROLE()":"a3b0b5a3","allowedConsumeReasonCodes(bytes32)":"f9515962","balanceOf(bytes32,bytes32,string)":"098b6419","balanceOf(bytes32,string)":"794459be","balanceOf(bytes32,uint256)":"ad3b1d48","balanceOf(uint256)":"9cc7f708","balances(bytes32,uint256,uint256)":"51955dfc","batchAddConsumeReasonCodes(bytes32[])":"3f30b00f","batchRemoveConsumeReasonCodes(bytes32[])":"906405a3","consume(bytes32,string,uint256,bytes32)":"e564a0e2","consume(bytes32,string,uint256,bytes32,uint8,bytes32,bytes32)":"99d342ac","consume(uint256,uint256,bytes32)":"d14a5c71","consume(uint256,uint256,bytes32,uint8,bytes32,bytes32)":"dc893ce4","currentSeason()":"bcb39621","deposit(bytes32,bytes32,string,uint256,uint256,bytes32)":"9d70b005","deposit(bytes32,uint256,uint256,uint256,bytes32)":"18ee89f0","grantRole(bytes32,address)":"2f2ff15d","hasRole(bytes32,address)":"91d14854","initialize()":"8129fc1c","initializeV2()":"5cd8a76b","nonces(uint256)":"141a468c","owner()":"8da5cb5b","preparePayload(uint256,uint256,bytes32)":"df00bb24","proxiableUUID()":"52d1902d","realmIdContract()":"2b48dc72","renounceRole(bytes32)":"8bb9c5bf","revokeRole(bytes32,address)":"d547741f","seasons(bytes32)":"4529cc1b","setCurrentSeason(bytes32)":"86a8e98a","setVal(uint256)":"3d4197f0","transferOwnership(address)":"f2fde38b","upgradeTo(address)":"3659cfe6","upgradeToAndCall(address,bytes)":"4f1ef286","val()":"3c6bb436"}},"storageLayout":{"storage":[{"astId":1363,"contract":"contracts/MocaPoints/mock/upgrades/MockMocaPointsUpgrade.sol:MockMocaPointsUpgrade","label":"_initialized","offset":0,"slot":"0","type":"t_uint8"},{"astId":1366,"contract":"contracts/MocaPoints/mock/upgrades/MockMocaPointsUpgrade.sol:MockMocaPointsUpgrade","label":"_initializing","offset":1,"slot":"0","type":"t_bool"},{"astId":1345,"contract":"contracts/MocaPoints/mock/upgrades/MockMocaPointsUpgrade.sol:MockMocaPointsUpgrade","label":"__gap","offset":0,"slot":"1","type":"t_array(t_uint256)50_storage"},{"astId":1660,"contract":"contracts/MocaPoints/mock/upgrades/MockMocaPointsUpgrade.sol:MockMocaPointsUpgrade","label":"__gap","offset":0,"slot":"51","type":"t_array(t_uint256)50_storage"},{"astId":2592,"contract":"contracts/MocaPoints/mock/upgrades/MockMocaPointsUpgrade.sol:MockMocaPointsUpgrade","label":"currentSeason","offset":0,"slot":"101","type":"t_bytes32"},{"astId":2596,"contract":"contracts/MocaPoints/mock/upgrades/MockMocaPointsUpgrade.sol:MockMocaPointsUpgrade","label":"seasons","offset":0,"slot":"102","type":"t_mapping(t_bytes32,t_bool)"},{"astId":2608,"contract":"contracts/MocaPoints/mock/upgrades/MockMocaPointsUpgrade.sol:MockMocaPointsUpgrade","label":"balances","offset":0,"slot":"103","type":"t_mapping(t_bytes32,t_mapping(t_uint256,t_mapping(t_uint256,t_uint256)))"},{"astId":2612,"contract":"contracts/MocaPoints/mock/upgrades/MockMocaPointsUpgrade.sol:MockMocaPointsUpgrade","label":"nonces","offset":0,"slot":"104","type":"t_mapping(t_uint256,t_uint256)"},{"astId":2616,"contract":"contracts/MocaPoints/mock/upgrades/MockMocaPointsUpgrade.sol:MockMocaPointsUpgrade","label":"allowedConsumeReasonCodes","offset":0,"slot":"105","type":"t_mapping(t_bytes32,t_bool)"},{"astId":3527,"contract":"contracts/MocaPoints/mock/upgrades/MockMocaPointsUpgrade.sol:MockMocaPointsUpgrade","label":"val","offset":0,"slot":"106","type":"t_uint256"}],"types":{"t_array(t_uint256)50_storage":{"base":"t_uint256","encoding":"inplace","label":"uint256[50]","numberOfBytes":"1600"},"t_bool":{"encoding":"inplace","label":"bool","numberOfBytes":"1"},"t_bytes32":{"encoding":"inplace","label":"bytes32","numberOfBytes":"32"},"t_mapping(t_bytes32,t_bool)":{"encoding":"mapping","key":"t_bytes32","label":"mapping(bytes32 => bool)","numberOfBytes":"32","value":"t_bool"},"t_mapping(t_bytes32,t_mapping(t_uint256,t_mapping(t_uint256,t_uint256)))":{"encoding":"mapping","key":"t_bytes32","label":"mapping(bytes32 => mapping(uint256 => mapping(uint256 => uint256)))","numberOfBytes":"32","value":"t_mapping(t_uint256,t_mapping(t_uint256,t_uint256))"},"t_mapping(t_uint256,t_mapping(t_uint256,t_uint256))":{"encoding":"mapping","key":"t_uint256","label":"mapping(uint256 => mapping(uint256 => uint256))","numberOfBytes":"32","value":"t_mapping(t_uint256,t_uint256)"},"t_mapping(t_uint256,t_uint256)":{"encoding":"mapping","key":"t_uint256","label":"mapping(uint256 => uint256)","numberOfBytes":"32","value":"t_uint256"},"t_uint256":{"encoding":"inplace","label":"uint256","numberOfBytes":"32"},"t_uint8":{"encoding":"inplace","label":"uint8","numberOfBytes":"1"}}},"userdoc":{"errors":{"IllegalInterfaceId()":[{"notice":"Thrown when setting the illegal interfaceId 0xffffffff."}],"InitializationPhaseAlreadyReached(uint256,uint256)":[{"notice":"Emitted when trying to set a phase value that has already been reached."}],"NotContractOwner(address)":[{"notice":"Thrown when an account is not the contract owner but is required to."}],"NotRoleHolder(bytes32,address)":[{"notice":"Thrown when an account does not have the required role."}]},"events":{"BatchAddedConsumeReasonCode(bytes32[])":{"notice":"Emitted when one or more reason code(s) are added to the comsume reason code mapping."},"BatchRemovedConsumeReasonCode(bytes32[])":{"notice":"Emitted when one or more reason code(s) are removed from the comsume reason code mapping."},"Consumed(uint256,bytes32,bytes32,address,uint256,uint256,address)":{"notice":"Emitted when an amount is consumed from a balance."},"Deposited(address,bytes32,bytes32,uint256,uint256,uint256)":{"notice":"Emitted when an amount is deposited to a balance."},"OwnershipTransferred(address,address)":{"notice":"Emitted when the contract ownership changes."},"RoleGranted(bytes32,address,address)":{"notice":"Emitted when `role` is granted to `account`."},"RoleRevoked(bytes32,address,address)":{"notice":"Emitted when `role` is revoked from `account`."},"SetCurrentSeason(bytes32)":{"notice":"Emitted when the current season is set."}},"kind":"user","methods":{"balanceOf(bytes32,bytes32,string)":{"notice":"Gets the balance of a realmId for a specified season.The realmId is resolved from the given parent node and name.Applies to the current version of the realmId."},"balanceOf(bytes32,string)":{"notice":"Gets the balance of a realmId.The realmId is resolved from the given parent node and name.Applies to the current version of the realmId.Applies to the current season."},"balanceOf(bytes32,uint256)":{"notice":"Gets the balance of a given realmId for a specified season.Applies to the current version of the realmId."},"balanceOf(uint256)":{"notice":"Gets the balance of a given realmId.Applies to the current version of the realmId.Applies to the current season."},"batchAddConsumeReasonCodes(bytes32[])":{"notice":"Adds one or more reason code(s) to the consume reason code mapping."},"batchRemoveConsumeReasonCodes(bytes32[])":{"notice":"Removes one or more reason code(s) from the consume reason code mapping."},"consume(bytes32,string,uint256,bytes32)":{"notice":"Called by the realmId owner to consume a given amount from the realmId's balance.The realmId is resolved from the given parent node and name.Applies to the current version of the realmId.Applies to the current season."},"consume(bytes32,string,uint256,bytes32,uint8,bytes32,bytes32)":{"notice":"Called with a signature to consume a given amount from the balance of a realmId.The realmId is resolved from the given parent node and name.Applies to the current version of the realmId.Applies to the current season."},"consume(uint256,uint256,bytes32)":{"notice":"Called by the realmId owner to consume a given amount from the given realmId's balance.Applies to the current version of the realmId.Applies to the current season."},"consume(uint256,uint256,bytes32,uint8,bytes32,bytes32)":{"notice":"Called with a signature to consume a given amount from the balance of a given realmId.Applies to the current version of the realmId.Applies to the current season."},"deposit(bytes32,bytes32,string,uint256,uint256,bytes32)":{"notice":"Called by a depoistor to increase the balance of a realmId (with a given version) for a specified season.The realmId is resolved from the given parent node and name."},"deposit(bytes32,uint256,uint256,uint256,bytes32)":{"notice":"Called by a depoistor to increase the balance of a realmId (with a given version) for a specified season."},"grantRole(bytes32,address)":{"notice":"Grants a role to an account."},"hasRole(bytes32,address)":{"notice":"Retrieves whether an account has a role."},"initialize()":{"notice":"Initializes the contract with the provided realmId contract address."},"owner()":{"notice":"Gets the address of the contract owner."},"preparePayload(uint256,uint256,bytes32)":{"notice":"Returns a payload generated from the arguments, current nounce, current season and the given realmId's current version."},"renounceRole(bytes32)":{"notice":"Renounces a role by the sender."},"revokeRole(bytes32,address)":{"notice":"Revokes a role from an account."},"setCurrentSeason(bytes32)":{"notice":"Sets the current season."},"transferOwnership(address)":{"notice":"Sets the address of the new contract owner."}},"version":1}}}}