{"contracts/MocaPoints/MocaPoints.sol":{"MocaPoints":{"abi":[{"inputs":[{"internalType":"address","name":"_realmIdContract","type":"address"},{"internalType":"address","name":"_adminAddress","type":"address"}],"stateMutability":"nonpayable","type":"constructor"},{"anonymous":false,"inputs":[{"indexed":false,"internalType":"bytes32[]","name":"reasonCodes","type":"bytes32[]"}],"name":"BatchAddedConsumeReasonCode","type":"event"},{"anonymous":false,"inputs":[{"indexed":false,"internalType":"bytes32[]","name":"reasonCodes","type":"bytes32[]"}],"name":"BatchRemovedConsumeReasonCode","type":"event"},{"anonymous":false,"inputs":[{"indexed":true,"internalType":"uint256","name":"realmId","type":"uint256"},{"indexed":true,"internalType":"bytes32","name":"season","type":"bytes32"},{"indexed":true,"internalType":"bytes32","name":"reasonCode","type":"bytes32"},{"indexed":false,"internalType":"address","name":"operator","type":"address"},{"indexed":false,"internalType":"uint256","name":"nonce","type":"uint256"},{"indexed":false,"internalType":"uint256","name":"realmIdVersion","type":"uint256"},{"indexed":false,"internalType":"uint256","name":"amount","type":"uint256"},{"indexed":false,"internalType":"address","name":"realmIdOwner","type":"address"}],"name":"Consumed","type":"event"},{"anonymous":false,"inputs":[{"indexed":true,"internalType":"address","name":"sender","type":"address"},{"indexed":true,"internalType":"bytes32","name":"season","type":"bytes32"},{"indexed":true,"internalType":"bytes32","name":"reasonCode","type":"bytes32"},{"indexed":false,"internalType":"uint256","name":"realmId","type":"uint256"},{"indexed":false,"internalType":"uint256","name":"realmIdVersion","type":"uint256"},{"indexed":false,"internalType":"uint256","name":"amount","type":"uint256"}],"name":"Deposited","type":"event"},{"anonymous":false,"inputs":[{"indexed":true,"internalType":"address","name":"previousOwner","type":"address"},{"indexed":true,"internalType":"address","name":"newOwner","type":"address"}],"name":"OwnershipTransferred","type":"event"},{"anonymous":false,"inputs":[{"indexed":true,"internalType":"bytes32","name":"role","type":"bytes32"},{"indexed":true,"internalType":"bytes32","name":"previousAdminRole","type":"bytes32"},{"indexed":true,"internalType":"bytes32","name":"newAdminRole","type":"bytes32"}],"name":"RoleAdminChanged","type":"event"},{"anonymous":false,"inputs":[{"indexed":true,"internalType":"bytes32","name":"role","type":"bytes32"},{"indexed":true,"internalType":"address","name":"account","type":"address"},{"indexed":true,"internalType":"address","name":"sender","type":"address"}],"name":"RoleGranted","type":"event"},{"anonymous":false,"inputs":[{"indexed":true,"internalType":"bytes32","name":"role","type":"bytes32"},{"indexed":true,"internalType":"address","name":"account","type":"address"},{"indexed":true,"internalType":"address","name":"sender","type":"address"}],"name":"RoleRevoked","type":"event"},{"anonymous":false,"inputs":[{"indexed":false,"internalType":"bytes32","name":"season","type":"bytes32"}],"name":"SetCurrentSeason","type":"event"},{"inputs":[],"name":"ADMIN_ROLE","outputs":[{"internalType":"bytes32","name":"","type":"bytes32"}],"stateMutability":"view","type":"function"},{"inputs":[],"name":"DEFAULT_ADMIN_ROLE","outputs":[{"internalType":"bytes32","name":"","type":"bytes32"}],"stateMutability":"view","type":"function"},{"inputs":[],"name":"DEPOSITOR_ROLE","outputs":[{"internalType":"bytes32","name":"","type":"bytes32"}],"stateMutability":"view","type":"function"},{"inputs":[],"name":"adminAddress","outputs":[{"internalType":"address","name":"","type":"address"}],"stateMutability":"view","type":"function"},{"inputs":[{"internalType":"bytes32","name":"season","type":"bytes32"},{"internalType":"bytes32","name":"parentNode","type":"bytes32"},{"internalType":"string","name":"_name","type":"string"}],"name":"balanceOf","outputs":[{"internalType":"uint256","name":"","type":"uint256"}],"stateMutability":"view","type":"function"},{"inputs":[{"internalType":"bytes32","name":"parentNode","type":"bytes32"},{"internalType":"string","name":"_name","type":"string"}],"name":"balanceOf","outputs":[{"internalType":"uint256","name":"","type":"uint256"}],"stateMutability":"view","type":"function"},{"inputs":[{"internalType":"uint256","name":"realmId","type":"uint256"}],"name":"balanceOf","outputs":[{"internalType":"uint256","name":"","type":"uint256"}],"stateMutability":"view","type":"function"},{"inputs":[{"internalType":"bytes32","name":"season","type":"bytes32"},{"internalType":"uint256","name":"realmId","type":"uint256"}],"name":"balanceOf","outputs":[{"internalType":"uint256","name":"","type":"uint256"}],"stateMutability":"view","type":"function"},{"inputs":[{"internalType":"bytes32[]","name":"_reasonCodes","type":"bytes32[]"}],"name":"batchAddConsumeReasonCodes","outputs":[],"stateMutability":"nonpayable","type":"function"},{"inputs":[{"internalType":"bytes32[]","name":"_reasonCodes","type":"bytes32[]"}],"name":"batchRemoveConsumeReasonCodes","outputs":[],"stateMutability":"nonpayable","type":"function"},{"inputs":[{"internalType":"bytes32","name":"parentNode","type":"bytes32"},{"internalType":"string","name":"_name","type":"string"},{"internalType":"uint256","name":"amount","type":"uint256"},{"internalType":"bytes32","name":"consumeReasonCode","type":"bytes32"},{"internalType":"uint8","name":"v","type":"uint8"},{"internalType":"bytes32","name":"r","type":"bytes32"},{"internalType":"bytes32","name":"s","type":"bytes32"}],"name":"consume","outputs":[],"stateMutability":"nonpayable","type":"function"},{"inputs":[{"internalType":"uint256","name":"realmId","type":"uint256"},{"internalType":"uint256","name":"amount","type":"uint256"},{"internalType":"bytes32","name":"consumeReasonCode","type":"bytes32"}],"name":"consume","outputs":[],"stateMutability":"nonpayable","type":"function"},{"inputs":[{"internalType":"uint256","name":"realmId","type":"uint256"},{"internalType":"uint256","name":"amount","type":"uint256"},{"internalType":"bytes32","name":"consumeReasonCode","type":"bytes32"},{"internalType":"uint8","name":"v","type":"uint8"},{"internalType":"bytes32","name":"r","type":"bytes32"},{"internalType":"bytes32","name":"s","type":"bytes32"}],"name":"consume","outputs":[],"stateMutability":"nonpayable","type":"function"},{"inputs":[{"internalType":"bytes32","name":"parentNode","type":"bytes32"},{"internalType":"string","name":"_name","type":"string"},{"internalType":"uint256","name":"amount","type":"uint256"},{"internalType":"bytes32","name":"consumeReasonCode","type":"bytes32"}],"name":"consume","outputs":[],"stateMutability":"nonpayable","type":"function"},{"inputs":[],"name":"currentSeason","outputs":[{"internalType":"bytes32","name":"","type":"bytes32"}],"stateMutability":"view","type":"function"},{"inputs":[{"internalType":"bytes32","name":"season","type":"bytes32"},{"internalType":"uint256","name":"realmId","type":"uint256"},{"internalType":"uint256","name":"realmIdVersion","type":"uint256"},{"internalType":"uint256","name":"amount","type":"uint256"},{"internalType":"bytes32","name":"depositReasonCode","type":"bytes32"}],"name":"deposit","outputs":[],"stateMutability":"nonpayable","type":"function"},{"inputs":[{"internalType":"bytes32","name":"season","type":"bytes32"},{"internalType":"bytes32","name":"parentNode","type":"bytes32"},{"internalType":"string","name":"name","type":"string"},{"internalType":"uint256","name":"realmIdVersion","type":"uint256"},{"internalType":"uint256","name":"amount","type":"uint256"},{"internalType":"bytes32","name":"depositReasonCode","type":"bytes32"}],"name":"deposit","outputs":[],"stateMutability":"nonpayable","type":"function"},{"inputs":[{"internalType":"bytes32","name":"role","type":"bytes32"}],"name":"getRoleAdmin","outputs":[{"internalType":"bytes32","name":"","type":"bytes32"}],"stateMutability":"view","type":"function"},{"inputs":[{"internalType":"bytes32","name":"role","type":"bytes32"},{"internalType":"address","name":"account","type":"address"}],"name":"grantRole","outputs":[],"stateMutability":"nonpayable","type":"function"},{"inputs":[{"internalType":"bytes32","name":"role","type":"bytes32"},{"internalType":"address","name":"account","type":"address"}],"name":"hasRole","outputs":[{"internalType":"bool","name":"","type":"bool"}],"stateMutability":"view","type":"function"},{"inputs":[{"internalType":"bytes32","name":"reasonCode","type":"bytes32"}],"name":"isReasonCodeAllowed","outputs":[{"internalType":"bool","name":"","type":"bool"}],"stateMutability":"view","type":"function"},{"inputs":[{"internalType":"uint256","name":"","type":"uint256"}],"name":"nonces","outputs":[{"internalType":"uint256","name":"","type":"uint256"}],"stateMutability":"view","type":"function"},{"inputs":[],"name":"owner","outputs":[{"internalType":"address","name":"","type":"address"}],"stateMutability":"view","type":"function"},{"inputs":[{"internalType":"uint256","name":"realmId","type":"uint256"},{"internalType":"uint256","name":"amount","type":"uint256"},{"internalType":"bytes32","name":"reasonCode","type":"bytes32"}],"name":"preparePayload","outputs":[{"internalType":"bytes32","name":"","type":"bytes32"}],"stateMutability":"view","type":"function"},{"inputs":[],"name":"realmIdContract","outputs":[{"internalType":"contract IRealmId","name":"","type":"address"}],"stateMutability":"view","type":"function"},{"inputs":[],"name":"renounceOwnership","outputs":[],"stateMutability":"nonpayable","type":"function"},{"inputs":[{"internalType":"bytes32","name":"role","type":"bytes32"},{"internalType":"address","name":"account","type":"address"}],"name":"renounceRole","outputs":[],"stateMutability":"nonpayable","type":"function"},{"inputs":[{"internalType":"bytes32","name":"role","type":"bytes32"},{"internalType":"address","name":"account","type":"address"}],"name":"revokeRole","outputs":[],"stateMutability":"nonpayable","type":"function"},{"inputs":[{"internalType":"bytes32","name":"","type":"bytes32"}],"name":"seasons","outputs":[{"internalType":"bool","name":"","type":"bool"}],"stateMutability":"view","type":"function"},{"inputs":[{"internalType":"bytes32","name":"_season","type":"bytes32"}],"name":"setCurrentSeason","outputs":[],"stateMutability":"nonpayable","type":"function"},{"inputs":[{"internalType":"bytes4","name":"interfaceId","type":"bytes4"}],"name":"supportsInterface","outputs":[{"internalType":"bool","name":"","type":"bool"}],"stateMutability":"view","type":"function"},{"inputs":[{"internalType":"address","name":"newOwner","type":"address"}],"name":"transferOwnership","outputs":[],"stateMutability":"nonpayable","type":"function"}],"devdoc":{"kind":"dev","methods":{"getRoleAdmin(bytes32)":{"details":"Returns the admin role that controls `role`. See {grantRole} and {revokeRole}. To change a role's admin, use {_setRoleAdmin}."},"grantRole(bytes32,address)":{"details":"Grants `role` to `account`. If `account` had not been already granted `role`, emits a {RoleGranted} event. Requirements: - the caller must have ``role``'s admin role. May emit a {RoleGranted} event."},"hasRole(bytes32,address)":{"details":"Returns `true` if `account` has been granted `role`."},"owner()":{"details":"Returns the address of the current owner."},"renounceOwnership()":{"details":"Leaves the contract without owner. It will not be possible to call `onlyOwner` functions anymore. Can only be called by the current owner. NOTE: Renouncing ownership will leave the contract without an owner, thereby removing any functionality that is only available to the owner."},"renounceRole(bytes32,address)":{"details":"Revokes `role` from the calling account. Roles are often managed via {grantRole} and {revokeRole}: this function's purpose is to provide a mechanism for accounts to lose their privileges if they are compromised (such as when a trusted device is misplaced). If the calling account had been revoked `role`, emits a {RoleRevoked} event. Requirements: - the caller must be `account`. May emit a {RoleRevoked} event."},"revokeRole(bytes32,address)":{"details":"Revokes `role` from `account`. If `account` had been granted `role`, emits a {RoleRevoked} event. Requirements: - the caller must have ``role``'s admin role. May emit a {RoleRevoked} event."},"supportsInterface(bytes4)":{"details":"See {IERC165-supportsInterface}."},"transferOwnership(address)":{"details":"Transfers ownership of the contract to a new account (`newOwner`). Can only be called by the current owner."}},"version":1},"evm":{"bytecode":{"linkReferences":{},"object":"60806040523480156200001157600080fd5b506040516200270c3803806200270c83398101604081905262000034916200024b565b6200003f3362000146565b6001600160a01b0382166200009b5760405162461bcd60e51b815260206004820152601c60248201527f4e6f7420612076616c696420436f6e747261637420416464726573730000000060448201526064015b60405180910390fd5b6001600160a01b038116620000f35760405162461bcd60e51b815260206004820152601960248201527f4e6f7420612076616c69642041646d696e204164647265737300000000000000604482015260640162000092565b6200011f7fa49807205ce4d355092ef5a8a18f56e8913cf4a201fbe287825b095693c217758262000196565b50600480546001600160a01b0319166001600160a01b039290921691909117905562000283565b600080546001600160a01b038381166001600160a01b0319831681178455604051919092169283917f8be0079c531659141344cd1fd0a4f28419497f9722a3daafe3b4186f6b6457e09190a35050565b620001a28282620001a6565b5050565b60008281526001602090815260408083206001600160a01b038516845290915290205460ff16620001a25760008281526001602081815260408084206001600160a01b0386168086529252808420805460ff19169093179092559051339285917f2f8788117e7eff1d82e926ec794901d17c78024a50270940304540a733656f0d9190a45050565b80516001600160a01b03811681146200024657600080fd5b919050565b600080604083850312156200025f57600080fd5b6200026a836200022e565b91506200027a602084016200022e565b90509250929050565b61247980620002936000396000f3fe608060405234801561001057600080fd5b50600436106101f05760003560e01c806391d148541161010f578063c0542cfa116100a2578063df00bb2411610071578063df00bb24146104e4578063e564a0e2146104f7578063f2fde38b1461050a578063fc6f94681461051d57600080fd5b8063c0542cfa14610488578063d14a5c71146104ab578063d547741f146104be578063dc893ce4146104d157600080fd5b8063a217fddf116100de578063a217fddf1461043d578063a3b0b5a314610445578063ad3b1d481461046c578063bcb396211461047f57600080fd5b806391d14854146103be57806399d342ac146104045780639cc7f708146104175780639d70b0051461042a57600080fd5b80633f30b00f11610187578063794459be11610156578063794459be1461036757806386a8e98a1461037a5780638da5cb5b1461038d578063906405a3146103ab57600080fd5b80633f30b00f146103025780634529cc1b14610315578063715018a61461033857806375b238fc1461034057600080fd5b8063248a9ca3116101c3578063248a9ca3146102735780632b48dc72146102975780632f2ff15d146102dc57806336568abe146102ef57600080fd5b806301ffc9a7146101f5578063098b64191461021d578063141a468c1461023e57806318ee89f01461025e575b600080fd5b610208610203366004611c59565b61053d565b60405190151581526020015b60405180910390f35b61023061022b366004611da7565b6105d6565b604051908152602001610214565b61023061024c366004611df7565b60076020526000908152604090205481565b61027161026c366004611e10565b61061a565b005b610230610281366004611df7565b6000908152600160208190526040909120015490565b6004546102b79073ffffffffffffffffffffffffffffffffffffffff1681565b60405173ffffffffffffffffffffffffffffffffffffffff9091168152602001610214565b6102716102ea366004611e6d565b610763565b6102716102fd366004611e6d565b61078e565b610271610310366004611e9d565b610841565b610208610323366004611df7565b60036020526000908152604090205460ff1681565b610271610a13565b6102307fa49807205ce4d355092ef5a8a18f56e8913cf4a201fbe287825b095693c2177581565b610230610375366004611f43565b610a27565b610271610388366004611df7565b610a72565b60005473ffffffffffffffffffffffffffffffffffffffff166102b7565b6102716103b9366004611e9d565b610bf1565b6102086103cc366004611e6d565b600091825260016020908152604080842073ffffffffffffffffffffffffffffffffffffffff93909316845291905290205460ff1690565b610271610412366004611fa0565b610d2d565b610230610425366004611df7565b610d53565b61027161043836600461201e565b610d8e565b610230600081565b6102307f8f4f2da22e8ac8f11e15f9fc141cddbb5deea8800186560abb6e68c5496619a981565b61023061047a36600461208a565b610e4a565b61023060025481565b610208610496366004611df7565b60009081526008602052604090205460ff1690565b6102716104b93660046120ac565b610e7c565b6102716104cc366004611e6d565b610e87565b6102716104df3660046120d8565b610ead565b6102306104f23660046120ac565b610ec3565b610271610505366004612129565b610f32565b610271610518366004612180565b610f4b565b6005546102b79073ffffffffffffffffffffffffffffffffffffffff1681565b60007fffffffff0000000000000000000000000000000000000000000000000000000082167f7965db0b0000000000000000000000000000000000000000000000000000000014806105d057507f01ffc9a7000000000000000000000000000000000000000000000000000000007fffffffff000000000000000000000000000000000000000000000000000000008316145b92915050565b6000806105e38484611002565b905060006105f0826110a4565b60009687526006602090815260408089209489529381528388209188525250909320549392505050565b3360009081527f307e01c7b3e8b810ada5a97216bcf610dd89edeee748c1c377638b2d5e7d226e602052604090205460ff166106b7576040517f08c379a000000000000000000000000000000000000000000000000000000000815260206004820152600f60248201527f4e6f742061206465706f7369746f72000000000000000000000000000000000060448201526064015b60405180910390fd5b3360009081527f307e01c7b3e8b810ada5a97216bcf610dd89edeee748c1c377638b2d5e7d226e602052604090205460ff1661074f576040517f08c379a000000000000000000000000000000000000000000000000000000000815260206004820152600f60248201527f4e6f742061206465706f7369746f72000000000000000000000000000000000060448201526064016106ae565b61075c858585858561113a565b5050505050565b6000828152600160208190526040909120015461077f816111be565b61078983836111c8565b505050565b73ffffffffffffffffffffffffffffffffffffffff81163314610833576040517f08c379a000000000000000000000000000000000000000000000000000000000815260206004820152602f60248201527f416363657373436f6e74726f6c3a2063616e206f6e6c792072656e6f756e636560448201527f20726f6c657320666f722073656c66000000000000000000000000000000000060648201526084016106ae565b61083d8282611287565b5050565b3360009081527f50efbde2d46c37e9785f1791697f77e94bb7b701e19f1930a668820722d37694602052604090205460ff166108d9576040517f08c379a000000000000000000000000000000000000000000000000000000000815260206004820152600c60248201527f4e6f7420616e2061646d696e000000000000000000000000000000000000000060448201526064016106ae565b60005b81518110156109d857600860008383815181106108fb576108fb61219d565b60209081029190910181015182528101919091526040016000205460ff1615610980576040517f08c379a000000000000000000000000000000000000000000000000000000000815260206004820152601a60248201527f526561736f6e20636f646520616c72656164792065786973747300000000000060448201526064016106ae565b6001600860008484815181106109985761099861219d565b6020026020010151815260200190815260200160002060006101000a81548160ff02191690831515021790555080806109d0906121fb565b9150506108dc565b507f0d8c56a8918ec09c2fe3c4d9fcc00ece66df217a1ab3ad768dd0a71620da5b4e81604051610a089190612233565b60405180910390a150565b610a1b611342565b610a2560006113c3565b565b600080610a348484611002565b90506000610a41826110a4565b6002546000908152600660209081526040808320958352948152848220928252919091529190912054949350505050565b3360009081527f50efbde2d46c37e9785f1791697f77e94bb7b701e19f1930a668820722d37694602052604090205460ff16610b0a576040517f08c379a000000000000000000000000000000000000000000000000000000000815260206004820152600c60248201527f4e6f7420616e2061646d696e000000000000000000000000000000000000000060448201526064016106ae565b60008181526003602052604090205460ff1615610b83576040517f08c379a000000000000000000000000000000000000000000000000000000000815260206004820152601260248201527f536561736f6e20616c726561647920736574000000000000000000000000000060448201526064016106ae565b60028190556000818152600360205260409081902080547fffffffffffffffffffffffffffffffffffffffffffffffffffffffffffffff00166001179055517f61228c895f8ba06548597d3e34a23bc0ecb6d1e62a1eb3fa30be04883a17ef3190610a089083815260200190565b3360009081527f50efbde2d46c37e9785f1791697f77e94bb7b701e19f1930a668820722d37694602052604090205460ff16610c89576040517f08c379a000000000000000000000000000000000000000000000000000000000815260206004820152600c60248201527f4e6f7420616e2061646d696e000000000000000000000000000000000000000060448201526064016106ae565b60005b8151811015610cfd5760086000838381518110610cab57610cab61219d565b602090810291909101810151825281019190915260400160002080547fffffffffffffffffffffffffffffffffffffffffffffffffffffffffffffff0016905580610cf5816121fb565b915050610c8c565b507f5b2c9fcbb27d48bdbfc59f0564b5ba81539309ebf09a940fad64d171bcfb9ff981604051610a089190612233565b6000610d398888611002565b9050610d49818787878787611438565b5050505050505050565b600080610d5f836110a4565b600254600090815260066020908152604080832096835295815285822092825291909152929092205492915050565b3360009081527f307e01c7b3e8b810ada5a97216bcf610dd89edeee748c1c377638b2d5e7d226e602052604090205460ff16610e26576040517f08c379a000000000000000000000000000000000000000000000000000000000815260206004820152600f60248201527f4e6f742061206465706f7369746f72000000000000000000000000000000000060448201526064016106ae565b6000610e328686611002565b9050610e41878286868661113a565b50505050505050565b600080610e56836110a4565b600094855260066020908152604080872095875294815284862091865252505090205490565b610789838383611526565b60008281526001602081905260409091200154610ea3816111be565b6107898383611287565b610ebb868686868686611438565b505050505050565b600080610ecf856110a4565b6000868152600760209081526040918290205460025483518084019a909a52898401949094526060890197909752608088019290925260a087019490945260c0808701959095528351808703909501855260e09095019092525050805191012090565b6000610f3e8585611002565b905061075c818484611526565b610f53611342565b73ffffffffffffffffffffffffffffffffffffffff8116610ff6576040517f08c379a000000000000000000000000000000000000000000000000000000000815260206004820152602660248201527f4f776e61626c653a206e6577206f776e657220697320746865207a65726f206160448201527f646472657373000000000000000000000000000000000000000000000000000060648201526084016106ae565b610fff816113c3565b50565b600480546040517fcad6b90100000000000000000000000000000000000000000000000000000000815260009273ffffffffffffffffffffffffffffffffffffffff9092169163cad6b9019161105c9186918891016122e5565b602060405180830381865afa158015611079573d6000803e3d6000fd5b505050506040513d601f19601f8201168201806040525081019061109d9190612307565b9392505050565b600480546040517fa9735f9400000000000000000000000000000000000000000000000000000000815291820183905260009173ffffffffffffffffffffffffffffffffffffffff9091169063a9735f9490602401602060405180830381865afa158015611116573d6000803e3d6000fd5b505050506040513d601f19601f820116820180604052508101906105d09190612307565b600085815260066020908152604080832087845282528083208684529091528120805484929061116b908490612320565b909155505060408051858152602081018590529081018390528190869033907f9092bf6bd1cf7db4fcf41aedc7c0333b51c57f5b80b429bc3d9caa5587c6ad829060600160405180910390a45050505050565b610fff81336115cc565b600082815260016020908152604080832073ffffffffffffffffffffffffffffffffffffffff8516845290915290205460ff1661083d57600082815260016020818152604080842073ffffffffffffffffffffffffffffffffffffffff8616808652925280842080547fffffffffffffffffffffffffffffffffffffffffffffffffffffffffffffff00169093179092559051339285917f2f8788117e7eff1d82e926ec794901d17c78024a50270940304540a733656f0d9190a45050565b600082815260016020908152604080832073ffffffffffffffffffffffffffffffffffffffff8516845290915290205460ff161561083d57600082815260016020908152604080832073ffffffffffffffffffffffffffffffffffffffff8516808552925280832080547fffffffffffffffffffffffffffffffffffffffffffffffffffffffffffffff0016905551339285917ff6391f5c32d9c69d2a47ea670b442974b53935d1edc7fd64eb21e047a839171b9190a45050565b60005473ffffffffffffffffffffffffffffffffffffffff163314610a25576040517f08c379a000000000000000000000000000000000000000000000000000000000815260206004820181905260248201527f4f776e61626c653a2063616c6c6572206973206e6f7420746865206f776e657260448201526064016106ae565b6000805473ffffffffffffffffffffffffffffffffffffffff8381167fffffffffffffffffffffffff0000000000000000000000000000000000000000831681178455604051919092169283917f8be0079c531659141344cd1fd0a4f28419497f9722a3daafe3b4186f6b6457e09190a35050565b6000611443876110a4565b9050600061146a888389600760008d8152602001908152602001600020548a8a8a8a611686565b9050600061147789611782565b90508073ffffffffffffffffffffffffffffffffffffffff168273ffffffffffffffffffffffffffffffffffffffff161461150e576040517f08c379a000000000000000000000000000000000000000000000000000000000815260206004820152601b60248201527f5369676e6572206e6f74206f776e6572206f66207265616c6d4964000000000060448201526064016106ae565b61151b89848a8a85611818565b505050505050505050565b600061153184611782565b90503373ffffffffffffffffffffffffffffffffffffffff8216146115b2576040517f08c379a000000000000000000000000000000000000000000000000000000000815260206004820152601b60248201527f5369676e6572206e6f74206f776e6572206f66207265616c6d4964000000000060448201526064016106ae565b60006115bd856110a4565b905061075c8582868633611818565b600082815260016020908152604080832073ffffffffffffffffffffffffffffffffffffffff8516845290915290205460ff1661083d5761160c816119f7565b611617836020611a16565b604051602001611628929190612333565b604080517fffffffffffffffffffffffffffffffffffffffffffffffffffffffffffffffe0818403018152908290527f08c379a00000000000000000000000000000000000000000000000000000000082526106ae916004016123b4565b6002546040805160208082018c90528183018b9052606082018a9052608082019390935260a0810187905260c08082018990528251808303909101815260e08201808452815191850191909120600091829052610100830180855281905260ff88166101208401526101408301879052610160830186905292519093600192610180808201937fffffffffffffffffffffffffffffffffffffffffffffffffffffffffffffffe081019281900390910190855afa15801561174b573d6000803e3d6000fd5b50506040517fffffffffffffffffffffffffffffffffffffffffffffffffffffffffffffffe001519b9a5050505050505050505050565b600480546040517f6352211e000000000000000000000000000000000000000000000000000000008152918201839052600091829173ffffffffffffffffffffffffffffffffffffffff1690636352211e90602401602060405180830381865afa1580156117f4573d6000803e3d6000fd5b505050506040513d601f19601f8201168201806040525081019061109d91906123c7565b600254600090815260066020908152604080832088845282528083208784529091529020548311156118a6576040517f08c379a000000000000000000000000000000000000000000000000000000000815260206004820152601460248201527f496e73756666696369656e742062616c616e636500000000000000000000000060448201526064016106ae565b60008281526008602052604090205460ff1661191e576040517f08c379a000000000000000000000000000000000000000000000000000000000815260206004820152601b60248201527f496e76616c696420636f6e73756d6520726561736f6e20636f6465000000000060448201526064016106ae565b60025460009081526006602090815260408083208884528252808320878452909152812080548592906119529084906123e4565b9091555050600254600086815260076020908152604091829020548251338152918201529081018690526060810185905273ffffffffffffffffffffffffffffffffffffffff8316608082015283919087907fd1255d580f215da0d3a191d00a885ae4716fac76b5813a6c309919fff6078bd19060a00160405180910390a460008581526007602052604081208054916119eb836121fb565b91905055505050505050565b60606105d073ffffffffffffffffffffffffffffffffffffffff831660145b60606000611a258360026123f7565b611a30906002612320565b67ffffffffffffffff811115611a4857611a48611c9b565b6040519080825280601f01601f191660200182016040528015611a72576020820181803683370190505b5090507f300000000000000000000000000000000000000000000000000000000000000081600081518110611aa957611aa961219d565b60200101907effffffffffffffffffffffffffffffffffffffffffffffffffffffffffffff1916908160001a9053507f780000000000000000000000000000000000000000000000000000000000000081600181518110611b0c57611b0c61219d565b60200101907effffffffffffffffffffffffffffffffffffffffffffffffffffffffffffff1916908160001a9053506000611b488460026123f7565b611b53906001612320565b90505b6001811115611bf0577f303132333435363738396162636465660000000000000000000000000000000085600f1660108110611b9457611b9461219d565b1a60f81b828281518110611baa57611baa61219d565b60200101907effffffffffffffffffffffffffffffffffffffffffffffffffffffffffffff1916908160001a90535060049490941c93611be98161240e565b9050611b56565b50831561109d576040517f08c379a000000000000000000000000000000000000000000000000000000000815260206004820181905260248201527f537472696e67733a20686578206c656e67746820696e73756666696369656e7460448201526064016106ae565b600060208284031215611c6b57600080fd5b81357fffffffff000000000000000000000000000000000000000000000000000000008116811461109d57600080fd5b7f4e487b7100000000000000000000000000000000000000000000000000000000600052604160045260246000fd5b604051601f82017fffffffffffffffffffffffffffffffffffffffffffffffffffffffffffffffe016810167ffffffffffffffff81118282101715611d1157611d11611c9b565b604052919050565b600082601f830112611d2a57600080fd5b813567ffffffffffffffff811115611d4457611d44611c9b565b611d7560207fffffffffffffffffffffffffffffffffffffffffffffffffffffffffffffffe0601f84011601611cca565b818152846020838601011115611d8a57600080fd5b816020850160208301376000918101602001919091529392505050565b600080600060608486031215611dbc57600080fd5b8335925060208401359150604084013567ffffffffffffffff811115611de157600080fd5b611ded86828701611d19565b9150509250925092565b600060208284031215611e0957600080fd5b5035919050565b600080600080600060a08688031215611e2857600080fd5b505083359560208501359550604085013594606081013594506080013592509050565b73ffffffffffffffffffffffffffffffffffffffff81168114610fff57600080fd5b60008060408385031215611e8057600080fd5b823591506020830135611e9281611e4b565b809150509250929050565b60006020808385031215611eb057600080fd5b823567ffffffffffffffff80821115611ec857600080fd5b818501915085601f830112611edc57600080fd5b813581811115611eee57611eee611c9b565b8060051b9150611eff848301611cca565b8181529183018401918481019088841115611f1957600080fd5b938501935b83851015611f3757843582529385019390850190611f1e565b98975050505050505050565b60008060408385031215611f5657600080fd5b82359150602083013567ffffffffffffffff811115611f7457600080fd5b611f8085828601611d19565b9150509250929050565b803560ff81168114611f9b57600080fd5b919050565b600080600080600080600060e0888a031215611fbb57600080fd5b87359650602088013567ffffffffffffffff811115611fd957600080fd5b611fe58a828b01611d19565b965050604088013594506060880135935061200260808901611f8a565b925060a0880135915060c0880135905092959891949750929550565b60008060008060008060c0878903121561203757600080fd5b8635955060208701359450604087013567ffffffffffffffff81111561205c57600080fd5b61206889828a01611d19565b945050606087013592506080870135915060a087013590509295509295509295565b6000806040838503121561209d57600080fd5b50508035926020909101359150565b6000806000606084860312156120c157600080fd5b505081359360208301359350604090920135919050565b60008060008060008060c087890312156120f157600080fd5b86359550602087013594506040870135935061210f60608801611f8a565b92506080870135915060a087013590509295509295509295565b6000806000806080858703121561213f57600080fd5b84359350602085013567ffffffffffffffff81111561215d57600080fd5b61216987828801611d19565b949794965050505060408301359260600135919050565b60006020828403121561219257600080fd5b813561109d81611e4b565b7f4e487b7100000000000000000000000000000000000000000000000000000000600052603260045260246000fd5b7f4e487b7100000000000000000000000000000000000000000000000000000000600052601160045260246000fd5b60007fffffffffffffffffffffffffffffffffffffffffffffffffffffffffffffffff820361222c5761222c6121cc565b5060010190565b6020808252825182820181905260009190848201906040850190845b8181101561226b5783518352928401929184019160010161224f565b50909695505050505050565b60005b8381101561229257818101518382015260200161227a565b50506000910152565b600081518084526122b3816020860160208601612277565b601f017fffffffffffffffffffffffffffffffffffffffffffffffffffffffffffffffe0169290920160200192915050565b6040815260006122f8604083018561229b565b90508260208301529392505050565b60006020828403121561231957600080fd5b5051919050565b808201808211156105d0576105d06121cc565b7f416363657373436f6e74726f6c3a206163636f756e742000000000000000000081526000835161236b816017850160208801612277565b7f206973206d697373696e6720726f6c652000000000000000000000000000000060179184019182015283516123a8816028840160208801612277565b01602801949350505050565b60208152600061109d602083018461229b565b6000602082840312156123d957600080fd5b815161109d81611e4b565b818103818111156105d0576105d06121cc565b80820281158282048414176105d0576105d06121cc565b60008161241d5761241d6121cc565b507fffffffffffffffffffffffffffffffffffffffffffffffffffffffffffffffff019056fea264697066735822122081f5031bc3c51911e4b66f08e6b7505aacf4dcea9140fca138d0944be0f853a264736f6c63430008110033","opcodes":"PUSH1 0x80 PUSH1 0x40 MSTORE CALLVALUE DUP1 ISZERO PUSH3 0x11 JUMPI PUSH1 0x0 DUP1 REVERT JUMPDEST POP PUSH1 0x40 MLOAD PUSH3 0x270C CODESIZE SUB DUP1 PUSH3 0x270C DUP4 CODECOPY DUP2 ADD PUSH1 0x40 DUP2 SWAP1 MSTORE PUSH3 0x34 SWAP2 PUSH3 0x24B JUMP JUMPDEST PUSH3 0x3F CALLER PUSH3 0x146 JUMP JUMPDEST PUSH1 0x1 PUSH1 0x1 PUSH1 0xA0 SHL SUB DUP3 AND PUSH3 0x9B JUMPI PUSH1 0x40 MLOAD PUSH3 0x461BCD PUSH1 0xE5 SHL DUP2 MSTORE PUSH1 0x20 PUSH1 0x4 DUP3 ADD MSTORE PUSH1 0x1C PUSH1 0x24 DUP3 ADD MSTORE PUSH32 0x4E6F7420612076616C696420436F6E7472616374204164647265737300000000 PUSH1 0x44 DUP3 ADD MSTORE PUSH1 0x64 ADD JUMPDEST PUSH1 0x40 MLOAD DUP1 SWAP2 SUB SWAP1 REVERT JUMPDEST PUSH1 0x1 PUSH1 0x1 PUSH1 0xA0 SHL SUB DUP2 AND PUSH3 0xF3 JUMPI PUSH1 0x40 MLOAD PUSH3 0x461BCD PUSH1 0xE5 SHL DUP2 MSTORE PUSH1 0x20 PUSH1 0x4 DUP3 ADD MSTORE PUSH1 0x19 PUSH1 0x24 DUP3 ADD MSTORE PUSH32 0x4E6F7420612076616C69642041646D696E204164647265737300000000000000 PUSH1 0x44 DUP3 ADD MSTORE PUSH1 0x64 ADD PUSH3 0x92 JUMP JUMPDEST PUSH3 0x11F PUSH32 0xA49807205CE4D355092EF5A8A18F56E8913CF4A201FBE287825B095693C21775 DUP3 PUSH3 0x196 JUMP JUMPDEST POP PUSH1 0x4 DUP1 SLOAD PUSH1 0x1 PUSH1 0x1 PUSH1 0xA0 SHL SUB NOT AND PUSH1 0x1 PUSH1 0x1 PUSH1 0xA0 SHL SUB SWAP3 SWAP1 SWAP3 AND SWAP2 SWAP1 SWAP2 OR SWAP1 SSTORE PUSH3 0x283 JUMP JUMPDEST PUSH1 0x0 DUP1 SLOAD PUSH1 0x1 PUSH1 0x1 PUSH1 0xA0 SHL SUB DUP4 DUP2 AND PUSH1 0x1 PUSH1 0x1 PUSH1 0xA0 SHL SUB NOT DUP4 AND DUP2 OR DUP5 SSTORE PUSH1 0x40 MLOAD SWAP2 SWAP1 SWAP3 AND SWAP3 DUP4 SWAP2 PUSH32 0x8BE0079C531659141344CD1FD0A4F28419497F9722A3DAAFE3B4186F6B6457E0 SWAP2 SWAP1 LOG3 POP POP JUMP JUMPDEST PUSH3 0x1A2 DUP3 DUP3 PUSH3 0x1A6 JUMP JUMPDEST POP POP JUMP JUMPDEST PUSH1 0x0 DUP3 DUP2 MSTORE PUSH1 0x1 PUSH1 0x20 SWAP1 DUP2 MSTORE PUSH1 0x40 DUP1 DUP4 KECCAK256 PUSH1 0x1 PUSH1 0x1 PUSH1 0xA0 SHL SUB DUP6 AND DUP5 MSTORE SWAP1 SWAP2 MSTORE SWAP1 KECCAK256 SLOAD PUSH1 0xFF AND PUSH3 0x1A2 JUMPI PUSH1 0x0 DUP3 DUP2 MSTORE PUSH1 0x1 PUSH1 0x20 DUP2 DUP2 MSTORE PUSH1 0x40 DUP1 DUP5 KECCAK256 PUSH1 0x1 PUSH1 0x1 PUSH1 0xA0 SHL SUB DUP7 AND DUP1 DUP7 MSTORE SWAP3 MSTORE DUP1 DUP5 KECCAK256 DUP1 SLOAD PUSH1 0xFF NOT AND SWAP1 SWAP4 OR SWAP1 SWAP3 SSTORE SWAP1 MLOAD CALLER SWAP3 DUP6 SWAP2 PUSH32 0x2F8788117E7EFF1D82E926EC794901D17C78024A50270940304540A733656F0D SWAP2 SWAP1 LOG4 POP POP JUMP JUMPDEST DUP1 MLOAD PUSH1 0x1 PUSH1 0x1 PUSH1 0xA0 SHL SUB DUP2 AND DUP2 EQ PUSH3 0x246 JUMPI PUSH1 0x0 DUP1 REVERT JUMPDEST SWAP2 SWAP1 POP JUMP JUMPDEST PUSH1 0x0 DUP1 PUSH1 0x40 DUP4 DUP6 SUB SLT ISZERO PUSH3 0x25F JUMPI PUSH1 0x0 DUP1 REVERT JUMPDEST PUSH3 0x26A DUP4 PUSH3 0x22E JUMP JUMPDEST SWAP2 POP PUSH3 0x27A PUSH1 0x20 DUP5 ADD PUSH3 0x22E JUMP JUMPDEST SWAP1 POP SWAP3 POP SWAP3 SWAP1 POP JUMP JUMPDEST PUSH2 0x2479 DUP1 PUSH3 0x293 PUSH1 0x0 CODECOPY PUSH1 0x0 RETURN INVALID PUSH1 0x80 PUSH1 0x40 MSTORE CALLVALUE DUP1 ISZERO PUSH2 0x10 JUMPI PUSH1 0x0 DUP1 REVERT JUMPDEST POP PUSH1 0x4 CALLDATASIZE LT PUSH2 0x1F0 JUMPI PUSH1 0x0 CALLDATALOAD PUSH1 0xE0 SHR DUP1 PUSH4 0x91D14854 GT PUSH2 0x10F JUMPI DUP1 PUSH4 0xC0542CFA GT PUSH2 0xA2 JUMPI DUP1 PUSH4 0xDF00BB24 GT PUSH2 0x71 JUMPI DUP1 PUSH4 0xDF00BB24 EQ PUSH2 0x4E4 JUMPI DUP1 PUSH4 0xE564A0E2 EQ PUSH2 0x4F7 JUMPI DUP1 PUSH4 0xF2FDE38B EQ PUSH2 0x50A JUMPI DUP1 PUSH4 0xFC6F9468 EQ PUSH2 0x51D JUMPI PUSH1 0x0 DUP1 REVERT JUMPDEST DUP1 PUSH4 0xC0542CFA EQ PUSH2 0x488 JUMPI DUP1 PUSH4 0xD14A5C71 EQ PUSH2 0x4AB JUMPI DUP1 PUSH4 0xD547741F EQ PUSH2 0x4BE JUMPI DUP1 PUSH4 0xDC893CE4 EQ PUSH2 0x4D1 JUMPI PUSH1 0x0 DUP1 REVERT JUMPDEST DUP1 PUSH4 0xA217FDDF GT PUSH2 0xDE JUMPI DUP1 PUSH4 0xA217FDDF EQ PUSH2 0x43D JUMPI DUP1 PUSH4 0xA3B0B5A3 EQ PUSH2 0x445 JUMPI DUP1 PUSH4 0xAD3B1D48 EQ PUSH2 0x46C JUMPI DUP1 PUSH4 0xBCB39621 EQ PUSH2 0x47F JUMPI PUSH1 0x0 DUP1 REVERT JUMPDEST DUP1 PUSH4 0x91D14854 EQ PUSH2 0x3BE JUMPI DUP1 PUSH4 0x99D342AC EQ PUSH2 0x404 JUMPI DUP1 PUSH4 0x9CC7F708 EQ PUSH2 0x417 JUMPI DUP1 PUSH4 0x9D70B005 EQ PUSH2 0x42A JUMPI PUSH1 0x0 DUP1 REVERT JUMPDEST DUP1 PUSH4 0x3F30B00F GT PUSH2 0x187 JUMPI DUP1 PUSH4 0x794459BE GT PUSH2 0x156 JUMPI DUP1 PUSH4 0x794459BE EQ PUSH2 0x367 JUMPI DUP1 PUSH4 0x86A8E98A EQ PUSH2 0x37A JUMPI DUP1 PUSH4 0x8DA5CB5B EQ PUSH2 0x38D JUMPI DUP1 PUSH4 0x906405A3 EQ PUSH2 0x3AB JUMPI PUSH1 0x0 DUP1 REVERT JUMPDEST DUP1 PUSH4 0x3F30B00F EQ PUSH2 0x302 JUMPI DUP1 PUSH4 0x4529CC1B EQ PUSH2 0x315 JUMPI DUP1 PUSH4 0x715018A6 EQ PUSH2 0x338 JUMPI DUP1 PUSH4 0x75B238FC EQ PUSH2 0x340 JUMPI PUSH1 0x0 DUP1 REVERT JUMPDEST DUP1 PUSH4 0x248A9CA3 GT PUSH2 0x1C3 JUMPI DUP1 PUSH4 0x248A9CA3 EQ PUSH2 0x273 JUMPI DUP1 PUSH4 0x2B48DC72 EQ PUSH2 0x297 JUMPI DUP1 PUSH4 0x2F2FF15D EQ PUSH2 0x2DC JUMPI DUP1 PUSH4 0x36568ABE EQ PUSH2 0x2EF JUMPI PUSH1 0x0 DUP1 REVERT JUMPDEST DUP1 PUSH4 0x1FFC9A7 EQ PUSH2 0x1F5 JUMPI DUP1 PUSH4 0x98B6419 EQ PUSH2 0x21D JUMPI DUP1 PUSH4 0x141A468C EQ PUSH2 0x23E JUMPI DUP1 PUSH4 0x18EE89F0 EQ PUSH2 0x25E JUMPI JUMPDEST PUSH1 0x0 DUP1 REVERT JUMPDEST PUSH2 0x208 PUSH2 0x203 CALLDATASIZE PUSH1 0x4 PUSH2 0x1C59 JUMP JUMPDEST PUSH2 0x53D JUMP JUMPDEST PUSH1 0x40 MLOAD SWAP1 ISZERO ISZERO DUP2 MSTORE PUSH1 0x20 ADD JUMPDEST PUSH1 0x40 MLOAD DUP1 SWAP2 SUB SWAP1 RETURN JUMPDEST PUSH2 0x230 PUSH2 0x22B CALLDATASIZE PUSH1 0x4 PUSH2 0x1DA7 JUMP JUMPDEST PUSH2 0x5D6 JUMP JUMPDEST PUSH1 0x40 MLOAD SWAP1 DUP2 MSTORE PUSH1 0x20 ADD PUSH2 0x214 JUMP JUMPDEST PUSH2 0x230 PUSH2 0x24C CALLDATASIZE PUSH1 0x4 PUSH2 0x1DF7 JUMP JUMPDEST PUSH1 0x7 PUSH1 0x20 MSTORE PUSH1 0x0 SWAP1 DUP2 MSTORE PUSH1 0x40 SWAP1 KECCAK256 SLOAD DUP2 JUMP JUMPDEST PUSH2 0x271 PUSH2 0x26C CALLDATASIZE PUSH1 0x4 PUSH2 0x1E10 JUMP JUMPDEST PUSH2 0x61A JUMP JUMPDEST STOP JUMPDEST PUSH2 0x230 PUSH2 0x281 CALLDATASIZE PUSH1 0x4 PUSH2 0x1DF7 JUMP JUMPDEST PUSH1 0x0 SWAP1 DUP2 MSTORE PUSH1 0x1 PUSH1 0x20 DUP2 SWAP1 MSTORE PUSH1 0x40 SWAP1 SWAP2 KECCAK256 ADD SLOAD SWAP1 JUMP JUMPDEST PUSH1 0x4 SLOAD PUSH2 0x2B7 SWAP1 PUSH20 0xFFFFFFFFFFFFFFFFFFFFFFFFFFFFFFFFFFFFFFFF AND DUP2 JUMP JUMPDEST PUSH1 0x40 MLOAD PUSH20 0xFFFFFFFFFFFFFFFFFFFFFFFFFFFFFFFFFFFFFFFF SWAP1 SWAP2 AND DUP2 MSTORE PUSH1 0x20 ADD PUSH2 0x214 JUMP JUMPDEST PUSH2 0x271 PUSH2 0x2EA CALLDATASIZE PUSH1 0x4 PUSH2 0x1E6D JUMP JUMPDEST PUSH2 0x763 JUMP JUMPDEST PUSH2 0x271 PUSH2 0x2FD CALLDATASIZE PUSH1 0x4 PUSH2 0x1E6D JUMP JUMPDEST PUSH2 0x78E JUMP JUMPDEST PUSH2 0x271 PUSH2 0x310 CALLDATASIZE PUSH1 0x4 PUSH2 0x1E9D JUMP JUMPDEST PUSH2 0x841 JUMP JUMPDEST PUSH2 0x208 PUSH2 0x323 CALLDATASIZE PUSH1 0x4 PUSH2 0x1DF7 JUMP JUMPDEST PUSH1 0x3 PUSH1 0x20 MSTORE PUSH1 0x0 SWAP1 DUP2 MSTORE PUSH1 0x40 SWAP1 KECCAK256 SLOAD PUSH1 0xFF AND DUP2 JUMP JUMPDEST PUSH2 0x271 PUSH2 0xA13 JUMP JUMPDEST PUSH2 0x230 PUSH32 0xA49807205CE4D355092EF5A8A18F56E8913CF4A201FBE287825B095693C21775 DUP2 JUMP JUMPDEST PUSH2 0x230 PUSH2 0x375 CALLDATASIZE PUSH1 0x4 PUSH2 0x1F43 JUMP JUMPDEST PUSH2 0xA27 JUMP JUMPDEST PUSH2 0x271 PUSH2 0x388 CALLDATASIZE PUSH1 0x4 PUSH2 0x1DF7 JUMP JUMPDEST PUSH2 0xA72 JUMP JUMPDEST PUSH1 0x0 SLOAD PUSH20 0xFFFFFFFFFFFFFFFFFFFFFFFFFFFFFFFFFFFFFFFF AND PUSH2 0x2B7 JUMP JUMPDEST PUSH2 0x271 PUSH2 0x3B9 CALLDATASIZE PUSH1 0x4 PUSH2 0x1E9D JUMP JUMPDEST PUSH2 0xBF1 JUMP JUMPDEST PUSH2 0x208 PUSH2 0x3CC CALLDATASIZE PUSH1 0x4 PUSH2 0x1E6D JUMP JUMPDEST PUSH1 0x0 SWAP2 DUP3 MSTORE PUSH1 0x1 PUSH1 0x20 SWAP1 DUP2 MSTORE PUSH1 0x40 DUP1 DUP5 KECCAK256 PUSH20 0xFFFFFFFFFFFFFFFFFFFFFFFFFFFFFFFFFFFFFFFF SWAP4 SWAP1 SWAP4 AND DUP5 MSTORE SWAP2 SWAP1 MSTORE SWAP1 KECCAK256 SLOAD PUSH1 0xFF AND SWAP1 JUMP JUMPDEST PUSH2 0x271 PUSH2 0x412 CALLDATASIZE PUSH1 0x4 PUSH2 0x1FA0 JUMP JUMPDEST PUSH2 0xD2D JUMP JUMPDEST PUSH2 0x230 PUSH2 0x425 CALLDATASIZE PUSH1 0x4 PUSH2 0x1DF7 JUMP JUMPDEST PUSH2 0xD53 JUMP JUMPDEST PUSH2 0x271 PUSH2 0x438 CALLDATASIZE PUSH1 0x4 PUSH2 0x201E JUMP JUMPDEST PUSH2 0xD8E JUMP JUMPDEST PUSH2 0x230 PUSH1 0x0 DUP2 JUMP JUMPDEST PUSH2 0x230 PUSH32 0x8F4F2DA22E8AC8F11E15F9FC141CDDBB5DEEA8800186560ABB6E68C5496619A9 DUP2 JUMP JUMPDEST PUSH2 0x230 PUSH2 0x47A CALLDATASIZE PUSH1 0x4 PUSH2 0x208A JUMP JUMPDEST PUSH2 0xE4A JUMP JUMPDEST PUSH2 0x230 PUSH1 0x2 SLOAD DUP2 JUMP JUMPDEST PUSH2 0x208 PUSH2 0x496 CALLDATASIZE PUSH1 0x4 PUSH2 0x1DF7 JUMP JUMPDEST PUSH1 0x0 SWAP1 DUP2 MSTORE PUSH1 0x8 PUSH1 0x20 MSTORE PUSH1 0x40 SWAP1 KECCAK256 SLOAD PUSH1 0xFF AND SWAP1 JUMP JUMPDEST PUSH2 0x271 PUSH2 0x4B9 CALLDATASIZE PUSH1 0x4 PUSH2 0x20AC JUMP JUMPDEST PUSH2 0xE7C JUMP JUMPDEST PUSH2 0x271 PUSH2 0x4CC CALLDATASIZE PUSH1 0x4 PUSH2 0x1E6D JUMP JUMPDEST PUSH2 0xE87 JUMP JUMPDEST PUSH2 0x271 PUSH2 0x4DF CALLDATASIZE PUSH1 0x4 PUSH2 0x20D8 JUMP JUMPDEST PUSH2 0xEAD JUMP JUMPDEST PUSH2 0x230 PUSH2 0x4F2 CALLDATASIZE PUSH1 0x4 PUSH2 0x20AC JUMP JUMPDEST PUSH2 0xEC3 JUMP JUMPDEST PUSH2 0x271 PUSH2 0x505 CALLDATASIZE PUSH1 0x4 PUSH2 0x2129 JUMP JUMPDEST PUSH2 0xF32 JUMP JUMPDEST PUSH2 0x271 PUSH2 0x518 CALLDATASIZE PUSH1 0x4 PUSH2 0x2180 JUMP JUMPDEST PUSH2 0xF4B JUMP JUMPDEST PUSH1 0x5 SLOAD PUSH2 0x2B7 SWAP1 PUSH20 0xFFFFFFFFFFFFFFFFFFFFFFFFFFFFFFFFFFFFFFFF AND DUP2 JUMP JUMPDEST PUSH1 0x0 PUSH32 0xFFFFFFFF00000000000000000000000000000000000000000000000000000000 DUP3 AND PUSH32 0x7965DB0B00000000000000000000000000000000000000000000000000000000 EQ DUP1 PUSH2 0x5D0 JUMPI POP PUSH32 0x1FFC9A700000000000000000000000000000000000000000000000000000000 PUSH32 0xFFFFFFFF00000000000000000000000000000000000000000000000000000000 DUP4 AND EQ JUMPDEST SWAP3 SWAP2 POP POP JUMP JUMPDEST PUSH1 0x0 DUP1 PUSH2 0x5E3 DUP5 DUP5 PUSH2 0x1002 JUMP JUMPDEST SWAP1 POP PUSH1 0x0 PUSH2 0x5F0 DUP3 PUSH2 0x10A4 JUMP JUMPDEST PUSH1 0x0 SWAP7 DUP8 MSTORE PUSH1 0x6 PUSH1 0x20 SWAP1 DUP2 MSTORE PUSH1 0x40 DUP1 DUP10 KECCAK256 SWAP5 DUP10 MSTORE SWAP4 DUP2 MSTORE DUP4 DUP9 KECCAK256 SWAP2 DUP9 MSTORE MSTORE POP SWAP1 SWAP4 KECCAK256 SLOAD SWAP4 SWAP3 POP POP POP JUMP JUMPDEST CALLER PUSH1 0x0 SWAP1 DUP2 MSTORE PUSH32 0x307E01C7B3E8B810ADA5A97216BCF610DD89EDEEE748C1C377638B2D5E7D226E PUSH1 0x20 MSTORE PUSH1 0x40 SWAP1 KECCAK256 SLOAD PUSH1 0xFF AND PUSH2 0x6B7 JUMPI PUSH1 0x40 MLOAD PUSH32 0x8C379A000000000000000000000000000000000000000000000000000000000 DUP2 MSTORE PUSH1 0x20 PUSH1 0x4 DUP3 ADD MSTORE PUSH1 0xF PUSH1 0x24 DUP3 ADD MSTORE PUSH32 0x4E6F742061206465706F7369746F720000000000000000000000000000000000 PUSH1 0x44 DUP3 ADD MSTORE PUSH1 0x64 ADD JUMPDEST PUSH1 0x40 MLOAD DUP1 SWAP2 SUB SWAP1 REVERT JUMPDEST CALLER PUSH1 0x0 SWAP1 DUP2 MSTORE PUSH32 0x307E01C7B3E8B810ADA5A97216BCF610DD89EDEEE748C1C377638B2D5E7D226E PUSH1 0x20 MSTORE PUSH1 0x40 SWAP1 KECCAK256 SLOAD PUSH1 0xFF AND PUSH2 0x74F JUMPI PUSH1 0x40 MLOAD PUSH32 0x8C379A000000000000000000000000000000000000000000000000000000000 DUP2 MSTORE PUSH1 0x20 PUSH1 0x4 DUP3 ADD MSTORE PUSH1 0xF PUSH1 0x24 DUP3 ADD MSTORE PUSH32 0x4E6F742061206465706F7369746F720000000000000000000000000000000000 PUSH1 0x44 DUP3 ADD MSTORE PUSH1 0x64 ADD PUSH2 0x6AE JUMP JUMPDEST PUSH2 0x75C DUP6 DUP6 DUP6 DUP6 DUP6 PUSH2 0x113A JUMP JUMPDEST POP POP POP POP POP JUMP JUMPDEST PUSH1 0x0 DUP3 DUP2 MSTORE PUSH1 0x1 PUSH1 0x20 DUP2 SWAP1 MSTORE PUSH1 0x40 SWAP1 SWAP2 KECCAK256 ADD SLOAD PUSH2 0x77F DUP2 PUSH2 0x11BE JUMP JUMPDEST PUSH2 0x789 DUP4 DUP4 PUSH2 0x11C8 JUMP JUMPDEST POP POP POP JUMP JUMPDEST PUSH20 0xFFFFFFFFFFFFFFFFFFFFFFFFFFFFFFFFFFFFFFFF DUP2 AND CALLER EQ PUSH2 0x833 JUMPI PUSH1 0x40 MLOAD PUSH32 0x8C379A000000000000000000000000000000000000000000000000000000000 DUP2 MSTORE PUSH1 0x20 PUSH1 0x4 DUP3 ADD MSTORE PUSH1 0x2F PUSH1 0x24 DUP3 ADD MSTORE PUSH32 0x416363657373436F6E74726F6C3A2063616E206F6E6C792072656E6F756E6365 PUSH1 0x44 DUP3 ADD MSTORE PUSH32 0x20726F6C657320666F722073656C660000000000000000000000000000000000 PUSH1 0x64 DUP3 ADD MSTORE PUSH1 0x84 ADD PUSH2 0x6AE JUMP JUMPDEST PUSH2 0x83D DUP3 DUP3 PUSH2 0x1287 JUMP JUMPDEST POP POP JUMP JUMPDEST CALLER PUSH1 0x0 SWAP1 DUP2 MSTORE PUSH32 0x50EFBDE2D46C37E9785F1791697F77E94BB7B701E19F1930A668820722D37694 PUSH1 0x20 MSTORE PUSH1 0x40 SWAP1 KECCAK256 SLOAD PUSH1 0xFF AND PUSH2 0x8D9 JUMPI PUSH1 0x40 MLOAD PUSH32 0x8C379A000000000000000000000000000000000000000000000000000000000 DUP2 MSTORE PUSH1 0x20 PUSH1 0x4 DUP3 ADD MSTORE PUSH1 0xC PUSH1 0x24 DUP3 ADD MSTORE PUSH32 0x4E6F7420616E2061646D696E0000000000000000000000000000000000000000 PUSH1 0x44 DUP3 ADD MSTORE PUSH1 0x64 ADD PUSH2 0x6AE JUMP JUMPDEST PUSH1 0x0 JUMPDEST DUP2 MLOAD DUP2 LT ISZERO PUSH2 0x9D8 JUMPI PUSH1 0x8 PUSH1 0x0 DUP4 DUP4 DUP2 MLOAD DUP2 LT PUSH2 0x8FB JUMPI PUSH2 0x8FB PUSH2 0x219D JUMP JUMPDEST PUSH1 0x20 SWAP1 DUP2 MUL SWAP2 SWAP1 SWAP2 ADD DUP2 ADD MLOAD DUP3 MSTORE DUP2 ADD SWAP2 SWAP1 SWAP2 MSTORE PUSH1 0x40 ADD PUSH1 0x0 KECCAK256 SLOAD PUSH1 0xFF AND ISZERO PUSH2 0x980 JUMPI PUSH1 0x40 MLOAD PUSH32 0x8C379A000000000000000000000000000000000000000000000000000000000 DUP2 MSTORE PUSH1 0x20 PUSH1 0x4 DUP3 ADD MSTORE PUSH1 0x1A PUSH1 0x24 DUP3 ADD MSTORE PUSH32 0x526561736F6E20636F646520616C726561647920657869737473000000000000 PUSH1 0x44 DUP3 ADD MSTORE PUSH1 0x64 ADD PUSH2 0x6AE JUMP JUMPDEST PUSH1 0x1 PUSH1 0x8 PUSH1 0x0 DUP5 DUP5 DUP2 MLOAD DUP2 LT PUSH2 0x998 JUMPI PUSH2 0x998 PUSH2 0x219D JUMP JUMPDEST PUSH1 0x20 MUL PUSH1 0x20 ADD ADD MLOAD DUP2 MSTORE PUSH1 0x20 ADD SWAP1 DUP2 MSTORE PUSH1 0x20 ADD PUSH1 0x0 KECCAK256 PUSH1 0x0 PUSH2 0x100 EXP DUP2 SLOAD DUP2 PUSH1 0xFF MUL NOT AND SWAP1 DUP4 ISZERO ISZERO MUL OR SWAP1 SSTORE POP DUP1 DUP1 PUSH2 0x9D0 SWAP1 PUSH2 0x21FB JUMP JUMPDEST SWAP2 POP POP PUSH2 0x8DC JUMP JUMPDEST POP PUSH32 0xD8C56A8918EC09C2FE3C4D9FCC00ECE66DF217A1AB3AD768DD0A71620DA5B4E DUP2 PUSH1 0x40 MLOAD PUSH2 0xA08 SWAP2 SWAP1 PUSH2 0x2233 JUMP JUMPDEST PUSH1 0x40 MLOAD DUP1 SWAP2 SUB SWAP1 LOG1 POP JUMP JUMPDEST PUSH2 0xA1B PUSH2 0x1342 JUMP JUMPDEST PUSH2 0xA25 PUSH1 0x0 PUSH2 0x13C3 JUMP JUMPDEST JUMP JUMPDEST PUSH1 0x0 DUP1 PUSH2 0xA34 DUP5 DUP5 PUSH2 0x1002 JUMP JUMPDEST SWAP1 POP PUSH1 0x0 PUSH2 0xA41 DUP3 PUSH2 0x10A4 JUMP JUMPDEST PUSH1 0x2 SLOAD PUSH1 0x0 SWAP1 DUP2 MSTORE PUSH1 0x6 PUSH1 0x20 SWAP1 DUP2 MSTORE PUSH1 0x40 DUP1 DUP4 KECCAK256 SWAP6 DUP4 MSTORE SWAP5 DUP2 MSTORE DUP5 DUP3 KECCAK256 SWAP3 DUP3 MSTORE SWAP2 SWAP1 SWAP2 MSTORE SWAP2 SWAP1 SWAP2 KECCAK256 SLOAD SWAP5 SWAP4 POP POP POP POP JUMP JUMPDEST CALLER PUSH1 0x0 SWAP1 DUP2 MSTORE PUSH32 0x50EFBDE2D46C37E9785F1791697F77E94BB7B701E19F1930A668820722D37694 PUSH1 0x20 MSTORE PUSH1 0x40 SWAP1 KECCAK256 SLOAD PUSH1 0xFF AND PUSH2 0xB0A JUMPI PUSH1 0x40 MLOAD PUSH32 0x8C379A000000000000000000000000000000000000000000000000000000000 DUP2 MSTORE PUSH1 0x20 PUSH1 0x4 DUP3 ADD MSTORE PUSH1 0xC PUSH1 0x24 DUP3 ADD MSTORE PUSH32 0x4E6F7420616E2061646D696E0000000000000000000000000000000000000000 PUSH1 0x44 DUP3 ADD MSTORE PUSH1 0x64 ADD PUSH2 0x6AE JUMP JUMPDEST PUSH1 0x0 DUP2 DUP2 MSTORE PUSH1 0x3 PUSH1 0x20 MSTORE PUSH1 0x40 SWAP1 KECCAK256 SLOAD PUSH1 0xFF AND ISZERO PUSH2 0xB83 JUMPI PUSH1 0x40 MLOAD PUSH32 0x8C379A000000000000000000000000000000000000000000000000000000000 DUP2 MSTORE PUSH1 0x20 PUSH1 0x4 DUP3 ADD MSTORE PUSH1 0x12 PUSH1 0x24 DUP3 ADD MSTORE PUSH32 0x536561736F6E20616C7265616479207365740000000000000000000000000000 PUSH1 0x44 DUP3 ADD MSTORE PUSH1 0x64 ADD PUSH2 0x6AE JUMP JUMPDEST PUSH1 0x2 DUP2 SWAP1 SSTORE PUSH1 0x0 DUP2 DUP2 MSTORE PUSH1 0x3 PUSH1 0x20 MSTORE PUSH1 0x40 SWAP1 DUP2 SWAP1 KECCAK256 DUP1 SLOAD PUSH32 0xFFFFFFFFFFFFFFFFFFFFFFFFFFFFFFFFFFFFFFFFFFFFFFFFFFFFFFFFFFFFFF00 AND PUSH1 0x1 OR SWAP1 SSTORE MLOAD PUSH32 0x61228C895F8BA06548597D3E34A23BC0ECB6D1E62A1EB3FA30BE04883A17EF31 SWAP1 PUSH2 0xA08 SWAP1 DUP4 DUP2 MSTORE PUSH1 0x20 ADD SWAP1 JUMP JUMPDEST CALLER PUSH1 0x0 SWAP1 DUP2 MSTORE PUSH32 0x50EFBDE2D46C37E9785F1791697F77E94BB7B701E19F1930A668820722D37694 PUSH1 0x20 MSTORE PUSH1 0x40 SWAP1 KECCAK256 SLOAD PUSH1 0xFF AND PUSH2 0xC89 JUMPI PUSH1 0x40 MLOAD PUSH32 0x8C379A000000000000000000000000000000000000000000000000000000000 DUP2 MSTORE PUSH1 0x20 PUSH1 0x4 DUP3 ADD MSTORE PUSH1 0xC PUSH1 0x24 DUP3 ADD MSTORE PUSH32 0x4E6F7420616E2061646D696E0000000000000000000000000000000000000000 PUSH1 0x44 DUP3 ADD MSTORE PUSH1 0x64 ADD PUSH2 0x6AE JUMP JUMPDEST PUSH1 0x0 JUMPDEST DUP2 MLOAD DUP2 LT ISZERO PUSH2 0xCFD JUMPI PUSH1 0x8 PUSH1 0x0 DUP4 DUP4 DUP2 MLOAD DUP2 LT PUSH2 0xCAB JUMPI PUSH2 0xCAB PUSH2 0x219D JUMP JUMPDEST PUSH1 0x20 SWAP1 DUP2 MUL SWAP2 SWAP1 SWAP2 ADD DUP2 ADD MLOAD DUP3 MSTORE DUP2 ADD SWAP2 SWAP1 SWAP2 MSTORE PUSH1 0x40 ADD PUSH1 0x0 KECCAK256 DUP1 SLOAD PUSH32 0xFFFFFFFFFFFFFFFFFFFFFFFFFFFFFFFFFFFFFFFFFFFFFFFFFFFFFFFFFFFFFF00 AND SWAP1 SSTORE DUP1 PUSH2 0xCF5 DUP2 PUSH2 0x21FB JUMP JUMPDEST SWAP2 POP POP PUSH2 0xC8C JUMP JUMPDEST POP PUSH32 0x5B2C9FCBB27D48BDBFC59F0564B5BA81539309EBF09A940FAD64D171BCFB9FF9 DUP2 PUSH1 0x40 MLOAD PUSH2 0xA08 SWAP2 SWAP1 PUSH2 0x2233 JUMP JUMPDEST PUSH1 0x0 PUSH2 0xD39 DUP9 DUP9 PUSH2 0x1002 JUMP JUMPDEST SWAP1 POP PUSH2 0xD49 DUP2 DUP8 DUP8 DUP8 DUP8 DUP8 PUSH2 0x1438 JUMP JUMPDEST POP POP POP POP POP POP POP POP JUMP JUMPDEST PUSH1 0x0 DUP1 PUSH2 0xD5F DUP4 PUSH2 0x10A4 JUMP JUMPDEST PUSH1 0x2 SLOAD PUSH1 0x0 SWAP1 DUP2 MSTORE PUSH1 0x6 PUSH1 0x20 SWAP1 DUP2 MSTORE PUSH1 0x40 DUP1 DUP4 KECCAK256 SWAP7 DUP4 MSTORE SWAP6 DUP2 MSTORE DUP6 DUP3 KECCAK256 SWAP3 DUP3 MSTORE SWAP2 SWAP1 SWAP2 MSTORE SWAP3 SWAP1 SWAP3 KECCAK256 SLOAD SWAP3 SWAP2 POP POP JUMP JUMPDEST CALLER PUSH1 0x0 SWAP1 DUP2 MSTORE PUSH32 0x307E01C7B3E8B810ADA5A97216BCF610DD89EDEEE748C1C377638B2D5E7D226E PUSH1 0x20 MSTORE PUSH1 0x40 SWAP1 KECCAK256 SLOAD PUSH1 0xFF AND PUSH2 0xE26 JUMPI PUSH1 0x40 MLOAD PUSH32 0x8C379A000000000000000000000000000000000000000000000000000000000 DUP2 MSTORE PUSH1 0x20 PUSH1 0x4 DUP3 ADD MSTORE PUSH1 0xF PUSH1 0x24 DUP3 ADD MSTORE PUSH32 0x4E6F742061206465706F7369746F720000000000000000000000000000000000 PUSH1 0x44 DUP3 ADD MSTORE PUSH1 0x64 ADD PUSH2 0x6AE JUMP JUMPDEST PUSH1 0x0 PUSH2 0xE32 DUP7 DUP7 PUSH2 0x1002 JUMP JUMPDEST SWAP1 POP PUSH2 0xE41 DUP8 DUP3 DUP7 DUP7 DUP7 PUSH2 0x113A JUMP JUMPDEST POP POP POP POP POP POP POP JUMP JUMPDEST PUSH1 0x0 DUP1 PUSH2 0xE56 DUP4 PUSH2 0x10A4 JUMP JUMPDEST PUSH1 0x0 SWAP5 DUP6 MSTORE PUSH1 0x6 PUSH1 0x20 SWAP1 DUP2 MSTORE PUSH1 0x40 DUP1 DUP8 KECCAK256 SWAP6 DUP8 MSTORE SWAP5 DUP2 MSTORE DUP5 DUP7 KECCAK256 SWAP2 DUP7 MSTORE MSTORE POP POP SWAP1 KECCAK256 SLOAD SWAP1 JUMP JUMPDEST PUSH2 0x789 DUP4 DUP4 DUP4 PUSH2 0x1526 JUMP JUMPDEST PUSH1 0x0 DUP3 DUP2 MSTORE PUSH1 0x1 PUSH1 0x20 DUP2 SWAP1 MSTORE PUSH1 0x40 SWAP1 SWAP2 KECCAK256 ADD SLOAD PUSH2 0xEA3 DUP2 PUSH2 0x11BE JUMP JUMPDEST PUSH2 0x789 DUP4 DUP4 PUSH2 0x1287 JUMP JUMPDEST PUSH2 0xEBB DUP7 DUP7 DUP7 DUP7 DUP7 DUP7 PUSH2 0x1438 JUMP JUMPDEST POP POP POP POP POP POP JUMP JUMPDEST PUSH1 0x0 DUP1 PUSH2 0xECF DUP6 PUSH2 0x10A4 JUMP JUMPDEST PUSH1 0x0 DUP7 DUP2 MSTORE PUSH1 0x7 PUSH1 0x20 SWAP1 DUP2 MSTORE PUSH1 0x40 SWAP2 DUP3 SWAP1 KECCAK256 SLOAD PUSH1 0x2 SLOAD DUP4 MLOAD DUP1 DUP5 ADD SWAP11 SWAP1 SWAP11 MSTORE DUP10 DUP5 ADD SWAP5 SWAP1 SWAP5 MSTORE PUSH1 0x60 DUP10 ADD SWAP8 SWAP1 SWAP8 MSTORE PUSH1 0x80 DUP9 ADD SWAP3 SWAP1 SWAP3 MSTORE PUSH1 0xA0 DUP8 ADD SWAP5 SWAP1 SWAP5 MSTORE PUSH1 0xC0 DUP1 DUP8 ADD SWAP6 SWAP1 SWAP6 MSTORE DUP4 MLOAD DUP1 DUP8 SUB SWAP1 SWAP6 ADD DUP6 MSTORE PUSH1 0xE0 SWAP1 SWAP6 ADD SWAP1 SWAP3 MSTORE POP POP DUP1 MLOAD SWAP2 ADD KECCAK256 SWAP1 JUMP JUMPDEST PUSH1 0x0 PUSH2 0xF3E DUP6 DUP6 PUSH2 0x1002 JUMP JUMPDEST SWAP1 POP PUSH2 0x75C DUP2 DUP5 DUP5 PUSH2 0x1526 JUMP JUMPDEST PUSH2 0xF53 PUSH2 0x1342 JUMP JUMPDEST PUSH20 0xFFFFFFFFFFFFFFFFFFFFFFFFFFFFFFFFFFFFFFFF DUP2 AND PUSH2 0xFF6 JUMPI PUSH1 0x40 MLOAD PUSH32 0x8C379A000000000000000000000000000000000000000000000000000000000 DUP2 MSTORE PUSH1 0x20 PUSH1 0x4 DUP3 ADD MSTORE PUSH1 0x26 PUSH1 0x24 DUP3 ADD MSTORE PUSH32 0x4F776E61626C653A206E6577206F776E657220697320746865207A65726F2061 PUSH1 0x44 DUP3 ADD MSTORE PUSH32 0x6464726573730000000000000000000000000000000000000000000000000000 PUSH1 0x64 DUP3 ADD MSTORE PUSH1 0x84 ADD PUSH2 0x6AE JUMP JUMPDEST PUSH2 0xFFF DUP2 PUSH2 0x13C3 JUMP JUMPDEST POP JUMP JUMPDEST PUSH1 0x4 DUP1 SLOAD PUSH1 0x40 MLOAD PUSH32 0xCAD6B90100000000000000000000000000000000000000000000000000000000 DUP2 MSTORE PUSH1 0x0 SWAP3 PUSH20 0xFFFFFFFFFFFFFFFFFFFFFFFFFFFFFFFFFFFFFFFF SWAP1 SWAP3 AND SWAP2 PUSH4 0xCAD6B901 SWAP2 PUSH2 0x105C SWAP2 DUP7 SWAP2 DUP9 SWAP2 ADD PUSH2 0x22E5 JUMP JUMPDEST PUSH1 0x20 PUSH1 0x40 MLOAD DUP1 DUP4 SUB DUP2 DUP7 GAS STATICCALL ISZERO DUP1 ISZERO PUSH2 0x1079 JUMPI RETURNDATASIZE PUSH1 0x0 DUP1 RETURNDATACOPY RETURNDATASIZE PUSH1 0x0 REVERT JUMPDEST POP POP POP POP PUSH1 0x40 MLOAD RETURNDATASIZE PUSH1 0x1F NOT PUSH1 0x1F DUP3 ADD AND DUP3 ADD DUP1 PUSH1 0x40 MSTORE POP DUP2 ADD SWAP1 PUSH2 0x109D SWAP2 SWAP1 PUSH2 0x2307 JUMP JUMPDEST SWAP4 SWAP3 POP POP POP JUMP JUMPDEST PUSH1 0x4 DUP1 SLOAD PUSH1 0x40 MLOAD PUSH32 0xA9735F9400000000000000000000000000000000000000000000000000000000 DUP2 MSTORE SWAP2 DUP3 ADD DUP4 SWAP1 MSTORE PUSH1 0x0 SWAP2 PUSH20 0xFFFFFFFFFFFFFFFFFFFFFFFFFFFFFFFFFFFFFFFF SWAP1 SWAP2 AND SWAP1 PUSH4 0xA9735F94 SWAP1 PUSH1 0x24 ADD PUSH1 0x20 PUSH1 0x40 MLOAD DUP1 DUP4 SUB DUP2 DUP7 GAS STATICCALL ISZERO DUP1 ISZERO PUSH2 0x1116 JUMPI RETURNDATASIZE PUSH1 0x0 DUP1 RETURNDATACOPY RETURNDATASIZE PUSH1 0x0 REVERT JUMPDEST POP POP POP POP PUSH1 0x40 MLOAD RETURNDATASIZE PUSH1 0x1F NOT PUSH1 0x1F DUP3 ADD AND DUP3 ADD DUP1 PUSH1 0x40 MSTORE POP DUP2 ADD SWAP1 PUSH2 0x5D0 SWAP2 SWAP1 PUSH2 0x2307 JUMP JUMPDEST PUSH1 0x0 DUP6 DUP2 MSTORE PUSH1 0x6 PUSH1 0x20 SWAP1 DUP2 MSTORE PUSH1 0x40 DUP1 DUP4 KECCAK256 DUP8 DUP5 MSTORE DUP3 MSTORE DUP1 DUP4 KECCAK256 DUP7 DUP5 MSTORE SWAP1 SWAP2 MSTORE DUP2 KECCAK256 DUP1 SLOAD DUP5 SWAP3 SWAP1 PUSH2 0x116B SWAP1 DUP5 SWAP1 PUSH2 0x2320 JUMP JUMPDEST SWAP1 SWAP2 SSTORE POP POP PUSH1 0x40 DUP1 MLOAD DUP6 DUP2 MSTORE PUSH1 0x20 DUP2 ADD DUP6 SWAP1 MSTORE SWAP1 DUP2 ADD DUP4 SWAP1 MSTORE DUP2 SWAP1 DUP7 SWAP1 CALLER SWAP1 PUSH32 0x9092BF6BD1CF7DB4FCF41AEDC7C0333B51C57F5B80B429BC3D9CAA5587C6AD82 SWAP1 PUSH1 0x60 ADD PUSH1 0x40 MLOAD DUP1 SWAP2 SUB SWAP1 LOG4 POP POP POP POP POP JUMP JUMPDEST PUSH2 0xFFF DUP2 CALLER PUSH2 0x15CC JUMP JUMPDEST PUSH1 0x0 DUP3 DUP2 MSTORE PUSH1 0x1 PUSH1 0x20 SWAP1 DUP2 MSTORE PUSH1 0x40 DUP1 DUP4 KECCAK256 PUSH20 0xFFFFFFFFFFFFFFFFFFFFFFFFFFFFFFFFFFFFFFFF DUP6 AND DUP5 MSTORE SWAP1 SWAP2 MSTORE SWAP1 KECCAK256 SLOAD PUSH1 0xFF AND PUSH2 0x83D JUMPI PUSH1 0x0 DUP3 DUP2 MSTORE PUSH1 0x1 PUSH1 0x20 DUP2 DUP2 MSTORE PUSH1 0x40 DUP1 DUP5 KECCAK256 PUSH20 0xFFFFFFFFFFFFFFFFFFFFFFFFFFFFFFFFFFFFFFFF DUP7 AND DUP1 DUP7 MSTORE SWAP3 MSTORE DUP1 DUP5 KECCAK256 DUP1 SLOAD PUSH32 0xFFFFFFFFFFFFFFFFFFFFFFFFFFFFFFFFFFFFFFFFFFFFFFFFFFFFFFFFFFFFFF00 AND SWAP1 SWAP4 OR SWAP1 SWAP3 SSTORE SWAP1 MLOAD CALLER SWAP3 DUP6 SWAP2 PUSH32 0x2F8788117E7EFF1D82E926EC794901D17C78024A50270940304540A733656F0D SWAP2 SWAP1 LOG4 POP POP JUMP JUMPDEST PUSH1 0x0 DUP3 DUP2 MSTORE PUSH1 0x1 PUSH1 0x20 SWAP1 DUP2 MSTORE PUSH1 0x40 DUP1 DUP4 KECCAK256 PUSH20 0xFFFFFFFFFFFFFFFFFFFFFFFFFFFFFFFFFFFFFFFF DUP6 AND DUP5 MSTORE SWAP1 SWAP2 MSTORE SWAP1 KECCAK256 SLOAD PUSH1 0xFF AND ISZERO PUSH2 0x83D JUMPI PUSH1 0x0 DUP3 DUP2 MSTORE PUSH1 0x1 PUSH1 0x20 SWAP1 DUP2 MSTORE PUSH1 0x40 DUP1 DUP4 KECCAK256 PUSH20 0xFFFFFFFFFFFFFFFFFFFFFFFFFFFFFFFFFFFFFFFF DUP6 AND DUP1 DUP6 MSTORE SWAP3 MSTORE DUP1 DUP4 KECCAK256 DUP1 SLOAD PUSH32 0xFFFFFFFFFFFFFFFFFFFFFFFFFFFFFFFFFFFFFFFFFFFFFFFFFFFFFFFFFFFFFF00 AND SWAP1 SSTORE MLOAD CALLER SWAP3 DUP6 SWAP2 PUSH32 0xF6391F5C32D9C69D2A47EA670B442974B53935D1EDC7FD64EB21E047A839171B SWAP2 SWAP1 LOG4 POP POP JUMP JUMPDEST PUSH1 0x0 SLOAD PUSH20 0xFFFFFFFFFFFFFFFFFFFFFFFFFFFFFFFFFFFFFFFF AND CALLER EQ PUSH2 0xA25 JUMPI PUSH1 0x40 MLOAD PUSH32 0x8C379A000000000000000000000000000000000000000000000000000000000 DUP2 MSTORE PUSH1 0x20 PUSH1 0x4 DUP3 ADD DUP2 SWAP1 MSTORE PUSH1 0x24 DUP3 ADD MSTORE PUSH32 0x4F776E61626C653A2063616C6C6572206973206E6F7420746865206F776E6572 PUSH1 0x44 DUP3 ADD MSTORE PUSH1 0x64 ADD PUSH2 0x6AE JUMP JUMPDEST PUSH1 0x0 DUP1 SLOAD PUSH20 0xFFFFFFFFFFFFFFFFFFFFFFFFFFFFFFFFFFFFFFFF DUP4 DUP2 AND PUSH32 0xFFFFFFFFFFFFFFFFFFFFFFFF0000000000000000000000000000000000000000 DUP4 AND DUP2 OR DUP5 SSTORE PUSH1 0x40 MLOAD SWAP2 SWAP1 SWAP3 AND SWAP3 DUP4 SWAP2 PUSH32 0x8BE0079C531659141344CD1FD0A4F28419497F9722A3DAAFE3B4186F6B6457E0 SWAP2 SWAP1 LOG3 POP POP JUMP JUMPDEST PUSH1 0x0 PUSH2 0x1443 DUP8 PUSH2 0x10A4 JUMP JUMPDEST SWAP1 POP PUSH1 0x0 PUSH2 0x146A DUP9 DUP4 DUP10 PUSH1 0x7 PUSH1 0x0 DUP14 DUP2 MSTORE PUSH1 0x20 ADD SWAP1 DUP2 MSTORE PUSH1 0x20 ADD PUSH1 0x0 KECCAK256 SLOAD DUP11 DUP11 DUP11 DUP11 PUSH2 0x1686 JUMP JUMPDEST SWAP1 POP PUSH1 0x0 PUSH2 0x1477 DUP10 PUSH2 0x1782 JUMP JUMPDEST SWAP1 POP DUP1 PUSH20 0xFFFFFFFFFFFFFFFFFFFFFFFFFFFFFFFFFFFFFFFF AND DUP3 PUSH20 0xFFFFFFFFFFFFFFFFFFFFFFFFFFFFFFFFFFFFFFFF AND EQ PUSH2 0x150E JUMPI PUSH1 0x40 MLOAD PUSH32 0x8C379A000000000000000000000000000000000000000000000000000000000 DUP2 MSTORE PUSH1 0x20 PUSH1 0x4 DUP3 ADD MSTORE PUSH1 0x1B PUSH1 0x24 DUP3 ADD MSTORE PUSH32 0x5369676E6572206E6F74206F776E6572206F66207265616C6D49640000000000 PUSH1 0x44 DUP3 ADD MSTORE PUSH1 0x64 ADD PUSH2 0x6AE JUMP JUMPDEST PUSH2 0x151B DUP10 DUP5 DUP11 DUP11 DUP6 PUSH2 0x1818 JUMP JUMPDEST POP POP POP POP POP POP POP POP POP JUMP JUMPDEST PUSH1 0x0 PUSH2 0x1531 DUP5 PUSH2 0x1782 JUMP JUMPDEST SWAP1 POP CALLER PUSH20 0xFFFFFFFFFFFFFFFFFFFFFFFFFFFFFFFFFFFFFFFF DUP3 AND EQ PUSH2 0x15B2 JUMPI PUSH1 0x40 MLOAD PUSH32 0x8C379A000000000000000000000000000000000000000000000000000000000 DUP2 MSTORE PUSH1 0x20 PUSH1 0x4 DUP3 ADD MSTORE PUSH1 0x1B PUSH1 0x24 DUP3 ADD MSTORE PUSH32 0x5369676E6572206E6F74206F776E6572206F66207265616C6D49640000000000 PUSH1 0x44 DUP3 ADD MSTORE PUSH1 0x64 ADD PUSH2 0x6AE JUMP JUMPDEST PUSH1 0x0 PUSH2 0x15BD DUP6 PUSH2 0x10A4 JUMP JUMPDEST SWAP1 POP PUSH2 0x75C DUP6 DUP3 DUP7 DUP7 CALLER PUSH2 0x1818 JUMP JUMPDEST PUSH1 0x0 DUP3 DUP2 MSTORE PUSH1 0x1 PUSH1 0x20 SWAP1 DUP2 MSTORE PUSH1 0x40 DUP1 DUP4 KECCAK256 PUSH20 0xFFFFFFFFFFFFFFFFFFFFFFFFFFFFFFFFFFFFFFFF DUP6 AND DUP5 MSTORE SWAP1 SWAP2 MSTORE SWAP1 KECCAK256 SLOAD PUSH1 0xFF AND PUSH2 0x83D JUMPI PUSH2 0x160C DUP2 PUSH2 0x19F7 JUMP JUMPDEST PUSH2 0x1617 DUP4 PUSH1 0x20 PUSH2 0x1A16 JUMP JUMPDEST PUSH1 0x40 MLOAD PUSH1 0x20 ADD PUSH2 0x1628 SWAP3 SWAP2 SWAP1 PUSH2 0x2333 JUMP JUMPDEST PUSH1 0x40 DUP1 MLOAD PUSH32 0xFFFFFFFFFFFFFFFFFFFFFFFFFFFFFFFFFFFFFFFFFFFFFFFFFFFFFFFFFFFFFFE0 DUP2 DUP5 SUB ADD DUP2 MSTORE SWAP1 DUP3 SWAP1 MSTORE PUSH32 0x8C379A000000000000000000000000000000000000000000000000000000000 DUP3 MSTORE PUSH2 0x6AE SWAP2 PUSH1 0x4 ADD PUSH2 0x23B4 JUMP JUMPDEST PUSH1 0x2 SLOAD PUSH1 0x40 DUP1 MLOAD PUSH1 0x20 DUP1 DUP3 ADD DUP13 SWAP1 MSTORE DUP2 DUP4 ADD DUP12 SWAP1 MSTORE PUSH1 0x60 DUP3 ADD DUP11 SWAP1 MSTORE PUSH1 0x80 DUP3 ADD SWAP4 SWAP1 SWAP4 MSTORE PUSH1 0xA0 DUP2 ADD DUP8 SWAP1 MSTORE PUSH1 0xC0 DUP1 DUP3 ADD DUP10 SWAP1 MSTORE DUP3 MLOAD DUP1 DUP4 SUB SWAP1 SWAP2 ADD DUP2 MSTORE PUSH1 0xE0 DUP3 ADD DUP1 DUP5 MSTORE DUP2 MLOAD SWAP2 DUP6 ADD SWAP2 SWAP1 SWAP2 KECCAK256 PUSH1 0x0 SWAP2 DUP3 SWAP1 MSTORE PUSH2 0x100 DUP4 ADD DUP1 DUP6 MSTORE DUP2 SWAP1 MSTORE PUSH1 0xFF DUP9 AND PUSH2 0x120 DUP5 ADD MSTORE PUSH2 0x140 DUP4 ADD DUP8 SWAP1 MSTORE PUSH2 0x160 DUP4 ADD DUP7 SWAP1 MSTORE SWAP3 MLOAD SWAP1 SWAP4 PUSH1 0x1 SWAP3 PUSH2 0x180 DUP1 DUP3 ADD SWAP4 PUSH32 0xFFFFFFFFFFFFFFFFFFFFFFFFFFFFFFFFFFFFFFFFFFFFFFFFFFFFFFFFFFFFFFE0 DUP2 ADD SWAP3 DUP2 SWAP1 SUB SWAP1 SWAP2 ADD SWAP1 DUP6 GAS STATICCALL ISZERO DUP1 ISZERO PUSH2 0x174B JUMPI RETURNDATASIZE PUSH1 0x0 DUP1 RETURNDATACOPY RETURNDATASIZE PUSH1 0x0 REVERT JUMPDEST POP POP PUSH1 0x40 MLOAD PUSH32 0xFFFFFFFFFFFFFFFFFFFFFFFFFFFFFFFFFFFFFFFFFFFFFFFFFFFFFFFFFFFFFFE0 ADD MLOAD SWAP12 SWAP11 POP POP POP POP POP POP POP POP POP POP POP JUMP JUMPDEST PUSH1 0x4 DUP1 SLOAD PUSH1 0x40 MLOAD PUSH32 0x6352211E00000000000000000000000000000000000000000000000000000000 DUP2 MSTORE SWAP2 DUP3 ADD DUP4 SWAP1 MSTORE PUSH1 0x0 SWAP2 DUP3 SWAP2 PUSH20 0xFFFFFFFFFFFFFFFFFFFFFFFFFFFFFFFFFFFFFFFF AND SWAP1 PUSH4 0x6352211E SWAP1 PUSH1 0x24 ADD PUSH1 0x20 PUSH1 0x40 MLOAD DUP1 DUP4 SUB DUP2 DUP7 GAS STATICCALL ISZERO DUP1 ISZERO PUSH2 0x17F4 JUMPI RETURNDATASIZE PUSH1 0x0 DUP1 RETURNDATACOPY RETURNDATASIZE PUSH1 0x0 REVERT JUMPDEST POP POP POP POP PUSH1 0x40 MLOAD RETURNDATASIZE PUSH1 0x1F NOT PUSH1 0x1F DUP3 ADD AND DUP3 ADD DUP1 PUSH1 0x40 MSTORE POP DUP2 ADD SWAP1 PUSH2 0x109D SWAP2 SWAP1 PUSH2 0x23C7 JUMP JUMPDEST PUSH1 0x2 SLOAD PUSH1 0x0 SWAP1 DUP2 MSTORE PUSH1 0x6 PUSH1 0x20 SWAP1 DUP2 MSTORE PUSH1 0x40 DUP1 DUP4 KECCAK256 DUP9 DUP5 MSTORE DUP3 MSTORE DUP1 DUP4 KECCAK256 DUP8 DUP5 MSTORE SWAP1 SWAP2 MSTORE SWAP1 KECCAK256 SLOAD DUP4 GT ISZERO PUSH2 0x18A6 JUMPI PUSH1 0x40 MLOAD PUSH32 0x8C379A000000000000000000000000000000000000000000000000000000000 DUP2 MSTORE PUSH1 0x20 PUSH1 0x4 DUP3 ADD MSTORE PUSH1 0x14 PUSH1 0x24 DUP3 ADD MSTORE PUSH32 0x496E73756666696369656E742062616C616E6365000000000000000000000000 PUSH1 0x44 DUP3 ADD MSTORE PUSH1 0x64 ADD PUSH2 0x6AE JUMP JUMPDEST PUSH1 0x0 DUP3 DUP2 MSTORE PUSH1 0x8 PUSH1 0x20 MSTORE PUSH1 0x40 SWAP1 KECCAK256 SLOAD PUSH1 0xFF AND PUSH2 0x191E JUMPI PUSH1 0x40 MLOAD PUSH32 0x8C379A000000000000000000000000000000000000000000000000000000000 DUP2 MSTORE PUSH1 0x20 PUSH1 0x4 DUP3 ADD MSTORE PUSH1 0x1B PUSH1 0x24 DUP3 ADD MSTORE PUSH32 0x496E76616C696420636F6E73756D6520726561736F6E20636F64650000000000 PUSH1 0x44 DUP3 ADD MSTORE PUSH1 0x64 ADD PUSH2 0x6AE JUMP JUMPDEST PUSH1 0x2 SLOAD PUSH1 0x0 SWAP1 DUP2 MSTORE PUSH1 0x6 PUSH1 0x20 SWAP1 DUP2 MSTORE PUSH1 0x40 DUP1 DUP4 KECCAK256 DUP9 DUP5 MSTORE DUP3 MSTORE DUP1 DUP4 KECCAK256 DUP8 DUP5 MSTORE SWAP1 SWAP2 MSTORE DUP2 KECCAK256 DUP1 SLOAD DUP6 SWAP3 SWAP1 PUSH2 0x1952 SWAP1 DUP5 SWAP1 PUSH2 0x23E4 JUMP JUMPDEST SWAP1 SWAP2 SSTORE POP POP PUSH1 0x2 SLOAD PUSH1 0x0 DUP7 DUP2 MSTORE PUSH1 0x7 PUSH1 0x20 SWAP1 DUP2 MSTORE PUSH1 0x40 SWAP2 DUP3 SWAP1 KECCAK256 SLOAD DUP3 MLOAD CALLER DUP2 MSTORE SWAP2 DUP3 ADD MSTORE SWAP1 DUP2 ADD DUP7 SWAP1 MSTORE PUSH1 0x60 DUP2 ADD DUP6 SWAP1 MSTORE PUSH20 0xFFFFFFFFFFFFFFFFFFFFFFFFFFFFFFFFFFFFFFFF DUP4 AND PUSH1 0x80 DUP3 ADD MSTORE DUP4 SWAP2 SWAP1 DUP8 SWAP1 PUSH32 0xD1255D580F215DA0D3A191D00A885AE4716FAC76B5813A6C309919FFF6078BD1 SWAP1 PUSH1 0xA0 ADD PUSH1 0x40 MLOAD DUP1 SWAP2 SUB SWAP1 LOG4 PUSH1 0x0 DUP6 DUP2 MSTORE PUSH1 0x7 PUSH1 0x20 MSTORE PUSH1 0x40 DUP2 KECCAK256 DUP1 SLOAD SWAP2 PUSH2 0x19EB DUP4 PUSH2 0x21FB JUMP JUMPDEST SWAP2 SWAP1 POP SSTORE POP POP POP POP POP POP JUMP JUMPDEST PUSH1 0x60 PUSH2 0x5D0 PUSH20 0xFFFFFFFFFFFFFFFFFFFFFFFFFFFFFFFFFFFFFFFF DUP4 AND PUSH1 0x14 JUMPDEST PUSH1 0x60 PUSH1 0x0 PUSH2 0x1A25 DUP4 PUSH1 0x2 PUSH2 0x23F7 JUMP JUMPDEST PUSH2 0x1A30 SWAP1 PUSH1 0x2 PUSH2 0x2320 JUMP JUMPDEST PUSH8 0xFFFFFFFFFFFFFFFF DUP2 GT ISZERO PUSH2 0x1A48 JUMPI PUSH2 0x1A48 PUSH2 0x1C9B JUMP JUMPDEST PUSH1 0x40 MLOAD SWAP1 DUP1 DUP3 MSTORE DUP1 PUSH1 0x1F ADD PUSH1 0x1F NOT AND PUSH1 0x20 ADD DUP3 ADD PUSH1 0x40 MSTORE DUP1 ISZERO PUSH2 0x1A72 JUMPI PUSH1 0x20 DUP3 ADD DUP2 DUP1 CALLDATASIZE DUP4 CALLDATACOPY ADD SWAP1 POP JUMPDEST POP SWAP1 POP PUSH32 0x3000000000000000000000000000000000000000000000000000000000000000 DUP2 PUSH1 0x0 DUP2 MLOAD DUP2 LT PUSH2 0x1AA9 JUMPI PUSH2 0x1AA9 PUSH2 0x219D JUMP JUMPDEST PUSH1 0x20 ADD ADD SWAP1 PUSH31 0xFFFFFFFFFFFFFFFFFFFFFFFFFFFFFFFFFFFFFFFFFFFFFFFFFFFFFFFFFFFFFF NOT AND SWAP1 DUP2 PUSH1 0x0 BYTE SWAP1 MSTORE8 POP PUSH32 0x7800000000000000000000000000000000000000000000000000000000000000 DUP2 PUSH1 0x1 DUP2 MLOAD DUP2 LT PUSH2 0x1B0C JUMPI PUSH2 0x1B0C PUSH2 0x219D JUMP JUMPDEST PUSH1 0x20 ADD ADD SWAP1 PUSH31 0xFFFFFFFFFFFFFFFFFFFFFFFFFFFFFFFFFFFFFFFFFFFFFFFFFFFFFFFFFFFFFF NOT AND SWAP1 DUP2 PUSH1 0x0 BYTE SWAP1 MSTORE8 POP PUSH1 0x0 PUSH2 0x1B48 DUP5 PUSH1 0x2 PUSH2 0x23F7 JUMP JUMPDEST PUSH2 0x1B53 SWAP1 PUSH1 0x1 PUSH2 0x2320 JUMP JUMPDEST SWAP1 POP JUMPDEST PUSH1 0x1 DUP2 GT ISZERO PUSH2 0x1BF0 JUMPI PUSH32 0x3031323334353637383961626364656600000000000000000000000000000000 DUP6 PUSH1 0xF AND PUSH1 0x10 DUP2 LT PUSH2 0x1B94 JUMPI PUSH2 0x1B94 PUSH2 0x219D JUMP JUMPDEST BYTE PUSH1 0xF8 SHL DUP3 DUP3 DUP2 MLOAD DUP2 LT PUSH2 0x1BAA JUMPI PUSH2 0x1BAA PUSH2 0x219D JUMP JUMPDEST PUSH1 0x20 ADD ADD SWAP1 PUSH31 0xFFFFFFFFFFFFFFFFFFFFFFFFFFFFFFFFFFFFFFFFFFFFFFFFFFFFFFFFFFFFFF NOT AND SWAP1 DUP2 PUSH1 0x0 BYTE SWAP1 MSTORE8 POP PUSH1 0x4 SWAP5 SWAP1 SWAP5 SHR SWAP4 PUSH2 0x1BE9 DUP2 PUSH2 0x240E JUMP JUMPDEST SWAP1 POP PUSH2 0x1B56 JUMP JUMPDEST POP DUP4 ISZERO PUSH2 0x109D JUMPI PUSH1 0x40 MLOAD PUSH32 0x8C379A000000000000000000000000000000000000000000000000000000000 DUP2 MSTORE PUSH1 0x20 PUSH1 0x4 DUP3 ADD DUP2 SWAP1 MSTORE PUSH1 0x24 DUP3 ADD MSTORE PUSH32 0x537472696E67733A20686578206C656E67746820696E73756666696369656E74 PUSH1 0x44 DUP3 ADD MSTORE PUSH1 0x64 ADD PUSH2 0x6AE JUMP JUMPDEST PUSH1 0x0 PUSH1 0x20 DUP3 DUP5 SUB SLT ISZERO PUSH2 0x1C6B JUMPI PUSH1 0x0 DUP1 REVERT JUMPDEST DUP2 CALLDATALOAD PUSH32 0xFFFFFFFF00000000000000000000000000000000000000000000000000000000 DUP2 AND DUP2 EQ PUSH2 0x109D JUMPI PUSH1 0x0 DUP1 REVERT JUMPDEST PUSH32 0x4E487B7100000000000000000000000000000000000000000000000000000000 PUSH1 0x0 MSTORE PUSH1 0x41 PUSH1 0x4 MSTORE PUSH1 0x24 PUSH1 0x0 REVERT JUMPDEST PUSH1 0x40 MLOAD PUSH1 0x1F DUP3 ADD PUSH32 0xFFFFFFFFFFFFFFFFFFFFFFFFFFFFFFFFFFFFFFFFFFFFFFFFFFFFFFFFFFFFFFE0 AND DUP2 ADD PUSH8 0xFFFFFFFFFFFFFFFF DUP2 GT DUP3 DUP3 LT OR ISZERO PUSH2 0x1D11 JUMPI PUSH2 0x1D11 PUSH2 0x1C9B JUMP JUMPDEST PUSH1 0x40 MSTORE SWAP2 SWAP1 POP JUMP JUMPDEST PUSH1 0x0 DUP3 PUSH1 0x1F DUP4 ADD SLT PUSH2 0x1D2A JUMPI PUSH1 0x0 DUP1 REVERT JUMPDEST DUP2 CALLDATALOAD PUSH8 0xFFFFFFFFFFFFFFFF DUP2 GT ISZERO PUSH2 0x1D44 JUMPI PUSH2 0x1D44 PUSH2 0x1C9B JUMP JUMPDEST PUSH2 0x1D75 PUSH1 0x20 PUSH32 0xFFFFFFFFFFFFFFFFFFFFFFFFFFFFFFFFFFFFFFFFFFFFFFFFFFFFFFFFFFFFFFE0 PUSH1 0x1F DUP5 ADD AND ADD PUSH2 0x1CCA JUMP JUMPDEST DUP2 DUP2 MSTORE DUP5 PUSH1 0x20 DUP4 DUP7 ADD ADD GT ISZERO PUSH2 0x1D8A JUMPI PUSH1 0x0 DUP1 REVERT JUMPDEST DUP2 PUSH1 0x20 DUP6 ADD PUSH1 0x20 DUP4 ADD CALLDATACOPY PUSH1 0x0 SWAP2 DUP2 ADD PUSH1 0x20 ADD SWAP2 SWAP1 SWAP2 MSTORE SWAP4 SWAP3 POP POP POP JUMP JUMPDEST PUSH1 0x0 DUP1 PUSH1 0x0 PUSH1 0x60 DUP5 DUP7 SUB SLT ISZERO PUSH2 0x1DBC JUMPI PUSH1 0x0 DUP1 REVERT JUMPDEST DUP4 CALLDATALOAD SWAP3 POP PUSH1 0x20 DUP5 ADD CALLDATALOAD SWAP2 POP PUSH1 0x40 DUP5 ADD CALLDATALOAD PUSH8 0xFFFFFFFFFFFFFFFF DUP2 GT ISZERO PUSH2 0x1DE1 JUMPI PUSH1 0x0 DUP1 REVERT JUMPDEST PUSH2 0x1DED DUP7 DUP3 DUP8 ADD PUSH2 0x1D19 JUMP JUMPDEST SWAP2 POP POP SWAP3 POP SWAP3 POP SWAP3 JUMP JUMPDEST PUSH1 0x0 PUSH1 0x20 DUP3 DUP5 SUB SLT ISZERO PUSH2 0x1E09 JUMPI PUSH1 0x0 DUP1 REVERT JUMPDEST POP CALLDATALOAD SWAP2 SWAP1 POP JUMP JUMPDEST PUSH1 0x0 DUP1 PUSH1 0x0 DUP1 PUSH1 0x0 PUSH1 0xA0 DUP7 DUP9 SUB SLT ISZERO PUSH2 0x1E28 JUMPI PUSH1 0x0 DUP1 REVERT JUMPDEST POP POP DUP4 CALLDATALOAD SWAP6 PUSH1 0x20 DUP6 ADD CALLDATALOAD SWAP6 POP PUSH1 0x40 DUP6 ADD CALLDATALOAD SWAP5 PUSH1 0x60 DUP2 ADD CALLDATALOAD SWAP5 POP PUSH1 0x80 ADD CALLDATALOAD SWAP3 POP SWAP1 POP JUMP JUMPDEST PUSH20 0xFFFFFFFFFFFFFFFFFFFFFFFFFFFFFFFFFFFFFFFF DUP2 AND DUP2 EQ PUSH2 0xFFF JUMPI PUSH1 0x0 DUP1 REVERT JUMPDEST PUSH1 0x0 DUP1 PUSH1 0x40 DUP4 DUP6 SUB SLT ISZERO PUSH2 0x1E80 JUMPI PUSH1 0x0 DUP1 REVERT JUMPDEST DUP3 CALLDATALOAD SWAP2 POP PUSH1 0x20 DUP4 ADD CALLDATALOAD PUSH2 0x1E92 DUP2 PUSH2 0x1E4B JUMP JUMPDEST DUP1 SWAP2 POP POP SWAP3 POP SWAP3 SWAP1 POP JUMP JUMPDEST PUSH1 0x0 PUSH1 0x20 DUP1 DUP4 DUP6 SUB SLT ISZERO PUSH2 0x1EB0 JUMPI PUSH1 0x0 DUP1 REVERT JUMPDEST DUP3 CALLDATALOAD PUSH8 0xFFFFFFFFFFFFFFFF DUP1 DUP3 GT ISZERO PUSH2 0x1EC8 JUMPI PUSH1 0x0 DUP1 REVERT JUMPDEST DUP2 DUP6 ADD SWAP2 POP DUP6 PUSH1 0x1F DUP4 ADD SLT PUSH2 0x1EDC JUMPI PUSH1 0x0 DUP1 REVERT JUMPDEST DUP2 CALLDATALOAD DUP2 DUP2 GT ISZERO PUSH2 0x1EEE JUMPI PUSH2 0x1EEE PUSH2 0x1C9B JUMP JUMPDEST DUP1 PUSH1 0x5 SHL SWAP2 POP PUSH2 0x1EFF DUP5 DUP4 ADD PUSH2 0x1CCA JUMP JUMPDEST DUP2 DUP2 MSTORE SWAP2 DUP4 ADD DUP5 ADD SWAP2 DUP5 DUP2 ADD SWAP1 DUP9 DUP5 GT ISZERO PUSH2 0x1F19 JUMPI PUSH1 0x0 DUP1 REVERT JUMPDEST SWAP4 DUP6 ADD SWAP4 JUMPDEST DUP4 DUP6 LT ISZERO PUSH2 0x1F37 JUMPI DUP5 CALLDATALOAD DUP3 MSTORE SWAP4 DUP6 ADD SWAP4 SWAP1 DUP6 ADD SWAP1 PUSH2 0x1F1E JUMP JUMPDEST SWAP9 SWAP8 POP POP POP POP POP POP POP POP JUMP JUMPDEST PUSH1 0x0 DUP1 PUSH1 0x40 DUP4 DUP6 SUB SLT ISZERO PUSH2 0x1F56 JUMPI PUSH1 0x0 DUP1 REVERT JUMPDEST DUP3 CALLDATALOAD SWAP2 POP PUSH1 0x20 DUP4 ADD CALLDATALOAD PUSH8 0xFFFFFFFFFFFFFFFF DUP2 GT ISZERO PUSH2 0x1F74 JUMPI PUSH1 0x0 DUP1 REVERT JUMPDEST PUSH2 0x1F80 DUP6 DUP3 DUP7 ADD PUSH2 0x1D19 JUMP JUMPDEST SWAP2 POP POP SWAP3 POP SWAP3 SWAP1 POP JUMP JUMPDEST DUP1 CALLDATALOAD PUSH1 0xFF DUP2 AND DUP2 EQ PUSH2 0x1F9B JUMPI PUSH1 0x0 DUP1 REVERT JUMPDEST SWAP2 SWAP1 POP JUMP JUMPDEST PUSH1 0x0 DUP1 PUSH1 0x0 DUP1 PUSH1 0x0 DUP1 PUSH1 0x0 PUSH1 0xE0 DUP9 DUP11 SUB SLT ISZERO PUSH2 0x1FBB JUMPI PUSH1 0x0 DUP1 REVERT JUMPDEST DUP8 CALLDATALOAD SWAP7 POP PUSH1 0x20 DUP9 ADD CALLDATALOAD PUSH8 0xFFFFFFFFFFFFFFFF DUP2 GT ISZERO PUSH2 0x1FD9 JUMPI PUSH1 0x0 DUP1 REVERT JUMPDEST PUSH2 0x1FE5 DUP11 DUP3 DUP12 ADD PUSH2 0x1D19 JUMP JUMPDEST SWAP7 POP POP PUSH1 0x40 DUP9 ADD CALLDATALOAD SWAP5 POP PUSH1 0x60 DUP9 ADD CALLDATALOAD SWAP4 POP PUSH2 0x2002 PUSH1 0x80 DUP10 ADD PUSH2 0x1F8A JUMP JUMPDEST SWAP3 POP PUSH1 0xA0 DUP9 ADD CALLDATALOAD SWAP2 POP PUSH1 0xC0 DUP9 ADD CALLDATALOAD SWAP1 POP SWAP3 SWAP6 SWAP9 SWAP2 SWAP5 SWAP8 POP SWAP3 SWAP6 POP JUMP JUMPDEST PUSH1 0x0 DUP1 PUSH1 0x0 DUP1 PUSH1 0x0 DUP1 PUSH1 0xC0 DUP8 DUP10 SUB SLT ISZERO PUSH2 0x2037 JUMPI PUSH1 0x0 DUP1 REVERT JUMPDEST DUP7 CALLDATALOAD SWAP6 POP PUSH1 0x20 DUP8 ADD CALLDATALOAD SWAP5 POP PUSH1 0x40 DUP8 ADD CALLDATALOAD PUSH8 0xFFFFFFFFFFFFFFFF DUP2 GT ISZERO PUSH2 0x205C JUMPI PUSH1 0x0 DUP1 REVERT JUMPDEST PUSH2 0x2068 DUP10 DUP3 DUP11 ADD PUSH2 0x1D19 JUMP JUMPDEST SWAP5 POP POP PUSH1 0x60 DUP8 ADD CALLDATALOAD SWAP3 POP PUSH1 0x80 DUP8 ADD CALLDATALOAD SWAP2 POP PUSH1 0xA0 DUP8 ADD CALLDATALOAD SWAP1 POP SWAP3 SWAP6 POP SWAP3 SWAP6 POP SWAP3 SWAP6 JUMP JUMPDEST PUSH1 0x0 DUP1 PUSH1 0x40 DUP4 DUP6 SUB SLT ISZERO PUSH2 0x209D JUMPI PUSH1 0x0 DUP1 REVERT JUMPDEST POP POP DUP1 CALLDATALOAD SWAP3 PUSH1 0x20 SWAP1 SWAP2 ADD CALLDATALOAD SWAP2 POP JUMP JUMPDEST PUSH1 0x0 DUP1 PUSH1 0x0 PUSH1 0x60 DUP5 DUP7 SUB SLT ISZERO PUSH2 0x20C1 JUMPI PUSH1 0x0 DUP1 REVERT JUMPDEST POP POP DUP2 CALLDATALOAD SWAP4 PUSH1 0x20 DUP4 ADD CALLDATALOAD SWAP4 POP PUSH1 0x40 SWAP1 SWAP3 ADD CALLDATALOAD SWAP2 SWAP1 POP JUMP JUMPDEST PUSH1 0x0 DUP1 PUSH1 0x0 DUP1 PUSH1 0x0 DUP1 PUSH1 0xC0 DUP8 DUP10 SUB SLT ISZERO PUSH2 0x20F1 JUMPI PUSH1 0x0 DUP1 REVERT JUMPDEST DUP7 CALLDATALOAD SWAP6 POP PUSH1 0x20 DUP8 ADD CALLDATALOAD SWAP5 POP PUSH1 0x40 DUP8 ADD CALLDATALOAD SWAP4 POP PUSH2 0x210F PUSH1 0x60 DUP9 ADD PUSH2 0x1F8A JUMP JUMPDEST SWAP3 POP PUSH1 0x80 DUP8 ADD CALLDATALOAD SWAP2 POP PUSH1 0xA0 DUP8 ADD CALLDATALOAD SWAP1 POP SWAP3 SWAP6 POP SWAP3 SWAP6 POP SWAP3 SWAP6 JUMP JUMPDEST PUSH1 0x0 DUP1 PUSH1 0x0 DUP1 PUSH1 0x80 DUP6 DUP8 SUB SLT ISZERO PUSH2 0x213F JUMPI PUSH1 0x0 DUP1 REVERT JUMPDEST DUP5 CALLDATALOAD SWAP4 POP PUSH1 0x20 DUP6 ADD CALLDATALOAD PUSH8 0xFFFFFFFFFFFFFFFF DUP2 GT ISZERO PUSH2 0x215D JUMPI PUSH1 0x0 DUP1 REVERT JUMPDEST PUSH2 0x2169 DUP8 DUP3 DUP9 ADD PUSH2 0x1D19 JUMP JUMPDEST SWAP5 SWAP8 SWAP5 SWAP7 POP POP POP POP PUSH1 0x40 DUP4 ADD CALLDATALOAD SWAP3 PUSH1 0x60 ADD CALLDATALOAD SWAP2 SWAP1 POP JUMP JUMPDEST PUSH1 0x0 PUSH1 0x20 DUP3 DUP5 SUB SLT ISZERO PUSH2 0x2192 JUMPI PUSH1 0x0 DUP1 REVERT JUMPDEST DUP2 CALLDATALOAD PUSH2 0x109D DUP2 PUSH2 0x1E4B JUMP JUMPDEST PUSH32 0x4E487B7100000000000000000000000000000000000000000000000000000000 PUSH1 0x0 MSTORE PUSH1 0x32 PUSH1 0x4 MSTORE PUSH1 0x24 PUSH1 0x0 REVERT JUMPDEST PUSH32 0x4E487B7100000000000000000000000000000000000000000000000000000000 PUSH1 0x0 MSTORE PUSH1 0x11 PUSH1 0x4 MSTORE PUSH1 0x24 PUSH1 0x0 REVERT JUMPDEST PUSH1 0x0 PUSH32 0xFFFFFFFFFFFFFFFFFFFFFFFFFFFFFFFFFFFFFFFFFFFFFFFFFFFFFFFFFFFFFFFF DUP3 SUB PUSH2 0x222C JUMPI PUSH2 0x222C PUSH2 0x21CC JUMP JUMPDEST POP PUSH1 0x1 ADD SWAP1 JUMP JUMPDEST PUSH1 0x20 DUP1 DUP3 MSTORE DUP3 MLOAD DUP3 DUP3 ADD DUP2 SWAP1 MSTORE PUSH1 0x0 SWAP2 SWAP1 DUP5 DUP3 ADD SWAP1 PUSH1 0x40 DUP6 ADD SWAP1 DUP5 JUMPDEST DUP2 DUP2 LT ISZERO PUSH2 0x226B JUMPI DUP4 MLOAD DUP4 MSTORE SWAP3 DUP5 ADD SWAP3 SWAP2 DUP5 ADD SWAP2 PUSH1 0x1 ADD PUSH2 0x224F JUMP JUMPDEST POP SWAP1 SWAP7 SWAP6 POP POP POP POP POP POP JUMP JUMPDEST PUSH1 0x0 JUMPDEST DUP4 DUP2 LT ISZERO PUSH2 0x2292 JUMPI DUP2 DUP2 ADD MLOAD DUP4 DUP3 ADD MSTORE PUSH1 0x20 ADD PUSH2 0x227A JUMP JUMPDEST POP POP PUSH1 0x0 SWAP2 ADD MSTORE JUMP JUMPDEST PUSH1 0x0 DUP2 MLOAD DUP1 DUP5 MSTORE PUSH2 0x22B3 DUP2 PUSH1 0x20 DUP7 ADD PUSH1 0x20 DUP7 ADD PUSH2 0x2277 JUMP JUMPDEST PUSH1 0x1F ADD PUSH32 0xFFFFFFFFFFFFFFFFFFFFFFFFFFFFFFFFFFFFFFFFFFFFFFFFFFFFFFFFFFFFFFE0 AND SWAP3 SWAP1 SWAP3 ADD PUSH1 0x20 ADD SWAP3 SWAP2 POP POP JUMP JUMPDEST PUSH1 0x40 DUP2 MSTORE PUSH1 0x0 PUSH2 0x22F8 PUSH1 0x40 DUP4 ADD DUP6 PUSH2 0x229B JUMP JUMPDEST SWAP1 POP DUP3 PUSH1 0x20 DUP4 ADD MSTORE SWAP4 SWAP3 POP POP POP JUMP JUMPDEST PUSH1 0x0 PUSH1 0x20 DUP3 DUP5 SUB SLT ISZERO PUSH2 0x2319 JUMPI PUSH1 0x0 DUP1 REVERT JUMPDEST POP MLOAD SWAP2 SWAP1 POP JUMP JUMPDEST DUP1 DUP3 ADD DUP1 DUP3 GT ISZERO PUSH2 0x5D0 JUMPI PUSH2 0x5D0 PUSH2 0x21CC JUMP JUMPDEST PUSH32 0x416363657373436F6E74726F6C3A206163636F756E7420000000000000000000 DUP2 MSTORE PUSH1 0x0 DUP4 MLOAD PUSH2 0x236B DUP2 PUSH1 0x17 DUP6 ADD PUSH1 0x20 DUP9 ADD PUSH2 0x2277 JUMP JUMPDEST PUSH32 0x206973206D697373696E6720726F6C6520000000000000000000000000000000 PUSH1 0x17 SWAP2 DUP5 ADD SWAP2 DUP3 ADD MSTORE DUP4 MLOAD PUSH2 0x23A8 DUP2 PUSH1 0x28 DUP5 ADD PUSH1 0x20 DUP9 ADD PUSH2 0x2277 JUMP JUMPDEST ADD PUSH1 0x28 ADD SWAP5 SWAP4 POP POP POP POP JUMP JUMPDEST PUSH1 0x20 DUP2 MSTORE PUSH1 0x0 PUSH2 0x109D PUSH1 0x20 DUP4 ADD DUP5 PUSH2 0x229B JUMP JUMPDEST PUSH1 0x0 PUSH1 0x20 DUP3 DUP5 SUB SLT ISZERO PUSH2 0x23D9 JUMPI PUSH1 0x0 DUP1 REVERT JUMPDEST DUP2 MLOAD PUSH2 0x109D DUP2 PUSH2 0x1E4B JUMP JUMPDEST DUP2 DUP2 SUB DUP2 DUP2 GT ISZERO PUSH2 0x5D0 JUMPI PUSH2 0x5D0 PUSH2 0x21CC JUMP JUMPDEST DUP1 DUP3 MUL DUP2 ISZERO DUP3 DUP3 DIV DUP5 EQ OR PUSH2 0x5D0 JUMPI PUSH2 0x5D0 PUSH2 0x21CC JUMP JUMPDEST PUSH1 0x0 DUP2 PUSH2 0x241D JUMPI PUSH2 0x241D PUSH2 0x21CC JUMP JUMPDEST POP PUSH32 0xFFFFFFFFFFFFFFFFFFFFFFFFFFFFFFFFFFFFFFFFFFFFFFFFFFFFFFFFFFFFFFFF ADD SWAP1 JUMP INVALID LOG2 PUSH5 0x6970667358 0x22 SLT KECCAK256 DUP2 CREATE2 SUB SHL 0xC3 0xC5 NOT GT 0xE4 0xB6 PUSH16 0x8E6B7505AACF4DCEA9140FCA138D094 0x4B 0xE0 0xF8 MSTORE8 LOG2 PUSH5 0x736F6C6343 STOP ADDMOD GT STOP CALLER "},"gasEstimates":{"creation":{"codeDepositCost":"1867400","executionCost":"infinite","totalCost":"infinite"},"external":{"ADMIN_ROLE()":"307","DEFAULT_ADMIN_ROLE()":"240","DEPOSITOR_ROLE()":"262","adminAddress()":"2423","balanceOf(bytes32,bytes32,string)":"infinite","balanceOf(bytes32,string)":"infinite","balanceOf(bytes32,uint256)":"infinite","balanceOf(uint256)":"infinite","batchAddConsumeReasonCodes(bytes32[])":"infinite","batchRemoveConsumeReasonCodes(bytes32[])":"infinite","consume(bytes32,string,uint256,bytes32)":"infinite","consume(bytes32,string,uint256,bytes32,uint8,bytes32,bytes32)":"infinite","consume(uint256,uint256,bytes32)":"infinite","consume(uint256,uint256,bytes32,uint8,bytes32,bytes32)":"infinite","currentSeason()":"2406","deposit(bytes32,bytes32,string,uint256,uint256,bytes32)":"infinite","deposit(bytes32,uint256,uint256,uint256,bytes32)":"32115","getRoleAdmin(bytes32)":"2496","grantRole(bytes32,address)":"infinite","hasRole(bytes32,address)":"2663","isReasonCodeAllowed(bytes32)":"2484","nonces(uint256)":"2529","owner()":"2396","preparePayload(uint256,uint256,bytes32)":"infinite","realmIdContract()":"2381","renounceOwnership()":"infinite","renounceRole(bytes32,address)":"29022","revokeRole(bytes32,address)":"infinite","seasons(bytes32)":"2507","setCurrentSeason(bytes32)":"52147","supportsInterface(bytes4)":"416","transferOwnership(address)":"infinite"},"internal":{"_consume(uint256,uint256,uint256,bytes32,address)":"infinite","_consumeWithSignature(uint256,uint256,bytes32,uint8,bytes32,bytes32)":"infinite","_consumeWithoutSignature(uint256,uint256,bytes32)":"infinite","_deposit(bytes32,uint256,uint256,uint256,bytes32)":"infinite","_getRealmIdVersion(uint256)":"infinite","_getSigner(uint256,uint256,uint256,uint256,bytes32,uint8,bytes32,bytes32)":"infinite","_preparePayload(uint256,uint256,uint256,uint256,bytes32)":"infinite","_prepareRealmId(bytes32,string memory)":"infinite","owner(uint256)":"infinite"}},"methodIdentifiers":{"ADMIN_ROLE()":"75b238fc","DEFAULT_ADMIN_ROLE()":"a217fddf","DEPOSITOR_ROLE()":"a3b0b5a3","adminAddress()":"fc6f9468","balanceOf(bytes32,bytes32,string)":"098b6419","balanceOf(bytes32,string)":"794459be","balanceOf(bytes32,uint256)":"ad3b1d48","balanceOf(uint256)":"9cc7f708","batchAddConsumeReasonCodes(bytes32[])":"3f30b00f","batchRemoveConsumeReasonCodes(bytes32[])":"906405a3","consume(bytes32,string,uint256,bytes32)":"e564a0e2","consume(bytes32,string,uint256,bytes32,uint8,bytes32,bytes32)":"99d342ac","consume(uint256,uint256,bytes32)":"d14a5c71","consume(uint256,uint256,bytes32,uint8,bytes32,bytes32)":"dc893ce4","currentSeason()":"bcb39621","deposit(bytes32,bytes32,string,uint256,uint256,bytes32)":"9d70b005","deposit(bytes32,uint256,uint256,uint256,bytes32)":"18ee89f0","getRoleAdmin(bytes32)":"248a9ca3","grantRole(bytes32,address)":"2f2ff15d","hasRole(bytes32,address)":"91d14854","isReasonCodeAllowed(bytes32)":"c0542cfa","nonces(uint256)":"141a468c","owner()":"8da5cb5b","preparePayload(uint256,uint256,bytes32)":"df00bb24","realmIdContract()":"2b48dc72","renounceOwnership()":"715018a6","renounceRole(bytes32,address)":"36568abe","revokeRole(bytes32,address)":"d547741f","seasons(bytes32)":"4529cc1b","setCurrentSeason(bytes32)":"86a8e98a","supportsInterface(bytes4)":"01ffc9a7","transferOwnership(address)":"f2fde38b"}},"storageLayout":{"storage":[{"astId":396,"contract":"contracts/MocaPoints/MocaPoints.sol:MocaPoints","label":"_owner","offset":0,"slot":"0","type":"t_address"},{"astId":24,"contract":"contracts/MocaPoints/MocaPoints.sol:MocaPoints","label":"_roles","offset":0,"slot":"1","type":"t_mapping(t_bytes32,t_struct(RoleData)19_storage)"},{"astId":1623,"contract":"contracts/MocaPoints/MocaPoints.sol:MocaPoints","label":"currentSeason","offset":0,"slot":"2","type":"t_bytes32"},{"astId":1627,"contract":"contracts/MocaPoints/MocaPoints.sol:MocaPoints","label":"seasons","offset":0,"slot":"3","type":"t_mapping(t_bytes32,t_bool)"},{"astId":1630,"contract":"contracts/MocaPoints/MocaPoints.sol:MocaPoints","label":"realmIdContract","offset":0,"slot":"4","type":"t_contract(IRealmId)2527"},{"astId":1632,"contract":"contracts/MocaPoints/MocaPoints.sol:MocaPoints","label":"adminAddress","offset":0,"slot":"5","type":"t_address"},{"astId":1640,"contract":"contracts/MocaPoints/MocaPoints.sol:MocaPoints","label":"balances","offset":0,"slot":"6","type":"t_mapping(t_bytes32,t_mapping(t_uint256,t_mapping(t_uint256,t_uint256)))"},{"astId":1644,"contract":"contracts/MocaPoints/MocaPoints.sol:MocaPoints","label":"nonces","offset":0,"slot":"7","type":"t_mapping(t_uint256,t_uint256)"},{"astId":1648,"contract":"contracts/MocaPoints/MocaPoints.sol:MocaPoints","label":"allowedConsumeReasonCodes","offset":0,"slot":"8","type":"t_mapping(t_bytes32,t_bool)"}],"types":{"t_address":{"encoding":"inplace","label":"address","numberOfBytes":"20"},"t_bool":{"encoding":"inplace","label":"bool","numberOfBytes":"1"},"t_bytes32":{"encoding":"inplace","label":"bytes32","numberOfBytes":"32"},"t_contract(IRealmId)2527":{"encoding":"inplace","label":"contract IRealmId","numberOfBytes":"20"},"t_mapping(t_address,t_bool)":{"encoding":"mapping","key":"t_address","label":"mapping(address => bool)","numberOfBytes":"32","value":"t_bool"},"t_mapping(t_bytes32,t_bool)":{"encoding":"mapping","key":"t_bytes32","label":"mapping(bytes32 => bool)","numberOfBytes":"32","value":"t_bool"},"t_mapping(t_bytes32,t_mapping(t_uint256,t_mapping(t_uint256,t_uint256)))":{"encoding":"mapping","key":"t_bytes32","label":"mapping(bytes32 => mapping(uint256 => mapping(uint256 => uint256)))","numberOfBytes":"32","value":"t_mapping(t_uint256,t_mapping(t_uint256,t_uint256))"},"t_mapping(t_bytes32,t_struct(RoleData)19_storage)":{"encoding":"mapping","key":"t_bytes32","label":"mapping(bytes32 => struct AccessControl.RoleData)","numberOfBytes":"32","value":"t_struct(RoleData)19_storage"},"t_mapping(t_uint256,t_mapping(t_uint256,t_uint256))":{"encoding":"mapping","key":"t_uint256","label":"mapping(uint256 => mapping(uint256 => uint256))","numberOfBytes":"32","value":"t_mapping(t_uint256,t_uint256)"},"t_mapping(t_uint256,t_uint256)":{"encoding":"mapping","key":"t_uint256","label":"mapping(uint256 => uint256)","numberOfBytes":"32","value":"t_uint256"},"t_struct(RoleData)19_storage":{"encoding":"inplace","label":"struct AccessControl.RoleData","members":[{"astId":16,"contract":"contracts/MocaPoints/MocaPoints.sol:MocaPoints","label":"members","offset":0,"slot":"0","type":"t_mapping(t_address,t_bool)"},{"astId":18,"contract":"contracts/MocaPoints/MocaPoints.sol:MocaPoints","label":"adminRole","offset":0,"slot":"1","type":"t_bytes32"}],"numberOfBytes":"64"},"t_uint256":{"encoding":"inplace","label":"uint256","numberOfBytes":"32"}}},"userdoc":{"kind":"user","methods":{},"version":1}}}}