{"contracts/MocaPoints/mock/realmIdContract/MockRealmId.sol":{"MockRealmId":{"abi":[{"inputs":[{"internalType":"uint256","name":"","type":"uint256"}],"name":"burnCounts","outputs":[{"internalType":"uint256","name":"","type":"uint256"}],"stateMutability":"pure","type":"function"},{"inputs":[{"internalType":"string","name":"","type":"string"},{"internalType":"bytes32","name":"","type":"bytes32"}],"name":"getTokenId","outputs":[{"internalType":"uint256","name":"","type":"uint256"}],"stateMutability":"pure","type":"function"},{"inputs":[{"internalType":"uint256","name":"","type":"uint256"}],"name":"ownerOf","outputs":[{"internalType":"address","name":"","type":"address"}],"stateMutability":"pure","type":"function"}],"devdoc":{"kind":"dev","methods":{},"version":1},"evm":{"bytecode":{"linkReferences":{},"object":"608060405234801561001057600080fd5b50610197806100206000396000f3fe608060405234801561001057600080fd5b50600436106100415760003560e01c80636352211e14610046578063a9735f9414610097578063cad6b901146100b9575b600080fd5b61006d6100543660046100d0565b507390f79bf6eb2c4f870365e785982e1f101e93b90690565b60405173ffffffffffffffffffffffffffffffffffffffff90911681526020015b60405180910390f35b6100ab6100a53660046100d0565b50600090565b60405190815260200161008e565b6100ab6100c73660046100e9565b600a9392505050565b6000602082840312156100e257600080fd5b5035919050565b6000806000604084860312156100fe57600080fd5b833567ffffffffffffffff8082111561011657600080fd5b818601915086601f83011261012a57600080fd5b81358181111561013957600080fd5b87602082850101111561014b57600080fd5b602092830198909750959091013594935050505056fea2646970667358221220694d73982eda4d9b7123b363e42e70b7b9cbb593e1169e0b150ab045bc0eb26764736f6c63430008150033","opcodes":"PUSH1 0x80 PUSH1 0x40 MSTORE CALLVALUE DUP1 ISZERO PUSH2 0x10 JUMPI PUSH1 0x0 DUP1 REVERT JUMPDEST POP PUSH2 0x197 DUP1 PUSH2 0x20 PUSH1 0x0 CODECOPY PUSH1 0x0 RETURN INVALID PUSH1 0x80 PUSH1 0x40 MSTORE CALLVALUE DUP1 ISZERO PUSH2 0x10 JUMPI PUSH1 0x0 DUP1 REVERT JUMPDEST POP PUSH1 0x4 CALLDATASIZE LT PUSH2 0x41 JUMPI PUSH1 0x0 CALLDATALOAD PUSH1 0xE0 SHR DUP1 PUSH4 0x6352211E EQ PUSH2 0x46 JUMPI DUP1 PUSH4 0xA9735F94 EQ PUSH2 0x97 JUMPI DUP1 PUSH4 0xCAD6B901 EQ PUSH2 0xB9 JUMPI JUMPDEST PUSH1 0x0 DUP1 REVERT JUMPDEST PUSH2 0x6D PUSH2 0x54 CALLDATASIZE PUSH1 0x4 PUSH2 0xD0 JUMP JUMPDEST POP PUSH20 0x90F79BF6EB2C4F870365E785982E1F101E93B906 SWAP1 JUMP JUMPDEST PUSH1 0x40 MLOAD PUSH20 0xFFFFFFFFFFFFFFFFFFFFFFFFFFFFFFFFFFFFFFFF SWAP1 SWAP2 AND DUP2 MSTORE PUSH1 0x20 ADD JUMPDEST PUSH1 0x40 MLOAD DUP1 SWAP2 SUB SWAP1 RETURN JUMPDEST PUSH2 0xAB PUSH2 0xA5 CALLDATASIZE PUSH1 0x4 PUSH2 0xD0 JUMP JUMPDEST POP PUSH1 0x0 SWAP1 JUMP JUMPDEST PUSH1 0x40 MLOAD SWAP1 DUP2 MSTORE PUSH1 0x20 ADD PUSH2 0x8E JUMP JUMPDEST PUSH2 0xAB PUSH2 0xC7 CALLDATASIZE PUSH1 0x4 PUSH2 0xE9 JUMP JUMPDEST PUSH1 0xA SWAP4 SWAP3 POP POP POP JUMP JUMPDEST PUSH1 0x0 PUSH1 0x20 DUP3 DUP5 SUB SLT ISZERO PUSH2 0xE2 JUMPI PUSH1 0x0 DUP1 REVERT JUMPDEST POP CALLDATALOAD SWAP2 SWAP1 POP JUMP JUMPDEST PUSH1 0x0 DUP1 PUSH1 0x0 PUSH1 0x40 DUP5 DUP7 SUB SLT ISZERO PUSH2 0xFE JUMPI PUSH1 0x0 DUP1 REVERT JUMPDEST DUP4 CALLDATALOAD PUSH8 0xFFFFFFFFFFFFFFFF DUP1 DUP3 GT ISZERO PUSH2 0x116 JUMPI PUSH1 0x0 DUP1 REVERT JUMPDEST DUP2 DUP7 ADD SWAP2 POP DUP7 PUSH1 0x1F DUP4 ADD SLT PUSH2 0x12A JUMPI PUSH1 0x0 DUP1 REVERT JUMPDEST DUP2 CALLDATALOAD DUP2 DUP2 GT ISZERO PUSH2 0x139 JUMPI PUSH1 0x0 DUP1 REVERT JUMPDEST DUP8 PUSH1 0x20 DUP3 DUP6 ADD ADD GT ISZERO PUSH2 0x14B JUMPI PUSH1 0x0 DUP1 REVERT JUMPDEST PUSH1 0x20 SWAP3 DUP4 ADD SWAP9 SWAP1 SWAP8 POP SWAP6 SWAP1 SWAP2 ADD CALLDATALOAD SWAP5 SWAP4 POP POP POP POP JUMP INVALID LOG2 PUSH5 0x6970667358 0x22 SLT KECCAK256 PUSH10 0x4D73982EDA4D9B7123B3 PUSH4 0xE42E70B7 0xB9 0xCB 0xB5 SWAP4 0xE1 AND SWAP15 SIGNEXTEND ISZERO EXP 0xB0 GASLIMIT 0xBC 0xE 0xB2 PUSH8 0x64736F6C63430008 ISZERO STOP CALLER "},"gasEstimates":{"creation":{"codeDepositCost":"81400","executionCost":"129","totalCost":"81529"},"external":{"burnCounts(uint256)":"274","getTokenId(string,bytes32)":"496","ownerOf(uint256)":"250"}},"methodIdentifiers":{"burnCounts(uint256)":"a9735f94","getTokenId(string,bytes32)":"cad6b901","ownerOf(uint256)":"6352211e"}},"storageLayout":{"storage":[],"types":null},"userdoc":{"kind":"user","methods":{},"version":1}}}}