{"contracts/SeasonalCumulativeMerkleClaim/SeasonalCumulativeMerkleClaim.sol":{"SeasonalCumulativeMerkleClaim":{"abi":[{"inputs":[{"internalType":"address","name":"realmPointsContractAddress","type":"address"}],"stateMutability":"nonpayable","type":"constructor"},{"inputs":[{"internalType":"bytes32","name":"season","type":"bytes32"},{"internalType":"uint256","name":"realmId","type":"uint256"},{"internalType":"uint256","name":"realmIdVersion","type":"uint256"},{"internalType":"uint256","name":"amount","type":"uint256"},{"internalType":"bytes32","name":"depositReasonCode","type":"bytes32"},{"internalType":"uint256","name":"nonce","type":"uint256"}],"name":"AlreadyClaimed","type":"error"},{"inputs":[],"name":"IllegalInterfaceId","type":"error"},{"inputs":[{"internalType":"uint256","name":"amount","type":"uint256"}],"name":"InvalidClaimAmount","type":"error"},{"inputs":[{"internalType":"bytes32","name":"season","type":"bytes32"},{"internalType":"uint256","name":"realmId","type":"uint256"},{"internalType":"uint256","name":"realmIdVersion","type":"uint256"},{"internalType":"uint256","name":"amount","type":"uint256"},{"internalType":"bytes32","name":"depositReasonCode","type":"bytes32"},{"internalType":"uint256","name":"nonce","type":"uint256"}],"name":"InvalidProof","type":"error"},{"inputs":[{"internalType":"address","name":"realmPointsContractAddress","type":"address"}],"name":"InvalidRealmPointsContractAddress","type":"error"},{"inputs":[{"internalType":"bytes32","name":"season","type":"bytes32"}],"name":"InvalidSeason","type":"error"},{"inputs":[{"internalType":"bytes32","name":"season","type":"bytes32"}],"name":"MerkleRootNotExists","type":"error"},{"inputs":[{"internalType":"address","name":"account","type":"address"}],"name":"NotContractOwner","type":"error"},{"inputs":[{"internalType":"bytes32","name":"season","type":"bytes32"}],"name":"SeasonIsPaused","type":"error"},{"inputs":[{"internalType":"bytes32","name":"season","type":"bytes32"}],"name":"SeasonNotPaused","type":"error"},{"anonymous":false,"inputs":[{"indexed":false,"internalType":"bytes32","name":"season","type":"bytes32"},{"indexed":false,"internalType":"bytes32","name":"root","type":"bytes32"}],"name":"MerkleRootSet","type":"event"},{"anonymous":false,"inputs":[{"indexed":true,"internalType":"address","name":"previousOwner","type":"address"},{"indexed":true,"internalType":"address","name":"newOwner","type":"address"}],"name":"OwnershipTransferred","type":"event"},{"anonymous":false,"inputs":[{"indexed":false,"internalType":"bytes32","name":"season","type":"bytes32"}],"name":"Pause","type":"event"},{"anonymous":false,"inputs":[{"indexed":true,"internalType":"bytes32","name":"season","type":"bytes32"},{"indexed":true,"internalType":"bytes32","name":"root","type":"bytes32"},{"indexed":true,"internalType":"uint256","name":"realmId","type":"uint256"},{"indexed":false,"internalType":"uint256","name":"realmIdVersion","type":"uint256"},{"indexed":false,"internalType":"uint256","name":"amount","type":"uint256"},{"indexed":false,"internalType":"bytes32","name":"depositReasonCode","type":"bytes32"},{"indexed":false,"internalType":"uint256","name":"nonce","type":"uint256"}],"name":"PayoutClaimed","type":"event"},{"anonymous":false,"inputs":[{"indexed":false,"internalType":"bytes32","name":"season","type":"bytes32"}],"name":"Unpause","type":"event"},{"inputs":[],"name":"REALM_POINTS_CONTRACT","outputs":[{"internalType":"contract IRealmPoints","name":"","type":"address"}],"stateMutability":"view","type":"function"},{"inputs":[{"internalType":"bytes32","name":"season","type":"bytes32"},{"internalType":"uint256","name":"realmId","type":"uint256"},{"internalType":"uint256","name":"realmIdVersion","type":"uint256"},{"internalType":"uint256","name":"amount","type":"uint256"},{"internalType":"bytes32","name":"depositReasonCode","type":"bytes32"},{"internalType":"bytes32[]","name":"proof","type":"bytes32[]"}],"name":"claimPayout","outputs":[],"stateMutability":"nonpayable","type":"function"},{"inputs":[{"internalType":"bytes32","name":"","type":"bytes32"}],"name":"claimed","outputs":[{"internalType":"bool","name":"","type":"bool"}],"stateMutability":"view","type":"function"},{"inputs":[{"internalType":"bytes32","name":"","type":"bytes32"}],"name":"nonces","outputs":[{"internalType":"uint256","name":"","type":"uint256"}],"stateMutability":"view","type":"function"},{"inputs":[],"name":"owner","outputs":[{"internalType":"address","name":"","type":"address"}],"stateMutability":"view","type":"function"},{"inputs":[{"internalType":"bytes32","name":"season","type":"bytes32"}],"name":"pause","outputs":[],"stateMutability":"nonpayable","type":"function"},{"inputs":[{"internalType":"bytes32","name":"","type":"bytes32"}],"name":"paused","outputs":[{"internalType":"bool","name":"","type":"bool"}],"stateMutability":"view","type":"function"},{"inputs":[{"internalType":"bytes32","name":"","type":"bytes32"}],"name":"roots","outputs":[{"internalType":"bytes32","name":"","type":"bytes32"}],"stateMutability":"view","type":"function"},{"inputs":[{"internalType":"bytes32","name":"season","type":"bytes32"},{"internalType":"bytes32","name":"merkleRoot","type":"bytes32"}],"name":"setMerkleRoot","outputs":[],"stateMutability":"nonpayable","type":"function"},{"inputs":[{"internalType":"bytes4","name":"interfaceId","type":"bytes4"}],"name":"supportsInterface","outputs":[{"internalType":"bool","name":"","type":"bool"}],"stateMutability":"view","type":"function"},{"inputs":[{"internalType":"address","name":"newOwner","type":"address"}],"name":"transferOwnership","outputs":[],"stateMutability":"nonpayable","type":"function"},{"inputs":[{"internalType":"bytes32","name":"season","type":"bytes32"}],"name":"unpause","outputs":[],"stateMutability":"nonpayable","type":"function"}],"devdoc":{"errors":{"AlreadyClaimed(bytes32,uint256,uint256,uint256,bytes32,uint256)":[{"params":{"amount":"The amount of points is claimed.","depositReasonCode":"The deposit reason of the claim.","nonce":"The nonce as when the claim was made.","realmId":"The realmId of the claim.","realmIdVersion":"The version of the realmId.","season":"The season of the claim."}}],"InvalidClaimAmount(uint256)":[{"params":{"amount":"The amount of the claim."}}],"InvalidProof(bytes32,uint256,uint256,uint256,bytes32,uint256)":[{"params":{"amount":"The amount of points is claimed.","depositReasonCode":"The deposit reason of the claim.","nonce":"The nonce as when the claim was made.","realmId":"The realmId of the claim.","realmIdVersion":"The version of the realmId.","season":"The season of the claim."}}],"InvalidRealmPointsContractAddress(address)":[{"params":{"realmPointsContractAddress":"The address of the invalid realm point contract."}}],"InvalidSeason(bytes32)":[{"params":{"season":"The season of the claim."}}],"MerkleRootNotExists(bytes32)":[{"params":{"season":"The season of the claim."}}],"NotContractOwner(address)":[{"params":{"account":"The account that was checked."}}],"SeasonIsPaused(bytes32)":[{"params":{"season":"The season that is paused"}}],"SeasonNotPaused(bytes32)":[{"params":{"season":"The season that is not paused."}}]},"events":{"MerkleRootSet(bytes32,bytes32)":{"params":{"root":"The new merkle root.","season":"The season that the merkle root would be set."}},"OwnershipTransferred(address,address)":{"params":{"newOwner":"the new contract owner.","previousOwner":"the previous contract owner."}},"PayoutClaimed(bytes32,bytes32,uint256,uint256,uint256,bytes32,uint256)":{"params":{"amount":"The amount of points is claimed.","depositReasonCode":"The deposit reason of the claim.","nonce":"The nonce as when the claim was made.","realmId":"The realmId of the claim.","realmIdVersion":"The version of the realmId.","root":"The merkle root on which the claim was made.","season":"The season of the claim."}}},"kind":"dev","methods":{"claimPayout(bytes32,uint256,uint256,uint256,bytes32,bytes32[])":{"details":"Reverts with {MerkleRootNotExists} if the merkle root does not exist.Reverts with {SeasonIsPaused} if the contract is paused for that season.Reverts with {InvalidClaimAmount} if the merkle leaf is storing a zero amount.Reverts with {AlreadyClaimed} if this specific payout has already been claimed.Reverts with {InvalidProof} if the merkle proof cannot be verified.Emits a {PayoutClaimed} event.","params":{"amount":"The amount of points to be claimed.","depositReasonCode":"The deposit reason code for this claim.","proof":"The Merkle proof of the user based on the merkle root","realmId":"The realmId for this claim.","realmIdVersion":"The version of the realmId for this claim.","season":"The season to be claimed."}},"owner()":{"returns":{"_0":"The address of the contract owner."}},"pause(bytes32)":{"details":"Reverts with {NotContractOwner} if the sender is not the contract owner.Reverts with {SeasonIsPaused} if the season is already paused.Emits a {Pause} event.","params":{"season":"The season to be paused."}},"setMerkleRoot(bytes32,bytes32)":{"details":"Reverts with {NotContractOwner} if the sender is not the contract owner.Reverts with {SeasonNotPaused} if the season is not paused while applying an update to the root.Reverts with {InvalidSeason} if the season does not exist.Emits an {Unpaused} event.Emits a {MerkleRootSet} event.","params":{"merkleRoot":"The merkle root to set.","season":"The season to be set for th merkle root."}},"supportsInterface(bytes4)":{"details":"Note: This function call must use less than 30 000 gas.","params":{"interfaceId":"the interface identifier to test."},"returns":{"_0":"True if the interface is supported, false if `interfaceId` is `0xffffffff` or if the interface is not supported."}},"transferOwnership(address)":{"details":"Reverts if the sender is not the contract owner.Emits an {OwnershipTransferred} event if `newOwner` is different from the current contract owner.","params":{"newOwner":"The address of the new contract owner. Using the zero address means renouncing ownership."}},"unpause(bytes32)":{"details":"Reverts with {NotContractOwner} if the sender is not the contract owner.Reverts with {SeasonNotPaused} if the season is not paused.Emits an {Unpause} event.","params":{"season":"The season to be unpaused."}}},"version":1},"evm":{"bytecode":{"linkReferences":{},"object":"60a06040523480156200001157600080fd5b50604051620011fc380380620011fc8339810160408190526200003491620001d3565b336200004b816200004462000095565b90620000cb565b506001600160a01b03811662000083576040516389f009ad60e01b81526001600160a01b038216600482015260240160405180910390fd5b6001600160a01b031660805262000227565b600080620000c560017fc9ed16f33ab3a66c84bfd83099ccb2a8845871e2e1c1928f63797152f0fd54cd62000205565b92915050565b6001600160a01b03811615620001225781546001600160a01b0319166001600160a01b03821690811783556040516000907f8be0079c531659141344cd1fd0a4f28419497f9722a3daafe3b4186f6b6457e0908290a35b620001426307f5828d60e41b60016200013a62000146565b919062000176565b5050565b600080620000c560017fca9d3e17f264b0f3984e2634e94adb37fa3e6a8103f06aeae6fa59e21c769f5e62000205565b600160e01b6001600160e01b0319831601620001a5576040516372c683bb60e01b815260040160405180910390fd5b6001600160e01b03199190911660009081526020929092526040909120805460ff1916911515919091179055565b600060208284031215620001e657600080fd5b81516001600160a01b0381168114620001fe57600080fd5b9392505050565b81810381811115620000c557634e487b7160e01b600052601160045260246000fd5b608051610fab620002516000396000818161012e0152818161032a01526107290152610fab6000f3fe608060405234801561001057600080fd5b50600436106100d45760003560e01c80639e317f1211610081578063cc3c0f061161005b578063cc3c0f0614610201578063ed56531a14610224578063f2fde38b1461023757600080fd5b80639e317f12146101905780639e9e4666146101be578063ae6dead7146101e157600080fd5b80637ba0d99b116100b25780637ba0d99b146101295780638da5cb5b146101755780639931012e1461017d57600080fd5b806301ffc9a7146100d95780632f4dae9f1461010157806375edcbe014610116575b600080fd5b6100ec6100e7366004610d51565b61024a565b60405190151581526020015b60405180910390f35b61011461010f366004610d93565b610264565b005b610114610124366004610dac565b610282565b6101507f000000000000000000000000000000000000000000000000000000000000000081565b60405173ffffffffffffffffffffffffffffffffffffffff90911681526020016100f8565b610150610441565b61011461018b366004610dce565b61046d565b6101b061019e366004610d93565b60026020526000908152604090205481565b6040519081526020016100f8565b6100ec6101cc366004610d93565b60006020819052908152604090205460ff1681565b6101b06101ef366004610d93565b60016020526000908152604090205481565b6100ec61020f366004610d93565b60036020526000908152604090205460ff1681565b610114610232366004610d93565b6107df565b610114610245366004610e74565b6108f5565b600061025e82610258610909565b90610937565b92915050565b61027633610270610a11565b90610a3f565b61027f81610aae565b50565b61028e33610270610a11565b600082815260016020526040902054156102fb5760008281526020819052604090205460ff166102f2576040517fd7590240000000000000000000000000000000000000000000000000000000008152600481018390526024015b60405180910390fd5b6102fb82610aae565b6040517f4529cc1b000000000000000000000000000000000000000000000000000000008152600481018390527f000000000000000000000000000000000000000000000000000000000000000073ffffffffffffffffffffffffffffffffffffffff1690634529cc1b90602401602060405180830381865afa158015610386573d6000803e3d6000fd5b505050506040513d601f19601f820116820180604052508101906103aa9190610eaa565b6103e3576040517f0b22ca35000000000000000000000000000000000000000000000000000000008152600481018390526024016102e9565b60008281526001602081815260408084208590556002825292839020805490920190915581518481529081018390527f4983a335d43faab715b8e7c23f104092b464c1b553f3f4aa3fc33c473b45dd49910160405180910390a15050565b600061046861044e610a11565b5473ffffffffffffffffffffffffffffffffffffffff1690565b905090565b836000036104aa576040517f27ab1ee2000000000000000000000000000000000000000000000000000000008152600481018590526024016102e9565b60008781526020819052604090205460ff16156104f6576040517f4501e9a2000000000000000000000000000000000000000000000000000000008152600481018890526024016102e9565b60008781526001602052604081205490819003610542576040517f1d3bbc3f000000000000000000000000000000000000000000000000000000008152600481018990526024016102e9565b60008881526002602090815260408083205481519283018c90529082018a9052606082018990526080820188905260a0820187905260c08201819052919060e001604080517fffffffffffffffffffffffffffffffffffffffffffffffffffffffffffffffe0818403018152919052805160209091012090506105c785858584610ba6565b610623576040517f50d53cc8000000000000000000000000000000000000000000000000000000008152600481018b9052602481018a905260448101899052606481018890526084810187905260a4810183905260c4016102e9565b60008181526003602052604090205460ff1615610692576040517f57793e5c000000000000000000000000000000000000000000000000000000008152600481018b9052602481018a905260448101899052606481018890526084810187905260a4810183905260c4016102e9565b6000818152600360205260409081902080547fffffffffffffffffffffffffffffffffffffffffffffffffffffffffffffff00166001179055517f18ee89f0000000000000000000000000000000000000000000000000000000008152600481018b9052602481018a905260448101899052606481018890526084810187905273ffffffffffffffffffffffffffffffffffffffff7f000000000000000000000000000000000000000000000000000000000000000016906318ee89f09060a401600060405180830381600087803b15801561076d57600080fd5b505af1158015610781573d6000803e3d6000fd5b5050604080518b8152602081018b9052908101899052606081018590528b92508591508c907f6e125d7bd8f9609ca71a5f3e816580b0eb4a45663664eb21343914c5db5aeae99060800160405180910390a450505050505050505050565b6107eb33610270610a11565b6000818152600160205260408120549003610835576040517f1d3bbc3f000000000000000000000000000000000000000000000000000000008152600481018290526024016102e9565b60008181526020819052604090205460ff1615610881576040517f4501e9a2000000000000000000000000000000000000000000000000000000008152600481018290526024016102e9565b6000818152602081905260409081902080547fffffffffffffffffffffffffffffffffffffffffffffffffffffffffffffff00166001179055517f6e78d720a83dbf19884c4e27501ba84a8a2e5ca1503419b03ee68d28d548e857906108ea9083815260200190565b60405180910390a150565b61027f3382610902610a11565b9190610bbe565b60008061025e60017fca9d3e17f264b0f3984e2634e94adb37fa3e6a8103f06aeae6fa59e21c769f5e610efb565b60007c01000000000000000000000000000000000000000000000000000000007fffffffff000000000000000000000000000000000000000000000000000000008316016109875750600061025e565b7ffe003659000000000000000000000000000000000000000000000000000000007fffffffff000000000000000000000000000000000000000000000000000000008316016109d85750600161025e565b507fffffffff00000000000000000000000000000000000000000000000000000000166000908152602091909152604090205460ff1690565b60008061025e60017fc9ed16f33ab3a66c84bfd83099ccb2a8845871e2e1c1928f63797152f0fd54cd610efb565b815473ffffffffffffffffffffffffffffffffffffffff828116911614610aaa576040517f2ef4875e00000000000000000000000000000000000000000000000000000000815273ffffffffffffffffffffffffffffffffffffffff821660048201526024016102e9565b5050565b6000818152600160205260408120549003610af8576040517f1d3bbc3f000000000000000000000000000000000000000000000000000000008152600481018290526024016102e9565b60008181526020819052604090205460ff16610b43576040517fd7590240000000000000000000000000000000000000000000000000000000008152600481018290526024016102e9565b6000818152602081815260409182902080547fffffffffffffffffffffffffffffffffffffffffffffffffffffffffffffff0016905590518281527fbd104d77fb864be973a9ad3964a3b186ad15178d292d6e9b0e6783e16162fd2291016108ea565b600082610bb4868685610cd3565b1495945050505050565b825473ffffffffffffffffffffffffffffffffffffffff9081169083168114610c2b576040517f2ef4875e00000000000000000000000000000000000000000000000000000000815273ffffffffffffffffffffffffffffffffffffffff841660048201526024016102e9565b8173ffffffffffffffffffffffffffffffffffffffff168173ffffffffffffffffffffffffffffffffffffffff1614610ccd5783547fffffffffffffffffffffffff00000000000000000000000000000000000000001673ffffffffffffffffffffffffffffffffffffffff8381169182178655604051908316907f8be0079c531659141344cd1fd0a4f28419497f9722a3daafe3b4186f6b6457e090600090a35b50505050565b600081815b84811015610d1657610d0282878784818110610cf657610cf6610f0e565b90506020020135610d1f565b915080610d0e81610f3d565b915050610cd8565b50949350505050565b6000818310610d3b576000828152602084905260409020610d4a565b60008381526020839052604090205b9392505050565b600060208284031215610d6357600080fd5b81357fffffffff0000000000000000000000000000000000000000000000000000000081168114610d4a57600080fd5b600060208284031215610da557600080fd5b5035919050565b60008060408385031215610dbf57600080fd5b50508035926020909101359150565b600080600080600080600060c0888a031215610de957600080fd5b873596506020880135955060408801359450606088013593506080880135925060a088013567ffffffffffffffff80821115610e2457600080fd5b818a0191508a601f830112610e3857600080fd5b813581811115610e4757600080fd5b8b60208260051b8501011115610e5c57600080fd5b60208301945080935050505092959891949750929550565b600060208284031215610e8657600080fd5b813573ffffffffffffffffffffffffffffffffffffffff81168114610d4a57600080fd5b600060208284031215610ebc57600080fd5b81518015158114610d4a57600080fd5b7f4e487b7100000000000000000000000000000000000000000000000000000000600052601160045260246000fd5b8181038181111561025e5761025e610ecc565b7f4e487b7100000000000000000000000000000000000000000000000000000000600052603260045260246000fd5b60007fffffffffffffffffffffffffffffffffffffffffffffffffffffffffffffffff8203610f6e57610f6e610ecc565b506001019056fea2646970667358221220a9f9b521b1c0e8a5f533a0420ce5d6c7d9d530c2160801dfebe2d3068c8f251a64736f6c63430008150033","opcodes":"PUSH1 0xA0 PUSH1 0x40 MSTORE CALLVALUE DUP1 ISZERO PUSH3 0x11 JUMPI PUSH1 0x0 DUP1 REVERT JUMPDEST POP PUSH1 0x40 MLOAD PUSH3 0x11FC CODESIZE SUB DUP1 PUSH3 0x11FC DUP4 CODECOPY DUP2 ADD PUSH1 0x40 DUP2 SWAP1 MSTORE PUSH3 0x34 SWAP2 PUSH3 0x1D3 JUMP JUMPDEST CALLER PUSH3 0x4B DUP2 PUSH3 0x44 PUSH3 0x95 JUMP JUMPDEST SWAP1 PUSH3 0xCB JUMP JUMPDEST POP PUSH1 0x1 PUSH1 0x1 PUSH1 0xA0 SHL SUB DUP2 AND PUSH3 0x83 JUMPI PUSH1 0x40 MLOAD PUSH4 0x89F009AD PUSH1 0xE0 SHL DUP2 MSTORE PUSH1 0x1 PUSH1 0x1 PUSH1 0xA0 SHL SUB DUP3 AND PUSH1 0x4 DUP3 ADD MSTORE PUSH1 0x24 ADD PUSH1 0x40 MLOAD DUP1 SWAP2 SUB SWAP1 REVERT JUMPDEST PUSH1 0x1 PUSH1 0x1 PUSH1 0xA0 SHL SUB AND PUSH1 0x80 MSTORE PUSH3 0x227 JUMP JUMPDEST PUSH1 0x0 DUP1 PUSH3 0xC5 PUSH1 0x1 PUSH32 0xC9ED16F33AB3A66C84BFD83099CCB2A8845871E2E1C1928F63797152F0FD54CD PUSH3 0x205 JUMP JUMPDEST SWAP3 SWAP2 POP POP JUMP JUMPDEST PUSH1 0x1 PUSH1 0x1 PUSH1 0xA0 SHL SUB DUP2 AND ISZERO PUSH3 0x122 JUMPI DUP2 SLOAD PUSH1 0x1 PUSH1 0x1 PUSH1 0xA0 SHL SUB NOT AND PUSH1 0x1 PUSH1 0x1 PUSH1 0xA0 SHL SUB DUP3 AND SWAP1 DUP2 OR DUP4 SSTORE PUSH1 0x40 MLOAD PUSH1 0x0 SWAP1 PUSH32 0x8BE0079C531659141344CD1FD0A4F28419497F9722A3DAAFE3B4186F6B6457E0 SWAP1 DUP3 SWAP1 LOG3 JUMPDEST PUSH3 0x142 PUSH4 0x7F5828D PUSH1 0xE4 SHL PUSH1 0x1 PUSH3 0x13A PUSH3 0x146 JUMP JUMPDEST SWAP2 SWAP1 PUSH3 0x176 JUMP JUMPDEST POP POP JUMP JUMPDEST PUSH1 0x0 DUP1 PUSH3 0xC5 PUSH1 0x1 PUSH32 0xCA9D3E17F264B0F3984E2634E94ADB37FA3E6A8103F06AEAE6FA59E21C769F5E PUSH3 0x205 JUMP JUMPDEST PUSH1 0x1 PUSH1 0xE0 SHL PUSH1 0x1 PUSH1 0x1 PUSH1 0xE0 SHL SUB NOT DUP4 AND ADD PUSH3 0x1A5 JUMPI PUSH1 0x40 MLOAD PUSH4 0x72C683BB PUSH1 0xE0 SHL DUP2 MSTORE PUSH1 0x4 ADD PUSH1 0x40 MLOAD DUP1 SWAP2 SUB SWAP1 REVERT JUMPDEST PUSH1 0x1 PUSH1 0x1 PUSH1 0xE0 SHL SUB NOT SWAP2 SWAP1 SWAP2 AND PUSH1 0x0 SWAP1 DUP2 MSTORE PUSH1 0x20 SWAP3 SWAP1 SWAP3 MSTORE PUSH1 0x40 SWAP1 SWAP2 KECCAK256 DUP1 SLOAD PUSH1 0xFF NOT AND SWAP2 ISZERO ISZERO SWAP2 SWAP1 SWAP2 OR SWAP1 SSTORE JUMP JUMPDEST PUSH1 0x0 PUSH1 0x20 DUP3 DUP5 SUB SLT ISZERO PUSH3 0x1E6 JUMPI PUSH1 0x0 DUP1 REVERT JUMPDEST DUP2 MLOAD PUSH1 0x1 PUSH1 0x1 PUSH1 0xA0 SHL SUB DUP2 AND DUP2 EQ PUSH3 0x1FE JUMPI PUSH1 0x0 DUP1 REVERT JUMPDEST SWAP4 SWAP3 POP POP POP JUMP JUMPDEST DUP2 DUP2 SUB DUP2 DUP2 GT ISZERO PUSH3 0xC5 JUMPI PUSH4 0x4E487B71 PUSH1 0xE0 SHL PUSH1 0x0 MSTORE PUSH1 0x11 PUSH1 0x4 MSTORE PUSH1 0x24 PUSH1 0x0 REVERT JUMPDEST PUSH1 0x80 MLOAD PUSH2 0xFAB PUSH3 0x251 PUSH1 0x0 CODECOPY PUSH1 0x0 DUP2 DUP2 PUSH2 0x12E ADD MSTORE DUP2 DUP2 PUSH2 0x32A ADD MSTORE PUSH2 0x729 ADD MSTORE PUSH2 0xFAB PUSH1 0x0 RETURN INVALID PUSH1 0x80 PUSH1 0x40 MSTORE CALLVALUE DUP1 ISZERO PUSH2 0x10 JUMPI PUSH1 0x0 DUP1 REVERT JUMPDEST POP PUSH1 0x4 CALLDATASIZE LT PUSH2 0xD4 JUMPI PUSH1 0x0 CALLDATALOAD PUSH1 0xE0 SHR DUP1 PUSH4 0x9E317F12 GT PUSH2 0x81 JUMPI DUP1 PUSH4 0xCC3C0F06 GT PUSH2 0x5B JUMPI DUP1 PUSH4 0xCC3C0F06 EQ PUSH2 0x201 JUMPI DUP1 PUSH4 0xED56531A EQ PUSH2 0x224 JUMPI DUP1 PUSH4 0xF2FDE38B EQ PUSH2 0x237 JUMPI PUSH1 0x0 DUP1 REVERT JUMPDEST DUP1 PUSH4 0x9E317F12 EQ PUSH2 0x190 JUMPI DUP1 PUSH4 0x9E9E4666 EQ PUSH2 0x1BE JUMPI DUP1 PUSH4 0xAE6DEAD7 EQ PUSH2 0x1E1 JUMPI PUSH1 0x0 DUP1 REVERT JUMPDEST DUP1 PUSH4 0x7BA0D99B GT PUSH2 0xB2 JUMPI DUP1 PUSH4 0x7BA0D99B EQ PUSH2 0x129 JUMPI DUP1 PUSH4 0x8DA5CB5B EQ PUSH2 0x175 JUMPI DUP1 PUSH4 0x9931012E EQ PUSH2 0x17D JUMPI PUSH1 0x0 DUP1 REVERT JUMPDEST DUP1 PUSH4 0x1FFC9A7 EQ PUSH2 0xD9 JUMPI DUP1 PUSH4 0x2F4DAE9F EQ PUSH2 0x101 JUMPI DUP1 PUSH4 0x75EDCBE0 EQ PUSH2 0x116 JUMPI JUMPDEST PUSH1 0x0 DUP1 REVERT JUMPDEST PUSH2 0xEC PUSH2 0xE7 CALLDATASIZE PUSH1 0x4 PUSH2 0xD51 JUMP JUMPDEST PUSH2 0x24A JUMP JUMPDEST PUSH1 0x40 MLOAD SWAP1 ISZERO ISZERO DUP2 MSTORE PUSH1 0x20 ADD JUMPDEST PUSH1 0x40 MLOAD DUP1 SWAP2 SUB SWAP1 RETURN JUMPDEST PUSH2 0x114 PUSH2 0x10F CALLDATASIZE PUSH1 0x4 PUSH2 0xD93 JUMP JUMPDEST PUSH2 0x264 JUMP JUMPDEST STOP JUMPDEST PUSH2 0x114 PUSH2 0x124 CALLDATASIZE PUSH1 0x4 PUSH2 0xDAC JUMP JUMPDEST PUSH2 0x282 JUMP JUMPDEST PUSH2 0x150 PUSH32 0x0 DUP2 JUMP JUMPDEST PUSH1 0x40 MLOAD PUSH20 0xFFFFFFFFFFFFFFFFFFFFFFFFFFFFFFFFFFFFFFFF SWAP1 SWAP2 AND DUP2 MSTORE PUSH1 0x20 ADD PUSH2 0xF8 JUMP JUMPDEST PUSH2 0x150 PUSH2 0x441 JUMP JUMPDEST PUSH2 0x114 PUSH2 0x18B CALLDATASIZE PUSH1 0x4 PUSH2 0xDCE JUMP JUMPDEST PUSH2 0x46D JUMP JUMPDEST PUSH2 0x1B0 PUSH2 0x19E CALLDATASIZE PUSH1 0x4 PUSH2 0xD93 JUMP JUMPDEST PUSH1 0x2 PUSH1 0x20 MSTORE PUSH1 0x0 SWAP1 DUP2 MSTORE PUSH1 0x40 SWAP1 KECCAK256 SLOAD DUP2 JUMP JUMPDEST PUSH1 0x40 MLOAD SWAP1 DUP2 MSTORE PUSH1 0x20 ADD PUSH2 0xF8 JUMP JUMPDEST PUSH2 0xEC PUSH2 0x1CC CALLDATASIZE PUSH1 0x4 PUSH2 0xD93 JUMP JUMPDEST PUSH1 0x0 PUSH1 0x20 DUP2 SWAP1 MSTORE SWAP1 DUP2 MSTORE PUSH1 0x40 SWAP1 KECCAK256 SLOAD PUSH1 0xFF AND DUP2 JUMP JUMPDEST PUSH2 0x1B0 PUSH2 0x1EF CALLDATASIZE PUSH1 0x4 PUSH2 0xD93 JUMP JUMPDEST PUSH1 0x1 PUSH1 0x20 MSTORE PUSH1 0x0 SWAP1 DUP2 MSTORE PUSH1 0x40 SWAP1 KECCAK256 SLOAD DUP2 JUMP JUMPDEST PUSH2 0xEC PUSH2 0x20F CALLDATASIZE PUSH1 0x4 PUSH2 0xD93 JUMP JUMPDEST PUSH1 0x3 PUSH1 0x20 MSTORE PUSH1 0x0 SWAP1 DUP2 MSTORE PUSH1 0x40 SWAP1 KECCAK256 SLOAD PUSH1 0xFF AND DUP2 JUMP JUMPDEST PUSH2 0x114 PUSH2 0x232 CALLDATASIZE PUSH1 0x4 PUSH2 0xD93 JUMP JUMPDEST PUSH2 0x7DF JUMP JUMPDEST PUSH2 0x114 PUSH2 0x245 CALLDATASIZE PUSH1 0x4 PUSH2 0xE74 JUMP JUMPDEST PUSH2 0x8F5 JUMP JUMPDEST PUSH1 0x0 PUSH2 0x25E DUP3 PUSH2 0x258 PUSH2 0x909 JUMP JUMPDEST SWAP1 PUSH2 0x937 JUMP JUMPDEST SWAP3 SWAP2 POP POP JUMP JUMPDEST PUSH2 0x276 CALLER PUSH2 0x270 PUSH2 0xA11 JUMP JUMPDEST SWAP1 PUSH2 0xA3F JUMP JUMPDEST PUSH2 0x27F DUP2 PUSH2 0xAAE JUMP JUMPDEST POP JUMP JUMPDEST PUSH2 0x28E CALLER PUSH2 0x270 PUSH2 0xA11 JUMP JUMPDEST PUSH1 0x0 DUP3 DUP2 MSTORE PUSH1 0x1 PUSH1 0x20 MSTORE PUSH1 0x40 SWAP1 KECCAK256 SLOAD ISZERO PUSH2 0x2FB JUMPI PUSH1 0x0 DUP3 DUP2 MSTORE PUSH1 0x20 DUP2 SWAP1 MSTORE PUSH1 0x40 SWAP1 KECCAK256 SLOAD PUSH1 0xFF AND PUSH2 0x2F2 JUMPI PUSH1 0x40 MLOAD PUSH32 0xD759024000000000000000000000000000000000000000000000000000000000 DUP2 MSTORE PUSH1 0x4 DUP2 ADD DUP4 SWAP1 MSTORE PUSH1 0x24 ADD JUMPDEST PUSH1 0x40 MLOAD DUP1 SWAP2 SUB SWAP1 REVERT JUMPDEST PUSH2 0x2FB DUP3 PUSH2 0xAAE JUMP JUMPDEST PUSH1 0x40 MLOAD PUSH32 0x4529CC1B00000000000000000000000000000000000000000000000000000000 DUP2 MSTORE PUSH1 0x4 DUP2 ADD DUP4 SWAP1 MSTORE PUSH32 0x0 PUSH20 0xFFFFFFFFFFFFFFFFFFFFFFFFFFFFFFFFFFFFFFFF AND SWAP1 PUSH4 0x4529CC1B SWAP1 PUSH1 0x24 ADD PUSH1 0x20 PUSH1 0x40 MLOAD DUP1 DUP4 SUB DUP2 DUP7 GAS STATICCALL ISZERO DUP1 ISZERO PUSH2 0x386 JUMPI RETURNDATASIZE PUSH1 0x0 DUP1 RETURNDATACOPY RETURNDATASIZE PUSH1 0x0 REVERT JUMPDEST POP POP POP POP PUSH1 0x40 MLOAD RETURNDATASIZE PUSH1 0x1F NOT PUSH1 0x1F DUP3 ADD AND DUP3 ADD DUP1 PUSH1 0x40 MSTORE POP DUP2 ADD SWAP1 PUSH2 0x3AA SWAP2 SWAP1 PUSH2 0xEAA JUMP JUMPDEST PUSH2 0x3E3 JUMPI PUSH1 0x40 MLOAD PUSH32 0xB22CA3500000000000000000000000000000000000000000000000000000000 DUP2 MSTORE PUSH1 0x4 DUP2 ADD DUP4 SWAP1 MSTORE PUSH1 0x24 ADD PUSH2 0x2E9 JUMP JUMPDEST PUSH1 0x0 DUP3 DUP2 MSTORE PUSH1 0x1 PUSH1 0x20 DUP2 DUP2 MSTORE PUSH1 0x40 DUP1 DUP5 KECCAK256 DUP6 SWAP1 SSTORE PUSH1 0x2 DUP3 MSTORE SWAP3 DUP4 SWAP1 KECCAK256 DUP1 SLOAD SWAP1 SWAP3 ADD SWAP1 SWAP2 SSTORE DUP2 MLOAD DUP5 DUP2 MSTORE SWAP1 DUP2 ADD DUP4 SWAP1 MSTORE PUSH32 0x4983A335D43FAAB715B8E7C23F104092B464C1B553F3F4AA3FC33C473B45DD49 SWAP2 ADD PUSH1 0x40 MLOAD DUP1 SWAP2 SUB SWAP1 LOG1 POP POP JUMP JUMPDEST PUSH1 0x0 PUSH2 0x468 PUSH2 0x44E PUSH2 0xA11 JUMP JUMPDEST SLOAD PUSH20 0xFFFFFFFFFFFFFFFFFFFFFFFFFFFFFFFFFFFFFFFF AND SWAP1 JUMP JUMPDEST SWAP1 POP SWAP1 JUMP JUMPDEST DUP4 PUSH1 0x0 SUB PUSH2 0x4AA JUMPI PUSH1 0x40 MLOAD PUSH32 0x27AB1EE200000000000000000000000000000000000000000000000000000000 DUP2 MSTORE PUSH1 0x4 DUP2 ADD DUP6 SWAP1 MSTORE PUSH1 0x24 ADD PUSH2 0x2E9 JUMP JUMPDEST PUSH1 0x0 DUP8 DUP2 MSTORE PUSH1 0x20 DUP2 SWAP1 MSTORE PUSH1 0x40 SWAP1 KECCAK256 SLOAD PUSH1 0xFF AND ISZERO PUSH2 0x4F6 JUMPI PUSH1 0x40 MLOAD PUSH32 0x4501E9A200000000000000000000000000000000000000000000000000000000 DUP2 MSTORE PUSH1 0x4 DUP2 ADD DUP9 SWAP1 MSTORE PUSH1 0x24 ADD PUSH2 0x2E9 JUMP JUMPDEST PUSH1 0x0 DUP8 DUP2 MSTORE PUSH1 0x1 PUSH1 0x20 MSTORE PUSH1 0x40 DUP2 KECCAK256 SLOAD SWAP1 DUP2 SWAP1 SUB PUSH2 0x542 JUMPI PUSH1 0x40 MLOAD PUSH32 0x1D3BBC3F00000000000000000000000000000000000000000000000000000000 DUP2 MSTORE PUSH1 0x4 DUP2 ADD DUP10 SWAP1 MSTORE PUSH1 0x24 ADD PUSH2 0x2E9 JUMP JUMPDEST PUSH1 0x0 DUP9 DUP2 MSTORE PUSH1 0x2 PUSH1 0x20 SWAP1 DUP2 MSTORE PUSH1 0x40 DUP1 DUP4 KECCAK256 SLOAD DUP2 MLOAD SWAP3 DUP4 ADD DUP13 SWAP1 MSTORE SWAP1 DUP3 ADD DUP11 SWAP1 MSTORE PUSH1 0x60 DUP3 ADD DUP10 SWAP1 MSTORE PUSH1 0x80 DUP3 ADD DUP9 SWAP1 MSTORE PUSH1 0xA0 DUP3 ADD DUP8 SWAP1 MSTORE PUSH1 0xC0 DUP3 ADD DUP2 SWAP1 MSTORE SWAP2 SWAP1 PUSH1 0xE0 ADD PUSH1 0x40 DUP1 MLOAD PUSH32 0xFFFFFFFFFFFFFFFFFFFFFFFFFFFFFFFFFFFFFFFFFFFFFFFFFFFFFFFFFFFFFFE0 DUP2 DUP5 SUB ADD DUP2 MSTORE SWAP2 SWAP1 MSTORE DUP1 MLOAD PUSH1 0x20 SWAP1 SWAP2 ADD KECCAK256 SWAP1 POP PUSH2 0x5C7 DUP6 DUP6 DUP6 DUP5 PUSH2 0xBA6 JUMP JUMPDEST PUSH2 0x623 JUMPI PUSH1 0x40 MLOAD PUSH32 0x50D53CC800000000000000000000000000000000000000000000000000000000 DUP2 MSTORE PUSH1 0x4 DUP2 ADD DUP12 SWAP1 MSTORE PUSH1 0x24 DUP2 ADD DUP11 SWAP1 MSTORE PUSH1 0x44 DUP2 ADD DUP10 SWAP1 MSTORE PUSH1 0x64 DUP2 ADD DUP9 SWAP1 MSTORE PUSH1 0x84 DUP2 ADD DUP8 SWAP1 MSTORE PUSH1 0xA4 DUP2 ADD DUP4 SWAP1 MSTORE PUSH1 0xC4 ADD PUSH2 0x2E9 JUMP JUMPDEST PUSH1 0x0 DUP2 DUP2 MSTORE PUSH1 0x3 PUSH1 0x20 MSTORE PUSH1 0x40 SWAP1 KECCAK256 SLOAD PUSH1 0xFF AND ISZERO PUSH2 0x692 JUMPI PUSH1 0x40 MLOAD PUSH32 0x57793E5C00000000000000000000000000000000000000000000000000000000 DUP2 MSTORE PUSH1 0x4 DUP2 ADD DUP12 SWAP1 MSTORE PUSH1 0x24 DUP2 ADD DUP11 SWAP1 MSTORE PUSH1 0x44 DUP2 ADD DUP10 SWAP1 MSTORE PUSH1 0x64 DUP2 ADD DUP9 SWAP1 MSTORE PUSH1 0x84 DUP2 ADD DUP8 SWAP1 MSTORE PUSH1 0xA4 DUP2 ADD DUP4 SWAP1 MSTORE PUSH1 0xC4 ADD PUSH2 0x2E9 JUMP JUMPDEST PUSH1 0x0 DUP2 DUP2 MSTORE PUSH1 0x3 PUSH1 0x20 MSTORE PUSH1 0x40 SWAP1 DUP2 SWAP1 KECCAK256 DUP1 SLOAD PUSH32 0xFFFFFFFFFFFFFFFFFFFFFFFFFFFFFFFFFFFFFFFFFFFFFFFFFFFFFFFFFFFFFF00 AND PUSH1 0x1 OR SWAP1 SSTORE MLOAD PUSH32 0x18EE89F000000000000000000000000000000000000000000000000000000000 DUP2 MSTORE PUSH1 0x4 DUP2 ADD DUP12 SWAP1 MSTORE PUSH1 0x24 DUP2 ADD DUP11 SWAP1 MSTORE PUSH1 0x44 DUP2 ADD DUP10 SWAP1 MSTORE PUSH1 0x64 DUP2 ADD DUP9 SWAP1 MSTORE PUSH1 0x84 DUP2 ADD DUP8 SWAP1 MSTORE PUSH20 0xFFFFFFFFFFFFFFFFFFFFFFFFFFFFFFFFFFFFFFFF PUSH32 0x0 AND SWAP1 PUSH4 0x18EE89F0 SWAP1 PUSH1 0xA4 ADD PUSH1 0x0 PUSH1 0x40 MLOAD DUP1 DUP4 SUB DUP2 PUSH1 0x0 DUP8 DUP1 EXTCODESIZE ISZERO DUP1 ISZERO PUSH2 0x76D JUMPI PUSH1 0x0 DUP1 REVERT JUMPDEST POP GAS CALL ISZERO DUP1 ISZERO PUSH2 0x781 JUMPI RETURNDATASIZE PUSH1 0x0 DUP1 RETURNDATACOPY RETURNDATASIZE PUSH1 0x0 REVERT JUMPDEST POP POP PUSH1 0x40 DUP1 MLOAD DUP12 DUP2 MSTORE PUSH1 0x20 DUP2 ADD DUP12 SWAP1 MSTORE SWAP1 DUP2 ADD DUP10 SWAP1 MSTORE PUSH1 0x60 DUP2 ADD DUP6 SWAP1 MSTORE DUP12 SWAP3 POP DUP6 SWAP2 POP DUP13 SWAP1 PUSH32 0x6E125D7BD8F9609CA71A5F3E816580B0EB4A45663664EB21343914C5DB5AEAE9 SWAP1 PUSH1 0x80 ADD PUSH1 0x40 MLOAD DUP1 SWAP2 SUB SWAP1 LOG4 POP POP POP POP POP POP POP POP POP POP JUMP JUMPDEST PUSH2 0x7EB CALLER PUSH2 0x270 PUSH2 0xA11 JUMP JUMPDEST PUSH1 0x0 DUP2 DUP2 MSTORE PUSH1 0x1 PUSH1 0x20 MSTORE PUSH1 0x40 DUP2 KECCAK256 SLOAD SWAP1 SUB PUSH2 0x835 JUMPI PUSH1 0x40 MLOAD PUSH32 0x1D3BBC3F00000000000000000000000000000000000000000000000000000000 DUP2 MSTORE PUSH1 0x4 DUP2 ADD DUP3 SWAP1 MSTORE PUSH1 0x24 ADD PUSH2 0x2E9 JUMP JUMPDEST PUSH1 0x0 DUP2 DUP2 MSTORE PUSH1 0x20 DUP2 SWAP1 MSTORE PUSH1 0x40 SWAP1 KECCAK256 SLOAD PUSH1 0xFF AND ISZERO PUSH2 0x881 JUMPI PUSH1 0x40 MLOAD PUSH32 0x4501E9A200000000000000000000000000000000000000000000000000000000 DUP2 MSTORE PUSH1 0x4 DUP2 ADD DUP3 SWAP1 MSTORE PUSH1 0x24 ADD PUSH2 0x2E9 JUMP JUMPDEST PUSH1 0x0 DUP2 DUP2 MSTORE PUSH1 0x20 DUP2 SWAP1 MSTORE PUSH1 0x40 SWAP1 DUP2 SWAP1 KECCAK256 DUP1 SLOAD PUSH32 0xFFFFFFFFFFFFFFFFFFFFFFFFFFFFFFFFFFFFFFFFFFFFFFFFFFFFFFFFFFFFFF00 AND PUSH1 0x1 OR SWAP1 SSTORE MLOAD PUSH32 0x6E78D720A83DBF19884C4E27501BA84A8A2E5CA1503419B03EE68D28D548E857 SWAP1 PUSH2 0x8EA SWAP1 DUP4 DUP2 MSTORE PUSH1 0x20 ADD SWAP1 JUMP JUMPDEST PUSH1 0x40 MLOAD DUP1 SWAP2 SUB SWAP1 LOG1 POP JUMP JUMPDEST PUSH2 0x27F CALLER DUP3 PUSH2 0x902 PUSH2 0xA11 JUMP JUMPDEST SWAP2 SWAP1 PUSH2 0xBBE JUMP JUMPDEST PUSH1 0x0 DUP1 PUSH2 0x25E PUSH1 0x1 PUSH32 0xCA9D3E17F264B0F3984E2634E94ADB37FA3E6A8103F06AEAE6FA59E21C769F5E PUSH2 0xEFB JUMP JUMPDEST PUSH1 0x0 PUSH29 0x100000000000000000000000000000000000000000000000000000000 PUSH32 0xFFFFFFFF00000000000000000000000000000000000000000000000000000000 DUP4 AND ADD PUSH2 0x987 JUMPI POP PUSH1 0x0 PUSH2 0x25E JUMP JUMPDEST PUSH32 0xFE00365900000000000000000000000000000000000000000000000000000000 PUSH32 0xFFFFFFFF00000000000000000000000000000000000000000000000000000000 DUP4 AND ADD PUSH2 0x9D8 JUMPI POP PUSH1 0x1 PUSH2 0x25E JUMP JUMPDEST POP PUSH32 0xFFFFFFFF00000000000000000000000000000000000000000000000000000000 AND PUSH1 0x0 SWAP1 DUP2 MSTORE PUSH1 0x20 SWAP2 SWAP1 SWAP2 MSTORE PUSH1 0x40 SWAP1 KECCAK256 SLOAD PUSH1 0xFF AND SWAP1 JUMP JUMPDEST PUSH1 0x0 DUP1 PUSH2 0x25E PUSH1 0x1 PUSH32 0xC9ED16F33AB3A66C84BFD83099CCB2A8845871E2E1C1928F63797152F0FD54CD PUSH2 0xEFB JUMP JUMPDEST DUP2 SLOAD PUSH20 0xFFFFFFFFFFFFFFFFFFFFFFFFFFFFFFFFFFFFFFFF DUP3 DUP2 AND SWAP2 AND EQ PUSH2 0xAAA JUMPI PUSH1 0x40 MLOAD PUSH32 0x2EF4875E00000000000000000000000000000000000000000000000000000000 DUP2 MSTORE PUSH20 0xFFFFFFFFFFFFFFFFFFFFFFFFFFFFFFFFFFFFFFFF DUP3 AND PUSH1 0x4 DUP3 ADD MSTORE PUSH1 0x24 ADD PUSH2 0x2E9 JUMP JUMPDEST POP POP JUMP JUMPDEST PUSH1 0x0 DUP2 DUP2 MSTORE PUSH1 0x1 PUSH1 0x20 MSTORE PUSH1 0x40 DUP2 KECCAK256 SLOAD SWAP1 SUB PUSH2 0xAF8 JUMPI PUSH1 0x40 MLOAD PUSH32 0x1D3BBC3F00000000000000000000000000000000000000000000000000000000 DUP2 MSTORE PUSH1 0x4 DUP2 ADD DUP3 SWAP1 MSTORE PUSH1 0x24 ADD PUSH2 0x2E9 JUMP JUMPDEST PUSH1 0x0 DUP2 DUP2 MSTORE PUSH1 0x20 DUP2 SWAP1 MSTORE PUSH1 0x40 SWAP1 KECCAK256 SLOAD PUSH1 0xFF AND PUSH2 0xB43 JUMPI PUSH1 0x40 MLOAD PUSH32 0xD759024000000000000000000000000000000000000000000000000000000000 DUP2 MSTORE PUSH1 0x4 DUP2 ADD DUP3 SWAP1 MSTORE PUSH1 0x24 ADD PUSH2 0x2E9 JUMP JUMPDEST PUSH1 0x0 DUP2 DUP2 MSTORE PUSH1 0x20 DUP2 DUP2 MSTORE PUSH1 0x40 SWAP2 DUP3 SWAP1 KECCAK256 DUP1 SLOAD PUSH32 0xFFFFFFFFFFFFFFFFFFFFFFFFFFFFFFFFFFFFFFFFFFFFFFFFFFFFFFFFFFFFFF00 AND SWAP1 SSTORE SWAP1 MLOAD DUP3 DUP2 MSTORE PUSH32 0xBD104D77FB864BE973A9AD3964A3B186AD15178D292D6E9B0E6783E16162FD22 SWAP2 ADD PUSH2 0x8EA JUMP JUMPDEST PUSH1 0x0 DUP3 PUSH2 0xBB4 DUP7 DUP7 DUP6 PUSH2 0xCD3 JUMP JUMPDEST EQ SWAP6 SWAP5 POP POP POP POP POP JUMP JUMPDEST DUP3 SLOAD PUSH20 0xFFFFFFFFFFFFFFFFFFFFFFFFFFFFFFFFFFFFFFFF SWAP1 DUP2 AND SWAP1 DUP4 AND DUP2 EQ PUSH2 0xC2B JUMPI PUSH1 0x40 MLOAD PUSH32 0x2EF4875E00000000000000000000000000000000000000000000000000000000 DUP2 MSTORE PUSH20 0xFFFFFFFFFFFFFFFFFFFFFFFFFFFFFFFFFFFFFFFF DUP5 AND PUSH1 0x4 DUP3 ADD MSTORE PUSH1 0x24 ADD PUSH2 0x2E9 JUMP JUMPDEST DUP2 PUSH20 0xFFFFFFFFFFFFFFFFFFFFFFFFFFFFFFFFFFFFFFFF AND DUP2 PUSH20 0xFFFFFFFFFFFFFFFFFFFFFFFFFFFFFFFFFFFFFFFF AND EQ PUSH2 0xCCD JUMPI DUP4 SLOAD PUSH32 0xFFFFFFFFFFFFFFFFFFFFFFFF0000000000000000000000000000000000000000 AND PUSH20 0xFFFFFFFFFFFFFFFFFFFFFFFFFFFFFFFFFFFFFFFF DUP4 DUP2 AND SWAP2 DUP3 OR DUP7 SSTORE PUSH1 0x40 MLOAD SWAP1 DUP4 AND SWAP1 PUSH32 0x8BE0079C531659141344CD1FD0A4F28419497F9722A3DAAFE3B4186F6B6457E0 SWAP1 PUSH1 0x0 SWAP1 LOG3 JUMPDEST POP POP POP POP JUMP JUMPDEST PUSH1 0x0 DUP2 DUP2 JUMPDEST DUP5 DUP2 LT ISZERO PUSH2 0xD16 JUMPI PUSH2 0xD02 DUP3 DUP8 DUP8 DUP5 DUP2 DUP2 LT PUSH2 0xCF6 JUMPI PUSH2 0xCF6 PUSH2 0xF0E JUMP JUMPDEST SWAP1 POP PUSH1 0x20 MUL ADD CALLDATALOAD PUSH2 0xD1F JUMP JUMPDEST SWAP2 POP DUP1 PUSH2 0xD0E DUP2 PUSH2 0xF3D JUMP JUMPDEST SWAP2 POP POP PUSH2 0xCD8 JUMP JUMPDEST POP SWAP5 SWAP4 POP POP POP POP JUMP JUMPDEST PUSH1 0x0 DUP2 DUP4 LT PUSH2 0xD3B JUMPI PUSH1 0x0 DUP3 DUP2 MSTORE PUSH1 0x20 DUP5 SWAP1 MSTORE PUSH1 0x40 SWAP1 KECCAK256 PUSH2 0xD4A JUMP JUMPDEST PUSH1 0x0 DUP4 DUP2 MSTORE PUSH1 0x20 DUP4 SWAP1 MSTORE PUSH1 0x40 SWAP1 KECCAK256 JUMPDEST SWAP4 SWAP3 POP POP POP JUMP JUMPDEST PUSH1 0x0 PUSH1 0x20 DUP3 DUP5 SUB SLT ISZERO PUSH2 0xD63 JUMPI PUSH1 0x0 DUP1 REVERT JUMPDEST DUP2 CALLDATALOAD PUSH32 0xFFFFFFFF00000000000000000000000000000000000000000000000000000000 DUP2 AND DUP2 EQ PUSH2 0xD4A JUMPI PUSH1 0x0 DUP1 REVERT JUMPDEST PUSH1 0x0 PUSH1 0x20 DUP3 DUP5 SUB SLT ISZERO PUSH2 0xDA5 JUMPI PUSH1 0x0 DUP1 REVERT JUMPDEST POP CALLDATALOAD SWAP2 SWAP1 POP JUMP JUMPDEST PUSH1 0x0 DUP1 PUSH1 0x40 DUP4 DUP6 SUB SLT ISZERO PUSH2 0xDBF JUMPI PUSH1 0x0 DUP1 REVERT JUMPDEST POP POP DUP1 CALLDATALOAD SWAP3 PUSH1 0x20 SWAP1 SWAP2 ADD CALLDATALOAD SWAP2 POP JUMP JUMPDEST PUSH1 0x0 DUP1 PUSH1 0x0 DUP1 PUSH1 0x0 DUP1 PUSH1 0x0 PUSH1 0xC0 DUP9 DUP11 SUB SLT ISZERO PUSH2 0xDE9 JUMPI PUSH1 0x0 DUP1 REVERT JUMPDEST DUP8 CALLDATALOAD SWAP7 POP PUSH1 0x20 DUP9 ADD CALLDATALOAD SWAP6 POP PUSH1 0x40 DUP9 ADD CALLDATALOAD SWAP5 POP PUSH1 0x60 DUP9 ADD CALLDATALOAD SWAP4 POP PUSH1 0x80 DUP9 ADD CALLDATALOAD SWAP3 POP PUSH1 0xA0 DUP9 ADD CALLDATALOAD PUSH8 0xFFFFFFFFFFFFFFFF DUP1 DUP3 GT ISZERO PUSH2 0xE24 JUMPI PUSH1 0x0 DUP1 REVERT JUMPDEST DUP2 DUP11 ADD SWAP2 POP DUP11 PUSH1 0x1F DUP4 ADD SLT PUSH2 0xE38 JUMPI PUSH1 0x0 DUP1 REVERT JUMPDEST DUP2 CALLDATALOAD DUP2 DUP2 GT ISZERO PUSH2 0xE47 JUMPI PUSH1 0x0 DUP1 REVERT JUMPDEST DUP12 PUSH1 0x20 DUP3 PUSH1 0x5 SHL DUP6 ADD ADD GT ISZERO PUSH2 0xE5C JUMPI PUSH1 0x0 DUP1 REVERT JUMPDEST PUSH1 0x20 DUP4 ADD SWAP5 POP DUP1 SWAP4 POP POP POP POP SWAP3 SWAP6 SWAP9 SWAP2 SWAP5 SWAP8 POP SWAP3 SWAP6 POP JUMP JUMPDEST PUSH1 0x0 PUSH1 0x20 DUP3 DUP5 SUB SLT ISZERO PUSH2 0xE86 JUMPI PUSH1 0x0 DUP1 REVERT JUMPDEST DUP2 CALLDATALOAD PUSH20 0xFFFFFFFFFFFFFFFFFFFFFFFFFFFFFFFFFFFFFFFF DUP2 AND DUP2 EQ PUSH2 0xD4A JUMPI PUSH1 0x0 DUP1 REVERT JUMPDEST PUSH1 0x0 PUSH1 0x20 DUP3 DUP5 SUB SLT ISZERO PUSH2 0xEBC JUMPI PUSH1 0x0 DUP1 REVERT JUMPDEST DUP2 MLOAD DUP1 ISZERO ISZERO DUP2 EQ PUSH2 0xD4A JUMPI PUSH1 0x0 DUP1 REVERT JUMPDEST PUSH32 0x4E487B7100000000000000000000000000000000000000000000000000000000 PUSH1 0x0 MSTORE PUSH1 0x11 PUSH1 0x4 MSTORE PUSH1 0x24 PUSH1 0x0 REVERT JUMPDEST DUP2 DUP2 SUB DUP2 DUP2 GT ISZERO PUSH2 0x25E JUMPI PUSH2 0x25E PUSH2 0xECC JUMP JUMPDEST PUSH32 0x4E487B7100000000000000000000000000000000000000000000000000000000 PUSH1 0x0 MSTORE PUSH1 0x32 PUSH1 0x4 MSTORE PUSH1 0x24 PUSH1 0x0 REVERT JUMPDEST PUSH1 0x0 PUSH32 0xFFFFFFFFFFFFFFFFFFFFFFFFFFFFFFFFFFFFFFFFFFFFFFFFFFFFFFFFFFFFFFFF DUP3 SUB PUSH2 0xF6E JUMPI PUSH2 0xF6E PUSH2 0xECC JUMP JUMPDEST POP PUSH1 0x1 ADD SWAP1 JUMP INVALID LOG2 PUSH5 0x6970667358 0x22 SLT KECCAK256 0xA9 0xF9 0xB5 0x21 0xB1 0xC0 0xE8 0xA5 CREATE2 CALLER LOG0 TIMESTAMP 0xC 0xE5 0xD6 0xC7 0xD9 0xD5 ADDRESS 0xC2 AND ADDMOD ADD 0xDF 0xEB 0xE2 0xD3 MOD DUP13 DUP16 0x25 BYTE PUSH5 0x736F6C6343 STOP ADDMOD ISZERO STOP CALLER "},"gasEstimates":{"creation":{"codeDepositCost":"802200","executionCost":"infinite","totalCost":"infinite"},"external":{"REALM_POINTS_CONTRACT()":"infinite","claimPayout(bytes32,uint256,uint256,uint256,bytes32,bytes32[])":"infinite","claimed(bytes32)":"2461","nonces(bytes32)":"2461","owner()":"infinite","pause(bytes32)":"infinite","paused(bytes32)":"2487","roots(bytes32)":"2505","setMerkleRoot(bytes32,bytes32)":"infinite","supportsInterface(bytes4)":"infinite","transferOwnership(address)":"infinite","unpause(bytes32)":"infinite"},"internal":{"_unpause(bytes32)":"infinite"}},"methodIdentifiers":{"REALM_POINTS_CONTRACT()":"7ba0d99b","claimPayout(bytes32,uint256,uint256,uint256,bytes32,bytes32[])":"9931012e","claimed(bytes32)":"cc3c0f06","nonces(bytes32)":"9e317f12","owner()":"8da5cb5b","pause(bytes32)":"ed56531a","paused(bytes32)":"9e9e4666","roots(bytes32)":"ae6dead7","setMerkleRoot(bytes32,bytes32)":"75edcbe0","supportsInterface(bytes4)":"01ffc9a7","transferOwnership(address)":"f2fde38b","unpause(bytes32)":"2f4dae9f"}},"storageLayout":{"storage":[{"astId":5598,"contract":"contracts/SeasonalCumulativeMerkleClaim/SeasonalCumulativeMerkleClaim.sol:SeasonalCumulativeMerkleClaim","label":"paused","offset":0,"slot":"0","type":"t_mapping(t_bytes32,t_bool)"},{"astId":5602,"contract":"contracts/SeasonalCumulativeMerkleClaim/SeasonalCumulativeMerkleClaim.sol:SeasonalCumulativeMerkleClaim","label":"roots","offset":0,"slot":"1","type":"t_mapping(t_bytes32,t_bytes32)"},{"astId":5606,"contract":"contracts/SeasonalCumulativeMerkleClaim/SeasonalCumulativeMerkleClaim.sol:SeasonalCumulativeMerkleClaim","label":"nonces","offset":0,"slot":"2","type":"t_mapping(t_bytes32,t_uint256)"},{"astId":5610,"contract":"contracts/SeasonalCumulativeMerkleClaim/SeasonalCumulativeMerkleClaim.sol:SeasonalCumulativeMerkleClaim","label":"claimed","offset":0,"slot":"3","type":"t_mapping(t_bytes32,t_bool)"}],"types":{"t_bool":{"encoding":"inplace","label":"bool","numberOfBytes":"1"},"t_bytes32":{"encoding":"inplace","label":"bytes32","numberOfBytes":"32"},"t_mapping(t_bytes32,t_bool)":{"encoding":"mapping","key":"t_bytes32","label":"mapping(bytes32 => bool)","numberOfBytes":"32","value":"t_bool"},"t_mapping(t_bytes32,t_bytes32)":{"encoding":"mapping","key":"t_bytes32","label":"mapping(bytes32 => bytes32)","numberOfBytes":"32","value":"t_bytes32"},"t_mapping(t_bytes32,t_uint256)":{"encoding":"mapping","key":"t_bytes32","label":"mapping(bytes32 => uint256)","numberOfBytes":"32","value":"t_uint256"},"t_uint256":{"encoding":"inplace","label":"uint256","numberOfBytes":"32"}}},"userdoc":{"errors":{"AlreadyClaimed(bytes32,uint256,uint256,uint256,bytes32,uint256)":[{"notice":"Thrown when trying to claim the same leaf more than once."}],"IllegalInterfaceId()":[{"notice":"Thrown when setting the illegal interfaceId 0xffffffff."}],"InvalidClaimAmount(uint256)":[{"notice":"Throws when the claim amount is zero."}],"InvalidProof(bytes32,uint256,uint256,uint256,bytes32,uint256)":[{"notice":"Thrown when a proof cannot be verified."}],"InvalidRealmPointsContractAddress(address)":[{"notice":"Thrown when the realm point contract address is invalid."}],"InvalidSeason(bytes32)":[{"notice":"Throws when the season does not exists."}],"MerkleRootNotExists(bytes32)":[{"notice":"Throws when the merkle root does not exist."}],"NotContractOwner(address)":[{"notice":"Thrown when an account is not the contract owner but is required to."}],"SeasonIsPaused(bytes32)":[{"notice":"Throws when the season is paused."}],"SeasonNotPaused(bytes32)":[{"notice":"Throws when the season is not paused."}]},"events":{"MerkleRootSet(bytes32,bytes32)":{"notice":"Emitted when a new merkle root is set."},"OwnershipTransferred(address,address)":{"notice":"Emitted when the contract ownership changes."},"PayoutClaimed(bytes32,bytes32,uint256,uint256,uint256,bytes32,uint256)":{"notice":"Emitted when a payout is claimed."}},"kind":"user","methods":{"claimPayout(bytes32,uint256,uint256,uint256,bytes32,bytes32[])":{"notice":"Executes the payout for a given realmId (anyone can call this function)."},"owner()":{"notice":"Gets the address of the contract owner."},"pause(bytes32)":{"notice":"Pauses a season's claim"},"setMerkleRoot(bytes32,bytes32)":{"notice":"Sets the merkle root for a new claiming period and unpauses the season."},"supportsInterface(bytes4)":{"notice":"Returns whether this contract implements a given interface."},"transferOwnership(address)":{"notice":"Sets the address of the new contract owner."},"unpause(bytes32)":{"notice":"Unpause a season's claim"}},"version":1}}}}