{"contracts/RealmPoints/RealmPoints.sol":{"RealmPoints":{"abi":[{"inputs":[{"internalType":"address","name":"realmIdContractAddress","type":"address"}],"stateMutability":"nonpayable","type":"constructor"},{"inputs":[{"internalType":"bytes32","name":"reasonCode","type":"bytes32"}],"name":"ConsumeReasonCodeAlreadyExists","type":"error"},{"inputs":[{"internalType":"bytes32","name":"reasonCode","type":"bytes32"}],"name":"ConsumeReasonCodeDoesNotExist","type":"error"},{"inputs":[],"name":"ConsumeReasonCodesArrayEmpty","type":"error"},{"inputs":[],"name":"IllegalInterfaceId","type":"error"},{"inputs":[{"internalType":"address","name":"signer","type":"address"}],"name":"IncorrectSigner","type":"error"},{"inputs":[{"internalType":"uint256","name":"currentPhase","type":"uint256"},{"internalType":"uint256","name":"newPhase","type":"uint256"}],"name":"InitializationPhaseAlreadyReached","type":"error"},{"inputs":[{"internalType":"uint256","name":"realmId","type":"uint256"},{"internalType":"uint256","name":"requiredBalance","type":"uint256"}],"name":"InsufficientBalance","type":"error"},{"inputs":[{"internalType":"address","name":"addr","type":"address"}],"name":"InvalidRealmIdContractAddress","type":"error"},{"inputs":[{"internalType":"uint256","name":"realmId","type":"uint256"},{"internalType":"uint256","name":"realmIdVersion","type":"uint256"}],"name":"InvalidRealmIdVersion","type":"error"},{"inputs":[],"name":"InvalidSignature","type":"error"},{"inputs":[{"internalType":"address","name":"account","type":"address"}],"name":"NotContractOwner","type":"error"},{"inputs":[{"internalType":"bytes32","name":"role","type":"bytes32"},{"internalType":"address","name":"account","type":"address"}],"name":"NotRoleHolder","type":"error"},{"inputs":[{"internalType":"bytes32","name":"season","type":"bytes32"}],"name":"SeasonAlreadySet","type":"error"},{"anonymous":false,"inputs":[{"indexed":false,"internalType":"address","name":"previousAdmin","type":"address"},{"indexed":false,"internalType":"address","name":"newAdmin","type":"address"}],"name":"AdminChanged","type":"event"},{"anonymous":false,"inputs":[{"indexed":false,"internalType":"bytes32[]","name":"reasonCodes","type":"bytes32[]"}],"name":"BatchAddedConsumeReasonCode","type":"event"},{"anonymous":false,"inputs":[{"indexed":false,"internalType":"bytes32[]","name":"reasonCodes","type":"bytes32[]"}],"name":"BatchRemovedConsumeReasonCode","type":"event"},{"anonymous":false,"inputs":[{"indexed":true,"internalType":"address","name":"beacon","type":"address"}],"name":"BeaconUpgraded","type":"event"},{"anonymous":false,"inputs":[{"indexed":true,"internalType":"uint256","name":"realmId","type":"uint256"},{"indexed":true,"internalType":"bytes32","name":"season","type":"bytes32"},{"indexed":true,"internalType":"bytes32","name":"reasonCode","type":"bytes32"},{"indexed":false,"internalType":"address","name":"operator","type":"address"},{"indexed":false,"internalType":"uint256","name":"realmIdVersion","type":"uint256"},{"indexed":false,"internalType":"uint256","name":"amount","type":"uint256"},{"indexed":false,"internalType":"address","name":"realmIdOwner","type":"address"}],"name":"Consumed","type":"event"},{"anonymous":false,"inputs":[{"indexed":true,"internalType":"address","name":"sender","type":"address"},{"indexed":true,"internalType":"bytes32","name":"season","type":"bytes32"},{"indexed":true,"internalType":"bytes32","name":"reasonCode","type":"bytes32"},{"indexed":false,"internalType":"uint256","name":"realmId","type":"uint256"},{"indexed":false,"internalType":"uint256","name":"realmIdVersion","type":"uint256"},{"indexed":false,"internalType":"uint256","name":"amount","type":"uint256"}],"name":"Deposited","type":"event"},{"anonymous":false,"inputs":[{"indexed":false,"internalType":"uint8","name":"version","type":"uint8"}],"name":"Initialized","type":"event"},{"anonymous":false,"inputs":[{"indexed":true,"internalType":"address","name":"previousOwner","type":"address"},{"indexed":true,"internalType":"address","name":"newOwner","type":"address"}],"name":"OwnershipTransferred","type":"event"},{"anonymous":false,"inputs":[{"indexed":false,"internalType":"bytes32","name":"role","type":"bytes32"},{"indexed":false,"internalType":"address","name":"account","type":"address"},{"indexed":false,"internalType":"address","name":"operator","type":"address"}],"name":"RoleGranted","type":"event"},{"anonymous":false,"inputs":[{"indexed":false,"internalType":"bytes32","name":"role","type":"bytes32"},{"indexed":false,"internalType":"address","name":"account","type":"address"},{"indexed":false,"internalType":"address","name":"operator","type":"address"}],"name":"RoleRevoked","type":"event"},{"anonymous":false,"inputs":[{"indexed":false,"internalType":"bytes32","name":"season","type":"bytes32"}],"name":"SetCurrentSeason","type":"event"},{"anonymous":false,"inputs":[{"indexed":true,"internalType":"address","name":"implementation","type":"address"}],"name":"Upgraded","type":"event"},{"inputs":[],"name":"ADMIN_ROLE","outputs":[{"internalType":"bytes32","name":"","type":"bytes32"}],"stateMutability":"view","type":"function"},{"inputs":[],"name":"DEPOSITOR_ROLE","outputs":[{"internalType":"bytes32","name":"","type":"bytes32"}],"stateMutability":"view","type":"function"},{"inputs":[],"name":"REALM_ID_CONTRACT","outputs":[{"internalType":"contract IRealmId","name":"","type":"address"}],"stateMutability":"view","type":"function"},{"inputs":[{"internalType":"bytes32","name":"","type":"bytes32"}],"name":"allowedConsumeReasonCodes","outputs":[{"internalType":"bool","name":"","type":"bool"}],"stateMutability":"view","type":"function"},{"inputs":[{"internalType":"bytes32","name":"season","type":"bytes32"},{"internalType":"bytes32","name":"parentNode","type":"bytes32"},{"internalType":"string","name":"name","type":"string"}],"name":"balanceOf","outputs":[{"internalType":"uint256","name":"","type":"uint256"}],"stateMutability":"view","type":"function"},{"inputs":[{"internalType":"bytes32","name":"parentNode","type":"bytes32"},{"internalType":"string","name":"name","type":"string"}],"name":"balanceOf","outputs":[{"internalType":"uint256","name":"","type":"uint256"}],"stateMutability":"view","type":"function"},{"inputs":[{"internalType":"uint256","name":"realmId","type":"uint256"}],"name":"balanceOf","outputs":[{"internalType":"uint256","name":"","type":"uint256"}],"stateMutability":"view","type":"function"},{"inputs":[{"internalType":"bytes32","name":"season","type":"bytes32"},{"internalType":"uint256","name":"realmId","type":"uint256"}],"name":"balanceOf","outputs":[{"internalType":"uint256","name":"","type":"uint256"}],"stateMutability":"view","type":"function"},{"inputs":[{"internalType":"bytes32","name":"","type":"bytes32"},{"internalType":"uint256","name":"","type":"uint256"},{"internalType":"uint256","name":"","type":"uint256"}],"name":"balances","outputs":[{"internalType":"uint256","name":"","type":"uint256"}],"stateMutability":"view","type":"function"},{"inputs":[{"internalType":"bytes32[]","name":"reasonCodes","type":"bytes32[]"}],"name":"batchAddConsumeReasonCodes","outputs":[],"stateMutability":"nonpayable","type":"function"},{"inputs":[{"internalType":"bytes32[]","name":"reasonCodes","type":"bytes32[]"}],"name":"batchRemoveConsumeReasonCodes","outputs":[],"stateMutability":"nonpayable","type":"function"},{"inputs":[{"internalType":"bytes32","name":"parentNode","type":"bytes32"},{"internalType":"string","name":"name","type":"string"},{"internalType":"uint256","name":"amount","type":"uint256"},{"internalType":"bytes32","name":"consumeReasonCode","type":"bytes32"},{"internalType":"uint8","name":"v","type":"uint8"},{"internalType":"bytes32","name":"r","type":"bytes32"},{"internalType":"bytes32","name":"s","type":"bytes32"}],"name":"consume","outputs":[],"stateMutability":"nonpayable","type":"function"},{"inputs":[{"internalType":"uint256","name":"realmId","type":"uint256"},{"internalType":"uint256","name":"amount","type":"uint256"},{"internalType":"bytes32","name":"consumeReasonCode","type":"bytes32"}],"name":"consume","outputs":[],"stateMutability":"nonpayable","type":"function"},{"inputs":[{"internalType":"uint256","name":"realmId","type":"uint256"},{"internalType":"uint256","name":"amount","type":"uint256"},{"internalType":"bytes32","name":"consumeReasonCode","type":"bytes32"},{"internalType":"uint8","name":"v","type":"uint8"},{"internalType":"bytes32","name":"r","type":"bytes32"},{"internalType":"bytes32","name":"s","type":"bytes32"}],"name":"consume","outputs":[],"stateMutability":"nonpayable","type":"function"},{"inputs":[{"internalType":"bytes32","name":"parentNode","type":"bytes32"},{"internalType":"string","name":"name","type":"string"},{"internalType":"uint256","name":"amount","type":"uint256"},{"internalType":"bytes32","name":"consumeReasonCode","type":"bytes32"}],"name":"consume","outputs":[],"stateMutability":"nonpayable","type":"function"},{"inputs":[],"name":"currentSeason","outputs":[{"internalType":"bytes32","name":"","type":"bytes32"}],"stateMutability":"view","type":"function"},{"inputs":[{"internalType":"bytes32","name":"season","type":"bytes32"},{"internalType":"uint256","name":"realmId","type":"uint256"},{"internalType":"uint256","name":"realmIdVersion","type":"uint256"},{"internalType":"uint256","name":"amount","type":"uint256"},{"internalType":"bytes32","name":"depositReasonCode","type":"bytes32"}],"name":"deposit","outputs":[],"stateMutability":"nonpayable","type":"function"},{"inputs":[{"internalType":"bytes32","name":"season","type":"bytes32"},{"internalType":"bytes32","name":"parentNode","type":"bytes32"},{"internalType":"string","name":"name","type":"string"},{"internalType":"uint256","name":"realmIdVersion","type":"uint256"},{"internalType":"uint256","name":"amount","type":"uint256"},{"internalType":"bytes32","name":"depositReasonCode","type":"bytes32"}],"name":"deposit","outputs":[],"stateMutability":"nonpayable","type":"function"},{"inputs":[{"internalType":"bytes32","name":"role","type":"bytes32"},{"internalType":"address","name":"account","type":"address"}],"name":"grantRole","outputs":[],"stateMutability":"nonpayable","type":"function"},{"inputs":[{"internalType":"bytes32","name":"role","type":"bytes32"},{"internalType":"address","name":"account","type":"address"}],"name":"hasRole","outputs":[{"internalType":"bool","name":"hasRole_","type":"bool"}],"stateMutability":"view","type":"function"},{"inputs":[],"name":"initialize","outputs":[],"stateMutability":"nonpayable","type":"function"},{"inputs":[{"internalType":"uint256","name":"","type":"uint256"}],"name":"nonces","outputs":[{"internalType":"uint256","name":"","type":"uint256"}],"stateMutability":"view","type":"function"},{"inputs":[],"name":"owner","outputs":[{"internalType":"address","name":"","type":"address"}],"stateMutability":"view","type":"function"},{"inputs":[{"internalType":"uint256","name":"realmId","type":"uint256"},{"internalType":"address","name":"spender","type":"address"},{"internalType":"uint256","name":"amount","type":"uint256"},{"internalType":"bytes32","name":"reasonCode","type":"bytes32"}],"name":"preparePayload","outputs":[{"internalType":"bytes32","name":"","type":"bytes32"}],"stateMutability":"view","type":"function"},{"inputs":[],"name":"proxiableUUID","outputs":[{"internalType":"bytes32","name":"","type":"bytes32"}],"stateMutability":"view","type":"function"},{"inputs":[{"internalType":"bytes32","name":"role","type":"bytes32"}],"name":"renounceRole","outputs":[],"stateMutability":"nonpayable","type":"function"},{"inputs":[{"internalType":"bytes32","name":"role","type":"bytes32"},{"internalType":"address","name":"account","type":"address"}],"name":"revokeRole","outputs":[],"stateMutability":"nonpayable","type":"function"},{"inputs":[{"internalType":"bytes32","name":"","type":"bytes32"}],"name":"seasons","outputs":[{"internalType":"bool","name":"","type":"bool"}],"stateMutability":"view","type":"function"},{"inputs":[{"internalType":"bytes32","name":"season","type":"bytes32"}],"name":"setCurrentSeason","outputs":[],"stateMutability":"nonpayable","type":"function"},{"inputs":[{"internalType":"address","name":"newOwner","type":"address"}],"name":"transferOwnership","outputs":[],"stateMutability":"nonpayable","type":"function"},{"inputs":[{"internalType":"address","name":"newImplementation","type":"address"}],"name":"upgradeTo","outputs":[],"stateMutability":"nonpayable","type":"function"},{"inputs":[{"internalType":"address","name":"newImplementation","type":"address"},{"internalType":"bytes","name":"data","type":"bytes"}],"name":"upgradeToAndCall","outputs":[],"stateMutability":"payable","type":"function"}],"devdoc":{"errors":{"ConsumeReasonCodeAlreadyExists(bytes32)":[{"params":{"reasonCode":"The reason code that already exists in the mapping."}}],"ConsumeReasonCodeDoesNotExist(bytes32)":[{"params":{"reasonCode":"The reason code that does not exist in the mapping."}}],"IncorrectSigner(address)":[{"params":{"signer":"The incorrect signer."}}],"InitializationPhaseAlreadyReached(uint256,uint256)":[{"params":{"currentPhase":"The current phase.","newPhase":"The new phase trying to be set."}}],"InsufficientBalance(uint256,uint256)":[{"params":{"realmId":"The given realmId.","requiredBalance":"The required balance."}}],"InvalidRealmIdContractAddress(address)":[{"params":{"addr":"The invalid realmId contract address."}}],"InvalidRealmIdVersion(uint256,uint256)":[{"params":{"realmId":"The given realmId.","realmIdVersion":"The given realmId version."}}],"NotContractOwner(address)":[{"params":{"account":"The account that was checked."}}],"NotRoleHolder(bytes32,address)":[{"params":{"account":"The account that was checked.","role":"The role the caller is missing."}}],"SeasonAlreadySet(bytes32)":[{"params":{"season":"The season that already exists in the mapping."}}]},"events":{"AdminChanged(address,address)":{"details":"Emitted when the admin account has changed."},"BatchAddedConsumeReasonCode(bytes32[])":{"params":{"reasonCodes":"The reason codes added to the mapping."}},"BatchRemovedConsumeReasonCode(bytes32[])":{"params":{"reasonCodes":"The reason codes removed from the mapping."}},"BeaconUpgraded(address)":{"details":"Emitted when the beacon is changed."},"Consumed(uint256,bytes32,bytes32,address,uint256,uint256,address)":{"params":{"amount":"The amount consumed.","operator":"The sender of the consumption.","realmId":"The realmId of the balance consumed from.","realmIdOwner":"The realmId owner's address.","realmIdVersion":"The realmId version.","reasonCode":"The reason code of the consumption.","season":"The season of the balance consumed from."}},"Deposited(address,bytes32,bytes32,uint256,uint256,uint256)":{"params":{"amount":"The amount deposited.","realmId":"The realmId of the balance deposited to.","realmIdVersion":"The realmId version.","reasonCode":"The reason code of the deposit.","season":"The season of the balance deposited to.","sender":"The sender of the deposit."}},"Initialized(uint8)":{"details":"Triggered when the contract has been initialized or reinitialized."},"OwnershipTransferred(address,address)":{"params":{"newOwner":"the new contract owner.","previousOwner":"the previous contract owner."}},"RoleGranted(bytes32,address,address)":{"params":{"account":"The account that has been granted the role.","operator":"The account that granted the role.","role":"The role that has been granted."}},"RoleRevoked(bytes32,address,address)":{"params":{"account":"The account that has been revoked the role.","operator":"The account that revoked the role.","role":"The role that has been revoked."}},"SetCurrentSeason(bytes32)":{"params":{"season":"The new season being set."}},"Upgraded(address)":{"details":"Emitted when the implementation is upgraded."}},"kind":"dev","methods":{"balanceOf(bytes32,bytes32,string)":{"details":"Reverts if fails to resolve realmId from the given parent node and name.Reverts if fails to resolve realmId's version.","params":{"name":"The name of the realmId.","parentNode":"The parent node of the realmId.","season":"The season."},"returns":{"_0":"The balance."}},"balanceOf(bytes32,string)":{"details":"Reverts if fails to resolve realmId from the given parent node and name.Reverts if fails to resolve realmId's version.","params":{"name":"The name of the realmId.","parentNode":"The parent node of the realmId."},"returns":{"_0":"The balance."}},"balanceOf(bytes32,uint256)":{"details":"Reverts if fails to resolve realmId's version.","params":{"realmId":"The realmId.","season":"The season."},"returns":{"_0":"The balance."}},"balanceOf(uint256)":{"details":"Reverts if fails to resolve realmId's version.","params":{"realmId":"The realmId."},"returns":{"_0":"The balance."}},"batchAddConsumeReasonCodes(bytes32[])":{"details":"Reverts if sender does not have Admin role.Reverts if the given reason codes array is empty.Reverts if any of the given reason codes already exists in the mapping.Emits a {BatchAddedConsumeReasonCode} event if all the given reason codes are successfully added.","params":{"reasonCodes":"Array of reason codes to add."}},"batchRemoveConsumeReasonCodes(bytes32[])":{"details":"Reverts if sender does not have Admin role.Reverts if the given reason codes array is empty.Reverts if any of the given reason codes do not exist in the mapping.Emits a {BatchRemovedConsumeReasonCode} event if all the given reason codes are successfully removed.","params":{"reasonCodes":"Array of reason codes to remove."}},"constructor":{"custom:oz-upgrades-unsafe-allow":"constructor","details":"Reverts if the given address is invalid (equal to ZeroAddress).","params":{"realmIdContractAddress":"The realmId contract address."}},"consume(bytes32,string,uint256,bytes32)":{"details":"Reverts if fails to resolve realmId from the given parent node and name.Reverts if fails to resolve owner of the realmId.Reverts if the sender is not the owner of the realmId.Reverts if fails to resolve realmId's version.Reverts if balance is insufficient.Reverts if the consume reason code is not allowed.Emits a {Consumed} event if the consumption is successful.","params":{"amount":"The amount to consume.","consumeReasonCode":"The reason code of the consumption.","name":"The name of the realmId.","parentNode":"The parent node of the realmId."}},"consume(bytes32,string,uint256,bytes32,uint8,bytes32,bytes32)":{"details":"Reverts if fails to resolve realmId from the given parent node and name.Reverts if fails to resolve realmId's version.Reverts if signature is invalid.Reverts if fails to resolve owner of the realmId.Reverts if signer is not the realmId owner.Reverts if balance is insufficient.Reverts if the consume reason code is not allowed.Emits a {Consumed} event if the consumption is successful.","params":{"amount":"The amount to consume.","consumeReasonCode":"The reason code of the consumption.","name":"The name of the realmId.","parentNode":"The parent node of the realmId.","r":"r value of the signature.","s":"s value of the signature.","v":"v value of the signature."}},"consume(uint256,uint256,bytes32)":{"details":"Reverts if fails to resolve owner of the realmId.Reverts if the sender is not the owner of the realmId.Reverts if fails to resolve realmId's version.Reverts if balance is insufficient.Reverts if the consume reason code is not allowed.Emits a {Consumed} event if the consumption is successful.","params":{"amount":"The amount to consume.","consumeReasonCode":"The reason code of the consumption.","realmId":"The realmId to deposit to."}},"consume(uint256,uint256,bytes32,uint8,bytes32,bytes32)":{"details":"Reverts if failes to resolve realmId's version.Reverts if signature is invalid.Reverts if fails to resolve owner of the realmId.Reverts if signer is not the realmId owner.Reverts if balance is insufficient.Reverts if the consume reason code is not allowed.Emits a {Consumed} event if the consumption is successful.","params":{"amount":"The amount to consume.","consumeReasonCode":"The reason code of the consumption.","r":"r value of the signature.","realmId":"The realmId to consume from.","s":"s value of the signature.","v":"v value of the signature."}},"deposit(bytes32,bytes32,string,uint256,uint256,bytes32)":{"details":"Reverts if sender does not have Depositor role.Reverts if the realmId does not exist.Reverts if the given realmId version does not match the current realmId version.Emits a {Deposited} event with msg.sender as the sender.","params":{"amount":"The amount to deposit.","depositReasonCode":"The reason code of the deposit.","name":"The name associated with the realmId.","parentNode":"The parent node associated with the realmId.","realmIdVersion":"The realmId version.","season":"The season to deposit to."}},"deposit(bytes32,uint256,uint256,uint256,bytes32)":{"details":"Reverts if sender does not have Depositor role.Reverts if the realmId does not exist.Reverts if the given realmId version does not match the current realmId version.Emits a {Deposited} event if successful.","params":{"amount":"The amount to deposit.","depositReasonCode":"The reason code of the deposit.","realmId":"The realmId to deposit to.","realmIdVersion":"The realmId version.","season":"The season to deposit to."}},"grantRole(bytes32,address)":{"details":"Reverts with {NotContractOwner} if the sender is not the contract owner.Emits a {RoleGranted} event if the account did not previously have the role.","params":{"account":"The account to grant the role to.","role":"The role to grant."}},"hasRole(bytes32,address)":{"params":{"account":"The account.","role":"The role."},"returns":{"hasRole_":"Whether `account` has `role`."}},"owner()":{"returns":{"_0":"The address of the contract owner."}},"preparePayload(uint256,address,uint256,bytes32)":{"details":"Reverts if fails to resolve the realmId's version.","params":{"amount":"The amount.","realmId":"The realmId.","reasonCode":"The reason code."},"returns":{"_0":"The payload."}},"proxiableUUID()":{"details":"Implementation of the ERC1822 {proxiableUUID} function. This returns the storage slot used by the implementation. It is used to validate the implementation's compatibility when performing an upgrade. IMPORTANT: A proxy pointing at a proxiable contract should not be considered proxiable itself, because this risks bricking a proxy that upgrades to it, by delegating to itself until out of gas. Thus it is critical that this function revert if invoked through a proxy. This is guaranteed by the `notDelegated` modifier."},"renounceRole(bytes32)":{"details":"Reverts if `sender` does not have `role`.Emits a {RoleRevoked} event.","params":{"role":"The role to renounce."}},"revokeRole(bytes32,address)":{"details":"Reverts with {NotContractOwner} if the sender is not the contract owner.Emits a {RoleRevoked} event if the account previously had the role.","params":{"account":"The account to revoke the role from.","role":"The role to revoke."}},"setCurrentSeason(bytes32)":{"details":"Reverts if sender does not have Admin role.Reverts if the given season has already been set before.Emits a {SetCurrentSeason} event if successful.","params":{"season":"The season to set."}},"transferOwnership(address)":{"details":"Reverts if the sender is not the contract owner.Emits an {OwnershipTransferred} event if `newOwner` is different from the current contract owner.","params":{"newOwner":"The address of the new contract owner. Using the zero address means renouncing ownership."}},"upgradeTo(address)":{"custom:oz-upgrades-unsafe-allow-reachable":"delegatecall","details":"Upgrade the implementation of the proxy to `newImplementation`. Calls {_authorizeUpgrade}. Emits an {Upgraded} event."},"upgradeToAndCall(address,bytes)":{"custom:oz-upgrades-unsafe-allow-reachable":"delegatecall","details":"Upgrade the implementation of the proxy to `newImplementation`, and subsequently execute the function call encoded in `data`. Calls {_authorizeUpgrade}. Emits an {Upgraded} event."}},"stateVariables":{"REALM_ID_CONTRACT":{"custom:oz-upgrades-unsafe-allow":"state-variable-immutable"}},"title":"RealmPoints","version":1},"evm":{"bytecode":{"linkReferences":{},"object":"60c0604052306080523480156200001557600080fd5b5060405162003d4038038062003d4083398101604081905262000038916200014c565b6001600160a01b03811662000070576040516382dd9ba360e01b81526001600160a01b03821660048201526024015b60405180910390fd5b6001600160a01b03811660a052620000876200008e565b506200017e565b600054610100900460ff1615620000f85760405162461bcd60e51b815260206004820152602760248201527f496e697469616c697a61626c653a20636f6e747261637420697320696e697469604482015266616c697a696e6760c81b606482015260840162000067565b60005460ff908116146200014a576000805460ff191660ff9081179091556040519081527f7f26b83ff96e1f2b6a682f133852f6798a09c465da95921460cefb38474024989060200160405180910390a15b565b6000602082840312156200015f57600080fd5b81516001600160a01b03811681146200017757600080fd5b9392505050565b60805160a051613b10620002306000396000818161027c015281816106860152818161076c0152818161086d0152818161092001528181610e73015281816112560152818161133c015281816118ba0152818161199801528181611a7201528181611b4e01528181611c1101528181611d1601528181611e1001528181611fc2015261213e015260008181610ab501528181610b6501528181610f8601528181611036015261117f0152613b106000f3fe6080604052600436106101e35760003560e01c80638bb9c5bf11610102578063ad3b1d4811610095578063dc893ce411610064578063dc893ce4146105f1578063e564a0e214610611578063f2fde38b14610631578063f95159621461065157600080fd5b8063ad3b1d481461057b578063bcb396211461059b578063d14a5c71146105b1578063d547741f146105d157600080fd5b806399d342ac116100d157806399d342ac146104e75780639cc7f708146105075780639d70b00514610527578063a3b0b5a31461054757600080fd5b80638bb9c5bf146104725780638da5cb5b14610492578063906405a3146104a757806391d14854146104c757600080fd5b80634529cc1b1161017a57806375b238fc1161014957806375b238fc146103e9578063794459be1461041d5780638129fc1c1461043d57806386a8e98a1461045257600080fd5b80634529cc1b146103435780634f1ef2861461038357806351955dfc1461039657806352d1902d146103d457600080fd5b80632f2ff15d116101b65780632f2ff15d146102c35780633659cfe6146102e35780633f30b00f146103035780634519eb1d1461032357600080fd5b8063098b6419146101e8578063141a468c1461021b57806318ee89f0146102485780632681a28a1461026a575b600080fd5b3480156101f457600080fd5b5061020861020336600461330a565b610681565b6040519081526020015b60405180910390f35b34801561022757600080fd5b5061020861023636600461335d565b60686020526000908152604090205481565b34801561025457600080fd5b50610268610263366004613376565b610809565b005b34801561027657600080fd5b5061029e7f000000000000000000000000000000000000000000000000000000000000000081565b60405173ffffffffffffffffffffffffffffffffffffffff9091168152602001610212565b3480156102cf57600080fd5b506102686102de3660046133d3565b610a70565b3480156102ef57600080fd5b506102686102fe366004613403565b610a9e565b34801561030f57600080fd5b5061026861031e366004613420565b610ca3565b34801561032f57600080fd5b5061020861033e366004613495565b610e2a565b34801561034f57600080fd5b5061037361035e36600461335d565b60666020526000908152604090205460ff1681565b6040519015158152602001610212565b610268610391366004613501565b610f6f565b3480156103a257600080fd5b506102086103b13660046135e3565b606760209081526000938452604080852082529284528284209052825290205481565b3480156103e057600080fd5b50610208611165565b3480156103f557600080fd5b506102087fa49807205ce4d355092ef5a8a18f56e8913cf4a201fbe287825b095693c2177581565b34801561042957600080fd5b5061020861043836600461360f565b611251565b34801561044957600080fd5b506102686113db565b34801561045e57600080fd5b5061026861046d36600461335d565b61157f565b34801561047e57600080fd5b5061026861048d36600461335d565b611663565b34801561049e57600080fd5b5061029e611677565b3480156104b357600080fd5b506102686104c2366004613420565b6116a3565b3480156104d357600080fd5b506103736104e23660046133d3565b61182d565b3480156104f357600080fd5b50610268610502366004613671565b61187a565b34801561051357600080fd5b5061020861052236600461335d565b61194f565b34801561053357600080fd5b506102686105423660046136f4565b611a32565b34801561055357600080fd5b506102087f8f4f2da22e8ac8f11e15f9fc141cddbb5deea8800186560abb6e68c5496619a981565b34801561058757600080fd5b50610208610596366004613762565b611b05565b3480156105a757600080fd5b5061020860655481565b3480156105bd57600080fd5b506102686105cc3660046135e3565b611bdf565b3480156105dd57600080fd5b506102686105ec3660046133d3565b611dac565b3480156105fd57600080fd5b5061026861060c366004613784565b611dcf565b34801561061d57600080fd5b5061026861062c3660046137d5565b6120fe565b34801561063d57600080fd5b5061026861064c366004613403565b6121cd565b34801561065d57600080fd5b5061037361066c36600461335d565b60696020526000908152604090205460ff1681565b6000807f000000000000000000000000000000000000000000000000000000000000000073ffffffffffffffffffffffffffffffffffffffff1663cad6b9018585886040518463ffffffff1660e01b81526004016106e193929190613833565b602060405180830381865afa1580156106fe573d6000803e3d6000fd5b505050506040513d601f19601f82011682018060405250810190610722919061388a565b6040517fa9735f940000000000000000000000000000000000000000000000000000000081526004810182905290915060009073ffffffffffffffffffffffffffffffffffffffff7f0000000000000000000000000000000000000000000000000000000000000000169063a9735f9490602401602060405180830381865afa1580156107b3573d6000803e3d6000fd5b505050506040513d601f19601f820116820180604052508101906107d7919061388a565b60008881526067602090815260408083209583529481528482209282529190915291909120549150505b949350505050565b61083e7f8f4f2da22e8ac8f11e15f9fc141cddbb5deea8800186560abb6e68c5496619a9335b6108376121e1565b919061220f565b6040517f6352211e000000000000000000000000000000000000000000000000000000008152600481018590527f000000000000000000000000000000000000000000000000000000000000000073ffffffffffffffffffffffffffffffffffffffff1690636352211e90602401602060405180830381865afa1580156108c9573d6000803e3d6000fd5b505050506040513d601f19601f820116820180604052508101906108ed91906138a3565b506040517fa9735f94000000000000000000000000000000000000000000000000000000008152600481018590526000907f000000000000000000000000000000000000000000000000000000000000000073ffffffffffffffffffffffffffffffffffffffff169063a9735f9490602401602060405180830381865afa15801561097c573d6000803e3d6000fd5b505050506040513d601f19601f820116820180604052508101906109a0919061388a565b90508381146109ea576040517fb196cc7700000000000000000000000000000000000000000000000000000000815260048101869052602481018590526044015b60405180910390fd5b6000868152606760209081526040808320888452825280832087845290915281208054859290610a1b9084906138ef565b909155505060408051868152602081018690529081018490528290879033907f9092bf6bd1cf7db4fcf41aedc7c0333b51c57f5b80b429bc3d9caa5587c6ad82906060015b60405180910390a4505050505050565b33610a8381610a7d612295565b906122c3565b610a99838383610a916121e1565b92919061232e565b505050565b73ffffffffffffffffffffffffffffffffffffffff7f0000000000000000000000000000000000000000000000000000000000000000163003610b63576040517f08c379a000000000000000000000000000000000000000000000000000000000815260206004820152602c60248201527f46756e6374696f6e206d7573742062652063616c6c6564207468726f7567682060448201527f64656c656761746563616c6c000000000000000000000000000000000000000060648201526084016109e1565b7f000000000000000000000000000000000000000000000000000000000000000073ffffffffffffffffffffffffffffffffffffffff16610bd87f360894a13ba1a3210667c828492db98dca3e2076cc3735a920a3ca505d382bbc5473ffffffffffffffffffffffffffffffffffffffff1690565b73ffffffffffffffffffffffffffffffffffffffff1614610c7b576040517f08c379a000000000000000000000000000000000000000000000000000000000815260206004820152602c60248201527f46756e6374696f6e206d7573742062652063616c6c6564207468726f7567682060448201527f6163746976652070726f7879000000000000000000000000000000000000000060648201526084016109e1565b610c8481612405565b60408051600080825260208201909252610ca091839190612411565b50565b610ccd7fa49807205ce4d355092ef5a8a18f56e8913cf4a201fbe287825b095693c217753361082f565b80610d04576040517f3fb4608600000000000000000000000000000000000000000000000000000000815260040160405180910390fd5b60005b81811015610dec5760696000848484818110610d2557610d25613902565b602090810292909201358352508101919091526040016000205460ff1615610d9557828282818110610d5957610d59613902565b905060200201356040517fb64212420000000000000000000000000000000000000000000000000000000081526004016109e191815260200190565b600160696000858585818110610dad57610dad613902565b90506020020135815260200190815260200160002060006101000a81548160ff0219169083151502179055508080610de490613931565b915050610d07565b507f0d8c56a8918ec09c2fe3c4d9fcc00ece66df217a1ab3ad768dd0a71620da5b4e8282604051610e1e929190613969565b60405180910390a15050565b6040517fa9735f9400000000000000000000000000000000000000000000000000000000815260048101859052600090819073ffffffffffffffffffffffffffffffffffffffff7f0000000000000000000000000000000000000000000000000000000000000000169063a9735f9490602401602060405180830381865afa158015610eba573d6000803e3d6000fd5b505050506040513d601f19601f82011682018060405250810190610ede919061388a565b60008781526068602090815260408083205460655482518085018d905280840187905260608c811b7fffffffffffffffffffffffffffffffffffffffff0000000000000000000000001690820152607481018b9052609481019190915260b4810189905260d4808201929092528251808203909201825260f401909152805191012091925090979650505050505050565b73ffffffffffffffffffffffffffffffffffffffff7f0000000000000000000000000000000000000000000000000000000000000000163003611034576040517f08c379a000000000000000000000000000000000000000000000000000000000815260206004820152602c60248201527f46756e6374696f6e206d7573742062652063616c6c6564207468726f7567682060448201527f64656c656761746563616c6c000000000000000000000000000000000000000060648201526084016109e1565b7f000000000000000000000000000000000000000000000000000000000000000073ffffffffffffffffffffffffffffffffffffffff166110a97f360894a13ba1a3210667c828492db98dca3e2076cc3735a920a3ca505d382bbc5473ffffffffffffffffffffffffffffffffffffffff1690565b73ffffffffffffffffffffffffffffffffffffffff161461114c576040517f08c379a000000000000000000000000000000000000000000000000000000000815260206004820152602c60248201527f46756e6374696f6e206d7573742062652063616c6c6564207468726f7567682060448201527f6163746976652070726f7879000000000000000000000000000000000000000060648201526084016109e1565b61115582612405565b61116182826001612411565b5050565b60003073ffffffffffffffffffffffffffffffffffffffff7f0000000000000000000000000000000000000000000000000000000000000000161461122c576040517f08c379a000000000000000000000000000000000000000000000000000000000815260206004820152603860248201527f555550535570677261646561626c653a206d757374206e6f742062652063616c60448201527f6c6564207468726f7567682064656c656761746563616c6c000000000000000060648201526084016109e1565b507f360894a13ba1a3210667c828492db98dca3e2076cc3735a920a3ca505d382bbc90565b6000807f000000000000000000000000000000000000000000000000000000000000000073ffffffffffffffffffffffffffffffffffffffff1663cad6b9018585886040518463ffffffff1660e01b81526004016112b193929190613833565b602060405180830381865afa1580156112ce573d6000803e3d6000fd5b505050506040513d601f19601f820116820180604052508101906112f2919061388a565b6040517fa9735f940000000000000000000000000000000000000000000000000000000081526004810182905290915060009073ffffffffffffffffffffffffffffffffffffffff7f0000000000000000000000000000000000000000000000000000000000000000169063a9735f9490602401602060405180830381865afa158015611383573d6000803e3d6000fd5b505050506040513d601f19601f820116820180604052508101906113a7919061388a565b60655460009081526067602090815260408083209583529481528482209282529190915291909120549150505b9392505050565b600054610100900460ff16158080156113fb5750600054600160ff909116105b806114155750303b158015611415575060005460ff166001145b6114a1576040517f08c379a000000000000000000000000000000000000000000000000000000000815260206004820152602e60248201527f496e697469616c697a61626c653a20636f6e747261637420697320616c72656160448201527f647920696e697469616c697a656400000000000000000000000000000000000060648201526084016109e1565b600080547fffffffffffffffffffffffffffffffffffffffffffffffffffffffffffffff0016600117905580156114ff57600080547fffffffffffffffffffffffffffffffffffffffffffffffffffffffffffff00ff166101001790555b611507612610565b61151933611513612295565b906126a9565b8015610ca057600080547fffffffffffffffffffffffffffffffffffffffffffffffffffffffffffff00ff169055604051600181527f7f26b83ff96e1f2b6a682f133852f6798a09c465da95921460cefb3847402498906020015b60405180910390a150565b6115a97fa49807205ce4d355092ef5a8a18f56e8913cf4a201fbe287825b095693c217753361082f565b60008181526066602052604090205460ff16156115f5576040517f796c3e9a000000000000000000000000000000000000000000000000000000008152600481018290526024016109e1565b60658190556000818152606660205260409081902080547fffffffffffffffffffffffffffffffffffffffffffffffffffffffffffffff00166001179055517f61228c895f8ba06548597d3e34a23bc0ecb6d1e62a1eb3fa30be04883a17ef31906115749083815260200190565b610ca033826116706121e1565b91906126e8565b600061169e611684612295565b5473ffffffffffffffffffffffffffffffffffffffff1690565b905090565b6116cd7fa49807205ce4d355092ef5a8a18f56e8913cf4a201fbe287825b095693c217753361082f565b80611704576040517f3fb4608600000000000000000000000000000000000000000000000000000000815260040160405180910390fd5b60005b818110156117fb576069600084848481811061172557611725613902565b602090810292909201358352508101919091526040016000205460ff166117945782828281811061175857611758613902565b905060200201356040517fa89513e10000000000000000000000000000000000000000000000000000000081526004016109e191815260200190565b606960008484848181106117aa576117aa613902565b6020908102929092013583525081019190915260400160002080547fffffffffffffffffffffffffffffffffffffffffffffffffffffffffffffff00169055806117f381613931565b915050611707565b507f5b2c9fcbb27d48bdbfc59f0564b5ba81539309ebf09a940fad64d171bcfb9ff98282604051610e1e929190613969565b6000611871838361183c6121e1565b60009283526020908152604080842073ffffffffffffffffffffffffffffffffffffffff909316845291905290205460ff1690565b90505b92915050565b6040517fcad6b90100000000000000000000000000000000000000000000000000000000815260009073ffffffffffffffffffffffffffffffffffffffff7f0000000000000000000000000000000000000000000000000000000000000000169063cad6b901906118f3908b908b908e90600401613833565b602060405180830381865afa158015611910573d6000803e3d6000fd5b505050506040513d601f19601f82011682018060405250810190611934919061388a565b9050611944818787878787611dcf565b505050505050505050565b6040517fa9735f9400000000000000000000000000000000000000000000000000000000815260048101829052600090819073ffffffffffffffffffffffffffffffffffffffff7f0000000000000000000000000000000000000000000000000000000000000000169063a9735f9490602401602060405180830381865afa1580156119df573d6000803e3d6000fd5b505050506040513d601f19601f82011682018060405250810190611a03919061388a565b606554600090815260676020908152604080832096835295815285822092825291909152929092205492915050565b6040517fcad6b90100000000000000000000000000000000000000000000000000000000815260009073ffffffffffffffffffffffffffffffffffffffff7f0000000000000000000000000000000000000000000000000000000000000000169063cad6b90190611aab90899089908c90600401613833565b602060405180830381865afa158015611ac8573d6000803e3d6000fd5b505050506040513d601f19601f82011682018060405250810190611aec919061388a565b9050611afb8882868686610809565b5050505050505050565b6040517fa9735f9400000000000000000000000000000000000000000000000000000000815260048101829052600090819073ffffffffffffffffffffffffffffffffffffffff7f0000000000000000000000000000000000000000000000000000000000000000169063a9735f9490602401602060405180830381865afa158015611b95573d6000803e3d6000fd5b505050506040513d601f19601f82011682018060405250810190611bb9919061388a565b600094855260676020908152604080872095875294815284862091865252505090205490565b6040517f6352211e000000000000000000000000000000000000000000000000000000008152600481018490526000907f000000000000000000000000000000000000000000000000000000000000000073ffffffffffffffffffffffffffffffffffffffff1690636352211e90602401602060405180830381865afa158015611c6d573d6000803e3d6000fd5b505050506040513d601f19601f82011682018060405250810190611c9191906138a3565b90503373ffffffffffffffffffffffffffffffffffffffff821614611ce4576040517f33ffff9b0000000000000000000000000000000000000000000000000000000081523360048201526024016109e1565b6040517fa9735f94000000000000000000000000000000000000000000000000000000008152600481018590526000907f000000000000000000000000000000000000000000000000000000000000000073ffffffffffffffffffffffffffffffffffffffff169063a9735f9490602401602060405180830381865afa158015611d72573d6000803e3d6000fd5b505050506040513d601f19601f82011682018060405250810190611d96919061388a565b9050611da5858286868661278c565b5050505050565b33611db981610a7d612295565b610a99838383611dc76121e1565b9291906128d1565b6000868152606860205260408082205490517fa9735f94000000000000000000000000000000000000000000000000000000008152600481018990529091907f000000000000000000000000000000000000000000000000000000000000000073ffffffffffffffffffffffffffffffffffffffff169063a9735f9490602401602060405180830381865afa158015611e6c573d6000803e3d6000fd5b505050506040513d601f19601f82011682018060405250810190611e90919061388a565b6065546040805160208082018d905281830185905233606090811b7fffffffffffffffffffffffffffffffffffffffff0000000000000000000000001690830152607482018c9052609482019390935260b481018a905260d48082018790528251808303909101815260f490910190915280519101209091506000906040517f19457468657265756d205369676e6564204d6573736167653a0a3332000000006020820152603c8101829052909150600090605c01604080517fffffffffffffffffffffffffffffffffffffffffffffffffffffffffffffffe08184030181529082905280516020909101207f6352211e000000000000000000000000000000000000000000000000000000008252600482018c9052915060009073ffffffffffffffffffffffffffffffffffffffff7f00000000000000000000000000000000000000000000000000000000000000001690636352211e90602401602060405180830381865afa158015612009573d6000803e3d6000fd5b505050506040513d601f19601f8201168201806040525081019061202d91906138a3565b60408051602081018a905280820189905260f88b901b7fff00000000000000000000000000000000000000000000000000000000000000166060820152815160418183030181526061909101909152909150600061208c83858461299b565b9050806120c5576040517f8baa579f00000000000000000000000000000000000000000000000000000000815260040160405180910390fd5b6120d28d878e8e8761278c565b6120dd8760016138ef565b60009d8e5260686020526040909d209c909c55505050505050505050505050565b6040517fcad6b90100000000000000000000000000000000000000000000000000000000815260009073ffffffffffffffffffffffffffffffffffffffff7f0000000000000000000000000000000000000000000000000000000000000000169063cad6b9019061217790889088908b90600401613833565b602060405180830381865afa158015612194573d6000803e3d6000fd5b505050506040513d601f19601f820116820180604052508101906121b8919061388a565b90506121c5818484611bdf565b505050505050565b610ca033826121da612295565b9190612b68565b60008061187460017fc8827d3282af6f37b64c3e9e6f3ac9df286ab0bb0fccd6f8661bf19adb368b236139bb565b60008281526020848152604080832073ffffffffffffffffffffffffffffffffffffffff8516845290915290205460ff16610a99576040517f7aa728820000000000000000000000000000000000000000000000000000000081526004810183905273ffffffffffffffffffffffffffffffffffffffff821660248201526044016109e1565b60008061187460017fc9ed16f33ab3a66c84bfd83099ccb2a8845871e2e1c1928f63797152f0fd54cd6139bb565b815473ffffffffffffffffffffffffffffffffffffffff828116911614611161576040517f2ef4875e00000000000000000000000000000000000000000000000000000000815273ffffffffffffffffffffffffffffffffffffffff821660048201526024016109e1565b60008381526020858152604080832073ffffffffffffffffffffffffffffffffffffffff8616845290915290205460ff166123ff5760008381526020858152604080832073ffffffffffffffffffffffffffffffffffffffff8681168086529184529382902080547fffffffffffffffffffffffffffffffffffffffffffffffffffffffffffffff00166001179055815187815292830152918316918101919091527f2f8788117e7eff1d82e926ec794901d17c78024a50270940304540a733656f0d906060015b60405180910390a15b50505050565b610ca033610a7d612295565b7f4910fdfa16fed3260ed0e7147f7cc6da11a60208b5b9406d12a635614ffd91435460ff161561244457610a9983612c7c565b8273ffffffffffffffffffffffffffffffffffffffff166352d1902d6040518163ffffffff1660e01b8152600401602060405180830381865afa9250505080156124c9575060408051601f3d9081017fffffffffffffffffffffffffffffffffffffffffffffffffffffffffffffffe01682019092526124c69181019061388a565b60015b612555576040517f08c379a000000000000000000000000000000000000000000000000000000000815260206004820152602e60248201527f45524331393637557067726164653a206e657720696d706c656d656e7461746960448201527f6f6e206973206e6f74205555505300000000000000000000000000000000000060648201526084016109e1565b7f360894a13ba1a3210667c828492db98dca3e2076cc3735a920a3ca505d382bbc8114612604576040517f08c379a000000000000000000000000000000000000000000000000000000000815260206004820152602960248201527f45524331393637557067726164653a20756e737570706f727465642070726f7860448201527f6961626c6555554944000000000000000000000000000000000000000000000060648201526084016109e1565b50610a99838383612d86565b600054610100900460ff166126a7576040517f08c379a000000000000000000000000000000000000000000000000000000000815260206004820152602b60248201527f496e697469616c697a61626c653a20636f6e7472616374206973206e6f74206960448201527f6e697469616c697a696e6700000000000000000000000000000000000000000060648201526084016109e1565b565b6126de6126d760017f5b388d90dc1312ba799f321972f13311234fa1163bcabec7cf66101c4876eb846139bb565b6001612dab565b6111618282612df7565b6126f383828461220f565b60008181526020848152604080832073ffffffffffffffffffffffffffffffffffffffff86168085529083529281902080547fffffffffffffffffffffffffffffffffffffffffffffffffffffffffffffff0016905580518481529182018390528101919091527ff6391f5c32d9c69d2a47ea670b442974b53935d1edc7fd64eb21e047a839171b9060600160405180910390a1505050565b60655460009081526067602090815260408083208884528252808320878452909152902054838110156127f5576040517fcf47918100000000000000000000000000000000000000000000000000000000815260048101879052602481018590526044016109e1565b60008381526069602052604090205460ff16612840576040517fa89513e1000000000000000000000000000000000000000000000000000000008152600481018490526024016109e1565b61284a84826139bb565b6065805460009081526067602090815260408083208b845282528083208a8452825291829020939093559054815133815292830188905290820186905273ffffffffffffffffffffffffffffffffffffffff84166060830152849188907fe514533875fbd3f8f396088d636e746599d8b5c3ba77e9ccfa9fc01ff706460190608001610a60565b60008381526020858152604080832073ffffffffffffffffffffffffffffffffffffffff8616845290915290205460ff16156123ff5760008381526020858152604080832073ffffffffffffffffffffffffffffffffffffffff8681168086529184529382902080547fffffffffffffffffffffffffffffffffffffffffffffffffffffffffffffff00169055815187815292830152918316918101919091527ff6391f5c32d9c69d2a47ea670b442974b53935d1edc7fd64eb21e047a839171b906060016123f6565b60008060006129aa8585612eb4565b909250905060008160048111156129c3576129c36139ce565b1480156129fb57508573ffffffffffffffffffffffffffffffffffffffff168273ffffffffffffffffffffffffffffffffffffffff16145b15612a0b576001925050506113d4565b6000808773ffffffffffffffffffffffffffffffffffffffff16631626ba7e60e01b8888604051602401612a40929190613a6b565b604080517fffffffffffffffffffffffffffffffffffffffffffffffffffffffffffffffe08184030181529181526020820180517bffffffffffffffffffffffffffffffffffffffffffffffffffffffff167fffffffff00000000000000000000000000000000000000000000000000000000909416939093179092529051612ac99190613a84565b600060405180830381855afa9150503d8060008114612b04576040519150601f19603f3d011682016040523d82523d6000602084013e612b09565b606091505b5091509150818015612b1c575080516020145b8015612b5c575080517f1626ba7e0000000000000000000000000000000000000000000000000000000090612b5a908301602090810190840161388a565b145b98975050505050505050565b825473ffffffffffffffffffffffffffffffffffffffff9081169083168114612bd5576040517f2ef4875e00000000000000000000000000000000000000000000000000000000815273ffffffffffffffffffffffffffffffffffffffff841660048201526024016109e1565b8173ffffffffffffffffffffffffffffffffffffffff168173ffffffffffffffffffffffffffffffffffffffff16146123ff5783547fffffffffffffffffffffffff00000000000000000000000000000000000000001673ffffffffffffffffffffffffffffffffffffffff8381169182178655604051908316907f8be0079c531659141344cd1fd0a4f28419497f9722a3daafe3b4186f6b6457e090600090a350505050565b73ffffffffffffffffffffffffffffffffffffffff81163b612d20576040517f08c379a000000000000000000000000000000000000000000000000000000000815260206004820152602d60248201527f455243313936373a206e657720696d706c656d656e746174696f6e206973206e60448201527f6f74206120636f6e74726163740000000000000000000000000000000000000060648201526084016109e1565b7f360894a13ba1a3210667c828492db98dca3e2076cc3735a920a3ca505d382bbc80547fffffffffffffffffffffffff00000000000000000000000000000000000000001673ffffffffffffffffffffffffffffffffffffffff92909216919091179055565b612d8f83612ef9565b600082511180612d9c5750805b15610a99576123ff8383612f46565b81548290828110612df2576040517fbf0c18ec00000000000000000000000000000000000000000000000000000000815260048101829052602481018490526044016109e1565b505550565b73ffffffffffffffffffffffffffffffffffffffff811615612e7f5781547fffffffffffffffffffffffff00000000000000000000000000000000000000001673ffffffffffffffffffffffffffffffffffffffff821690811783556040516000907f8be0079c531659141344cd1fd0a4f28419497f9722a3daafe3b4186f6b6457e0908290a35b6111617f7f5828d0000000000000000000000000000000000000000000000000000000006001612ead612f6b565b9190612f99565b6000808251604103612eea5760208301516040840151606085015160001a612ede87828585613075565b94509450505050612ef2565b506000905060025b9250929050565b612f0281612c7c565b60405173ffffffffffffffffffffffffffffffffffffffff8216907fbc7cd75a20ee27fd9adebab32041f755214dbc6bffa90cc0225b39da2e5c2d3b90600090a250565b60606118718383604051806060016040528060278152602001613ab460279139613164565b60008061187460017fca9d3e17f264b0f3984e2634e94adb37fa3e6a8103f06aeae6fa59e21c769f5e6139bb565b7c01000000000000000000000000000000000000000000000000000000007fffffffff00000000000000000000000000000000000000000000000000000000831601613011576040517f72c683bb00000000000000000000000000000000000000000000000000000000815260040160405180910390fd5b7fffffffff00000000000000000000000000000000000000000000000000000000919091166000908152602092909252604090912080547fffffffffffffffffffffffffffffffffffffffffffffffffffffffffffffff0016911515919091179055565b6000807f7fffffffffffffffffffffffffffffff5d576e7357a4501ddfe92f46681b20a08311156130ac575060009050600361315b565b6040805160008082526020820180845289905260ff881692820192909252606081018690526080810185905260019060a0016020604051602081039080840390855afa158015613100573d6000803e3d6000fd5b50506040517fffffffffffffffffffffffffffffffffffffffffffffffffffffffffffffffe0015191505073ffffffffffffffffffffffffffffffffffffffff81166131545760006001925092505061315b565b9150600090505b94509492505050565b60606000808573ffffffffffffffffffffffffffffffffffffffff168560405161318e9190613a84565b600060405180830381855af49150503d80600081146131c9576040519150601f19603f3d011682016040523d82523d6000602084013e6131ce565b606091505b50915091506131df868383876131e9565b9695505050505050565b6060831561327f5782516000036132785773ffffffffffffffffffffffffffffffffffffffff85163b613278576040517f08c379a000000000000000000000000000000000000000000000000000000000815260206004820152601d60248201527f416464726573733a2063616c6c20746f206e6f6e2d636f6e747261637400000060448201526064016109e1565b5081610801565b61080183838151156132945781518083602001fd5b806040517f08c379a00000000000000000000000000000000000000000000000000000000081526004016109e19190613aa0565b60008083601f8401126132da57600080fd5b50813567ffffffffffffffff8111156132f257600080fd5b602083019150836020828501011115612ef257600080fd5b6000806000806060858703121561332057600080fd5b8435935060208501359250604085013567ffffffffffffffff81111561334557600080fd5b613351878288016132c8565b95989497509550505050565b60006020828403121561336f57600080fd5b5035919050565b600080600080600060a0868803121561338e57600080fd5b505083359560208501359550604085013594606081013594506080013592509050565b73ffffffffffffffffffffffffffffffffffffffff81168114610ca057600080fd5b600080604083850312156133e657600080fd5b8235915060208301356133f8816133b1565b809150509250929050565b60006020828403121561341557600080fd5b81356113d4816133b1565b6000806020838503121561343357600080fd5b823567ffffffffffffffff8082111561344b57600080fd5b818501915085601f83011261345f57600080fd5b81358181111561346e57600080fd5b8660208260051b850101111561348357600080fd5b60209290920196919550909350505050565b600080600080608085870312156134ab57600080fd5b8435935060208501356134bd816133b1565b93969395505050506040820135916060013590565b7f4e487b7100000000000000000000000000000000000000000000000000000000600052604160045260246000fd5b6000806040838503121561351457600080fd5b823561351f816133b1565b9150602083013567ffffffffffffffff8082111561353c57600080fd5b818501915085601f83011261355057600080fd5b813581811115613562576135626134d2565b604051601f82017fffffffffffffffffffffffffffffffffffffffffffffffffffffffffffffffe0908116603f011681019083821181831017156135a8576135a86134d2565b816040528281528860208487010111156135c157600080fd5b8260208601602083013760006020848301015280955050505050509250929050565b6000806000606084860312156135f857600080fd5b505081359360208301359350604090920135919050565b60008060006040848603121561362457600080fd5b83359250602084013567ffffffffffffffff81111561364257600080fd5b61364e868287016132c8565b9497909650939450505050565b803560ff8116811461366c57600080fd5b919050565b60008060008060008060008060e0898b03121561368d57600080fd5b88359750602089013567ffffffffffffffff8111156136ab57600080fd5b6136b78b828c016132c8565b90985096505060408901359450606089013593506136d760808a0161365b565b925060a0890135915060c089013590509295985092959890939650565b600080600080600080600060c0888a03121561370f57600080fd5b8735965060208801359550604088013567ffffffffffffffff81111561373457600080fd5b6137408a828b016132c8565b989b979a50986060810135976080820135975060a09091013595509350505050565b6000806040838503121561377557600080fd5b50508035926020909101359150565b60008060008060008060c0878903121561379d57600080fd5b8635955060208701359450604087013593506137bb6060880161365b565b92506080870135915060a087013590509295509295509295565b6000806000806000608086880312156137ed57600080fd5b85359450602086013567ffffffffffffffff81111561380b57600080fd5b613817888289016132c8565b9699909850959660408101359660609091013595509350505050565b6040815282604082015282846060830137600060608483010152600060607fffffffffffffffffffffffffffffffffffffffffffffffffffffffffffffffe0601f8601168301019050826020830152949350505050565b60006020828403121561389c57600080fd5b5051919050565b6000602082840312156138b557600080fd5b81516113d4816133b1565b7f4e487b7100000000000000000000000000000000000000000000000000000000600052601160045260246000fd5b80820180821115611874576118746138c0565b7f4e487b7100000000000000000000000000000000000000000000000000000000600052603260045260246000fd5b60007fffffffffffffffffffffffffffffffffffffffffffffffffffffffffffffffff8203613962576139626138c0565b5060010190565b6020815281602082015260007f07ffffffffffffffffffffffffffffffffffffffffffffffffffffffffffffff8311156139a257600080fd5b8260051b80856040850137919091016040019392505050565b81810381811115611874576118746138c0565b7f4e487b7100000000000000000000000000000000000000000000000000000000600052602160045260246000fd5b60005b83811015613a18578181015183820152602001613a00565b50506000910152565b60008151808452613a398160208601602086016139fd565b601f017fffffffffffffffffffffffffffffffffffffffffffffffffffffffffffffffe0169290920160200192915050565b8281526040602082015260006108016040830184613a21565b60008251613a968184602087016139fd565b9190910192915050565b6020815260006118716020830184613a2156fe416464726573733a206c6f772d6c6576656c2064656c65676174652063616c6c206661696c6564a264697066735822122099eec93751115fd02cb5391e020e7a71ebba7951e79aa7ca38e5b3b21b6cfd4564736f6c63430008150033","opcodes":"PUSH1 0xC0 PUSH1 0x40 MSTORE ADDRESS PUSH1 0x80 MSTORE CALLVALUE DUP1 ISZERO PUSH3 0x15 JUMPI PUSH1 0x0 DUP1 REVERT JUMPDEST POP PUSH1 0x40 MLOAD PUSH3 0x3D40 CODESIZE SUB DUP1 PUSH3 0x3D40 DUP4 CODECOPY DUP2 ADD PUSH1 0x40 DUP2 SWAP1 MSTORE PUSH3 0x38 SWAP2 PUSH3 0x14C JUMP JUMPDEST PUSH1 0x1 PUSH1 0x1 PUSH1 0xA0 SHL SUB DUP2 AND PUSH3 0x70 JUMPI PUSH1 0x40 MLOAD PUSH4 0x82DD9BA3 PUSH1 0xE0 SHL DUP2 MSTORE PUSH1 0x1 PUSH1 0x1 PUSH1 0xA0 SHL SUB DUP3 AND PUSH1 0x4 DUP3 ADD MSTORE PUSH1 0x24 ADD JUMPDEST PUSH1 0x40 MLOAD DUP1 SWAP2 SUB SWAP1 REVERT JUMPDEST PUSH1 0x1 PUSH1 0x1 PUSH1 0xA0 SHL SUB DUP2 AND PUSH1 0xA0 MSTORE PUSH3 0x87 PUSH3 0x8E JUMP JUMPDEST POP PUSH3 0x17E JUMP JUMPDEST PUSH1 0x0 SLOAD PUSH2 0x100 SWAP1 DIV PUSH1 0xFF AND ISZERO PUSH3 0xF8 JUMPI PUSH1 0x40 MLOAD PUSH3 0x461BCD PUSH1 0xE5 SHL DUP2 MSTORE PUSH1 0x20 PUSH1 0x4 DUP3 ADD MSTORE PUSH1 0x27 PUSH1 0x24 DUP3 ADD MSTORE PUSH32 0x496E697469616C697A61626C653A20636F6E747261637420697320696E697469 PUSH1 0x44 DUP3 ADD MSTORE PUSH7 0x616C697A696E67 PUSH1 0xC8 SHL PUSH1 0x64 DUP3 ADD MSTORE PUSH1 0x84 ADD PUSH3 0x67 JUMP JUMPDEST PUSH1 0x0 SLOAD PUSH1 0xFF SWAP1 DUP2 AND EQ PUSH3 0x14A JUMPI PUSH1 0x0 DUP1 SLOAD PUSH1 0xFF NOT AND PUSH1 0xFF SWAP1 DUP2 OR SWAP1 SWAP2 SSTORE PUSH1 0x40 MLOAD SWAP1 DUP2 MSTORE PUSH32 0x7F26B83FF96E1F2B6A682F133852F6798A09C465DA95921460CEFB3847402498 SWAP1 PUSH1 0x20 ADD PUSH1 0x40 MLOAD DUP1 SWAP2 SUB SWAP1 LOG1 JUMPDEST JUMP JUMPDEST PUSH1 0x0 PUSH1 0x20 DUP3 DUP5 SUB SLT ISZERO PUSH3 0x15F JUMPI PUSH1 0x0 DUP1 REVERT JUMPDEST DUP2 MLOAD PUSH1 0x1 PUSH1 0x1 PUSH1 0xA0 SHL SUB DUP2 AND DUP2 EQ PUSH3 0x177 JUMPI PUSH1 0x0 DUP1 REVERT JUMPDEST SWAP4 SWAP3 POP POP POP JUMP JUMPDEST PUSH1 0x80 MLOAD PUSH1 0xA0 MLOAD PUSH2 0x3B10 PUSH3 0x230 PUSH1 0x0 CODECOPY PUSH1 0x0 DUP2 DUP2 PUSH2 0x27C ADD MSTORE DUP2 DUP2 PUSH2 0x686 ADD MSTORE DUP2 DUP2 PUSH2 0x76C ADD MSTORE DUP2 DUP2 PUSH2 0x86D ADD MSTORE DUP2 DUP2 PUSH2 0x920 ADD MSTORE DUP2 DUP2 PUSH2 0xE73 ADD MSTORE DUP2 DUP2 PUSH2 0x1256 ADD MSTORE DUP2 DUP2 PUSH2 0x133C ADD MSTORE DUP2 DUP2 PUSH2 0x18BA ADD MSTORE DUP2 DUP2 PUSH2 0x1998 ADD MSTORE DUP2 DUP2 PUSH2 0x1A72 ADD MSTORE DUP2 DUP2 PUSH2 0x1B4E ADD MSTORE DUP2 DUP2 PUSH2 0x1C11 ADD MSTORE DUP2 DUP2 PUSH2 0x1D16 ADD MSTORE DUP2 DUP2 PUSH2 0x1E10 ADD MSTORE DUP2 DUP2 PUSH2 0x1FC2 ADD MSTORE PUSH2 0x213E ADD MSTORE PUSH1 0x0 DUP2 DUP2 PUSH2 0xAB5 ADD MSTORE DUP2 DUP2 PUSH2 0xB65 ADD MSTORE DUP2 DUP2 PUSH2 0xF86 ADD MSTORE DUP2 DUP2 PUSH2 0x1036 ADD MSTORE PUSH2 0x117F ADD MSTORE PUSH2 0x3B10 PUSH1 0x0 RETURN INVALID PUSH1 0x80 PUSH1 0x40 MSTORE PUSH1 0x4 CALLDATASIZE LT PUSH2 0x1E3 JUMPI PUSH1 0x0 CALLDATALOAD PUSH1 0xE0 SHR DUP1 PUSH4 0x8BB9C5BF GT PUSH2 0x102 JUMPI DUP1 PUSH4 0xAD3B1D48 GT PUSH2 0x95 JUMPI DUP1 PUSH4 0xDC893CE4 GT PUSH2 0x64 JUMPI DUP1 PUSH4 0xDC893CE4 EQ PUSH2 0x5F1 JUMPI DUP1 PUSH4 0xE564A0E2 EQ PUSH2 0x611 JUMPI DUP1 PUSH4 0xF2FDE38B EQ PUSH2 0x631 JUMPI DUP1 PUSH4 0xF9515962 EQ PUSH2 0x651 JUMPI PUSH1 0x0 DUP1 REVERT JUMPDEST DUP1 PUSH4 0xAD3B1D48 EQ PUSH2 0x57B JUMPI DUP1 PUSH4 0xBCB39621 EQ PUSH2 0x59B JUMPI DUP1 PUSH4 0xD14A5C71 EQ PUSH2 0x5B1 JUMPI DUP1 PUSH4 0xD547741F EQ PUSH2 0x5D1 JUMPI PUSH1 0x0 DUP1 REVERT JUMPDEST DUP1 PUSH4 0x99D342AC GT PUSH2 0xD1 JUMPI DUP1 PUSH4 0x99D342AC EQ PUSH2 0x4E7 JUMPI DUP1 PUSH4 0x9CC7F708 EQ PUSH2 0x507 JUMPI DUP1 PUSH4 0x9D70B005 EQ PUSH2 0x527 JUMPI DUP1 PUSH4 0xA3B0B5A3 EQ PUSH2 0x547 JUMPI PUSH1 0x0 DUP1 REVERT JUMPDEST DUP1 PUSH4 0x8BB9C5BF EQ PUSH2 0x472 JUMPI DUP1 PUSH4 0x8DA5CB5B EQ PUSH2 0x492 JUMPI DUP1 PUSH4 0x906405A3 EQ PUSH2 0x4A7 JUMPI DUP1 PUSH4 0x91D14854 EQ PUSH2 0x4C7 JUMPI PUSH1 0x0 DUP1 REVERT JUMPDEST DUP1 PUSH4 0x4529CC1B GT PUSH2 0x17A JUMPI DUP1 PUSH4 0x75B238FC GT PUSH2 0x149 JUMPI DUP1 PUSH4 0x75B238FC EQ PUSH2 0x3E9 JUMPI DUP1 PUSH4 0x794459BE EQ PUSH2 0x41D JUMPI DUP1 PUSH4 0x8129FC1C EQ PUSH2 0x43D JUMPI DUP1 PUSH4 0x86A8E98A EQ PUSH2 0x452 JUMPI PUSH1 0x0 DUP1 REVERT JUMPDEST DUP1 PUSH4 0x4529CC1B EQ PUSH2 0x343 JUMPI DUP1 PUSH4 0x4F1EF286 EQ PUSH2 0x383 JUMPI DUP1 PUSH4 0x51955DFC EQ PUSH2 0x396 JUMPI DUP1 PUSH4 0x52D1902D EQ PUSH2 0x3D4 JUMPI PUSH1 0x0 DUP1 REVERT JUMPDEST DUP1 PUSH4 0x2F2FF15D GT PUSH2 0x1B6 JUMPI DUP1 PUSH4 0x2F2FF15D EQ PUSH2 0x2C3 JUMPI DUP1 PUSH4 0x3659CFE6 EQ PUSH2 0x2E3 JUMPI DUP1 PUSH4 0x3F30B00F EQ PUSH2 0x303 JUMPI DUP1 PUSH4 0x4519EB1D EQ PUSH2 0x323 JUMPI PUSH1 0x0 DUP1 REVERT JUMPDEST DUP1 PUSH4 0x98B6419 EQ PUSH2 0x1E8 JUMPI DUP1 PUSH4 0x141A468C EQ PUSH2 0x21B JUMPI DUP1 PUSH4 0x18EE89F0 EQ PUSH2 0x248 JUMPI DUP1 PUSH4 0x2681A28A EQ PUSH2 0x26A JUMPI JUMPDEST PUSH1 0x0 DUP1 REVERT JUMPDEST CALLVALUE DUP1 ISZERO PUSH2 0x1F4 JUMPI PUSH1 0x0 DUP1 REVERT JUMPDEST POP PUSH2 0x208 PUSH2 0x203 CALLDATASIZE PUSH1 0x4 PUSH2 0x330A JUMP JUMPDEST PUSH2 0x681 JUMP JUMPDEST PUSH1 0x40 MLOAD SWAP1 DUP2 MSTORE PUSH1 0x20 ADD JUMPDEST PUSH1 0x40 MLOAD DUP1 SWAP2 SUB SWAP1 RETURN JUMPDEST CALLVALUE DUP1 ISZERO PUSH2 0x227 JUMPI PUSH1 0x0 DUP1 REVERT JUMPDEST POP PUSH2 0x208 PUSH2 0x236 CALLDATASIZE PUSH1 0x4 PUSH2 0x335D JUMP JUMPDEST PUSH1 0x68 PUSH1 0x20 MSTORE PUSH1 0x0 SWAP1 DUP2 MSTORE PUSH1 0x40 SWAP1 KECCAK256 SLOAD DUP2 JUMP JUMPDEST CALLVALUE DUP1 ISZERO PUSH2 0x254 JUMPI PUSH1 0x0 DUP1 REVERT JUMPDEST POP PUSH2 0x268 PUSH2 0x263 CALLDATASIZE PUSH1 0x4 PUSH2 0x3376 JUMP JUMPDEST PUSH2 0x809 JUMP JUMPDEST STOP JUMPDEST CALLVALUE DUP1 ISZERO PUSH2 0x276 JUMPI PUSH1 0x0 DUP1 REVERT JUMPDEST POP PUSH2 0x29E PUSH32 0x0 DUP2 JUMP JUMPDEST PUSH1 0x40 MLOAD PUSH20 0xFFFFFFFFFFFFFFFFFFFFFFFFFFFFFFFFFFFFFFFF SWAP1 SWAP2 AND DUP2 MSTORE PUSH1 0x20 ADD PUSH2 0x212 JUMP JUMPDEST CALLVALUE DUP1 ISZERO PUSH2 0x2CF JUMPI PUSH1 0x0 DUP1 REVERT JUMPDEST POP PUSH2 0x268 PUSH2 0x2DE CALLDATASIZE PUSH1 0x4 PUSH2 0x33D3 JUMP JUMPDEST PUSH2 0xA70 JUMP JUMPDEST CALLVALUE DUP1 ISZERO PUSH2 0x2EF JUMPI PUSH1 0x0 DUP1 REVERT JUMPDEST POP PUSH2 0x268 PUSH2 0x2FE CALLDATASIZE PUSH1 0x4 PUSH2 0x3403 JUMP JUMPDEST PUSH2 0xA9E JUMP JUMPDEST CALLVALUE DUP1 ISZERO PUSH2 0x30F JUMPI PUSH1 0x0 DUP1 REVERT JUMPDEST POP PUSH2 0x268 PUSH2 0x31E CALLDATASIZE PUSH1 0x4 PUSH2 0x3420 JUMP JUMPDEST PUSH2 0xCA3 JUMP JUMPDEST CALLVALUE DUP1 ISZERO PUSH2 0x32F JUMPI PUSH1 0x0 DUP1 REVERT JUMPDEST POP PUSH2 0x208 PUSH2 0x33E CALLDATASIZE PUSH1 0x4 PUSH2 0x3495 JUMP JUMPDEST PUSH2 0xE2A JUMP JUMPDEST CALLVALUE DUP1 ISZERO PUSH2 0x34F JUMPI PUSH1 0x0 DUP1 REVERT JUMPDEST POP PUSH2 0x373 PUSH2 0x35E CALLDATASIZE PUSH1 0x4 PUSH2 0x335D JUMP JUMPDEST PUSH1 0x66 PUSH1 0x20 MSTORE PUSH1 0x0 SWAP1 DUP2 MSTORE PUSH1 0x40 SWAP1 KECCAK256 SLOAD PUSH1 0xFF AND DUP2 JUMP JUMPDEST PUSH1 0x40 MLOAD SWAP1 ISZERO ISZERO DUP2 MSTORE PUSH1 0x20 ADD PUSH2 0x212 JUMP JUMPDEST PUSH2 0x268 PUSH2 0x391 CALLDATASIZE PUSH1 0x4 PUSH2 0x3501 JUMP JUMPDEST PUSH2 0xF6F JUMP JUMPDEST CALLVALUE DUP1 ISZERO PUSH2 0x3A2 JUMPI PUSH1 0x0 DUP1 REVERT JUMPDEST POP PUSH2 0x208 PUSH2 0x3B1 CALLDATASIZE PUSH1 0x4 PUSH2 0x35E3 JUMP JUMPDEST PUSH1 0x67 PUSH1 0x20 SWAP1 DUP2 MSTORE PUSH1 0x0 SWAP4 DUP5 MSTORE PUSH1 0x40 DUP1 DUP6 KECCAK256 DUP3 MSTORE SWAP3 DUP5 MSTORE DUP3 DUP5 KECCAK256 SWAP1 MSTORE DUP3 MSTORE SWAP1 KECCAK256 SLOAD DUP2 JUMP JUMPDEST CALLVALUE DUP1 ISZERO PUSH2 0x3E0 JUMPI PUSH1 0x0 DUP1 REVERT JUMPDEST POP PUSH2 0x208 PUSH2 0x1165 JUMP JUMPDEST CALLVALUE DUP1 ISZERO PUSH2 0x3F5 JUMPI PUSH1 0x0 DUP1 REVERT JUMPDEST POP PUSH2 0x208 PUSH32 0xA49807205CE4D355092EF5A8A18F56E8913CF4A201FBE287825B095693C21775 DUP2 JUMP JUMPDEST CALLVALUE DUP1 ISZERO PUSH2 0x429 JUMPI PUSH1 0x0 DUP1 REVERT JUMPDEST POP PUSH2 0x208 PUSH2 0x438 CALLDATASIZE PUSH1 0x4 PUSH2 0x360F JUMP JUMPDEST PUSH2 0x1251 JUMP JUMPDEST CALLVALUE DUP1 ISZERO PUSH2 0x449 JUMPI PUSH1 0x0 DUP1 REVERT JUMPDEST POP PUSH2 0x268 PUSH2 0x13DB JUMP JUMPDEST CALLVALUE DUP1 ISZERO PUSH2 0x45E JUMPI PUSH1 0x0 DUP1 REVERT JUMPDEST POP PUSH2 0x268 PUSH2 0x46D CALLDATASIZE PUSH1 0x4 PUSH2 0x335D JUMP JUMPDEST PUSH2 0x157F JUMP JUMPDEST CALLVALUE DUP1 ISZERO PUSH2 0x47E JUMPI PUSH1 0x0 DUP1 REVERT JUMPDEST POP PUSH2 0x268 PUSH2 0x48D CALLDATASIZE PUSH1 0x4 PUSH2 0x335D JUMP JUMPDEST PUSH2 0x1663 JUMP JUMPDEST CALLVALUE DUP1 ISZERO PUSH2 0x49E JUMPI PUSH1 0x0 DUP1 REVERT JUMPDEST POP PUSH2 0x29E PUSH2 0x1677 JUMP JUMPDEST CALLVALUE DUP1 ISZERO PUSH2 0x4B3 JUMPI PUSH1 0x0 DUP1 REVERT JUMPDEST POP PUSH2 0x268 PUSH2 0x4C2 CALLDATASIZE PUSH1 0x4 PUSH2 0x3420 JUMP JUMPDEST PUSH2 0x16A3 JUMP JUMPDEST CALLVALUE DUP1 ISZERO PUSH2 0x4D3 JUMPI PUSH1 0x0 DUP1 REVERT JUMPDEST POP PUSH2 0x373 PUSH2 0x4E2 CALLDATASIZE PUSH1 0x4 PUSH2 0x33D3 JUMP JUMPDEST PUSH2 0x182D JUMP JUMPDEST CALLVALUE DUP1 ISZERO PUSH2 0x4F3 JUMPI PUSH1 0x0 DUP1 REVERT JUMPDEST POP PUSH2 0x268 PUSH2 0x502 CALLDATASIZE PUSH1 0x4 PUSH2 0x3671 JUMP JUMPDEST PUSH2 0x187A JUMP JUMPDEST CALLVALUE DUP1 ISZERO PUSH2 0x513 JUMPI PUSH1 0x0 DUP1 REVERT JUMPDEST POP PUSH2 0x208 PUSH2 0x522 CALLDATASIZE PUSH1 0x4 PUSH2 0x335D JUMP JUMPDEST PUSH2 0x194F JUMP JUMPDEST CALLVALUE DUP1 ISZERO PUSH2 0x533 JUMPI PUSH1 0x0 DUP1 REVERT JUMPDEST POP PUSH2 0x268 PUSH2 0x542 CALLDATASIZE PUSH1 0x4 PUSH2 0x36F4 JUMP JUMPDEST PUSH2 0x1A32 JUMP JUMPDEST CALLVALUE DUP1 ISZERO PUSH2 0x553 JUMPI PUSH1 0x0 DUP1 REVERT JUMPDEST POP PUSH2 0x208 PUSH32 0x8F4F2DA22E8AC8F11E15F9FC141CDDBB5DEEA8800186560ABB6E68C5496619A9 DUP2 JUMP JUMPDEST CALLVALUE DUP1 ISZERO PUSH2 0x587 JUMPI PUSH1 0x0 DUP1 REVERT JUMPDEST POP PUSH2 0x208 PUSH2 0x596 CALLDATASIZE PUSH1 0x4 PUSH2 0x3762 JUMP JUMPDEST PUSH2 0x1B05 JUMP JUMPDEST CALLVALUE DUP1 ISZERO PUSH2 0x5A7 JUMPI PUSH1 0x0 DUP1 REVERT JUMPDEST POP PUSH2 0x208 PUSH1 0x65 SLOAD DUP2 JUMP JUMPDEST CALLVALUE DUP1 ISZERO PUSH2 0x5BD JUMPI PUSH1 0x0 DUP1 REVERT JUMPDEST POP PUSH2 0x268 PUSH2 0x5CC CALLDATASIZE PUSH1 0x4 PUSH2 0x35E3 JUMP JUMPDEST PUSH2 0x1BDF JUMP JUMPDEST CALLVALUE DUP1 ISZERO PUSH2 0x5DD JUMPI PUSH1 0x0 DUP1 REVERT JUMPDEST POP PUSH2 0x268 PUSH2 0x5EC CALLDATASIZE PUSH1 0x4 PUSH2 0x33D3 JUMP JUMPDEST PUSH2 0x1DAC JUMP JUMPDEST CALLVALUE DUP1 ISZERO PUSH2 0x5FD JUMPI PUSH1 0x0 DUP1 REVERT JUMPDEST POP PUSH2 0x268 PUSH2 0x60C CALLDATASIZE PUSH1 0x4 PUSH2 0x3784 JUMP JUMPDEST PUSH2 0x1DCF JUMP JUMPDEST CALLVALUE DUP1 ISZERO PUSH2 0x61D JUMPI PUSH1 0x0 DUP1 REVERT JUMPDEST POP PUSH2 0x268 PUSH2 0x62C CALLDATASIZE PUSH1 0x4 PUSH2 0x37D5 JUMP JUMPDEST PUSH2 0x20FE JUMP JUMPDEST CALLVALUE DUP1 ISZERO PUSH2 0x63D JUMPI PUSH1 0x0 DUP1 REVERT JUMPDEST POP PUSH2 0x268 PUSH2 0x64C CALLDATASIZE PUSH1 0x4 PUSH2 0x3403 JUMP JUMPDEST PUSH2 0x21CD JUMP JUMPDEST CALLVALUE DUP1 ISZERO PUSH2 0x65D JUMPI PUSH1 0x0 DUP1 REVERT JUMPDEST POP PUSH2 0x373 PUSH2 0x66C CALLDATASIZE PUSH1 0x4 PUSH2 0x335D JUMP JUMPDEST PUSH1 0x69 PUSH1 0x20 MSTORE PUSH1 0x0 SWAP1 DUP2 MSTORE PUSH1 0x40 SWAP1 KECCAK256 SLOAD PUSH1 0xFF AND DUP2 JUMP JUMPDEST PUSH1 0x0 DUP1 PUSH32 0x0 PUSH20 0xFFFFFFFFFFFFFFFFFFFFFFFFFFFFFFFFFFFFFFFF AND PUSH4 0xCAD6B901 DUP6 DUP6 DUP9 PUSH1 0x40 MLOAD DUP5 PUSH4 0xFFFFFFFF AND PUSH1 0xE0 SHL DUP2 MSTORE PUSH1 0x4 ADD PUSH2 0x6E1 SWAP4 SWAP3 SWAP2 SWAP1 PUSH2 0x3833 JUMP JUMPDEST PUSH1 0x20 PUSH1 0x40 MLOAD DUP1 DUP4 SUB DUP2 DUP7 GAS STATICCALL ISZERO DUP1 ISZERO PUSH2 0x6FE JUMPI RETURNDATASIZE PUSH1 0x0 DUP1 RETURNDATACOPY RETURNDATASIZE PUSH1 0x0 REVERT JUMPDEST POP POP POP POP PUSH1 0x40 MLOAD RETURNDATASIZE PUSH1 0x1F NOT PUSH1 0x1F DUP3 ADD AND DUP3 ADD DUP1 PUSH1 0x40 MSTORE POP DUP2 ADD SWAP1 PUSH2 0x722 SWAP2 SWAP1 PUSH2 0x388A JUMP JUMPDEST PUSH1 0x40 MLOAD PUSH32 0xA9735F9400000000000000000000000000000000000000000000000000000000 DUP2 MSTORE PUSH1 0x4 DUP2 ADD DUP3 SWAP1 MSTORE SWAP1 SWAP2 POP PUSH1 0x0 SWAP1 PUSH20 0xFFFFFFFFFFFFFFFFFFFFFFFFFFFFFFFFFFFFFFFF PUSH32 0x0 AND SWAP1 PUSH4 0xA9735F94 SWAP1 PUSH1 0x24 ADD PUSH1 0x20 PUSH1 0x40 MLOAD DUP1 DUP4 SUB DUP2 DUP7 GAS STATICCALL ISZERO DUP1 ISZERO PUSH2 0x7B3 JUMPI RETURNDATASIZE PUSH1 0x0 DUP1 RETURNDATACOPY RETURNDATASIZE PUSH1 0x0 REVERT JUMPDEST POP POP POP POP PUSH1 0x40 MLOAD RETURNDATASIZE PUSH1 0x1F NOT PUSH1 0x1F DUP3 ADD AND DUP3 ADD DUP1 PUSH1 0x40 MSTORE POP DUP2 ADD SWAP1 PUSH2 0x7D7 SWAP2 SWAP1 PUSH2 0x388A JUMP JUMPDEST PUSH1 0x0 DUP9 DUP2 MSTORE PUSH1 0x67 PUSH1 0x20 SWAP1 DUP2 MSTORE PUSH1 0x40 DUP1 DUP4 KECCAK256 SWAP6 DUP4 MSTORE SWAP5 DUP2 MSTORE DUP5 DUP3 KECCAK256 SWAP3 DUP3 MSTORE SWAP2 SWAP1 SWAP2 MSTORE SWAP2 SWAP1 SWAP2 KECCAK256 SLOAD SWAP2 POP POP JUMPDEST SWAP5 SWAP4 POP POP POP POP JUMP JUMPDEST PUSH2 0x83E PUSH32 0x8F4F2DA22E8AC8F11E15F9FC141CDDBB5DEEA8800186560ABB6E68C5496619A9 CALLER JUMPDEST PUSH2 0x837 PUSH2 0x21E1 JUMP JUMPDEST SWAP2 SWAP1 PUSH2 0x220F JUMP JUMPDEST PUSH1 0x40 MLOAD PUSH32 0x6352211E00000000000000000000000000000000000000000000000000000000 DUP2 MSTORE PUSH1 0x4 DUP2 ADD DUP6 SWAP1 MSTORE PUSH32 0x0 PUSH20 0xFFFFFFFFFFFFFFFFFFFFFFFFFFFFFFFFFFFFFFFF AND SWAP1 PUSH4 0x6352211E SWAP1 PUSH1 0x24 ADD PUSH1 0x20 PUSH1 0x40 MLOAD DUP1 DUP4 SUB DUP2 DUP7 GAS STATICCALL ISZERO DUP1 ISZERO PUSH2 0x8C9 JUMPI RETURNDATASIZE PUSH1 0x0 DUP1 RETURNDATACOPY RETURNDATASIZE PUSH1 0x0 REVERT JUMPDEST POP POP POP POP PUSH1 0x40 MLOAD RETURNDATASIZE PUSH1 0x1F NOT PUSH1 0x1F DUP3 ADD AND DUP3 ADD DUP1 PUSH1 0x40 MSTORE POP DUP2 ADD SWAP1 PUSH2 0x8ED SWAP2 SWAP1 PUSH2 0x38A3 JUMP JUMPDEST POP PUSH1 0x40 MLOAD PUSH32 0xA9735F9400000000000000000000000000000000000000000000000000000000 DUP2 MSTORE PUSH1 0x4 DUP2 ADD DUP6 SWAP1 MSTORE PUSH1 0x0 SWAP1 PUSH32 0x0 PUSH20 0xFFFFFFFFFFFFFFFFFFFFFFFFFFFFFFFFFFFFFFFF AND SWAP1 PUSH4 0xA9735F94 SWAP1 PUSH1 0x24 ADD PUSH1 0x20 PUSH1 0x40 MLOAD DUP1 DUP4 SUB DUP2 DUP7 GAS STATICCALL ISZERO DUP1 ISZERO PUSH2 0x97C JUMPI RETURNDATASIZE PUSH1 0x0 DUP1 RETURNDATACOPY RETURNDATASIZE PUSH1 0x0 REVERT JUMPDEST POP POP POP POP PUSH1 0x40 MLOAD RETURNDATASIZE PUSH1 0x1F NOT PUSH1 0x1F DUP3 ADD AND DUP3 ADD DUP1 PUSH1 0x40 MSTORE POP DUP2 ADD SWAP1 PUSH2 0x9A0 SWAP2 SWAP1 PUSH2 0x388A JUMP JUMPDEST SWAP1 POP DUP4 DUP2 EQ PUSH2 0x9EA JUMPI PUSH1 0x40 MLOAD PUSH32 0xB196CC7700000000000000000000000000000000000000000000000000000000 DUP2 MSTORE PUSH1 0x4 DUP2 ADD DUP7 SWAP1 MSTORE PUSH1 0x24 DUP2 ADD DUP6 SWAP1 MSTORE PUSH1 0x44 ADD JUMPDEST PUSH1 0x40 MLOAD DUP1 SWAP2 SUB SWAP1 REVERT JUMPDEST PUSH1 0x0 DUP7 DUP2 MSTORE PUSH1 0x67 PUSH1 0x20 SWAP1 DUP2 MSTORE PUSH1 0x40 DUP1 DUP4 KECCAK256 DUP9 DUP5 MSTORE DUP3 MSTORE DUP1 DUP4 KECCAK256 DUP8 DUP5 MSTORE SWAP1 SWAP2 MSTORE DUP2 KECCAK256 DUP1 SLOAD DUP6 SWAP3 SWAP1 PUSH2 0xA1B SWAP1 DUP5 SWAP1 PUSH2 0x38EF JUMP JUMPDEST SWAP1 SWAP2 SSTORE POP POP PUSH1 0x40 DUP1 MLOAD DUP7 DUP2 MSTORE PUSH1 0x20 DUP2 ADD DUP7 SWAP1 MSTORE SWAP1 DUP2 ADD DUP5 SWAP1 MSTORE DUP3 SWAP1 DUP8 SWAP1 CALLER SWAP1 PUSH32 0x9092BF6BD1CF7DB4FCF41AEDC7C0333B51C57F5B80B429BC3D9CAA5587C6AD82 SWAP1 PUSH1 0x60 ADD JUMPDEST PUSH1 0x40 MLOAD DUP1 SWAP2 SUB SWAP1 LOG4 POP POP POP POP POP POP JUMP JUMPDEST CALLER PUSH2 0xA83 DUP2 PUSH2 0xA7D PUSH2 0x2295 JUMP JUMPDEST SWAP1 PUSH2 0x22C3 JUMP JUMPDEST PUSH2 0xA99 DUP4 DUP4 DUP4 PUSH2 0xA91 PUSH2 0x21E1 JUMP JUMPDEST SWAP3 SWAP2 SWAP1 PUSH2 0x232E JUMP JUMPDEST POP POP POP JUMP JUMPDEST PUSH20 0xFFFFFFFFFFFFFFFFFFFFFFFFFFFFFFFFFFFFFFFF PUSH32 0x0 AND ADDRESS SUB PUSH2 0xB63 JUMPI PUSH1 0x40 MLOAD PUSH32 0x8C379A000000000000000000000000000000000000000000000000000000000 DUP2 MSTORE PUSH1 0x20 PUSH1 0x4 DUP3 ADD MSTORE PUSH1 0x2C PUSH1 0x24 DUP3 ADD MSTORE PUSH32 0x46756E6374696F6E206D7573742062652063616C6C6564207468726F75676820 PUSH1 0x44 DUP3 ADD MSTORE PUSH32 0x64656C656761746563616C6C0000000000000000000000000000000000000000 PUSH1 0x64 DUP3 ADD MSTORE PUSH1 0x84 ADD PUSH2 0x9E1 JUMP JUMPDEST PUSH32 0x0 PUSH20 0xFFFFFFFFFFFFFFFFFFFFFFFFFFFFFFFFFFFFFFFF AND PUSH2 0xBD8 PUSH32 0x360894A13BA1A3210667C828492DB98DCA3E2076CC3735A920A3CA505D382BBC SLOAD PUSH20 0xFFFFFFFFFFFFFFFFFFFFFFFFFFFFFFFFFFFFFFFF AND SWAP1 JUMP JUMPDEST PUSH20 0xFFFFFFFFFFFFFFFFFFFFFFFFFFFFFFFFFFFFFFFF AND EQ PUSH2 0xC7B JUMPI PUSH1 0x40 MLOAD PUSH32 0x8C379A000000000000000000000000000000000000000000000000000000000 DUP2 MSTORE PUSH1 0x20 PUSH1 0x4 DUP3 ADD MSTORE PUSH1 0x2C PUSH1 0x24 DUP3 ADD MSTORE PUSH32 0x46756E6374696F6E206D7573742062652063616C6C6564207468726F75676820 PUSH1 0x44 DUP3 ADD MSTORE PUSH32 0x6163746976652070726F78790000000000000000000000000000000000000000 PUSH1 0x64 DUP3 ADD MSTORE PUSH1 0x84 ADD PUSH2 0x9E1 JUMP JUMPDEST PUSH2 0xC84 DUP2 PUSH2 0x2405 JUMP JUMPDEST PUSH1 0x40 DUP1 MLOAD PUSH1 0x0 DUP1 DUP3 MSTORE PUSH1 0x20 DUP3 ADD SWAP1 SWAP3 MSTORE PUSH2 0xCA0 SWAP2 DUP4 SWAP2 SWAP1 PUSH2 0x2411 JUMP JUMPDEST POP JUMP JUMPDEST PUSH2 0xCCD PUSH32 0xA49807205CE4D355092EF5A8A18F56E8913CF4A201FBE287825B095693C21775 CALLER PUSH2 0x82F JUMP JUMPDEST DUP1 PUSH2 0xD04 JUMPI PUSH1 0x40 MLOAD PUSH32 0x3FB4608600000000000000000000000000000000000000000000000000000000 DUP2 MSTORE PUSH1 0x4 ADD PUSH1 0x40 MLOAD DUP1 SWAP2 SUB SWAP1 REVERT JUMPDEST PUSH1 0x0 JUMPDEST DUP2 DUP2 LT ISZERO PUSH2 0xDEC JUMPI PUSH1 0x69 PUSH1 0x0 DUP5 DUP5 DUP5 DUP2 DUP2 LT PUSH2 0xD25 JUMPI PUSH2 0xD25 PUSH2 0x3902 JUMP JUMPDEST PUSH1 0x20 SWAP1 DUP2 MUL SWAP3 SWAP1 SWAP3 ADD CALLDATALOAD DUP4 MSTORE POP DUP2 ADD SWAP2 SWAP1 SWAP2 MSTORE PUSH1 0x40 ADD PUSH1 0x0 KECCAK256 SLOAD PUSH1 0xFF AND ISZERO PUSH2 0xD95 JUMPI DUP3 DUP3 DUP3 DUP2 DUP2 LT PUSH2 0xD59 JUMPI PUSH2 0xD59 PUSH2 0x3902 JUMP JUMPDEST SWAP1 POP PUSH1 0x20 MUL ADD CALLDATALOAD PUSH1 0x40 MLOAD PUSH32 0xB642124200000000000000000000000000000000000000000000000000000000 DUP2 MSTORE PUSH1 0x4 ADD PUSH2 0x9E1 SWAP2 DUP2 MSTORE PUSH1 0x20 ADD SWAP1 JUMP JUMPDEST PUSH1 0x1 PUSH1 0x69 PUSH1 0x0 DUP6 DUP6 DUP6 DUP2 DUP2 LT PUSH2 0xDAD JUMPI PUSH2 0xDAD PUSH2 0x3902 JUMP JUMPDEST SWAP1 POP PUSH1 0x20 MUL ADD CALLDATALOAD DUP2 MSTORE PUSH1 0x20 ADD SWAP1 DUP2 MSTORE PUSH1 0x20 ADD PUSH1 0x0 KECCAK256 PUSH1 0x0 PUSH2 0x100 EXP DUP2 SLOAD DUP2 PUSH1 0xFF MUL NOT AND SWAP1 DUP4 ISZERO ISZERO MUL OR SWAP1 SSTORE POP DUP1 DUP1 PUSH2 0xDE4 SWAP1 PUSH2 0x3931 JUMP JUMPDEST SWAP2 POP POP PUSH2 0xD07 JUMP JUMPDEST POP PUSH32 0xD8C56A8918EC09C2FE3C4D9FCC00ECE66DF217A1AB3AD768DD0A71620DA5B4E DUP3 DUP3 PUSH1 0x40 MLOAD PUSH2 0xE1E SWAP3 SWAP2 SWAP1 PUSH2 0x3969 JUMP JUMPDEST PUSH1 0x40 MLOAD DUP1 SWAP2 SUB SWAP1 LOG1 POP POP JUMP JUMPDEST PUSH1 0x40 MLOAD PUSH32 0xA9735F9400000000000000000000000000000000000000000000000000000000 DUP2 MSTORE PUSH1 0x4 DUP2 ADD DUP6 SWAP1 MSTORE PUSH1 0x0 SWAP1 DUP2 SWAP1 PUSH20 0xFFFFFFFFFFFFFFFFFFFFFFFFFFFFFFFFFFFFFFFF PUSH32 0x0 AND SWAP1 PUSH4 0xA9735F94 SWAP1 PUSH1 0x24 ADD PUSH1 0x20 PUSH1 0x40 MLOAD DUP1 DUP4 SUB DUP2 DUP7 GAS STATICCALL ISZERO DUP1 ISZERO PUSH2 0xEBA JUMPI RETURNDATASIZE PUSH1 0x0 DUP1 RETURNDATACOPY RETURNDATASIZE PUSH1 0x0 REVERT JUMPDEST POP POP POP POP PUSH1 0x40 MLOAD RETURNDATASIZE PUSH1 0x1F NOT PUSH1 0x1F DUP3 ADD AND DUP3 ADD DUP1 PUSH1 0x40 MSTORE POP DUP2 ADD SWAP1 PUSH2 0xEDE SWAP2 SWAP1 PUSH2 0x388A JUMP JUMPDEST PUSH1 0x0 DUP8 DUP2 MSTORE PUSH1 0x68 PUSH1 0x20 SWAP1 DUP2 MSTORE PUSH1 0x40 DUP1 DUP4 KECCAK256 SLOAD PUSH1 0x65 SLOAD DUP3 MLOAD DUP1 DUP6 ADD DUP14 SWAP1 MSTORE DUP1 DUP5 ADD DUP8 SWAP1 MSTORE PUSH1 0x60 DUP13 DUP2 SHL PUSH32 0xFFFFFFFFFFFFFFFFFFFFFFFFFFFFFFFFFFFFFFFF000000000000000000000000 AND SWAP1 DUP3 ADD MSTORE PUSH1 0x74 DUP2 ADD DUP12 SWAP1 MSTORE PUSH1 0x94 DUP2 ADD SWAP2 SWAP1 SWAP2 MSTORE PUSH1 0xB4 DUP2 ADD DUP10 SWAP1 MSTORE PUSH1 0xD4 DUP1 DUP3 ADD SWAP3 SWAP1 SWAP3 MSTORE DUP3 MLOAD DUP1 DUP3 SUB SWAP1 SWAP3 ADD DUP3 MSTORE PUSH1 0xF4 ADD SWAP1 SWAP2 MSTORE DUP1 MLOAD SWAP2 ADD KECCAK256 SWAP2 SWAP3 POP SWAP1 SWAP8 SWAP7 POP POP POP POP POP POP POP JUMP JUMPDEST PUSH20 0xFFFFFFFFFFFFFFFFFFFFFFFFFFFFFFFFFFFFFFFF PUSH32 0x0 AND ADDRESS SUB PUSH2 0x1034 JUMPI PUSH1 0x40 MLOAD PUSH32 0x8C379A000000000000000000000000000000000000000000000000000000000 DUP2 MSTORE PUSH1 0x20 PUSH1 0x4 DUP3 ADD MSTORE PUSH1 0x2C PUSH1 0x24 DUP3 ADD MSTORE PUSH32 0x46756E6374696F6E206D7573742062652063616C6C6564207468726F75676820 PUSH1 0x44 DUP3 ADD MSTORE PUSH32 0x64656C656761746563616C6C0000000000000000000000000000000000000000 PUSH1 0x64 DUP3 ADD MSTORE PUSH1 0x84 ADD PUSH2 0x9E1 JUMP JUMPDEST PUSH32 0x0 PUSH20 0xFFFFFFFFFFFFFFFFFFFFFFFFFFFFFFFFFFFFFFFF AND PUSH2 0x10A9 PUSH32 0x360894A13BA1A3210667C828492DB98DCA3E2076CC3735A920A3CA505D382BBC SLOAD PUSH20 0xFFFFFFFFFFFFFFFFFFFFFFFFFFFFFFFFFFFFFFFF AND SWAP1 JUMP JUMPDEST PUSH20 0xFFFFFFFFFFFFFFFFFFFFFFFFFFFFFFFFFFFFFFFF AND EQ PUSH2 0x114C JUMPI PUSH1 0x40 MLOAD PUSH32 0x8C379A000000000000000000000000000000000000000000000000000000000 DUP2 MSTORE PUSH1 0x20 PUSH1 0x4 DUP3 ADD MSTORE PUSH1 0x2C PUSH1 0x24 DUP3 ADD MSTORE PUSH32 0x46756E6374696F6E206D7573742062652063616C6C6564207468726F75676820 PUSH1 0x44 DUP3 ADD MSTORE PUSH32 0x6163746976652070726F78790000000000000000000000000000000000000000 PUSH1 0x64 DUP3 ADD MSTORE PUSH1 0x84 ADD PUSH2 0x9E1 JUMP JUMPDEST PUSH2 0x1155 DUP3 PUSH2 0x2405 JUMP JUMPDEST PUSH2 0x1161 DUP3 DUP3 PUSH1 0x1 PUSH2 0x2411 JUMP JUMPDEST POP POP JUMP JUMPDEST PUSH1 0x0 ADDRESS PUSH20 0xFFFFFFFFFFFFFFFFFFFFFFFFFFFFFFFFFFFFFFFF PUSH32 0x0 AND EQ PUSH2 0x122C JUMPI PUSH1 0x40 MLOAD PUSH32 0x8C379A000000000000000000000000000000000000000000000000000000000 DUP2 MSTORE PUSH1 0x20 PUSH1 0x4 DUP3 ADD MSTORE PUSH1 0x38 PUSH1 0x24 DUP3 ADD MSTORE PUSH32 0x555550535570677261646561626C653A206D757374206E6F742062652063616C PUSH1 0x44 DUP3 ADD MSTORE PUSH32 0x6C6564207468726F7567682064656C656761746563616C6C0000000000000000 PUSH1 0x64 DUP3 ADD MSTORE PUSH1 0x84 ADD PUSH2 0x9E1 JUMP JUMPDEST POP PUSH32 0x360894A13BA1A3210667C828492DB98DCA3E2076CC3735A920A3CA505D382BBC SWAP1 JUMP JUMPDEST PUSH1 0x0 DUP1 PUSH32 0x0 PUSH20 0xFFFFFFFFFFFFFFFFFFFFFFFFFFFFFFFFFFFFFFFF AND PUSH4 0xCAD6B901 DUP6 DUP6 DUP9 PUSH1 0x40 MLOAD DUP5 PUSH4 0xFFFFFFFF AND PUSH1 0xE0 SHL DUP2 MSTORE PUSH1 0x4 ADD PUSH2 0x12B1 SWAP4 SWAP3 SWAP2 SWAP1 PUSH2 0x3833 JUMP JUMPDEST PUSH1 0x20 PUSH1 0x40 MLOAD DUP1 DUP4 SUB DUP2 DUP7 GAS STATICCALL ISZERO DUP1 ISZERO PUSH2 0x12CE JUMPI RETURNDATASIZE PUSH1 0x0 DUP1 RETURNDATACOPY RETURNDATASIZE PUSH1 0x0 REVERT JUMPDEST POP POP POP POP PUSH1 0x40 MLOAD RETURNDATASIZE PUSH1 0x1F NOT PUSH1 0x1F DUP3 ADD AND DUP3 ADD DUP1 PUSH1 0x40 MSTORE POP DUP2 ADD SWAP1 PUSH2 0x12F2 SWAP2 SWAP1 PUSH2 0x388A JUMP JUMPDEST PUSH1 0x40 MLOAD PUSH32 0xA9735F9400000000000000000000000000000000000000000000000000000000 DUP2 MSTORE PUSH1 0x4 DUP2 ADD DUP3 SWAP1 MSTORE SWAP1 SWAP2 POP PUSH1 0x0 SWAP1 PUSH20 0xFFFFFFFFFFFFFFFFFFFFFFFFFFFFFFFFFFFFFFFF PUSH32 0x0 AND SWAP1 PUSH4 0xA9735F94 SWAP1 PUSH1 0x24 ADD PUSH1 0x20 PUSH1 0x40 MLOAD DUP1 DUP4 SUB DUP2 DUP7 GAS STATICCALL ISZERO DUP1 ISZERO PUSH2 0x1383 JUMPI RETURNDATASIZE PUSH1 0x0 DUP1 RETURNDATACOPY RETURNDATASIZE PUSH1 0x0 REVERT JUMPDEST POP POP POP POP PUSH1 0x40 MLOAD RETURNDATASIZE PUSH1 0x1F NOT PUSH1 0x1F DUP3 ADD AND DUP3 ADD DUP1 PUSH1 0x40 MSTORE POP DUP2 ADD SWAP1 PUSH2 0x13A7 SWAP2 SWAP1 PUSH2 0x388A JUMP JUMPDEST PUSH1 0x65 SLOAD PUSH1 0x0 SWAP1 DUP2 MSTORE PUSH1 0x67 PUSH1 0x20 SWAP1 DUP2 MSTORE PUSH1 0x40 DUP1 DUP4 KECCAK256 SWAP6 DUP4 MSTORE SWAP5 DUP2 MSTORE DUP5 DUP3 KECCAK256 SWAP3 DUP3 MSTORE SWAP2 SWAP1 SWAP2 MSTORE SWAP2 SWAP1 SWAP2 KECCAK256 SLOAD SWAP2 POP POP JUMPDEST SWAP4 SWAP3 POP POP POP JUMP JUMPDEST PUSH1 0x0 SLOAD PUSH2 0x100 SWAP1 DIV PUSH1 0xFF AND ISZERO DUP1 DUP1 ISZERO PUSH2 0x13FB JUMPI POP PUSH1 0x0 SLOAD PUSH1 0x1 PUSH1 0xFF SWAP1 SWAP2 AND LT JUMPDEST DUP1 PUSH2 0x1415 JUMPI POP ADDRESS EXTCODESIZE ISZERO DUP1 ISZERO PUSH2 0x1415 JUMPI POP PUSH1 0x0 SLOAD PUSH1 0xFF AND PUSH1 0x1 EQ JUMPDEST PUSH2 0x14A1 JUMPI PUSH1 0x40 MLOAD PUSH32 0x8C379A000000000000000000000000000000000000000000000000000000000 DUP2 MSTORE PUSH1 0x20 PUSH1 0x4 DUP3 ADD MSTORE PUSH1 0x2E PUSH1 0x24 DUP3 ADD MSTORE PUSH32 0x496E697469616C697A61626C653A20636F6E747261637420697320616C726561 PUSH1 0x44 DUP3 ADD MSTORE PUSH32 0x647920696E697469616C697A6564000000000000000000000000000000000000 PUSH1 0x64 DUP3 ADD MSTORE PUSH1 0x84 ADD PUSH2 0x9E1 JUMP JUMPDEST PUSH1 0x0 DUP1 SLOAD PUSH32 0xFFFFFFFFFFFFFFFFFFFFFFFFFFFFFFFFFFFFFFFFFFFFFFFFFFFFFFFFFFFFFF00 AND PUSH1 0x1 OR SWAP1 SSTORE DUP1 ISZERO PUSH2 0x14FF JUMPI PUSH1 0x0 DUP1 SLOAD PUSH32 0xFFFFFFFFFFFFFFFFFFFFFFFFFFFFFFFFFFFFFFFFFFFFFFFFFFFFFFFFFFFF00FF AND PUSH2 0x100 OR SWAP1 SSTORE JUMPDEST PUSH2 0x1507 PUSH2 0x2610 JUMP JUMPDEST PUSH2 0x1519 CALLER PUSH2 0x1513 PUSH2 0x2295 JUMP JUMPDEST SWAP1 PUSH2 0x26A9 JUMP JUMPDEST DUP1 ISZERO PUSH2 0xCA0 JUMPI PUSH1 0x0 DUP1 SLOAD PUSH32 0xFFFFFFFFFFFFFFFFFFFFFFFFFFFFFFFFFFFFFFFFFFFFFFFFFFFFFFFFFFFF00FF AND SWAP1 SSTORE PUSH1 0x40 MLOAD PUSH1 0x1 DUP2 MSTORE PUSH32 0x7F26B83FF96E1F2B6A682F133852F6798A09C465DA95921460CEFB3847402498 SWAP1 PUSH1 0x20 ADD JUMPDEST PUSH1 0x40 MLOAD DUP1 SWAP2 SUB SWAP1 LOG1 POP JUMP JUMPDEST PUSH2 0x15A9 PUSH32 0xA49807205CE4D355092EF5A8A18F56E8913CF4A201FBE287825B095693C21775 CALLER PUSH2 0x82F JUMP JUMPDEST PUSH1 0x0 DUP2 DUP2 MSTORE PUSH1 0x66 PUSH1 0x20 MSTORE PUSH1 0x40 SWAP1 KECCAK256 SLOAD PUSH1 0xFF AND ISZERO PUSH2 0x15F5 JUMPI PUSH1 0x40 MLOAD PUSH32 0x796C3E9A00000000000000000000000000000000000000000000000000000000 DUP2 MSTORE PUSH1 0x4 DUP2 ADD DUP3 SWAP1 MSTORE PUSH1 0x24 ADD PUSH2 0x9E1 JUMP JUMPDEST PUSH1 0x65 DUP2 SWAP1 SSTORE PUSH1 0x0 DUP2 DUP2 MSTORE PUSH1 0x66 PUSH1 0x20 MSTORE PUSH1 0x40 SWAP1 DUP2 SWAP1 KECCAK256 DUP1 SLOAD PUSH32 0xFFFFFFFFFFFFFFFFFFFFFFFFFFFFFFFFFFFFFFFFFFFFFFFFFFFFFFFFFFFFFF00 AND PUSH1 0x1 OR SWAP1 SSTORE MLOAD PUSH32 0x61228C895F8BA06548597D3E34A23BC0ECB6D1E62A1EB3FA30BE04883A17EF31 SWAP1 PUSH2 0x1574 SWAP1 DUP4 DUP2 MSTORE PUSH1 0x20 ADD SWAP1 JUMP JUMPDEST PUSH2 0xCA0 CALLER DUP3 PUSH2 0x1670 PUSH2 0x21E1 JUMP JUMPDEST SWAP2 SWAP1 PUSH2 0x26E8 JUMP JUMPDEST PUSH1 0x0 PUSH2 0x169E PUSH2 0x1684 PUSH2 0x2295 JUMP JUMPDEST SLOAD PUSH20 0xFFFFFFFFFFFFFFFFFFFFFFFFFFFFFFFFFFFFFFFF AND SWAP1 JUMP JUMPDEST SWAP1 POP SWAP1 JUMP JUMPDEST PUSH2 0x16CD PUSH32 0xA49807205CE4D355092EF5A8A18F56E8913CF4A201FBE287825B095693C21775 CALLER PUSH2 0x82F JUMP JUMPDEST DUP1 PUSH2 0x1704 JUMPI PUSH1 0x40 MLOAD PUSH32 0x3FB4608600000000000000000000000000000000000000000000000000000000 DUP2 MSTORE PUSH1 0x4 ADD PUSH1 0x40 MLOAD DUP1 SWAP2 SUB SWAP1 REVERT JUMPDEST PUSH1 0x0 JUMPDEST DUP2 DUP2 LT ISZERO PUSH2 0x17FB JUMPI PUSH1 0x69 PUSH1 0x0 DUP5 DUP5 DUP5 DUP2 DUP2 LT PUSH2 0x1725 JUMPI PUSH2 0x1725 PUSH2 0x3902 JUMP JUMPDEST PUSH1 0x20 SWAP1 DUP2 MUL SWAP3 SWAP1 SWAP3 ADD CALLDATALOAD DUP4 MSTORE POP DUP2 ADD SWAP2 SWAP1 SWAP2 MSTORE PUSH1 0x40 ADD PUSH1 0x0 KECCAK256 SLOAD PUSH1 0xFF AND PUSH2 0x1794 JUMPI DUP3 DUP3 DUP3 DUP2 DUP2 LT PUSH2 0x1758 JUMPI PUSH2 0x1758 PUSH2 0x3902 JUMP JUMPDEST SWAP1 POP PUSH1 0x20 MUL ADD CALLDATALOAD PUSH1 0x40 MLOAD PUSH32 0xA89513E100000000000000000000000000000000000000000000000000000000 DUP2 MSTORE PUSH1 0x4 ADD PUSH2 0x9E1 SWAP2 DUP2 MSTORE PUSH1 0x20 ADD SWAP1 JUMP JUMPDEST PUSH1 0x69 PUSH1 0x0 DUP5 DUP5 DUP5 DUP2 DUP2 LT PUSH2 0x17AA JUMPI PUSH2 0x17AA PUSH2 0x3902 JUMP JUMPDEST PUSH1 0x20 SWAP1 DUP2 MUL SWAP3 SWAP1 SWAP3 ADD CALLDATALOAD DUP4 MSTORE POP DUP2 ADD SWAP2 SWAP1 SWAP2 MSTORE PUSH1 0x40 ADD PUSH1 0x0 KECCAK256 DUP1 SLOAD PUSH32 0xFFFFFFFFFFFFFFFFFFFFFFFFFFFFFFFFFFFFFFFFFFFFFFFFFFFFFFFFFFFFFF00 AND SWAP1 SSTORE DUP1 PUSH2 0x17F3 DUP2 PUSH2 0x3931 JUMP JUMPDEST SWAP2 POP POP PUSH2 0x1707 JUMP JUMPDEST POP PUSH32 0x5B2C9FCBB27D48BDBFC59F0564B5BA81539309EBF09A940FAD64D171BCFB9FF9 DUP3 DUP3 PUSH1 0x40 MLOAD PUSH2 0xE1E SWAP3 SWAP2 SWAP1 PUSH2 0x3969 JUMP JUMPDEST PUSH1 0x0 PUSH2 0x1871 DUP4 DUP4 PUSH2 0x183C PUSH2 0x21E1 JUMP JUMPDEST PUSH1 0x0 SWAP3 DUP4 MSTORE PUSH1 0x20 SWAP1 DUP2 MSTORE PUSH1 0x40 DUP1 DUP5 KECCAK256 PUSH20 0xFFFFFFFFFFFFFFFFFFFFFFFFFFFFFFFFFFFFFFFF SWAP1 SWAP4 AND DUP5 MSTORE SWAP2 SWAP1 MSTORE SWAP1 KECCAK256 SLOAD PUSH1 0xFF AND SWAP1 JUMP JUMPDEST SWAP1 POP JUMPDEST SWAP3 SWAP2 POP POP JUMP JUMPDEST PUSH1 0x40 MLOAD PUSH32 0xCAD6B90100000000000000000000000000000000000000000000000000000000 DUP2 MSTORE PUSH1 0x0 SWAP1 PUSH20 0xFFFFFFFFFFFFFFFFFFFFFFFFFFFFFFFFFFFFFFFF PUSH32 0x0 AND SWAP1 PUSH4 0xCAD6B901 SWAP1 PUSH2 0x18F3 SWAP1 DUP12 SWAP1 DUP12 SWAP1 DUP15 SWAP1 PUSH1 0x4 ADD PUSH2 0x3833 JUMP JUMPDEST PUSH1 0x20 PUSH1 0x40 MLOAD DUP1 DUP4 SUB DUP2 DUP7 GAS STATICCALL ISZERO DUP1 ISZERO PUSH2 0x1910 JUMPI RETURNDATASIZE PUSH1 0x0 DUP1 RETURNDATACOPY RETURNDATASIZE PUSH1 0x0 REVERT JUMPDEST POP POP POP POP PUSH1 0x40 MLOAD RETURNDATASIZE PUSH1 0x1F NOT PUSH1 0x1F DUP3 ADD AND DUP3 ADD DUP1 PUSH1 0x40 MSTORE POP DUP2 ADD SWAP1 PUSH2 0x1934 SWAP2 SWAP1 PUSH2 0x388A JUMP JUMPDEST SWAP1 POP PUSH2 0x1944 DUP2 DUP8 DUP8 DUP8 DUP8 DUP8 PUSH2 0x1DCF JUMP JUMPDEST POP POP POP POP POP POP POP POP POP JUMP JUMPDEST PUSH1 0x40 MLOAD PUSH32 0xA9735F9400000000000000000000000000000000000000000000000000000000 DUP2 MSTORE PUSH1 0x4 DUP2 ADD DUP3 SWAP1 MSTORE PUSH1 0x0 SWAP1 DUP2 SWAP1 PUSH20 0xFFFFFFFFFFFFFFFFFFFFFFFFFFFFFFFFFFFFFFFF PUSH32 0x0 AND SWAP1 PUSH4 0xA9735F94 SWAP1 PUSH1 0x24 ADD PUSH1 0x20 PUSH1 0x40 MLOAD DUP1 DUP4 SUB DUP2 DUP7 GAS STATICCALL ISZERO DUP1 ISZERO PUSH2 0x19DF JUMPI RETURNDATASIZE PUSH1 0x0 DUP1 RETURNDATACOPY RETURNDATASIZE PUSH1 0x0 REVERT JUMPDEST POP POP POP POP PUSH1 0x40 MLOAD RETURNDATASIZE PUSH1 0x1F NOT PUSH1 0x1F DUP3 ADD AND DUP3 ADD DUP1 PUSH1 0x40 MSTORE POP DUP2 ADD SWAP1 PUSH2 0x1A03 SWAP2 SWAP1 PUSH2 0x388A JUMP JUMPDEST PUSH1 0x65 SLOAD PUSH1 0x0 SWAP1 DUP2 MSTORE PUSH1 0x67 PUSH1 0x20 SWAP1 DUP2 MSTORE PUSH1 0x40 DUP1 DUP4 KECCAK256 SWAP7 DUP4 MSTORE SWAP6 DUP2 MSTORE DUP6 DUP3 KECCAK256 SWAP3 DUP3 MSTORE SWAP2 SWAP1 SWAP2 MSTORE SWAP3 SWAP1 SWAP3 KECCAK256 SLOAD SWAP3 SWAP2 POP POP JUMP JUMPDEST PUSH1 0x40 MLOAD PUSH32 0xCAD6B90100000000000000000000000000000000000000000000000000000000 DUP2 MSTORE PUSH1 0x0 SWAP1 PUSH20 0xFFFFFFFFFFFFFFFFFFFFFFFFFFFFFFFFFFFFFFFF PUSH32 0x0 AND SWAP1 PUSH4 0xCAD6B901 SWAP1 PUSH2 0x1AAB SWAP1 DUP10 SWAP1 DUP10 SWAP1 DUP13 SWAP1 PUSH1 0x4 ADD PUSH2 0x3833 JUMP JUMPDEST PUSH1 0x20 PUSH1 0x40 MLOAD DUP1 DUP4 SUB DUP2 DUP7 GAS STATICCALL ISZERO DUP1 ISZERO PUSH2 0x1AC8 JUMPI RETURNDATASIZE PUSH1 0x0 DUP1 RETURNDATACOPY RETURNDATASIZE PUSH1 0x0 REVERT JUMPDEST POP POP POP POP PUSH1 0x40 MLOAD RETURNDATASIZE PUSH1 0x1F NOT PUSH1 0x1F DUP3 ADD AND DUP3 ADD DUP1 PUSH1 0x40 MSTORE POP DUP2 ADD SWAP1 PUSH2 0x1AEC SWAP2 SWAP1 PUSH2 0x388A JUMP JUMPDEST SWAP1 POP PUSH2 0x1AFB DUP9 DUP3 DUP7 DUP7 DUP7 PUSH2 0x809 JUMP JUMPDEST POP POP POP POP POP POP POP POP JUMP JUMPDEST PUSH1 0x40 MLOAD PUSH32 0xA9735F9400000000000000000000000000000000000000000000000000000000 DUP2 MSTORE PUSH1 0x4 DUP2 ADD DUP3 SWAP1 MSTORE PUSH1 0x0 SWAP1 DUP2 SWAP1 PUSH20 0xFFFFFFFFFFFFFFFFFFFFFFFFFFFFFFFFFFFFFFFF PUSH32 0x0 AND SWAP1 PUSH4 0xA9735F94 SWAP1 PUSH1 0x24 ADD PUSH1 0x20 PUSH1 0x40 MLOAD DUP1 DUP4 SUB DUP2 DUP7 GAS STATICCALL ISZERO DUP1 ISZERO PUSH2 0x1B95 JUMPI RETURNDATASIZE PUSH1 0x0 DUP1 RETURNDATACOPY RETURNDATASIZE PUSH1 0x0 REVERT JUMPDEST POP POP POP POP PUSH1 0x40 MLOAD RETURNDATASIZE PUSH1 0x1F NOT PUSH1 0x1F DUP3 ADD AND DUP3 ADD DUP1 PUSH1 0x40 MSTORE POP DUP2 ADD SWAP1 PUSH2 0x1BB9 SWAP2 SWAP1 PUSH2 0x388A JUMP JUMPDEST PUSH1 0x0 SWAP5 DUP6 MSTORE PUSH1 0x67 PUSH1 0x20 SWAP1 DUP2 MSTORE PUSH1 0x40 DUP1 DUP8 KECCAK256 SWAP6 DUP8 MSTORE SWAP5 DUP2 MSTORE DUP5 DUP7 KECCAK256 SWAP2 DUP7 MSTORE MSTORE POP POP SWAP1 KECCAK256 SLOAD SWAP1 JUMP JUMPDEST PUSH1 0x40 MLOAD PUSH32 0x6352211E00000000000000000000000000000000000000000000000000000000 DUP2 MSTORE PUSH1 0x4 DUP2 ADD DUP5 SWAP1 MSTORE PUSH1 0x0 SWAP1 PUSH32 0x0 PUSH20 0xFFFFFFFFFFFFFFFFFFFFFFFFFFFFFFFFFFFFFFFF AND SWAP1 PUSH4 0x6352211E SWAP1 PUSH1 0x24 ADD PUSH1 0x20 PUSH1 0x40 MLOAD DUP1 DUP4 SUB DUP2 DUP7 GAS STATICCALL ISZERO DUP1 ISZERO PUSH2 0x1C6D JUMPI RETURNDATASIZE PUSH1 0x0 DUP1 RETURNDATACOPY RETURNDATASIZE PUSH1 0x0 REVERT JUMPDEST POP POP POP POP PUSH1 0x40 MLOAD RETURNDATASIZE PUSH1 0x1F NOT PUSH1 0x1F DUP3 ADD AND DUP3 ADD DUP1 PUSH1 0x40 MSTORE POP DUP2 ADD SWAP1 PUSH2 0x1C91 SWAP2 SWAP1 PUSH2 0x38A3 JUMP JUMPDEST SWAP1 POP CALLER PUSH20 0xFFFFFFFFFFFFFFFFFFFFFFFFFFFFFFFFFFFFFFFF DUP3 AND EQ PUSH2 0x1CE4 JUMPI PUSH1 0x40 MLOAD PUSH32 0x33FFFF9B00000000000000000000000000000000000000000000000000000000 DUP2 MSTORE CALLER PUSH1 0x4 DUP3 ADD MSTORE PUSH1 0x24 ADD PUSH2 0x9E1 JUMP JUMPDEST PUSH1 0x40 MLOAD PUSH32 0xA9735F9400000000000000000000000000000000000000000000000000000000 DUP2 MSTORE PUSH1 0x4 DUP2 ADD DUP6 SWAP1 MSTORE PUSH1 0x0 SWAP1 PUSH32 0x0 PUSH20 0xFFFFFFFFFFFFFFFFFFFFFFFFFFFFFFFFFFFFFFFF AND SWAP1 PUSH4 0xA9735F94 SWAP1 PUSH1 0x24 ADD PUSH1 0x20 PUSH1 0x40 MLOAD DUP1 DUP4 SUB DUP2 DUP7 GAS STATICCALL ISZERO DUP1 ISZERO PUSH2 0x1D72 JUMPI RETURNDATASIZE PUSH1 0x0 DUP1 RETURNDATACOPY RETURNDATASIZE PUSH1 0x0 REVERT JUMPDEST POP POP POP POP PUSH1 0x40 MLOAD RETURNDATASIZE PUSH1 0x1F NOT PUSH1 0x1F DUP3 ADD AND DUP3 ADD DUP1 PUSH1 0x40 MSTORE POP DUP2 ADD SWAP1 PUSH2 0x1D96 SWAP2 SWAP1 PUSH2 0x388A JUMP JUMPDEST SWAP1 POP PUSH2 0x1DA5 DUP6 DUP3 DUP7 DUP7 DUP7 PUSH2 0x278C JUMP JUMPDEST POP POP POP POP POP JUMP JUMPDEST CALLER PUSH2 0x1DB9 DUP2 PUSH2 0xA7D PUSH2 0x2295 JUMP JUMPDEST PUSH2 0xA99 DUP4 DUP4 DUP4 PUSH2 0x1DC7 PUSH2 0x21E1 JUMP JUMPDEST SWAP3 SWAP2 SWAP1 PUSH2 0x28D1 JUMP JUMPDEST PUSH1 0x0 DUP7 DUP2 MSTORE PUSH1 0x68 PUSH1 0x20 MSTORE PUSH1 0x40 DUP1 DUP3 KECCAK256 SLOAD SWAP1 MLOAD PUSH32 0xA9735F9400000000000000000000000000000000000000000000000000000000 DUP2 MSTORE PUSH1 0x4 DUP2 ADD DUP10 SWAP1 MSTORE SWAP1 SWAP2 SWAP1 PUSH32 0x0 PUSH20 0xFFFFFFFFFFFFFFFFFFFFFFFFFFFFFFFFFFFFFFFF AND SWAP1 PUSH4 0xA9735F94 SWAP1 PUSH1 0x24 ADD PUSH1 0x20 PUSH1 0x40 MLOAD DUP1 DUP4 SUB DUP2 DUP7 GAS STATICCALL ISZERO DUP1 ISZERO PUSH2 0x1E6C JUMPI RETURNDATASIZE PUSH1 0x0 DUP1 RETURNDATACOPY RETURNDATASIZE PUSH1 0x0 REVERT JUMPDEST POP POP POP POP PUSH1 0x40 MLOAD RETURNDATASIZE PUSH1 0x1F NOT PUSH1 0x1F DUP3 ADD AND DUP3 ADD DUP1 PUSH1 0x40 MSTORE POP DUP2 ADD SWAP1 PUSH2 0x1E90 SWAP2 SWAP1 PUSH2 0x388A JUMP JUMPDEST PUSH1 0x65 SLOAD PUSH1 0x40 DUP1 MLOAD PUSH1 0x20 DUP1 DUP3 ADD DUP14 SWAP1 MSTORE DUP2 DUP4 ADD DUP6 SWAP1 MSTORE CALLER PUSH1 0x60 SWAP1 DUP2 SHL PUSH32 0xFFFFFFFFFFFFFFFFFFFFFFFFFFFFFFFFFFFFFFFF000000000000000000000000 AND SWAP1 DUP4 ADD MSTORE PUSH1 0x74 DUP3 ADD DUP13 SWAP1 MSTORE PUSH1 0x94 DUP3 ADD SWAP4 SWAP1 SWAP4 MSTORE PUSH1 0xB4 DUP2 ADD DUP11 SWAP1 MSTORE PUSH1 0xD4 DUP1 DUP3 ADD DUP8 SWAP1 MSTORE DUP3 MLOAD DUP1 DUP4 SUB SWAP1 SWAP2 ADD DUP2 MSTORE PUSH1 0xF4 SWAP1 SWAP2 ADD SWAP1 SWAP2 MSTORE DUP1 MLOAD SWAP2 ADD KECCAK256 SWAP1 SWAP2 POP PUSH1 0x0 SWAP1 PUSH1 0x40 MLOAD PUSH32 0x19457468657265756D205369676E6564204D6573736167653A0A333200000000 PUSH1 0x20 DUP3 ADD MSTORE PUSH1 0x3C DUP2 ADD DUP3 SWAP1 MSTORE SWAP1 SWAP2 POP PUSH1 0x0 SWAP1 PUSH1 0x5C ADD PUSH1 0x40 DUP1 MLOAD PUSH32 0xFFFFFFFFFFFFFFFFFFFFFFFFFFFFFFFFFFFFFFFFFFFFFFFFFFFFFFFFFFFFFFE0 DUP2 DUP5 SUB ADD DUP2 MSTORE SWAP1 DUP3 SWAP1 MSTORE DUP1 MLOAD PUSH1 0x20 SWAP1 SWAP2 ADD KECCAK256 PUSH32 0x6352211E00000000000000000000000000000000000000000000000000000000 DUP3 MSTORE PUSH1 0x4 DUP3 ADD DUP13 SWAP1 MSTORE SWAP2 POP PUSH1 0x0 SWAP1 PUSH20 0xFFFFFFFFFFFFFFFFFFFFFFFFFFFFFFFFFFFFFFFF PUSH32 0x0 AND SWAP1 PUSH4 0x6352211E SWAP1 PUSH1 0x24 ADD PUSH1 0x20 PUSH1 0x40 MLOAD DUP1 DUP4 SUB DUP2 DUP7 GAS STATICCALL ISZERO DUP1 ISZERO PUSH2 0x2009 JUMPI RETURNDATASIZE PUSH1 0x0 DUP1 RETURNDATACOPY RETURNDATASIZE PUSH1 0x0 REVERT JUMPDEST POP POP POP POP PUSH1 0x40 MLOAD RETURNDATASIZE PUSH1 0x1F NOT PUSH1 0x1F DUP3 ADD AND DUP3 ADD DUP1 PUSH1 0x40 MSTORE POP DUP2 ADD SWAP1 PUSH2 0x202D SWAP2 SWAP1 PUSH2 0x38A3 JUMP JUMPDEST PUSH1 0x40 DUP1 MLOAD PUSH1 0x20 DUP2 ADD DUP11 SWAP1 MSTORE DUP1 DUP3 ADD DUP10 SWAP1 MSTORE PUSH1 0xF8 DUP12 SWAP1 SHL PUSH32 0xFF00000000000000000000000000000000000000000000000000000000000000 AND PUSH1 0x60 DUP3 ADD MSTORE DUP2 MLOAD PUSH1 0x41 DUP2 DUP4 SUB ADD DUP2 MSTORE PUSH1 0x61 SWAP1 SWAP2 ADD SWAP1 SWAP2 MSTORE SWAP1 SWAP2 POP PUSH1 0x0 PUSH2 0x208C DUP4 DUP6 DUP5 PUSH2 0x299B JUMP JUMPDEST SWAP1 POP DUP1 PUSH2 0x20C5 JUMPI PUSH1 0x40 MLOAD PUSH32 0x8BAA579F00000000000000000000000000000000000000000000000000000000 DUP2 MSTORE PUSH1 0x4 ADD PUSH1 0x40 MLOAD DUP1 SWAP2 SUB SWAP1 REVERT JUMPDEST PUSH2 0x20D2 DUP14 DUP8 DUP15 DUP15 DUP8 PUSH2 0x278C JUMP JUMPDEST PUSH2 0x20DD DUP8 PUSH1 0x1 PUSH2 0x38EF JUMP JUMPDEST PUSH1 0x0 SWAP14 DUP15 MSTORE PUSH1 0x68 PUSH1 0x20 MSTORE PUSH1 0x40 SWAP1 SWAP14 KECCAK256 SWAP13 SWAP1 SWAP13 SSTORE POP POP POP POP POP POP POP POP POP POP POP POP JUMP JUMPDEST PUSH1 0x40 MLOAD PUSH32 0xCAD6B90100000000000000000000000000000000000000000000000000000000 DUP2 MSTORE PUSH1 0x0 SWAP1 PUSH20 0xFFFFFFFFFFFFFFFFFFFFFFFFFFFFFFFFFFFFFFFF PUSH32 0x0 AND SWAP1 PUSH4 0xCAD6B901 SWAP1 PUSH2 0x2177 SWAP1 DUP9 SWAP1 DUP9 SWAP1 DUP12 SWAP1 PUSH1 0x4 ADD PUSH2 0x3833 JUMP JUMPDEST PUSH1 0x20 PUSH1 0x40 MLOAD DUP1 DUP4 SUB DUP2 DUP7 GAS STATICCALL ISZERO DUP1 ISZERO PUSH2 0x2194 JUMPI RETURNDATASIZE PUSH1 0x0 DUP1 RETURNDATACOPY RETURNDATASIZE PUSH1 0x0 REVERT JUMPDEST POP POP POP POP PUSH1 0x40 MLOAD RETURNDATASIZE PUSH1 0x1F NOT PUSH1 0x1F DUP3 ADD AND DUP3 ADD DUP1 PUSH1 0x40 MSTORE POP DUP2 ADD SWAP1 PUSH2 0x21B8 SWAP2 SWAP1 PUSH2 0x388A JUMP JUMPDEST SWAP1 POP PUSH2 0x21C5 DUP2 DUP5 DUP5 PUSH2 0x1BDF JUMP JUMPDEST POP POP POP POP POP POP JUMP JUMPDEST PUSH2 0xCA0 CALLER DUP3 PUSH2 0x21DA PUSH2 0x2295 JUMP JUMPDEST SWAP2 SWAP1 PUSH2 0x2B68 JUMP JUMPDEST PUSH1 0x0 DUP1 PUSH2 0x1874 PUSH1 0x1 PUSH32 0xC8827D3282AF6F37B64C3E9E6F3AC9DF286AB0BB0FCCD6F8661BF19ADB368B23 PUSH2 0x39BB JUMP JUMPDEST PUSH1 0x0 DUP3 DUP2 MSTORE PUSH1 0x20 DUP5 DUP2 MSTORE PUSH1 0x40 DUP1 DUP4 KECCAK256 PUSH20 0xFFFFFFFFFFFFFFFFFFFFFFFFFFFFFFFFFFFFFFFF DUP6 AND DUP5 MSTORE SWAP1 SWAP2 MSTORE SWAP1 KECCAK256 SLOAD PUSH1 0xFF AND PUSH2 0xA99 JUMPI PUSH1 0x40 MLOAD PUSH32 0x7AA7288200000000000000000000000000000000000000000000000000000000 DUP2 MSTORE PUSH1 0x4 DUP2 ADD DUP4 SWAP1 MSTORE PUSH20 0xFFFFFFFFFFFFFFFFFFFFFFFFFFFFFFFFFFFFFFFF DUP3 AND PUSH1 0x24 DUP3 ADD MSTORE PUSH1 0x44 ADD PUSH2 0x9E1 JUMP JUMPDEST PUSH1 0x0 DUP1 PUSH2 0x1874 PUSH1 0x1 PUSH32 0xC9ED16F33AB3A66C84BFD83099CCB2A8845871E2E1C1928F63797152F0FD54CD PUSH2 0x39BB JUMP JUMPDEST DUP2 SLOAD PUSH20 0xFFFFFFFFFFFFFFFFFFFFFFFFFFFFFFFFFFFFFFFF DUP3 DUP2 AND SWAP2 AND EQ PUSH2 0x1161 JUMPI PUSH1 0x40 MLOAD PUSH32 0x2EF4875E00000000000000000000000000000000000000000000000000000000 DUP2 MSTORE PUSH20 0xFFFFFFFFFFFFFFFFFFFFFFFFFFFFFFFFFFFFFFFF DUP3 AND PUSH1 0x4 DUP3 ADD MSTORE PUSH1 0x24 ADD PUSH2 0x9E1 JUMP JUMPDEST PUSH1 0x0 DUP4 DUP2 MSTORE PUSH1 0x20 DUP6 DUP2 MSTORE PUSH1 0x40 DUP1 DUP4 KECCAK256 PUSH20 0xFFFFFFFFFFFFFFFFFFFFFFFFFFFFFFFFFFFFFFFF DUP7 AND DUP5 MSTORE SWAP1 SWAP2 MSTORE SWAP1 KECCAK256 SLOAD PUSH1 0xFF AND PUSH2 0x23FF JUMPI PUSH1 0x0 DUP4 DUP2 MSTORE PUSH1 0x20 DUP6 DUP2 MSTORE PUSH1 0x40 DUP1 DUP4 KECCAK256 PUSH20 0xFFFFFFFFFFFFFFFFFFFFFFFFFFFFFFFFFFFFFFFF DUP7 DUP2 AND DUP1 DUP7 MSTORE SWAP2 DUP5 MSTORE SWAP4 DUP3 SWAP1 KECCAK256 DUP1 SLOAD PUSH32 0xFFFFFFFFFFFFFFFFFFFFFFFFFFFFFFFFFFFFFFFFFFFFFFFFFFFFFFFFFFFFFF00 AND PUSH1 0x1 OR SWAP1 SSTORE DUP2 MLOAD DUP8 DUP2 MSTORE SWAP3 DUP4 ADD MSTORE SWAP2 DUP4 AND SWAP2 DUP2 ADD SWAP2 SWAP1 SWAP2 MSTORE PUSH32 0x2F8788117E7EFF1D82E926EC794901D17C78024A50270940304540A733656F0D SWAP1 PUSH1 0x60 ADD JUMPDEST PUSH1 0x40 MLOAD DUP1 SWAP2 SUB SWAP1 LOG1 JUMPDEST POP POP POP POP JUMP JUMPDEST PUSH2 0xCA0 CALLER PUSH2 0xA7D PUSH2 0x2295 JUMP JUMPDEST PUSH32 0x4910FDFA16FED3260ED0E7147F7CC6DA11A60208B5B9406D12A635614FFD9143 SLOAD PUSH1 0xFF AND ISZERO PUSH2 0x2444 JUMPI PUSH2 0xA99 DUP4 PUSH2 0x2C7C JUMP JUMPDEST DUP3 PUSH20 0xFFFFFFFFFFFFFFFFFFFFFFFFFFFFFFFFFFFFFFFF AND PUSH4 0x52D1902D PUSH1 0x40 MLOAD DUP2 PUSH4 0xFFFFFFFF AND PUSH1 0xE0 SHL DUP2 MSTORE PUSH1 0x4 ADD PUSH1 0x20 PUSH1 0x40 MLOAD DUP1 DUP4 SUB DUP2 DUP7 GAS STATICCALL SWAP3 POP POP POP DUP1 ISZERO PUSH2 0x24C9 JUMPI POP PUSH1 0x40 DUP1 MLOAD PUSH1 0x1F RETURNDATASIZE SWAP1 DUP2 ADD PUSH32 0xFFFFFFFFFFFFFFFFFFFFFFFFFFFFFFFFFFFFFFFFFFFFFFFFFFFFFFFFFFFFFFE0 AND DUP3 ADD SWAP1 SWAP3 MSTORE PUSH2 0x24C6 SWAP2 DUP2 ADD SWAP1 PUSH2 0x388A JUMP JUMPDEST PUSH1 0x1 JUMPDEST PUSH2 0x2555 JUMPI PUSH1 0x40 MLOAD PUSH32 0x8C379A000000000000000000000000000000000000000000000000000000000 DUP2 MSTORE PUSH1 0x20 PUSH1 0x4 DUP3 ADD MSTORE PUSH1 0x2E PUSH1 0x24 DUP3 ADD MSTORE PUSH32 0x45524331393637557067726164653A206E657720696D706C656D656E74617469 PUSH1 0x44 DUP3 ADD MSTORE PUSH32 0x6F6E206973206E6F742055555053000000000000000000000000000000000000 PUSH1 0x64 DUP3 ADD MSTORE PUSH1 0x84 ADD PUSH2 0x9E1 JUMP JUMPDEST PUSH32 0x360894A13BA1A3210667C828492DB98DCA3E2076CC3735A920A3CA505D382BBC DUP2 EQ PUSH2 0x2604 JUMPI PUSH1 0x40 MLOAD PUSH32 0x8C379A000000000000000000000000000000000000000000000000000000000 DUP2 MSTORE PUSH1 0x20 PUSH1 0x4 DUP3 ADD MSTORE PUSH1 0x29 PUSH1 0x24 DUP3 ADD MSTORE PUSH32 0x45524331393637557067726164653A20756E737570706F727465642070726F78 PUSH1 0x44 DUP3 ADD MSTORE PUSH32 0x6961626C65555549440000000000000000000000000000000000000000000000 PUSH1 0x64 DUP3 ADD MSTORE PUSH1 0x84 ADD PUSH2 0x9E1 JUMP JUMPDEST POP PUSH2 0xA99 DUP4 DUP4 DUP4 PUSH2 0x2D86 JUMP JUMPDEST PUSH1 0x0 SLOAD PUSH2 0x100 SWAP1 DIV PUSH1 0xFF AND PUSH2 0x26A7 JUMPI PUSH1 0x40 MLOAD PUSH32 0x8C379A000000000000000000000000000000000000000000000000000000000 DUP2 MSTORE PUSH1 0x20 PUSH1 0x4 DUP3 ADD MSTORE PUSH1 0x2B PUSH1 0x24 DUP3 ADD MSTORE PUSH32 0x496E697469616C697A61626C653A20636F6E7472616374206973206E6F742069 PUSH1 0x44 DUP3 ADD MSTORE PUSH32 0x6E697469616C697A696E67000000000000000000000000000000000000000000 PUSH1 0x64 DUP3 ADD MSTORE PUSH1 0x84 ADD PUSH2 0x9E1 JUMP JUMPDEST JUMP JUMPDEST PUSH2 0x26DE PUSH2 0x26D7 PUSH1 0x1 PUSH32 0x5B388D90DC1312BA799F321972F13311234FA1163BCABEC7CF66101C4876EB84 PUSH2 0x39BB JUMP JUMPDEST PUSH1 0x1 PUSH2 0x2DAB JUMP JUMPDEST PUSH2 0x1161 DUP3 DUP3 PUSH2 0x2DF7 JUMP JUMPDEST PUSH2 0x26F3 DUP4 DUP3 DUP5 PUSH2 0x220F JUMP JUMPDEST PUSH1 0x0 DUP2 DUP2 MSTORE PUSH1 0x20 DUP5 DUP2 MSTORE PUSH1 0x40 DUP1 DUP4 KECCAK256 PUSH20 0xFFFFFFFFFFFFFFFFFFFFFFFFFFFFFFFFFFFFFFFF DUP7 AND DUP1 DUP6 MSTORE SWAP1 DUP4 MSTORE SWAP3 DUP2 SWAP1 KECCAK256 DUP1 SLOAD PUSH32 0xFFFFFFFFFFFFFFFFFFFFFFFFFFFFFFFFFFFFFFFFFFFFFFFFFFFFFFFFFFFFFF00 AND SWAP1 SSTORE DUP1 MLOAD DUP5 DUP2 MSTORE SWAP2 DUP3 ADD DUP4 SWAP1 MSTORE DUP2 ADD SWAP2 SWAP1 SWAP2 MSTORE PUSH32 0xF6391F5C32D9C69D2A47EA670B442974B53935D1EDC7FD64EB21E047A839171B SWAP1 PUSH1 0x60 ADD PUSH1 0x40 MLOAD DUP1 SWAP2 SUB SWAP1 LOG1 POP POP POP JUMP JUMPDEST PUSH1 0x65 SLOAD PUSH1 0x0 SWAP1 DUP2 MSTORE PUSH1 0x67 PUSH1 0x20 SWAP1 DUP2 MSTORE PUSH1 0x40 DUP1 DUP4 KECCAK256 DUP9 DUP5 MSTORE DUP3 MSTORE DUP1 DUP4 KECCAK256 DUP8 DUP5 MSTORE SWAP1 SWAP2 MSTORE SWAP1 KECCAK256 SLOAD DUP4 DUP2 LT ISZERO PUSH2 0x27F5 JUMPI PUSH1 0x40 MLOAD PUSH32 0xCF47918100000000000000000000000000000000000000000000000000000000 DUP2 MSTORE PUSH1 0x4 DUP2 ADD DUP8 SWAP1 MSTORE PUSH1 0x24 DUP2 ADD DUP6 SWAP1 MSTORE PUSH1 0x44 ADD PUSH2 0x9E1 JUMP JUMPDEST PUSH1 0x0 DUP4 DUP2 MSTORE PUSH1 0x69 PUSH1 0x20 MSTORE PUSH1 0x40 SWAP1 KECCAK256 SLOAD PUSH1 0xFF AND PUSH2 0x2840 JUMPI PUSH1 0x40 MLOAD PUSH32 0xA89513E100000000000000000000000000000000000000000000000000000000 DUP2 MSTORE PUSH1 0x4 DUP2 ADD DUP5 SWAP1 MSTORE PUSH1 0x24 ADD PUSH2 0x9E1 JUMP JUMPDEST PUSH2 0x284A DUP5 DUP3 PUSH2 0x39BB JUMP JUMPDEST PUSH1 0x65 DUP1 SLOAD PUSH1 0x0 SWAP1 DUP2 MSTORE PUSH1 0x67 PUSH1 0x20 SWAP1 DUP2 MSTORE PUSH1 0x40 DUP1 DUP4 KECCAK256 DUP12 DUP5 MSTORE DUP3 MSTORE DUP1 DUP4 KECCAK256 DUP11 DUP5 MSTORE DUP3 MSTORE SWAP2 DUP3 SWAP1 KECCAK256 SWAP4 SWAP1 SWAP4 SSTORE SWAP1 SLOAD DUP2 MLOAD CALLER DUP2 MSTORE SWAP3 DUP4 ADD DUP9 SWAP1 MSTORE SWAP1 DUP3 ADD DUP7 SWAP1 MSTORE PUSH20 0xFFFFFFFFFFFFFFFFFFFFFFFFFFFFFFFFFFFFFFFF DUP5 AND PUSH1 0x60 DUP4 ADD MSTORE DUP5 SWAP2 DUP9 SWAP1 PUSH32 0xE514533875FBD3F8F396088D636E746599D8B5C3BA77E9CCFA9FC01FF7064601 SWAP1 PUSH1 0x80 ADD PUSH2 0xA60 JUMP JUMPDEST PUSH1 0x0 DUP4 DUP2 MSTORE PUSH1 0x20 DUP6 DUP2 MSTORE PUSH1 0x40 DUP1 DUP4 KECCAK256 PUSH20 0xFFFFFFFFFFFFFFFFFFFFFFFFFFFFFFFFFFFFFFFF DUP7 AND DUP5 MSTORE SWAP1 SWAP2 MSTORE SWAP1 KECCAK256 SLOAD PUSH1 0xFF AND ISZERO PUSH2 0x23FF JUMPI PUSH1 0x0 DUP4 DUP2 MSTORE PUSH1 0x20 DUP6 DUP2 MSTORE PUSH1 0x40 DUP1 DUP4 KECCAK256 PUSH20 0xFFFFFFFFFFFFFFFFFFFFFFFFFFFFFFFFFFFFFFFF DUP7 DUP2 AND DUP1 DUP7 MSTORE SWAP2 DUP5 MSTORE SWAP4 DUP3 SWAP1 KECCAK256 DUP1 SLOAD PUSH32 0xFFFFFFFFFFFFFFFFFFFFFFFFFFFFFFFFFFFFFFFFFFFFFFFFFFFFFFFFFFFFFF00 AND SWAP1 SSTORE DUP2 MLOAD DUP8 DUP2 MSTORE SWAP3 DUP4 ADD MSTORE SWAP2 DUP4 AND SWAP2 DUP2 ADD SWAP2 SWAP1 SWAP2 MSTORE PUSH32 0xF6391F5C32D9C69D2A47EA670B442974B53935D1EDC7FD64EB21E047A839171B SWAP1 PUSH1 0x60 ADD PUSH2 0x23F6 JUMP JUMPDEST PUSH1 0x0 DUP1 PUSH1 0x0 PUSH2 0x29AA DUP6 DUP6 PUSH2 0x2EB4 JUMP JUMPDEST SWAP1 SWAP3 POP SWAP1 POP PUSH1 0x0 DUP2 PUSH1 0x4 DUP2 GT ISZERO PUSH2 0x29C3 JUMPI PUSH2 0x29C3 PUSH2 0x39CE JUMP JUMPDEST EQ DUP1 ISZERO PUSH2 0x29FB JUMPI POP DUP6 PUSH20 0xFFFFFFFFFFFFFFFFFFFFFFFFFFFFFFFFFFFFFFFF AND DUP3 PUSH20 0xFFFFFFFFFFFFFFFFFFFFFFFFFFFFFFFFFFFFFFFF AND EQ JUMPDEST ISZERO PUSH2 0x2A0B JUMPI PUSH1 0x1 SWAP3 POP POP POP PUSH2 0x13D4 JUMP JUMPDEST PUSH1 0x0 DUP1 DUP8 PUSH20 0xFFFFFFFFFFFFFFFFFFFFFFFFFFFFFFFFFFFFFFFF AND PUSH4 0x1626BA7E PUSH1 0xE0 SHL DUP9 DUP9 PUSH1 0x40 MLOAD PUSH1 0x24 ADD PUSH2 0x2A40 SWAP3 SWAP2 SWAP1 PUSH2 0x3A6B JUMP JUMPDEST PUSH1 0x40 DUP1 MLOAD PUSH32 0xFFFFFFFFFFFFFFFFFFFFFFFFFFFFFFFFFFFFFFFFFFFFFFFFFFFFFFFFFFFFFFE0 DUP2 DUP5 SUB ADD DUP2 MSTORE SWAP2 DUP2 MSTORE PUSH1 0x20 DUP3 ADD DUP1 MLOAD PUSH28 0xFFFFFFFFFFFFFFFFFFFFFFFFFFFFFFFFFFFFFFFFFFFFFFFFFFFFFFFF AND PUSH32 0xFFFFFFFF00000000000000000000000000000000000000000000000000000000 SWAP1 SWAP5 AND SWAP4 SWAP1 SWAP4 OR SWAP1 SWAP3 MSTORE SWAP1 MLOAD PUSH2 0x2AC9 SWAP2 SWAP1 PUSH2 0x3A84 JUMP JUMPDEST PUSH1 0x0 PUSH1 0x40 MLOAD DUP1 DUP4 SUB DUP2 DUP6 GAS STATICCALL SWAP2 POP POP RETURNDATASIZE DUP1 PUSH1 0x0 DUP2 EQ PUSH2 0x2B04 JUMPI PUSH1 0x40 MLOAD SWAP2 POP PUSH1 0x1F NOT PUSH1 0x3F RETURNDATASIZE ADD AND DUP3 ADD PUSH1 0x40 MSTORE RETURNDATASIZE DUP3 MSTORE RETURNDATASIZE PUSH1 0x0 PUSH1 0x20 DUP5 ADD RETURNDATACOPY PUSH2 0x2B09 JUMP JUMPDEST PUSH1 0x60 SWAP2 POP JUMPDEST POP SWAP2 POP SWAP2 POP DUP2 DUP1 ISZERO PUSH2 0x2B1C JUMPI POP DUP1 MLOAD PUSH1 0x20 EQ JUMPDEST DUP1 ISZERO PUSH2 0x2B5C JUMPI POP DUP1 MLOAD PUSH32 0x1626BA7E00000000000000000000000000000000000000000000000000000000 SWAP1 PUSH2 0x2B5A SWAP1 DUP4 ADD PUSH1 0x20 SWAP1 DUP2 ADD SWAP1 DUP5 ADD PUSH2 0x388A JUMP JUMPDEST EQ JUMPDEST SWAP9 SWAP8 POP POP POP POP POP POP POP POP JUMP JUMPDEST DUP3 SLOAD PUSH20 0xFFFFFFFFFFFFFFFFFFFFFFFFFFFFFFFFFFFFFFFF SWAP1 DUP2 AND SWAP1 DUP4 AND DUP2 EQ PUSH2 0x2BD5 JUMPI PUSH1 0x40 MLOAD PUSH32 0x2EF4875E00000000000000000000000000000000000000000000000000000000 DUP2 MSTORE PUSH20 0xFFFFFFFFFFFFFFFFFFFFFFFFFFFFFFFFFFFFFFFF DUP5 AND PUSH1 0x4 DUP3 ADD MSTORE PUSH1 0x24 ADD PUSH2 0x9E1 JUMP JUMPDEST DUP2 PUSH20 0xFFFFFFFFFFFFFFFFFFFFFFFFFFFFFFFFFFFFFFFF AND DUP2 PUSH20 0xFFFFFFFFFFFFFFFFFFFFFFFFFFFFFFFFFFFFFFFF AND EQ PUSH2 0x23FF JUMPI DUP4 SLOAD PUSH32 0xFFFFFFFFFFFFFFFFFFFFFFFF0000000000000000000000000000000000000000 AND PUSH20 0xFFFFFFFFFFFFFFFFFFFFFFFFFFFFFFFFFFFFFFFF DUP4 DUP2 AND SWAP2 DUP3 OR DUP7 SSTORE PUSH1 0x40 MLOAD SWAP1 DUP4 AND SWAP1 PUSH32 0x8BE0079C531659141344CD1FD0A4F28419497F9722A3DAAFE3B4186F6B6457E0 SWAP1 PUSH1 0x0 SWAP1 LOG3 POP POP POP POP JUMP JUMPDEST PUSH20 0xFFFFFFFFFFFFFFFFFFFFFFFFFFFFFFFFFFFFFFFF DUP2 AND EXTCODESIZE PUSH2 0x2D20 JUMPI PUSH1 0x40 MLOAD PUSH32 0x8C379A000000000000000000000000000000000000000000000000000000000 DUP2 MSTORE PUSH1 0x20 PUSH1 0x4 DUP3 ADD MSTORE PUSH1 0x2D PUSH1 0x24 DUP3 ADD MSTORE PUSH32 0x455243313936373A206E657720696D706C656D656E746174696F6E206973206E PUSH1 0x44 DUP3 ADD MSTORE PUSH32 0x6F74206120636F6E747261637400000000000000000000000000000000000000 PUSH1 0x64 DUP3 ADD MSTORE PUSH1 0x84 ADD PUSH2 0x9E1 JUMP JUMPDEST PUSH32 0x360894A13BA1A3210667C828492DB98DCA3E2076CC3735A920A3CA505D382BBC DUP1 SLOAD PUSH32 0xFFFFFFFFFFFFFFFFFFFFFFFF0000000000000000000000000000000000000000 AND PUSH20 0xFFFFFFFFFFFFFFFFFFFFFFFFFFFFFFFFFFFFFFFF SWAP3 SWAP1 SWAP3 AND SWAP2 SWAP1 SWAP2 OR SWAP1 SSTORE JUMP JUMPDEST PUSH2 0x2D8F DUP4 PUSH2 0x2EF9 JUMP JUMPDEST PUSH1 0x0 DUP3 MLOAD GT DUP1 PUSH2 0x2D9C JUMPI POP DUP1 JUMPDEST ISZERO PUSH2 0xA99 JUMPI PUSH2 0x23FF DUP4 DUP4 PUSH2 0x2F46 JUMP JUMPDEST DUP2 SLOAD DUP3 SWAP1 DUP3 DUP2 LT PUSH2 0x2DF2 JUMPI PUSH1 0x40 MLOAD PUSH32 0xBF0C18EC00000000000000000000000000000000000000000000000000000000 DUP2 MSTORE PUSH1 0x4 DUP2 ADD DUP3 SWAP1 MSTORE PUSH1 0x24 DUP2 ADD DUP5 SWAP1 MSTORE PUSH1 0x44 ADD PUSH2 0x9E1 JUMP JUMPDEST POP SSTORE POP JUMP JUMPDEST PUSH20 0xFFFFFFFFFFFFFFFFFFFFFFFFFFFFFFFFFFFFFFFF DUP2 AND ISZERO PUSH2 0x2E7F JUMPI DUP2 SLOAD PUSH32 0xFFFFFFFFFFFFFFFFFFFFFFFF0000000000000000000000000000000000000000 AND PUSH20 0xFFFFFFFFFFFFFFFFFFFFFFFFFFFFFFFFFFFFFFFF DUP3 AND SWAP1 DUP2 OR DUP4 SSTORE PUSH1 0x40 MLOAD PUSH1 0x0 SWAP1 PUSH32 0x8BE0079C531659141344CD1FD0A4F28419497F9722A3DAAFE3B4186F6B6457E0 SWAP1 DUP3 SWAP1 LOG3 JUMPDEST PUSH2 0x1161 PUSH32 0x7F5828D000000000000000000000000000000000000000000000000000000000 PUSH1 0x1 PUSH2 0x2EAD PUSH2 0x2F6B JUMP JUMPDEST SWAP2 SWAP1 PUSH2 0x2F99 JUMP JUMPDEST PUSH1 0x0 DUP1 DUP3 MLOAD PUSH1 0x41 SUB PUSH2 0x2EEA JUMPI PUSH1 0x20 DUP4 ADD MLOAD PUSH1 0x40 DUP5 ADD MLOAD PUSH1 0x60 DUP6 ADD MLOAD PUSH1 0x0 BYTE PUSH2 0x2EDE DUP8 DUP3 DUP6 DUP6 PUSH2 0x3075 JUMP JUMPDEST SWAP5 POP SWAP5 POP POP POP POP PUSH2 0x2EF2 JUMP JUMPDEST POP PUSH1 0x0 SWAP1 POP PUSH1 0x2 JUMPDEST SWAP3 POP SWAP3 SWAP1 POP JUMP JUMPDEST PUSH2 0x2F02 DUP2 PUSH2 0x2C7C JUMP JUMPDEST PUSH1 0x40 MLOAD PUSH20 0xFFFFFFFFFFFFFFFFFFFFFFFFFFFFFFFFFFFFFFFF DUP3 AND SWAP1 PUSH32 0xBC7CD75A20EE27FD9ADEBAB32041F755214DBC6BFFA90CC0225B39DA2E5C2D3B SWAP1 PUSH1 0x0 SWAP1 LOG2 POP JUMP JUMPDEST PUSH1 0x60 PUSH2 0x1871 DUP4 DUP4 PUSH1 0x40 MLOAD DUP1 PUSH1 0x60 ADD PUSH1 0x40 MSTORE DUP1 PUSH1 0x27 DUP2 MSTORE PUSH1 0x20 ADD PUSH2 0x3AB4 PUSH1 0x27 SWAP2 CODECOPY PUSH2 0x3164 JUMP JUMPDEST PUSH1 0x0 DUP1 PUSH2 0x1874 PUSH1 0x1 PUSH32 0xCA9D3E17F264B0F3984E2634E94ADB37FA3E6A8103F06AEAE6FA59E21C769F5E PUSH2 0x39BB JUMP JUMPDEST PUSH29 0x100000000000000000000000000000000000000000000000000000000 PUSH32 0xFFFFFFFF00000000000000000000000000000000000000000000000000000000 DUP4 AND ADD PUSH2 0x3011 JUMPI PUSH1 0x40 MLOAD PUSH32 0x72C683BB00000000000000000000000000000000000000000000000000000000 DUP2 MSTORE PUSH1 0x4 ADD PUSH1 0x40 MLOAD DUP1 SWAP2 SUB SWAP1 REVERT JUMPDEST PUSH32 0xFFFFFFFF00000000000000000000000000000000000000000000000000000000 SWAP2 SWAP1 SWAP2 AND PUSH1 0x0 SWAP1 DUP2 MSTORE PUSH1 0x20 SWAP3 SWAP1 SWAP3 MSTORE PUSH1 0x40 SWAP1 SWAP2 KECCAK256 DUP1 SLOAD PUSH32 0xFFFFFFFFFFFFFFFFFFFFFFFFFFFFFFFFFFFFFFFFFFFFFFFFFFFFFFFFFFFFFF00 AND SWAP2 ISZERO ISZERO SWAP2 SWAP1 SWAP2 OR SWAP1 SSTORE JUMP JUMPDEST PUSH1 0x0 DUP1 PUSH32 0x7FFFFFFFFFFFFFFFFFFFFFFFFFFFFFFF5D576E7357A4501DDFE92F46681B20A0 DUP4 GT ISZERO PUSH2 0x30AC JUMPI POP PUSH1 0x0 SWAP1 POP PUSH1 0x3 PUSH2 0x315B JUMP JUMPDEST PUSH1 0x40 DUP1 MLOAD PUSH1 0x0 DUP1 DUP3 MSTORE PUSH1 0x20 DUP3 ADD DUP1 DUP5 MSTORE DUP10 SWAP1 MSTORE PUSH1 0xFF DUP9 AND SWAP3 DUP3 ADD SWAP3 SWAP1 SWAP3 MSTORE PUSH1 0x60 DUP2 ADD DUP7 SWAP1 MSTORE PUSH1 0x80 DUP2 ADD DUP6 SWAP1 MSTORE PUSH1 0x1 SWAP1 PUSH1 0xA0 ADD PUSH1 0x20 PUSH1 0x40 MLOAD PUSH1 0x20 DUP2 SUB SWAP1 DUP1 DUP5 SUB SWAP1 DUP6 GAS STATICCALL ISZERO DUP1 ISZERO PUSH2 0x3100 JUMPI RETURNDATASIZE PUSH1 0x0 DUP1 RETURNDATACOPY RETURNDATASIZE PUSH1 0x0 REVERT JUMPDEST POP POP PUSH1 0x40 MLOAD PUSH32 0xFFFFFFFFFFFFFFFFFFFFFFFFFFFFFFFFFFFFFFFFFFFFFFFFFFFFFFFFFFFFFFE0 ADD MLOAD SWAP2 POP POP PUSH20 0xFFFFFFFFFFFFFFFFFFFFFFFFFFFFFFFFFFFFFFFF DUP2 AND PUSH2 0x3154 JUMPI PUSH1 0x0 PUSH1 0x1 SWAP3 POP SWAP3 POP POP PUSH2 0x315B JUMP JUMPDEST SWAP2 POP PUSH1 0x0 SWAP1 POP JUMPDEST SWAP5 POP SWAP5 SWAP3 POP POP POP JUMP JUMPDEST PUSH1 0x60 PUSH1 0x0 DUP1 DUP6 PUSH20 0xFFFFFFFFFFFFFFFFFFFFFFFFFFFFFFFFFFFFFFFF AND DUP6 PUSH1 0x40 MLOAD PUSH2 0x318E SWAP2 SWAP1 PUSH2 0x3A84 JUMP JUMPDEST PUSH1 0x0 PUSH1 0x40 MLOAD DUP1 DUP4 SUB DUP2 DUP6 GAS DELEGATECALL SWAP2 POP POP RETURNDATASIZE DUP1 PUSH1 0x0 DUP2 EQ PUSH2 0x31C9 JUMPI PUSH1 0x40 MLOAD SWAP2 POP PUSH1 0x1F NOT PUSH1 0x3F RETURNDATASIZE ADD AND DUP3 ADD PUSH1 0x40 MSTORE RETURNDATASIZE DUP3 MSTORE RETURNDATASIZE PUSH1 0x0 PUSH1 0x20 DUP5 ADD RETURNDATACOPY PUSH2 0x31CE JUMP JUMPDEST PUSH1 0x60 SWAP2 POP JUMPDEST POP SWAP2 POP SWAP2 POP PUSH2 0x31DF DUP7 DUP4 DUP4 DUP8 PUSH2 0x31E9 JUMP JUMPDEST SWAP7 SWAP6 POP POP POP POP POP POP JUMP JUMPDEST PUSH1 0x60 DUP4 ISZERO PUSH2 0x327F JUMPI DUP3 MLOAD PUSH1 0x0 SUB PUSH2 0x3278 JUMPI PUSH20 0xFFFFFFFFFFFFFFFFFFFFFFFFFFFFFFFFFFFFFFFF DUP6 AND EXTCODESIZE PUSH2 0x3278 JUMPI PUSH1 0x40 MLOAD PUSH32 0x8C379A000000000000000000000000000000000000000000000000000000000 DUP2 MSTORE PUSH1 0x20 PUSH1 0x4 DUP3 ADD MSTORE PUSH1 0x1D PUSH1 0x24 DUP3 ADD MSTORE PUSH32 0x416464726573733A2063616C6C20746F206E6F6E2D636F6E7472616374000000 PUSH1 0x44 DUP3 ADD MSTORE PUSH1 0x64 ADD PUSH2 0x9E1 JUMP JUMPDEST POP DUP2 PUSH2 0x801 JUMP JUMPDEST PUSH2 0x801 DUP4 DUP4 DUP2 MLOAD ISZERO PUSH2 0x3294 JUMPI DUP2 MLOAD DUP1 DUP4 PUSH1 0x20 ADD REVERT JUMPDEST DUP1 PUSH1 0x40 MLOAD PUSH32 0x8C379A000000000000000000000000000000000000000000000000000000000 DUP2 MSTORE PUSH1 0x4 ADD PUSH2 0x9E1 SWAP2 SWAP1 PUSH2 0x3AA0 JUMP JUMPDEST PUSH1 0x0 DUP1 DUP4 PUSH1 0x1F DUP5 ADD SLT PUSH2 0x32DA JUMPI PUSH1 0x0 DUP1 REVERT JUMPDEST POP DUP2 CALLDATALOAD PUSH8 0xFFFFFFFFFFFFFFFF DUP2 GT ISZERO PUSH2 0x32F2 JUMPI PUSH1 0x0 DUP1 REVERT JUMPDEST PUSH1 0x20 DUP4 ADD SWAP2 POP DUP4 PUSH1 0x20 DUP3 DUP6 ADD ADD GT ISZERO PUSH2 0x2EF2 JUMPI PUSH1 0x0 DUP1 REVERT JUMPDEST PUSH1 0x0 DUP1 PUSH1 0x0 DUP1 PUSH1 0x60 DUP6 DUP8 SUB SLT ISZERO PUSH2 0x3320 JUMPI PUSH1 0x0 DUP1 REVERT JUMPDEST DUP5 CALLDATALOAD SWAP4 POP PUSH1 0x20 DUP6 ADD CALLDATALOAD SWAP3 POP PUSH1 0x40 DUP6 ADD CALLDATALOAD PUSH8 0xFFFFFFFFFFFFFFFF DUP2 GT ISZERO PUSH2 0x3345 JUMPI PUSH1 0x0 DUP1 REVERT JUMPDEST PUSH2 0x3351 DUP8 DUP3 DUP9 ADD PUSH2 0x32C8 JUMP JUMPDEST SWAP6 SWAP9 SWAP5 SWAP8 POP SWAP6 POP POP POP POP JUMP JUMPDEST PUSH1 0x0 PUSH1 0x20 DUP3 DUP5 SUB SLT ISZERO PUSH2 0x336F JUMPI PUSH1 0x0 DUP1 REVERT JUMPDEST POP CALLDATALOAD SWAP2 SWAP1 POP JUMP JUMPDEST PUSH1 0x0 DUP1 PUSH1 0x0 DUP1 PUSH1 0x0 PUSH1 0xA0 DUP7 DUP9 SUB SLT ISZERO PUSH2 0x338E JUMPI PUSH1 0x0 DUP1 REVERT JUMPDEST POP POP DUP4 CALLDATALOAD SWAP6 PUSH1 0x20 DUP6 ADD CALLDATALOAD SWAP6 POP PUSH1 0x40 DUP6 ADD CALLDATALOAD SWAP5 PUSH1 0x60 DUP2 ADD CALLDATALOAD SWAP5 POP PUSH1 0x80 ADD CALLDATALOAD SWAP3 POP SWAP1 POP JUMP JUMPDEST PUSH20 0xFFFFFFFFFFFFFFFFFFFFFFFFFFFFFFFFFFFFFFFF DUP2 AND DUP2 EQ PUSH2 0xCA0 JUMPI PUSH1 0x0 DUP1 REVERT JUMPDEST PUSH1 0x0 DUP1 PUSH1 0x40 DUP4 DUP6 SUB SLT ISZERO PUSH2 0x33E6 JUMPI PUSH1 0x0 DUP1 REVERT JUMPDEST DUP3 CALLDATALOAD SWAP2 POP PUSH1 0x20 DUP4 ADD CALLDATALOAD PUSH2 0x33F8 DUP2 PUSH2 0x33B1 JUMP JUMPDEST DUP1 SWAP2 POP POP SWAP3 POP SWAP3 SWAP1 POP JUMP JUMPDEST PUSH1 0x0 PUSH1 0x20 DUP3 DUP5 SUB SLT ISZERO PUSH2 0x3415 JUMPI PUSH1 0x0 DUP1 REVERT JUMPDEST DUP2 CALLDATALOAD PUSH2 0x13D4 DUP2 PUSH2 0x33B1 JUMP JUMPDEST PUSH1 0x0 DUP1 PUSH1 0x20 DUP4 DUP6 SUB SLT ISZERO PUSH2 0x3433 JUMPI PUSH1 0x0 DUP1 REVERT JUMPDEST DUP3 CALLDATALOAD PUSH8 0xFFFFFFFFFFFFFFFF DUP1 DUP3 GT ISZERO PUSH2 0x344B JUMPI PUSH1 0x0 DUP1 REVERT JUMPDEST DUP2 DUP6 ADD SWAP2 POP DUP6 PUSH1 0x1F DUP4 ADD SLT PUSH2 0x345F JUMPI PUSH1 0x0 DUP1 REVERT JUMPDEST DUP2 CALLDATALOAD DUP2 DUP2 GT ISZERO PUSH2 0x346E JUMPI PUSH1 0x0 DUP1 REVERT JUMPDEST DUP7 PUSH1 0x20 DUP3 PUSH1 0x5 SHL DUP6 ADD ADD GT ISZERO PUSH2 0x3483 JUMPI PUSH1 0x0 DUP1 REVERT JUMPDEST PUSH1 0x20 SWAP3 SWAP1 SWAP3 ADD SWAP7 SWAP2 SWAP6 POP SWAP1 SWAP4 POP POP POP POP JUMP JUMPDEST PUSH1 0x0 DUP1 PUSH1 0x0 DUP1 PUSH1 0x80 DUP6 DUP8 SUB SLT ISZERO PUSH2 0x34AB JUMPI PUSH1 0x0 DUP1 REVERT JUMPDEST DUP5 CALLDATALOAD SWAP4 POP PUSH1 0x20 DUP6 ADD CALLDATALOAD PUSH2 0x34BD DUP2 PUSH2 0x33B1 JUMP JUMPDEST SWAP4 SWAP7 SWAP4 SWAP6 POP POP POP POP PUSH1 0x40 DUP3 ADD CALLDATALOAD SWAP2 PUSH1 0x60 ADD CALLDATALOAD SWAP1 JUMP JUMPDEST PUSH32 0x4E487B7100000000000000000000000000000000000000000000000000000000 PUSH1 0x0 MSTORE PUSH1 0x41 PUSH1 0x4 MSTORE PUSH1 0x24 PUSH1 0x0 REVERT JUMPDEST PUSH1 0x0 DUP1 PUSH1 0x40 DUP4 DUP6 SUB SLT ISZERO PUSH2 0x3514 JUMPI PUSH1 0x0 DUP1 REVERT JUMPDEST DUP3 CALLDATALOAD PUSH2 0x351F DUP2 PUSH2 0x33B1 JUMP JUMPDEST SWAP2 POP PUSH1 0x20 DUP4 ADD CALLDATALOAD PUSH8 0xFFFFFFFFFFFFFFFF DUP1 DUP3 GT ISZERO PUSH2 0x353C JUMPI PUSH1 0x0 DUP1 REVERT JUMPDEST DUP2 DUP6 ADD SWAP2 POP DUP6 PUSH1 0x1F DUP4 ADD SLT PUSH2 0x3550 JUMPI PUSH1 0x0 DUP1 REVERT JUMPDEST DUP2 CALLDATALOAD DUP2 DUP2 GT ISZERO PUSH2 0x3562 JUMPI PUSH2 0x3562 PUSH2 0x34D2 JUMP JUMPDEST PUSH1 0x40 MLOAD PUSH1 0x1F DUP3 ADD PUSH32 0xFFFFFFFFFFFFFFFFFFFFFFFFFFFFFFFFFFFFFFFFFFFFFFFFFFFFFFFFFFFFFFE0 SWAP1 DUP2 AND PUSH1 0x3F ADD AND DUP2 ADD SWAP1 DUP4 DUP3 GT DUP2 DUP4 LT OR ISZERO PUSH2 0x35A8 JUMPI PUSH2 0x35A8 PUSH2 0x34D2 JUMP JUMPDEST DUP2 PUSH1 0x40 MSTORE DUP3 DUP2 MSTORE DUP9 PUSH1 0x20 DUP5 DUP8 ADD ADD GT ISZERO PUSH2 0x35C1 JUMPI PUSH1 0x0 DUP1 REVERT JUMPDEST DUP3 PUSH1 0x20 DUP7 ADD PUSH1 0x20 DUP4 ADD CALLDATACOPY PUSH1 0x0 PUSH1 0x20 DUP5 DUP4 ADD ADD MSTORE DUP1 SWAP6 POP POP POP POP POP POP SWAP3 POP SWAP3 SWAP1 POP JUMP JUMPDEST PUSH1 0x0 DUP1 PUSH1 0x0 PUSH1 0x60 DUP5 DUP7 SUB SLT ISZERO PUSH2 0x35F8 JUMPI PUSH1 0x0 DUP1 REVERT JUMPDEST POP POP DUP2 CALLDATALOAD SWAP4 PUSH1 0x20 DUP4 ADD CALLDATALOAD SWAP4 POP PUSH1 0x40 SWAP1 SWAP3 ADD CALLDATALOAD SWAP2 SWAP1 POP JUMP JUMPDEST PUSH1 0x0 DUP1 PUSH1 0x0 PUSH1 0x40 DUP5 DUP7 SUB SLT ISZERO PUSH2 0x3624 JUMPI PUSH1 0x0 DUP1 REVERT JUMPDEST DUP4 CALLDATALOAD SWAP3 POP PUSH1 0x20 DUP5 ADD CALLDATALOAD PUSH8 0xFFFFFFFFFFFFFFFF DUP2 GT ISZERO PUSH2 0x3642 JUMPI PUSH1 0x0 DUP1 REVERT JUMPDEST PUSH2 0x364E DUP7 DUP3 DUP8 ADD PUSH2 0x32C8 JUMP JUMPDEST SWAP5 SWAP8 SWAP1 SWAP7 POP SWAP4 SWAP5 POP POP POP POP JUMP JUMPDEST DUP1 CALLDATALOAD PUSH1 0xFF DUP2 AND DUP2 EQ PUSH2 0x366C JUMPI PUSH1 0x0 DUP1 REVERT JUMPDEST SWAP2 SWAP1 POP JUMP JUMPDEST PUSH1 0x0 DUP1 PUSH1 0x0 DUP1 PUSH1 0x0 DUP1 PUSH1 0x0 DUP1 PUSH1 0xE0 DUP10 DUP12 SUB SLT ISZERO PUSH2 0x368D JUMPI PUSH1 0x0 DUP1 REVERT JUMPDEST DUP9 CALLDATALOAD SWAP8 POP PUSH1 0x20 DUP10 ADD CALLDATALOAD PUSH8 0xFFFFFFFFFFFFFFFF DUP2 GT ISZERO PUSH2 0x36AB JUMPI PUSH1 0x0 DUP1 REVERT JUMPDEST PUSH2 0x36B7 DUP12 DUP3 DUP13 ADD PUSH2 0x32C8 JUMP JUMPDEST SWAP1 SWAP9 POP SWAP7 POP POP PUSH1 0x40 DUP10 ADD CALLDATALOAD SWAP5 POP PUSH1 0x60 DUP10 ADD CALLDATALOAD SWAP4 POP PUSH2 0x36D7 PUSH1 0x80 DUP11 ADD PUSH2 0x365B JUMP JUMPDEST SWAP3 POP PUSH1 0xA0 DUP10 ADD CALLDATALOAD SWAP2 POP PUSH1 0xC0 DUP10 ADD CALLDATALOAD SWAP1 POP SWAP3 SWAP6 SWAP9 POP SWAP3 SWAP6 SWAP9 SWAP1 SWAP4 SWAP7 POP JUMP JUMPDEST PUSH1 0x0 DUP1 PUSH1 0x0 DUP1 PUSH1 0x0 DUP1 PUSH1 0x0 PUSH1 0xC0 DUP9 DUP11 SUB SLT ISZERO PUSH2 0x370F JUMPI PUSH1 0x0 DUP1 REVERT JUMPDEST DUP8 CALLDATALOAD SWAP7 POP PUSH1 0x20 DUP9 ADD CALLDATALOAD SWAP6 POP PUSH1 0x40 DUP9 ADD CALLDATALOAD PUSH8 0xFFFFFFFFFFFFFFFF DUP2 GT ISZERO PUSH2 0x3734 JUMPI PUSH1 0x0 DUP1 REVERT JUMPDEST PUSH2 0x3740 DUP11 DUP3 DUP12 ADD PUSH2 0x32C8 JUMP JUMPDEST SWAP9 SWAP12 SWAP8 SWAP11 POP SWAP9 PUSH1 0x60 DUP2 ADD CALLDATALOAD SWAP8 PUSH1 0x80 DUP3 ADD CALLDATALOAD SWAP8 POP PUSH1 0xA0 SWAP1 SWAP2 ADD CALLDATALOAD SWAP6 POP SWAP4 POP POP POP POP JUMP JUMPDEST PUSH1 0x0 DUP1 PUSH1 0x40 DUP4 DUP6 SUB SLT ISZERO PUSH2 0x3775 JUMPI PUSH1 0x0 DUP1 REVERT JUMPDEST POP POP DUP1 CALLDATALOAD SWAP3 PUSH1 0x20 SWAP1 SWAP2 ADD CALLDATALOAD SWAP2 POP JUMP JUMPDEST PUSH1 0x0 DUP1 PUSH1 0x0 DUP1 PUSH1 0x0 DUP1 PUSH1 0xC0 DUP8 DUP10 SUB SLT ISZERO PUSH2 0x379D JUMPI PUSH1 0x0 DUP1 REVERT JUMPDEST DUP7 CALLDATALOAD SWAP6 POP PUSH1 0x20 DUP8 ADD CALLDATALOAD SWAP5 POP PUSH1 0x40 DUP8 ADD CALLDATALOAD SWAP4 POP PUSH2 0x37BB PUSH1 0x60 DUP9 ADD PUSH2 0x365B JUMP JUMPDEST SWAP3 POP PUSH1 0x80 DUP8 ADD CALLDATALOAD SWAP2 POP PUSH1 0xA0 DUP8 ADD CALLDATALOAD SWAP1 POP SWAP3 SWAP6 POP SWAP3 SWAP6 POP SWAP3 SWAP6 JUMP JUMPDEST PUSH1 0x0 DUP1 PUSH1 0x0 DUP1 PUSH1 0x0 PUSH1 0x80 DUP7 DUP9 SUB SLT ISZERO PUSH2 0x37ED JUMPI PUSH1 0x0 DUP1 REVERT JUMPDEST DUP6 CALLDATALOAD SWAP5 POP PUSH1 0x20 DUP7 ADD CALLDATALOAD PUSH8 0xFFFFFFFFFFFFFFFF DUP2 GT ISZERO PUSH2 0x380B JUMPI PUSH1 0x0 DUP1 REVERT JUMPDEST PUSH2 0x3817 DUP9 DUP3 DUP10 ADD PUSH2 0x32C8 JUMP JUMPDEST SWAP7 SWAP10 SWAP1 SWAP9 POP SWAP6 SWAP7 PUSH1 0x40 DUP2 ADD CALLDATALOAD SWAP7 PUSH1 0x60 SWAP1 SWAP2 ADD CALLDATALOAD SWAP6 POP SWAP4 POP POP POP POP JUMP JUMPDEST PUSH1 0x40 DUP2 MSTORE DUP3 PUSH1 0x40 DUP3 ADD MSTORE DUP3 DUP5 PUSH1 0x60 DUP4 ADD CALLDATACOPY PUSH1 0x0 PUSH1 0x60 DUP5 DUP4 ADD ADD MSTORE PUSH1 0x0 PUSH1 0x60 PUSH32 0xFFFFFFFFFFFFFFFFFFFFFFFFFFFFFFFFFFFFFFFFFFFFFFFFFFFFFFFFFFFFFFE0 PUSH1 0x1F DUP7 ADD AND DUP4 ADD ADD SWAP1 POP DUP3 PUSH1 0x20 DUP4 ADD MSTORE SWAP5 SWAP4 POP POP POP POP JUMP JUMPDEST PUSH1 0x0 PUSH1 0x20 DUP3 DUP5 SUB SLT ISZERO PUSH2 0x389C JUMPI PUSH1 0x0 DUP1 REVERT JUMPDEST POP MLOAD SWAP2 SWAP1 POP JUMP JUMPDEST PUSH1 0x0 PUSH1 0x20 DUP3 DUP5 SUB SLT ISZERO PUSH2 0x38B5 JUMPI PUSH1 0x0 DUP1 REVERT JUMPDEST DUP2 MLOAD PUSH2 0x13D4 DUP2 PUSH2 0x33B1 JUMP JUMPDEST PUSH32 0x4E487B7100000000000000000000000000000000000000000000000000000000 PUSH1 0x0 MSTORE PUSH1 0x11 PUSH1 0x4 MSTORE PUSH1 0x24 PUSH1 0x0 REVERT JUMPDEST DUP1 DUP3 ADD DUP1 DUP3 GT ISZERO PUSH2 0x1874 JUMPI PUSH2 0x1874 PUSH2 0x38C0 JUMP JUMPDEST PUSH32 0x4E487B7100000000000000000000000000000000000000000000000000000000 PUSH1 0x0 MSTORE PUSH1 0x32 PUSH1 0x4 MSTORE PUSH1 0x24 PUSH1 0x0 REVERT JUMPDEST PUSH1 0x0 PUSH32 0xFFFFFFFFFFFFFFFFFFFFFFFFFFFFFFFFFFFFFFFFFFFFFFFFFFFFFFFFFFFFFFFF DUP3 SUB PUSH2 0x3962 JUMPI PUSH2 0x3962 PUSH2 0x38C0 JUMP JUMPDEST POP PUSH1 0x1 ADD SWAP1 JUMP JUMPDEST PUSH1 0x20 DUP2 MSTORE DUP2 PUSH1 0x20 DUP3 ADD MSTORE PUSH1 0x0 PUSH32 0x7FFFFFFFFFFFFFFFFFFFFFFFFFFFFFFFFFFFFFFFFFFFFFFFFFFFFFFFFFFFFFF DUP4 GT ISZERO PUSH2 0x39A2 JUMPI PUSH1 0x0 DUP1 REVERT JUMPDEST DUP3 PUSH1 0x5 SHL DUP1 DUP6 PUSH1 0x40 DUP6 ADD CALLDATACOPY SWAP2 SWAP1 SWAP2 ADD PUSH1 0x40 ADD SWAP4 SWAP3 POP POP POP JUMP JUMPDEST DUP2 DUP2 SUB DUP2 DUP2 GT ISZERO PUSH2 0x1874 JUMPI PUSH2 0x1874 PUSH2 0x38C0 JUMP JUMPDEST PUSH32 0x4E487B7100000000000000000000000000000000000000000000000000000000 PUSH1 0x0 MSTORE PUSH1 0x21 PUSH1 0x4 MSTORE PUSH1 0x24 PUSH1 0x0 REVERT JUMPDEST PUSH1 0x0 JUMPDEST DUP4 DUP2 LT ISZERO PUSH2 0x3A18 JUMPI DUP2 DUP2 ADD MLOAD DUP4 DUP3 ADD MSTORE PUSH1 0x20 ADD PUSH2 0x3A00 JUMP JUMPDEST POP POP PUSH1 0x0 SWAP2 ADD MSTORE JUMP JUMPDEST PUSH1 0x0 DUP2 MLOAD DUP1 DUP5 MSTORE PUSH2 0x3A39 DUP2 PUSH1 0x20 DUP7 ADD PUSH1 0x20 DUP7 ADD PUSH2 0x39FD JUMP JUMPDEST PUSH1 0x1F ADD PUSH32 0xFFFFFFFFFFFFFFFFFFFFFFFFFFFFFFFFFFFFFFFFFFFFFFFFFFFFFFFFFFFFFFE0 AND SWAP3 SWAP1 SWAP3 ADD PUSH1 0x20 ADD SWAP3 SWAP2 POP POP JUMP JUMPDEST DUP3 DUP2 MSTORE PUSH1 0x40 PUSH1 0x20 DUP3 ADD MSTORE PUSH1 0x0 PUSH2 0x801 PUSH1 0x40 DUP4 ADD DUP5 PUSH2 0x3A21 JUMP JUMPDEST PUSH1 0x0 DUP3 MLOAD PUSH2 0x3A96 DUP2 DUP5 PUSH1 0x20 DUP8 ADD PUSH2 0x39FD JUMP JUMPDEST SWAP2 SWAP1 SWAP2 ADD SWAP3 SWAP2 POP POP JUMP JUMPDEST PUSH1 0x20 DUP2 MSTORE PUSH1 0x0 PUSH2 0x1871 PUSH1 0x20 DUP4 ADD DUP5 PUSH2 0x3A21 JUMP INVALID COINBASE PUSH5 0x6472657373 GASPRICE KECCAK256 PUSH13 0x6F772D6C6576656C2064656C65 PUSH8 0x6174652063616C6C KECCAK256 PUSH7 0x61696C6564A264 PUSH10 0x7066735822122099EEC9 CALLDATACOPY MLOAD GT PUSH0 0xD0 0x2C 0xB5 CODECOPY 0x1E MUL 0xE PUSH27 0x71EBBA7951E79AA7CA38E5B3B21B6CFD4564736F6C634300081500 CALLER "},"gasEstimates":{"creation":{"codeDepositCost":"3024000","executionCost":"infinite","totalCost":"infinite"},"external":{"ADMIN_ROLE()":"229","DEPOSITOR_ROLE()":"295","REALM_ID_CONTRACT()":"infinite","allowedConsumeReasonCodes(bytes32)":"2560","balanceOf(bytes32,bytes32,string)":"infinite","balanceOf(bytes32,string)":"infinite","balanceOf(bytes32,uint256)":"infinite","balanceOf(uint256)":"infinite","balances(bytes32,uint256,uint256)":"2692","batchAddConsumeReasonCodes(bytes32[])":"infinite","batchRemoveConsumeReasonCodes(bytes32[])":"infinite","consume(bytes32,string,uint256,bytes32)":"infinite","consume(bytes32,string,uint256,bytes32,uint8,bytes32,bytes32)":"infinite","consume(uint256,uint256,bytes32)":"infinite","consume(uint256,uint256,bytes32,uint8,bytes32,bytes32)":"infinite","currentSeason()":"2351","deposit(bytes32,bytes32,string,uint256,uint256,bytes32)":"infinite","deposit(bytes32,uint256,uint256,uint256,bytes32)":"infinite","grantRole(bytes32,address)":"infinite","hasRole(bytes32,address)":"infinite","initialize()":"infinite","nonces(uint256)":"2496","owner()":"infinite","preparePayload(uint256,address,uint256,bytes32)":"infinite","proxiableUUID()":"infinite","renounceRole(bytes32)":"infinite","revokeRole(bytes32,address)":"infinite","seasons(bytes32)":"2496","setCurrentSeason(bytes32)":"infinite","transferOwnership(address)":"infinite","upgradeTo(address)":"infinite","upgradeToAndCall(address,bytes)":"infinite"},"internal":{"_authorizeUpgrade(address)":"infinite","_consume(uint256,uint256,uint256,bytes32,address)":"infinite","_preparePayload(uint256,uint256,address,uint256,uint256,bytes32)":"infinite"}},"methodIdentifiers":{"ADMIN_ROLE()":"75b238fc","DEPOSITOR_ROLE()":"a3b0b5a3","REALM_ID_CONTRACT()":"2681a28a","allowedConsumeReasonCodes(bytes32)":"f9515962","balanceOf(bytes32,bytes32,string)":"098b6419","balanceOf(bytes32,string)":"794459be","balanceOf(bytes32,uint256)":"ad3b1d48","balanceOf(uint256)":"9cc7f708","balances(bytes32,uint256,uint256)":"51955dfc","batchAddConsumeReasonCodes(bytes32[])":"3f30b00f","batchRemoveConsumeReasonCodes(bytes32[])":"906405a3","consume(bytes32,string,uint256,bytes32)":"e564a0e2","consume(bytes32,string,uint256,bytes32,uint8,bytes32,bytes32)":"99d342ac","consume(uint256,uint256,bytes32)":"d14a5c71","consume(uint256,uint256,bytes32,uint8,bytes32,bytes32)":"dc893ce4","currentSeason()":"bcb39621","deposit(bytes32,bytes32,string,uint256,uint256,bytes32)":"9d70b005","deposit(bytes32,uint256,uint256,uint256,bytes32)":"18ee89f0","grantRole(bytes32,address)":"2f2ff15d","hasRole(bytes32,address)":"91d14854","initialize()":"8129fc1c","nonces(uint256)":"141a468c","owner()":"8da5cb5b","preparePayload(uint256,address,uint256,bytes32)":"4519eb1d","proxiableUUID()":"52d1902d","renounceRole(bytes32)":"8bb9c5bf","revokeRole(bytes32,address)":"d547741f","seasons(bytes32)":"4529cc1b","setCurrentSeason(bytes32)":"86a8e98a","transferOwnership(address)":"f2fde38b","upgradeTo(address)":"3659cfe6","upgradeToAndCall(address,bytes)":"4f1ef286"}},"storageLayout":{"storage":[{"astId":1426,"contract":"contracts/RealmPoints/RealmPoints.sol:RealmPoints","label":"_initialized","offset":0,"slot":"0","type":"t_uint8"},{"astId":1429,"contract":"contracts/RealmPoints/RealmPoints.sol:RealmPoints","label":"_initializing","offset":1,"slot":"0","type":"t_bool"},{"astId":1408,"contract":"contracts/RealmPoints/RealmPoints.sol:RealmPoints","label":"__gap","offset":0,"slot":"1","type":"t_array(t_uint256)50_storage"},{"astId":1723,"contract":"contracts/RealmPoints/RealmPoints.sol:RealmPoints","label":"__gap","offset":0,"slot":"51","type":"t_array(t_uint256)50_storage"},{"astId":4627,"contract":"contracts/RealmPoints/RealmPoints.sol:RealmPoints","label":"currentSeason","offset":0,"slot":"101","type":"t_bytes32"},{"astId":4631,"contract":"contracts/RealmPoints/RealmPoints.sol:RealmPoints","label":"seasons","offset":0,"slot":"102","type":"t_mapping(t_bytes32,t_bool)"},{"astId":4639,"contract":"contracts/RealmPoints/RealmPoints.sol:RealmPoints","label":"balances","offset":0,"slot":"103","type":"t_mapping(t_bytes32,t_mapping(t_uint256,t_mapping(t_uint256,t_uint256)))"},{"astId":4643,"contract":"contracts/RealmPoints/RealmPoints.sol:RealmPoints","label":"nonces","offset":0,"slot":"104","type":"t_mapping(t_uint256,t_uint256)"},{"astId":4647,"contract":"contracts/RealmPoints/RealmPoints.sol:RealmPoints","label":"allowedConsumeReasonCodes","offset":0,"slot":"105","type":"t_mapping(t_bytes32,t_bool)"}],"types":{"t_array(t_uint256)50_storage":{"base":"t_uint256","encoding":"inplace","label":"uint256[50]","numberOfBytes":"1600"},"t_bool":{"encoding":"inplace","label":"bool","numberOfBytes":"1"},"t_bytes32":{"encoding":"inplace","label":"bytes32","numberOfBytes":"32"},"t_mapping(t_bytes32,t_bool)":{"encoding":"mapping","key":"t_bytes32","label":"mapping(bytes32 => bool)","numberOfBytes":"32","value":"t_bool"},"t_mapping(t_bytes32,t_mapping(t_uint256,t_mapping(t_uint256,t_uint256)))":{"encoding":"mapping","key":"t_bytes32","label":"mapping(bytes32 => mapping(uint256 => mapping(uint256 => uint256)))","numberOfBytes":"32","value":"t_mapping(t_uint256,t_mapping(t_uint256,t_uint256))"},"t_mapping(t_uint256,t_mapping(t_uint256,t_uint256))":{"encoding":"mapping","key":"t_uint256","label":"mapping(uint256 => mapping(uint256 => uint256))","numberOfBytes":"32","value":"t_mapping(t_uint256,t_uint256)"},"t_mapping(t_uint256,t_uint256)":{"encoding":"mapping","key":"t_uint256","label":"mapping(uint256 => uint256)","numberOfBytes":"32","value":"t_uint256"},"t_uint256":{"encoding":"inplace","label":"uint256","numberOfBytes":"32"},"t_uint8":{"encoding":"inplace","label":"uint8","numberOfBytes":"1"}}},"userdoc":{"errors":{"ConsumeReasonCodeAlreadyExists(bytes32)":[{"notice":"Thrown when the given consume reason code already exists in the mapping."}],"ConsumeReasonCodeDoesNotExist(bytes32)":[{"notice":"Thrown when the given reason code does not exist in the mapping."}],"ConsumeReasonCodesArrayEmpty()":[{"notice":"Thrown when the given consume reason codes array is empty."}],"IllegalInterfaceId()":[{"notice":"Thrown when setting the illegal interfaceId 0xffffffff."}],"IncorrectSigner(address)":[{"notice":"Thrown when the signer is not the realmId owner."}],"InitializationPhaseAlreadyReached(uint256,uint256)":[{"notice":"Emitted when trying to set a phase value that has already been reached."}],"InsufficientBalance(uint256,uint256)":[{"notice":"Thrown when the realmId does not have enough balance"}],"InvalidRealmIdContractAddress(address)":[{"notice":"Thrown at construction when the given realmId contract address is invalid."}],"InvalidRealmIdVersion(uint256,uint256)":[{"notice":"Thrown when the given realmId version does not match the current realmId version."}],"InvalidSignature()":[{"notice":"Thrown when the signature is invalid."}],"NotContractOwner(address)":[{"notice":"Thrown when an account is not the contract owner but is required to."}],"NotRoleHolder(bytes32,address)":[{"notice":"Thrown when an account does not have the required role."}],"SeasonAlreadySet(bytes32)":[{"notice":"Thrown when the given season has already been set."}]},"events":{"BatchAddedConsumeReasonCode(bytes32[])":{"notice":"Emitted when one or more reason code(s) are added to the comsume reason code mapping."},"BatchRemovedConsumeReasonCode(bytes32[])":{"notice":"Emitted when one or more reason code(s) are removed from the comsume reason code mapping."},"Consumed(uint256,bytes32,bytes32,address,uint256,uint256,address)":{"notice":"Emitted when an amount is consumed from a balance."},"Deposited(address,bytes32,bytes32,uint256,uint256,uint256)":{"notice":"Emitted when an amount is deposited to a balance."},"OwnershipTransferred(address,address)":{"notice":"Emitted when the contract ownership changes."},"RoleGranted(bytes32,address,address)":{"notice":"Emitted when `role` is granted to `account`."},"RoleRevoked(bytes32,address,address)":{"notice":"Emitted when `role` is revoked from `account`."},"SetCurrentSeason(bytes32)":{"notice":"Emitted when the current season is set."}},"kind":"user","methods":{"balanceOf(bytes32,bytes32,string)":{"notice":"Gets the balance of a realmId for a specified season.The realmId is resolved from the given parent node and name.Applies to the current version of the realmId."},"balanceOf(bytes32,string)":{"notice":"Gets the balance of a realmId.The realmId is resolved from the given parent node and name.Applies to the current version of the realmId.Applies to the current season."},"balanceOf(bytes32,uint256)":{"notice":"Gets the balance of a given realmId for a specified season.Applies to the current version of the realmId."},"balanceOf(uint256)":{"notice":"Gets the balance of a given realmId.Applies to the current version of the realmId.Applies to the current season."},"batchAddConsumeReasonCodes(bytes32[])":{"notice":"Adds one or more reason code(s) to the consume reason code mapping."},"batchRemoveConsumeReasonCodes(bytes32[])":{"notice":"Removes one or more reason code(s) from the consume reason code mapping."},"consume(bytes32,string,uint256,bytes32)":{"notice":"Called by the realmId owner to consume a given amount from the realmId's balance.The realmId is resolved from the given parent node and name.Applies to the current version of the realmId.Applies to the current season."},"consume(bytes32,string,uint256,bytes32,uint8,bytes32,bytes32)":{"notice":"Called with a signature to consume a given amount from the balance of a realmId.The realmId is resolved from the given parent node and name.Applies to the current version of the realmId.Applies to the current season."},"consume(uint256,uint256,bytes32)":{"notice":"Called by the realmId owner to consume a given amount from the given realmId's balance.Applies to the current version of the realmId.Applies to the current season."},"consume(uint256,uint256,bytes32,uint8,bytes32,bytes32)":{"notice":"Called with a signature to consume a given amount from the balance of a given realmId.Applies to the current version of the realmId.Applies to the current season."},"deposit(bytes32,bytes32,string,uint256,uint256,bytes32)":{"notice":"Called by a depoistor to increase the balance of a realmId (with a given version) for a specified season.The realmId is resolved from the given parent node and name."},"deposit(bytes32,uint256,uint256,uint256,bytes32)":{"notice":"Called by a depoistor to increase the balance of a realmId (with a given version) for a specified season."},"grantRole(bytes32,address)":{"notice":"Grants a role to an account."},"hasRole(bytes32,address)":{"notice":"Retrieves whether an account has a role."},"initialize()":{"notice":"Initializes the contract with the provided realmId contract address."},"owner()":{"notice":"Gets the address of the contract owner."},"preparePayload(uint256,address,uint256,bytes32)":{"notice":"Returns a payload generated from the arguments, current nounce, current season and the given realmId's current version."},"renounceRole(bytes32)":{"notice":"Renounces a role by the sender."},"revokeRole(bytes32,address)":{"notice":"Revokes a role from an account."},"setCurrentSeason(bytes32)":{"notice":"Sets the current season."},"transferOwnership(address)":{"notice":"Sets the address of the new contract owner."}},"notice":"This contract is designed for managing the point balances of RealmId.Point balances are registered by realmId (verioned) by season.Methods apply to the current version of the realmId if realmId version is not specified.Methods support identifying the realmId by the realmId itself, or by its parent node and name.","version":1}}}}