{"contracts/MocaPoints/mock/realmIdContract/MockRealmId.sol":{"MockRealmId":{"abi":[{"inputs":[{"internalType":"string","name":"","type":"string"},{"internalType":"bytes32","name":"","type":"bytes32"}],"name":"getTokenId","outputs":[{"internalType":"uint256","name":"","type":"uint256"}],"stateMutability":"pure","type":"function"},{"inputs":[{"internalType":"uint256","name":"","type":"uint256"}],"name":"ownerOf","outputs":[{"internalType":"address","name":"","type":"address"}],"stateMutability":"pure","type":"function"}],"devdoc":{"kind":"dev","methods":{},"version":1},"evm":{"bytecode":{"linkReferences":{},"object":"608060405234801561001057600080fd5b50610178806100206000396000f3fe608060405234801561001057600080fd5b50600436106100365760003560e01c80636352211e1461003b578063cad6b9011461008c575b600080fd5b6100626100493660046100b1565b507390f79bf6eb2c4f870365e785982e1f101e93b90690565b60405173ffffffffffffffffffffffffffffffffffffffff90911681526020015b60405180910390f35b6100a361009a3660046100ca565b600a9392505050565b604051908152602001610083565b6000602082840312156100c357600080fd5b5035919050565b6000806000604084860312156100df57600080fd5b833567ffffffffffffffff808211156100f757600080fd5b818601915086601f83011261010b57600080fd5b81358181111561011a57600080fd5b87602082850101111561012c57600080fd5b602092830198909750959091013594935050505056fea2646970667358221220ff09c8b17e2d4d073f084bdacfb4cf0a0763d9a7c7daf56c7c6eb164d48deb6164736f6c63430008150033","opcodes":"PUSH1 0x80 PUSH1 0x40 MSTORE CALLVALUE DUP1 ISZERO PUSH2 0x10 JUMPI PUSH1 0x0 DUP1 REVERT JUMPDEST POP PUSH2 0x178 DUP1 PUSH2 0x20 PUSH1 0x0 CODECOPY PUSH1 0x0 RETURN INVALID PUSH1 0x80 PUSH1 0x40 MSTORE CALLVALUE DUP1 ISZERO PUSH2 0x10 JUMPI PUSH1 0x0 DUP1 REVERT JUMPDEST POP PUSH1 0x4 CALLDATASIZE LT PUSH2 0x36 JUMPI PUSH1 0x0 CALLDATALOAD PUSH1 0xE0 SHR DUP1 PUSH4 0x6352211E EQ PUSH2 0x3B JUMPI DUP1 PUSH4 0xCAD6B901 EQ PUSH2 0x8C JUMPI JUMPDEST PUSH1 0x0 DUP1 REVERT JUMPDEST PUSH2 0x62 PUSH2 0x49 CALLDATASIZE PUSH1 0x4 PUSH2 0xB1 JUMP JUMPDEST POP PUSH20 0x90F79BF6EB2C4F870365E785982E1F101E93B906 SWAP1 JUMP JUMPDEST PUSH1 0x40 MLOAD PUSH20 0xFFFFFFFFFFFFFFFFFFFFFFFFFFFFFFFFFFFFFFFF SWAP1 SWAP2 AND DUP2 MSTORE PUSH1 0x20 ADD JUMPDEST PUSH1 0x40 MLOAD DUP1 SWAP2 SUB SWAP1 RETURN JUMPDEST PUSH2 0xA3 PUSH2 0x9A CALLDATASIZE PUSH1 0x4 PUSH2 0xCA JUMP JUMPDEST PUSH1 0xA SWAP4 SWAP3 POP POP POP JUMP JUMPDEST PUSH1 0x40 MLOAD SWAP1 DUP2 MSTORE PUSH1 0x20 ADD PUSH2 0x83 JUMP JUMPDEST PUSH1 0x0 PUSH1 0x20 DUP3 DUP5 SUB SLT ISZERO PUSH2 0xC3 JUMPI PUSH1 0x0 DUP1 REVERT JUMPDEST POP CALLDATALOAD SWAP2 SWAP1 POP JUMP JUMPDEST PUSH1 0x0 DUP1 PUSH1 0x0 PUSH1 0x40 DUP5 DUP7 SUB SLT ISZERO PUSH2 0xDF JUMPI PUSH1 0x0 DUP1 REVERT JUMPDEST DUP4 CALLDATALOAD PUSH8 0xFFFFFFFFFFFFFFFF DUP1 DUP3 GT ISZERO PUSH2 0xF7 JUMPI PUSH1 0x0 DUP1 REVERT JUMPDEST DUP2 DUP7 ADD SWAP2 POP DUP7 PUSH1 0x1F DUP4 ADD SLT PUSH2 0x10B JUMPI PUSH1 0x0 DUP1 REVERT JUMPDEST DUP2 CALLDATALOAD DUP2 DUP2 GT ISZERO PUSH2 0x11A JUMPI PUSH1 0x0 DUP1 REVERT JUMPDEST DUP8 PUSH1 0x20 DUP3 DUP6 ADD ADD GT ISZERO PUSH2 0x12C JUMPI PUSH1 0x0 DUP1 REVERT JUMPDEST PUSH1 0x20 SWAP3 DUP4 ADD SWAP9 SWAP1 SWAP8 POP SWAP6 SWAP1 SWAP2 ADD CALLDATALOAD SWAP5 SWAP4 POP POP POP POP JUMP INVALID LOG2 PUSH5 0x6970667358 0x22 SLT KECCAK256 SELFDESTRUCT MULMOD 0xC8 0xB1 PUSH31 0x2D4D073F084BDACFB4CF0A0763D9A7C7DAF56C7C6EB164D48DEB6164736F6C PUSH4 0x43000815 STOP CALLER "},"gasEstimates":{"creation":{"codeDepositCost":"75200","executionCost":"123","totalCost":"75323"},"external":{"getTokenId(string,bytes32)":"474","ownerOf(uint256)":"250"}},"methodIdentifiers":{"getTokenId(string,bytes32)":"cad6b901","ownerOf(uint256)":"6352211e"}},"storageLayout":{"storage":[],"types":null},"userdoc":{"kind":"user","methods":{},"version":1}}}}