{"contracts/MocaPoints/mock/upgrades/MockMocaPointsUpgrade.sol":{"MockMocaPointsUpgrade":{"abi":[{"inputs":[{"internalType":"address","name":"realmIdContract","type":"address"}],"stateMutability":"nonpayable","type":"constructor"},{"inputs":[{"internalType":"bytes32","name":"reasonCode","type":"bytes32"}],"name":"ConsumeReasonCodeAlreadyExists","type":"error"},{"inputs":[{"internalType":"bytes32","name":"reasonCode","type":"bytes32"}],"name":"ConsumeReasonCodeDoesNotExist","type":"error"},{"inputs":[],"name":"ConsumeReasonCodesArrayEmpty","type":"error"},{"inputs":[],"name":"IllegalInterfaceId","type":"error"},{"inputs":[{"internalType":"address","name":"signer","type":"address"}],"name":"IncorrectSigner","type":"error"},{"inputs":[{"internalType":"uint256","name":"currentPhase","type":"uint256"},{"internalType":"uint256","name":"newPhase","type":"uint256"}],"name":"InitializationPhaseAlreadyReached","type":"error"},{"inputs":[{"internalType":"uint256","name":"realmId","type":"uint256"},{"internalType":"uint256","name":"requiredBalance","type":"uint256"}],"name":"InsufficientBalance","type":"error"},{"inputs":[{"internalType":"address","name":"addr","type":"address"}],"name":"InvalidRealmIdContractAddress","type":"error"},{"inputs":[{"internalType":"uint256","name":"realmId","type":"uint256"},{"internalType":"uint256","name":"realmIdVersion","type":"uint256"}],"name":"InvalidRealmIdVersion","type":"error"},{"inputs":[{"internalType":"address","name":"account","type":"address"}],"name":"NotContractOwner","type":"error"},{"inputs":[{"internalType":"bytes32","name":"role","type":"bytes32"},{"internalType":"address","name":"account","type":"address"}],"name":"NotRoleHolder","type":"error"},{"inputs":[{"internalType":"bytes32","name":"season","type":"bytes32"}],"name":"SeasonAlreadySet","type":"error"},{"anonymous":false,"inputs":[{"indexed":false,"internalType":"address","name":"previousAdmin","type":"address"},{"indexed":false,"internalType":"address","name":"newAdmin","type":"address"}],"name":"AdminChanged","type":"event"},{"anonymous":false,"inputs":[{"indexed":false,"internalType":"bytes32[]","name":"reasonCodes","type":"bytes32[]"}],"name":"BatchAddedConsumeReasonCode","type":"event"},{"anonymous":false,"inputs":[{"indexed":false,"internalType":"bytes32[]","name":"reasonCodes","type":"bytes32[]"}],"name":"BatchRemovedConsumeReasonCode","type":"event"},{"anonymous":false,"inputs":[{"indexed":true,"internalType":"address","name":"beacon","type":"address"}],"name":"BeaconUpgraded","type":"event"},{"anonymous":false,"inputs":[{"indexed":true,"internalType":"uint256","name":"realmId","type":"uint256"},{"indexed":true,"internalType":"bytes32","name":"season","type":"bytes32"},{"indexed":true,"internalType":"bytes32","name":"reasonCode","type":"bytes32"},{"indexed":false,"internalType":"address","name":"operator","type":"address"},{"indexed":false,"internalType":"uint256","name":"realmIdVersion","type":"uint256"},{"indexed":false,"internalType":"uint256","name":"amount","type":"uint256"},{"indexed":false,"internalType":"address","name":"realmIdOwner","type":"address"}],"name":"Consumed","type":"event"},{"anonymous":false,"inputs":[{"indexed":true,"internalType":"address","name":"sender","type":"address"},{"indexed":true,"internalType":"bytes32","name":"season","type":"bytes32"},{"indexed":true,"internalType":"bytes32","name":"reasonCode","type":"bytes32"},{"indexed":false,"internalType":"uint256","name":"realmId","type":"uint256"},{"indexed":false,"internalType":"uint256","name":"realmIdVersion","type":"uint256"},{"indexed":false,"internalType":"uint256","name":"amount","type":"uint256"}],"name":"Deposited","type":"event"},{"anonymous":false,"inputs":[{"indexed":false,"internalType":"uint8","name":"version","type":"uint8"}],"name":"Initialized","type":"event"},{"anonymous":false,"inputs":[{"indexed":true,"internalType":"address","name":"previousOwner","type":"address"},{"indexed":true,"internalType":"address","name":"newOwner","type":"address"}],"name":"OwnershipTransferred","type":"event"},{"anonymous":false,"inputs":[{"indexed":false,"internalType":"bytes32","name":"role","type":"bytes32"},{"indexed":false,"internalType":"address","name":"account","type":"address"},{"indexed":false,"internalType":"address","name":"operator","type":"address"}],"name":"RoleGranted","type":"event"},{"anonymous":false,"inputs":[{"indexed":false,"internalType":"bytes32","name":"role","type":"bytes32"},{"indexed":false,"internalType":"address","name":"account","type":"address"},{"indexed":false,"internalType":"address","name":"operator","type":"address"}],"name":"RoleRevoked","type":"event"},{"anonymous":false,"inputs":[{"indexed":false,"internalType":"bytes32","name":"season","type":"bytes32"}],"name":"SetCurrentSeason","type":"event"},{"anonymous":false,"inputs":[{"indexed":true,"internalType":"address","name":"implementation","type":"address"}],"name":"Upgraded","type":"event"},{"inputs":[],"name":"ADMIN_ROLE","outputs":[{"internalType":"bytes32","name":"","type":"bytes32"}],"stateMutability":"view","type":"function"},{"inputs":[],"name":"DEPOSITOR_ROLE","outputs":[{"internalType":"bytes32","name":"","type":"bytes32"}],"stateMutability":"view","type":"function"},{"inputs":[],"name":"REALM_ID_CONTRACT","outputs":[{"internalType":"contract IRealmId","name":"","type":"address"}],"stateMutability":"view","type":"function"},{"inputs":[{"internalType":"bytes32","name":"","type":"bytes32"}],"name":"allowedConsumeReasonCodes","outputs":[{"internalType":"bool","name":"","type":"bool"}],"stateMutability":"view","type":"function"},{"inputs":[{"internalType":"bytes32","name":"season","type":"bytes32"},{"internalType":"bytes32","name":"parentNode","type":"bytes32"},{"internalType":"string","name":"name","type":"string"}],"name":"balanceOf","outputs":[{"internalType":"uint256","name":"","type":"uint256"}],"stateMutability":"view","type":"function"},{"inputs":[{"internalType":"bytes32","name":"parentNode","type":"bytes32"},{"internalType":"string","name":"name","type":"string"}],"name":"balanceOf","outputs":[{"internalType":"uint256","name":"","type":"uint256"}],"stateMutability":"view","type":"function"},{"inputs":[{"internalType":"uint256","name":"realmId","type":"uint256"}],"name":"balanceOf","outputs":[{"internalType":"uint256","name":"","type":"uint256"}],"stateMutability":"view","type":"function"},{"inputs":[{"internalType":"bytes32","name":"season","type":"bytes32"},{"internalType":"uint256","name":"realmId","type":"uint256"}],"name":"balanceOf","outputs":[{"internalType":"uint256","name":"","type":"uint256"}],"stateMutability":"view","type":"function"},{"inputs":[{"internalType":"bytes32","name":"","type":"bytes32"},{"internalType":"uint256","name":"","type":"uint256"},{"internalType":"uint256","name":"","type":"uint256"}],"name":"balances","outputs":[{"internalType":"uint256","name":"","type":"uint256"}],"stateMutability":"view","type":"function"},{"inputs":[{"internalType":"bytes32[]","name":"reasonCodes","type":"bytes32[]"}],"name":"batchAddConsumeReasonCodes","outputs":[],"stateMutability":"nonpayable","type":"function"},{"inputs":[{"internalType":"bytes32[]","name":"reasonCodes","type":"bytes32[]"}],"name":"batchRemoveConsumeReasonCodes","outputs":[],"stateMutability":"nonpayable","type":"function"},{"inputs":[{"internalType":"bytes32","name":"parentNode","type":"bytes32"},{"internalType":"string","name":"name","type":"string"},{"internalType":"uint256","name":"amount","type":"uint256"},{"internalType":"bytes32","name":"consumeReasonCode","type":"bytes32"},{"internalType":"uint8","name":"v","type":"uint8"},{"internalType":"bytes32","name":"r","type":"bytes32"},{"internalType":"bytes32","name":"s","type":"bytes32"}],"name":"consume","outputs":[],"stateMutability":"nonpayable","type":"function"},{"inputs":[{"internalType":"uint256","name":"realmId","type":"uint256"},{"internalType":"uint256","name":"amount","type":"uint256"},{"internalType":"bytes32","name":"consumeReasonCode","type":"bytes32"}],"name":"consume","outputs":[],"stateMutability":"nonpayable","type":"function"},{"inputs":[{"internalType":"uint256","name":"realmId","type":"uint256"},{"internalType":"uint256","name":"amount","type":"uint256"},{"internalType":"bytes32","name":"consumeReasonCode","type":"bytes32"},{"internalType":"uint8","name":"v","type":"uint8"},{"internalType":"bytes32","name":"r","type":"bytes32"},{"internalType":"bytes32","name":"s","type":"bytes32"}],"name":"consume","outputs":[],"stateMutability":"nonpayable","type":"function"},{"inputs":[{"internalType":"bytes32","name":"parentNode","type":"bytes32"},{"internalType":"string","name":"name","type":"string"},{"internalType":"uint256","name":"amount","type":"uint256"},{"internalType":"bytes32","name":"consumeReasonCode","type":"bytes32"}],"name":"consume","outputs":[],"stateMutability":"nonpayable","type":"function"},{"inputs":[],"name":"currentSeason","outputs":[{"internalType":"bytes32","name":"","type":"bytes32"}],"stateMutability":"view","type":"function"},{"inputs":[{"internalType":"bytes32","name":"season","type":"bytes32"},{"internalType":"uint256","name":"realmId","type":"uint256"},{"internalType":"uint256","name":"realmIdVersion","type":"uint256"},{"internalType":"uint256","name":"amount","type":"uint256"},{"internalType":"bytes32","name":"depositReasonCode","type":"bytes32"}],"name":"deposit","outputs":[],"stateMutability":"nonpayable","type":"function"},{"inputs":[{"internalType":"bytes32","name":"season","type":"bytes32"},{"internalType":"bytes32","name":"parentNode","type":"bytes32"},{"internalType":"string","name":"name","type":"string"},{"internalType":"uint256","name":"realmIdVersion","type":"uint256"},{"internalType":"uint256","name":"amount","type":"uint256"},{"internalType":"bytes32","name":"depositReasonCode","type":"bytes32"}],"name":"deposit","outputs":[],"stateMutability":"nonpayable","type":"function"},{"inputs":[{"internalType":"bytes32","name":"role","type":"bytes32"},{"internalType":"address","name":"account","type":"address"}],"name":"grantRole","outputs":[],"stateMutability":"nonpayable","type":"function"},{"inputs":[{"internalType":"bytes32","name":"role","type":"bytes32"},{"internalType":"address","name":"account","type":"address"}],"name":"hasRole","outputs":[{"internalType":"bool","name":"hasRole_","type":"bool"}],"stateMutability":"view","type":"function"},{"inputs":[],"name":"initialize","outputs":[],"stateMutability":"nonpayable","type":"function"},{"inputs":[{"internalType":"uint256","name":"_newVal","type":"uint256"}],"name":"initializeV2","outputs":[],"stateMutability":"nonpayable","type":"function"},{"inputs":[{"internalType":"uint256","name":"","type":"uint256"}],"name":"nonces","outputs":[{"internalType":"uint256","name":"","type":"uint256"}],"stateMutability":"view","type":"function"},{"inputs":[],"name":"owner","outputs":[{"internalType":"address","name":"","type":"address"}],"stateMutability":"view","type":"function"},{"inputs":[{"internalType":"uint256","name":"realmId","type":"uint256"},{"internalType":"uint256","name":"amount","type":"uint256"},{"internalType":"bytes32","name":"reasonCode","type":"bytes32"}],"name":"preparePayload","outputs":[{"internalType":"bytes32","name":"","type":"bytes32"}],"stateMutability":"view","type":"function"},{"inputs":[],"name":"proxiableUUID","outputs":[{"internalType":"bytes32","name":"","type":"bytes32"}],"stateMutability":"view","type":"function"},{"inputs":[{"internalType":"bytes32","name":"role","type":"bytes32"}],"name":"renounceRole","outputs":[],"stateMutability":"nonpayable","type":"function"},{"inputs":[{"internalType":"bytes32","name":"role","type":"bytes32"},{"internalType":"address","name":"account","type":"address"}],"name":"revokeRole","outputs":[],"stateMutability":"nonpayable","type":"function"},{"inputs":[{"internalType":"bytes32","name":"","type":"bytes32"}],"name":"seasons","outputs":[{"internalType":"bool","name":"","type":"bool"}],"stateMutability":"view","type":"function"},{"inputs":[{"internalType":"bytes32","name":"season","type":"bytes32"}],"name":"setCurrentSeason","outputs":[],"stateMutability":"nonpayable","type":"function"},{"inputs":[{"internalType":"address","name":"newOwner","type":"address"}],"name":"transferOwnership","outputs":[],"stateMutability":"nonpayable","type":"function"},{"inputs":[{"internalType":"address","name":"newImplementation","type":"address"}],"name":"upgradeTo","outputs":[],"stateMutability":"nonpayable","type":"function"},{"inputs":[{"internalType":"address","name":"newImplementation","type":"address"},{"internalType":"bytes","name":"data","type":"bytes"}],"name":"upgradeToAndCall","outputs":[],"stateMutability":"payable","type":"function"},{"inputs":[],"name":"val","outputs":[{"internalType":"uint256","name":"","type":"uint256"}],"stateMutability":"view","type":"function"}],"devdoc":{"errors":{"ConsumeReasonCodeAlreadyExists(bytes32)":[{"params":{"reasonCode":"The reason code that already exists in the mapping."}}],"ConsumeReasonCodeDoesNotExist(bytes32)":[{"params":{"reasonCode":"The reason code that does not exist in the mapping."}}],"IncorrectSigner(address)":[{"params":{"signer":"The incorrect signer."}}],"InitializationPhaseAlreadyReached(uint256,uint256)":[{"params":{"currentPhase":"The current phase.","newPhase":"The new phase trying to be set."}}],"InsufficientBalance(uint256,uint256)":[{"params":{"realmId":"The given realmId.","requiredBalance":"The required balance."}}],"InvalidRealmIdContractAddress(address)":[{"params":{"addr":"The invalid realmId contract address."}}],"InvalidRealmIdVersion(uint256,uint256)":[{"params":{"realmId":"The given realmId.","realmIdVersion":"The given realmId version."}}],"NotContractOwner(address)":[{"params":{"account":"The account that was checked."}}],"NotRoleHolder(bytes32,address)":[{"params":{"account":"The account that was checked.","role":"The role the caller is missing."}}],"SeasonAlreadySet(bytes32)":[{"params":{"season":"The season that already exists in the mapping."}}]},"events":{"AdminChanged(address,address)":{"details":"Emitted when the admin account has changed."},"BatchAddedConsumeReasonCode(bytes32[])":{"params":{"reasonCodes":"The reason codes added to the mapping."}},"BatchRemovedConsumeReasonCode(bytes32[])":{"params":{"reasonCodes":"The reason codes removed from the mapping."}},"BeaconUpgraded(address)":{"details":"Emitted when the beacon is changed."},"Consumed(uint256,bytes32,bytes32,address,uint256,uint256,address)":{"params":{"amount":"The amount consumed.","operator":"The sender of the consumption.","realmId":"The realmId of the balance consumed from.","realmIdOwner":"The realmId owner's address.","realmIdVersion":"The realmId version.","reasonCode":"The reason code of the consumption.","season":"The season of the balance consumed from."}},"Deposited(address,bytes32,bytes32,uint256,uint256,uint256)":{"params":{"amount":"The amount deposited.","realmId":"The realmId of the balance deposited to.","realmIdVersion":"The realmId version.","reasonCode":"The reason code of the deposit.","season":"The season of the balance deposited to.","sender":"The sender of the deposit."}},"Initialized(uint8)":{"details":"Triggered when the contract has been initialized or reinitialized."},"OwnershipTransferred(address,address)":{"params":{"newOwner":"the new contract owner.","previousOwner":"the previous contract owner."}},"RoleGranted(bytes32,address,address)":{"params":{"account":"The account that has been granted the role.","operator":"The account that granted the role.","role":"The role that has been granted."}},"RoleRevoked(bytes32,address,address)":{"params":{"account":"The account that has been revoked the role.","operator":"The account that revoked the role.","role":"The role that has been revoked."}},"SetCurrentSeason(bytes32)":{"params":{"season":"The new season being set."}},"Upgraded(address)":{"details":"Emitted when the implementation is upgraded."}},"kind":"dev","methods":{"balanceOf(bytes32,bytes32,string)":{"details":"Reverts if fails to resolve realmId from the given parent node and name.Reverts if fails to resolve realmId's version.","params":{"name":"The name of the realmId.","parentNode":"The parent node of the realmId.","season":"The season."},"returns":{"_0":"The balance."}},"balanceOf(bytes32,string)":{"details":"Reverts if fails to resolve realmId from the given parent node and name.Reverts if fails to resolve realmId's version.","params":{"name":"The name of the realmId.","parentNode":"The parent node of the realmId."},"returns":{"_0":"The balance."}},"balanceOf(bytes32,uint256)":{"details":"Reverts if fails to resolve realmId's version.","params":{"realmId":"The realmId.","season":"The season."},"returns":{"_0":"The balance."}},"balanceOf(uint256)":{"details":"Reverts if fails to resolve realmId's version.","params":{"realmId":"The realmId."},"returns":{"_0":"The balance."}},"batchAddConsumeReasonCodes(bytes32[])":{"details":"Reverts if sender does not have Admin role.Reverts if the given reason codes array is empty.Reverts if any of the given reason codes already exists in the mapping.Emits a {BatchAddedConsumeReasonCode} event if all the given reason codes are successfully added.","params":{"reasonCodes":"Array of reason codes to add."}},"batchRemoveConsumeReasonCodes(bytes32[])":{"details":"Reverts if sender does not have Admin role.Reverts if the given reason codes array is empty.Reverts if any of the given reason codes do not exist in the mapping.Emits a {BatchRemovedConsumeReasonCode} event if all the given reason codes are successfully removed.","params":{"reasonCodes":"Array of reason codes to remove."}},"constructor":{"custom:oz-upgrades-unsafe-allow":"constructor"},"consume(bytes32,string,uint256,bytes32)":{"details":"Reverts if fails to resolve realmId from the given parent node and name.Reverts if fails to resolve owner of the realmId.Reverts if the sender is not the owner of the realmId.Reverts if fails to resolve realmId's version.Reverts if balance is insufficient.Reverts if the consume reason code is not allowed.Emits a {Consumed} event if the consumption is successful.","params":{"amount":"The amount to consume.","consumeReasonCode":"The reason code of the consumption.","name":"The name of the realmId.","parentNode":"The parent node of the realmId."}},"consume(bytes32,string,uint256,bytes32,uint8,bytes32,bytes32)":{"details":"Reverts if fails to resolve realmId from the given parent node and name.Reverts if fails to resolve realmId's version.Reverts if signature is invalid.Reverts if fails to resolve owner of the realmId.Reverts if signer is not the realmId owner.Reverts if balance is insufficient.Reverts if the consume reason code is not allowed.Emits a {Consumed} event if the consumption is successful.","params":{"amount":"The amount to consume.","consumeReasonCode":"The reason code of the consumption.","name":"The name of the realmId.","parentNode":"The parent node of the realmId.","r":"r value of the signature.","s":"s value of the signature.","v":"v value of the signature."}},"consume(uint256,uint256,bytes32)":{"details":"Reverts if fails to resolve owner of the realmId.Reverts if the sender is not the owner of the realmId.Reverts if fails to resolve realmId's version.Reverts if balance is insufficient.Reverts if the consume reason code is not allowed.Emits a {Consumed} event if the consumption is successful.","params":{"amount":"The amount to consume.","consumeReasonCode":"The reason code of the consumption.","realmId":"The realmId to deposit to."}},"consume(uint256,uint256,bytes32,uint8,bytes32,bytes32)":{"details":"Reverts if failes to resolve realmId's version.Reverts if signature is invalid.Reverts if fails to resolve owner of the realmId.Reverts if signer is not the realmId owner.Reverts if balance is insufficient.Reverts if the consume reason code is not allowed.Emits a {Consumed} event if the consumption is successful.","params":{"amount":"The amount to consume.","consumeReasonCode":"The reason code of the consumption.","r":"r value of the signature.","realmId":"The realmId to consume from.","s":"s value of the signature.","v":"v value of the signature."}},"deposit(bytes32,bytes32,string,uint256,uint256,bytes32)":{"details":"Reverts if sender does not have Depositor role.Reverts if the realmId does not exist.Reverts if the given realmId version does not match the current realmId version.Emits a {Deposited} event with msg.sender as the sender.","params":{"amount":"The amount to deposit.","depositReasonCode":"The reason code of the deposit.","name":"The name associated with the realmId.","parentNode":"The parent node associated with the realmId.","realmIdVersion":"The realmId version.","season":"The season to deposit to."}},"deposit(bytes32,uint256,uint256,uint256,bytes32)":{"details":"Reverts if sender does not have Depositor role.Reverts if the realmId does not exist.Reverts if the given realmId version does not match the current realmId version.Emits a {Deposited} event if successful.","params":{"amount":"The amount to deposit.","depositReasonCode":"The reason code of the deposit.","realmId":"The realmId to deposit to.","realmIdVersion":"The realmId version.","season":"The season to deposit to."}},"grantRole(bytes32,address)":{"details":"Reverts with {NotContractOwner} if the sender is not the contract owner.Emits a {RoleGranted} event if the account did not previously have the role.","params":{"account":"The account to grant the role to.","role":"The role to grant."}},"hasRole(bytes32,address)":{"params":{"account":"The account.","role":"The role."},"returns":{"hasRole_":"Whether `account` has `role`."}},"owner()":{"returns":{"_0":"The address of the contract owner."}},"preparePayload(uint256,uint256,bytes32)":{"details":"Reverts if fails to resolve the realmId's version.","params":{"amount":"The amount.","realmId":"The realmId.","reasonCode":"The reason code."},"returns":{"_0":"The payload."}},"proxiableUUID()":{"details":"Implementation of the ERC1822 {proxiableUUID} function. This returns the storage slot used by the implementation. It is used to validate the implementation's compatibility when performing an upgrade. IMPORTANT: A proxy pointing at a proxiable contract should not be considered proxiable itself, because this risks bricking a proxy that upgrades to it, by delegating to itself until out of gas. Thus it is critical that this function revert if invoked through a proxy. This is guaranteed by the `notDelegated` modifier."},"renounceRole(bytes32)":{"details":"Reverts if `sender` does not have `role`.Emits a {RoleRevoked} event.","params":{"role":"The role to renounce."}},"revokeRole(bytes32,address)":{"details":"Reverts with {NotContractOwner} if the sender is not the contract owner.Emits a {RoleRevoked} event if the account previously had the role.","params":{"account":"The account to revoke the role from.","role":"The role to revoke."}},"setCurrentSeason(bytes32)":{"details":"Reverts if sender does not have Admin role.Reverts if the given season has already been set before.Emits a {SetCurrentSeason} event if successful.","params":{"season":"The season to set."}},"transferOwnership(address)":{"details":"Reverts if the sender is not the contract owner.Emits an {OwnershipTransferred} event if `newOwner` is different from the current contract owner.","params":{"newOwner":"The address of the new contract owner. Using the zero address means renouncing ownership."}},"upgradeTo(address)":{"custom:oz-upgrades-unsafe-allow-reachable":"delegatecall","details":"Upgrade the implementation of the proxy to `newImplementation`. Calls {_authorizeUpgrade}. Emits an {Upgraded} event."},"upgradeToAndCall(address,bytes)":{"custom:oz-upgrades-unsafe-allow-reachable":"delegatecall","details":"Upgrade the implementation of the proxy to `newImplementation`, and subsequently execute the function call encoded in `data`. Calls {_authorizeUpgrade}. Emits an {Upgraded} event."}},"version":1},"evm":{"bytecode":{"linkReferences":{},"object":"60c0604052306080523480156200001557600080fd5b5060405162003cf938038062003cf9833981016040819052620000389162000083565b806001600160a01b03811662000070576040516382dd9ba360e01b81526001600160a01b038216600482015260240160405180910390fd5b6001600160a01b031660a05250620000b5565b6000602082840312156200009657600080fd5b81516001600160a01b0381168114620000ae57600080fd5b9392505050565b60805160a051613b9262000167600039600081816102b2015281816106f2015281816107d8015281816108d90152818161098c015281816112b60152818161139c01528181611918015281816119f601528181611ad001528181611bac01528181611c6f01528181611d7401528181611e6e01528181611fde01528181612149015261225a015260008181610b2101528181610bd101528181610ead01528181610f5d01526110a60152613b926000f3fe6080604052600436106102195760003560e01c80638bb9c5bf1161011d578063ad3b1d48116100b0578063dc893ce41161007f578063e564a0e211610064578063e564a0e21461067d578063f2fde38b1461069d578063f9515962146106bd57600080fd5b8063dc893ce41461063d578063df00bb241461065d57600080fd5b8063ad3b1d48146105c7578063bcb39621146105e7578063d14a5c71146105fd578063d547741f1461061d57600080fd5b806399d342ac116100ec57806399d342ac146105335780639cc7f708146105535780639d70b00514610573578063a3b0b5a31461059357600080fd5b80638bb9c5bf146104be5780638da5cb5b146104de578063906405a3146104f357806391d148541461051357600080fd5b80634529cc1b116101b05780635b4e128c1161017f578063794459be11610164578063794459be146104695780638129fc1c1461048957806386a8e98a1461049e57600080fd5b80635b4e128c1461041557806375b238fc1461043557600080fd5b80634529cc1b1461036f5780634f1ef286146103af57806351955dfc146103c257806352d1902d1461040057600080fd5b80632f2ff15d116101ec5780632f2ff15d146102f95780633659cfe6146103195780633c6bb436146103395780633f30b00f1461034f57600080fd5b8063098b64191461021e578063141a468c1461025157806318ee89f01461027e5780632681a28a146102a0575b600080fd5b34801561022a57600080fd5b5061023e6102393660046133e7565b6106ed565b6040519081526020015b60405180910390f35b34801561025d57600080fd5b5061023e61026c36600461343a565b60686020526000908152604090205481565b34801561028a57600080fd5b5061029e610299366004613453565b610875565b005b3480156102ac57600080fd5b506102d47f000000000000000000000000000000000000000000000000000000000000000081565b60405173ffffffffffffffffffffffffffffffffffffffff9091168152602001610248565b34801561030557600080fd5b5061029e6103143660046134b0565b610adc565b34801561032557600080fd5b5061029e6103343660046134e0565b610b0a565b34801561034557600080fd5b5061023e606a5481565b34801561035b57600080fd5b5061029e61036a366004613504565b610d0f565b34801561037b57600080fd5b5061039f61038a36600461343a565b60666020526000908152604090205460ff1681565b6040519015158152602001610248565b61029e6103bd3660046135a8565b610e96565b3480156103ce57600080fd5b5061023e6103dd36600461368a565b606760209081526000938452604080852082529284528284209052825290205481565b34801561040c57600080fd5b5061023e61108c565b34801561042157600080fd5b5061029e61043036600461343a565b611178565b34801561044157600080fd5b5061023e7fa49807205ce4d355092ef5a8a18f56e8913cf4a201fbe287825b095693c2177581565b34801561047557600080fd5b5061023e6104843660046136b6565b6112b1565b34801561049557600080fd5b5061029e611439565b3480156104aa57600080fd5b5061029e6104b936600461343a565b6115dd565b3480156104ca57600080fd5b5061029e6104d936600461343a565b6116c1565b3480156104ea57600080fd5b506102d46116d5565b3480156104ff57600080fd5b5061029e61050e366004613504565b611701565b34801561051f57600080fd5b5061039f61052e3660046134b0565b61188b565b34801561053f57600080fd5b5061029e61054e366004613718565b6118d8565b34801561055f57600080fd5b5061023e61056e36600461343a565b6119ad565b34801561057f57600080fd5b5061029e61058e36600461379b565b611a90565b34801561059f57600080fd5b5061023e7f8f4f2da22e8ac8f11e15f9fc141cddbb5deea8800186560abb6e68c5496619a981565b3480156105d357600080fd5b5061023e6105e2366004613809565b611b63565b3480156105f357600080fd5b5061023e60655481565b34801561060957600080fd5b5061029e61061836600461368a565b611c3d565b34801561062957600080fd5b5061029e6106383660046134b0565b611e0a565b34801561064957600080fd5b5061029e61065836600461382b565b611e2d565b34801561066957600080fd5b5061023e61067836600461368a565b612100565b34801561068957600080fd5b5061029e61069836600461387c565b61221a565b3480156106a957600080fd5b5061029e6106b83660046134e0565b6122e9565b3480156106c957600080fd5b5061039f6106d836600461343a565b60696020526000908152604090205460ff1681565b6000807f000000000000000000000000000000000000000000000000000000000000000073ffffffffffffffffffffffffffffffffffffffff1663cad6b9018585886040518463ffffffff1660e01b815260040161074d939291906138da565b602060405180830381865afa15801561076a573d6000803e3d6000fd5b505050506040513d601f19601f8201168201806040525081019061078e9190613931565b6040517fa9735f940000000000000000000000000000000000000000000000000000000081526004810182905290915060009073ffffffffffffffffffffffffffffffffffffffff7f0000000000000000000000000000000000000000000000000000000000000000169063a9735f9490602401602060405180830381865afa15801561081f573d6000803e3d6000fd5b505050506040513d601f19601f820116820180604052508101906108439190613931565b60008881526067602090815260408083209583529481528482209282529190915291909120549150505b949350505050565b6108aa7f8f4f2da22e8ac8f11e15f9fc141cddbb5deea8800186560abb6e68c5496619a9335b6108a36122fd565b919061232b565b6040517f6352211e000000000000000000000000000000000000000000000000000000008152600481018590527f000000000000000000000000000000000000000000000000000000000000000073ffffffffffffffffffffffffffffffffffffffff1690636352211e90602401602060405180830381865afa158015610935573d6000803e3d6000fd5b505050506040513d601f19601f82011682018060405250810190610959919061394a565b506040517fa9735f94000000000000000000000000000000000000000000000000000000008152600481018590526000907f000000000000000000000000000000000000000000000000000000000000000073ffffffffffffffffffffffffffffffffffffffff169063a9735f9490602401602060405180830381865afa1580156109e8573d6000803e3d6000fd5b505050506040513d601f19601f82011682018060405250810190610a0c9190613931565b9050838114610a56576040517fb196cc7700000000000000000000000000000000000000000000000000000000815260048101869052602481018590526044015b60405180910390fd5b6000868152606760209081526040808320888452825280832087845290915281208054859290610a87908490613996565b909155505060408051868152602081018690529081018490528290879033907f9092bf6bd1cf7db4fcf41aedc7c0333b51c57f5b80b429bc3d9caa5587c6ad82906060015b60405180910390a4505050505050565b33610aef81610ae96123b1565b906123df565b610b05838383610afd6122fd565b92919061244a565b505050565b73ffffffffffffffffffffffffffffffffffffffff7f0000000000000000000000000000000000000000000000000000000000000000163003610bcf576040517f08c379a000000000000000000000000000000000000000000000000000000000815260206004820152602c60248201527f46756e6374696f6e206d7573742062652063616c6c6564207468726f7567682060448201527f64656c656761746563616c6c00000000000000000000000000000000000000006064820152608401610a4d565b7f000000000000000000000000000000000000000000000000000000000000000073ffffffffffffffffffffffffffffffffffffffff16610c447f360894a13ba1a3210667c828492db98dca3e2076cc3735a920a3ca505d382bbc5473ffffffffffffffffffffffffffffffffffffffff1690565b73ffffffffffffffffffffffffffffffffffffffff1614610ce7576040517f08c379a000000000000000000000000000000000000000000000000000000000815260206004820152602c60248201527f46756e6374696f6e206d7573742062652063616c6c6564207468726f7567682060448201527f6163746976652070726f787900000000000000000000000000000000000000006064820152608401610a4d565b610cf081612521565b60408051600080825260208201909252610d0c9183919061252d565b50565b610d397fa49807205ce4d355092ef5a8a18f56e8913cf4a201fbe287825b095693c217753361089b565b80610d70576040517f3fb4608600000000000000000000000000000000000000000000000000000000815260040160405180910390fd5b60005b81811015610e585760696000848484818110610d9157610d916139a9565b602090810292909201358352508101919091526040016000205460ff1615610e0157828282818110610dc557610dc56139a9565b905060200201356040517fb6421242000000000000000000000000000000000000000000000000000000008152600401610a4d91815260200190565b600160696000858585818110610e1957610e196139a9565b90506020020135815260200190815260200160002060006101000a81548160ff0219169083151502179055508080610e50906139d8565b915050610d73565b507f0d8c56a8918ec09c2fe3c4d9fcc00ece66df217a1ab3ad768dd0a71620da5b4e8282604051610e8a929190613a10565b60405180910390a15050565b73ffffffffffffffffffffffffffffffffffffffff7f0000000000000000000000000000000000000000000000000000000000000000163003610f5b576040517f08c379a000000000000000000000000000000000000000000000000000000000815260206004820152602c60248201527f46756e6374696f6e206d7573742062652063616c6c6564207468726f7567682060448201527f64656c656761746563616c6c00000000000000000000000000000000000000006064820152608401610a4d565b7f000000000000000000000000000000000000000000000000000000000000000073ffffffffffffffffffffffffffffffffffffffff16610fd07f360894a13ba1a3210667c828492db98dca3e2076cc3735a920a3ca505d382bbc5473ffffffffffffffffffffffffffffffffffffffff1690565b73ffffffffffffffffffffffffffffffffffffffff1614611073576040517f08c379a000000000000000000000000000000000000000000000000000000000815260206004820152602c60248201527f46756e6374696f6e206d7573742062652063616c6c6564207468726f7567682060448201527f6163746976652070726f787900000000000000000000000000000000000000006064820152608401610a4d565b61107c82612521565b6110888282600161252d565b5050565b60003073ffffffffffffffffffffffffffffffffffffffff7f00000000000000000000000000000000000000000000000000000000000000001614611153576040517f08c379a000000000000000000000000000000000000000000000000000000000815260206004820152603860248201527f555550535570677261646561626c653a206d757374206e6f742062652063616c60448201527f6c6564207468726f7567682064656c656761746563616c6c00000000000000006064820152608401610a4d565b507f360894a13ba1a3210667c828492db98dca3e2076cc3735a920a3ca505d382bbc90565b600054600290610100900460ff1615801561119a575060005460ff8083169116105b611226576040517f08c379a000000000000000000000000000000000000000000000000000000000815260206004820152602e60248201527f496e697469616c697a61626c653a20636f6e747261637420697320616c72656160448201527f647920696e697469616c697a65640000000000000000000000000000000000006064820152608401610a4d565b60008054606a8490557fffffffffffffffffffffffffffffffffffffffffffffffffffffffffffff00001660ff8316908117610100177fffffffffffffffffffffffffffffffffffffffffffffffffffffffffffff00ff169091556040519081527f7f26b83ff96e1f2b6a682f133852f6798a09c465da95921460cefb384740249890602001610e8a565b6000807f000000000000000000000000000000000000000000000000000000000000000073ffffffffffffffffffffffffffffffffffffffff1663cad6b9018585886040518463ffffffff1660e01b8152600401611311939291906138da565b602060405180830381865afa15801561132e573d6000803e3d6000fd5b505050506040513d601f19601f820116820180604052508101906113529190613931565b6040517fa9735f940000000000000000000000000000000000000000000000000000000081526004810182905290915060009073ffffffffffffffffffffffffffffffffffffffff7f0000000000000000000000000000000000000000000000000000000000000000169063a9735f9490602401602060405180830381865afa1580156113e3573d6000803e3d6000fd5b505050506040513d601f19601f820116820180604052508101906114079190613931565b606554600090815260676020908152604080832095835294815284822092825291909152919091205495945050505050565b600054610100900460ff16158080156114595750600054600160ff909116105b806114735750303b158015611473575060005460ff166001145b6114ff576040517f08c379a000000000000000000000000000000000000000000000000000000000815260206004820152602e60248201527f496e697469616c697a61626c653a20636f6e747261637420697320616c72656160448201527f647920696e697469616c697a65640000000000000000000000000000000000006064820152608401610a4d565b600080547fffffffffffffffffffffffffffffffffffffffffffffffffffffffffffffff00166001179055801561155d57600080547fffffffffffffffffffffffffffffffffffffffffffffffffffffffffffff00ff166101001790555b61156561272c565b611577336115716123b1565b906127c5565b8015610d0c57600080547fffffffffffffffffffffffffffffffffffffffffffffffffffffffffffff00ff169055604051600181527f7f26b83ff96e1f2b6a682f133852f6798a09c465da95921460cefb3847402498906020015b60405180910390a150565b6116077fa49807205ce4d355092ef5a8a18f56e8913cf4a201fbe287825b095693c217753361089b565b60008181526066602052604090205460ff1615611653576040517f796c3e9a00000000000000000000000000000000000000000000000000000000815260048101829052602401610a4d565b60658190556000818152606660205260409081902080547fffffffffffffffffffffffffffffffffffffffffffffffffffffffffffffff00166001179055517f61228c895f8ba06548597d3e34a23bc0ecb6d1e62a1eb3fa30be04883a17ef31906115d29083815260200190565b610d0c33826116ce6122fd565b9190612804565b60006116fc6116e26123b1565b5473ffffffffffffffffffffffffffffffffffffffff1690565b905090565b61172b7fa49807205ce4d355092ef5a8a18f56e8913cf4a201fbe287825b095693c217753361089b565b80611762576040517f3fb4608600000000000000000000000000000000000000000000000000000000815260040160405180910390fd5b60005b818110156118595760696000848484818110611783576117836139a9565b602090810292909201358352508101919091526040016000205460ff166117f2578282828181106117b6576117b66139a9565b905060200201356040517fa89513e1000000000000000000000000000000000000000000000000000000008152600401610a4d91815260200190565b60696000848484818110611808576118086139a9565b6020908102929092013583525081019190915260400160002080547fffffffffffffffffffffffffffffffffffffffffffffffffffffffffffffff0016905580611851816139d8565b915050611765565b507f5b2c9fcbb27d48bdbfc59f0564b5ba81539309ebf09a940fad64d171bcfb9ff98282604051610e8a929190613a10565b60006118cf838361189a6122fd565b60009283526020908152604080842073ffffffffffffffffffffffffffffffffffffffff909316845291905290205460ff1690565b90505b92915050565b6040517fcad6b90100000000000000000000000000000000000000000000000000000000815260009073ffffffffffffffffffffffffffffffffffffffff7f0000000000000000000000000000000000000000000000000000000000000000169063cad6b90190611951908b908b908e906004016138da565b602060405180830381865afa15801561196e573d6000803e3d6000fd5b505050506040513d601f19601f820116820180604052508101906119929190613931565b90506119a2818787878787611e2d565b505050505050505050565b6040517fa9735f9400000000000000000000000000000000000000000000000000000000815260048101829052600090819073ffffffffffffffffffffffffffffffffffffffff7f0000000000000000000000000000000000000000000000000000000000000000169063a9735f9490602401602060405180830381865afa158015611a3d573d6000803e3d6000fd5b505050506040513d601f19601f82011682018060405250810190611a619190613931565b606554600090815260676020908152604080832096835295815285822092825291909152929092205492915050565b6040517fcad6b90100000000000000000000000000000000000000000000000000000000815260009073ffffffffffffffffffffffffffffffffffffffff7f0000000000000000000000000000000000000000000000000000000000000000169063cad6b90190611b0990899089908c906004016138da565b602060405180830381865afa158015611b26573d6000803e3d6000fd5b505050506040513d601f19601f82011682018060405250810190611b4a9190613931565b9050611b598882868686610875565b5050505050505050565b6040517fa9735f9400000000000000000000000000000000000000000000000000000000815260048101829052600090819073ffffffffffffffffffffffffffffffffffffffff7f0000000000000000000000000000000000000000000000000000000000000000169063a9735f9490602401602060405180830381865afa158015611bf3573d6000803e3d6000fd5b505050506040513d601f19601f82011682018060405250810190611c179190613931565b600094855260676020908152604080872095875294815284862091865252505090205490565b6040517f6352211e000000000000000000000000000000000000000000000000000000008152600481018490526000907f000000000000000000000000000000000000000000000000000000000000000073ffffffffffffffffffffffffffffffffffffffff1690636352211e90602401602060405180830381865afa158015611ccb573d6000803e3d6000fd5b505050506040513d601f19601f82011682018060405250810190611cef919061394a565b90503373ffffffffffffffffffffffffffffffffffffffff821614611d42576040517f33ffff9b000000000000000000000000000000000000000000000000000000008152336004820152602401610a4d565b6040517fa9735f94000000000000000000000000000000000000000000000000000000008152600481018590526000907f000000000000000000000000000000000000000000000000000000000000000073ffffffffffffffffffffffffffffffffffffffff169063a9735f9490602401602060405180830381865afa158015611dd0573d6000803e3d6000fd5b505050506040513d601f19601f82011682018060405250810190611df49190613931565b9050611e0385828686866128a8565b5050505050565b33611e1781610ae96123b1565b610b05838383611e256122fd565b9291906129ed565b6000868152606860205260408082205490517fa9735f94000000000000000000000000000000000000000000000000000000008152600481018990529091907f000000000000000000000000000000000000000000000000000000000000000073ffffffffffffffffffffffffffffffffffffffff169063a9735f9490602401602060405180830381865afa158015611eca573d6000803e3d6000fd5b505050506040513d601f19601f82011682018060405250810190611eee9190613931565b6065546040805160208082018d9052818301859052606082018c9052608082019390935260a081018a905260c08082018790528251808303909101815260e0820183528051908401207f19457468657265756d205369676e6564204d6573736167653a0a33320000000061010083015261011c8083018290528351808403909101815261013c9092019092528051920191909120919250906000611f9482898989612ab7565b6040517f6352211e000000000000000000000000000000000000000000000000000000008152600481018d905290915060009073ffffffffffffffffffffffffffffffffffffffff7f00000000000000000000000000000000000000000000000000000000000000001690636352211e90602401602060405180830381865afa158015612025573d6000803e3d6000fd5b505050506040513d601f19601f82011682018060405250810190612049919061394a565b90508073ffffffffffffffffffffffffffffffffffffffff168273ffffffffffffffffffffffffffffffffffffffff16146120c8576040517f33ffff9b00000000000000000000000000000000000000000000000000000000815273ffffffffffffffffffffffffffffffffffffffff83166004820152602401610a4d565b6120d58c868d8d856128a8565b6120e0866001613996565b60009c8d5260686020526040909c209b909b555050505050505050505050565b6040517fa9735f9400000000000000000000000000000000000000000000000000000000815260048101849052600090819073ffffffffffffffffffffffffffffffffffffffff7f0000000000000000000000000000000000000000000000000000000000000000169063a9735f9490602401602060405180830381865afa158015612190573d6000803e3d6000fd5b505050506040513d601f19601f820116820180604052508101906121b49190613931565b60008681526068602090815260408083205460655482518085018c9052808401879052606081018b9052608081019190915260a0810189905260c0808201929092528251808203909201825260e0019091528051910120919250905b9695505050505050565b6040517fcad6b90100000000000000000000000000000000000000000000000000000000815260009073ffffffffffffffffffffffffffffffffffffffff7f0000000000000000000000000000000000000000000000000000000000000000169063cad6b9019061229390889088908b906004016138da565b602060405180830381865afa1580156122b0573d6000803e3d6000fd5b505050506040513d601f19601f820116820180604052508101906122d49190613931565b90506122e1818484611c3d565b505050505050565b610d0c33826122f66123b1565b9190612adf565b6000806118d260017fc8827d3282af6f37b64c3e9e6f3ac9df286ab0bb0fccd6f8661bf19adb368b23613a62565b60008281526020848152604080832073ffffffffffffffffffffffffffffffffffffffff8516845290915290205460ff16610b05576040517f7aa728820000000000000000000000000000000000000000000000000000000081526004810183905273ffffffffffffffffffffffffffffffffffffffff82166024820152604401610a4d565b6000806118d260017fc9ed16f33ab3a66c84bfd83099ccb2a8845871e2e1c1928f63797152f0fd54cd613a62565b815473ffffffffffffffffffffffffffffffffffffffff828116911614611088576040517f2ef4875e00000000000000000000000000000000000000000000000000000000815273ffffffffffffffffffffffffffffffffffffffff82166004820152602401610a4d565b60008381526020858152604080832073ffffffffffffffffffffffffffffffffffffffff8616845290915290205460ff1661251b5760008381526020858152604080832073ffffffffffffffffffffffffffffffffffffffff8681168086529184529382902080547fffffffffffffffffffffffffffffffffffffffffffffffffffffffffffffff00166001179055815187815292830152918316918101919091527f2f8788117e7eff1d82e926ec794901d17c78024a50270940304540a733656f0d906060015b60405180910390a15b50505050565b610d0c33610ae96123b1565b7f4910fdfa16fed3260ed0e7147f7cc6da11a60208b5b9406d12a635614ffd91435460ff161561256057610b0583612bf3565b8273ffffffffffffffffffffffffffffffffffffffff166352d1902d6040518163ffffffff1660e01b8152600401602060405180830381865afa9250505080156125e5575060408051601f3d9081017fffffffffffffffffffffffffffffffffffffffffffffffffffffffffffffffe01682019092526125e291810190613931565b60015b612671576040517f08c379a000000000000000000000000000000000000000000000000000000000815260206004820152602e60248201527f45524331393637557067726164653a206e657720696d706c656d656e7461746960448201527f6f6e206973206e6f7420555550530000000000000000000000000000000000006064820152608401610a4d565b7f360894a13ba1a3210667c828492db98dca3e2076cc3735a920a3ca505d382bbc8114612720576040517f08c379a000000000000000000000000000000000000000000000000000000000815260206004820152602960248201527f45524331393637557067726164653a20756e737570706f727465642070726f7860448201527f6961626c655555494400000000000000000000000000000000000000000000006064820152608401610a4d565b50610b05838383612cfd565b600054610100900460ff166127c3576040517f08c379a000000000000000000000000000000000000000000000000000000000815260206004820152602b60248201527f496e697469616c697a61626c653a20636f6e7472616374206973206e6f74206960448201527f6e697469616c697a696e670000000000000000000000000000000000000000006064820152608401610a4d565b565b6127fa6127f360017f5b388d90dc1312ba799f321972f13311234fa1163bcabec7cf66101c4876eb84613a62565b6001612d22565b6110888282612d6e565b61280f83828461232b565b60008181526020848152604080832073ffffffffffffffffffffffffffffffffffffffff86168085529083529281902080547fffffffffffffffffffffffffffffffffffffffffffffffffffffffffffffff0016905580518481529182018390528101919091527ff6391f5c32d9c69d2a47ea670b442974b53935d1edc7fd64eb21e047a839171b9060600160405180910390a1505050565b6065546000908152606760209081526040808320888452825280832087845290915290205483811015612911576040517fcf4791810000000000000000000000000000000000000000000000000000000081526004810187905260248101859052604401610a4d565b60008381526069602052604090205460ff1661295c576040517fa89513e100000000000000000000000000000000000000000000000000000000815260048101849052602401610a4d565b6129668482613a62565b6065805460009081526067602090815260408083208b845282528083208a8452825291829020939093559054815133815292830188905290820186905273ffffffffffffffffffffffffffffffffffffffff84166060830152849188907fe514533875fbd3f8f396088d636e746599d8b5c3ba77e9ccfa9fc01ff706460190608001610acc565b60008381526020858152604080832073ffffffffffffffffffffffffffffffffffffffff8616845290915290205460ff161561251b5760008381526020858152604080832073ffffffffffffffffffffffffffffffffffffffff8681168086529184529382902080547fffffffffffffffffffffffffffffffffffffffffffffffffffffffffffffff00169055815187815292830152918316918101919091527ff6391f5c32d9c69d2a47ea670b442974b53935d1edc7fd64eb21e047a839171b90606001612512565b6000806000612ac887878787612e2b565b91509150612ad581612f1a565b5095945050505050565b825473ffffffffffffffffffffffffffffffffffffffff9081169083168114612b4c576040517f2ef4875e00000000000000000000000000000000000000000000000000000000815273ffffffffffffffffffffffffffffffffffffffff84166004820152602401610a4d565b8173ffffffffffffffffffffffffffffffffffffffff168173ffffffffffffffffffffffffffffffffffffffff161461251b5783547fffffffffffffffffffffffff00000000000000000000000000000000000000001673ffffffffffffffffffffffffffffffffffffffff8381169182178655604051908316907f8be0079c531659141344cd1fd0a4f28419497f9722a3daafe3b4186f6b6457e090600090a350505050565b73ffffffffffffffffffffffffffffffffffffffff81163b612c97576040517f08c379a000000000000000000000000000000000000000000000000000000000815260206004820152602d60248201527f455243313936373a206e657720696d706c656d656e746174696f6e206973206e60448201527f6f74206120636f6e7472616374000000000000000000000000000000000000006064820152608401610a4d565b7f360894a13ba1a3210667c828492db98dca3e2076cc3735a920a3ca505d382bbc80547fffffffffffffffffffffffff00000000000000000000000000000000000000001673ffffffffffffffffffffffffffffffffffffffff92909216919091179055565b612d06836130cd565b600082511180612d135750805b15610b055761251b838361311a565b81548290828110612d69576040517fbf0c18ec0000000000000000000000000000000000000000000000000000000081526004810182905260248101849052604401610a4d565b505550565b73ffffffffffffffffffffffffffffffffffffffff811615612df65781547fffffffffffffffffffffffff00000000000000000000000000000000000000001673ffffffffffffffffffffffffffffffffffffffff821690811783556040516000907f8be0079c531659141344cd1fd0a4f28419497f9722a3daafe3b4186f6b6457e0908290a35b6110887f7f5828d0000000000000000000000000000000000000000000000000000000006001612e2461313f565b919061316d565b6000807f7fffffffffffffffffffffffffffffff5d576e7357a4501ddfe92f46681b20a0831115612e625750600090506003612f11565b6040805160008082526020820180845289905260ff881692820192909252606081018690526080810185905260019060a0016020604051602081039080840390855afa158015612eb6573d6000803e3d6000fd5b50506040517fffffffffffffffffffffffffffffffffffffffffffffffffffffffffffffffe0015191505073ffffffffffffffffffffffffffffffffffffffff8116612f0a57600060019250925050612f11565b9150600090505b94509492505050565b6000816004811115612f2e57612f2e613a75565b03612f365750565b6001816004811115612f4a57612f4a613a75565b03612fb1576040517f08c379a000000000000000000000000000000000000000000000000000000000815260206004820152601860248201527f45434453413a20696e76616c6964207369676e617475726500000000000000006044820152606401610a4d565b6002816004811115612fc557612fc5613a75565b0361302c576040517f08c379a000000000000000000000000000000000000000000000000000000000815260206004820152601f60248201527f45434453413a20696e76616c6964207369676e6174757265206c656e677468006044820152606401610a4d565b600381600481111561304057613040613a75565b03610d0c576040517f08c379a000000000000000000000000000000000000000000000000000000000815260206004820152602260248201527f45434453413a20696e76616c6964207369676e6174757265202773272076616c60448201527f75650000000000000000000000000000000000000000000000000000000000006064820152608401610a4d565b6130d681612bf3565b60405173ffffffffffffffffffffffffffffffffffffffff8216907fbc7cd75a20ee27fd9adebab32041f755214dbc6bffa90cc0225b39da2e5c2d3b90600090a250565b60606118cf8383604051806060016040528060278152602001613b3660279139613249565b6000806118d260017fca9d3e17f264b0f3984e2634e94adb37fa3e6a8103f06aeae6fa59e21c769f5e613a62565b7c01000000000000000000000000000000000000000000000000000000007fffffffff000000000000000000000000000000000000000000000000000000008316016131e5576040517f72c683bb00000000000000000000000000000000000000000000000000000000815260040160405180910390fd5b7fffffffff00000000000000000000000000000000000000000000000000000000919091166000908152602092909252604090912080547fffffffffffffffffffffffffffffffffffffffffffffffffffffffffffffff0016911515919091179055565b60606000808573ffffffffffffffffffffffffffffffffffffffff16856040516132739190613ac8565b600060405180830381855af49150503d80600081146132ae576040519150601f19603f3d011682016040523d82523d6000602084013e6132b3565b606091505b5091509150612210868383876060831561335557825160000361334e5773ffffffffffffffffffffffffffffffffffffffff85163b61334e576040517f08c379a000000000000000000000000000000000000000000000000000000000815260206004820152601d60248201527f416464726573733a2063616c6c20746f206e6f6e2d636f6e74726163740000006044820152606401610a4d565b508161086d565b61086d838381511561336a5781518083602001fd5b806040517f08c379a0000000000000000000000000000000000000000000000000000000008152600401610a4d9190613ae4565b60008083601f8401126133b057600080fd5b50813567ffffffffffffffff8111156133c857600080fd5b6020830191508360208285010111156133e057600080fd5b9250929050565b600080600080606085870312156133fd57600080fd5b8435935060208501359250604085013567ffffffffffffffff81111561342257600080fd5b61342e8782880161339e565b95989497509550505050565b60006020828403121561344c57600080fd5b5035919050565b600080600080600060a0868803121561346b57600080fd5b505083359560208501359550604085013594606081013594506080013592509050565b73ffffffffffffffffffffffffffffffffffffffff81168114610d0c57600080fd5b600080604083850312156134c357600080fd5b8235915060208301356134d58161348e565b809150509250929050565b6000602082840312156134f257600080fd5b81356134fd8161348e565b9392505050565b6000806020838503121561351757600080fd5b823567ffffffffffffffff8082111561352f57600080fd5b818501915085601f83011261354357600080fd5b81358181111561355257600080fd5b8660208260051b850101111561356757600080fd5b60209290920196919550909350505050565b7f4e487b7100000000000000000000000000000000000000000000000000000000600052604160045260246000fd5b600080604083850312156135bb57600080fd5b82356135c68161348e565b9150602083013567ffffffffffffffff808211156135e357600080fd5b818501915085601f8301126135f757600080fd5b81358181111561360957613609613579565b604051601f82017fffffffffffffffffffffffffffffffffffffffffffffffffffffffffffffffe0908116603f0116810190838211818310171561364f5761364f613579565b8160405282815288602084870101111561366857600080fd5b8260208601602083013760006020848301015280955050505050509250929050565b60008060006060848603121561369f57600080fd5b505081359360208301359350604090920135919050565b6000806000604084860312156136cb57600080fd5b83359250602084013567ffffffffffffffff8111156136e957600080fd5b6136f58682870161339e565b9497909650939450505050565b803560ff8116811461371357600080fd5b919050565b60008060008060008060008060e0898b03121561373457600080fd5b88359750602089013567ffffffffffffffff81111561375257600080fd5b61375e8b828c0161339e565b909850965050604089013594506060890135935061377e60808a01613702565b925060a0890135915060c089013590509295985092959890939650565b600080600080600080600060c0888a0312156137b657600080fd5b8735965060208801359550604088013567ffffffffffffffff8111156137db57600080fd5b6137e78a828b0161339e565b989b979a50986060810135976080820135975060a09091013595509350505050565b6000806040838503121561381c57600080fd5b50508035926020909101359150565b60008060008060008060c0878903121561384457600080fd5b86359550602087013594506040870135935061386260608801613702565b92506080870135915060a087013590509295509295509295565b60008060008060006080868803121561389457600080fd5b85359450602086013567ffffffffffffffff8111156138b257600080fd5b6138be8882890161339e565b9699909850959660408101359660609091013595509350505050565b6040815282604082015282846060830137600060608483010152600060607fffffffffffffffffffffffffffffffffffffffffffffffffffffffffffffffe0601f8601168301019050826020830152949350505050565b60006020828403121561394357600080fd5b5051919050565b60006020828403121561395c57600080fd5b81516134fd8161348e565b7f4e487b7100000000000000000000000000000000000000000000000000000000600052601160045260246000fd5b808201808211156118d2576118d2613967565b7f4e487b7100000000000000000000000000000000000000000000000000000000600052603260045260246000fd5b60007fffffffffffffffffffffffffffffffffffffffffffffffffffffffffffffffff8203613a0957613a09613967565b5060010190565b6020815281602082015260007f07ffffffffffffffffffffffffffffffffffffffffffffffffffffffffffffff831115613a4957600080fd5b8260051b80856040850137919091016040019392505050565b818103818111156118d2576118d2613967565b7f4e487b7100000000000000000000000000000000000000000000000000000000600052602160045260246000fd5b60005b83811015613abf578181015183820152602001613aa7565b50506000910152565b60008251613ada818460208701613aa4565b9190910192915050565b6020815260008251806020840152613b03816040850160208701613aa4565b601f017fffffffffffffffffffffffffffffffffffffffffffffffffffffffffffffffe016919091016040019291505056fe416464726573733a206c6f772d6c6576656c2064656c65676174652063616c6c206661696c6564a2646970667358221220519b4c5f7341050edbaf546e83a90131cf4f61f4e9d8763836b7c817c005860964736f6c63430008150033","opcodes":"PUSH1 0xC0 PUSH1 0x40 MSTORE ADDRESS PUSH1 0x80 MSTORE CALLVALUE DUP1 ISZERO PUSH3 0x15 JUMPI PUSH1 0x0 DUP1 REVERT JUMPDEST POP PUSH1 0x40 MLOAD PUSH3 0x3CF9 CODESIZE SUB DUP1 PUSH3 0x3CF9 DUP4 CODECOPY DUP2 ADD PUSH1 0x40 DUP2 SWAP1 MSTORE PUSH3 0x38 SWAP2 PUSH3 0x83 JUMP JUMPDEST DUP1 PUSH1 0x1 PUSH1 0x1 PUSH1 0xA0 SHL SUB DUP2 AND PUSH3 0x70 JUMPI PUSH1 0x40 MLOAD PUSH4 0x82DD9BA3 PUSH1 0xE0 SHL DUP2 MSTORE PUSH1 0x1 PUSH1 0x1 PUSH1 0xA0 SHL SUB DUP3 AND PUSH1 0x4 DUP3 ADD MSTORE PUSH1 0x24 ADD PUSH1 0x40 MLOAD DUP1 SWAP2 SUB SWAP1 REVERT JUMPDEST PUSH1 0x1 PUSH1 0x1 PUSH1 0xA0 SHL SUB AND PUSH1 0xA0 MSTORE POP PUSH3 0xB5 JUMP JUMPDEST PUSH1 0x0 PUSH1 0x20 DUP3 DUP5 SUB SLT ISZERO PUSH3 0x96 JUMPI PUSH1 0x0 DUP1 REVERT JUMPDEST DUP2 MLOAD PUSH1 0x1 PUSH1 0x1 PUSH1 0xA0 SHL SUB DUP2 AND DUP2 EQ PUSH3 0xAE JUMPI PUSH1 0x0 DUP1 REVERT JUMPDEST SWAP4 SWAP3 POP POP POP JUMP JUMPDEST PUSH1 0x80 MLOAD PUSH1 0xA0 MLOAD PUSH2 0x3B92 PUSH3 0x167 PUSH1 0x0 CODECOPY PUSH1 0x0 DUP2 DUP2 PUSH2 0x2B2 ADD MSTORE DUP2 DUP2 PUSH2 0x6F2 ADD MSTORE DUP2 DUP2 PUSH2 0x7D8 ADD MSTORE DUP2 DUP2 PUSH2 0x8D9 ADD MSTORE DUP2 DUP2 PUSH2 0x98C ADD MSTORE DUP2 DUP2 PUSH2 0x12B6 ADD MSTORE DUP2 DUP2 PUSH2 0x139C ADD MSTORE DUP2 DUP2 PUSH2 0x1918 ADD MSTORE DUP2 DUP2 PUSH2 0x19F6 ADD MSTORE DUP2 DUP2 PUSH2 0x1AD0 ADD MSTORE DUP2 DUP2 PUSH2 0x1BAC ADD MSTORE DUP2 DUP2 PUSH2 0x1C6F ADD MSTORE DUP2 DUP2 PUSH2 0x1D74 ADD MSTORE DUP2 DUP2 PUSH2 0x1E6E ADD MSTORE DUP2 DUP2 PUSH2 0x1FDE ADD MSTORE DUP2 DUP2 PUSH2 0x2149 ADD MSTORE PUSH2 0x225A ADD MSTORE PUSH1 0x0 DUP2 DUP2 PUSH2 0xB21 ADD MSTORE DUP2 DUP2 PUSH2 0xBD1 ADD MSTORE DUP2 DUP2 PUSH2 0xEAD ADD MSTORE DUP2 DUP2 PUSH2 0xF5D ADD MSTORE PUSH2 0x10A6 ADD MSTORE PUSH2 0x3B92 PUSH1 0x0 RETURN INVALID PUSH1 0x80 PUSH1 0x40 MSTORE PUSH1 0x4 CALLDATASIZE LT PUSH2 0x219 JUMPI PUSH1 0x0 CALLDATALOAD PUSH1 0xE0 SHR DUP1 PUSH4 0x8BB9C5BF GT PUSH2 0x11D JUMPI DUP1 PUSH4 0xAD3B1D48 GT PUSH2 0xB0 JUMPI DUP1 PUSH4 0xDC893CE4 GT PUSH2 0x7F JUMPI DUP1 PUSH4 0xE564A0E2 GT PUSH2 0x64 JUMPI DUP1 PUSH4 0xE564A0E2 EQ PUSH2 0x67D JUMPI DUP1 PUSH4 0xF2FDE38B EQ PUSH2 0x69D JUMPI DUP1 PUSH4 0xF9515962 EQ PUSH2 0x6BD JUMPI PUSH1 0x0 DUP1 REVERT JUMPDEST DUP1 PUSH4 0xDC893CE4 EQ PUSH2 0x63D JUMPI DUP1 PUSH4 0xDF00BB24 EQ PUSH2 0x65D JUMPI PUSH1 0x0 DUP1 REVERT JUMPDEST DUP1 PUSH4 0xAD3B1D48 EQ PUSH2 0x5C7 JUMPI DUP1 PUSH4 0xBCB39621 EQ PUSH2 0x5E7 JUMPI DUP1 PUSH4 0xD14A5C71 EQ PUSH2 0x5FD JUMPI DUP1 PUSH4 0xD547741F EQ PUSH2 0x61D JUMPI PUSH1 0x0 DUP1 REVERT JUMPDEST DUP1 PUSH4 0x99D342AC GT PUSH2 0xEC JUMPI DUP1 PUSH4 0x99D342AC EQ PUSH2 0x533 JUMPI DUP1 PUSH4 0x9CC7F708 EQ PUSH2 0x553 JUMPI DUP1 PUSH4 0x9D70B005 EQ PUSH2 0x573 JUMPI DUP1 PUSH4 0xA3B0B5A3 EQ PUSH2 0x593 JUMPI PUSH1 0x0 DUP1 REVERT JUMPDEST DUP1 PUSH4 0x8BB9C5BF EQ PUSH2 0x4BE JUMPI DUP1 PUSH4 0x8DA5CB5B EQ PUSH2 0x4DE JUMPI DUP1 PUSH4 0x906405A3 EQ PUSH2 0x4F3 JUMPI DUP1 PUSH4 0x91D14854 EQ PUSH2 0x513 JUMPI PUSH1 0x0 DUP1 REVERT JUMPDEST DUP1 PUSH4 0x4529CC1B GT PUSH2 0x1B0 JUMPI DUP1 PUSH4 0x5B4E128C GT PUSH2 0x17F JUMPI DUP1 PUSH4 0x794459BE GT PUSH2 0x164 JUMPI DUP1 PUSH4 0x794459BE EQ PUSH2 0x469 JUMPI DUP1 PUSH4 0x8129FC1C EQ PUSH2 0x489 JUMPI DUP1 PUSH4 0x86A8E98A EQ PUSH2 0x49E JUMPI PUSH1 0x0 DUP1 REVERT JUMPDEST DUP1 PUSH4 0x5B4E128C EQ PUSH2 0x415 JUMPI DUP1 PUSH4 0x75B238FC EQ PUSH2 0x435 JUMPI PUSH1 0x0 DUP1 REVERT JUMPDEST DUP1 PUSH4 0x4529CC1B EQ PUSH2 0x36F JUMPI DUP1 PUSH4 0x4F1EF286 EQ PUSH2 0x3AF JUMPI DUP1 PUSH4 0x51955DFC EQ PUSH2 0x3C2 JUMPI DUP1 PUSH4 0x52D1902D EQ PUSH2 0x400 JUMPI PUSH1 0x0 DUP1 REVERT JUMPDEST DUP1 PUSH4 0x2F2FF15D GT PUSH2 0x1EC JUMPI DUP1 PUSH4 0x2F2FF15D EQ PUSH2 0x2F9 JUMPI DUP1 PUSH4 0x3659CFE6 EQ PUSH2 0x319 JUMPI DUP1 PUSH4 0x3C6BB436 EQ PUSH2 0x339 JUMPI DUP1 PUSH4 0x3F30B00F EQ PUSH2 0x34F JUMPI PUSH1 0x0 DUP1 REVERT JUMPDEST DUP1 PUSH4 0x98B6419 EQ PUSH2 0x21E JUMPI DUP1 PUSH4 0x141A468C EQ PUSH2 0x251 JUMPI DUP1 PUSH4 0x18EE89F0 EQ PUSH2 0x27E JUMPI DUP1 PUSH4 0x2681A28A EQ PUSH2 0x2A0 JUMPI JUMPDEST PUSH1 0x0 DUP1 REVERT JUMPDEST CALLVALUE DUP1 ISZERO PUSH2 0x22A JUMPI PUSH1 0x0 DUP1 REVERT JUMPDEST POP PUSH2 0x23E PUSH2 0x239 CALLDATASIZE PUSH1 0x4 PUSH2 0x33E7 JUMP JUMPDEST PUSH2 0x6ED JUMP JUMPDEST PUSH1 0x40 MLOAD SWAP1 DUP2 MSTORE PUSH1 0x20 ADD JUMPDEST PUSH1 0x40 MLOAD DUP1 SWAP2 SUB SWAP1 RETURN JUMPDEST CALLVALUE DUP1 ISZERO PUSH2 0x25D JUMPI PUSH1 0x0 DUP1 REVERT JUMPDEST POP PUSH2 0x23E PUSH2 0x26C CALLDATASIZE PUSH1 0x4 PUSH2 0x343A JUMP JUMPDEST PUSH1 0x68 PUSH1 0x20 MSTORE PUSH1 0x0 SWAP1 DUP2 MSTORE PUSH1 0x40 SWAP1 KECCAK256 SLOAD DUP2 JUMP JUMPDEST CALLVALUE DUP1 ISZERO PUSH2 0x28A JUMPI PUSH1 0x0 DUP1 REVERT JUMPDEST POP PUSH2 0x29E PUSH2 0x299 CALLDATASIZE PUSH1 0x4 PUSH2 0x3453 JUMP JUMPDEST PUSH2 0x875 JUMP JUMPDEST STOP JUMPDEST CALLVALUE DUP1 ISZERO PUSH2 0x2AC JUMPI PUSH1 0x0 DUP1 REVERT JUMPDEST POP PUSH2 0x2D4 PUSH32 0x0 DUP2 JUMP JUMPDEST PUSH1 0x40 MLOAD PUSH20 0xFFFFFFFFFFFFFFFFFFFFFFFFFFFFFFFFFFFFFFFF SWAP1 SWAP2 AND DUP2 MSTORE PUSH1 0x20 ADD PUSH2 0x248 JUMP JUMPDEST CALLVALUE DUP1 ISZERO PUSH2 0x305 JUMPI PUSH1 0x0 DUP1 REVERT JUMPDEST POP PUSH2 0x29E PUSH2 0x314 CALLDATASIZE PUSH1 0x4 PUSH2 0x34B0 JUMP JUMPDEST PUSH2 0xADC JUMP JUMPDEST CALLVALUE DUP1 ISZERO PUSH2 0x325 JUMPI PUSH1 0x0 DUP1 REVERT JUMPDEST POP PUSH2 0x29E PUSH2 0x334 CALLDATASIZE PUSH1 0x4 PUSH2 0x34E0 JUMP JUMPDEST PUSH2 0xB0A JUMP JUMPDEST CALLVALUE DUP1 ISZERO PUSH2 0x345 JUMPI PUSH1 0x0 DUP1 REVERT JUMPDEST POP PUSH2 0x23E PUSH1 0x6A SLOAD DUP2 JUMP JUMPDEST CALLVALUE DUP1 ISZERO PUSH2 0x35B JUMPI PUSH1 0x0 DUP1 REVERT JUMPDEST POP PUSH2 0x29E PUSH2 0x36A CALLDATASIZE PUSH1 0x4 PUSH2 0x3504 JUMP JUMPDEST PUSH2 0xD0F JUMP JUMPDEST CALLVALUE DUP1 ISZERO PUSH2 0x37B JUMPI PUSH1 0x0 DUP1 REVERT JUMPDEST POP PUSH2 0x39F PUSH2 0x38A CALLDATASIZE PUSH1 0x4 PUSH2 0x343A JUMP JUMPDEST PUSH1 0x66 PUSH1 0x20 MSTORE PUSH1 0x0 SWAP1 DUP2 MSTORE PUSH1 0x40 SWAP1 KECCAK256 SLOAD PUSH1 0xFF AND DUP2 JUMP JUMPDEST PUSH1 0x40 MLOAD SWAP1 ISZERO ISZERO DUP2 MSTORE PUSH1 0x20 ADD PUSH2 0x248 JUMP JUMPDEST PUSH2 0x29E PUSH2 0x3BD CALLDATASIZE PUSH1 0x4 PUSH2 0x35A8 JUMP JUMPDEST PUSH2 0xE96 JUMP JUMPDEST CALLVALUE DUP1 ISZERO PUSH2 0x3CE JUMPI PUSH1 0x0 DUP1 REVERT JUMPDEST POP PUSH2 0x23E PUSH2 0x3DD CALLDATASIZE PUSH1 0x4 PUSH2 0x368A JUMP JUMPDEST PUSH1 0x67 PUSH1 0x20 SWAP1 DUP2 MSTORE PUSH1 0x0 SWAP4 DUP5 MSTORE PUSH1 0x40 DUP1 DUP6 KECCAK256 DUP3 MSTORE SWAP3 DUP5 MSTORE DUP3 DUP5 KECCAK256 SWAP1 MSTORE DUP3 MSTORE SWAP1 KECCAK256 SLOAD DUP2 JUMP JUMPDEST CALLVALUE DUP1 ISZERO PUSH2 0x40C JUMPI PUSH1 0x0 DUP1 REVERT JUMPDEST POP PUSH2 0x23E PUSH2 0x108C JUMP JUMPDEST CALLVALUE DUP1 ISZERO PUSH2 0x421 JUMPI PUSH1 0x0 DUP1 REVERT JUMPDEST POP PUSH2 0x29E PUSH2 0x430 CALLDATASIZE PUSH1 0x4 PUSH2 0x343A JUMP JUMPDEST PUSH2 0x1178 JUMP JUMPDEST CALLVALUE DUP1 ISZERO PUSH2 0x441 JUMPI PUSH1 0x0 DUP1 REVERT JUMPDEST POP PUSH2 0x23E PUSH32 0xA49807205CE4D355092EF5A8A18F56E8913CF4A201FBE287825B095693C21775 DUP2 JUMP JUMPDEST CALLVALUE DUP1 ISZERO PUSH2 0x475 JUMPI PUSH1 0x0 DUP1 REVERT JUMPDEST POP PUSH2 0x23E PUSH2 0x484 CALLDATASIZE PUSH1 0x4 PUSH2 0x36B6 JUMP JUMPDEST PUSH2 0x12B1 JUMP JUMPDEST CALLVALUE DUP1 ISZERO PUSH2 0x495 JUMPI PUSH1 0x0 DUP1 REVERT JUMPDEST POP PUSH2 0x29E PUSH2 0x1439 JUMP JUMPDEST CALLVALUE DUP1 ISZERO PUSH2 0x4AA JUMPI PUSH1 0x0 DUP1 REVERT JUMPDEST POP PUSH2 0x29E PUSH2 0x4B9 CALLDATASIZE PUSH1 0x4 PUSH2 0x343A JUMP JUMPDEST PUSH2 0x15DD JUMP JUMPDEST CALLVALUE DUP1 ISZERO PUSH2 0x4CA JUMPI PUSH1 0x0 DUP1 REVERT JUMPDEST POP PUSH2 0x29E PUSH2 0x4D9 CALLDATASIZE PUSH1 0x4 PUSH2 0x343A JUMP JUMPDEST PUSH2 0x16C1 JUMP JUMPDEST CALLVALUE DUP1 ISZERO PUSH2 0x4EA JUMPI PUSH1 0x0 DUP1 REVERT JUMPDEST POP PUSH2 0x2D4 PUSH2 0x16D5 JUMP JUMPDEST CALLVALUE DUP1 ISZERO PUSH2 0x4FF JUMPI PUSH1 0x0 DUP1 REVERT JUMPDEST POP PUSH2 0x29E PUSH2 0x50E CALLDATASIZE PUSH1 0x4 PUSH2 0x3504 JUMP JUMPDEST PUSH2 0x1701 JUMP JUMPDEST CALLVALUE DUP1 ISZERO PUSH2 0x51F JUMPI PUSH1 0x0 DUP1 REVERT JUMPDEST POP PUSH2 0x39F PUSH2 0x52E CALLDATASIZE PUSH1 0x4 PUSH2 0x34B0 JUMP JUMPDEST PUSH2 0x188B JUMP JUMPDEST CALLVALUE DUP1 ISZERO PUSH2 0x53F JUMPI PUSH1 0x0 DUP1 REVERT JUMPDEST POP PUSH2 0x29E PUSH2 0x54E CALLDATASIZE PUSH1 0x4 PUSH2 0x3718 JUMP JUMPDEST PUSH2 0x18D8 JUMP JUMPDEST CALLVALUE DUP1 ISZERO PUSH2 0x55F JUMPI PUSH1 0x0 DUP1 REVERT JUMPDEST POP PUSH2 0x23E PUSH2 0x56E CALLDATASIZE PUSH1 0x4 PUSH2 0x343A JUMP JUMPDEST PUSH2 0x19AD JUMP JUMPDEST CALLVALUE DUP1 ISZERO PUSH2 0x57F JUMPI PUSH1 0x0 DUP1 REVERT JUMPDEST POP PUSH2 0x29E PUSH2 0x58E CALLDATASIZE PUSH1 0x4 PUSH2 0x379B JUMP JUMPDEST PUSH2 0x1A90 JUMP JUMPDEST CALLVALUE DUP1 ISZERO PUSH2 0x59F JUMPI PUSH1 0x0 DUP1 REVERT JUMPDEST POP PUSH2 0x23E PUSH32 0x8F4F2DA22E8AC8F11E15F9FC141CDDBB5DEEA8800186560ABB6E68C5496619A9 DUP2 JUMP JUMPDEST CALLVALUE DUP1 ISZERO PUSH2 0x5D3 JUMPI PUSH1 0x0 DUP1 REVERT JUMPDEST POP PUSH2 0x23E PUSH2 0x5E2 CALLDATASIZE PUSH1 0x4 PUSH2 0x3809 JUMP JUMPDEST PUSH2 0x1B63 JUMP JUMPDEST CALLVALUE DUP1 ISZERO PUSH2 0x5F3 JUMPI PUSH1 0x0 DUP1 REVERT JUMPDEST POP PUSH2 0x23E PUSH1 0x65 SLOAD DUP2 JUMP JUMPDEST CALLVALUE DUP1 ISZERO PUSH2 0x609 JUMPI PUSH1 0x0 DUP1 REVERT JUMPDEST POP PUSH2 0x29E PUSH2 0x618 CALLDATASIZE PUSH1 0x4 PUSH2 0x368A JUMP JUMPDEST PUSH2 0x1C3D JUMP JUMPDEST CALLVALUE DUP1 ISZERO PUSH2 0x629 JUMPI PUSH1 0x0 DUP1 REVERT JUMPDEST POP PUSH2 0x29E PUSH2 0x638 CALLDATASIZE PUSH1 0x4 PUSH2 0x34B0 JUMP JUMPDEST PUSH2 0x1E0A JUMP JUMPDEST CALLVALUE DUP1 ISZERO PUSH2 0x649 JUMPI PUSH1 0x0 DUP1 REVERT JUMPDEST POP PUSH2 0x29E PUSH2 0x658 CALLDATASIZE PUSH1 0x4 PUSH2 0x382B JUMP JUMPDEST PUSH2 0x1E2D JUMP JUMPDEST CALLVALUE DUP1 ISZERO PUSH2 0x669 JUMPI PUSH1 0x0 DUP1 REVERT JUMPDEST POP PUSH2 0x23E PUSH2 0x678 CALLDATASIZE PUSH1 0x4 PUSH2 0x368A JUMP JUMPDEST PUSH2 0x2100 JUMP JUMPDEST CALLVALUE DUP1 ISZERO PUSH2 0x689 JUMPI PUSH1 0x0 DUP1 REVERT JUMPDEST POP PUSH2 0x29E PUSH2 0x698 CALLDATASIZE PUSH1 0x4 PUSH2 0x387C JUMP JUMPDEST PUSH2 0x221A JUMP JUMPDEST CALLVALUE DUP1 ISZERO PUSH2 0x6A9 JUMPI PUSH1 0x0 DUP1 REVERT JUMPDEST POP PUSH2 0x29E PUSH2 0x6B8 CALLDATASIZE PUSH1 0x4 PUSH2 0x34E0 JUMP JUMPDEST PUSH2 0x22E9 JUMP JUMPDEST CALLVALUE DUP1 ISZERO PUSH2 0x6C9 JUMPI PUSH1 0x0 DUP1 REVERT JUMPDEST POP PUSH2 0x39F PUSH2 0x6D8 CALLDATASIZE PUSH1 0x4 PUSH2 0x343A JUMP JUMPDEST PUSH1 0x69 PUSH1 0x20 MSTORE PUSH1 0x0 SWAP1 DUP2 MSTORE PUSH1 0x40 SWAP1 KECCAK256 SLOAD PUSH1 0xFF AND DUP2 JUMP JUMPDEST PUSH1 0x0 DUP1 PUSH32 0x0 PUSH20 0xFFFFFFFFFFFFFFFFFFFFFFFFFFFFFFFFFFFFFFFF AND PUSH4 0xCAD6B901 DUP6 DUP6 DUP9 PUSH1 0x40 MLOAD DUP5 PUSH4 0xFFFFFFFF AND PUSH1 0xE0 SHL DUP2 MSTORE PUSH1 0x4 ADD PUSH2 0x74D SWAP4 SWAP3 SWAP2 SWAP1 PUSH2 0x38DA JUMP JUMPDEST PUSH1 0x20 PUSH1 0x40 MLOAD DUP1 DUP4 SUB DUP2 DUP7 GAS STATICCALL ISZERO DUP1 ISZERO PUSH2 0x76A JUMPI RETURNDATASIZE PUSH1 0x0 DUP1 RETURNDATACOPY RETURNDATASIZE PUSH1 0x0 REVERT JUMPDEST POP POP POP POP PUSH1 0x40 MLOAD RETURNDATASIZE PUSH1 0x1F NOT PUSH1 0x1F DUP3 ADD AND DUP3 ADD DUP1 PUSH1 0x40 MSTORE POP DUP2 ADD SWAP1 PUSH2 0x78E SWAP2 SWAP1 PUSH2 0x3931 JUMP JUMPDEST PUSH1 0x40 MLOAD PUSH32 0xA9735F9400000000000000000000000000000000000000000000000000000000 DUP2 MSTORE PUSH1 0x4 DUP2 ADD DUP3 SWAP1 MSTORE SWAP1 SWAP2 POP PUSH1 0x0 SWAP1 PUSH20 0xFFFFFFFFFFFFFFFFFFFFFFFFFFFFFFFFFFFFFFFF PUSH32 0x0 AND SWAP1 PUSH4 0xA9735F94 SWAP1 PUSH1 0x24 ADD PUSH1 0x20 PUSH1 0x40 MLOAD DUP1 DUP4 SUB DUP2 DUP7 GAS STATICCALL ISZERO DUP1 ISZERO PUSH2 0x81F JUMPI RETURNDATASIZE PUSH1 0x0 DUP1 RETURNDATACOPY RETURNDATASIZE PUSH1 0x0 REVERT JUMPDEST POP POP POP POP PUSH1 0x40 MLOAD RETURNDATASIZE PUSH1 0x1F NOT PUSH1 0x1F DUP3 ADD AND DUP3 ADD DUP1 PUSH1 0x40 MSTORE POP DUP2 ADD SWAP1 PUSH2 0x843 SWAP2 SWAP1 PUSH2 0x3931 JUMP JUMPDEST PUSH1 0x0 DUP9 DUP2 MSTORE PUSH1 0x67 PUSH1 0x20 SWAP1 DUP2 MSTORE PUSH1 0x40 DUP1 DUP4 KECCAK256 SWAP6 DUP4 MSTORE SWAP5 DUP2 MSTORE DUP5 DUP3 KECCAK256 SWAP3 DUP3 MSTORE SWAP2 SWAP1 SWAP2 MSTORE SWAP2 SWAP1 SWAP2 KECCAK256 SLOAD SWAP2 POP POP JUMPDEST SWAP5 SWAP4 POP POP POP POP JUMP JUMPDEST PUSH2 0x8AA PUSH32 0x8F4F2DA22E8AC8F11E15F9FC141CDDBB5DEEA8800186560ABB6E68C5496619A9 CALLER JUMPDEST PUSH2 0x8A3 PUSH2 0x22FD JUMP JUMPDEST SWAP2 SWAP1 PUSH2 0x232B JUMP JUMPDEST PUSH1 0x40 MLOAD PUSH32 0x6352211E00000000000000000000000000000000000000000000000000000000 DUP2 MSTORE PUSH1 0x4 DUP2 ADD DUP6 SWAP1 MSTORE PUSH32 0x0 PUSH20 0xFFFFFFFFFFFFFFFFFFFFFFFFFFFFFFFFFFFFFFFF AND SWAP1 PUSH4 0x6352211E SWAP1 PUSH1 0x24 ADD PUSH1 0x20 PUSH1 0x40 MLOAD DUP1 DUP4 SUB DUP2 DUP7 GAS STATICCALL ISZERO DUP1 ISZERO PUSH2 0x935 JUMPI RETURNDATASIZE PUSH1 0x0 DUP1 RETURNDATACOPY RETURNDATASIZE PUSH1 0x0 REVERT JUMPDEST POP POP POP POP PUSH1 0x40 MLOAD RETURNDATASIZE PUSH1 0x1F NOT PUSH1 0x1F DUP3 ADD AND DUP3 ADD DUP1 PUSH1 0x40 MSTORE POP DUP2 ADD SWAP1 PUSH2 0x959 SWAP2 SWAP1 PUSH2 0x394A JUMP JUMPDEST POP PUSH1 0x40 MLOAD PUSH32 0xA9735F9400000000000000000000000000000000000000000000000000000000 DUP2 MSTORE PUSH1 0x4 DUP2 ADD DUP6 SWAP1 MSTORE PUSH1 0x0 SWAP1 PUSH32 0x0 PUSH20 0xFFFFFFFFFFFFFFFFFFFFFFFFFFFFFFFFFFFFFFFF AND SWAP1 PUSH4 0xA9735F94 SWAP1 PUSH1 0x24 ADD PUSH1 0x20 PUSH1 0x40 MLOAD DUP1 DUP4 SUB DUP2 DUP7 GAS STATICCALL ISZERO DUP1 ISZERO PUSH2 0x9E8 JUMPI RETURNDATASIZE PUSH1 0x0 DUP1 RETURNDATACOPY RETURNDATASIZE PUSH1 0x0 REVERT JUMPDEST POP POP POP POP PUSH1 0x40 MLOAD RETURNDATASIZE PUSH1 0x1F NOT PUSH1 0x1F DUP3 ADD AND DUP3 ADD DUP1 PUSH1 0x40 MSTORE POP DUP2 ADD SWAP1 PUSH2 0xA0C SWAP2 SWAP1 PUSH2 0x3931 JUMP JUMPDEST SWAP1 POP DUP4 DUP2 EQ PUSH2 0xA56 JUMPI PUSH1 0x40 MLOAD PUSH32 0xB196CC7700000000000000000000000000000000000000000000000000000000 DUP2 MSTORE PUSH1 0x4 DUP2 ADD DUP7 SWAP1 MSTORE PUSH1 0x24 DUP2 ADD DUP6 SWAP1 MSTORE PUSH1 0x44 ADD JUMPDEST PUSH1 0x40 MLOAD DUP1 SWAP2 SUB SWAP1 REVERT JUMPDEST PUSH1 0x0 DUP7 DUP2 MSTORE PUSH1 0x67 PUSH1 0x20 SWAP1 DUP2 MSTORE PUSH1 0x40 DUP1 DUP4 KECCAK256 DUP9 DUP5 MSTORE DUP3 MSTORE DUP1 DUP4 KECCAK256 DUP8 DUP5 MSTORE SWAP1 SWAP2 MSTORE DUP2 KECCAK256 DUP1 SLOAD DUP6 SWAP3 SWAP1 PUSH2 0xA87 SWAP1 DUP5 SWAP1 PUSH2 0x3996 JUMP JUMPDEST SWAP1 SWAP2 SSTORE POP POP PUSH1 0x40 DUP1 MLOAD DUP7 DUP2 MSTORE PUSH1 0x20 DUP2 ADD DUP7 SWAP1 MSTORE SWAP1 DUP2 ADD DUP5 SWAP1 MSTORE DUP3 SWAP1 DUP8 SWAP1 CALLER SWAP1 PUSH32 0x9092BF6BD1CF7DB4FCF41AEDC7C0333B51C57F5B80B429BC3D9CAA5587C6AD82 SWAP1 PUSH1 0x60 ADD JUMPDEST PUSH1 0x40 MLOAD DUP1 SWAP2 SUB SWAP1 LOG4 POP POP POP POP POP POP JUMP JUMPDEST CALLER PUSH2 0xAEF DUP2 PUSH2 0xAE9 PUSH2 0x23B1 JUMP JUMPDEST SWAP1 PUSH2 0x23DF JUMP JUMPDEST PUSH2 0xB05 DUP4 DUP4 DUP4 PUSH2 0xAFD PUSH2 0x22FD JUMP JUMPDEST SWAP3 SWAP2 SWAP1 PUSH2 0x244A JUMP JUMPDEST POP POP POP JUMP JUMPDEST PUSH20 0xFFFFFFFFFFFFFFFFFFFFFFFFFFFFFFFFFFFFFFFF PUSH32 0x0 AND ADDRESS SUB PUSH2 0xBCF JUMPI PUSH1 0x40 MLOAD PUSH32 0x8C379A000000000000000000000000000000000000000000000000000000000 DUP2 MSTORE PUSH1 0x20 PUSH1 0x4 DUP3 ADD MSTORE PUSH1 0x2C PUSH1 0x24 DUP3 ADD MSTORE PUSH32 0x46756E6374696F6E206D7573742062652063616C6C6564207468726F75676820 PUSH1 0x44 DUP3 ADD MSTORE PUSH32 0x64656C656761746563616C6C0000000000000000000000000000000000000000 PUSH1 0x64 DUP3 ADD MSTORE PUSH1 0x84 ADD PUSH2 0xA4D JUMP JUMPDEST PUSH32 0x0 PUSH20 0xFFFFFFFFFFFFFFFFFFFFFFFFFFFFFFFFFFFFFFFF AND PUSH2 0xC44 PUSH32 0x360894A13BA1A3210667C828492DB98DCA3E2076CC3735A920A3CA505D382BBC SLOAD PUSH20 0xFFFFFFFFFFFFFFFFFFFFFFFFFFFFFFFFFFFFFFFF AND SWAP1 JUMP JUMPDEST PUSH20 0xFFFFFFFFFFFFFFFFFFFFFFFFFFFFFFFFFFFFFFFF AND EQ PUSH2 0xCE7 JUMPI PUSH1 0x40 MLOAD PUSH32 0x8C379A000000000000000000000000000000000000000000000000000000000 DUP2 MSTORE PUSH1 0x20 PUSH1 0x4 DUP3 ADD MSTORE PUSH1 0x2C PUSH1 0x24 DUP3 ADD MSTORE PUSH32 0x46756E6374696F6E206D7573742062652063616C6C6564207468726F75676820 PUSH1 0x44 DUP3 ADD MSTORE PUSH32 0x6163746976652070726F78790000000000000000000000000000000000000000 PUSH1 0x64 DUP3 ADD MSTORE PUSH1 0x84 ADD PUSH2 0xA4D JUMP JUMPDEST PUSH2 0xCF0 DUP2 PUSH2 0x2521 JUMP JUMPDEST PUSH1 0x40 DUP1 MLOAD PUSH1 0x0 DUP1 DUP3 MSTORE PUSH1 0x20 DUP3 ADD SWAP1 SWAP3 MSTORE PUSH2 0xD0C SWAP2 DUP4 SWAP2 SWAP1 PUSH2 0x252D JUMP JUMPDEST POP JUMP JUMPDEST PUSH2 0xD39 PUSH32 0xA49807205CE4D355092EF5A8A18F56E8913CF4A201FBE287825B095693C21775 CALLER PUSH2 0x89B JUMP JUMPDEST DUP1 PUSH2 0xD70 JUMPI PUSH1 0x40 MLOAD PUSH32 0x3FB4608600000000000000000000000000000000000000000000000000000000 DUP2 MSTORE PUSH1 0x4 ADD PUSH1 0x40 MLOAD DUP1 SWAP2 SUB SWAP1 REVERT JUMPDEST PUSH1 0x0 JUMPDEST DUP2 DUP2 LT ISZERO PUSH2 0xE58 JUMPI PUSH1 0x69 PUSH1 0x0 DUP5 DUP5 DUP5 DUP2 DUP2 LT PUSH2 0xD91 JUMPI PUSH2 0xD91 PUSH2 0x39A9 JUMP JUMPDEST PUSH1 0x20 SWAP1 DUP2 MUL SWAP3 SWAP1 SWAP3 ADD CALLDATALOAD DUP4 MSTORE POP DUP2 ADD SWAP2 SWAP1 SWAP2 MSTORE PUSH1 0x40 ADD PUSH1 0x0 KECCAK256 SLOAD PUSH1 0xFF AND ISZERO PUSH2 0xE01 JUMPI DUP3 DUP3 DUP3 DUP2 DUP2 LT PUSH2 0xDC5 JUMPI PUSH2 0xDC5 PUSH2 0x39A9 JUMP JUMPDEST SWAP1 POP PUSH1 0x20 MUL ADD CALLDATALOAD PUSH1 0x40 MLOAD PUSH32 0xB642124200000000000000000000000000000000000000000000000000000000 DUP2 MSTORE PUSH1 0x4 ADD PUSH2 0xA4D SWAP2 DUP2 MSTORE PUSH1 0x20 ADD SWAP1 JUMP JUMPDEST PUSH1 0x1 PUSH1 0x69 PUSH1 0x0 DUP6 DUP6 DUP6 DUP2 DUP2 LT PUSH2 0xE19 JUMPI PUSH2 0xE19 PUSH2 0x39A9 JUMP JUMPDEST SWAP1 POP PUSH1 0x20 MUL ADD CALLDATALOAD DUP2 MSTORE PUSH1 0x20 ADD SWAP1 DUP2 MSTORE PUSH1 0x20 ADD PUSH1 0x0 KECCAK256 PUSH1 0x0 PUSH2 0x100 EXP DUP2 SLOAD DUP2 PUSH1 0xFF MUL NOT AND SWAP1 DUP4 ISZERO ISZERO MUL OR SWAP1 SSTORE POP DUP1 DUP1 PUSH2 0xE50 SWAP1 PUSH2 0x39D8 JUMP JUMPDEST SWAP2 POP POP PUSH2 0xD73 JUMP JUMPDEST POP PUSH32 0xD8C56A8918EC09C2FE3C4D9FCC00ECE66DF217A1AB3AD768DD0A71620DA5B4E DUP3 DUP3 PUSH1 0x40 MLOAD PUSH2 0xE8A SWAP3 SWAP2 SWAP1 PUSH2 0x3A10 JUMP JUMPDEST PUSH1 0x40 MLOAD DUP1 SWAP2 SUB SWAP1 LOG1 POP POP JUMP JUMPDEST PUSH20 0xFFFFFFFFFFFFFFFFFFFFFFFFFFFFFFFFFFFFFFFF PUSH32 0x0 AND ADDRESS SUB PUSH2 0xF5B JUMPI PUSH1 0x40 MLOAD PUSH32 0x8C379A000000000000000000000000000000000000000000000000000000000 DUP2 MSTORE PUSH1 0x20 PUSH1 0x4 DUP3 ADD MSTORE PUSH1 0x2C PUSH1 0x24 DUP3 ADD MSTORE PUSH32 0x46756E6374696F6E206D7573742062652063616C6C6564207468726F75676820 PUSH1 0x44 DUP3 ADD MSTORE PUSH32 0x64656C656761746563616C6C0000000000000000000000000000000000000000 PUSH1 0x64 DUP3 ADD MSTORE PUSH1 0x84 ADD PUSH2 0xA4D JUMP JUMPDEST PUSH32 0x0 PUSH20 0xFFFFFFFFFFFFFFFFFFFFFFFFFFFFFFFFFFFFFFFF AND PUSH2 0xFD0 PUSH32 0x360894A13BA1A3210667C828492DB98DCA3E2076CC3735A920A3CA505D382BBC SLOAD PUSH20 0xFFFFFFFFFFFFFFFFFFFFFFFFFFFFFFFFFFFFFFFF AND SWAP1 JUMP JUMPDEST PUSH20 0xFFFFFFFFFFFFFFFFFFFFFFFFFFFFFFFFFFFFFFFF AND EQ PUSH2 0x1073 JUMPI PUSH1 0x40 MLOAD PUSH32 0x8C379A000000000000000000000000000000000000000000000000000000000 DUP2 MSTORE PUSH1 0x20 PUSH1 0x4 DUP3 ADD MSTORE PUSH1 0x2C PUSH1 0x24 DUP3 ADD MSTORE PUSH32 0x46756E6374696F6E206D7573742062652063616C6C6564207468726F75676820 PUSH1 0x44 DUP3 ADD MSTORE PUSH32 0x6163746976652070726F78790000000000000000000000000000000000000000 PUSH1 0x64 DUP3 ADD MSTORE PUSH1 0x84 ADD PUSH2 0xA4D JUMP JUMPDEST PUSH2 0x107C DUP3 PUSH2 0x2521 JUMP JUMPDEST PUSH2 0x1088 DUP3 DUP3 PUSH1 0x1 PUSH2 0x252D JUMP JUMPDEST POP POP JUMP JUMPDEST PUSH1 0x0 ADDRESS PUSH20 0xFFFFFFFFFFFFFFFFFFFFFFFFFFFFFFFFFFFFFFFF PUSH32 0x0 AND EQ PUSH2 0x1153 JUMPI PUSH1 0x40 MLOAD PUSH32 0x8C379A000000000000000000000000000000000000000000000000000000000 DUP2 MSTORE PUSH1 0x20 PUSH1 0x4 DUP3 ADD MSTORE PUSH1 0x38 PUSH1 0x24 DUP3 ADD MSTORE PUSH32 0x555550535570677261646561626C653A206D757374206E6F742062652063616C PUSH1 0x44 DUP3 ADD MSTORE PUSH32 0x6C6564207468726F7567682064656C656761746563616C6C0000000000000000 PUSH1 0x64 DUP3 ADD MSTORE PUSH1 0x84 ADD PUSH2 0xA4D JUMP JUMPDEST POP PUSH32 0x360894A13BA1A3210667C828492DB98DCA3E2076CC3735A920A3CA505D382BBC SWAP1 JUMP JUMPDEST PUSH1 0x0 SLOAD PUSH1 0x2 SWAP1 PUSH2 0x100 SWAP1 DIV PUSH1 0xFF AND ISZERO DUP1 ISZERO PUSH2 0x119A JUMPI POP PUSH1 0x0 SLOAD PUSH1 0xFF DUP1 DUP4 AND SWAP2 AND LT JUMPDEST PUSH2 0x1226 JUMPI PUSH1 0x40 MLOAD PUSH32 0x8C379A000000000000000000000000000000000000000000000000000000000 DUP2 MSTORE PUSH1 0x20 PUSH1 0x4 DUP3 ADD MSTORE PUSH1 0x2E PUSH1 0x24 DUP3 ADD MSTORE PUSH32 0x496E697469616C697A61626C653A20636F6E747261637420697320616C726561 PUSH1 0x44 DUP3 ADD MSTORE PUSH32 0x647920696E697469616C697A6564000000000000000000000000000000000000 PUSH1 0x64 DUP3 ADD MSTORE PUSH1 0x84 ADD PUSH2 0xA4D JUMP JUMPDEST PUSH1 0x0 DUP1 SLOAD PUSH1 0x6A DUP5 SWAP1 SSTORE PUSH32 0xFFFFFFFFFFFFFFFFFFFFFFFFFFFFFFFFFFFFFFFFFFFFFFFFFFFFFFFFFFFF0000 AND PUSH1 0xFF DUP4 AND SWAP1 DUP2 OR PUSH2 0x100 OR PUSH32 0xFFFFFFFFFFFFFFFFFFFFFFFFFFFFFFFFFFFFFFFFFFFFFFFFFFFFFFFFFFFF00FF AND SWAP1 SWAP2 SSTORE PUSH1 0x40 MLOAD SWAP1 DUP2 MSTORE PUSH32 0x7F26B83FF96E1F2B6A682F133852F6798A09C465DA95921460CEFB3847402498 SWAP1 PUSH1 0x20 ADD PUSH2 0xE8A JUMP JUMPDEST PUSH1 0x0 DUP1 PUSH32 0x0 PUSH20 0xFFFFFFFFFFFFFFFFFFFFFFFFFFFFFFFFFFFFFFFF AND PUSH4 0xCAD6B901 DUP6 DUP6 DUP9 PUSH1 0x40 MLOAD DUP5 PUSH4 0xFFFFFFFF AND PUSH1 0xE0 SHL DUP2 MSTORE PUSH1 0x4 ADD PUSH2 0x1311 SWAP4 SWAP3 SWAP2 SWAP1 PUSH2 0x38DA JUMP JUMPDEST PUSH1 0x20 PUSH1 0x40 MLOAD DUP1 DUP4 SUB DUP2 DUP7 GAS STATICCALL ISZERO DUP1 ISZERO PUSH2 0x132E JUMPI RETURNDATASIZE PUSH1 0x0 DUP1 RETURNDATACOPY RETURNDATASIZE PUSH1 0x0 REVERT JUMPDEST POP POP POP POP PUSH1 0x40 MLOAD RETURNDATASIZE PUSH1 0x1F NOT PUSH1 0x1F DUP3 ADD AND DUP3 ADD DUP1 PUSH1 0x40 MSTORE POP DUP2 ADD SWAP1 PUSH2 0x1352 SWAP2 SWAP1 PUSH2 0x3931 JUMP JUMPDEST PUSH1 0x40 MLOAD PUSH32 0xA9735F9400000000000000000000000000000000000000000000000000000000 DUP2 MSTORE PUSH1 0x4 DUP2 ADD DUP3 SWAP1 MSTORE SWAP1 SWAP2 POP PUSH1 0x0 SWAP1 PUSH20 0xFFFFFFFFFFFFFFFFFFFFFFFFFFFFFFFFFFFFFFFF PUSH32 0x0 AND SWAP1 PUSH4 0xA9735F94 SWAP1 PUSH1 0x24 ADD PUSH1 0x20 PUSH1 0x40 MLOAD DUP1 DUP4 SUB DUP2 DUP7 GAS STATICCALL ISZERO DUP1 ISZERO PUSH2 0x13E3 JUMPI RETURNDATASIZE PUSH1 0x0 DUP1 RETURNDATACOPY RETURNDATASIZE PUSH1 0x0 REVERT JUMPDEST POP POP POP POP PUSH1 0x40 MLOAD RETURNDATASIZE PUSH1 0x1F NOT PUSH1 0x1F DUP3 ADD AND DUP3 ADD DUP1 PUSH1 0x40 MSTORE POP DUP2 ADD SWAP1 PUSH2 0x1407 SWAP2 SWAP1 PUSH2 0x3931 JUMP JUMPDEST PUSH1 0x65 SLOAD PUSH1 0x0 SWAP1 DUP2 MSTORE PUSH1 0x67 PUSH1 0x20 SWAP1 DUP2 MSTORE PUSH1 0x40 DUP1 DUP4 KECCAK256 SWAP6 DUP4 MSTORE SWAP5 DUP2 MSTORE DUP5 DUP3 KECCAK256 SWAP3 DUP3 MSTORE SWAP2 SWAP1 SWAP2 MSTORE SWAP2 SWAP1 SWAP2 KECCAK256 SLOAD SWAP6 SWAP5 POP POP POP POP POP JUMP JUMPDEST PUSH1 0x0 SLOAD PUSH2 0x100 SWAP1 DIV PUSH1 0xFF AND ISZERO DUP1 DUP1 ISZERO PUSH2 0x1459 JUMPI POP PUSH1 0x0 SLOAD PUSH1 0x1 PUSH1 0xFF SWAP1 SWAP2 AND LT JUMPDEST DUP1 PUSH2 0x1473 JUMPI POP ADDRESS EXTCODESIZE ISZERO DUP1 ISZERO PUSH2 0x1473 JUMPI POP PUSH1 0x0 SLOAD PUSH1 0xFF AND PUSH1 0x1 EQ JUMPDEST PUSH2 0x14FF JUMPI PUSH1 0x40 MLOAD PUSH32 0x8C379A000000000000000000000000000000000000000000000000000000000 DUP2 MSTORE PUSH1 0x20 PUSH1 0x4 DUP3 ADD MSTORE PUSH1 0x2E PUSH1 0x24 DUP3 ADD MSTORE PUSH32 0x496E697469616C697A61626C653A20636F6E747261637420697320616C726561 PUSH1 0x44 DUP3 ADD MSTORE PUSH32 0x647920696E697469616C697A6564000000000000000000000000000000000000 PUSH1 0x64 DUP3 ADD MSTORE PUSH1 0x84 ADD PUSH2 0xA4D JUMP JUMPDEST PUSH1 0x0 DUP1 SLOAD PUSH32 0xFFFFFFFFFFFFFFFFFFFFFFFFFFFFFFFFFFFFFFFFFFFFFFFFFFFFFFFFFFFFFF00 AND PUSH1 0x1 OR SWAP1 SSTORE DUP1 ISZERO PUSH2 0x155D JUMPI PUSH1 0x0 DUP1 SLOAD PUSH32 0xFFFFFFFFFFFFFFFFFFFFFFFFFFFFFFFFFFFFFFFFFFFFFFFFFFFFFFFFFFFF00FF AND PUSH2 0x100 OR SWAP1 SSTORE JUMPDEST PUSH2 0x1565 PUSH2 0x272C JUMP JUMPDEST PUSH2 0x1577 CALLER PUSH2 0x1571 PUSH2 0x23B1 JUMP JUMPDEST SWAP1 PUSH2 0x27C5 JUMP JUMPDEST DUP1 ISZERO PUSH2 0xD0C JUMPI PUSH1 0x0 DUP1 SLOAD PUSH32 0xFFFFFFFFFFFFFFFFFFFFFFFFFFFFFFFFFFFFFFFFFFFFFFFFFFFFFFFFFFFF00FF AND SWAP1 SSTORE PUSH1 0x40 MLOAD PUSH1 0x1 DUP2 MSTORE PUSH32 0x7F26B83FF96E1F2B6A682F133852F6798A09C465DA95921460CEFB3847402498 SWAP1 PUSH1 0x20 ADD JUMPDEST PUSH1 0x40 MLOAD DUP1 SWAP2 SUB SWAP1 LOG1 POP JUMP JUMPDEST PUSH2 0x1607 PUSH32 0xA49807205CE4D355092EF5A8A18F56E8913CF4A201FBE287825B095693C21775 CALLER PUSH2 0x89B JUMP JUMPDEST PUSH1 0x0 DUP2 DUP2 MSTORE PUSH1 0x66 PUSH1 0x20 MSTORE PUSH1 0x40 SWAP1 KECCAK256 SLOAD PUSH1 0xFF AND ISZERO PUSH2 0x1653 JUMPI PUSH1 0x40 MLOAD PUSH32 0x796C3E9A00000000000000000000000000000000000000000000000000000000 DUP2 MSTORE PUSH1 0x4 DUP2 ADD DUP3 SWAP1 MSTORE PUSH1 0x24 ADD PUSH2 0xA4D JUMP JUMPDEST PUSH1 0x65 DUP2 SWAP1 SSTORE PUSH1 0x0 DUP2 DUP2 MSTORE PUSH1 0x66 PUSH1 0x20 MSTORE PUSH1 0x40 SWAP1 DUP2 SWAP1 KECCAK256 DUP1 SLOAD PUSH32 0xFFFFFFFFFFFFFFFFFFFFFFFFFFFFFFFFFFFFFFFFFFFFFFFFFFFFFFFFFFFFFF00 AND PUSH1 0x1 OR SWAP1 SSTORE MLOAD PUSH32 0x61228C895F8BA06548597D3E34A23BC0ECB6D1E62A1EB3FA30BE04883A17EF31 SWAP1 PUSH2 0x15D2 SWAP1 DUP4 DUP2 MSTORE PUSH1 0x20 ADD SWAP1 JUMP JUMPDEST PUSH2 0xD0C CALLER DUP3 PUSH2 0x16CE PUSH2 0x22FD JUMP JUMPDEST SWAP2 SWAP1 PUSH2 0x2804 JUMP JUMPDEST PUSH1 0x0 PUSH2 0x16FC PUSH2 0x16E2 PUSH2 0x23B1 JUMP JUMPDEST SLOAD PUSH20 0xFFFFFFFFFFFFFFFFFFFFFFFFFFFFFFFFFFFFFFFF AND SWAP1 JUMP JUMPDEST SWAP1 POP SWAP1 JUMP JUMPDEST PUSH2 0x172B PUSH32 0xA49807205CE4D355092EF5A8A18F56E8913CF4A201FBE287825B095693C21775 CALLER PUSH2 0x89B JUMP JUMPDEST DUP1 PUSH2 0x1762 JUMPI PUSH1 0x40 MLOAD PUSH32 0x3FB4608600000000000000000000000000000000000000000000000000000000 DUP2 MSTORE PUSH1 0x4 ADD PUSH1 0x40 MLOAD DUP1 SWAP2 SUB SWAP1 REVERT JUMPDEST PUSH1 0x0 JUMPDEST DUP2 DUP2 LT ISZERO PUSH2 0x1859 JUMPI PUSH1 0x69 PUSH1 0x0 DUP5 DUP5 DUP5 DUP2 DUP2 LT PUSH2 0x1783 JUMPI PUSH2 0x1783 PUSH2 0x39A9 JUMP JUMPDEST PUSH1 0x20 SWAP1 DUP2 MUL SWAP3 SWAP1 SWAP3 ADD CALLDATALOAD DUP4 MSTORE POP DUP2 ADD SWAP2 SWAP1 SWAP2 MSTORE PUSH1 0x40 ADD PUSH1 0x0 KECCAK256 SLOAD PUSH1 0xFF AND PUSH2 0x17F2 JUMPI DUP3 DUP3 DUP3 DUP2 DUP2 LT PUSH2 0x17B6 JUMPI PUSH2 0x17B6 PUSH2 0x39A9 JUMP JUMPDEST SWAP1 POP PUSH1 0x20 MUL ADD CALLDATALOAD PUSH1 0x40 MLOAD PUSH32 0xA89513E100000000000000000000000000000000000000000000000000000000 DUP2 MSTORE PUSH1 0x4 ADD PUSH2 0xA4D SWAP2 DUP2 MSTORE PUSH1 0x20 ADD SWAP1 JUMP JUMPDEST PUSH1 0x69 PUSH1 0x0 DUP5 DUP5 DUP5 DUP2 DUP2 LT PUSH2 0x1808 JUMPI PUSH2 0x1808 PUSH2 0x39A9 JUMP JUMPDEST PUSH1 0x20 SWAP1 DUP2 MUL SWAP3 SWAP1 SWAP3 ADD CALLDATALOAD DUP4 MSTORE POP DUP2 ADD SWAP2 SWAP1 SWAP2 MSTORE PUSH1 0x40 ADD PUSH1 0x0 KECCAK256 DUP1 SLOAD PUSH32 0xFFFFFFFFFFFFFFFFFFFFFFFFFFFFFFFFFFFFFFFFFFFFFFFFFFFFFFFFFFFFFF00 AND SWAP1 SSTORE DUP1 PUSH2 0x1851 DUP2 PUSH2 0x39D8 JUMP JUMPDEST SWAP2 POP POP PUSH2 0x1765 JUMP JUMPDEST POP PUSH32 0x5B2C9FCBB27D48BDBFC59F0564B5BA81539309EBF09A940FAD64D171BCFB9FF9 DUP3 DUP3 PUSH1 0x40 MLOAD PUSH2 0xE8A SWAP3 SWAP2 SWAP1 PUSH2 0x3A10 JUMP JUMPDEST PUSH1 0x0 PUSH2 0x18CF DUP4 DUP4 PUSH2 0x189A PUSH2 0x22FD JUMP JUMPDEST PUSH1 0x0 SWAP3 DUP4 MSTORE PUSH1 0x20 SWAP1 DUP2 MSTORE PUSH1 0x40 DUP1 DUP5 KECCAK256 PUSH20 0xFFFFFFFFFFFFFFFFFFFFFFFFFFFFFFFFFFFFFFFF SWAP1 SWAP4 AND DUP5 MSTORE SWAP2 SWAP1 MSTORE SWAP1 KECCAK256 SLOAD PUSH1 0xFF AND SWAP1 JUMP JUMPDEST SWAP1 POP JUMPDEST SWAP3 SWAP2 POP POP JUMP JUMPDEST PUSH1 0x40 MLOAD PUSH32 0xCAD6B90100000000000000000000000000000000000000000000000000000000 DUP2 MSTORE PUSH1 0x0 SWAP1 PUSH20 0xFFFFFFFFFFFFFFFFFFFFFFFFFFFFFFFFFFFFFFFF PUSH32 0x0 AND SWAP1 PUSH4 0xCAD6B901 SWAP1 PUSH2 0x1951 SWAP1 DUP12 SWAP1 DUP12 SWAP1 DUP15 SWAP1 PUSH1 0x4 ADD PUSH2 0x38DA JUMP JUMPDEST PUSH1 0x20 PUSH1 0x40 MLOAD DUP1 DUP4 SUB DUP2 DUP7 GAS STATICCALL ISZERO DUP1 ISZERO PUSH2 0x196E JUMPI RETURNDATASIZE PUSH1 0x0 DUP1 RETURNDATACOPY RETURNDATASIZE PUSH1 0x0 REVERT JUMPDEST POP POP POP POP PUSH1 0x40 MLOAD RETURNDATASIZE PUSH1 0x1F NOT PUSH1 0x1F DUP3 ADD AND DUP3 ADD DUP1 PUSH1 0x40 MSTORE POP DUP2 ADD SWAP1 PUSH2 0x1992 SWAP2 SWAP1 PUSH2 0x3931 JUMP JUMPDEST SWAP1 POP PUSH2 0x19A2 DUP2 DUP8 DUP8 DUP8 DUP8 DUP8 PUSH2 0x1E2D JUMP JUMPDEST POP POP POP POP POP POP POP POP POP JUMP JUMPDEST PUSH1 0x40 MLOAD PUSH32 0xA9735F9400000000000000000000000000000000000000000000000000000000 DUP2 MSTORE PUSH1 0x4 DUP2 ADD DUP3 SWAP1 MSTORE PUSH1 0x0 SWAP1 DUP2 SWAP1 PUSH20 0xFFFFFFFFFFFFFFFFFFFFFFFFFFFFFFFFFFFFFFFF PUSH32 0x0 AND SWAP1 PUSH4 0xA9735F94 SWAP1 PUSH1 0x24 ADD PUSH1 0x20 PUSH1 0x40 MLOAD DUP1 DUP4 SUB DUP2 DUP7 GAS STATICCALL ISZERO DUP1 ISZERO PUSH2 0x1A3D JUMPI RETURNDATASIZE PUSH1 0x0 DUP1 RETURNDATACOPY RETURNDATASIZE PUSH1 0x0 REVERT JUMPDEST POP POP POP POP PUSH1 0x40 MLOAD RETURNDATASIZE PUSH1 0x1F NOT PUSH1 0x1F DUP3 ADD AND DUP3 ADD DUP1 PUSH1 0x40 MSTORE POP DUP2 ADD SWAP1 PUSH2 0x1A61 SWAP2 SWAP1 PUSH2 0x3931 JUMP JUMPDEST PUSH1 0x65 SLOAD PUSH1 0x0 SWAP1 DUP2 MSTORE PUSH1 0x67 PUSH1 0x20 SWAP1 DUP2 MSTORE PUSH1 0x40 DUP1 DUP4 KECCAK256 SWAP7 DUP4 MSTORE SWAP6 DUP2 MSTORE DUP6 DUP3 KECCAK256 SWAP3 DUP3 MSTORE SWAP2 SWAP1 SWAP2 MSTORE SWAP3 SWAP1 SWAP3 KECCAK256 SLOAD SWAP3 SWAP2 POP POP JUMP JUMPDEST PUSH1 0x40 MLOAD PUSH32 0xCAD6B90100000000000000000000000000000000000000000000000000000000 DUP2 MSTORE PUSH1 0x0 SWAP1 PUSH20 0xFFFFFFFFFFFFFFFFFFFFFFFFFFFFFFFFFFFFFFFF PUSH32 0x0 AND SWAP1 PUSH4 0xCAD6B901 SWAP1 PUSH2 0x1B09 SWAP1 DUP10 SWAP1 DUP10 SWAP1 DUP13 SWAP1 PUSH1 0x4 ADD PUSH2 0x38DA JUMP JUMPDEST PUSH1 0x20 PUSH1 0x40 MLOAD DUP1 DUP4 SUB DUP2 DUP7 GAS STATICCALL ISZERO DUP1 ISZERO PUSH2 0x1B26 JUMPI RETURNDATASIZE PUSH1 0x0 DUP1 RETURNDATACOPY RETURNDATASIZE PUSH1 0x0 REVERT JUMPDEST POP POP POP POP PUSH1 0x40 MLOAD RETURNDATASIZE PUSH1 0x1F NOT PUSH1 0x1F DUP3 ADD AND DUP3 ADD DUP1 PUSH1 0x40 MSTORE POP DUP2 ADD SWAP1 PUSH2 0x1B4A SWAP2 SWAP1 PUSH2 0x3931 JUMP JUMPDEST SWAP1 POP PUSH2 0x1B59 DUP9 DUP3 DUP7 DUP7 DUP7 PUSH2 0x875 JUMP JUMPDEST POP POP POP POP POP POP POP POP JUMP JUMPDEST PUSH1 0x40 MLOAD PUSH32 0xA9735F9400000000000000000000000000000000000000000000000000000000 DUP2 MSTORE PUSH1 0x4 DUP2 ADD DUP3 SWAP1 MSTORE PUSH1 0x0 SWAP1 DUP2 SWAP1 PUSH20 0xFFFFFFFFFFFFFFFFFFFFFFFFFFFFFFFFFFFFFFFF PUSH32 0x0 AND SWAP1 PUSH4 0xA9735F94 SWAP1 PUSH1 0x24 ADD PUSH1 0x20 PUSH1 0x40 MLOAD DUP1 DUP4 SUB DUP2 DUP7 GAS STATICCALL ISZERO DUP1 ISZERO PUSH2 0x1BF3 JUMPI RETURNDATASIZE PUSH1 0x0 DUP1 RETURNDATACOPY RETURNDATASIZE PUSH1 0x0 REVERT JUMPDEST POP POP POP POP PUSH1 0x40 MLOAD RETURNDATASIZE PUSH1 0x1F NOT PUSH1 0x1F DUP3 ADD AND DUP3 ADD DUP1 PUSH1 0x40 MSTORE POP DUP2 ADD SWAP1 PUSH2 0x1C17 SWAP2 SWAP1 PUSH2 0x3931 JUMP JUMPDEST PUSH1 0x0 SWAP5 DUP6 MSTORE PUSH1 0x67 PUSH1 0x20 SWAP1 DUP2 MSTORE PUSH1 0x40 DUP1 DUP8 KECCAK256 SWAP6 DUP8 MSTORE SWAP5 DUP2 MSTORE DUP5 DUP7 KECCAK256 SWAP2 DUP7 MSTORE MSTORE POP POP SWAP1 KECCAK256 SLOAD SWAP1 JUMP JUMPDEST PUSH1 0x40 MLOAD PUSH32 0x6352211E00000000000000000000000000000000000000000000000000000000 DUP2 MSTORE PUSH1 0x4 DUP2 ADD DUP5 SWAP1 MSTORE PUSH1 0x0 SWAP1 PUSH32 0x0 PUSH20 0xFFFFFFFFFFFFFFFFFFFFFFFFFFFFFFFFFFFFFFFF AND SWAP1 PUSH4 0x6352211E SWAP1 PUSH1 0x24 ADD PUSH1 0x20 PUSH1 0x40 MLOAD DUP1 DUP4 SUB DUP2 DUP7 GAS STATICCALL ISZERO DUP1 ISZERO PUSH2 0x1CCB JUMPI RETURNDATASIZE PUSH1 0x0 DUP1 RETURNDATACOPY RETURNDATASIZE PUSH1 0x0 REVERT JUMPDEST POP POP POP POP PUSH1 0x40 MLOAD RETURNDATASIZE PUSH1 0x1F NOT PUSH1 0x1F DUP3 ADD AND DUP3 ADD DUP1 PUSH1 0x40 MSTORE POP DUP2 ADD SWAP1 PUSH2 0x1CEF SWAP2 SWAP1 PUSH2 0x394A JUMP JUMPDEST SWAP1 POP CALLER PUSH20 0xFFFFFFFFFFFFFFFFFFFFFFFFFFFFFFFFFFFFFFFF DUP3 AND EQ PUSH2 0x1D42 JUMPI PUSH1 0x40 MLOAD PUSH32 0x33FFFF9B00000000000000000000000000000000000000000000000000000000 DUP2 MSTORE CALLER PUSH1 0x4 DUP3 ADD MSTORE PUSH1 0x24 ADD PUSH2 0xA4D JUMP JUMPDEST PUSH1 0x40 MLOAD PUSH32 0xA9735F9400000000000000000000000000000000000000000000000000000000 DUP2 MSTORE PUSH1 0x4 DUP2 ADD DUP6 SWAP1 MSTORE PUSH1 0x0 SWAP1 PUSH32 0x0 PUSH20 0xFFFFFFFFFFFFFFFFFFFFFFFFFFFFFFFFFFFFFFFF AND SWAP1 PUSH4 0xA9735F94 SWAP1 PUSH1 0x24 ADD PUSH1 0x20 PUSH1 0x40 MLOAD DUP1 DUP4 SUB DUP2 DUP7 GAS STATICCALL ISZERO DUP1 ISZERO PUSH2 0x1DD0 JUMPI RETURNDATASIZE PUSH1 0x0 DUP1 RETURNDATACOPY RETURNDATASIZE PUSH1 0x0 REVERT JUMPDEST POP POP POP POP PUSH1 0x40 MLOAD RETURNDATASIZE PUSH1 0x1F NOT PUSH1 0x1F DUP3 ADD AND DUP3 ADD DUP1 PUSH1 0x40 MSTORE POP DUP2 ADD SWAP1 PUSH2 0x1DF4 SWAP2 SWAP1 PUSH2 0x3931 JUMP JUMPDEST SWAP1 POP PUSH2 0x1E03 DUP6 DUP3 DUP7 DUP7 DUP7 PUSH2 0x28A8 JUMP JUMPDEST POP POP POP POP POP JUMP JUMPDEST CALLER PUSH2 0x1E17 DUP2 PUSH2 0xAE9 PUSH2 0x23B1 JUMP JUMPDEST PUSH2 0xB05 DUP4 DUP4 DUP4 PUSH2 0x1E25 PUSH2 0x22FD JUMP JUMPDEST SWAP3 SWAP2 SWAP1 PUSH2 0x29ED JUMP JUMPDEST PUSH1 0x0 DUP7 DUP2 MSTORE PUSH1 0x68 PUSH1 0x20 MSTORE PUSH1 0x40 DUP1 DUP3 KECCAK256 SLOAD SWAP1 MLOAD PUSH32 0xA9735F9400000000000000000000000000000000000000000000000000000000 DUP2 MSTORE PUSH1 0x4 DUP2 ADD DUP10 SWAP1 MSTORE SWAP1 SWAP2 SWAP1 PUSH32 0x0 PUSH20 0xFFFFFFFFFFFFFFFFFFFFFFFFFFFFFFFFFFFFFFFF AND SWAP1 PUSH4 0xA9735F94 SWAP1 PUSH1 0x24 ADD PUSH1 0x20 PUSH1 0x40 MLOAD DUP1 DUP4 SUB DUP2 DUP7 GAS STATICCALL ISZERO DUP1 ISZERO PUSH2 0x1ECA JUMPI RETURNDATASIZE PUSH1 0x0 DUP1 RETURNDATACOPY RETURNDATASIZE PUSH1 0x0 REVERT JUMPDEST POP POP POP POP PUSH1 0x40 MLOAD RETURNDATASIZE PUSH1 0x1F NOT PUSH1 0x1F DUP3 ADD AND DUP3 ADD DUP1 PUSH1 0x40 MSTORE POP DUP2 ADD SWAP1 PUSH2 0x1EEE SWAP2 SWAP1 PUSH2 0x3931 JUMP JUMPDEST PUSH1 0x65 SLOAD PUSH1 0x40 DUP1 MLOAD PUSH1 0x20 DUP1 DUP3 ADD DUP14 SWAP1 MSTORE DUP2 DUP4 ADD DUP6 SWAP1 MSTORE PUSH1 0x60 DUP3 ADD DUP13 SWAP1 MSTORE PUSH1 0x80 DUP3 ADD SWAP4 SWAP1 SWAP4 MSTORE PUSH1 0xA0 DUP2 ADD DUP11 SWAP1 MSTORE PUSH1 0xC0 DUP1 DUP3 ADD DUP8 SWAP1 MSTORE DUP3 MLOAD DUP1 DUP4 SUB SWAP1 SWAP2 ADD DUP2 MSTORE PUSH1 0xE0 DUP3 ADD DUP4 MSTORE DUP1 MLOAD SWAP1 DUP5 ADD KECCAK256 PUSH32 0x19457468657265756D205369676E6564204D6573736167653A0A333200000000 PUSH2 0x100 DUP4 ADD MSTORE PUSH2 0x11C DUP1 DUP4 ADD DUP3 SWAP1 MSTORE DUP4 MLOAD DUP1 DUP5 SUB SWAP1 SWAP2 ADD DUP2 MSTORE PUSH2 0x13C SWAP1 SWAP3 ADD SWAP1 SWAP3 MSTORE DUP1 MLOAD SWAP3 ADD SWAP2 SWAP1 SWAP2 KECCAK256 SWAP2 SWAP3 POP SWAP1 PUSH1 0x0 PUSH2 0x1F94 DUP3 DUP10 DUP10 DUP10 PUSH2 0x2AB7 JUMP JUMPDEST PUSH1 0x40 MLOAD PUSH32 0x6352211E00000000000000000000000000000000000000000000000000000000 DUP2 MSTORE PUSH1 0x4 DUP2 ADD DUP14 SWAP1 MSTORE SWAP1 SWAP2 POP PUSH1 0x0 SWAP1 PUSH20 0xFFFFFFFFFFFFFFFFFFFFFFFFFFFFFFFFFFFFFFFF PUSH32 0x0 AND SWAP1 PUSH4 0x6352211E SWAP1 PUSH1 0x24 ADD PUSH1 0x20 PUSH1 0x40 MLOAD DUP1 DUP4 SUB DUP2 DUP7 GAS STATICCALL ISZERO DUP1 ISZERO PUSH2 0x2025 JUMPI RETURNDATASIZE PUSH1 0x0 DUP1 RETURNDATACOPY RETURNDATASIZE PUSH1 0x0 REVERT JUMPDEST POP POP POP POP PUSH1 0x40 MLOAD RETURNDATASIZE PUSH1 0x1F NOT PUSH1 0x1F DUP3 ADD AND DUP3 ADD DUP1 PUSH1 0x40 MSTORE POP DUP2 ADD SWAP1 PUSH2 0x2049 SWAP2 SWAP1 PUSH2 0x394A JUMP JUMPDEST SWAP1 POP DUP1 PUSH20 0xFFFFFFFFFFFFFFFFFFFFFFFFFFFFFFFFFFFFFFFF AND DUP3 PUSH20 0xFFFFFFFFFFFFFFFFFFFFFFFFFFFFFFFFFFFFFFFF AND EQ PUSH2 0x20C8 JUMPI PUSH1 0x40 MLOAD PUSH32 0x33FFFF9B00000000000000000000000000000000000000000000000000000000 DUP2 MSTORE PUSH20 0xFFFFFFFFFFFFFFFFFFFFFFFFFFFFFFFFFFFFFFFF DUP4 AND PUSH1 0x4 DUP3 ADD MSTORE PUSH1 0x24 ADD PUSH2 0xA4D JUMP JUMPDEST PUSH2 0x20D5 DUP13 DUP7 DUP14 DUP14 DUP6 PUSH2 0x28A8 JUMP JUMPDEST PUSH2 0x20E0 DUP7 PUSH1 0x1 PUSH2 0x3996 JUMP JUMPDEST PUSH1 0x0 SWAP13 DUP14 MSTORE PUSH1 0x68 PUSH1 0x20 MSTORE PUSH1 0x40 SWAP1 SWAP13 KECCAK256 SWAP12 SWAP1 SWAP12 SSTORE POP POP POP POP POP POP POP POP POP POP POP JUMP JUMPDEST PUSH1 0x40 MLOAD PUSH32 0xA9735F9400000000000000000000000000000000000000000000000000000000 DUP2 MSTORE PUSH1 0x4 DUP2 ADD DUP5 SWAP1 MSTORE PUSH1 0x0 SWAP1 DUP2 SWAP1 PUSH20 0xFFFFFFFFFFFFFFFFFFFFFFFFFFFFFFFFFFFFFFFF PUSH32 0x0 AND SWAP1 PUSH4 0xA9735F94 SWAP1 PUSH1 0x24 ADD PUSH1 0x20 PUSH1 0x40 MLOAD DUP1 DUP4 SUB DUP2 DUP7 GAS STATICCALL ISZERO DUP1 ISZERO PUSH2 0x2190 JUMPI RETURNDATASIZE PUSH1 0x0 DUP1 RETURNDATACOPY RETURNDATASIZE PUSH1 0x0 REVERT JUMPDEST POP POP POP POP PUSH1 0x40 MLOAD RETURNDATASIZE PUSH1 0x1F NOT PUSH1 0x1F DUP3 ADD AND DUP3 ADD DUP1 PUSH1 0x40 MSTORE POP DUP2 ADD SWAP1 PUSH2 0x21B4 SWAP2 SWAP1 PUSH2 0x3931 JUMP JUMPDEST PUSH1 0x0 DUP7 DUP2 MSTORE PUSH1 0x68 PUSH1 0x20 SWAP1 DUP2 MSTORE PUSH1 0x40 DUP1 DUP4 KECCAK256 SLOAD PUSH1 0x65 SLOAD DUP3 MLOAD DUP1 DUP6 ADD DUP13 SWAP1 MSTORE DUP1 DUP5 ADD DUP8 SWAP1 MSTORE PUSH1 0x60 DUP2 ADD DUP12 SWAP1 MSTORE PUSH1 0x80 DUP2 ADD SWAP2 SWAP1 SWAP2 MSTORE PUSH1 0xA0 DUP2 ADD DUP10 SWAP1 MSTORE PUSH1 0xC0 DUP1 DUP3 ADD SWAP3 SWAP1 SWAP3 MSTORE DUP3 MLOAD DUP1 DUP3 SUB SWAP1 SWAP3 ADD DUP3 MSTORE PUSH1 0xE0 ADD SWAP1 SWAP2 MSTORE DUP1 MLOAD SWAP2 ADD KECCAK256 SWAP2 SWAP3 POP SWAP1 JUMPDEST SWAP7 SWAP6 POP POP POP POP POP POP JUMP JUMPDEST PUSH1 0x40 MLOAD PUSH32 0xCAD6B90100000000000000000000000000000000000000000000000000000000 DUP2 MSTORE PUSH1 0x0 SWAP1 PUSH20 0xFFFFFFFFFFFFFFFFFFFFFFFFFFFFFFFFFFFFFFFF PUSH32 0x0 AND SWAP1 PUSH4 0xCAD6B901 SWAP1 PUSH2 0x2293 SWAP1 DUP9 SWAP1 DUP9 SWAP1 DUP12 SWAP1 PUSH1 0x4 ADD PUSH2 0x38DA JUMP JUMPDEST PUSH1 0x20 PUSH1 0x40 MLOAD DUP1 DUP4 SUB DUP2 DUP7 GAS STATICCALL ISZERO DUP1 ISZERO PUSH2 0x22B0 JUMPI RETURNDATASIZE PUSH1 0x0 DUP1 RETURNDATACOPY RETURNDATASIZE PUSH1 0x0 REVERT JUMPDEST POP POP POP POP PUSH1 0x40 MLOAD RETURNDATASIZE PUSH1 0x1F NOT PUSH1 0x1F DUP3 ADD AND DUP3 ADD DUP1 PUSH1 0x40 MSTORE POP DUP2 ADD SWAP1 PUSH2 0x22D4 SWAP2 SWAP1 PUSH2 0x3931 JUMP JUMPDEST SWAP1 POP PUSH2 0x22E1 DUP2 DUP5 DUP5 PUSH2 0x1C3D JUMP JUMPDEST POP POP POP POP POP POP JUMP JUMPDEST PUSH2 0xD0C CALLER DUP3 PUSH2 0x22F6 PUSH2 0x23B1 JUMP JUMPDEST SWAP2 SWAP1 PUSH2 0x2ADF JUMP JUMPDEST PUSH1 0x0 DUP1 PUSH2 0x18D2 PUSH1 0x1 PUSH32 0xC8827D3282AF6F37B64C3E9E6F3AC9DF286AB0BB0FCCD6F8661BF19ADB368B23 PUSH2 0x3A62 JUMP JUMPDEST PUSH1 0x0 DUP3 DUP2 MSTORE PUSH1 0x20 DUP5 DUP2 MSTORE PUSH1 0x40 DUP1 DUP4 KECCAK256 PUSH20 0xFFFFFFFFFFFFFFFFFFFFFFFFFFFFFFFFFFFFFFFF DUP6 AND DUP5 MSTORE SWAP1 SWAP2 MSTORE SWAP1 KECCAK256 SLOAD PUSH1 0xFF AND PUSH2 0xB05 JUMPI PUSH1 0x40 MLOAD PUSH32 0x7AA7288200000000000000000000000000000000000000000000000000000000 DUP2 MSTORE PUSH1 0x4 DUP2 ADD DUP4 SWAP1 MSTORE PUSH20 0xFFFFFFFFFFFFFFFFFFFFFFFFFFFFFFFFFFFFFFFF DUP3 AND PUSH1 0x24 DUP3 ADD MSTORE PUSH1 0x44 ADD PUSH2 0xA4D JUMP JUMPDEST PUSH1 0x0 DUP1 PUSH2 0x18D2 PUSH1 0x1 PUSH32 0xC9ED16F33AB3A66C84BFD83099CCB2A8845871E2E1C1928F63797152F0FD54CD PUSH2 0x3A62 JUMP JUMPDEST DUP2 SLOAD PUSH20 0xFFFFFFFFFFFFFFFFFFFFFFFFFFFFFFFFFFFFFFFF DUP3 DUP2 AND SWAP2 AND EQ PUSH2 0x1088 JUMPI PUSH1 0x40 MLOAD PUSH32 0x2EF4875E00000000000000000000000000000000000000000000000000000000 DUP2 MSTORE PUSH20 0xFFFFFFFFFFFFFFFFFFFFFFFFFFFFFFFFFFFFFFFF DUP3 AND PUSH1 0x4 DUP3 ADD MSTORE PUSH1 0x24 ADD PUSH2 0xA4D JUMP JUMPDEST PUSH1 0x0 DUP4 DUP2 MSTORE PUSH1 0x20 DUP6 DUP2 MSTORE PUSH1 0x40 DUP1 DUP4 KECCAK256 PUSH20 0xFFFFFFFFFFFFFFFFFFFFFFFFFFFFFFFFFFFFFFFF DUP7 AND DUP5 MSTORE SWAP1 SWAP2 MSTORE SWAP1 KECCAK256 SLOAD PUSH1 0xFF AND PUSH2 0x251B JUMPI PUSH1 0x0 DUP4 DUP2 MSTORE PUSH1 0x20 DUP6 DUP2 MSTORE PUSH1 0x40 DUP1 DUP4 KECCAK256 PUSH20 0xFFFFFFFFFFFFFFFFFFFFFFFFFFFFFFFFFFFFFFFF DUP7 DUP2 AND DUP1 DUP7 MSTORE SWAP2 DUP5 MSTORE SWAP4 DUP3 SWAP1 KECCAK256 DUP1 SLOAD PUSH32 0xFFFFFFFFFFFFFFFFFFFFFFFFFFFFFFFFFFFFFFFFFFFFFFFFFFFFFFFFFFFFFF00 AND PUSH1 0x1 OR SWAP1 SSTORE DUP2 MLOAD DUP8 DUP2 MSTORE SWAP3 DUP4 ADD MSTORE SWAP2 DUP4 AND SWAP2 DUP2 ADD SWAP2 SWAP1 SWAP2 MSTORE PUSH32 0x2F8788117E7EFF1D82E926EC794901D17C78024A50270940304540A733656F0D SWAP1 PUSH1 0x60 ADD JUMPDEST PUSH1 0x40 MLOAD DUP1 SWAP2 SUB SWAP1 LOG1 JUMPDEST POP POP POP POP JUMP JUMPDEST PUSH2 0xD0C CALLER PUSH2 0xAE9 PUSH2 0x23B1 JUMP JUMPDEST PUSH32 0x4910FDFA16FED3260ED0E7147F7CC6DA11A60208B5B9406D12A635614FFD9143 SLOAD PUSH1 0xFF AND ISZERO PUSH2 0x2560 JUMPI PUSH2 0xB05 DUP4 PUSH2 0x2BF3 JUMP JUMPDEST DUP3 PUSH20 0xFFFFFFFFFFFFFFFFFFFFFFFFFFFFFFFFFFFFFFFF AND PUSH4 0x52D1902D PUSH1 0x40 MLOAD DUP2 PUSH4 0xFFFFFFFF AND PUSH1 0xE0 SHL DUP2 MSTORE PUSH1 0x4 ADD PUSH1 0x20 PUSH1 0x40 MLOAD DUP1 DUP4 SUB DUP2 DUP7 GAS STATICCALL SWAP3 POP POP POP DUP1 ISZERO PUSH2 0x25E5 JUMPI POP PUSH1 0x40 DUP1 MLOAD PUSH1 0x1F RETURNDATASIZE SWAP1 DUP2 ADD PUSH32 0xFFFFFFFFFFFFFFFFFFFFFFFFFFFFFFFFFFFFFFFFFFFFFFFFFFFFFFFFFFFFFFE0 AND DUP3 ADD SWAP1 SWAP3 MSTORE PUSH2 0x25E2 SWAP2 DUP2 ADD SWAP1 PUSH2 0x3931 JUMP JUMPDEST PUSH1 0x1 JUMPDEST PUSH2 0x2671 JUMPI PUSH1 0x40 MLOAD PUSH32 0x8C379A000000000000000000000000000000000000000000000000000000000 DUP2 MSTORE PUSH1 0x20 PUSH1 0x4 DUP3 ADD MSTORE PUSH1 0x2E PUSH1 0x24 DUP3 ADD MSTORE PUSH32 0x45524331393637557067726164653A206E657720696D706C656D656E74617469 PUSH1 0x44 DUP3 ADD MSTORE PUSH32 0x6F6E206973206E6F742055555053000000000000000000000000000000000000 PUSH1 0x64 DUP3 ADD MSTORE PUSH1 0x84 ADD PUSH2 0xA4D JUMP JUMPDEST PUSH32 0x360894A13BA1A3210667C828492DB98DCA3E2076CC3735A920A3CA505D382BBC DUP2 EQ PUSH2 0x2720 JUMPI PUSH1 0x40 MLOAD PUSH32 0x8C379A000000000000000000000000000000000000000000000000000000000 DUP2 MSTORE PUSH1 0x20 PUSH1 0x4 DUP3 ADD MSTORE PUSH1 0x29 PUSH1 0x24 DUP3 ADD MSTORE PUSH32 0x45524331393637557067726164653A20756E737570706F727465642070726F78 PUSH1 0x44 DUP3 ADD MSTORE PUSH32 0x6961626C65555549440000000000000000000000000000000000000000000000 PUSH1 0x64 DUP3 ADD MSTORE PUSH1 0x84 ADD PUSH2 0xA4D JUMP JUMPDEST POP PUSH2 0xB05 DUP4 DUP4 DUP4 PUSH2 0x2CFD JUMP JUMPDEST PUSH1 0x0 SLOAD PUSH2 0x100 SWAP1 DIV PUSH1 0xFF AND PUSH2 0x27C3 JUMPI PUSH1 0x40 MLOAD PUSH32 0x8C379A000000000000000000000000000000000000000000000000000000000 DUP2 MSTORE PUSH1 0x20 PUSH1 0x4 DUP3 ADD MSTORE PUSH1 0x2B PUSH1 0x24 DUP3 ADD MSTORE PUSH32 0x496E697469616C697A61626C653A20636F6E7472616374206973206E6F742069 PUSH1 0x44 DUP3 ADD MSTORE PUSH32 0x6E697469616C697A696E67000000000000000000000000000000000000000000 PUSH1 0x64 DUP3 ADD MSTORE PUSH1 0x84 ADD PUSH2 0xA4D JUMP JUMPDEST JUMP JUMPDEST PUSH2 0x27FA PUSH2 0x27F3 PUSH1 0x1 PUSH32 0x5B388D90DC1312BA799F321972F13311234FA1163BCABEC7CF66101C4876EB84 PUSH2 0x3A62 JUMP JUMPDEST PUSH1 0x1 PUSH2 0x2D22 JUMP JUMPDEST PUSH2 0x1088 DUP3 DUP3 PUSH2 0x2D6E JUMP JUMPDEST PUSH2 0x280F DUP4 DUP3 DUP5 PUSH2 0x232B JUMP JUMPDEST PUSH1 0x0 DUP2 DUP2 MSTORE PUSH1 0x20 DUP5 DUP2 MSTORE PUSH1 0x40 DUP1 DUP4 KECCAK256 PUSH20 0xFFFFFFFFFFFFFFFFFFFFFFFFFFFFFFFFFFFFFFFF DUP7 AND DUP1 DUP6 MSTORE SWAP1 DUP4 MSTORE SWAP3 DUP2 SWAP1 KECCAK256 DUP1 SLOAD PUSH32 0xFFFFFFFFFFFFFFFFFFFFFFFFFFFFFFFFFFFFFFFFFFFFFFFFFFFFFFFFFFFFFF00 AND SWAP1 SSTORE DUP1 MLOAD DUP5 DUP2 MSTORE SWAP2 DUP3 ADD DUP4 SWAP1 MSTORE DUP2 ADD SWAP2 SWAP1 SWAP2 MSTORE PUSH32 0xF6391F5C32D9C69D2A47EA670B442974B53935D1EDC7FD64EB21E047A839171B SWAP1 PUSH1 0x60 ADD PUSH1 0x40 MLOAD DUP1 SWAP2 SUB SWAP1 LOG1 POP POP POP JUMP JUMPDEST PUSH1 0x65 SLOAD PUSH1 0x0 SWAP1 DUP2 MSTORE PUSH1 0x67 PUSH1 0x20 SWAP1 DUP2 MSTORE PUSH1 0x40 DUP1 DUP4 KECCAK256 DUP9 DUP5 MSTORE DUP3 MSTORE DUP1 DUP4 KECCAK256 DUP8 DUP5 MSTORE SWAP1 SWAP2 MSTORE SWAP1 KECCAK256 SLOAD DUP4 DUP2 LT ISZERO PUSH2 0x2911 JUMPI PUSH1 0x40 MLOAD PUSH32 0xCF47918100000000000000000000000000000000000000000000000000000000 DUP2 MSTORE PUSH1 0x4 DUP2 ADD DUP8 SWAP1 MSTORE PUSH1 0x24 DUP2 ADD DUP6 SWAP1 MSTORE PUSH1 0x44 ADD PUSH2 0xA4D JUMP JUMPDEST PUSH1 0x0 DUP4 DUP2 MSTORE PUSH1 0x69 PUSH1 0x20 MSTORE PUSH1 0x40 SWAP1 KECCAK256 SLOAD PUSH1 0xFF AND PUSH2 0x295C JUMPI PUSH1 0x40 MLOAD PUSH32 0xA89513E100000000000000000000000000000000000000000000000000000000 DUP2 MSTORE PUSH1 0x4 DUP2 ADD DUP5 SWAP1 MSTORE PUSH1 0x24 ADD PUSH2 0xA4D JUMP JUMPDEST PUSH2 0x2966 DUP5 DUP3 PUSH2 0x3A62 JUMP JUMPDEST PUSH1 0x65 DUP1 SLOAD PUSH1 0x0 SWAP1 DUP2 MSTORE PUSH1 0x67 PUSH1 0x20 SWAP1 DUP2 MSTORE PUSH1 0x40 DUP1 DUP4 KECCAK256 DUP12 DUP5 MSTORE DUP3 MSTORE DUP1 DUP4 KECCAK256 DUP11 DUP5 MSTORE DUP3 MSTORE SWAP2 DUP3 SWAP1 KECCAK256 SWAP4 SWAP1 SWAP4 SSTORE SWAP1 SLOAD DUP2 MLOAD CALLER DUP2 MSTORE SWAP3 DUP4 ADD DUP9 SWAP1 MSTORE SWAP1 DUP3 ADD DUP7 SWAP1 MSTORE PUSH20 0xFFFFFFFFFFFFFFFFFFFFFFFFFFFFFFFFFFFFFFFF DUP5 AND PUSH1 0x60 DUP4 ADD MSTORE DUP5 SWAP2 DUP9 SWAP1 PUSH32 0xE514533875FBD3F8F396088D636E746599D8B5C3BA77E9CCFA9FC01FF7064601 SWAP1 PUSH1 0x80 ADD PUSH2 0xACC JUMP JUMPDEST PUSH1 0x0 DUP4 DUP2 MSTORE PUSH1 0x20 DUP6 DUP2 MSTORE PUSH1 0x40 DUP1 DUP4 KECCAK256 PUSH20 0xFFFFFFFFFFFFFFFFFFFFFFFFFFFFFFFFFFFFFFFF DUP7 AND DUP5 MSTORE SWAP1 SWAP2 MSTORE SWAP1 KECCAK256 SLOAD PUSH1 0xFF AND ISZERO PUSH2 0x251B JUMPI PUSH1 0x0 DUP4 DUP2 MSTORE PUSH1 0x20 DUP6 DUP2 MSTORE PUSH1 0x40 DUP1 DUP4 KECCAK256 PUSH20 0xFFFFFFFFFFFFFFFFFFFFFFFFFFFFFFFFFFFFFFFF DUP7 DUP2 AND DUP1 DUP7 MSTORE SWAP2 DUP5 MSTORE SWAP4 DUP3 SWAP1 KECCAK256 DUP1 SLOAD PUSH32 0xFFFFFFFFFFFFFFFFFFFFFFFFFFFFFFFFFFFFFFFFFFFFFFFFFFFFFFFFFFFFFF00 AND SWAP1 SSTORE DUP2 MLOAD DUP8 DUP2 MSTORE SWAP3 DUP4 ADD MSTORE SWAP2 DUP4 AND SWAP2 DUP2 ADD SWAP2 SWAP1 SWAP2 MSTORE PUSH32 0xF6391F5C32D9C69D2A47EA670B442974B53935D1EDC7FD64EB21E047A839171B SWAP1 PUSH1 0x60 ADD PUSH2 0x2512 JUMP JUMPDEST PUSH1 0x0 DUP1 PUSH1 0x0 PUSH2 0x2AC8 DUP8 DUP8 DUP8 DUP8 PUSH2 0x2E2B JUMP JUMPDEST SWAP2 POP SWAP2 POP PUSH2 0x2AD5 DUP2 PUSH2 0x2F1A JUMP JUMPDEST POP SWAP6 SWAP5 POP POP POP POP POP JUMP JUMPDEST DUP3 SLOAD PUSH20 0xFFFFFFFFFFFFFFFFFFFFFFFFFFFFFFFFFFFFFFFF SWAP1 DUP2 AND SWAP1 DUP4 AND DUP2 EQ PUSH2 0x2B4C JUMPI PUSH1 0x40 MLOAD PUSH32 0x2EF4875E00000000000000000000000000000000000000000000000000000000 DUP2 MSTORE PUSH20 0xFFFFFFFFFFFFFFFFFFFFFFFFFFFFFFFFFFFFFFFF DUP5 AND PUSH1 0x4 DUP3 ADD MSTORE PUSH1 0x24 ADD PUSH2 0xA4D JUMP JUMPDEST DUP2 PUSH20 0xFFFFFFFFFFFFFFFFFFFFFFFFFFFFFFFFFFFFFFFF AND DUP2 PUSH20 0xFFFFFFFFFFFFFFFFFFFFFFFFFFFFFFFFFFFFFFFF AND EQ PUSH2 0x251B JUMPI DUP4 SLOAD PUSH32 0xFFFFFFFFFFFFFFFFFFFFFFFF0000000000000000000000000000000000000000 AND PUSH20 0xFFFFFFFFFFFFFFFFFFFFFFFFFFFFFFFFFFFFFFFF DUP4 DUP2 AND SWAP2 DUP3 OR DUP7 SSTORE PUSH1 0x40 MLOAD SWAP1 DUP4 AND SWAP1 PUSH32 0x8BE0079C531659141344CD1FD0A4F28419497F9722A3DAAFE3B4186F6B6457E0 SWAP1 PUSH1 0x0 SWAP1 LOG3 POP POP POP POP JUMP JUMPDEST PUSH20 0xFFFFFFFFFFFFFFFFFFFFFFFFFFFFFFFFFFFFFFFF DUP2 AND EXTCODESIZE PUSH2 0x2C97 JUMPI PUSH1 0x40 MLOAD PUSH32 0x8C379A000000000000000000000000000000000000000000000000000000000 DUP2 MSTORE PUSH1 0x20 PUSH1 0x4 DUP3 ADD MSTORE PUSH1 0x2D PUSH1 0x24 DUP3 ADD MSTORE PUSH32 0x455243313936373A206E657720696D706C656D656E746174696F6E206973206E PUSH1 0x44 DUP3 ADD MSTORE PUSH32 0x6F74206120636F6E747261637400000000000000000000000000000000000000 PUSH1 0x64 DUP3 ADD MSTORE PUSH1 0x84 ADD PUSH2 0xA4D JUMP JUMPDEST PUSH32 0x360894A13BA1A3210667C828492DB98DCA3E2076CC3735A920A3CA505D382BBC DUP1 SLOAD PUSH32 0xFFFFFFFFFFFFFFFFFFFFFFFF0000000000000000000000000000000000000000 AND PUSH20 0xFFFFFFFFFFFFFFFFFFFFFFFFFFFFFFFFFFFFFFFF SWAP3 SWAP1 SWAP3 AND SWAP2 SWAP1 SWAP2 OR SWAP1 SSTORE JUMP JUMPDEST PUSH2 0x2D06 DUP4 PUSH2 0x30CD JUMP JUMPDEST PUSH1 0x0 DUP3 MLOAD GT DUP1 PUSH2 0x2D13 JUMPI POP DUP1 JUMPDEST ISZERO PUSH2 0xB05 JUMPI PUSH2 0x251B DUP4 DUP4 PUSH2 0x311A JUMP JUMPDEST DUP2 SLOAD DUP3 SWAP1 DUP3 DUP2 LT PUSH2 0x2D69 JUMPI PUSH1 0x40 MLOAD PUSH32 0xBF0C18EC00000000000000000000000000000000000000000000000000000000 DUP2 MSTORE PUSH1 0x4 DUP2 ADD DUP3 SWAP1 MSTORE PUSH1 0x24 DUP2 ADD DUP5 SWAP1 MSTORE PUSH1 0x44 ADD PUSH2 0xA4D JUMP JUMPDEST POP SSTORE POP JUMP JUMPDEST PUSH20 0xFFFFFFFFFFFFFFFFFFFFFFFFFFFFFFFFFFFFFFFF DUP2 AND ISZERO PUSH2 0x2DF6 JUMPI DUP2 SLOAD PUSH32 0xFFFFFFFFFFFFFFFFFFFFFFFF0000000000000000000000000000000000000000 AND PUSH20 0xFFFFFFFFFFFFFFFFFFFFFFFFFFFFFFFFFFFFFFFF DUP3 AND SWAP1 DUP2 OR DUP4 SSTORE PUSH1 0x40 MLOAD PUSH1 0x0 SWAP1 PUSH32 0x8BE0079C531659141344CD1FD0A4F28419497F9722A3DAAFE3B4186F6B6457E0 SWAP1 DUP3 SWAP1 LOG3 JUMPDEST PUSH2 0x1088 PUSH32 0x7F5828D000000000000000000000000000000000000000000000000000000000 PUSH1 0x1 PUSH2 0x2E24 PUSH2 0x313F JUMP JUMPDEST SWAP2 SWAP1 PUSH2 0x316D JUMP JUMPDEST PUSH1 0x0 DUP1 PUSH32 0x7FFFFFFFFFFFFFFFFFFFFFFFFFFFFFFF5D576E7357A4501DDFE92F46681B20A0 DUP4 GT ISZERO PUSH2 0x2E62 JUMPI POP PUSH1 0x0 SWAP1 POP PUSH1 0x3 PUSH2 0x2F11 JUMP JUMPDEST PUSH1 0x40 DUP1 MLOAD PUSH1 0x0 DUP1 DUP3 MSTORE PUSH1 0x20 DUP3 ADD DUP1 DUP5 MSTORE DUP10 SWAP1 MSTORE PUSH1 0xFF DUP9 AND SWAP3 DUP3 ADD SWAP3 SWAP1 SWAP3 MSTORE PUSH1 0x60 DUP2 ADD DUP7 SWAP1 MSTORE PUSH1 0x80 DUP2 ADD DUP6 SWAP1 MSTORE PUSH1 0x1 SWAP1 PUSH1 0xA0 ADD PUSH1 0x20 PUSH1 0x40 MLOAD PUSH1 0x20 DUP2 SUB SWAP1 DUP1 DUP5 SUB SWAP1 DUP6 GAS STATICCALL ISZERO DUP1 ISZERO PUSH2 0x2EB6 JUMPI RETURNDATASIZE PUSH1 0x0 DUP1 RETURNDATACOPY RETURNDATASIZE PUSH1 0x0 REVERT JUMPDEST POP POP PUSH1 0x40 MLOAD PUSH32 0xFFFFFFFFFFFFFFFFFFFFFFFFFFFFFFFFFFFFFFFFFFFFFFFFFFFFFFFFFFFFFFE0 ADD MLOAD SWAP2 POP POP PUSH20 0xFFFFFFFFFFFFFFFFFFFFFFFFFFFFFFFFFFFFFFFF DUP2 AND PUSH2 0x2F0A JUMPI PUSH1 0x0 PUSH1 0x1 SWAP3 POP SWAP3 POP POP PUSH2 0x2F11 JUMP JUMPDEST SWAP2 POP PUSH1 0x0 SWAP1 POP JUMPDEST SWAP5 POP SWAP5 SWAP3 POP POP POP JUMP JUMPDEST PUSH1 0x0 DUP2 PUSH1 0x4 DUP2 GT ISZERO PUSH2 0x2F2E JUMPI PUSH2 0x2F2E PUSH2 0x3A75 JUMP JUMPDEST SUB PUSH2 0x2F36 JUMPI POP JUMP JUMPDEST PUSH1 0x1 DUP2 PUSH1 0x4 DUP2 GT ISZERO PUSH2 0x2F4A JUMPI PUSH2 0x2F4A PUSH2 0x3A75 JUMP JUMPDEST SUB PUSH2 0x2FB1 JUMPI PUSH1 0x40 MLOAD PUSH32 0x8C379A000000000000000000000000000000000000000000000000000000000 DUP2 MSTORE PUSH1 0x20 PUSH1 0x4 DUP3 ADD MSTORE PUSH1 0x18 PUSH1 0x24 DUP3 ADD MSTORE PUSH32 0x45434453413A20696E76616C6964207369676E61747572650000000000000000 PUSH1 0x44 DUP3 ADD MSTORE PUSH1 0x64 ADD PUSH2 0xA4D JUMP JUMPDEST PUSH1 0x2 DUP2 PUSH1 0x4 DUP2 GT ISZERO PUSH2 0x2FC5 JUMPI PUSH2 0x2FC5 PUSH2 0x3A75 JUMP JUMPDEST SUB PUSH2 0x302C JUMPI PUSH1 0x40 MLOAD PUSH32 0x8C379A000000000000000000000000000000000000000000000000000000000 DUP2 MSTORE PUSH1 0x20 PUSH1 0x4 DUP3 ADD MSTORE PUSH1 0x1F PUSH1 0x24 DUP3 ADD MSTORE PUSH32 0x45434453413A20696E76616C6964207369676E6174757265206C656E67746800 PUSH1 0x44 DUP3 ADD MSTORE PUSH1 0x64 ADD PUSH2 0xA4D JUMP JUMPDEST PUSH1 0x3 DUP2 PUSH1 0x4 DUP2 GT ISZERO PUSH2 0x3040 JUMPI PUSH2 0x3040 PUSH2 0x3A75 JUMP JUMPDEST SUB PUSH2 0xD0C JUMPI PUSH1 0x40 MLOAD PUSH32 0x8C379A000000000000000000000000000000000000000000000000000000000 DUP2 MSTORE PUSH1 0x20 PUSH1 0x4 DUP3 ADD MSTORE PUSH1 0x22 PUSH1 0x24 DUP3 ADD MSTORE PUSH32 0x45434453413A20696E76616C6964207369676E6174757265202773272076616C PUSH1 0x44 DUP3 ADD MSTORE PUSH32 0x7565000000000000000000000000000000000000000000000000000000000000 PUSH1 0x64 DUP3 ADD MSTORE PUSH1 0x84 ADD PUSH2 0xA4D JUMP JUMPDEST PUSH2 0x30D6 DUP2 PUSH2 0x2BF3 JUMP JUMPDEST PUSH1 0x40 MLOAD PUSH20 0xFFFFFFFFFFFFFFFFFFFFFFFFFFFFFFFFFFFFFFFF DUP3 AND SWAP1 PUSH32 0xBC7CD75A20EE27FD9ADEBAB32041F755214DBC6BFFA90CC0225B39DA2E5C2D3B SWAP1 PUSH1 0x0 SWAP1 LOG2 POP JUMP JUMPDEST PUSH1 0x60 PUSH2 0x18CF DUP4 DUP4 PUSH1 0x40 MLOAD DUP1 PUSH1 0x60 ADD PUSH1 0x40 MSTORE DUP1 PUSH1 0x27 DUP2 MSTORE PUSH1 0x20 ADD PUSH2 0x3B36 PUSH1 0x27 SWAP2 CODECOPY PUSH2 0x3249 JUMP JUMPDEST PUSH1 0x0 DUP1 PUSH2 0x18D2 PUSH1 0x1 PUSH32 0xCA9D3E17F264B0F3984E2634E94ADB37FA3E6A8103F06AEAE6FA59E21C769F5E PUSH2 0x3A62 JUMP JUMPDEST PUSH29 0x100000000000000000000000000000000000000000000000000000000 PUSH32 0xFFFFFFFF00000000000000000000000000000000000000000000000000000000 DUP4 AND ADD PUSH2 0x31E5 JUMPI PUSH1 0x40 MLOAD PUSH32 0x72C683BB00000000000000000000000000000000000000000000000000000000 DUP2 MSTORE PUSH1 0x4 ADD PUSH1 0x40 MLOAD DUP1 SWAP2 SUB SWAP1 REVERT JUMPDEST PUSH32 0xFFFFFFFF00000000000000000000000000000000000000000000000000000000 SWAP2 SWAP1 SWAP2 AND PUSH1 0x0 SWAP1 DUP2 MSTORE PUSH1 0x20 SWAP3 SWAP1 SWAP3 MSTORE PUSH1 0x40 SWAP1 SWAP2 KECCAK256 DUP1 SLOAD PUSH32 0xFFFFFFFFFFFFFFFFFFFFFFFFFFFFFFFFFFFFFFFFFFFFFFFFFFFFFFFFFFFFFF00 AND SWAP2 ISZERO ISZERO SWAP2 SWAP1 SWAP2 OR SWAP1 SSTORE JUMP JUMPDEST PUSH1 0x60 PUSH1 0x0 DUP1 DUP6 PUSH20 0xFFFFFFFFFFFFFFFFFFFFFFFFFFFFFFFFFFFFFFFF AND DUP6 PUSH1 0x40 MLOAD PUSH2 0x3273 SWAP2 SWAP1 PUSH2 0x3AC8 JUMP JUMPDEST PUSH1 0x0 PUSH1 0x40 MLOAD DUP1 DUP4 SUB DUP2 DUP6 GAS DELEGATECALL SWAP2 POP POP RETURNDATASIZE DUP1 PUSH1 0x0 DUP2 EQ PUSH2 0x32AE JUMPI PUSH1 0x40 MLOAD SWAP2 POP PUSH1 0x1F NOT PUSH1 0x3F RETURNDATASIZE ADD AND DUP3 ADD PUSH1 0x40 MSTORE RETURNDATASIZE DUP3 MSTORE RETURNDATASIZE PUSH1 0x0 PUSH1 0x20 DUP5 ADD RETURNDATACOPY PUSH2 0x32B3 JUMP JUMPDEST PUSH1 0x60 SWAP2 POP JUMPDEST POP SWAP2 POP SWAP2 POP PUSH2 0x2210 DUP7 DUP4 DUP4 DUP8 PUSH1 0x60 DUP4 ISZERO PUSH2 0x3355 JUMPI DUP3 MLOAD PUSH1 0x0 SUB PUSH2 0x334E JUMPI PUSH20 0xFFFFFFFFFFFFFFFFFFFFFFFFFFFFFFFFFFFFFFFF DUP6 AND EXTCODESIZE PUSH2 0x334E JUMPI PUSH1 0x40 MLOAD PUSH32 0x8C379A000000000000000000000000000000000000000000000000000000000 DUP2 MSTORE PUSH1 0x20 PUSH1 0x4 DUP3 ADD MSTORE PUSH1 0x1D PUSH1 0x24 DUP3 ADD MSTORE PUSH32 0x416464726573733A2063616C6C20746F206E6F6E2D636F6E7472616374000000 PUSH1 0x44 DUP3 ADD MSTORE PUSH1 0x64 ADD PUSH2 0xA4D JUMP JUMPDEST POP DUP2 PUSH2 0x86D JUMP JUMPDEST PUSH2 0x86D DUP4 DUP4 DUP2 MLOAD ISZERO PUSH2 0x336A JUMPI DUP2 MLOAD DUP1 DUP4 PUSH1 0x20 ADD REVERT JUMPDEST DUP1 PUSH1 0x40 MLOAD PUSH32 0x8C379A000000000000000000000000000000000000000000000000000000000 DUP2 MSTORE PUSH1 0x4 ADD PUSH2 0xA4D SWAP2 SWAP1 PUSH2 0x3AE4 JUMP JUMPDEST PUSH1 0x0 DUP1 DUP4 PUSH1 0x1F DUP5 ADD SLT PUSH2 0x33B0 JUMPI PUSH1 0x0 DUP1 REVERT JUMPDEST POP DUP2 CALLDATALOAD PUSH8 0xFFFFFFFFFFFFFFFF DUP2 GT ISZERO PUSH2 0x33C8 JUMPI PUSH1 0x0 DUP1 REVERT JUMPDEST PUSH1 0x20 DUP4 ADD SWAP2 POP DUP4 PUSH1 0x20 DUP3 DUP6 ADD ADD GT ISZERO PUSH2 0x33E0 JUMPI PUSH1 0x0 DUP1 REVERT JUMPDEST SWAP3 POP SWAP3 SWAP1 POP JUMP JUMPDEST PUSH1 0x0 DUP1 PUSH1 0x0 DUP1 PUSH1 0x60 DUP6 DUP8 SUB SLT ISZERO PUSH2 0x33FD JUMPI PUSH1 0x0 DUP1 REVERT JUMPDEST DUP5 CALLDATALOAD SWAP4 POP PUSH1 0x20 DUP6 ADD CALLDATALOAD SWAP3 POP PUSH1 0x40 DUP6 ADD CALLDATALOAD PUSH8 0xFFFFFFFFFFFFFFFF DUP2 GT ISZERO PUSH2 0x3422 JUMPI PUSH1 0x0 DUP1 REVERT JUMPDEST PUSH2 0x342E DUP8 DUP3 DUP9 ADD PUSH2 0x339E JUMP JUMPDEST SWAP6 SWAP9 SWAP5 SWAP8 POP SWAP6 POP POP POP POP JUMP JUMPDEST PUSH1 0x0 PUSH1 0x20 DUP3 DUP5 SUB SLT ISZERO PUSH2 0x344C JUMPI PUSH1 0x0 DUP1 REVERT JUMPDEST POP CALLDATALOAD SWAP2 SWAP1 POP JUMP JUMPDEST PUSH1 0x0 DUP1 PUSH1 0x0 DUP1 PUSH1 0x0 PUSH1 0xA0 DUP7 DUP9 SUB SLT ISZERO PUSH2 0x346B JUMPI PUSH1 0x0 DUP1 REVERT JUMPDEST POP POP DUP4 CALLDATALOAD SWAP6 PUSH1 0x20 DUP6 ADD CALLDATALOAD SWAP6 POP PUSH1 0x40 DUP6 ADD CALLDATALOAD SWAP5 PUSH1 0x60 DUP2 ADD CALLDATALOAD SWAP5 POP PUSH1 0x80 ADD CALLDATALOAD SWAP3 POP SWAP1 POP JUMP JUMPDEST PUSH20 0xFFFFFFFFFFFFFFFFFFFFFFFFFFFFFFFFFFFFFFFF DUP2 AND DUP2 EQ PUSH2 0xD0C JUMPI PUSH1 0x0 DUP1 REVERT JUMPDEST PUSH1 0x0 DUP1 PUSH1 0x40 DUP4 DUP6 SUB SLT ISZERO PUSH2 0x34C3 JUMPI PUSH1 0x0 DUP1 REVERT JUMPDEST DUP3 CALLDATALOAD SWAP2 POP PUSH1 0x20 DUP4 ADD CALLDATALOAD PUSH2 0x34D5 DUP2 PUSH2 0x348E JUMP JUMPDEST DUP1 SWAP2 POP POP SWAP3 POP SWAP3 SWAP1 POP JUMP JUMPDEST PUSH1 0x0 PUSH1 0x20 DUP3 DUP5 SUB SLT ISZERO PUSH2 0x34F2 JUMPI PUSH1 0x0 DUP1 REVERT JUMPDEST DUP2 CALLDATALOAD PUSH2 0x34FD DUP2 PUSH2 0x348E JUMP JUMPDEST SWAP4 SWAP3 POP POP POP JUMP JUMPDEST PUSH1 0x0 DUP1 PUSH1 0x20 DUP4 DUP6 SUB SLT ISZERO PUSH2 0x3517 JUMPI PUSH1 0x0 DUP1 REVERT JUMPDEST DUP3 CALLDATALOAD PUSH8 0xFFFFFFFFFFFFFFFF DUP1 DUP3 GT ISZERO PUSH2 0x352F JUMPI PUSH1 0x0 DUP1 REVERT JUMPDEST DUP2 DUP6 ADD SWAP2 POP DUP6 PUSH1 0x1F DUP4 ADD SLT PUSH2 0x3543 JUMPI PUSH1 0x0 DUP1 REVERT JUMPDEST DUP2 CALLDATALOAD DUP2 DUP2 GT ISZERO PUSH2 0x3552 JUMPI PUSH1 0x0 DUP1 REVERT JUMPDEST DUP7 PUSH1 0x20 DUP3 PUSH1 0x5 SHL DUP6 ADD ADD GT ISZERO PUSH2 0x3567 JUMPI PUSH1 0x0 DUP1 REVERT JUMPDEST PUSH1 0x20 SWAP3 SWAP1 SWAP3 ADD SWAP7 SWAP2 SWAP6 POP SWAP1 SWAP4 POP POP POP POP JUMP JUMPDEST PUSH32 0x4E487B7100000000000000000000000000000000000000000000000000000000 PUSH1 0x0 MSTORE PUSH1 0x41 PUSH1 0x4 MSTORE PUSH1 0x24 PUSH1 0x0 REVERT JUMPDEST PUSH1 0x0 DUP1 PUSH1 0x40 DUP4 DUP6 SUB SLT ISZERO PUSH2 0x35BB JUMPI PUSH1 0x0 DUP1 REVERT JUMPDEST DUP3 CALLDATALOAD PUSH2 0x35C6 DUP2 PUSH2 0x348E JUMP JUMPDEST SWAP2 POP PUSH1 0x20 DUP4 ADD CALLDATALOAD PUSH8 0xFFFFFFFFFFFFFFFF DUP1 DUP3 GT ISZERO PUSH2 0x35E3 JUMPI PUSH1 0x0 DUP1 REVERT JUMPDEST DUP2 DUP6 ADD SWAP2 POP DUP6 PUSH1 0x1F DUP4 ADD SLT PUSH2 0x35F7 JUMPI PUSH1 0x0 DUP1 REVERT JUMPDEST DUP2 CALLDATALOAD DUP2 DUP2 GT ISZERO PUSH2 0x3609 JUMPI PUSH2 0x3609 PUSH2 0x3579 JUMP JUMPDEST PUSH1 0x40 MLOAD PUSH1 0x1F DUP3 ADD PUSH32 0xFFFFFFFFFFFFFFFFFFFFFFFFFFFFFFFFFFFFFFFFFFFFFFFFFFFFFFFFFFFFFFE0 SWAP1 DUP2 AND PUSH1 0x3F ADD AND DUP2 ADD SWAP1 DUP4 DUP3 GT DUP2 DUP4 LT OR ISZERO PUSH2 0x364F JUMPI PUSH2 0x364F PUSH2 0x3579 JUMP JUMPDEST DUP2 PUSH1 0x40 MSTORE DUP3 DUP2 MSTORE DUP9 PUSH1 0x20 DUP5 DUP8 ADD ADD GT ISZERO PUSH2 0x3668 JUMPI PUSH1 0x0 DUP1 REVERT JUMPDEST DUP3 PUSH1 0x20 DUP7 ADD PUSH1 0x20 DUP4 ADD CALLDATACOPY PUSH1 0x0 PUSH1 0x20 DUP5 DUP4 ADD ADD MSTORE DUP1 SWAP6 POP POP POP POP POP POP SWAP3 POP SWAP3 SWAP1 POP JUMP JUMPDEST PUSH1 0x0 DUP1 PUSH1 0x0 PUSH1 0x60 DUP5 DUP7 SUB SLT ISZERO PUSH2 0x369F JUMPI PUSH1 0x0 DUP1 REVERT JUMPDEST POP POP DUP2 CALLDATALOAD SWAP4 PUSH1 0x20 DUP4 ADD CALLDATALOAD SWAP4 POP PUSH1 0x40 SWAP1 SWAP3 ADD CALLDATALOAD SWAP2 SWAP1 POP JUMP JUMPDEST PUSH1 0x0 DUP1 PUSH1 0x0 PUSH1 0x40 DUP5 DUP7 SUB SLT ISZERO PUSH2 0x36CB JUMPI PUSH1 0x0 DUP1 REVERT JUMPDEST DUP4 CALLDATALOAD SWAP3 POP PUSH1 0x20 DUP5 ADD CALLDATALOAD PUSH8 0xFFFFFFFFFFFFFFFF DUP2 GT ISZERO PUSH2 0x36E9 JUMPI PUSH1 0x0 DUP1 REVERT JUMPDEST PUSH2 0x36F5 DUP7 DUP3 DUP8 ADD PUSH2 0x339E JUMP JUMPDEST SWAP5 SWAP8 SWAP1 SWAP7 POP SWAP4 SWAP5 POP POP POP POP JUMP JUMPDEST DUP1 CALLDATALOAD PUSH1 0xFF DUP2 AND DUP2 EQ PUSH2 0x3713 JUMPI PUSH1 0x0 DUP1 REVERT JUMPDEST SWAP2 SWAP1 POP JUMP JUMPDEST PUSH1 0x0 DUP1 PUSH1 0x0 DUP1 PUSH1 0x0 DUP1 PUSH1 0x0 DUP1 PUSH1 0xE0 DUP10 DUP12 SUB SLT ISZERO PUSH2 0x3734 JUMPI PUSH1 0x0 DUP1 REVERT JUMPDEST DUP9 CALLDATALOAD SWAP8 POP PUSH1 0x20 DUP10 ADD CALLDATALOAD PUSH8 0xFFFFFFFFFFFFFFFF DUP2 GT ISZERO PUSH2 0x3752 JUMPI PUSH1 0x0 DUP1 REVERT JUMPDEST PUSH2 0x375E DUP12 DUP3 DUP13 ADD PUSH2 0x339E JUMP JUMPDEST SWAP1 SWAP9 POP SWAP7 POP POP PUSH1 0x40 DUP10 ADD CALLDATALOAD SWAP5 POP PUSH1 0x60 DUP10 ADD CALLDATALOAD SWAP4 POP PUSH2 0x377E PUSH1 0x80 DUP11 ADD PUSH2 0x3702 JUMP JUMPDEST SWAP3 POP PUSH1 0xA0 DUP10 ADD CALLDATALOAD SWAP2 POP PUSH1 0xC0 DUP10 ADD CALLDATALOAD SWAP1 POP SWAP3 SWAP6 SWAP9 POP SWAP3 SWAP6 SWAP9 SWAP1 SWAP4 SWAP7 POP JUMP JUMPDEST PUSH1 0x0 DUP1 PUSH1 0x0 DUP1 PUSH1 0x0 DUP1 PUSH1 0x0 PUSH1 0xC0 DUP9 DUP11 SUB SLT ISZERO PUSH2 0x37B6 JUMPI PUSH1 0x0 DUP1 REVERT JUMPDEST DUP8 CALLDATALOAD SWAP7 POP PUSH1 0x20 DUP9 ADD CALLDATALOAD SWAP6 POP PUSH1 0x40 DUP9 ADD CALLDATALOAD PUSH8 0xFFFFFFFFFFFFFFFF DUP2 GT ISZERO PUSH2 0x37DB JUMPI PUSH1 0x0 DUP1 REVERT JUMPDEST PUSH2 0x37E7 DUP11 DUP3 DUP12 ADD PUSH2 0x339E JUMP JUMPDEST SWAP9 SWAP12 SWAP8 SWAP11 POP SWAP9 PUSH1 0x60 DUP2 ADD CALLDATALOAD SWAP8 PUSH1 0x80 DUP3 ADD CALLDATALOAD SWAP8 POP PUSH1 0xA0 SWAP1 SWAP2 ADD CALLDATALOAD SWAP6 POP SWAP4 POP POP POP POP JUMP JUMPDEST PUSH1 0x0 DUP1 PUSH1 0x40 DUP4 DUP6 SUB SLT ISZERO PUSH2 0x381C JUMPI PUSH1 0x0 DUP1 REVERT JUMPDEST POP POP DUP1 CALLDATALOAD SWAP3 PUSH1 0x20 SWAP1 SWAP2 ADD CALLDATALOAD SWAP2 POP JUMP JUMPDEST PUSH1 0x0 DUP1 PUSH1 0x0 DUP1 PUSH1 0x0 DUP1 PUSH1 0xC0 DUP8 DUP10 SUB SLT ISZERO PUSH2 0x3844 JUMPI PUSH1 0x0 DUP1 REVERT JUMPDEST DUP7 CALLDATALOAD SWAP6 POP PUSH1 0x20 DUP8 ADD CALLDATALOAD SWAP5 POP PUSH1 0x40 DUP8 ADD CALLDATALOAD SWAP4 POP PUSH2 0x3862 PUSH1 0x60 DUP9 ADD PUSH2 0x3702 JUMP JUMPDEST SWAP3 POP PUSH1 0x80 DUP8 ADD CALLDATALOAD SWAP2 POP PUSH1 0xA0 DUP8 ADD CALLDATALOAD SWAP1 POP SWAP3 SWAP6 POP SWAP3 SWAP6 POP SWAP3 SWAP6 JUMP JUMPDEST PUSH1 0x0 DUP1 PUSH1 0x0 DUP1 PUSH1 0x0 PUSH1 0x80 DUP7 DUP9 SUB SLT ISZERO PUSH2 0x3894 JUMPI PUSH1 0x0 DUP1 REVERT JUMPDEST DUP6 CALLDATALOAD SWAP5 POP PUSH1 0x20 DUP7 ADD CALLDATALOAD PUSH8 0xFFFFFFFFFFFFFFFF DUP2 GT ISZERO PUSH2 0x38B2 JUMPI PUSH1 0x0 DUP1 REVERT JUMPDEST PUSH2 0x38BE DUP9 DUP3 DUP10 ADD PUSH2 0x339E JUMP JUMPDEST SWAP7 SWAP10 SWAP1 SWAP9 POP SWAP6 SWAP7 PUSH1 0x40 DUP2 ADD CALLDATALOAD SWAP7 PUSH1 0x60 SWAP1 SWAP2 ADD CALLDATALOAD SWAP6 POP SWAP4 POP POP POP POP JUMP JUMPDEST PUSH1 0x40 DUP2 MSTORE DUP3 PUSH1 0x40 DUP3 ADD MSTORE DUP3 DUP5 PUSH1 0x60 DUP4 ADD CALLDATACOPY PUSH1 0x0 PUSH1 0x60 DUP5 DUP4 ADD ADD MSTORE PUSH1 0x0 PUSH1 0x60 PUSH32 0xFFFFFFFFFFFFFFFFFFFFFFFFFFFFFFFFFFFFFFFFFFFFFFFFFFFFFFFFFFFFFFE0 PUSH1 0x1F DUP7 ADD AND DUP4 ADD ADD SWAP1 POP DUP3 PUSH1 0x20 DUP4 ADD MSTORE SWAP5 SWAP4 POP POP POP POP JUMP JUMPDEST PUSH1 0x0 PUSH1 0x20 DUP3 DUP5 SUB SLT ISZERO PUSH2 0x3943 JUMPI PUSH1 0x0 DUP1 REVERT JUMPDEST POP MLOAD SWAP2 SWAP1 POP JUMP JUMPDEST PUSH1 0x0 PUSH1 0x20 DUP3 DUP5 SUB SLT ISZERO PUSH2 0x395C JUMPI PUSH1 0x0 DUP1 REVERT JUMPDEST DUP2 MLOAD PUSH2 0x34FD DUP2 PUSH2 0x348E JUMP JUMPDEST PUSH32 0x4E487B7100000000000000000000000000000000000000000000000000000000 PUSH1 0x0 MSTORE PUSH1 0x11 PUSH1 0x4 MSTORE PUSH1 0x24 PUSH1 0x0 REVERT JUMPDEST DUP1 DUP3 ADD DUP1 DUP3 GT ISZERO PUSH2 0x18D2 JUMPI PUSH2 0x18D2 PUSH2 0x3967 JUMP JUMPDEST PUSH32 0x4E487B7100000000000000000000000000000000000000000000000000000000 PUSH1 0x0 MSTORE PUSH1 0x32 PUSH1 0x4 MSTORE PUSH1 0x24 PUSH1 0x0 REVERT JUMPDEST PUSH1 0x0 PUSH32 0xFFFFFFFFFFFFFFFFFFFFFFFFFFFFFFFFFFFFFFFFFFFFFFFFFFFFFFFFFFFFFFFF DUP3 SUB PUSH2 0x3A09 JUMPI PUSH2 0x3A09 PUSH2 0x3967 JUMP JUMPDEST POP PUSH1 0x1 ADD SWAP1 JUMP JUMPDEST PUSH1 0x20 DUP2 MSTORE DUP2 PUSH1 0x20 DUP3 ADD MSTORE PUSH1 0x0 PUSH32 0x7FFFFFFFFFFFFFFFFFFFFFFFFFFFFFFFFFFFFFFFFFFFFFFFFFFFFFFFFFFFFFF DUP4 GT ISZERO PUSH2 0x3A49 JUMPI PUSH1 0x0 DUP1 REVERT JUMPDEST DUP3 PUSH1 0x5 SHL DUP1 DUP6 PUSH1 0x40 DUP6 ADD CALLDATACOPY SWAP2 SWAP1 SWAP2 ADD PUSH1 0x40 ADD SWAP4 SWAP3 POP POP POP JUMP JUMPDEST DUP2 DUP2 SUB DUP2 DUP2 GT ISZERO PUSH2 0x18D2 JUMPI PUSH2 0x18D2 PUSH2 0x3967 JUMP JUMPDEST PUSH32 0x4E487B7100000000000000000000000000000000000000000000000000000000 PUSH1 0x0 MSTORE PUSH1 0x21 PUSH1 0x4 MSTORE PUSH1 0x24 PUSH1 0x0 REVERT JUMPDEST PUSH1 0x0 JUMPDEST DUP4 DUP2 LT ISZERO PUSH2 0x3ABF JUMPI DUP2 DUP2 ADD MLOAD DUP4 DUP3 ADD MSTORE PUSH1 0x20 ADD PUSH2 0x3AA7 JUMP JUMPDEST POP POP PUSH1 0x0 SWAP2 ADD MSTORE JUMP JUMPDEST PUSH1 0x0 DUP3 MLOAD PUSH2 0x3ADA DUP2 DUP5 PUSH1 0x20 DUP8 ADD PUSH2 0x3AA4 JUMP JUMPDEST SWAP2 SWAP1 SWAP2 ADD SWAP3 SWAP2 POP POP JUMP JUMPDEST PUSH1 0x20 DUP2 MSTORE PUSH1 0x0 DUP3 MLOAD DUP1 PUSH1 0x20 DUP5 ADD MSTORE PUSH2 0x3B03 DUP2 PUSH1 0x40 DUP6 ADD PUSH1 0x20 DUP8 ADD PUSH2 0x3AA4 JUMP JUMPDEST PUSH1 0x1F ADD PUSH32 0xFFFFFFFFFFFFFFFFFFFFFFFFFFFFFFFFFFFFFFFFFFFFFFFFFFFFFFFFFFFFFFE0 AND SWAP2 SWAP1 SWAP2 ADD PUSH1 0x40 ADD SWAP3 SWAP2 POP POP JUMP INVALID COINBASE PUSH5 0x6472657373 GASPRICE KECCAK256 PUSH13 0x6F772D6C6576656C2064656C65 PUSH8 0x6174652063616C6C KECCAK256 PUSH7 0x61696C6564A264 PUSH10 0x70667358221220519B4C PUSH0 PUSH20 0x41050EDBAF546E83A90131CF4F61F4E9D8763836 0xB7 0xC8 OR 0xC0 SDIV DUP7 MULMOD PUSH5 0x736F6C6343 STOP ADDMOD ISZERO STOP CALLER "},"gasEstimates":{"creation":{"codeDepositCost":"3050000","executionCost":"infinite","totalCost":"infinite"},"external":{"ADMIN_ROLE()":"274","DEPOSITOR_ROLE()":"295","REALM_ID_CONTRACT()":"infinite","allowedConsumeReasonCodes(bytes32)":"2560","balanceOf(bytes32,bytes32,string)":"infinite","balanceOf(bytes32,string)":"infinite","balanceOf(bytes32,uint256)":"infinite","balanceOf(uint256)":"infinite","balances(bytes32,uint256,uint256)":"2692","batchAddConsumeReasonCodes(bytes32[])":"infinite","batchRemoveConsumeReasonCodes(bytes32[])":"infinite","consume(bytes32,string,uint256,bytes32)":"infinite","consume(bytes32,string,uint256,bytes32,uint8,bytes32,bytes32)":"infinite","consume(uint256,uint256,bytes32)":"infinite","consume(uint256,uint256,bytes32,uint8,bytes32,bytes32)":"infinite","currentSeason()":"2351","deposit(bytes32,bytes32,string,uint256,uint256,bytes32)":"infinite","deposit(bytes32,uint256,uint256,uint256,bytes32)":"infinite","grantRole(bytes32,address)":"infinite","hasRole(bytes32,address)":"infinite","initialize()":"infinite","initializeV2(uint256)":"52008","nonces(uint256)":"2496","owner()":"infinite","preparePayload(uint256,uint256,bytes32)":"infinite","proxiableUUID()":"infinite","renounceRole(bytes32)":"infinite","revokeRole(bytes32,address)":"infinite","seasons(bytes32)":"2496","setCurrentSeason(bytes32)":"infinite","transferOwnership(address)":"infinite","upgradeTo(address)":"infinite","upgradeToAndCall(address,bytes)":"infinite","val()":"2374"}},"methodIdentifiers":{"ADMIN_ROLE()":"75b238fc","DEPOSITOR_ROLE()":"a3b0b5a3","REALM_ID_CONTRACT()":"2681a28a","allowedConsumeReasonCodes(bytes32)":"f9515962","balanceOf(bytes32,bytes32,string)":"098b6419","balanceOf(bytes32,string)":"794459be","balanceOf(bytes32,uint256)":"ad3b1d48","balanceOf(uint256)":"9cc7f708","balances(bytes32,uint256,uint256)":"51955dfc","batchAddConsumeReasonCodes(bytes32[])":"3f30b00f","batchRemoveConsumeReasonCodes(bytes32[])":"906405a3","consume(bytes32,string,uint256,bytes32)":"e564a0e2","consume(bytes32,string,uint256,bytes32,uint8,bytes32,bytes32)":"99d342ac","consume(uint256,uint256,bytes32)":"d14a5c71","consume(uint256,uint256,bytes32,uint8,bytes32,bytes32)":"dc893ce4","currentSeason()":"bcb39621","deposit(bytes32,bytes32,string,uint256,uint256,bytes32)":"9d70b005","deposit(bytes32,uint256,uint256,uint256,bytes32)":"18ee89f0","grantRole(bytes32,address)":"2f2ff15d","hasRole(bytes32,address)":"91d14854","initialize()":"8129fc1c","initializeV2(uint256)":"5b4e128c","nonces(uint256)":"141a468c","owner()":"8da5cb5b","preparePayload(uint256,uint256,bytes32)":"df00bb24","proxiableUUID()":"52d1902d","renounceRole(bytes32)":"8bb9c5bf","revokeRole(bytes32,address)":"d547741f","seasons(bytes32)":"4529cc1b","setCurrentSeason(bytes32)":"86a8e98a","transferOwnership(address)":"f2fde38b","upgradeTo(address)":"3659cfe6","upgradeToAndCall(address,bytes)":"4f1ef286","val()":"3c6bb436"}},"storageLayout":{"storage":[{"astId":1426,"contract":"contracts/MocaPoints/mock/upgrades/MockMocaPointsUpgrade.sol:MockMocaPointsUpgrade","label":"_initialized","offset":0,"slot":"0","type":"t_uint8"},{"astId":1429,"contract":"contracts/MocaPoints/mock/upgrades/MockMocaPointsUpgrade.sol:MockMocaPointsUpgrade","label":"_initializing","offset":1,"slot":"0","type":"t_bool"},{"astId":1408,"contract":"contracts/MocaPoints/mock/upgrades/MockMocaPointsUpgrade.sol:MockMocaPointsUpgrade","label":"__gap","offset":0,"slot":"1","type":"t_array(t_uint256)50_storage"},{"astId":1723,"contract":"contracts/MocaPoints/mock/upgrades/MockMocaPointsUpgrade.sol:MockMocaPointsUpgrade","label":"__gap","offset":0,"slot":"51","type":"t_array(t_uint256)50_storage"},{"astId":4530,"contract":"contracts/MocaPoints/mock/upgrades/MockMocaPointsUpgrade.sol:MockMocaPointsUpgrade","label":"currentSeason","offset":0,"slot":"101","type":"t_bytes32"},{"astId":4534,"contract":"contracts/MocaPoints/mock/upgrades/MockMocaPointsUpgrade.sol:MockMocaPointsUpgrade","label":"seasons","offset":0,"slot":"102","type":"t_mapping(t_bytes32,t_bool)"},{"astId":4542,"contract":"contracts/MocaPoints/mock/upgrades/MockMocaPointsUpgrade.sol:MockMocaPointsUpgrade","label":"balances","offset":0,"slot":"103","type":"t_mapping(t_bytes32,t_mapping(t_uint256,t_mapping(t_uint256,t_uint256)))"},{"astId":4546,"contract":"contracts/MocaPoints/mock/upgrades/MockMocaPointsUpgrade.sol:MockMocaPointsUpgrade","label":"nonces","offset":0,"slot":"104","type":"t_mapping(t_uint256,t_uint256)"},{"astId":4550,"contract":"contracts/MocaPoints/mock/upgrades/MockMocaPointsUpgrade.sol:MockMocaPointsUpgrade","label":"allowedConsumeReasonCodes","offset":0,"slot":"105","type":"t_mapping(t_bytes32,t_bool)"},{"astId":5523,"contract":"contracts/MocaPoints/mock/upgrades/MockMocaPointsUpgrade.sol:MockMocaPointsUpgrade","label":"val","offset":0,"slot":"106","type":"t_uint256"}],"types":{"t_array(t_uint256)50_storage":{"base":"t_uint256","encoding":"inplace","label":"uint256[50]","numberOfBytes":"1600"},"t_bool":{"encoding":"inplace","label":"bool","numberOfBytes":"1"},"t_bytes32":{"encoding":"inplace","label":"bytes32","numberOfBytes":"32"},"t_mapping(t_bytes32,t_bool)":{"encoding":"mapping","key":"t_bytes32","label":"mapping(bytes32 => bool)","numberOfBytes":"32","value":"t_bool"},"t_mapping(t_bytes32,t_mapping(t_uint256,t_mapping(t_uint256,t_uint256)))":{"encoding":"mapping","key":"t_bytes32","label":"mapping(bytes32 => mapping(uint256 => mapping(uint256 => uint256)))","numberOfBytes":"32","value":"t_mapping(t_uint256,t_mapping(t_uint256,t_uint256))"},"t_mapping(t_uint256,t_mapping(t_uint256,t_uint256))":{"encoding":"mapping","key":"t_uint256","label":"mapping(uint256 => mapping(uint256 => uint256))","numberOfBytes":"32","value":"t_mapping(t_uint256,t_uint256)"},"t_mapping(t_uint256,t_uint256)":{"encoding":"mapping","key":"t_uint256","label":"mapping(uint256 => uint256)","numberOfBytes":"32","value":"t_uint256"},"t_uint256":{"encoding":"inplace","label":"uint256","numberOfBytes":"32"},"t_uint8":{"encoding":"inplace","label":"uint8","numberOfBytes":"1"}}},"userdoc":{"errors":{"ConsumeReasonCodeAlreadyExists(bytes32)":[{"notice":"Thrown when the given consume reason code already exists in the mapping."}],"ConsumeReasonCodeDoesNotExist(bytes32)":[{"notice":"Thrown when the given reason code does not exist in the mapping."}],"ConsumeReasonCodesArrayEmpty()":[{"notice":"Thrown when the given consume reason codes array is empty."}],"IllegalInterfaceId()":[{"notice":"Thrown when setting the illegal interfaceId 0xffffffff."}],"IncorrectSigner(address)":[{"notice":"Thrown when the signer is not the realmId owner."}],"InitializationPhaseAlreadyReached(uint256,uint256)":[{"notice":"Emitted when trying to set a phase value that has already been reached."}],"InsufficientBalance(uint256,uint256)":[{"notice":"Thrown when the realmId does not have enough balance"}],"InvalidRealmIdContractAddress(address)":[{"notice":"Thrown at construction when the given realmId contract address is invalid."}],"InvalidRealmIdVersion(uint256,uint256)":[{"notice":"Thrown when the given realmId version does not match the current realmId version."}],"NotContractOwner(address)":[{"notice":"Thrown when an account is not the contract owner but is required to."}],"NotRoleHolder(bytes32,address)":[{"notice":"Thrown when an account does not have the required role."}],"SeasonAlreadySet(bytes32)":[{"notice":"Thrown when the given season has already been set."}]},"events":{"BatchAddedConsumeReasonCode(bytes32[])":{"notice":"Emitted when one or more reason code(s) are added to the comsume reason code mapping."},"BatchRemovedConsumeReasonCode(bytes32[])":{"notice":"Emitted when one or more reason code(s) are removed from the comsume reason code mapping."},"Consumed(uint256,bytes32,bytes32,address,uint256,uint256,address)":{"notice":"Emitted when an amount is consumed from a balance."},"Deposited(address,bytes32,bytes32,uint256,uint256,uint256)":{"notice":"Emitted when an amount is deposited to a balance."},"OwnershipTransferred(address,address)":{"notice":"Emitted when the contract ownership changes."},"RoleGranted(bytes32,address,address)":{"notice":"Emitted when `role` is granted to `account`."},"RoleRevoked(bytes32,address,address)":{"notice":"Emitted when `role` is revoked from `account`."},"SetCurrentSeason(bytes32)":{"notice":"Emitted when the current season is set."}},"kind":"user","methods":{"balanceOf(bytes32,bytes32,string)":{"notice":"Gets the balance of a realmId for a specified season.The realmId is resolved from the given parent node and name.Applies to the current version of the realmId."},"balanceOf(bytes32,string)":{"notice":"Gets the balance of a realmId.The realmId is resolved from the given parent node and name.Applies to the current version of the realmId.Applies to the current season."},"balanceOf(bytes32,uint256)":{"notice":"Gets the balance of a given realmId for a specified season.Applies to the current version of the realmId."},"balanceOf(uint256)":{"notice":"Gets the balance of a given realmId.Applies to the current version of the realmId.Applies to the current season."},"batchAddConsumeReasonCodes(bytes32[])":{"notice":"Adds one or more reason code(s) to the consume reason code mapping."},"batchRemoveConsumeReasonCodes(bytes32[])":{"notice":"Removes one or more reason code(s) from the consume reason code mapping."},"consume(bytes32,string,uint256,bytes32)":{"notice":"Called by the realmId owner to consume a given amount from the realmId's balance.The realmId is resolved from the given parent node and name.Applies to the current version of the realmId.Applies to the current season."},"consume(bytes32,string,uint256,bytes32,uint8,bytes32,bytes32)":{"notice":"Called with a signature to consume a given amount from the balance of a realmId.The realmId is resolved from the given parent node and name.Applies to the current version of the realmId.Applies to the current season."},"consume(uint256,uint256,bytes32)":{"notice":"Called by the realmId owner to consume a given amount from the given realmId's balance.Applies to the current version of the realmId.Applies to the current season."},"consume(uint256,uint256,bytes32,uint8,bytes32,bytes32)":{"notice":"Called with a signature to consume a given amount from the balance of a given realmId.Applies to the current version of the realmId.Applies to the current season."},"deposit(bytes32,bytes32,string,uint256,uint256,bytes32)":{"notice":"Called by a depoistor to increase the balance of a realmId (with a given version) for a specified season.The realmId is resolved from the given parent node and name."},"deposit(bytes32,uint256,uint256,uint256,bytes32)":{"notice":"Called by a depoistor to increase the balance of a realmId (with a given version) for a specified season."},"grantRole(bytes32,address)":{"notice":"Grants a role to an account."},"hasRole(bytes32,address)":{"notice":"Retrieves whether an account has a role."},"initialize()":{"notice":"Initializes the contract with the provided realmId contract address."},"owner()":{"notice":"Gets the address of the contract owner."},"preparePayload(uint256,uint256,bytes32)":{"notice":"Returns a payload generated from the arguments, current nounce, current season and the given realmId's current version."},"renounceRole(bytes32)":{"notice":"Renounces a role by the sender."},"revokeRole(bytes32,address)":{"notice":"Revokes a role from an account."},"setCurrentSeason(bytes32)":{"notice":"Sets the current season."},"transferOwnership(address)":{"notice":"Sets the address of the new contract owner."}},"version":1}}}}