{
  "_format": "hh-sol-artifact-1",
  "contractName": "MockRealmId",
  "sourceName": "contracts/MocaPoints/mock/realmIdContract/MockRealmId.sol",
  "abi": [
    {
      "inputs": [
        {
          "internalType": "uint256",
          "name": "",
          "type": "uint256"
        }
      ],
      "name": "burnCounts",
      "outputs": [
        {
          "internalType": "uint256",
          "name": "",
          "type": "uint256"
        }
      ],
      "stateMutability": "pure",
      "type": "function"
    },
    {
      "inputs": [
        {
          "internalType": "string",
          "name": "name",
          "type": "string"
        },
        {
          "internalType": "bytes32",
          "name": "parentNode",
          "type": "bytes32"
        }
      ],
      "name": "getTokenId",
      "outputs": [
        {
          "internalType": "uint256",
          "name": "",
          "type": "uint256"
        }
      ],
      "stateMutability": "pure",
      "type": "function"
    },
    {
      "inputs": [
        {
          "internalType": "uint256",
          "name": "",
          "type": "uint256"
        }
      ],
      "name": "ownerOf",
      "outputs": [
        {
          "internalType": "address",
          "name": "",
          "type": "address"
        }
      ],
      "stateMutability": "pure",
      "type": "function"
    }
  ],
  "bytecode": "0x608060405234801561001057600080fd5b506103b2806100206000396000f3fe608060405234801561001057600080fd5b50600436106100415760003560e01c80636352211e14610046578063a9735f9414610097578063cad6b901146100b9575b600080fd5b61006d6100543660046102db565b507390f79bf6eb2c4f870365e785982e1f101e93b90690565b60405173ffffffffffffffffffffffffffffffffffffffff90911681526020015b60405180910390f35b6100ab6100a53660046102db565b50600090565b60405190815260200161008e565b6100ab6100c73660046102f4565b60007f92909c9f0000000000000000000000000000000000000000000000000000000082016102d0576040517f636c61696d657231000000000000000000000000000000000000000000000000602082015260280160405160208183030381529060405280519060200120848460405160200161014592919061036c565b6040516020818303038152906040528051906020012003610168575060016102d4565b6040517f636c61696d65723200000000000000000000000000000000000000000000000060208201526028016040516020818303038152906040528051906020012084846040516020016101bd92919061036c565b60405160208183030381529060405280519060200120036101e0575060026102d4565b6040517f636c61696d657233000000000000000000000000000000000000000000000000602082015260280160405160208183030381529060405280519060200120848460405160200161023592919061036c565b6040516020818303038152906040528051906020012003610258575060036102d4565b6040517f636c61696d65723400000000000000000000000000000000000000000000000060208201526028016040516020818303038152906040528051906020012084846040516020016102ad92919061036c565b60405160208183030381529060405280519060200120036102d0575060046102d4565b50600a5b9392505050565b6000602082840312156102ed57600080fd5b5035919050565b60008060006040848603121561030957600080fd5b833567ffffffffffffffff8082111561032157600080fd5b818601915086601f83011261033557600080fd5b81358181111561034457600080fd5b87602082850101111561035657600080fd5b6020928301989097509590910135949350505050565b818382376000910190815291905056fea2646970667358221220c2e535644922940d149b0cecc5507a99e008f692c1ab518e7ec772354de477c964736f6c63430008150033",
  "linkReferences": {},
  "deployedLinkReferences": {}
}