{
  "_format": "hh-sol-artifact-1",
  "contractName": "MockRealmId",
  "sourceName": "contracts/MocaPoints/mock/realmIdContract/MockRealmId.sol",
  "abi": [
    {
      "inputs": [
        {
          "internalType": "uint256",
          "name": "",
          "type": "uint256"
        }
      ],
      "name": "burnCounts",
      "outputs": [
        {
          "internalType": "uint256",
          "name": "",
          "type": "uint256"
        }
      ],
      "stateMutability": "pure",
      "type": "function"
    },
    {
      "inputs": [
        {
          "internalType": "string",
          "name": "",
          "type": "string"
        },
        {
          "internalType": "bytes32",
          "name": "",
          "type": "bytes32"
        }
      ],
      "name": "getTokenId",
      "outputs": [
        {
          "internalType": "uint256",
          "name": "",
          "type": "uint256"
        }
      ],
      "stateMutability": "pure",
      "type": "function"
    },
    {
      "inputs": [
        {
          "internalType": "uint256",
          "name": "",
          "type": "uint256"
        }
      ],
      "name": "ownerOf",
      "outputs": [
        {
          "internalType": "address",
          "name": "",
          "type": "address"
        }
      ],
      "stateMutability": "pure",
      "type": "function"
    }
  ],
  "bytecode": "0x608060405234801561001057600080fd5b50610197806100206000396000f3fe608060405234801561001057600080fd5b50600436106100415760003560e01c80636352211e14610046578063a9735f9414610097578063cad6b901146100b9575b600080fd5b61006d6100543660046100d0565b507390f79bf6eb2c4f870365e785982e1f101e93b90690565b60405173ffffffffffffffffffffffffffffffffffffffff90911681526020015b60405180910390f35b6100ab6100a53660046100d0565b50600090565b60405190815260200161008e565b6100ab6100c73660046100e9565b600a9392505050565b6000602082840312156100e257600080fd5b5035919050565b6000806000604084860312156100fe57600080fd5b833567ffffffffffffffff8082111561011657600080fd5b818601915086601f83011261012a57600080fd5b81358181111561013957600080fd5b87602082850101111561014b57600080fd5b602092830198909750959091013594935050505056fea264697066735822122022edd2e4b48b76d66fa30f40e805122940acb2aee3f0d87e988853b061bf9d0264736f6c63430008150033",
  "linkReferences": {},
  "deployedLinkReferences": {}
}