{
  "_format": "hh-sol-artifact-1",
  "contractName": "MockRealmId",
  "sourceName": "contracts/MocaPoints/mock/realmIdContract/mockRealmId.sol",
  "abi": [
    {
      "anonymous": false,
      "inputs": [
        {
          "indexed": false,
          "internalType": "address",
          "name": "previousAdmin",
          "type": "address"
        },
        {
          "indexed": false,
          "internalType": "address",
          "name": "newAdmin",
          "type": "address"
        }
      ],
      "name": "AdminChanged",
      "type": "event"
    },
    {
      "anonymous": false,
      "inputs": [
        {
          "indexed": true,
          "internalType": "address",
          "name": "owner",
          "type": "address"
        },
        {
          "indexed": true,
          "internalType": "address",
          "name": "approved",
          "type": "address"
        },
        {
          "indexed": true,
          "internalType": "uint256",
          "name": "tokenId",
          "type": "uint256"
        }
      ],
      "name": "Approval",
      "type": "event"
    },
    {
      "anonymous": false,
      "inputs": [
        {
          "indexed": true,
          "internalType": "address",
          "name": "owner",
          "type": "address"
        },
        {
          "indexed": true,
          "internalType": "address",
          "name": "operator",
          "type": "address"
        },
        {
          "indexed": false,
          "internalType": "bool",
          "name": "approved",
          "type": "bool"
        }
      ],
      "name": "ApprovalForAll",
      "type": "event"
    },
    {
      "anonymous": false,
      "inputs": [
        {
          "indexed": false,
          "internalType": "bytes32",
          "name": "node",
          "type": "bytes32"
        },
        {
          "indexed": false,
          "internalType": "string",
          "name": "uri",
          "type": "string"
        }
      ],
      "name": "BaseTokenURISet",
      "type": "event"
    },
    {
      "anonymous": false,
      "inputs": [
        {
          "indexed": true,
          "internalType": "address",
          "name": "beacon",
          "type": "address"
        }
      ],
      "name": "BeaconUpgraded",
      "type": "event"
    },
    {
      "anonymous": false,
      "inputs": [
        {
          "indexed": true,
          "internalType": "uint256",
          "name": "tokenId",
          "type": "uint256"
        },
        {
          "indexed": false,
          "internalType": "uint256",
          "name": "burnCount",
          "type": "uint256"
        }
      ],
      "name": "Burn",
      "type": "event"
    },
    {
      "anonymous": false,
      "inputs": [
        {
          "indexed": true,
          "internalType": "uint256",
          "name": "tokenId",
          "type": "uint256"
        },
        {
          "indexed": false,
          "internalType": "string",
          "name": "key",
          "type": "string"
        },
        {
          "indexed": false,
          "internalType": "string",
          "name": "value",
          "type": "string"
        }
      ],
      "name": "GatedMetadataChanged",
      "type": "event"
    },
    {
      "anonymous": false,
      "inputs": [
        {
          "indexed": true,
          "internalType": "uint256",
          "name": "tokenId",
          "type": "uint256"
        },
        {
          "indexed": false,
          "internalType": "uint64",
          "name": "newVersion",
          "type": "uint64"
        }
      ],
      "name": "GatedMetadataVersionChanged",
      "type": "event"
    },
    {
      "anonymous": false,
      "inputs": [
        {
          "indexed": false,
          "internalType": "uint8",
          "name": "version",
          "type": "uint8"
        }
      ],
      "name": "Initialized",
      "type": "event"
    },
    {
      "anonymous": false,
      "inputs": [
        {
          "indexed": true,
          "internalType": "uint256",
          "name": "tokenId",
          "type": "uint256"
        },
        {
          "indexed": false,
          "internalType": "string",
          "name": "key",
          "type": "string"
        },
        {
          "indexed": false,
          "internalType": "string",
          "name": "value",
          "type": "string"
        }
      ],
      "name": "MetadataChanged",
      "type": "event"
    },
    {
      "anonymous": false,
      "inputs": [
        {
          "indexed": true,
          "internalType": "uint256",
          "name": "tokenId",
          "type": "uint256"
        },
        {
          "indexed": false,
          "internalType": "uint64",
          "name": "newVersion",
          "type": "uint64"
        }
      ],
      "name": "MetadataVersionChanged",
      "type": "event"
    },
    {
      "anonymous": false,
      "inputs": [
        {
          "indexed": false,
          "internalType": "bytes32",
          "name": "node",
          "type": "bytes32"
        },
        {
          "indexed": true,
          "internalType": "address",
          "name": "middleware",
          "type": "address"
        },
        {
          "indexed": false,
          "internalType": "bytes",
          "name": "data",
          "type": "bytes"
        }
      ],
      "name": "MiddlewareSet",
      "type": "event"
    },
    {
      "anonymous": false,
      "inputs": [
        {
          "indexed": true,
          "internalType": "bytes32",
          "name": "node",
          "type": "bytes32"
        },
        {
          "indexed": false,
          "internalType": "string",
          "name": "label",
          "type": "string"
        },
        {
          "indexed": false,
          "internalType": "bytes32",
          "name": "parentNode",
          "type": "bytes32"
        },
        {
          "indexed": false,
          "internalType": "bool",
          "name": "allowed",
          "type": "bool"
        }
      ],
      "name": "NodeAllowanceChanged",
      "type": "event"
    },
    {
      "anonymous": false,
      "inputs": [
        {
          "indexed": true,
          "internalType": "address",
          "name": "previousOwner",
          "type": "address"
        },
        {
          "indexed": true,
          "internalType": "address",
          "name": "newOwner",
          "type": "address"
        }
      ],
      "name": "OwnershipTransferred",
      "type": "event"
    },
    {
      "anonymous": false,
      "inputs": [
        {
          "indexed": false,
          "internalType": "address",
          "name": "account",
          "type": "address"
        }
      ],
      "name": "Paused",
      "type": "event"
    },
    {
      "anonymous": false,
      "inputs": [
        {
          "indexed": false,
          "internalType": "string",
          "name": "name",
          "type": "string"
        },
        {
          "indexed": false,
          "internalType": "bytes32",
          "name": "parentNode",
          "type": "bytes32"
        },
        {
          "indexed": true,
          "internalType": "uint256",
          "name": "tokenId",
          "type": "uint256"
        },
        {
          "indexed": true,
          "internalType": "address",
          "name": "to",
          "type": "address"
        }
      ],
      "name": "Register",
      "type": "event"
    },
    {
      "anonymous": false,
      "inputs": [
        {
          "indexed": true,
          "internalType": "address",
          "name": "from",
          "type": "address"
        },
        {
          "indexed": true,
          "internalType": "address",
          "name": "to",
          "type": "address"
        },
        {
          "indexed": true,
          "internalType": "uint256",
          "name": "tokenId",
          "type": "uint256"
        }
      ],
      "name": "Transfer",
      "type": "event"
    },
    {
      "anonymous": false,
      "inputs": [
        {
          "indexed": false,
          "internalType": "address",
          "name": "account",
          "type": "address"
        }
      ],
      "name": "Unpaused",
      "type": "event"
    },
    {
      "anonymous": false,
      "inputs": [
        {
          "indexed": true,
          "internalType": "address",
          "name": "implementation",
          "type": "address"
        }
      ],
      "name": "Upgraded",
      "type": "event"
    },
    {
      "inputs": [
        {
          "internalType": "string",
          "name": "label",
          "type": "string"
        },
        {
          "internalType": "bytes32",
          "name": "parentNode",
          "type": "bytes32"
        },
        {
          "internalType": "bool",
          "name": "allow",
          "type": "bool"
        },
        {
          "internalType": "string",
          "name": "baseTokenURI",
          "type": "string"
        },
        {
          "internalType": "address",
          "name": "middleware",
          "type": "address"
        },
        {
          "internalType": "bytes",
          "name": "middlewareData",
          "type": "bytes"
        }
      ],
      "name": "allowNode",
      "outputs": [
        {
          "internalType": "bytes32",
          "name": "allowedNode",
          "type": "bytes32"
        }
      ],
      "stateMutability": "nonpayable",
      "type": "function"
    },
    {
      "inputs": [
        {
          "internalType": "bytes32",
          "name": "",
          "type": "bytes32"
        }
      ],
      "name": "allowedParentNodes",
      "outputs": [
        {
          "internalType": "bool",
          "name": "",
          "type": "bool"
        }
      ],
      "stateMutability": "view",
      "type": "function"
    },
    {
      "inputs": [
        {
          "internalType": "address",
          "name": "to",
          "type": "address"
        },
        {
          "internalType": "uint256",
          "name": "tokenId",
          "type": "uint256"
        }
      ],
      "name": "approve",
      "outputs": [],
      "stateMutability": "nonpayable",
      "type": "function"
    },
    {
      "inputs": [
        {
          "internalType": "string",
          "name": "_name",
          "type": "string"
        },
        {
          "internalType": "bytes32",
          "name": "parentNode",
          "type": "bytes32"
        }
      ],
      "name": "available",
      "outputs": [
        {
          "internalType": "bool",
          "name": "",
          "type": "bool"
        }
      ],
      "stateMutability": "view",
      "type": "function"
    },
    {
      "inputs": [
        {
          "internalType": "address",
          "name": "owner",
          "type": "address"
        }
      ],
      "name": "balanceOf",
      "outputs": [
        {
          "internalType": "uint256",
          "name": "",
          "type": "uint256"
        }
      ],
      "stateMutability": "view",
      "type": "function"
    },
    {
      "inputs": [
        {
          "internalType": "bytes32",
          "name": "",
          "type": "bytes32"
        }
      ],
      "name": "baseTokenURIs",
      "outputs": [
        {
          "internalType": "string",
          "name": "",
          "type": "string"
        }
      ],
      "stateMutability": "view",
      "type": "function"
    },
    {
      "inputs": [
        {
          "internalType": "uint256",
          "name": "tokenId",
          "type": "uint256"
        },
        {
          "components": [
            {
              "internalType": "string",
              "name": "key",
              "type": "string"
            },
            {
              "internalType": "string",
              "name": "value",
              "type": "string"
            }
          ],
          "internalType": "struct DataTypes.MetadataPair[]",
          "name": "pairs",
          "type": "tuple[]"
        }
      ],
      "name": "batchSetGatedMetadatas",
      "outputs": [],
      "stateMutability": "nonpayable",
      "type": "function"
    },
    {
      "inputs": [
        {
          "internalType": "uint256",
          "name": "tokenId",
          "type": "uint256"
        },
        {
          "components": [
            {
              "internalType": "string",
              "name": "key",
              "type": "string"
            },
            {
              "internalType": "string",
              "name": "value",
              "type": "string"
            }
          ],
          "internalType": "struct DataTypes.MetadataPair[]",
          "name": "pairs",
          "type": "tuple[]"
        }
      ],
      "name": "batchSetMetadatas",
      "outputs": [],
      "stateMutability": "nonpayable",
      "type": "function"
    },
    {
      "inputs": [
        {
          "internalType": "uint256",
          "name": "tokenId",
          "type": "uint256"
        }
      ],
      "name": "burn",
      "outputs": [],
      "stateMutability": "nonpayable",
      "type": "function"
    },
    {
      "inputs": [
        {
          "internalType": "uint256",
          "name": "",
          "type": "uint256"
        }
      ],
      "name": "burnCounts",
      "outputs": [
        {
          "internalType": "uint256",
          "name": "",
          "type": "uint256"
        }
      ],
      "stateMutability": "view",
      "type": "function"
    },
    {
      "inputs": [
        {
          "internalType": "uint256",
          "name": "tokenId",
          "type": "uint256"
        }
      ],
      "name": "clearGatedMetadatas",
      "outputs": [],
      "stateMutability": "nonpayable",
      "type": "function"
    },
    {
      "inputs": [
        {
          "internalType": "uint256",
          "name": "tokenId",
          "type": "uint256"
        }
      ],
      "name": "clearMetadatas",
      "outputs": [],
      "stateMutability": "nonpayable",
      "type": "function"
    },
    {
      "inputs": [
        {
          "internalType": "uint256",
          "name": "",
          "type": "uint256"
        }
      ],
      "name": "gatedMetadataVersions",
      "outputs": [
        {
          "internalType": "uint64",
          "name": "",
          "type": "uint64"
        }
      ],
      "stateMutability": "view",
      "type": "function"
    },
    {
      "inputs": [
        {
          "internalType": "uint256",
          "name": "tokenId",
          "type": "uint256"
        }
      ],
      "name": "getApproved",
      "outputs": [
        {
          "internalType": "address",
          "name": "",
          "type": "address"
        }
      ],
      "stateMutability": "view",
      "type": "function"
    },
    {
      "inputs": [
        {
          "internalType": "uint256",
          "name": "tokenId",
          "type": "uint256"
        },
        {
          "internalType": "string",
          "name": "key",
          "type": "string"
        }
      ],
      "name": "getGatedMetadata",
      "outputs": [
        {
          "internalType": "string",
          "name": "",
          "type": "string"
        }
      ],
      "stateMutability": "view",
      "type": "function"
    },
    {
      "inputs": [
        {
          "internalType": "uint256",
          "name": "tokenId",
          "type": "uint256"
        },
        {
          "internalType": "string",
          "name": "key",
          "type": "string"
        }
      ],
      "name": "getMetadata",
      "outputs": [
        {
          "internalType": "string",
          "name": "",
          "type": "string"
        }
      ],
      "stateMutability": "view",
      "type": "function"
    },
    {
      "inputs": [
        {
          "internalType": "string",
          "name": "_name",
          "type": "string"
        },
        {
          "internalType": "bytes32",
          "name": "parentNode",
          "type": "bytes32"
        }
      ],
      "name": "getTokenId",
      "outputs": [
        {
          "internalType": "uint256",
          "name": "",
          "type": "uint256"
        }
      ],
      "stateMutability": "pure",
      "type": "function"
    },
    {
      "inputs": [
        {
          "internalType": "string",
          "name": "_tokenName",
          "type": "string"
        },
        {
          "internalType": "string",
          "name": "_tokenSymbol",
          "type": "string"
        },
        {
          "internalType": "address",
          "name": "_owner",
          "type": "address"
        }
      ],
      "name": "initialize",
      "outputs": [],
      "stateMutability": "nonpayable",
      "type": "function"
    },
    {
      "inputs": [
        {
          "internalType": "address",
          "name": "owner",
          "type": "address"
        },
        {
          "internalType": "address",
          "name": "operator",
          "type": "address"
        }
      ],
      "name": "isApprovedForAll",
      "outputs": [
        {
          "internalType": "bool",
          "name": "",
          "type": "bool"
        }
      ],
      "stateMutability": "view",
      "type": "function"
    },
    {
      "inputs": [
        {
          "internalType": "uint256",
          "name": "",
          "type": "uint256"
        }
      ],
      "name": "metadataVersions",
      "outputs": [
        {
          "internalType": "uint64",
          "name": "",
          "type": "uint64"
        }
      ],
      "stateMutability": "view",
      "type": "function"
    },
    {
      "inputs": [
        {
          "internalType": "bytes32",
          "name": "",
          "type": "bytes32"
        }
      ],
      "name": "middlewares",
      "outputs": [
        {
          "internalType": "address",
          "name": "",
          "type": "address"
        }
      ],
      "stateMutability": "view",
      "type": "function"
    },
    {
      "inputs": [],
      "name": "name",
      "outputs": [
        {
          "internalType": "string",
          "name": "",
          "type": "string"
        }
      ],
      "stateMutability": "view",
      "type": "function"
    },
    {
      "inputs": [],
      "name": "owner",
      "outputs": [
        {
          "internalType": "address",
          "name": "",
          "type": "address"
        }
      ],
      "stateMutability": "view",
      "type": "function"
    },
    {
      "inputs": [
        {
          "internalType": "uint256",
          "name": "",
          "type": "uint256"
        }
      ],
      "name": "ownerOf",
      "outputs": [
        {
          "internalType": "address",
          "name": "",
          "type": "address"
        }
      ],
      "stateMutability": "pure",
      "type": "function"
    },
    {
      "inputs": [
        {
          "internalType": "uint256",
          "name": "",
          "type": "uint256"
        }
      ],
      "name": "parents",
      "outputs": [
        {
          "internalType": "bytes32",
          "name": "",
          "type": "bytes32"
        }
      ],
      "stateMutability": "view",
      "type": "function"
    },
    {
      "inputs": [],
      "name": "pause",
      "outputs": [],
      "stateMutability": "nonpayable",
      "type": "function"
    },
    {
      "inputs": [],
      "name": "paused",
      "outputs": [
        {
          "internalType": "bool",
          "name": "",
          "type": "bool"
        }
      ],
      "stateMutability": "view",
      "type": "function"
    },
    {
      "inputs": [],
      "name": "proxiableUUID",
      "outputs": [
        {
          "internalType": "bytes32",
          "name": "",
          "type": "bytes32"
        }
      ],
      "stateMutability": "view",
      "type": "function"
    },
    {
      "inputs": [
        {
          "internalType": "string",
          "name": "_name",
          "type": "string"
        },
        {
          "internalType": "bytes32",
          "name": "parentNode",
          "type": "bytes32"
        },
        {
          "internalType": "address",
          "name": "to",
          "type": "address"
        },
        {
          "internalType": "bytes",
          "name": "preData",
          "type": "bytes"
        }
      ],
      "name": "register",
      "outputs": [
        {
          "internalType": "uint256",
          "name": "",
          "type": "uint256"
        }
      ],
      "stateMutability": "nonpayable",
      "type": "function"
    },
    {
      "inputs": [],
      "name": "renounceOwnership",
      "outputs": [],
      "stateMutability": "nonpayable",
      "type": "function"
    },
    {
      "inputs": [
        {
          "internalType": "address",
          "name": "from",
          "type": "address"
        },
        {
          "internalType": "address",
          "name": "to",
          "type": "address"
        },
        {
          "internalType": "uint256",
          "name": "tokenId",
          "type": "uint256"
        }
      ],
      "name": "safeTransferFrom",
      "outputs": [],
      "stateMutability": "nonpayable",
      "type": "function"
    },
    {
      "inputs": [
        {
          "internalType": "address",
          "name": "from",
          "type": "address"
        },
        {
          "internalType": "address",
          "name": "to",
          "type": "address"
        },
        {
          "internalType": "uint256",
          "name": "tokenId",
          "type": "uint256"
        },
        {
          "internalType": "bytes",
          "name": "data",
          "type": "bytes"
        }
      ],
      "name": "safeTransferFrom",
      "outputs": [],
      "stateMutability": "nonpayable",
      "type": "function"
    },
    {
      "inputs": [
        {
          "internalType": "address",
          "name": "operator",
          "type": "address"
        },
        {
          "internalType": "bool",
          "name": "approved",
          "type": "bool"
        }
      ],
      "name": "setApprovalForAll",
      "outputs": [],
      "stateMutability": "nonpayable",
      "type": "function"
    },
    {
      "inputs": [
        {
          "internalType": "bytes32",
          "name": "node",
          "type": "bytes32"
        },
        {
          "internalType": "string",
          "name": "uri",
          "type": "string"
        }
      ],
      "name": "setBaseTokenURI",
      "outputs": [],
      "stateMutability": "nonpayable",
      "type": "function"
    },
    {
      "inputs": [
        {
          "internalType": "bytes32",
          "name": "node",
          "type": "bytes32"
        },
        {
          "internalType": "address",
          "name": "_middleware",
          "type": "address"
        },
        {
          "internalType": "bytes",
          "name": "data",
          "type": "bytes"
        }
      ],
      "name": "setMiddleware",
      "outputs": [],
      "stateMutability": "nonpayable",
      "type": "function"
    },
    {
      "inputs": [
        {
          "internalType": "bytes4",
          "name": "interfaceId",
          "type": "bytes4"
        }
      ],
      "name": "supportsInterface",
      "outputs": [
        {
          "internalType": "bool",
          "name": "",
          "type": "bool"
        }
      ],
      "stateMutability": "view",
      "type": "function"
    },
    {
      "inputs": [],
      "name": "symbol",
      "outputs": [
        {
          "internalType": "string",
          "name": "",
          "type": "string"
        }
      ],
      "stateMutability": "view",
      "type": "function"
    },
    {
      "inputs": [
        {
          "internalType": "uint256",
          "name": "tokenId",
          "type": "uint256"
        }
      ],
      "name": "tokenURI",
      "outputs": [
        {
          "internalType": "string",
          "name": "",
          "type": "string"
        }
      ],
      "stateMutability": "view",
      "type": "function"
    },
    {
      "inputs": [],
      "name": "totalSupply",
      "outputs": [
        {
          "internalType": "uint256",
          "name": "",
          "type": "uint256"
        }
      ],
      "stateMutability": "view",
      "type": "function"
    },
    {
      "inputs": [
        {
          "internalType": "address",
          "name": "from",
          "type": "address"
        },
        {
          "internalType": "address",
          "name": "to",
          "type": "address"
        },
        {
          "internalType": "uint256",
          "name": "tokenId",
          "type": "uint256"
        }
      ],
      "name": "transferFrom",
      "outputs": [],
      "stateMutability": "nonpayable",
      "type": "function"
    },
    {
      "inputs": [
        {
          "internalType": "address",
          "name": "newOwner",
          "type": "address"
        }
      ],
      "name": "transferOwnership",
      "outputs": [],
      "stateMutability": "nonpayable",
      "type": "function"
    },
    {
      "inputs": [],
      "name": "unpause",
      "outputs": [],
      "stateMutability": "nonpayable",
      "type": "function"
    },
    {
      "inputs": [
        {
          "internalType": "address",
          "name": "newImplementation",
          "type": "address"
        }
      ],
      "name": "upgradeTo",
      "outputs": [],
      "stateMutability": "nonpayable",
      "type": "function"
    },
    {
      "inputs": [
        {
          "internalType": "address",
          "name": "newImplementation",
          "type": "address"
        },
        {
          "internalType": "bytes",
          "name": "data",
          "type": "bytes"
        }
      ],
      "name": "upgradeToAndCall",
      "outputs": [],
      "stateMutability": "payable",
      "type": "function"
    }
  ],
  "bytecode": "0x60a06040523060805234801561001457600080fd5b5060805161535961004c600039600081816113ff015281816114af0152818161179701528181611847015261198c01526153596000f3fe6080604052600436106102e75760003560e01c80636352211e11610184578063a9735f94116100d6578063cb4799f21161008a578063e985e9c511610064578063e985e9c5146108b8578063f2fde38b1461090e578063f97c6dae1461092e57600080fd5b8063cb4799f214610840578063d619cee514610860578063d9a9eb241461088057600080fd5b8063b88d4fde116100bb578063b88d4fde146107e0578063c87b56dd14610800578063cad6b9011461082057600080fd5b8063a9735f9414610792578063b33dab09146107c057600080fd5b8063898572a61161013857806395d89b411161011257806395d89b411461073d57806396977c1b14610752578063a22cb4651461077257600080fd5b8063898572a6146106c45780638da5cb5b146106f25780638e73361e1461071d57600080fd5b8063715018a611610169578063715018a61461067a5780637c7efe6b1461068f5780638456cb59146106af57600080fd5b80636352211e1461062657806370a082311461065a57600080fd5b806323b872dd1161023d57806342842e0e116101f157806352d1902d116101cb57806352d1902d146105b457806357ad9c90146105c95780635c975abb1461060d57600080fd5b806342842e0e1461056157806342966c68146105815780634f1ef286146105a157600080fd5b806326ec9ad81161022257806326ec9ad81461050c5780633659cfe61461052c5780633f4ba83a1461054c57600080fd5b806323b872dd146104cc5780632595eacb146104ec57600080fd5b8063081812fc1161029f57806316404d011161027957806316404d011461045b57806318160ddd1461048c5780631f0509e0146104ac57600080fd5b8063081812fc146103a5578063095ea7b3146103ea5780630ae16e531461040a57600080fd5b80630739d191116102d05780630739d19114610343578063077f224a1461036357806307b472c41461038557600080fd5b806301ffc9a7146102ec57806306fdde0314610321575b600080fd5b3480156102f857600080fd5b5061030c610307366004614377565b61094e565b60405190151581526020015b60405180910390f35b34801561032d57600080fd5b50610336610a33565b6040516103189190614402565b34801561034f57600080fd5b5061033661035e366004614521565b610ac5565b34801561036f57600080fd5b5061038361037e3660046145da565b610ba6565b005b34801561039157600080fd5b506103836103a036600461465b565b610dd6565b3480156103b157600080fd5b506103c56103c036600461465b565b610e53565b60405173ffffffffffffffffffffffffffffffffffffffff9091168152602001610318565b3480156103f657600080fd5b50610383610405366004614674565b610e87565b34801561041657600080fd5b5061044261042536600461465b565b6101626020526000908152604090205467ffffffffffffffff1681565b60405167ffffffffffffffff9091168152602001610318565b34801561046757600080fd5b5061030c61047636600461465b565b61018d6020526000908152604090205460ff1681565b34801561049857600080fd5b5061018f545b604051908152602001610318565b3480156104b857600080fd5b506103836104c736600461469e565b611013565b3480156104d857600080fd5b506103836104e73660046146ea565b611076565b3480156104f857600080fd5b5061030c610507366004614726565b6110ef565b34801561051857600080fd5b50610383610527366004614772565b611283565b34801561053857600080fd5b506103836105473660046147f1565b6113e8565b34801561055857600080fd5b506103836115ed565b34801561056d57600080fd5b5061038361057c3660046146ea565b6115ff565b34801561058d57600080fd5b5061038361059c36600461465b565b611678565b6103836105af36600461480c565b611780565b3480156105c057600080fd5b5061049e611972565b3480156105d557600080fd5b506103c56105e436600461465b565b61018c6020526000908152604090205473ffffffffffffffffffffffffffffffffffffffff1681565b34801561061957600080fd5b5061012d5460ff1661030c565b34801561063257600080fd5b506103c561064136600461465b565b507390f79bf6eb2c4f870365e785982e1f101e93b90690565b34801561066657600080fd5b5061049e6106753660046147f1565b611a5e565b34801561068657600080fd5b50610383611b2c565b34801561069b57600080fd5b5061049e6106aa366004614844565b611b3e565b3480156106bb57600080fd5b50610383611c80565b3480156106d057600080fd5b5061049e6106df36600461465b565b61018e6020526000908152604090205481565b3480156106fe57600080fd5b5060975473ffffffffffffffffffffffffffffffffffffffff166103c5565b34801561072957600080fd5b5061038361073836600461465b565b611c90565b34801561074957600080fd5b50610336611d09565b34801561075e57600080fd5b5061033661076d36600461465b565b611d18565b34801561077e57600080fd5b5061038361078d3660046148df565b611db3565b34801561079e57600080fd5b5061049e6107ad36600461465b565b6101906020526000908152604090205481565b3480156107cc57600080fd5b506103836107db3660046149a0565b611dbe565b3480156107ec57600080fd5b506103836107fb366004614a6f565b611f13565b34801561080c57600080fd5b5061033661081b36600461465b565b611f8d565b34801561082c57600080fd5b5061049e61083b366004614726565b612068565b34801561084c57600080fd5b5061033661085b36600461469e565b6120da565b34801561086c57600080fd5b5061049e61087b366004614ad7565b6121be565b34801561088c57600080fd5b5061044261089b36600461465b565b6101606020526000908152604090205467ffffffffffffffff1681565b3480156108c457600080fd5b5061030c6108d3366004614ba5565b73ffffffffffffffffffffffffffffffffffffffff9182166000908152606a6020908152604080832093909416825291909152205460ff1690565b34801561091a57600080fd5b506103836109293660046147f1565b6122c9565b34801561093a57600080fd5b50610383610949366004614bd8565b61237d565b60007fffffffff0000000000000000000000000000000000000000000000000000000082167f80ac58cd0000000000000000000000000000000000000000000000000000000014806109e157507fffffffff0000000000000000000000000000000000000000000000000000000082167f5b5e139f00000000000000000000000000000000000000000000000000000000145b80610a2d57507f01ffc9a7000000000000000000000000000000000000000000000000000000007fffffffff000000000000000000000000000000000000000000000000000000008316145b92915050565b606060658054610a4290614c32565b80601f0160208091040260200160405190810160405280929190818152602001828054610a6e90614c32565b8015610abb5780601f10610a9057610100808354040283529160200191610abb565b820191906000526020600020905b815481529060010190602001808311610a9e57829003601f168201915b5050505050905090565b6000828152610162602090815260408083205467ffffffffffffffff168352610161825280832085845290915290819020905160609190610b07908490614c85565b90815260200160405180910390208054610b2090614c32565b80601f0160208091040260200160405190810160405280929190818152602001828054610b4c90614c32565b8015610b995780601f10610b6e57610100808354040283529160200191610b99565b820191906000526020600020905b815481529060010190602001808311610b7c57829003601f168201915b5050505050905092915050565b600054610100900460ff1615808015610bc65750600054600160ff909116105b80610be05750303b158015610be0575060005460ff166001145b610c71576040517f08c379a000000000000000000000000000000000000000000000000000000000815260206004820152602e60248201527f496e697469616c697a61626c653a20636f6e747261637420697320616c72656160448201527f647920696e697469616c697a656400000000000000000000000000000000000060648201526084015b60405180910390fd5b600080547fffffffffffffffffffffffffffffffffffffffffffffffffffffffffffffff001660011790558015610ccf57600080547fffffffffffffffffffffffffffffffffffffffffffffffffffffffffffff00ff166101001790555b610d4286868080601f01602080910402602001604051908101604052809392919081815260200183838082843760009201919091525050604080516020601f8a0181900481028201810190925288815292508891508790819084018382808284376000920191909152506124b992505050565b610d4a61255a565b610d526125f1565b610d5a612690565b610d6261272f565b610d6b826127b5565b8015610dce57600080547fffffffffffffffffffffffffffffffffffffffffffffffffffffffffffff00ff169055604051600181527f7f26b83ff96e1f2b6a682f133852f6798a09c465da95921460cefb38474024989060200160405180910390a15b505050505050565b80610de08161282c565b610e46576040517f08c379a000000000000000000000000000000000000000000000000000000000815260206004820152601560248201527f4d455441444154415f554e415554484f524953454400000000000000000000006044820152606401610c68565b610e4f82612838565b5050565b6000610e5e826128c5565b5060009081526069602052604090205473ffffffffffffffffffffffffffffffffffffffff1690565b6000610e9282612950565b90508073ffffffffffffffffffffffffffffffffffffffff168373ffffffffffffffffffffffffffffffffffffffff1603610f4f576040517f08c379a000000000000000000000000000000000000000000000000000000000815260206004820152602160248201527f4552433732313a20617070726f76616c20746f2063757272656e74206f776e6560448201527f72000000000000000000000000000000000000000000000000000000000000006064820152608401610c68565b3373ffffffffffffffffffffffffffffffffffffffff82161480610f785750610f7881336108d3565b611004576040517f08c379a000000000000000000000000000000000000000000000000000000000815260206004820152603d60248201527f4552433732313a20617070726f76652063616c6c6572206973206e6f7420746f60448201527f6b656e206f776e6572206f7220617070726f76656420666f7220616c6c0000006064820152608401610c68565b61100e83836129dc565b505050565b61101b612a7c565b600083815261018b60205260409020611035828483614ce7565b507fe091ab4d07f328dfaf2dcd8b50b82e02d05cf20d71197646ac6b2611395947b783838360405161106993929190614e4a565b60405180910390a1505050565b61012d5460ff16156110e4576040517f08c379a000000000000000000000000000000000000000000000000000000000815260206004820152601460248201527f5452414e534645525f4e4f545f414c4c4f5745440000000000000000000000006044820152606401610c68565b61100e838383612afd565b600081815261018d602052604081205460ff16611168576040517f08c379a000000000000000000000000000000000000000000000000000000000815260206004820152601060248201527f4e4f44455f4e4f545f414c4c4f574544000000000000000000000000000000006044820152606401610c68565b6000611175858585612068565b60008181526067602052604090205490915073ffffffffffffffffffffffffffffffffffffffff1661127657600083815261018c602052604090205473ffffffffffffffffffffffffffffffffffffffff16801561126b576040517f7ac3e6ea00000000000000000000000000000000000000000000000000000000815273ffffffffffffffffffffffffffffffffffffffff821690637ac3e6ea906112219089908990600401614e6d565b602060405180830381865afa15801561123e573d6000803e3d6000fd5b505050506040513d601f19601f820116820180604052508101906112629190614e81565b9250505061127c565b60019250505061127c565b60009150505b9392505050565b8261128d8161282c565b6112f3576040517f08c379a000000000000000000000000000000000000000000000000000000000815260206004820152601560248201527f4d455441444154415f554e415554484f524953454400000000000000000000006044820152606401610c68565b60005b828110156113e157600084848381811061131257611312614e9e565b90506020028101906113249190614ecd565b61132d90614f01565b6020808201516000898152610160835260408082205467ffffffffffffffff16825261015f84528082208b8352909352829020835192519394509092909161137491614c85565b9081526020016040518091039020908161138e9190614f0d565b508051602082015160405188927f601d4b2f0f06545c0f60d4f70e3bc5d78db246f7b66aaeb1ea23a56aa854c670926113c692615027565b60405180910390a250806113d98161507b565b9150506112f6565b5050505050565b73ffffffffffffffffffffffffffffffffffffffff7f00000000000000000000000000000000000000000000000000000000000000001630036114ad576040517f08c379a000000000000000000000000000000000000000000000000000000000815260206004820152602c60248201527f46756e6374696f6e206d7573742062652063616c6c6564207468726f7567682060448201527f64656c656761746563616c6c00000000000000000000000000000000000000006064820152608401610c68565b7f000000000000000000000000000000000000000000000000000000000000000073ffffffffffffffffffffffffffffffffffffffff166115227f360894a13ba1a3210667c828492db98dca3e2076cc3735a920a3ca505d382bbc5473ffffffffffffffffffffffffffffffffffffffff1690565b73ffffffffffffffffffffffffffffffffffffffff16146115c5576040517f08c379a000000000000000000000000000000000000000000000000000000000815260206004820152602c60248201527f46756e6374696f6e206d7573742062652063616c6c6564207468726f7567682060448201527f6163746976652070726f787900000000000000000000000000000000000000006064820152608401610c68565b6115ce81612b9e565b604080516000808252602082019092526115ea91839190612c3b565b50565b6115f5612a7c565b6115fd612e3a565b565b61012d5460ff161561166d576040517f08c379a000000000000000000000000000000000000000000000000000000000815260206004820152601460248201527f5452414e534645525f4e4f545f414c4c4f5745440000000000000000000000006044820152606401610c68565b61100e838383612e92565b6116823382612ead565b6116e8576040517f08c379a000000000000000000000000000000000000000000000000000000000815260206004820152600c60248201527f554e415554484f52495a454400000000000000000000000000000000000000006044820152606401610c68565b6116f181612838565b6116fa81612f6d565b600081815261018e602052604081205561171381612ffa565b61018f60008154611723906150b3565b90915550600081815261019060205260408120805483927f410c5c259085cde81fedf70c1aa308ec839373c26e9b7ada6560a2aca0254eb692916117669061507b565b91829055506040519081526020015b60405180910390a250565b73ffffffffffffffffffffffffffffffffffffffff7f0000000000000000000000000000000000000000000000000000000000000000163003611845576040517f08c379a000000000000000000000000000000000000000000000000000000000815260206004820152602c60248201527f46756e6374696f6e206d7573742062652063616c6c6564207468726f7567682060448201527f64656c656761746563616c6c00000000000000000000000000000000000000006064820152608401610c68565b7f000000000000000000000000000000000000000000000000000000000000000073ffffffffffffffffffffffffffffffffffffffff166118ba7f360894a13ba1a3210667c828492db98dca3e2076cc3735a920a3ca505d382bbc5473ffffffffffffffffffffffffffffffffffffffff1690565b73ffffffffffffffffffffffffffffffffffffffff161461195d576040517f08c379a000000000000000000000000000000000000000000000000000000000815260206004820152602c60248201527f46756e6374696f6e206d7573742062652063616c6c6564207468726f7567682060448201527f6163746976652070726f787900000000000000000000000000000000000000006064820152608401610c68565b61196682612b9e565b610e4f82826001612c3b565b60003073ffffffffffffffffffffffffffffffffffffffff7f00000000000000000000000000000000000000000000000000000000000000001614611a39576040517f08c379a000000000000000000000000000000000000000000000000000000000815260206004820152603860248201527f555550535570677261646561626c653a206d757374206e6f742062652063616c60448201527f6c6564207468726f7567682064656c656761746563616c6c00000000000000006064820152608401610c68565b507f360894a13ba1a3210667c828492db98dca3e2076cc3735a920a3ca505d382bbc90565b600073ffffffffffffffffffffffffffffffffffffffff8216611b03576040517f08c379a000000000000000000000000000000000000000000000000000000000815260206004820152602960248201527f4552433732313a2061646472657373207a65726f206973206e6f74206120766160448201527f6c6964206f776e657200000000000000000000000000000000000000000000006064820152608401610c68565b5073ffffffffffffffffffffffffffffffffffffffff1660009081526068602052604090205490565b611b34612a7c565b6115fd60006127b5565b600084815261018c602052604081205473ffffffffffffffffffffffffffffffffffffffff168015611c6857600060405180608001604052803373ffffffffffffffffffffffffffffffffffffffff1681526020018a8a8080601f0160208091040260200160405190810160405280939291908181526020018383808284376000920191909152505050908252506020810189905273ffffffffffffffffffffffffffffffffffffffff80891660409283015290517fcab80ede00000000000000000000000000000000000000000000000000000000815291925083169063cab80ede90611c34908490899089906004016150e8565b600060405180830381600087803b158015611c4e57600080fd5b505af1158015611c62573d6000803e3d6000fd5b50505050505b611c74888888886130d2565b98975050505050505050565b611c88612a7c565b6115fd61272f565b80611c9a816131e3565b611d00576040517f08c379a000000000000000000000000000000000000000000000000000000000815260206004820152601b60248201527f47415445445f4d455441444154415f554e415554484f524953454400000000006044820152606401610c68565b610e4f82612f6d565b606060668054610a4290614c32565b61018b6020526000908152604090208054611d3290614c32565b80601f0160208091040260200160405190810160405280929190818152602001828054611d5e90614c32565b8015611dab5780601f10611d8057610100808354040283529160200191611dab565b820191906000526020600020905b815481529060010190602001808311611d8e57829003601f168201915b505050505081565b610e4f3383836132ab565b81611dc8816131e3565b611e2e576040517f08c379a000000000000000000000000000000000000000000000000000000000815260206004820152601b60248201527f47415445445f4d455441444154415f554e415554484f524953454400000000006044820152606401610c68565b60005b8251811015611f0d576000838281518110611e4e57611e4e614e9e565b602090810291909101810151808201516000888152610162845260408082205467ffffffffffffffff16825261016185528082208a83529094528390208251935192945090929091611ea09190614c85565b90815260200160405180910390209081611eba9190614f0d565b508051602082015160405187927f29d4cd326b134d55e630ceb2871cea5e243b89bc9667e0c840b5da53b26ffd6a92611ef292615027565b60405180910390a25080611f058161507b565b915050611e31565b50505050565b61012d5460ff1615611f81576040517f08c379a000000000000000000000000000000000000000000000000000000000815260206004820152601460248201527f5452414e534645525f4e4f545f414c4c4f5745440000000000000000000000006044820152606401610c68565b611f0d848484846133d8565b60008181526067602052604090205460609073ffffffffffffffffffffffffffffffffffffffff1661201b576040517f08c379a000000000000000000000000000000000000000000000000000000000815260206004820152601060248201527f494e56414c49445f544f4b454e5f4944000000000000000000000000000000006044820152606401610c68565b600082815261018e6020908152604080832054835261018b90915290206120418361347a565b60405160200161205292919061515b565b6040516020818303038152906040529050919050565b60008082858560405161207c929190615200565b60405190819003812061209b9291602001918252602082015260400190565b604080518083037fffffffffffffffffffffffffffffffffffffffffffffffffffffffffffffffe0018152919052805160209091012095945050505050565b6000838152610160602090815260408083205467ffffffffffffffff16835261015f82528083208684529091529081902090516060919061211e9085908590615200565b9081526020016040518091039020805461213790614c32565b80601f016020809104026020016040519081016040528092919081815260200182805461216390614c32565b80156121b05780601f10612185576101008083540402835291602001916121b0565b820191906000526020600020905b81548152906001019060200180831161219357829003601f168201915b505050505090509392505050565b60006121c8612a7c565b878a8a6040516121d9929190615200565b6040519081900381206121f89291602001918252602082015260400190565b604080518083037fffffffffffffffffffffffffffffffffffffffffffffffffffffffffffffffe00181528282528051602091820120600081815261018d90925291902080547fffffffffffffffffffffffffffffffffffffffffffffffffffffffffffffff00168a1515179055915081907ffbbc4187cf8cd340d071ee02e4e44eb8e04903a03649ef31a26e38798390351d9061229d908d908d908d908d90615210565b60405180910390a26122b0818787611013565b6122bc8185858561237d565b9998505050505050505050565b6122d1612a7c565b73ffffffffffffffffffffffffffffffffffffffff8116612374576040517f08c379a000000000000000000000000000000000000000000000000000000000815260206004820152602660248201527f4f776e61626c653a206e6577206f776e657220697320746865207a65726f206160448201527f64647265737300000000000000000000000000000000000000000000000000006064820152608401610c68565b6115ea816127b5565b612385612a7c565b600084815261018c6020526040902080547fffffffffffffffffffffffff00000000000000000000000000000000000000001673ffffffffffffffffffffffffffffffffffffffff851690811790915515612461576040517f42a0d9b400000000000000000000000000000000000000000000000000000000815273ffffffffffffffffffffffffffffffffffffffff8416906342a0d9b49061242e9085908590600401614e6d565b600060405180830381600087803b15801561244857600080fd5b505af115801561245c573d6000803e3d6000fd5b505050505b8273ffffffffffffffffffffffffffffffffffffffff167f057da1406f81e1f47cda5874100d33118bf695f202882aacc5ca6d45ca9174498584846040516124ab93929190614e4a565b60405180910390a250505050565b600054610100900460ff16612550576040517f08c379a000000000000000000000000000000000000000000000000000000000815260206004820152602b60248201527f496e697469616c697a61626c653a20636f6e7472616374206973206e6f74206960448201527f6e697469616c697a696e670000000000000000000000000000000000000000006064820152608401610c68565b610e4f82826134e7565b600054610100900460ff166115fd576040517f08c379a000000000000000000000000000000000000000000000000000000000815260206004820152602b60248201527f496e697469616c697a61626c653a20636f6e7472616374206973206e6f74206960448201527f6e697469616c697a696e670000000000000000000000000000000000000000006064820152608401610c68565b600054610100900460ff16612688576040517f08c379a000000000000000000000000000000000000000000000000000000000815260206004820152602b60248201527f496e697469616c697a61626c653a20636f6e7472616374206973206e6f74206960448201527f6e697469616c697a696e670000000000000000000000000000000000000000006064820152608401610c68565b6115fd613597565b600054610100900460ff16612727576040517f08c379a000000000000000000000000000000000000000000000000000000000815260206004820152602b60248201527f496e697469616c697a61626c653a20636f6e7472616374206973206e6f74206960448201527f6e697469616c697a696e670000000000000000000000000000000000000000006064820152608401610c68565b6115fd613637565b6127376136f9565b61012d80547fffffffffffffffffffffffffffffffffffffffffffffffffffffffffffffff001660011790557f62e78cea01bee320cd4e420270b5ea74000d11b0c9f74754ebdbfc544b05a25861278b3390565b60405173ffffffffffffffffffffffffffffffffffffffff909116815260200160405180910390a1565b6097805473ffffffffffffffffffffffffffffffffffffffff8381167fffffffffffffffffffffffff0000000000000000000000000000000000000000831681179093556040519116919082907f8be0079c531659141344cd1fd0a4f28419497f9722a3daafe3b4186f6b6457e090600090a35050565b6000610a2d3383612ead565b600081815261016060205260408120805467ffffffffffffffff169161285d8361523c565b82546101009290920a67ffffffffffffffff818102199093169183160217909155600083815261016060209081526040918290205491519190921681528392507f3773c27b7f05829d86b67403e26562fb9d776452b918d74b238bfdc1203bf0ed9101611775565b60008181526067602052604090205473ffffffffffffffffffffffffffffffffffffffff166115ea576040517f08c379a000000000000000000000000000000000000000000000000000000000815260206004820152601860248201527f4552433732313a20696e76616c696420746f6b656e20494400000000000000006044820152606401610c68565b60008181526067602052604081205473ffffffffffffffffffffffffffffffffffffffff1680610a2d576040517f08c379a000000000000000000000000000000000000000000000000000000000815260206004820152601860248201527f4552433732313a20696e76616c696420746f6b656e20494400000000000000006044820152606401610c68565b600081815260696020526040902080547fffffffffffffffffffffffff00000000000000000000000000000000000000001673ffffffffffffffffffffffffffffffffffffffff84169081179091558190612a3682612950565b73ffffffffffffffffffffffffffffffffffffffff167f8c5be1e5ebec7d5bd14f71427d1e84f3dd0314c0f7b2291e5b200ac8c7c3b92560405160405180910390a45050565b60975473ffffffffffffffffffffffffffffffffffffffff1633146115fd576040517f08c379a000000000000000000000000000000000000000000000000000000000815260206004820181905260248201527f4f776e61626c653a2063616c6c6572206973206e6f7420746865206f776e65726044820152606401610c68565b612b073382612ead565b612b93576040517f08c379a000000000000000000000000000000000000000000000000000000000815260206004820152602d60248201527f4552433732313a2063616c6c6572206973206e6f7420746f6b656e206f776e6560448201527f72206f7220617070726f766564000000000000000000000000000000000000006064820152608401610c68565b61100e838383613767565b33612bbe60975473ffffffffffffffffffffffffffffffffffffffff1690565b73ffffffffffffffffffffffffffffffffffffffff16146115ea576040517f08c379a000000000000000000000000000000000000000000000000000000000815260206004820152600960248201527f4e4f545f4f574e455200000000000000000000000000000000000000000000006044820152606401610c68565b7f4910fdfa16fed3260ed0e7147f7cc6da11a60208b5b9406d12a635614ffd91435460ff1615612c6e5761100e83613a62565b8273ffffffffffffffffffffffffffffffffffffffff166352d1902d6040518163ffffffff1660e01b8152600401602060405180830381865afa925050508015612cf3575060408051601f3d9081017fffffffffffffffffffffffffffffffffffffffffffffffffffffffffffffffe0168201909252612cf091810190615263565b60015b612d7f576040517f08c379a000000000000000000000000000000000000000000000000000000000815260206004820152602e60248201527f45524331393637557067726164653a206e657720696d706c656d656e7461746960448201527f6f6e206973206e6f7420555550530000000000000000000000000000000000006064820152608401610c68565b7f360894a13ba1a3210667c828492db98dca3e2076cc3735a920a3ca505d382bbc8114612e2e576040517f08c379a000000000000000000000000000000000000000000000000000000000815260206004820152602960248201527f45524331393637557067726164653a20756e737570706f727465642070726f7860448201527f6961626c655555494400000000000000000000000000000000000000000000006064820152608401610c68565b5061100e838383613b6c565b612e42613b91565b61012d80547fffffffffffffffffffffffffffffffffffffffffffffffffffffffffffffff001690557f5db9ee0a495bf2e6ff9c91a7834c1ba4fdd244a5e8aa4e537bd38aeae4b073aa3361278b565b61100e83838360405180602001604052806000815250611f13565b600080612eb983612950565b90508073ffffffffffffffffffffffffffffffffffffffff168473ffffffffffffffffffffffffffffffffffffffff161480612f27575073ffffffffffffffffffffffffffffffffffffffff8082166000908152606a602090815260408083209388168352929052205460ff165b80612f6557508373ffffffffffffffffffffffffffffffffffffffff16612f4d84610e53565b73ffffffffffffffffffffffffffffffffffffffff16145b949350505050565b600081815261016260205260408120805467ffffffffffffffff1691612f928361523c565b82546101009290920a67ffffffffffffffff818102199093169183160217909155600083815261016260209081526040918290205491519190921681528392507fc87757beabcc5d61e477f4ffafb24461a0eb17e06d5bbf82354b4df70f3580c39101611775565b600061300582612950565b905061301082612950565b600083815260696020908152604080832080547fffffffffffffffffffffffff000000000000000000000000000000000000000090811690915573ffffffffffffffffffffffffffffffffffffffff85168085526068845282852080547fffffffffffffffffffffffffffffffffffffffffffffffffffffffffffffffff0190558785526067909352818420805490911690555192935084927fddf252ad1be2c89b69c2b068fc378daa952ba7f163c4a11628f55a4df523b3ef908390a45050565b60006130df8585856110ef565b613145576040517f08c379a000000000000000000000000000000000000000000000000000000000815260206004820152601260248201527f4e414d455f4e4f545f415641494c41424c4500000000000000000000000000006044820152606401610c68565b6000613152868686612068565b905061315e8382613bfe565b61018f6000815461316e9061507b565b90915550600081815261018e6020526040908190208590555173ffffffffffffffffffffffffffffffffffffffff84169082907ffe530e3b4b61411a7dd546adc0e6736d4255abefc6b610401d26068e02dd495e906131d2908a908a908a9061527c565b60405180910390a395945050505050565b60008181526067602052604081205473ffffffffffffffffffffffffffffffffffffffff1661326e576040517f08c379a000000000000000000000000000000000000000000000000000000000815260206004820152601060248201527f544f4b454e5f4e4f545f4d494e544544000000000000000000000000000000006044820152606401610c68565b3361328e60975473ffffffffffffffffffffffffffffffffffffffff1690565b73ffffffffffffffffffffffffffffffffffffffff161492915050565b8173ffffffffffffffffffffffffffffffffffffffff168373ffffffffffffffffffffffffffffffffffffffff1603613340576040517f08c379a000000000000000000000000000000000000000000000000000000000815260206004820152601960248201527f4552433732313a20617070726f766520746f2063616c6c6572000000000000006044820152606401610c68565b73ffffffffffffffffffffffffffffffffffffffff8381166000818152606a602090815260408083209487168084529482529182902080547fffffffffffffffffffffffffffffffffffffffffffffffffffffffffffffff001686151590811790915591519182527f17307eab39ab6107e8899845ad3d59bd9653f200f220920489ca2b5937696c31910160405180910390a3505050565b6133e23383612ead565b61346e576040517f08c379a000000000000000000000000000000000000000000000000000000000815260206004820152602d60248201527f4552433732313a2063616c6c6572206973206e6f7420746f6b656e206f776e6560448201527f72206f7220617070726f766564000000000000000000000000000000000000006064820152608401610c68565b611f0d84848484613c18565b604080516080810191829052607f0190826030600a8206018353600a90045b80156134b757600183039250600a81066030018353600a9004613499565b508190037fffffffffffffffffffffffffffffffffffffffffffffffffffffffffffffffe0909101908152919050565b600054610100900460ff1661357e576040517f08c379a000000000000000000000000000000000000000000000000000000000815260206004820152602b60248201527f496e697469616c697a61626c653a20636f6e7472616374206973206e6f74206960448201527f6e697469616c697a696e670000000000000000000000000000000000000000006064820152608401610c68565b606561358a8382614f0d565b50606661100e8282614f0d565b600054610100900460ff1661362e576040517f08c379a000000000000000000000000000000000000000000000000000000000815260206004820152602b60248201527f496e697469616c697a61626c653a20636f6e7472616374206973206e6f74206960448201527f6e697469616c697a696e670000000000000000000000000000000000000000006064820152608401610c68565b6115fd336127b5565b600054610100900460ff166136ce576040517f08c379a000000000000000000000000000000000000000000000000000000000815260206004820152602b60248201527f496e697469616c697a61626c653a20636f6e7472616374206973206e6f74206960448201527f6e697469616c697a696e670000000000000000000000000000000000000000006064820152608401610c68565b61012d80547fffffffffffffffffffffffffffffffffffffffffffffffffffffffffffffff00169055565b61012d5460ff16156115fd576040517f08c379a000000000000000000000000000000000000000000000000000000000815260206004820152601060248201527f5061757361626c653a20706175736564000000000000000000000000000000006044820152606401610c68565b8273ffffffffffffffffffffffffffffffffffffffff1661378782612950565b73ffffffffffffffffffffffffffffffffffffffff161461382a576040517f08c379a000000000000000000000000000000000000000000000000000000000815260206004820152602560248201527f4552433732313a207472616e736665722066726f6d20696e636f72726563742060448201527f6f776e65720000000000000000000000000000000000000000000000000000006064820152608401610c68565b73ffffffffffffffffffffffffffffffffffffffff82166138cc576040517f08c379a0000000000000000000000000000000000000000000000000000000008152602060048201526024808201527f4552433732313a207472616e7366657220746f20746865207a65726f2061646460448201527f72657373000000000000000000000000000000000000000000000000000000006064820152608401610c68565b8273ffffffffffffffffffffffffffffffffffffffff166138ec82612950565b73ffffffffffffffffffffffffffffffffffffffff161461398f576040517f08c379a000000000000000000000000000000000000000000000000000000000815260206004820152602560248201527f4552433732313a207472616e736665722066726f6d20696e636f72726563742060448201527f6f776e65720000000000000000000000000000000000000000000000000000006064820152608401610c68565b600081815260696020908152604080832080547fffffffffffffffffffffffff000000000000000000000000000000000000000090811690915573ffffffffffffffffffffffffffffffffffffffff8781168086526068855283862080547fffffffffffffffffffffffffffffffffffffffffffffffffffffffffffffffff01905590871680865283862080546001019055868652606790945282852080549092168417909155905184937fddf252ad1be2c89b69c2b068fc378daa952ba7f163c4a11628f55a4df523b3ef91a4505050565b73ffffffffffffffffffffffffffffffffffffffff81163b613b06576040517f08c379a000000000000000000000000000000000000000000000000000000000815260206004820152602d60248201527f455243313936373a206e657720696d706c656d656e746174696f6e206973206e60448201527f6f74206120636f6e7472616374000000000000000000000000000000000000006064820152608401610c68565b7f360894a13ba1a3210667c828492db98dca3e2076cc3735a920a3ca505d382bbc80547fffffffffffffffffffffffff00000000000000000000000000000000000000001673ffffffffffffffffffffffffffffffffffffffff92909216919091179055565b613b7583613cbb565b600082511180613b825750805b1561100e57611f0d8383613d08565b61012d5460ff166115fd576040517f08c379a000000000000000000000000000000000000000000000000000000000815260206004820152601460248201527f5061757361626c653a206e6f74207061757365640000000000000000000000006044820152606401610c68565b610e4f828260405180602001604052806000815250613d2d565b613c23848484613767565b613c2f84848484613dd0565b611f0d576040517f08c379a000000000000000000000000000000000000000000000000000000000815260206004820152603260248201527f4552433732313a207472616e7366657220746f206e6f6e20455243373231526560448201527f63656976657220696d706c656d656e74657200000000000000000000000000006064820152608401610c68565b613cc481613a62565b60405173ffffffffffffffffffffffffffffffffffffffff8216907fbc7cd75a20ee27fd9adebab32041f755214dbc6bffa90cc0225b39da2e5c2d3b90600090a250565b606061127c83836040518060600160405280602781526020016152fd60279139613fc0565b613d378383614045565b613d446000848484613dd0565b61100e576040517f08c379a000000000000000000000000000000000000000000000000000000000815260206004820152603260248201527f4552433732313a207472616e7366657220746f206e6f6e20455243373231526560448201527f63656976657220696d706c656d656e74657200000000000000000000000000006064820152608401610c68565b600073ffffffffffffffffffffffffffffffffffffffff84163b15613fb8576040517f150b7a0200000000000000000000000000000000000000000000000000000000815273ffffffffffffffffffffffffffffffffffffffff85169063150b7a0290613e479033908990889088906004016152a0565b6020604051808303816000875af1925050508015613ea0575060408051601f3d9081017fffffffffffffffffffffffffffffffffffffffffffffffffffffffffffffffe0168201909252613e9d918101906152df565b60015b613f6d573d808015613ece576040519150601f19603f3d011682016040523d82523d6000602084013e613ed3565b606091505b508051600003613f65576040517f08c379a000000000000000000000000000000000000000000000000000000000815260206004820152603260248201527f4552433732313a207472616e7366657220746f206e6f6e20455243373231526560448201527f63656976657220696d706c656d656e74657200000000000000000000000000006064820152608401610c68565b805181602001fd5b7fffffffff00000000000000000000000000000000000000000000000000000000167f150b7a0200000000000000000000000000000000000000000000000000000000149050612f65565b506001612f65565b60606000808573ffffffffffffffffffffffffffffffffffffffff1685604051613fea9190614c85565b600060405180830381855af49150503d8060008114614025576040519150601f19603f3d011682016040523d82523d6000602084013e61402a565b606091505b509150915061403b8683838761426a565b9695505050505050565b73ffffffffffffffffffffffffffffffffffffffff82166140c2576040517f08c379a000000000000000000000000000000000000000000000000000000000815260206004820181905260248201527f4552433732313a206d696e7420746f20746865207a65726f20616464726573736044820152606401610c68565b60008181526067602052604090205473ffffffffffffffffffffffffffffffffffffffff161561414e576040517f08c379a000000000000000000000000000000000000000000000000000000000815260206004820152601c60248201527f4552433732313a20746f6b656e20616c7265616479206d696e746564000000006044820152606401610c68565b60008181526067602052604090205473ffffffffffffffffffffffffffffffffffffffff16156141da576040517f08c379a000000000000000000000000000000000000000000000000000000000815260206004820152601c60248201527f4552433732313a20746f6b656e20616c7265616479206d696e746564000000006044820152606401610c68565b73ffffffffffffffffffffffffffffffffffffffff8216600081815260686020908152604080832080546001019055848352606790915280822080547fffffffffffffffffffffffff0000000000000000000000000000000000000000168417905551839291907fddf252ad1be2c89b69c2b068fc378daa952ba7f163c4a11628f55a4df523b3ef908290a45050565b606083156143005782516000036142f95773ffffffffffffffffffffffffffffffffffffffff85163b6142f9576040517f08c379a000000000000000000000000000000000000000000000000000000000815260206004820152601d60248201527f416464726573733a2063616c6c20746f206e6f6e2d636f6e74726163740000006044820152606401610c68565b5081612f65565b612f6583838151156143155781518083602001fd5b806040517f08c379a0000000000000000000000000000000000000000000000000000000008152600401610c689190614402565b7fffffffff00000000000000000000000000000000000000000000000000000000811681146115ea57600080fd5b60006020828403121561438957600080fd5b813561127c81614349565b60005b838110156143af578181015183820152602001614397565b50506000910152565b600081518084526143d0816020860160208601614394565b601f017fffffffffffffffffffffffffffffffffffffffffffffffffffffffffffffffe0169290920160200192915050565b60208152600061127c60208301846143b8565b7f4e487b7100000000000000000000000000000000000000000000000000000000600052604160045260246000fd5b604051601f82017fffffffffffffffffffffffffffffffffffffffffffffffffffffffffffffffe016810167ffffffffffffffff8111828210171561448b5761448b614415565b604052919050565b600082601f8301126144a457600080fd5b813567ffffffffffffffff8111156144be576144be614415565b6144ef60207fffffffffffffffffffffffffffffffffffffffffffffffffffffffffffffffe0601f84011601614444565b81815284602083860101111561450457600080fd5b816020850160208301376000918101602001919091529392505050565b6000806040838503121561453457600080fd5b82359150602083013567ffffffffffffffff81111561455257600080fd5b61455e85828601614493565b9150509250929050565b60008083601f84011261457a57600080fd5b50813567ffffffffffffffff81111561459257600080fd5b6020830191508360208285010111156145aa57600080fd5b9250929050565b803573ffffffffffffffffffffffffffffffffffffffff811681146145d557600080fd5b919050565b6000806000806000606086880312156145f257600080fd5b853567ffffffffffffffff8082111561460a57600080fd5b61461689838a01614568565b9097509550602088013591508082111561462f57600080fd5b5061463c88828901614568565b909450925061464f9050604087016145b1565b90509295509295909350565b60006020828403121561466d57600080fd5b5035919050565b6000806040838503121561468757600080fd5b614690836145b1565b946020939093013593505050565b6000806000604084860312156146b357600080fd5b83359250602084013567ffffffffffffffff8111156146d157600080fd5b6146dd86828701614568565b9497909650939450505050565b6000806000606084860312156146ff57600080fd5b614708846145b1565b9250614716602085016145b1565b9150604084013590509250925092565b60008060006040848603121561473b57600080fd5b833567ffffffffffffffff81111561475257600080fd5b61475e86828701614568565b909790965060209590950135949350505050565b60008060006040848603121561478757600080fd5b83359250602084013567ffffffffffffffff808211156147a657600080fd5b818601915086601f8301126147ba57600080fd5b8135818111156147c957600080fd5b8760208260051b85010111156147de57600080fd5b6020830194508093505050509250925092565b60006020828403121561480357600080fd5b61127c826145b1565b6000806040838503121561481f57600080fd5b614828836145b1565b9150602083013567ffffffffffffffff81111561455257600080fd5b6000806000806000806080878903121561485d57600080fd5b863567ffffffffffffffff8082111561487557600080fd5b6148818a838b01614568565b90985096506020890135955086915061489c60408a016145b1565b945060608901359150808211156148b257600080fd5b506148bf89828a01614568565b979a9699509497509295939492505050565b80151581146115ea57600080fd5b600080604083850312156148f257600080fd5b6148fb836145b1565b9150602083013561490b816148d1565b809150509250929050565b60006040828403121561492857600080fd5b6040516040810167ffffffffffffffff828210818311171561494c5761494c614415565b81604052829350843591508082111561496457600080fd5b61497086838701614493565b8352602085013591508082111561498657600080fd5b5061499385828601614493565b6020830152505092915050565b600080604083850312156149b357600080fd5b8235915060208084013567ffffffffffffffff808211156149d357600080fd5b818601915086601f8301126149e757600080fd5b8135818111156149f9576149f9614415565b8060051b614a08858201614444565b918252838101850191858101908a841115614a2257600080fd5b86860192505b83831015614a5e57823585811115614a405760008081fd5b614a4e8c89838a0101614916565b8352509186019190860190614a28565b809750505050505050509250929050565b60008060008060808587031215614a8557600080fd5b614a8e856145b1565b9350614a9c602086016145b1565b925060408501359150606085013567ffffffffffffffff811115614abf57600080fd5b614acb87828801614493565b91505092959194509250565b600080600080600080600080600060c08a8c031215614af557600080fd5b893567ffffffffffffffff80821115614b0d57600080fd5b614b198d838e01614568565b909b50995060208c0135985060408c01359150614b35826148d1565b90965060608b01359080821115614b4b57600080fd5b614b578d838e01614568565b9097509550859150614b6b60808d016145b1565b945060a08c0135915080821115614b8157600080fd5b50614b8e8c828d01614568565b915080935050809150509295985092959850929598565b60008060408385031215614bb857600080fd5b614bc1836145b1565b9150614bcf602084016145b1565b90509250929050565b60008060008060608587031215614bee57600080fd5b84359350614bfe602086016145b1565b9250604085013567ffffffffffffffff811115614c1a57600080fd5b614c2687828801614568565b95989497509550505050565b600181811c90821680614c4657607f821691505b602082108103614c7f577f4e487b7100000000000000000000000000000000000000000000000000000000600052602260045260246000fd5b50919050565b60008251614c97818460208701614394565b9190910192915050565b601f82111561100e57600081815260208120601f850160051c81016020861015614cc85750805b601f850160051c820191505b81811015610dce57828155600101614cd4565b67ffffffffffffffff831115614cff57614cff614415565b614d1383614d0d8354614c32565b83614ca1565b6000601f841160018114614d655760008515614d2f5750838201355b7fffffffffffffffffffffffffffffffffffffffffffffffffffffffffffffffff600387901b1c1916600186901b1783556113e1565b6000838152602090207fffffffffffffffffffffffffffffffffffffffffffffffffffffffffffffffe0861690835b82811015614db45786850135825560209485019460019092019101614d94565b5086821015614def577fffffffffffffffffffffffffffffffffffffffffffffffffffffffffffffffff60f88860031b161c19848701351681555b505060018560011b0183555050505050565b8183528181602085013750600060208284010152600060207fffffffffffffffffffffffffffffffffffffffffffffffffffffffffffffffe0601f840116840101905092915050565b838152604060208201526000614e64604083018486614e01565b95945050505050565b602081526000612f65602083018486614e01565b600060208284031215614e9357600080fd5b815161127c816148d1565b7f4e487b7100000000000000000000000000000000000000000000000000000000600052603260045260246000fd5b600082357fffffffffffffffffffffffffffffffffffffffffffffffffffffffffffffffc1833603018112614c9757600080fd5b6000610a2d3683614916565b815167ffffffffffffffff811115614f2757614f27614415565b614f3b81614f358454614c32565b84614ca1565b602080601f831160018114614f8e5760008415614f585750858301515b7fffffffffffffffffffffffffffffffffffffffffffffffffffffffffffffffff600386901b1c1916600185901b178555610dce565b6000858152602081207fffffffffffffffffffffffffffffffffffffffffffffffffffffffffffffffe08616915b82811015614fdb57888601518255948401946001909101908401614fbc565b508582101561501757878501517fffffffffffffffffffffffffffffffffffffffffffffffffffffffffffffffff600388901b60f8161c191681555b5050505050600190811b01905550565b60408152600061503a60408301856143b8565b8281036020840152614e6481856143b8565b7f4e487b7100000000000000000000000000000000000000000000000000000000600052601160045260246000fd5b60007fffffffffffffffffffffffffffffffffffffffffffffffffffffffffffffffff82036150ac576150ac61504c565b5060010190565b6000816150c2576150c261504c565b507fffffffffffffffffffffffffffffffffffffffffffffffffffffffffffffffff0190565b60408152600073ffffffffffffffffffffffffffffffffffffffff80865116604084015260208601516080606085015261512560c08501826143b8565b9050604087015160808501528160608801511660a08501528381036020850152615150818688614e01565b979650505050505050565b600080845461516981614c32565b6001828116801561518157600181146151b4576151e3565b7fffffffffffffffffffffffffffffffffffffffffffffffffffffffffffffff00841687528215158302870194506151e3565b8860005260208060002060005b858110156151da5781548a8201529084019082016151c1565b50505082870194505b5050505083516151f7818360208801614394565b01949350505050565b8183823760009101908152919050565b606081526000615224606083018688614e01565b60208301949094525090151560409091015292915050565b600067ffffffffffffffff8083168181036152595761525961504c565b6001019392505050565b60006020828403121561527557600080fd5b5051919050565b604081526000615290604083018587614e01565b9050826020830152949350505050565b600073ffffffffffffffffffffffffffffffffffffffff80871683528086166020840152508360408301526080606083015261403b60808301846143b8565b6000602082840312156152f157600080fd5b815161127c8161434956fe416464726573733a206c6f772d6c6576656c2064656c65676174652063616c6c206661696c6564a2646970667358221220d1db016c911071bb86aea44a7217c8066e8a61f4772aeb9e004c9155fe1740cc64736f6c63430008150033",
  "linkReferences": {},
  "deployedLinkReferences": {}
}