{
  "_format": "hh-sol-artifact-1",
  "contractName": "MockRealmId",
  "sourceName": "contracts/MocaPoints/mock/realmIdContract/MockRealmId.sol",
  "abi": [
    {
      "anonymous": false,
      "inputs": [
        {
          "indexed": false,
          "internalType": "address",
          "name": "previousAdmin",
          "type": "address"
        },
        {
          "indexed": false,
          "internalType": "address",
          "name": "newAdmin",
          "type": "address"
        }
      ],
      "name": "AdminChanged",
      "type": "event"
    },
    {
      "anonymous": false,
      "inputs": [
        {
          "indexed": true,
          "internalType": "address",
          "name": "owner",
          "type": "address"
        },
        {
          "indexed": true,
          "internalType": "address",
          "name": "approved",
          "type": "address"
        },
        {
          "indexed": true,
          "internalType": "uint256",
          "name": "tokenId",
          "type": "uint256"
        }
      ],
      "name": "Approval",
      "type": "event"
    },
    {
      "anonymous": false,
      "inputs": [
        {
          "indexed": true,
          "internalType": "address",
          "name": "owner",
          "type": "address"
        },
        {
          "indexed": true,
          "internalType": "address",
          "name": "operator",
          "type": "address"
        },
        {
          "indexed": false,
          "internalType": "bool",
          "name": "approved",
          "type": "bool"
        }
      ],
      "name": "ApprovalForAll",
      "type": "event"
    },
    {
      "anonymous": false,
      "inputs": [
        {
          "indexed": false,
          "internalType": "bytes32",
          "name": "node",
          "type": "bytes32"
        },
        {
          "indexed": false,
          "internalType": "string",
          "name": "uri",
          "type": "string"
        }
      ],
      "name": "BaseTokenURISet",
      "type": "event"
    },
    {
      "anonymous": false,
      "inputs": [
        {
          "indexed": true,
          "internalType": "address",
          "name": "beacon",
          "type": "address"
        }
      ],
      "name": "BeaconUpgraded",
      "type": "event"
    },
    {
      "anonymous": false,
      "inputs": [
        {
          "indexed": true,
          "internalType": "uint256",
          "name": "tokenId",
          "type": "uint256"
        },
        {
          "indexed": false,
          "internalType": "uint256",
          "name": "burnCount",
          "type": "uint256"
        }
      ],
      "name": "Burn",
      "type": "event"
    },
    {
      "anonymous": false,
      "inputs": [
        {
          "indexed": true,
          "internalType": "uint256",
          "name": "tokenId",
          "type": "uint256"
        },
        {
          "indexed": false,
          "internalType": "string",
          "name": "key",
          "type": "string"
        },
        {
          "indexed": false,
          "internalType": "string",
          "name": "value",
          "type": "string"
        }
      ],
      "name": "GatedMetadataChanged",
      "type": "event"
    },
    {
      "anonymous": false,
      "inputs": [
        {
          "indexed": true,
          "internalType": "uint256",
          "name": "tokenId",
          "type": "uint256"
        },
        {
          "indexed": false,
          "internalType": "uint64",
          "name": "newVersion",
          "type": "uint64"
        }
      ],
      "name": "GatedMetadataVersionChanged",
      "type": "event"
    },
    {
      "anonymous": false,
      "inputs": [
        {
          "indexed": false,
          "internalType": "uint8",
          "name": "version",
          "type": "uint8"
        }
      ],
      "name": "Initialized",
      "type": "event"
    },
    {
      "anonymous": false,
      "inputs": [
        {
          "indexed": true,
          "internalType": "uint256",
          "name": "tokenId",
          "type": "uint256"
        },
        {
          "indexed": false,
          "internalType": "string",
          "name": "key",
          "type": "string"
        },
        {
          "indexed": false,
          "internalType": "string",
          "name": "value",
          "type": "string"
        }
      ],
      "name": "MetadataChanged",
      "type": "event"
    },
    {
      "anonymous": false,
      "inputs": [
        {
          "indexed": true,
          "internalType": "uint256",
          "name": "tokenId",
          "type": "uint256"
        },
        {
          "indexed": false,
          "internalType": "uint64",
          "name": "newVersion",
          "type": "uint64"
        }
      ],
      "name": "MetadataVersionChanged",
      "type": "event"
    },
    {
      "anonymous": false,
      "inputs": [
        {
          "indexed": false,
          "internalType": "bytes32",
          "name": "node",
          "type": "bytes32"
        },
        {
          "indexed": true,
          "internalType": "address",
          "name": "middleware",
          "type": "address"
        },
        {
          "indexed": false,
          "internalType": "bytes",
          "name": "data",
          "type": "bytes"
        }
      ],
      "name": "MiddlewareSet",
      "type": "event"
    },
    {
      "anonymous": false,
      "inputs": [
        {
          "indexed": true,
          "internalType": "bytes32",
          "name": "node",
          "type": "bytes32"
        },
        {
          "indexed": false,
          "internalType": "string",
          "name": "label",
          "type": "string"
        },
        {
          "indexed": false,
          "internalType": "bytes32",
          "name": "parentNode",
          "type": "bytes32"
        },
        {
          "indexed": false,
          "internalType": "bool",
          "name": "allowed",
          "type": "bool"
        }
      ],
      "name": "NodeAllowanceChanged",
      "type": "event"
    },
    {
      "anonymous": false,
      "inputs": [
        {
          "indexed": true,
          "internalType": "address",
          "name": "previousOwner",
          "type": "address"
        },
        {
          "indexed": true,
          "internalType": "address",
          "name": "newOwner",
          "type": "address"
        }
      ],
      "name": "OwnershipTransferred",
      "type": "event"
    },
    {
      "anonymous": false,
      "inputs": [
        {
          "indexed": false,
          "internalType": "address",
          "name": "account",
          "type": "address"
        }
      ],
      "name": "Paused",
      "type": "event"
    },
    {
      "anonymous": false,
      "inputs": [
        {
          "indexed": false,
          "internalType": "string",
          "name": "name",
          "type": "string"
        },
        {
          "indexed": false,
          "internalType": "bytes32",
          "name": "parentNode",
          "type": "bytes32"
        },
        {
          "indexed": true,
          "internalType": "uint256",
          "name": "tokenId",
          "type": "uint256"
        },
        {
          "indexed": true,
          "internalType": "address",
          "name": "to",
          "type": "address"
        }
      ],
      "name": "Register",
      "type": "event"
    },
    {
      "anonymous": false,
      "inputs": [
        {
          "indexed": true,
          "internalType": "address",
          "name": "from",
          "type": "address"
        },
        {
          "indexed": true,
          "internalType": "address",
          "name": "to",
          "type": "address"
        },
        {
          "indexed": true,
          "internalType": "uint256",
          "name": "tokenId",
          "type": "uint256"
        }
      ],
      "name": "Transfer",
      "type": "event"
    },
    {
      "anonymous": false,
      "inputs": [
        {
          "indexed": false,
          "internalType": "address",
          "name": "account",
          "type": "address"
        }
      ],
      "name": "Unpaused",
      "type": "event"
    },
    {
      "anonymous": false,
      "inputs": [
        {
          "indexed": true,
          "internalType": "address",
          "name": "implementation",
          "type": "address"
        }
      ],
      "name": "Upgraded",
      "type": "event"
    },
    {
      "inputs": [
        {
          "internalType": "string",
          "name": "label",
          "type": "string"
        },
        {
          "internalType": "bytes32",
          "name": "parentNode",
          "type": "bytes32"
        },
        {
          "internalType": "bool",
          "name": "allow",
          "type": "bool"
        },
        {
          "internalType": "string",
          "name": "baseTokenURI",
          "type": "string"
        },
        {
          "internalType": "address",
          "name": "middleware",
          "type": "address"
        },
        {
          "internalType": "bytes",
          "name": "middlewareData",
          "type": "bytes"
        }
      ],
      "name": "allowNode",
      "outputs": [
        {
          "internalType": "bytes32",
          "name": "allowedNode",
          "type": "bytes32"
        }
      ],
      "stateMutability": "nonpayable",
      "type": "function"
    },
    {
      "inputs": [
        {
          "internalType": "bytes32",
          "name": "",
          "type": "bytes32"
        }
      ],
      "name": "allowedParentNodes",
      "outputs": [
        {
          "internalType": "bool",
          "name": "",
          "type": "bool"
        }
      ],
      "stateMutability": "view",
      "type": "function"
    },
    {
      "inputs": [
        {
          "internalType": "address",
          "name": "to",
          "type": "address"
        },
        {
          "internalType": "uint256",
          "name": "tokenId",
          "type": "uint256"
        }
      ],
      "name": "approve",
      "outputs": [],
      "stateMutability": "nonpayable",
      "type": "function"
    },
    {
      "inputs": [
        {
          "internalType": "string",
          "name": "_name",
          "type": "string"
        },
        {
          "internalType": "bytes32",
          "name": "parentNode",
          "type": "bytes32"
        }
      ],
      "name": "available",
      "outputs": [
        {
          "internalType": "bool",
          "name": "",
          "type": "bool"
        }
      ],
      "stateMutability": "view",
      "type": "function"
    },
    {
      "inputs": [
        {
          "internalType": "address",
          "name": "owner",
          "type": "address"
        }
      ],
      "name": "balanceOf",
      "outputs": [
        {
          "internalType": "uint256",
          "name": "",
          "type": "uint256"
        }
      ],
      "stateMutability": "view",
      "type": "function"
    },
    {
      "inputs": [
        {
          "internalType": "bytes32",
          "name": "",
          "type": "bytes32"
        }
      ],
      "name": "baseTokenURIs",
      "outputs": [
        {
          "internalType": "string",
          "name": "",
          "type": "string"
        }
      ],
      "stateMutability": "view",
      "type": "function"
    },
    {
      "inputs": [
        {
          "internalType": "uint256",
          "name": "tokenId",
          "type": "uint256"
        },
        {
          "components": [
            {
              "internalType": "string",
              "name": "key",
              "type": "string"
            },
            {
              "internalType": "string",
              "name": "value",
              "type": "string"
            }
          ],
          "internalType": "struct DataTypes.MetadataPair[]",
          "name": "pairs",
          "type": "tuple[]"
        }
      ],
      "name": "batchSetGatedMetadatas",
      "outputs": [],
      "stateMutability": "nonpayable",
      "type": "function"
    },
    {
      "inputs": [
        {
          "internalType": "uint256",
          "name": "tokenId",
          "type": "uint256"
        },
        {
          "components": [
            {
              "internalType": "string",
              "name": "key",
              "type": "string"
            },
            {
              "internalType": "string",
              "name": "value",
              "type": "string"
            }
          ],
          "internalType": "struct DataTypes.MetadataPair[]",
          "name": "pairs",
          "type": "tuple[]"
        }
      ],
      "name": "batchSetMetadatas",
      "outputs": [],
      "stateMutability": "nonpayable",
      "type": "function"
    },
    {
      "inputs": [
        {
          "internalType": "uint256",
          "name": "tokenId",
          "type": "uint256"
        }
      ],
      "name": "burn",
      "outputs": [],
      "stateMutability": "nonpayable",
      "type": "function"
    },
    {
      "inputs": [
        {
          "internalType": "uint256",
          "name": "",
          "type": "uint256"
        }
      ],
      "name": "burnCounts",
      "outputs": [
        {
          "internalType": "uint256",
          "name": "",
          "type": "uint256"
        }
      ],
      "stateMutability": "view",
      "type": "function"
    },
    {
      "inputs": [
        {
          "internalType": "uint256",
          "name": "tokenId",
          "type": "uint256"
        }
      ],
      "name": "clearGatedMetadatas",
      "outputs": [],
      "stateMutability": "nonpayable",
      "type": "function"
    },
    {
      "inputs": [
        {
          "internalType": "uint256",
          "name": "tokenId",
          "type": "uint256"
        }
      ],
      "name": "clearMetadatas",
      "outputs": [],
      "stateMutability": "nonpayable",
      "type": "function"
    },
    {
      "inputs": [
        {
          "internalType": "uint256",
          "name": "",
          "type": "uint256"
        }
      ],
      "name": "gatedMetadataVersions",
      "outputs": [
        {
          "internalType": "uint64",
          "name": "",
          "type": "uint64"
        }
      ],
      "stateMutability": "view",
      "type": "function"
    },
    {
      "inputs": [
        {
          "internalType": "uint256",
          "name": "tokenId",
          "type": "uint256"
        }
      ],
      "name": "getApproved",
      "outputs": [
        {
          "internalType": "address",
          "name": "",
          "type": "address"
        }
      ],
      "stateMutability": "view",
      "type": "function"
    },
    {
      "inputs": [
        {
          "internalType": "uint256",
          "name": "tokenId",
          "type": "uint256"
        },
        {
          "internalType": "string",
          "name": "key",
          "type": "string"
        }
      ],
      "name": "getGatedMetadata",
      "outputs": [
        {
          "internalType": "string",
          "name": "",
          "type": "string"
        }
      ],
      "stateMutability": "view",
      "type": "function"
    },
    {
      "inputs": [
        {
          "internalType": "uint256",
          "name": "tokenId",
          "type": "uint256"
        },
        {
          "internalType": "string",
          "name": "key",
          "type": "string"
        }
      ],
      "name": "getMetadata",
      "outputs": [
        {
          "internalType": "string",
          "name": "",
          "type": "string"
        }
      ],
      "stateMutability": "view",
      "type": "function"
    },
    {
      "inputs": [
        {
          "internalType": "string",
          "name": "_name",
          "type": "string"
        },
        {
          "internalType": "bytes32",
          "name": "parentNode",
          "type": "bytes32"
        }
      ],
      "name": "getTokenId",
      "outputs": [
        {
          "internalType": "uint256",
          "name": "",
          "type": "uint256"
        }
      ],
      "stateMutability": "pure",
      "type": "function"
    },
    {
      "inputs": [
        {
          "internalType": "string",
          "name": "_tokenName",
          "type": "string"
        },
        {
          "internalType": "string",
          "name": "_tokenSymbol",
          "type": "string"
        },
        {
          "internalType": "address",
          "name": "_owner",
          "type": "address"
        }
      ],
      "name": "initialize",
      "outputs": [],
      "stateMutability": "nonpayable",
      "type": "function"
    },
    {
      "inputs": [
        {
          "internalType": "address",
          "name": "owner",
          "type": "address"
        },
        {
          "internalType": "address",
          "name": "operator",
          "type": "address"
        }
      ],
      "name": "isApprovedForAll",
      "outputs": [
        {
          "internalType": "bool",
          "name": "",
          "type": "bool"
        }
      ],
      "stateMutability": "view",
      "type": "function"
    },
    {
      "inputs": [
        {
          "internalType": "uint256",
          "name": "",
          "type": "uint256"
        }
      ],
      "name": "metadataVersions",
      "outputs": [
        {
          "internalType": "uint64",
          "name": "",
          "type": "uint64"
        }
      ],
      "stateMutability": "view",
      "type": "function"
    },
    {
      "inputs": [
        {
          "internalType": "bytes32",
          "name": "",
          "type": "bytes32"
        }
      ],
      "name": "middlewares",
      "outputs": [
        {
          "internalType": "address",
          "name": "",
          "type": "address"
        }
      ],
      "stateMutability": "view",
      "type": "function"
    },
    {
      "inputs": [
        {
          "internalType": "string",
          "name": "",
          "type": "string"
        },
        {
          "internalType": "bytes32",
          "name": "",
          "type": "bytes32"
        }
      ],
      "name": "mockgetTokenId",
      "outputs": [
        {
          "internalType": "uint256",
          "name": "",
          "type": "uint256"
        }
      ],
      "stateMutability": "pure",
      "type": "function"
    },
    {
      "inputs": [],
      "name": "name",
      "outputs": [
        {
          "internalType": "string",
          "name": "",
          "type": "string"
        }
      ],
      "stateMutability": "view",
      "type": "function"
    },
    {
      "inputs": [],
      "name": "owner",
      "outputs": [
        {
          "internalType": "address",
          "name": "",
          "type": "address"
        }
      ],
      "stateMutability": "view",
      "type": "function"
    },
    {
      "inputs": [
        {
          "internalType": "uint256",
          "name": "",
          "type": "uint256"
        }
      ],
      "name": "ownerOf",
      "outputs": [
        {
          "internalType": "address",
          "name": "",
          "type": "address"
        }
      ],
      "stateMutability": "pure",
      "type": "function"
    },
    {
      "inputs": [
        {
          "internalType": "uint256",
          "name": "",
          "type": "uint256"
        }
      ],
      "name": "parents",
      "outputs": [
        {
          "internalType": "bytes32",
          "name": "",
          "type": "bytes32"
        }
      ],
      "stateMutability": "view",
      "type": "function"
    },
    {
      "inputs": [],
      "name": "pause",
      "outputs": [],
      "stateMutability": "nonpayable",
      "type": "function"
    },
    {
      "inputs": [],
      "name": "paused",
      "outputs": [
        {
          "internalType": "bool",
          "name": "",
          "type": "bool"
        }
      ],
      "stateMutability": "view",
      "type": "function"
    },
    {
      "inputs": [],
      "name": "proxiableUUID",
      "outputs": [
        {
          "internalType": "bytes32",
          "name": "",
          "type": "bytes32"
        }
      ],
      "stateMutability": "view",
      "type": "function"
    },
    {
      "inputs": [
        {
          "internalType": "string",
          "name": "_name",
          "type": "string"
        },
        {
          "internalType": "bytes32",
          "name": "parentNode",
          "type": "bytes32"
        },
        {
          "internalType": "address",
          "name": "to",
          "type": "address"
        },
        {
          "internalType": "bytes",
          "name": "preData",
          "type": "bytes"
        }
      ],
      "name": "register",
      "outputs": [
        {
          "internalType": "uint256",
          "name": "",
          "type": "uint256"
        }
      ],
      "stateMutability": "nonpayable",
      "type": "function"
    },
    {
      "inputs": [],
      "name": "renounceOwnership",
      "outputs": [],
      "stateMutability": "nonpayable",
      "type": "function"
    },
    {
      "inputs": [
        {
          "internalType": "address",
          "name": "from",
          "type": "address"
        },
        {
          "internalType": "address",
          "name": "to",
          "type": "address"
        },
        {
          "internalType": "uint256",
          "name": "tokenId",
          "type": "uint256"
        }
      ],
      "name": "safeTransferFrom",
      "outputs": [],
      "stateMutability": "nonpayable",
      "type": "function"
    },
    {
      "inputs": [
        {
          "internalType": "address",
          "name": "from",
          "type": "address"
        },
        {
          "internalType": "address",
          "name": "to",
          "type": "address"
        },
        {
          "internalType": "uint256",
          "name": "tokenId",
          "type": "uint256"
        },
        {
          "internalType": "bytes",
          "name": "data",
          "type": "bytes"
        }
      ],
      "name": "safeTransferFrom",
      "outputs": [],
      "stateMutability": "nonpayable",
      "type": "function"
    },
    {
      "inputs": [
        {
          "internalType": "address",
          "name": "operator",
          "type": "address"
        },
        {
          "internalType": "bool",
          "name": "approved",
          "type": "bool"
        }
      ],
      "name": "setApprovalForAll",
      "outputs": [],
      "stateMutability": "nonpayable",
      "type": "function"
    },
    {
      "inputs": [
        {
          "internalType": "bytes32",
          "name": "node",
          "type": "bytes32"
        },
        {
          "internalType": "string",
          "name": "uri",
          "type": "string"
        }
      ],
      "name": "setBaseTokenURI",
      "outputs": [],
      "stateMutability": "nonpayable",
      "type": "function"
    },
    {
      "inputs": [
        {
          "internalType": "bytes32",
          "name": "node",
          "type": "bytes32"
        },
        {
          "internalType": "address",
          "name": "_middleware",
          "type": "address"
        },
        {
          "internalType": "bytes",
          "name": "data",
          "type": "bytes"
        }
      ],
      "name": "setMiddleware",
      "outputs": [],
      "stateMutability": "nonpayable",
      "type": "function"
    },
    {
      "inputs": [
        {
          "internalType": "bytes4",
          "name": "interfaceId",
          "type": "bytes4"
        }
      ],
      "name": "supportsInterface",
      "outputs": [
        {
          "internalType": "bool",
          "name": "",
          "type": "bool"
        }
      ],
      "stateMutability": "view",
      "type": "function"
    },
    {
      "inputs": [],
      "name": "symbol",
      "outputs": [
        {
          "internalType": "string",
          "name": "",
          "type": "string"
        }
      ],
      "stateMutability": "view",
      "type": "function"
    },
    {
      "inputs": [
        {
          "internalType": "uint256",
          "name": "tokenId",
          "type": "uint256"
        }
      ],
      "name": "tokenURI",
      "outputs": [
        {
          "internalType": "string",
          "name": "",
          "type": "string"
        }
      ],
      "stateMutability": "view",
      "type": "function"
    },
    {
      "inputs": [],
      "name": "totalSupply",
      "outputs": [
        {
          "internalType": "uint256",
          "name": "",
          "type": "uint256"
        }
      ],
      "stateMutability": "view",
      "type": "function"
    },
    {
      "inputs": [
        {
          "internalType": "address",
          "name": "from",
          "type": "address"
        },
        {
          "internalType": "address",
          "name": "to",
          "type": "address"
        },
        {
          "internalType": "uint256",
          "name": "tokenId",
          "type": "uint256"
        }
      ],
      "name": "transferFrom",
      "outputs": [],
      "stateMutability": "nonpayable",
      "type": "function"
    },
    {
      "inputs": [
        {
          "internalType": "address",
          "name": "newOwner",
          "type": "address"
        }
      ],
      "name": "transferOwnership",
      "outputs": [],
      "stateMutability": "nonpayable",
      "type": "function"
    },
    {
      "inputs": [],
      "name": "unpause",
      "outputs": [],
      "stateMutability": "nonpayable",
      "type": "function"
    },
    {
      "inputs": [
        {
          "internalType": "address",
          "name": "newImplementation",
          "type": "address"
        }
      ],
      "name": "upgradeTo",
      "outputs": [],
      "stateMutability": "nonpayable",
      "type": "function"
    },
    {
      "inputs": [
        {
          "internalType": "address",
          "name": "newImplementation",
          "type": "address"
        },
        {
          "internalType": "bytes",
          "name": "data",
          "type": "bytes"
        }
      ],
      "name": "upgradeToAndCall",
      "outputs": [],
      "stateMutability": "payable",
      "type": "function"
    }
  ],
  "bytecode": "0x60a06040523060805234801561001457600080fd5b5060805161538861004c6000396000818161142e015281816114de015281816117c60152818161187601526119bb01526153886000f3fe6080604052600436106102f25760003560e01c80636352211e1161018f578063a22cb465116100e1578063cb4799f21161008a578063e985e9c511610064578063e985e9c5146108e7578063f2fde38b1461093d578063f97c6dae1461095d57600080fd5b8063cb4799f21461086f578063d619cee51461088f578063d9a9eb24146108af57600080fd5b8063b88d4fde116100bb578063b88d4fde1461080f578063c87b56dd1461082f578063cad6b9011461084f57600080fd5b8063a22cb465146107a1578063a9735f94146107c1578063b33dab09146107ef57600080fd5b80638456cb59116101435780638e73361e1161011d5780638e73361e1461074c57806395d89b411461076c57806396977c1b1461078157600080fd5b80638456cb59146106de578063898572a6146106f35780638da5cb5b1461072157600080fd5b806370a082311161017457806370a0823114610689578063715018a6146106a95780637c7efe6b146106be57600080fd5b80636352211e146106315780636eb533771461066557600080fd5b806323b872dd1161024857806342842e0e116101fc57806352d1902d116101d657806352d1902d146105bf57806357ad9c90146105d45780635c975abb1461061857600080fd5b806342842e0e1461056c57806342966c681461058c5780634f1ef286146105ac57600080fd5b806326ec9ad81161022d57806326ec9ad8146105175780633659cfe6146105375780633f4ba83a1461055757600080fd5b806323b872dd146104d75780632595eacb146104f757600080fd5b8063081812fc116102aa57806316404d011161028457806316404d011461046657806318160ddd146104975780631f0509e0146104b757600080fd5b8063081812fc146103b0578063095ea7b3146103f55780630ae16e531461041557600080fd5b80630739d191116102db5780630739d1911461034e578063077f224a1461036e57806307b472c41461039057600080fd5b806301ffc9a7146102f757806306fdde031461032c575b600080fd5b34801561030357600080fd5b506103176103123660046143a6565b61097d565b60405190151581526020015b60405180910390f35b34801561033857600080fd5b50610341610a62565b6040516103239190614431565b34801561035a57600080fd5b50610341610369366004614550565b610af4565b34801561037a57600080fd5b5061038e610389366004614609565b610bd5565b005b34801561039c57600080fd5b5061038e6103ab36600461468a565b610e05565b3480156103bc57600080fd5b506103d06103cb36600461468a565b610e82565b60405173ffffffffffffffffffffffffffffffffffffffff9091168152602001610323565b34801561040157600080fd5b5061038e6104103660046146a3565b610eb6565b34801561042157600080fd5b5061044d61043036600461468a565b6101626020526000908152604090205467ffffffffffffffff1681565b60405167ffffffffffffffff9091168152602001610323565b34801561047257600080fd5b5061031761048136600461468a565b61018d6020526000908152604090205460ff1681565b3480156104a357600080fd5b5061018f545b604051908152602001610323565b3480156104c357600080fd5b5061038e6104d23660046146cd565b611042565b3480156104e357600080fd5b5061038e6104f2366004614719565b6110a5565b34801561050357600080fd5b50610317610512366004614755565b61111e565b34801561052357600080fd5b5061038e6105323660046147a1565b6112b2565b34801561054357600080fd5b5061038e610552366004614820565b611417565b34801561056357600080fd5b5061038e61161c565b34801561057857600080fd5b5061038e610587366004614719565b61162e565b34801561059857600080fd5b5061038e6105a736600461468a565b6116a7565b61038e6105ba36600461483b565b6117af565b3480156105cb57600080fd5b506104a96119a1565b3480156105e057600080fd5b506103d06105ef36600461468a565b61018c6020526000908152604090205473ffffffffffffffffffffffffffffffffffffffff1681565b34801561062457600080fd5b5061012d5460ff16610317565b34801561063d57600080fd5b506103d061064c36600461468a565b507390f79bf6eb2c4f870365e785982e1f101e93b90690565b34801561067157600080fd5b506104a9610680366004614755565b600a9392505050565b34801561069557600080fd5b506104a96106a4366004614820565b611a8d565b3480156106b557600080fd5b5061038e611b5b565b3480156106ca57600080fd5b506104a96106d9366004614873565b611b6d565b3480156106ea57600080fd5b5061038e611caf565b3480156106ff57600080fd5b506104a961070e36600461468a565b61018e6020526000908152604090205481565b34801561072d57600080fd5b5060975473ffffffffffffffffffffffffffffffffffffffff166103d0565b34801561075857600080fd5b5061038e61076736600461468a565b611cbf565b34801561077857600080fd5b50610341611d38565b34801561078d57600080fd5b5061034161079c36600461468a565b611d47565b3480156107ad57600080fd5b5061038e6107bc36600461490e565b611de2565b3480156107cd57600080fd5b506104a96107dc36600461468a565b6101906020526000908152604090205481565b3480156107fb57600080fd5b5061038e61080a3660046149cf565b611ded565b34801561081b57600080fd5b5061038e61082a366004614a9e565b611f42565b34801561083b57600080fd5b5061034161084a36600461468a565b611fbc565b34801561085b57600080fd5b506104a961086a366004614755565b612097565b34801561087b57600080fd5b5061034161088a3660046146cd565b612109565b34801561089b57600080fd5b506104a96108aa366004614b06565b6121ed565b3480156108bb57600080fd5b5061044d6108ca36600461468a565b6101606020526000908152604090205467ffffffffffffffff1681565b3480156108f357600080fd5b50610317610902366004614bd4565b73ffffffffffffffffffffffffffffffffffffffff9182166000908152606a6020908152604080832093909416825291909152205460ff1690565b34801561094957600080fd5b5061038e610958366004614820565b6122f8565b34801561096957600080fd5b5061038e610978366004614c07565b6123ac565b60007fffffffff0000000000000000000000000000000000000000000000000000000082167f80ac58cd000000000000000000000000000000000000000000000000000000001480610a1057507fffffffff0000000000000000000000000000000000000000000000000000000082167f5b5e139f00000000000000000000000000000000000000000000000000000000145b80610a5c57507f01ffc9a7000000000000000000000000000000000000000000000000000000007fffffffff000000000000000000000000000000000000000000000000000000008316145b92915050565b606060658054610a7190614c61565b80601f0160208091040260200160405190810160405280929190818152602001828054610a9d90614c61565b8015610aea5780601f10610abf57610100808354040283529160200191610aea565b820191906000526020600020905b815481529060010190602001808311610acd57829003601f168201915b5050505050905090565b6000828152610162602090815260408083205467ffffffffffffffff168352610161825280832085845290915290819020905160609190610b36908490614cb4565b90815260200160405180910390208054610b4f90614c61565b80601f0160208091040260200160405190810160405280929190818152602001828054610b7b90614c61565b8015610bc85780601f10610b9d57610100808354040283529160200191610bc8565b820191906000526020600020905b815481529060010190602001808311610bab57829003601f168201915b5050505050905092915050565b600054610100900460ff1615808015610bf55750600054600160ff909116105b80610c0f5750303b158015610c0f575060005460ff166001145b610ca0576040517f08c379a000000000000000000000000000000000000000000000000000000000815260206004820152602e60248201527f496e697469616c697a61626c653a20636f6e747261637420697320616c72656160448201527f647920696e697469616c697a656400000000000000000000000000000000000060648201526084015b60405180910390fd5b600080547fffffffffffffffffffffffffffffffffffffffffffffffffffffffffffffff001660011790558015610cfe57600080547fffffffffffffffffffffffffffffffffffffffffffffffffffffffffffff00ff166101001790555b610d7186868080601f01602080910402602001604051908101604052809392919081815260200183838082843760009201919091525050604080516020601f8a0181900481028201810190925288815292508891508790819084018382808284376000920191909152506124e892505050565b610d79612589565b610d81612620565b610d896126bf565b610d9161275e565b610d9a826127e4565b8015610dfd57600080547fffffffffffffffffffffffffffffffffffffffffffffffffffffffffffff00ff169055604051600181527f7f26b83ff96e1f2b6a682f133852f6798a09c465da95921460cefb38474024989060200160405180910390a15b505050505050565b80610e0f8161285b565b610e75576040517f08c379a000000000000000000000000000000000000000000000000000000000815260206004820152601560248201527f4d455441444154415f554e415554484f524953454400000000000000000000006044820152606401610c97565b610e7e82612867565b5050565b6000610e8d826128f4565b5060009081526069602052604090205473ffffffffffffffffffffffffffffffffffffffff1690565b6000610ec18261297f565b90508073ffffffffffffffffffffffffffffffffffffffff168373ffffffffffffffffffffffffffffffffffffffff1603610f7e576040517f08c379a000000000000000000000000000000000000000000000000000000000815260206004820152602160248201527f4552433732313a20617070726f76616c20746f2063757272656e74206f776e6560448201527f72000000000000000000000000000000000000000000000000000000000000006064820152608401610c97565b3373ffffffffffffffffffffffffffffffffffffffff82161480610fa75750610fa78133610902565b611033576040517f08c379a000000000000000000000000000000000000000000000000000000000815260206004820152603d60248201527f4552433732313a20617070726f76652063616c6c6572206973206e6f7420746f60448201527f6b656e206f776e6572206f7220617070726f76656420666f7220616c6c0000006064820152608401610c97565b61103d8383612a0b565b505050565b61104a612aab565b600083815261018b60205260409020611064828483614d16565b507fe091ab4d07f328dfaf2dcd8b50b82e02d05cf20d71197646ac6b2611395947b783838360405161109893929190614e79565b60405180910390a1505050565b61012d5460ff1615611113576040517f08c379a000000000000000000000000000000000000000000000000000000000815260206004820152601460248201527f5452414e534645525f4e4f545f414c4c4f5745440000000000000000000000006044820152606401610c97565b61103d838383612b2c565b600081815261018d602052604081205460ff16611197576040517f08c379a000000000000000000000000000000000000000000000000000000000815260206004820152601060248201527f4e4f44455f4e4f545f414c4c4f574544000000000000000000000000000000006044820152606401610c97565b60006111a4858585612097565b60008181526067602052604090205490915073ffffffffffffffffffffffffffffffffffffffff166112a557600083815261018c602052604090205473ffffffffffffffffffffffffffffffffffffffff16801561129a576040517f7ac3e6ea00000000000000000000000000000000000000000000000000000000815273ffffffffffffffffffffffffffffffffffffffff821690637ac3e6ea906112509089908990600401614e9c565b602060405180830381865afa15801561126d573d6000803e3d6000fd5b505050506040513d601f19601f820116820180604052508101906112919190614eb0565b925050506112ab565b6001925050506112ab565b60009150505b9392505050565b826112bc8161285b565b611322576040517f08c379a000000000000000000000000000000000000000000000000000000000815260206004820152601560248201527f4d455441444154415f554e415554484f524953454400000000000000000000006044820152606401610c97565b60005b8281101561141057600084848381811061134157611341614ecd565b90506020028101906113539190614efc565b61135c90614f30565b6020808201516000898152610160835260408082205467ffffffffffffffff16825261015f84528082208b835290935282902083519251939450909290916113a391614cb4565b908152602001604051809103902090816113bd9190614f3c565b508051602082015160405188927f601d4b2f0f06545c0f60d4f70e3bc5d78db246f7b66aaeb1ea23a56aa854c670926113f592615056565b60405180910390a25080611408816150aa565b915050611325565b5050505050565b73ffffffffffffffffffffffffffffffffffffffff7f00000000000000000000000000000000000000000000000000000000000000001630036114dc576040517f08c379a000000000000000000000000000000000000000000000000000000000815260206004820152602c60248201527f46756e6374696f6e206d7573742062652063616c6c6564207468726f7567682060448201527f64656c656761746563616c6c00000000000000000000000000000000000000006064820152608401610c97565b7f000000000000000000000000000000000000000000000000000000000000000073ffffffffffffffffffffffffffffffffffffffff166115517f360894a13ba1a3210667c828492db98dca3e2076cc3735a920a3ca505d382bbc5473ffffffffffffffffffffffffffffffffffffffff1690565b73ffffffffffffffffffffffffffffffffffffffff16146115f4576040517f08c379a000000000000000000000000000000000000000000000000000000000815260206004820152602c60248201527f46756e6374696f6e206d7573742062652063616c6c6564207468726f7567682060448201527f6163746976652070726f787900000000000000000000000000000000000000006064820152608401610c97565b6115fd81612bcd565b6040805160008082526020820190925261161991839190612c6a565b50565b611624612aab565b61162c612e69565b565b61012d5460ff161561169c576040517f08c379a000000000000000000000000000000000000000000000000000000000815260206004820152601460248201527f5452414e534645525f4e4f545f414c4c4f5745440000000000000000000000006044820152606401610c97565b61103d838383612ec1565b6116b13382612edc565b611717576040517f08c379a000000000000000000000000000000000000000000000000000000000815260206004820152600c60248201527f554e415554484f52495a454400000000000000000000000000000000000000006044820152606401610c97565b61172081612867565b61172981612f9c565b600081815261018e602052604081205561174281613029565b61018f60008154611752906150e2565b90915550600081815261019060205260408120805483927f410c5c259085cde81fedf70c1aa308ec839373c26e9b7ada6560a2aca0254eb69291611795906150aa565b91829055506040519081526020015b60405180910390a250565b73ffffffffffffffffffffffffffffffffffffffff7f0000000000000000000000000000000000000000000000000000000000000000163003611874576040517f08c379a000000000000000000000000000000000000000000000000000000000815260206004820152602c60248201527f46756e6374696f6e206d7573742062652063616c6c6564207468726f7567682060448201527f64656c656761746563616c6c00000000000000000000000000000000000000006064820152608401610c97565b7f000000000000000000000000000000000000000000000000000000000000000073ffffffffffffffffffffffffffffffffffffffff166118e97f360894a13ba1a3210667c828492db98dca3e2076cc3735a920a3ca505d382bbc5473ffffffffffffffffffffffffffffffffffffffff1690565b73ffffffffffffffffffffffffffffffffffffffff161461198c576040517f08c379a000000000000000000000000000000000000000000000000000000000815260206004820152602c60248201527f46756e6374696f6e206d7573742062652063616c6c6564207468726f7567682060448201527f6163746976652070726f787900000000000000000000000000000000000000006064820152608401610c97565b61199582612bcd565b610e7e82826001612c6a565b60003073ffffffffffffffffffffffffffffffffffffffff7f00000000000000000000000000000000000000000000000000000000000000001614611a68576040517f08c379a000000000000000000000000000000000000000000000000000000000815260206004820152603860248201527f555550535570677261646561626c653a206d757374206e6f742062652063616c60448201527f6c6564207468726f7567682064656c656761746563616c6c00000000000000006064820152608401610c97565b507f360894a13ba1a3210667c828492db98dca3e2076cc3735a920a3ca505d382bbc90565b600073ffffffffffffffffffffffffffffffffffffffff8216611b32576040517f08c379a000000000000000000000000000000000000000000000000000000000815260206004820152602960248201527f4552433732313a2061646472657373207a65726f206973206e6f74206120766160448201527f6c6964206f776e657200000000000000000000000000000000000000000000006064820152608401610c97565b5073ffffffffffffffffffffffffffffffffffffffff1660009081526068602052604090205490565b611b63612aab565b61162c60006127e4565b600084815261018c602052604081205473ffffffffffffffffffffffffffffffffffffffff168015611c9757600060405180608001604052803373ffffffffffffffffffffffffffffffffffffffff1681526020018a8a8080601f0160208091040260200160405190810160405280939291908181526020018383808284376000920191909152505050908252506020810189905273ffffffffffffffffffffffffffffffffffffffff80891660409283015290517fcab80ede00000000000000000000000000000000000000000000000000000000815291925083169063cab80ede90611c6390849089908990600401615117565b600060405180830381600087803b158015611c7d57600080fd5b505af1158015611c91573d6000803e3d6000fd5b50505050505b611ca388888888613101565b98975050505050505050565b611cb7612aab565b61162c61275e565b80611cc981613212565b611d2f576040517f08c379a000000000000000000000000000000000000000000000000000000000815260206004820152601b60248201527f47415445445f4d455441444154415f554e415554484f524953454400000000006044820152606401610c97565b610e7e82612f9c565b606060668054610a7190614c61565b61018b6020526000908152604090208054611d6190614c61565b80601f0160208091040260200160405190810160405280929190818152602001828054611d8d90614c61565b8015611dda5780601f10611daf57610100808354040283529160200191611dda565b820191906000526020600020905b815481529060010190602001808311611dbd57829003601f168201915b505050505081565b610e7e3383836132da565b81611df781613212565b611e5d576040517f08c379a000000000000000000000000000000000000000000000000000000000815260206004820152601b60248201527f47415445445f4d455441444154415f554e415554484f524953454400000000006044820152606401610c97565b60005b8251811015611f3c576000838281518110611e7d57611e7d614ecd565b602090810291909101810151808201516000888152610162845260408082205467ffffffffffffffff16825261016185528082208a83529094528390208251935192945090929091611ecf9190614cb4565b90815260200160405180910390209081611ee99190614f3c565b508051602082015160405187927f29d4cd326b134d55e630ceb2871cea5e243b89bc9667e0c840b5da53b26ffd6a92611f2192615056565b60405180910390a25080611f34816150aa565b915050611e60565b50505050565b61012d5460ff1615611fb0576040517f08c379a000000000000000000000000000000000000000000000000000000000815260206004820152601460248201527f5452414e534645525f4e4f545f414c4c4f5745440000000000000000000000006044820152606401610c97565b611f3c84848484613407565b60008181526067602052604090205460609073ffffffffffffffffffffffffffffffffffffffff1661204a576040517f08c379a000000000000000000000000000000000000000000000000000000000815260206004820152601060248201527f494e56414c49445f544f4b454e5f4944000000000000000000000000000000006044820152606401610c97565b600082815261018e6020908152604080832054835261018b9091529020612070836134a9565b60405160200161208192919061518a565b6040516020818303038152906040529050919050565b6000808285856040516120ab92919061522f565b6040519081900381206120ca9291602001918252602082015260400190565b604080518083037fffffffffffffffffffffffffffffffffffffffffffffffffffffffffffffffe0018152919052805160209091012095945050505050565b6000838152610160602090815260408083205467ffffffffffffffff16835261015f82528083208684529091529081902090516060919061214d908590859061522f565b9081526020016040518091039020805461216690614c61565b80601f016020809104026020016040519081016040528092919081815260200182805461219290614c61565b80156121df5780601f106121b4576101008083540402835291602001916121df565b820191906000526020600020905b8154815290600101906020018083116121c257829003601f168201915b505050505090509392505050565b60006121f7612aab565b878a8a60405161220892919061522f565b6040519081900381206122279291602001918252602082015260400190565b604080518083037fffffffffffffffffffffffffffffffffffffffffffffffffffffffffffffffe00181528282528051602091820120600081815261018d90925291902080547fffffffffffffffffffffffffffffffffffffffffffffffffffffffffffffff00168a1515179055915081907ffbbc4187cf8cd340d071ee02e4e44eb8e04903a03649ef31a26e38798390351d906122cc908d908d908d908d9061523f565b60405180910390a26122df818787611042565b6122eb818585856123ac565b9998505050505050505050565b612300612aab565b73ffffffffffffffffffffffffffffffffffffffff81166123a3576040517f08c379a000000000000000000000000000000000000000000000000000000000815260206004820152602660248201527f4f776e61626c653a206e6577206f776e657220697320746865207a65726f206160448201527f64647265737300000000000000000000000000000000000000000000000000006064820152608401610c97565b611619816127e4565b6123b4612aab565b600084815261018c6020526040902080547fffffffffffffffffffffffff00000000000000000000000000000000000000001673ffffffffffffffffffffffffffffffffffffffff851690811790915515612490576040517f42a0d9b400000000000000000000000000000000000000000000000000000000815273ffffffffffffffffffffffffffffffffffffffff8416906342a0d9b49061245d9085908590600401614e9c565b600060405180830381600087803b15801561247757600080fd5b505af115801561248b573d6000803e3d6000fd5b505050505b8273ffffffffffffffffffffffffffffffffffffffff167f057da1406f81e1f47cda5874100d33118bf695f202882aacc5ca6d45ca9174498584846040516124da93929190614e79565b60405180910390a250505050565b600054610100900460ff1661257f576040517f08c379a000000000000000000000000000000000000000000000000000000000815260206004820152602b60248201527f496e697469616c697a61626c653a20636f6e7472616374206973206e6f74206960448201527f6e697469616c697a696e670000000000000000000000000000000000000000006064820152608401610c97565b610e7e8282613516565b600054610100900460ff1661162c576040517f08c379a000000000000000000000000000000000000000000000000000000000815260206004820152602b60248201527f496e697469616c697a61626c653a20636f6e7472616374206973206e6f74206960448201527f6e697469616c697a696e670000000000000000000000000000000000000000006064820152608401610c97565b600054610100900460ff166126b7576040517f08c379a000000000000000000000000000000000000000000000000000000000815260206004820152602b60248201527f496e697469616c697a61626c653a20636f6e7472616374206973206e6f74206960448201527f6e697469616c697a696e670000000000000000000000000000000000000000006064820152608401610c97565b61162c6135c6565b600054610100900460ff16612756576040517f08c379a000000000000000000000000000000000000000000000000000000000815260206004820152602b60248201527f496e697469616c697a61626c653a20636f6e7472616374206973206e6f74206960448201527f6e697469616c697a696e670000000000000000000000000000000000000000006064820152608401610c97565b61162c613666565b612766613728565b61012d80547fffffffffffffffffffffffffffffffffffffffffffffffffffffffffffffff001660011790557f62e78cea01bee320cd4e420270b5ea74000d11b0c9f74754ebdbfc544b05a2586127ba3390565b60405173ffffffffffffffffffffffffffffffffffffffff909116815260200160405180910390a1565b6097805473ffffffffffffffffffffffffffffffffffffffff8381167fffffffffffffffffffffffff0000000000000000000000000000000000000000831681179093556040519116919082907f8be0079c531659141344cd1fd0a4f28419497f9722a3daafe3b4186f6b6457e090600090a35050565b6000610a5c3383612edc565b600081815261016060205260408120805467ffffffffffffffff169161288c8361526b565b82546101009290920a67ffffffffffffffff818102199093169183160217909155600083815261016060209081526040918290205491519190921681528392507f3773c27b7f05829d86b67403e26562fb9d776452b918d74b238bfdc1203bf0ed91016117a4565b60008181526067602052604090205473ffffffffffffffffffffffffffffffffffffffff16611619576040517f08c379a000000000000000000000000000000000000000000000000000000000815260206004820152601860248201527f4552433732313a20696e76616c696420746f6b656e20494400000000000000006044820152606401610c97565b60008181526067602052604081205473ffffffffffffffffffffffffffffffffffffffff1680610a5c576040517f08c379a000000000000000000000000000000000000000000000000000000000815260206004820152601860248201527f4552433732313a20696e76616c696420746f6b656e20494400000000000000006044820152606401610c97565b600081815260696020526040902080547fffffffffffffffffffffffff00000000000000000000000000000000000000001673ffffffffffffffffffffffffffffffffffffffff84169081179091558190612a658261297f565b73ffffffffffffffffffffffffffffffffffffffff167f8c5be1e5ebec7d5bd14f71427d1e84f3dd0314c0f7b2291e5b200ac8c7c3b92560405160405180910390a45050565b60975473ffffffffffffffffffffffffffffffffffffffff16331461162c576040517f08c379a000000000000000000000000000000000000000000000000000000000815260206004820181905260248201527f4f776e61626c653a2063616c6c6572206973206e6f7420746865206f776e65726044820152606401610c97565b612b363382612edc565b612bc2576040517f08c379a000000000000000000000000000000000000000000000000000000000815260206004820152602d60248201527f4552433732313a2063616c6c6572206973206e6f7420746f6b656e206f776e6560448201527f72206f7220617070726f766564000000000000000000000000000000000000006064820152608401610c97565b61103d838383613796565b33612bed60975473ffffffffffffffffffffffffffffffffffffffff1690565b73ffffffffffffffffffffffffffffffffffffffff1614611619576040517f08c379a000000000000000000000000000000000000000000000000000000000815260206004820152600960248201527f4e4f545f4f574e455200000000000000000000000000000000000000000000006044820152606401610c97565b7f4910fdfa16fed3260ed0e7147f7cc6da11a60208b5b9406d12a635614ffd91435460ff1615612c9d5761103d83613a91565b8273ffffffffffffffffffffffffffffffffffffffff166352d1902d6040518163ffffffff1660e01b8152600401602060405180830381865afa925050508015612d22575060408051601f3d9081017fffffffffffffffffffffffffffffffffffffffffffffffffffffffffffffffe0168201909252612d1f91810190615292565b60015b612dae576040517f08c379a000000000000000000000000000000000000000000000000000000000815260206004820152602e60248201527f45524331393637557067726164653a206e657720696d706c656d656e7461746960448201527f6f6e206973206e6f7420555550530000000000000000000000000000000000006064820152608401610c97565b7f360894a13ba1a3210667c828492db98dca3e2076cc3735a920a3ca505d382bbc8114612e5d576040517f08c379a000000000000000000000000000000000000000000000000000000000815260206004820152602960248201527f45524331393637557067726164653a20756e737570706f727465642070726f7860448201527f6961626c655555494400000000000000000000000000000000000000000000006064820152608401610c97565b5061103d838383613b9b565b612e71613bc0565b61012d80547fffffffffffffffffffffffffffffffffffffffffffffffffffffffffffffff001690557f5db9ee0a495bf2e6ff9c91a7834c1ba4fdd244a5e8aa4e537bd38aeae4b073aa336127ba565b61103d83838360405180602001604052806000815250611f42565b600080612ee88361297f565b90508073ffffffffffffffffffffffffffffffffffffffff168473ffffffffffffffffffffffffffffffffffffffff161480612f56575073ffffffffffffffffffffffffffffffffffffffff8082166000908152606a602090815260408083209388168352929052205460ff165b80612f9457508373ffffffffffffffffffffffffffffffffffffffff16612f7c84610e82565b73ffffffffffffffffffffffffffffffffffffffff16145b949350505050565b600081815261016260205260408120805467ffffffffffffffff1691612fc18361526b565b82546101009290920a67ffffffffffffffff818102199093169183160217909155600083815261016260209081526040918290205491519190921681528392507fc87757beabcc5d61e477f4ffafb24461a0eb17e06d5bbf82354b4df70f3580c391016117a4565b60006130348261297f565b905061303f8261297f565b600083815260696020908152604080832080547fffffffffffffffffffffffff000000000000000000000000000000000000000090811690915573ffffffffffffffffffffffffffffffffffffffff85168085526068845282852080547fffffffffffffffffffffffffffffffffffffffffffffffffffffffffffffffff0190558785526067909352818420805490911690555192935084927fddf252ad1be2c89b69c2b068fc378daa952ba7f163c4a11628f55a4df523b3ef908390a45050565b600061310e85858561111e565b613174576040517f08c379a000000000000000000000000000000000000000000000000000000000815260206004820152601260248201527f4e414d455f4e4f545f415641494c41424c4500000000000000000000000000006044820152606401610c97565b6000613181868686612097565b905061318d8382613c2d565b61018f6000815461319d906150aa565b90915550600081815261018e6020526040908190208590555173ffffffffffffffffffffffffffffffffffffffff84169082907ffe530e3b4b61411a7dd546adc0e6736d4255abefc6b610401d26068e02dd495e90613201908a908a908a906152ab565b60405180910390a395945050505050565b60008181526067602052604081205473ffffffffffffffffffffffffffffffffffffffff1661329d576040517f08c379a000000000000000000000000000000000000000000000000000000000815260206004820152601060248201527f544f4b454e5f4e4f545f4d494e544544000000000000000000000000000000006044820152606401610c97565b336132bd60975473ffffffffffffffffffffffffffffffffffffffff1690565b73ffffffffffffffffffffffffffffffffffffffff161492915050565b8173ffffffffffffffffffffffffffffffffffffffff168373ffffffffffffffffffffffffffffffffffffffff160361336f576040517f08c379a000000000000000000000000000000000000000000000000000000000815260206004820152601960248201527f4552433732313a20617070726f766520746f2063616c6c6572000000000000006044820152606401610c97565b73ffffffffffffffffffffffffffffffffffffffff8381166000818152606a602090815260408083209487168084529482529182902080547fffffffffffffffffffffffffffffffffffffffffffffffffffffffffffffff001686151590811790915591519182527f17307eab39ab6107e8899845ad3d59bd9653f200f220920489ca2b5937696c31910160405180910390a3505050565b6134113383612edc565b61349d576040517f08c379a000000000000000000000000000000000000000000000000000000000815260206004820152602d60248201527f4552433732313a2063616c6c6572206973206e6f7420746f6b656e206f776e6560448201527f72206f7220617070726f766564000000000000000000000000000000000000006064820152608401610c97565b611f3c84848484613c47565b604080516080810191829052607f0190826030600a8206018353600a90045b80156134e657600183039250600a81066030018353600a90046134c8565b508190037fffffffffffffffffffffffffffffffffffffffffffffffffffffffffffffffe0909101908152919050565b600054610100900460ff166135ad576040517f08c379a000000000000000000000000000000000000000000000000000000000815260206004820152602b60248201527f496e697469616c697a61626c653a20636f6e7472616374206973206e6f74206960448201527f6e697469616c697a696e670000000000000000000000000000000000000000006064820152608401610c97565b60656135b98382614f3c565b50606661103d8282614f3c565b600054610100900460ff1661365d576040517f08c379a000000000000000000000000000000000000000000000000000000000815260206004820152602b60248201527f496e697469616c697a61626c653a20636f6e7472616374206973206e6f74206960448201527f6e697469616c697a696e670000000000000000000000000000000000000000006064820152608401610c97565b61162c336127e4565b600054610100900460ff166136fd576040517f08c379a000000000000000000000000000000000000000000000000000000000815260206004820152602b60248201527f496e697469616c697a61626c653a20636f6e7472616374206973206e6f74206960448201527f6e697469616c697a696e670000000000000000000000000000000000000000006064820152608401610c97565b61012d80547fffffffffffffffffffffffffffffffffffffffffffffffffffffffffffffff00169055565b61012d5460ff161561162c576040517f08c379a000000000000000000000000000000000000000000000000000000000815260206004820152601060248201527f5061757361626c653a20706175736564000000000000000000000000000000006044820152606401610c97565b8273ffffffffffffffffffffffffffffffffffffffff166137b68261297f565b73ffffffffffffffffffffffffffffffffffffffff1614613859576040517f08c379a000000000000000000000000000000000000000000000000000000000815260206004820152602560248201527f4552433732313a207472616e736665722066726f6d20696e636f72726563742060448201527f6f776e65720000000000000000000000000000000000000000000000000000006064820152608401610c97565b73ffffffffffffffffffffffffffffffffffffffff82166138fb576040517f08c379a0000000000000000000000000000000000000000000000000000000008152602060048201526024808201527f4552433732313a207472616e7366657220746f20746865207a65726f2061646460448201527f72657373000000000000000000000000000000000000000000000000000000006064820152608401610c97565b8273ffffffffffffffffffffffffffffffffffffffff1661391b8261297f565b73ffffffffffffffffffffffffffffffffffffffff16146139be576040517f08c379a000000000000000000000000000000000000000000000000000000000815260206004820152602560248201527f4552433732313a207472616e736665722066726f6d20696e636f72726563742060448201527f6f776e65720000000000000000000000000000000000000000000000000000006064820152608401610c97565b600081815260696020908152604080832080547fffffffffffffffffffffffff000000000000000000000000000000000000000090811690915573ffffffffffffffffffffffffffffffffffffffff8781168086526068855283862080547fffffffffffffffffffffffffffffffffffffffffffffffffffffffffffffffff01905590871680865283862080546001019055868652606790945282852080549092168417909155905184937fddf252ad1be2c89b69c2b068fc378daa952ba7f163c4a11628f55a4df523b3ef91a4505050565b73ffffffffffffffffffffffffffffffffffffffff81163b613b35576040517f08c379a000000000000000000000000000000000000000000000000000000000815260206004820152602d60248201527f455243313936373a206e657720696d706c656d656e746174696f6e206973206e60448201527f6f74206120636f6e7472616374000000000000000000000000000000000000006064820152608401610c97565b7f360894a13ba1a3210667c828492db98dca3e2076cc3735a920a3ca505d382bbc80547fffffffffffffffffffffffff00000000000000000000000000000000000000001673ffffffffffffffffffffffffffffffffffffffff92909216919091179055565b613ba483613cea565b600082511180613bb15750805b1561103d57611f3c8383613d37565b61012d5460ff1661162c576040517f08c379a000000000000000000000000000000000000000000000000000000000815260206004820152601460248201527f5061757361626c653a206e6f74207061757365640000000000000000000000006044820152606401610c97565b610e7e828260405180602001604052806000815250613d5c565b613c52848484613796565b613c5e84848484613dff565b611f3c576040517f08c379a000000000000000000000000000000000000000000000000000000000815260206004820152603260248201527f4552433732313a207472616e7366657220746f206e6f6e20455243373231526560448201527f63656976657220696d706c656d656e74657200000000000000000000000000006064820152608401610c97565b613cf381613a91565b60405173ffffffffffffffffffffffffffffffffffffffff8216907fbc7cd75a20ee27fd9adebab32041f755214dbc6bffa90cc0225b39da2e5c2d3b90600090a250565b60606112ab838360405180606001604052806027815260200161532c60279139613fef565b613d668383614074565b613d736000848484613dff565b61103d576040517f08c379a000000000000000000000000000000000000000000000000000000000815260206004820152603260248201527f4552433732313a207472616e7366657220746f206e6f6e20455243373231526560448201527f63656976657220696d706c656d656e74657200000000000000000000000000006064820152608401610c97565b600073ffffffffffffffffffffffffffffffffffffffff84163b15613fe7576040517f150b7a0200000000000000000000000000000000000000000000000000000000815273ffffffffffffffffffffffffffffffffffffffff85169063150b7a0290613e769033908990889088906004016152cf565b6020604051808303816000875af1925050508015613ecf575060408051601f3d9081017fffffffffffffffffffffffffffffffffffffffffffffffffffffffffffffffe0168201909252613ecc9181019061530e565b60015b613f9c573d808015613efd576040519150601f19603f3d011682016040523d82523d6000602084013e613f02565b606091505b508051600003613f94576040517f08c379a000000000000000000000000000000000000000000000000000000000815260206004820152603260248201527f4552433732313a207472616e7366657220746f206e6f6e20455243373231526560448201527f63656976657220696d706c656d656e74657200000000000000000000000000006064820152608401610c97565b805181602001fd5b7fffffffff00000000000000000000000000000000000000000000000000000000167f150b7a0200000000000000000000000000000000000000000000000000000000149050612f94565b506001612f94565b60606000808573ffffffffffffffffffffffffffffffffffffffff16856040516140199190614cb4565b600060405180830381855af49150503d8060008114614054576040519150601f19603f3d011682016040523d82523d6000602084013e614059565b606091505b509150915061406a86838387614299565b9695505050505050565b73ffffffffffffffffffffffffffffffffffffffff82166140f1576040517f08c379a000000000000000000000000000000000000000000000000000000000815260206004820181905260248201527f4552433732313a206d696e7420746f20746865207a65726f20616464726573736044820152606401610c97565b60008181526067602052604090205473ffffffffffffffffffffffffffffffffffffffff161561417d576040517f08c379a000000000000000000000000000000000000000000000000000000000815260206004820152601c60248201527f4552433732313a20746f6b656e20616c7265616479206d696e746564000000006044820152606401610c97565b60008181526067602052604090205473ffffffffffffffffffffffffffffffffffffffff1615614209576040517f08c379a000000000000000000000000000000000000000000000000000000000815260206004820152601c60248201527f4552433732313a20746f6b656e20616c7265616479206d696e746564000000006044820152606401610c97565b73ffffffffffffffffffffffffffffffffffffffff8216600081815260686020908152604080832080546001019055848352606790915280822080547fffffffffffffffffffffffff0000000000000000000000000000000000000000168417905551839291907fddf252ad1be2c89b69c2b068fc378daa952ba7f163c4a11628f55a4df523b3ef908290a45050565b6060831561432f5782516000036143285773ffffffffffffffffffffffffffffffffffffffff85163b614328576040517f08c379a000000000000000000000000000000000000000000000000000000000815260206004820152601d60248201527f416464726573733a2063616c6c20746f206e6f6e2d636f6e74726163740000006044820152606401610c97565b5081612f94565b612f9483838151156143445781518083602001fd5b806040517f08c379a0000000000000000000000000000000000000000000000000000000008152600401610c979190614431565b7fffffffff000000000000000000000000000000000000000000000000000000008116811461161957600080fd5b6000602082840312156143b857600080fd5b81356112ab81614378565b60005b838110156143de5781810151838201526020016143c6565b50506000910152565b600081518084526143ff8160208601602086016143c3565b601f017fffffffffffffffffffffffffffffffffffffffffffffffffffffffffffffffe0169290920160200192915050565b6020815260006112ab60208301846143e7565b7f4e487b7100000000000000000000000000000000000000000000000000000000600052604160045260246000fd5b604051601f82017fffffffffffffffffffffffffffffffffffffffffffffffffffffffffffffffe016810167ffffffffffffffff811182821017156144ba576144ba614444565b604052919050565b600082601f8301126144d357600080fd5b813567ffffffffffffffff8111156144ed576144ed614444565b61451e60207fffffffffffffffffffffffffffffffffffffffffffffffffffffffffffffffe0601f84011601614473565b81815284602083860101111561453357600080fd5b816020850160208301376000918101602001919091529392505050565b6000806040838503121561456357600080fd5b82359150602083013567ffffffffffffffff81111561458157600080fd5b61458d858286016144c2565b9150509250929050565b60008083601f8401126145a957600080fd5b50813567ffffffffffffffff8111156145c157600080fd5b6020830191508360208285010111156145d957600080fd5b9250929050565b803573ffffffffffffffffffffffffffffffffffffffff8116811461460457600080fd5b919050565b60008060008060006060868803121561462157600080fd5b853567ffffffffffffffff8082111561463957600080fd5b61464589838a01614597565b9097509550602088013591508082111561465e57600080fd5b5061466b88828901614597565b909450925061467e9050604087016145e0565b90509295509295909350565b60006020828403121561469c57600080fd5b5035919050565b600080604083850312156146b657600080fd5b6146bf836145e0565b946020939093013593505050565b6000806000604084860312156146e257600080fd5b83359250602084013567ffffffffffffffff81111561470057600080fd5b61470c86828701614597565b9497909650939450505050565b60008060006060848603121561472e57600080fd5b614737846145e0565b9250614745602085016145e0565b9150604084013590509250925092565b60008060006040848603121561476a57600080fd5b833567ffffffffffffffff81111561478157600080fd5b61478d86828701614597565b909790965060209590950135949350505050565b6000806000604084860312156147b657600080fd5b83359250602084013567ffffffffffffffff808211156147d557600080fd5b818601915086601f8301126147e957600080fd5b8135818111156147f857600080fd5b8760208260051b850101111561480d57600080fd5b6020830194508093505050509250925092565b60006020828403121561483257600080fd5b6112ab826145e0565b6000806040838503121561484e57600080fd5b614857836145e0565b9150602083013567ffffffffffffffff81111561458157600080fd5b6000806000806000806080878903121561488c57600080fd5b863567ffffffffffffffff808211156148a457600080fd5b6148b08a838b01614597565b9098509650602089013595508691506148cb60408a016145e0565b945060608901359150808211156148e157600080fd5b506148ee89828a01614597565b979a9699509497509295939492505050565b801515811461161957600080fd5b6000806040838503121561492157600080fd5b61492a836145e0565b9150602083013561493a81614900565b809150509250929050565b60006040828403121561495757600080fd5b6040516040810167ffffffffffffffff828210818311171561497b5761497b614444565b81604052829350843591508082111561499357600080fd5b61499f868387016144c2565b835260208501359150808211156149b557600080fd5b506149c2858286016144c2565b6020830152505092915050565b600080604083850312156149e257600080fd5b8235915060208084013567ffffffffffffffff80821115614a0257600080fd5b818601915086601f830112614a1657600080fd5b813581811115614a2857614a28614444565b8060051b614a37858201614473565b918252838101850191858101908a841115614a5157600080fd5b86860192505b83831015614a8d57823585811115614a6f5760008081fd5b614a7d8c89838a0101614945565b8352509186019190860190614a57565b809750505050505050509250929050565b60008060008060808587031215614ab457600080fd5b614abd856145e0565b9350614acb602086016145e0565b925060408501359150606085013567ffffffffffffffff811115614aee57600080fd5b614afa878288016144c2565b91505092959194509250565b600080600080600080600080600060c08a8c031215614b2457600080fd5b893567ffffffffffffffff80821115614b3c57600080fd5b614b488d838e01614597565b909b50995060208c0135985060408c01359150614b6482614900565b90965060608b01359080821115614b7a57600080fd5b614b868d838e01614597565b9097509550859150614b9a60808d016145e0565b945060a08c0135915080821115614bb057600080fd5b50614bbd8c828d01614597565b915080935050809150509295985092959850929598565b60008060408385031215614be757600080fd5b614bf0836145e0565b9150614bfe602084016145e0565b90509250929050565b60008060008060608587031215614c1d57600080fd5b84359350614c2d602086016145e0565b9250604085013567ffffffffffffffff811115614c4957600080fd5b614c5587828801614597565b95989497509550505050565b600181811c90821680614c7557607f821691505b602082108103614cae577f4e487b7100000000000000000000000000000000000000000000000000000000600052602260045260246000fd5b50919050565b60008251614cc68184602087016143c3565b9190910192915050565b601f82111561103d57600081815260208120601f850160051c81016020861015614cf75750805b601f850160051c820191505b81811015610dfd57828155600101614d03565b67ffffffffffffffff831115614d2e57614d2e614444565b614d4283614d3c8354614c61565b83614cd0565b6000601f841160018114614d945760008515614d5e5750838201355b7fffffffffffffffffffffffffffffffffffffffffffffffffffffffffffffffff600387901b1c1916600186901b178355611410565b6000838152602090207fffffffffffffffffffffffffffffffffffffffffffffffffffffffffffffffe0861690835b82811015614de35786850135825560209485019460019092019101614dc3565b5086821015614e1e577fffffffffffffffffffffffffffffffffffffffffffffffffffffffffffffffff60f88860031b161c19848701351681555b505060018560011b0183555050505050565b8183528181602085013750600060208284010152600060207fffffffffffffffffffffffffffffffffffffffffffffffffffffffffffffffe0601f840116840101905092915050565b838152604060208201526000614e93604083018486614e30565b95945050505050565b602081526000612f94602083018486614e30565b600060208284031215614ec257600080fd5b81516112ab81614900565b7f4e487b7100000000000000000000000000000000000000000000000000000000600052603260045260246000fd5b600082357fffffffffffffffffffffffffffffffffffffffffffffffffffffffffffffffc1833603018112614cc657600080fd5b6000610a5c3683614945565b815167ffffffffffffffff811115614f5657614f56614444565b614f6a81614f648454614c61565b84614cd0565b602080601f831160018114614fbd5760008415614f875750858301515b7fffffffffffffffffffffffffffffffffffffffffffffffffffffffffffffffff600386901b1c1916600185901b178555610dfd565b6000858152602081207fffffffffffffffffffffffffffffffffffffffffffffffffffffffffffffffe08616915b8281101561500a57888601518255948401946001909101908401614feb565b508582101561504657878501517fffffffffffffffffffffffffffffffffffffffffffffffffffffffffffffffff600388901b60f8161c191681555b5050505050600190811b01905550565b60408152600061506960408301856143e7565b8281036020840152614e9381856143e7565b7f4e487b7100000000000000000000000000000000000000000000000000000000600052601160045260246000fd5b60007fffffffffffffffffffffffffffffffffffffffffffffffffffffffffffffffff82036150db576150db61507b565b5060010190565b6000816150f1576150f161507b565b507fffffffffffffffffffffffffffffffffffffffffffffffffffffffffffffffff0190565b60408152600073ffffffffffffffffffffffffffffffffffffffff80865116604084015260208601516080606085015261515460c08501826143e7565b9050604087015160808501528160608801511660a0850152838103602085015261517f818688614e30565b979650505050505050565b600080845461519881614c61565b600182811680156151b057600181146151e357615212565b7fffffffffffffffffffffffffffffffffffffffffffffffffffffffffffffff0084168752821515830287019450615212565b8860005260208060002060005b858110156152095781548a8201529084019082016151f0565b50505082870194505b5050505083516152268183602088016143c3565b01949350505050565b8183823760009101908152919050565b606081526000615253606083018688614e30565b60208301949094525090151560409091015292915050565b600067ffffffffffffffff8083168181036152885761528861507b565b6001019392505050565b6000602082840312156152a457600080fd5b5051919050565b6040815260006152bf604083018587614e30565b9050826020830152949350505050565b600073ffffffffffffffffffffffffffffffffffffffff80871683528086166020840152508360408301526080606083015261406a60808301846143e7565b60006020828403121561532057600080fd5b81516112ab8161437856fe416464726573733a206c6f772d6c6576656c2064656c65676174652063616c6c206661696c6564a26469706673582212207cc6907c24461814c8687c7711d3ae46938008d9c888875afef74cfbfbabda1a64736f6c63430008150033",
  "linkReferences": {},
  "deployedLinkReferences": {}
}