{
  "_format": "hh-sol-artifact-1",
  "contractName": "MocaPoints",
  "sourceName": "contracts/MocaPoints/MocaPoints.sol",
  "abi": [
    {
      "inputs": [],
      "stateMutability": "nonpayable",
      "type": "constructor"
    },
    {
      "anonymous": false,
      "inputs": [
        {
          "indexed": false,
          "internalType": "address",
          "name": "previousAdmin",
          "type": "address"
        },
        {
          "indexed": false,
          "internalType": "address",
          "name": "newAdmin",
          "type": "address"
        }
      ],
      "name": "AdminChanged",
      "type": "event"
    },
    {
      "anonymous": false,
      "inputs": [
        {
          "indexed": false,
          "internalType": "bytes32[]",
          "name": "reasonCodes",
          "type": "bytes32[]"
        }
      ],
      "name": "BatchAddedConsumeReasonCode",
      "type": "event"
    },
    {
      "anonymous": false,
      "inputs": [
        {
          "indexed": false,
          "internalType": "bytes32[]",
          "name": "reasonCodes",
          "type": "bytes32[]"
        }
      ],
      "name": "BatchRemovedConsumeReasonCode",
      "type": "event"
    },
    {
      "anonymous": false,
      "inputs": [
        {
          "indexed": true,
          "internalType": "address",
          "name": "beacon",
          "type": "address"
        }
      ],
      "name": "BeaconUpgraded",
      "type": "event"
    },
    {
      "anonymous": false,
      "inputs": [
        {
          "indexed": true,
          "internalType": "uint256",
          "name": "realmId",
          "type": "uint256"
        },
        {
          "indexed": true,
          "internalType": "bytes32",
          "name": "season",
          "type": "bytes32"
        },
        {
          "indexed": true,
          "internalType": "bytes32",
          "name": "reasonCode",
          "type": "bytes32"
        },
        {
          "indexed": false,
          "internalType": "address",
          "name": "operator",
          "type": "address"
        },
        {
          "indexed": false,
          "internalType": "uint256",
          "name": "nonce",
          "type": "uint256"
        },
        {
          "indexed": false,
          "internalType": "uint256",
          "name": "realmIdVersion",
          "type": "uint256"
        },
        {
          "indexed": false,
          "internalType": "uint256",
          "name": "amount",
          "type": "uint256"
        },
        {
          "indexed": false,
          "internalType": "address",
          "name": "realmIdOwner",
          "type": "address"
        }
      ],
      "name": "Consumed",
      "type": "event"
    },
    {
      "anonymous": false,
      "inputs": [
        {
          "indexed": true,
          "internalType": "address",
          "name": "sender",
          "type": "address"
        },
        {
          "indexed": true,
          "internalType": "bytes32",
          "name": "season",
          "type": "bytes32"
        },
        {
          "indexed": true,
          "internalType": "bytes32",
          "name": "reasonCode",
          "type": "bytes32"
        },
        {
          "indexed": false,
          "internalType": "uint256",
          "name": "realmId",
          "type": "uint256"
        },
        {
          "indexed": false,
          "internalType": "uint256",
          "name": "realmIdVersion",
          "type": "uint256"
        },
        {
          "indexed": false,
          "internalType": "uint256",
          "name": "amount",
          "type": "uint256"
        }
      ],
      "name": "Deposited",
      "type": "event"
    },
    {
      "anonymous": false,
      "inputs": [
        {
          "indexed": false,
          "internalType": "uint8",
          "name": "version",
          "type": "uint8"
        }
      ],
      "name": "Initialized",
      "type": "event"
    },
    {
      "anonymous": false,
      "inputs": [
        {
          "indexed": false,
          "internalType": "address",
          "name": "account",
          "type": "address"
        }
      ],
      "name": "Paused",
      "type": "event"
    },
    {
      "anonymous": false,
      "inputs": [
        {
          "indexed": true,
          "internalType": "bytes32",
          "name": "role",
          "type": "bytes32"
        },
        {
          "indexed": true,
          "internalType": "bytes32",
          "name": "previousAdminRole",
          "type": "bytes32"
        },
        {
          "indexed": true,
          "internalType": "bytes32",
          "name": "newAdminRole",
          "type": "bytes32"
        }
      ],
      "name": "RoleAdminChanged",
      "type": "event"
    },
    {
      "anonymous": false,
      "inputs": [
        {
          "indexed": true,
          "internalType": "bytes32",
          "name": "role",
          "type": "bytes32"
        },
        {
          "indexed": true,
          "internalType": "address",
          "name": "account",
          "type": "address"
        },
        {
          "indexed": true,
          "internalType": "address",
          "name": "sender",
          "type": "address"
        }
      ],
      "name": "RoleGranted",
      "type": "event"
    },
    {
      "anonymous": false,
      "inputs": [
        {
          "indexed": true,
          "internalType": "bytes32",
          "name": "role",
          "type": "bytes32"
        },
        {
          "indexed": true,
          "internalType": "address",
          "name": "account",
          "type": "address"
        },
        {
          "indexed": true,
          "internalType": "address",
          "name": "sender",
          "type": "address"
        }
      ],
      "name": "RoleRevoked",
      "type": "event"
    },
    {
      "anonymous": false,
      "inputs": [
        {
          "indexed": false,
          "internalType": "bytes32",
          "name": "season",
          "type": "bytes32"
        }
      ],
      "name": "SetCurrentSeason",
      "type": "event"
    },
    {
      "anonymous": false,
      "inputs": [
        {
          "indexed": false,
          "internalType": "address",
          "name": "account",
          "type": "address"
        }
      ],
      "name": "Unpaused",
      "type": "event"
    },
    {
      "anonymous": false,
      "inputs": [
        {
          "indexed": true,
          "internalType": "address",
          "name": "implementation",
          "type": "address"
        }
      ],
      "name": "Upgraded",
      "type": "event"
    },
    {
      "inputs": [],
      "name": "ADMIN_ROLE",
      "outputs": [
        {
          "internalType": "bytes32",
          "name": "",
          "type": "bytes32"
        }
      ],
      "stateMutability": "view",
      "type": "function"
    },
    {
      "inputs": [],
      "name": "DEFAULT_ADMIN_ROLE",
      "outputs": [
        {
          "internalType": "bytes32",
          "name": "",
          "type": "bytes32"
        }
      ],
      "stateMutability": "view",
      "type": "function"
    },
    {
      "inputs": [],
      "name": "DEPOSITOR_ROLE",
      "outputs": [
        {
          "internalType": "bytes32",
          "name": "",
          "type": "bytes32"
        }
      ],
      "stateMutability": "view",
      "type": "function"
    },
    {
      "inputs": [],
      "name": "PAUSER_ROLE",
      "outputs": [
        {
          "internalType": "bytes32",
          "name": "",
          "type": "bytes32"
        }
      ],
      "stateMutability": "view",
      "type": "function"
    },
    {
      "inputs": [],
      "name": "UPGRADER_ROLE",
      "outputs": [
        {
          "internalType": "bytes32",
          "name": "",
          "type": "bytes32"
        }
      ],
      "stateMutability": "view",
      "type": "function"
    },
    {
      "inputs": [],
      "name": "adminAddress",
      "outputs": [
        {
          "internalType": "address",
          "name": "",
          "type": "address"
        }
      ],
      "stateMutability": "view",
      "type": "function"
    },
    {
      "inputs": [
        {
          "internalType": "bytes32",
          "name": "season",
          "type": "bytes32"
        },
        {
          "internalType": "bytes32",
          "name": "parentNode",
          "type": "bytes32"
        },
        {
          "internalType": "string",
          "name": "_name",
          "type": "string"
        }
      ],
      "name": "balanceOf",
      "outputs": [
        {
          "internalType": "uint256",
          "name": "",
          "type": "uint256"
        }
      ],
      "stateMutability": "view",
      "type": "function"
    },
    {
      "inputs": [
        {
          "internalType": "bytes32",
          "name": "parentNode",
          "type": "bytes32"
        },
        {
          "internalType": "string",
          "name": "_name",
          "type": "string"
        }
      ],
      "name": "balanceOf",
      "outputs": [
        {
          "internalType": "uint256",
          "name": "",
          "type": "uint256"
        }
      ],
      "stateMutability": "view",
      "type": "function"
    },
    {
      "inputs": [
        {
          "internalType": "uint256",
          "name": "realmId",
          "type": "uint256"
        }
      ],
      "name": "balanceOf",
      "outputs": [
        {
          "internalType": "uint256",
          "name": "",
          "type": "uint256"
        }
      ],
      "stateMutability": "view",
      "type": "function"
    },
    {
      "inputs": [
        {
          "internalType": "bytes32",
          "name": "season",
          "type": "bytes32"
        },
        {
          "internalType": "uint256",
          "name": "realmId",
          "type": "uint256"
        }
      ],
      "name": "balanceOf",
      "outputs": [
        {
          "internalType": "uint256",
          "name": "",
          "type": "uint256"
        }
      ],
      "stateMutability": "view",
      "type": "function"
    },
    {
      "inputs": [
        {
          "internalType": "bytes32[]",
          "name": "_reasonCodes",
          "type": "bytes32[]"
        }
      ],
      "name": "batchAddConsumeReasonCodes",
      "outputs": [],
      "stateMutability": "nonpayable",
      "type": "function"
    },
    {
      "inputs": [
        {
          "internalType": "bytes32[]",
          "name": "_reasonCodes",
          "type": "bytes32[]"
        }
      ],
      "name": "batchRemoveConsumeReasonCodes",
      "outputs": [],
      "stateMutability": "nonpayable",
      "type": "function"
    },
    {
      "inputs": [
        {
          "internalType": "bytes32",
          "name": "parentNode",
          "type": "bytes32"
        },
        {
          "internalType": "string",
          "name": "_name",
          "type": "string"
        },
        {
          "internalType": "uint256",
          "name": "amount",
          "type": "uint256"
        },
        {
          "internalType": "bytes32",
          "name": "consumeReasonCode",
          "type": "bytes32"
        },
        {
          "internalType": "uint8",
          "name": "v",
          "type": "uint8"
        },
        {
          "internalType": "bytes32",
          "name": "r",
          "type": "bytes32"
        },
        {
          "internalType": "bytes32",
          "name": "s",
          "type": "bytes32"
        }
      ],
      "name": "consume",
      "outputs": [],
      "stateMutability": "nonpayable",
      "type": "function"
    },
    {
      "inputs": [
        {
          "internalType": "uint256",
          "name": "realmId",
          "type": "uint256"
        },
        {
          "internalType": "uint256",
          "name": "amount",
          "type": "uint256"
        },
        {
          "internalType": "bytes32",
          "name": "consumeReasonCode",
          "type": "bytes32"
        }
      ],
      "name": "consume",
      "outputs": [],
      "stateMutability": "nonpayable",
      "type": "function"
    },
    {
      "inputs": [
        {
          "internalType": "uint256",
          "name": "realmId",
          "type": "uint256"
        },
        {
          "internalType": "uint256",
          "name": "amount",
          "type": "uint256"
        },
        {
          "internalType": "bytes32",
          "name": "consumeReasonCode",
          "type": "bytes32"
        },
        {
          "internalType": "uint8",
          "name": "v",
          "type": "uint8"
        },
        {
          "internalType": "bytes32",
          "name": "r",
          "type": "bytes32"
        },
        {
          "internalType": "bytes32",
          "name": "s",
          "type": "bytes32"
        }
      ],
      "name": "consume",
      "outputs": [],
      "stateMutability": "nonpayable",
      "type": "function"
    },
    {
      "inputs": [
        {
          "internalType": "bytes32",
          "name": "parentNode",
          "type": "bytes32"
        },
        {
          "internalType": "string",
          "name": "_name",
          "type": "string"
        },
        {
          "internalType": "uint256",
          "name": "amount",
          "type": "uint256"
        },
        {
          "internalType": "bytes32",
          "name": "consumeReasonCode",
          "type": "bytes32"
        }
      ],
      "name": "consume",
      "outputs": [],
      "stateMutability": "nonpayable",
      "type": "function"
    },
    {
      "inputs": [],
      "name": "currentSeason",
      "outputs": [
        {
          "internalType": "bytes32",
          "name": "",
          "type": "bytes32"
        }
      ],
      "stateMutability": "view",
      "type": "function"
    },
    {
      "inputs": [
        {
          "internalType": "bytes32",
          "name": "season",
          "type": "bytes32"
        },
        {
          "internalType": "uint256",
          "name": "realmId",
          "type": "uint256"
        },
        {
          "internalType": "uint256",
          "name": "realmIdVersion",
          "type": "uint256"
        },
        {
          "internalType": "uint256",
          "name": "amount",
          "type": "uint256"
        },
        {
          "internalType": "bytes32",
          "name": "depositReasonCode",
          "type": "bytes32"
        }
      ],
      "name": "deposit",
      "outputs": [],
      "stateMutability": "nonpayable",
      "type": "function"
    },
    {
      "inputs": [
        {
          "internalType": "bytes32",
          "name": "season",
          "type": "bytes32"
        },
        {
          "internalType": "bytes32",
          "name": "parentNode",
          "type": "bytes32"
        },
        {
          "internalType": "string",
          "name": "name",
          "type": "string"
        },
        {
          "internalType": "uint256",
          "name": "realmIdVersion",
          "type": "uint256"
        },
        {
          "internalType": "uint256",
          "name": "amount",
          "type": "uint256"
        },
        {
          "internalType": "bytes32",
          "name": "depositReasonCode",
          "type": "bytes32"
        }
      ],
      "name": "deposit",
      "outputs": [],
      "stateMutability": "nonpayable",
      "type": "function"
    },
    {
      "inputs": [
        {
          "internalType": "bytes32",
          "name": "role",
          "type": "bytes32"
        }
      ],
      "name": "getRoleAdmin",
      "outputs": [
        {
          "internalType": "bytes32",
          "name": "",
          "type": "bytes32"
        }
      ],
      "stateMutability": "view",
      "type": "function"
    },
    {
      "inputs": [
        {
          "internalType": "bytes32",
          "name": "role",
          "type": "bytes32"
        },
        {
          "internalType": "address",
          "name": "account",
          "type": "address"
        }
      ],
      "name": "grantRole",
      "outputs": [],
      "stateMutability": "nonpayable",
      "type": "function"
    },
    {
      "inputs": [
        {
          "internalType": "bytes32",
          "name": "role",
          "type": "bytes32"
        },
        {
          "internalType": "address",
          "name": "account",
          "type": "address"
        }
      ],
      "name": "hasRole",
      "outputs": [
        {
          "internalType": "bool",
          "name": "",
          "type": "bool"
        }
      ],
      "stateMutability": "view",
      "type": "function"
    },
    {
      "inputs": [
        {
          "internalType": "address",
          "name": "_realmIdContract",
          "type": "address"
        },
        {
          "internalType": "address",
          "name": "_adminAddress",
          "type": "address"
        }
      ],
      "name": "initialize",
      "outputs": [],
      "stateMutability": "nonpayable",
      "type": "function"
    },
    {
      "inputs": [
        {
          "internalType": "bytes32",
          "name": "reasonCode",
          "type": "bytes32"
        }
      ],
      "name": "isReasonCodeAllowed",
      "outputs": [
        {
          "internalType": "bool",
          "name": "",
          "type": "bool"
        }
      ],
      "stateMutability": "view",
      "type": "function"
    },
    {
      "inputs": [
        {
          "internalType": "uint256",
          "name": "",
          "type": "uint256"
        }
      ],
      "name": "nonces",
      "outputs": [
        {
          "internalType": "uint256",
          "name": "",
          "type": "uint256"
        }
      ],
      "stateMutability": "view",
      "type": "function"
    },
    {
      "inputs": [],
      "name": "pause",
      "outputs": [],
      "stateMutability": "nonpayable",
      "type": "function"
    },
    {
      "inputs": [],
      "name": "paused",
      "outputs": [
        {
          "internalType": "bool",
          "name": "",
          "type": "bool"
        }
      ],
      "stateMutability": "view",
      "type": "function"
    },
    {
      "inputs": [
        {
          "internalType": "uint256",
          "name": "realmId",
          "type": "uint256"
        },
        {
          "internalType": "uint256",
          "name": "amount",
          "type": "uint256"
        },
        {
          "internalType": "bytes32",
          "name": "reasonCode",
          "type": "bytes32"
        }
      ],
      "name": "preparePayload",
      "outputs": [
        {
          "internalType": "bytes32",
          "name": "",
          "type": "bytes32"
        }
      ],
      "stateMutability": "view",
      "type": "function"
    },
    {
      "inputs": [],
      "name": "proxiableUUID",
      "outputs": [
        {
          "internalType": "bytes32",
          "name": "",
          "type": "bytes32"
        }
      ],
      "stateMutability": "view",
      "type": "function"
    },
    {
      "inputs": [],
      "name": "realmIdContract",
      "outputs": [
        {
          "internalType": "contract IRealmId",
          "name": "",
          "type": "address"
        }
      ],
      "stateMutability": "view",
      "type": "function"
    },
    {
      "inputs": [
        {
          "internalType": "bytes32",
          "name": "role",
          "type": "bytes32"
        },
        {
          "internalType": "address",
          "name": "account",
          "type": "address"
        }
      ],
      "name": "renounceRole",
      "outputs": [],
      "stateMutability": "nonpayable",
      "type": "function"
    },
    {
      "inputs": [
        {
          "internalType": "bytes32",
          "name": "role",
          "type": "bytes32"
        },
        {
          "internalType": "address",
          "name": "account",
          "type": "address"
        }
      ],
      "name": "revokeRole",
      "outputs": [],
      "stateMutability": "nonpayable",
      "type": "function"
    },
    {
      "inputs": [
        {
          "internalType": "bytes32",
          "name": "",
          "type": "bytes32"
        }
      ],
      "name": "seasons",
      "outputs": [
        {
          "internalType": "bool",
          "name": "",
          "type": "bool"
        }
      ],
      "stateMutability": "view",
      "type": "function"
    },
    {
      "inputs": [
        {
          "internalType": "bytes32",
          "name": "_season",
          "type": "bytes32"
        }
      ],
      "name": "setCurrentSeason",
      "outputs": [],
      "stateMutability": "nonpayable",
      "type": "function"
    },
    {
      "inputs": [
        {
          "internalType": "bytes4",
          "name": "interfaceId",
          "type": "bytes4"
        }
      ],
      "name": "supportsInterface",
      "outputs": [
        {
          "internalType": "bool",
          "name": "",
          "type": "bool"
        }
      ],
      "stateMutability": "view",
      "type": "function"
    },
    {
      "inputs": [],
      "name": "unpause",
      "outputs": [],
      "stateMutability": "nonpayable",
      "type": "function"
    },
    {
      "inputs": [
        {
          "internalType": "address",
          "name": "newImplementation",
          "type": "address"
        }
      ],
      "name": "upgradeTo",
      "outputs": [],
      "stateMutability": "nonpayable",
      "type": "function"
    },
    {
      "inputs": [
        {
          "internalType": "address",
          "name": "newImplementation",
          "type": "address"
        },
        {
          "internalType": "bytes",
          "name": "data",
          "type": "bytes"
        }
      ],
      "name": "upgradeToAndCall",
      "outputs": [],
      "stateMutability": "payable",
      "type": "function"
    }
  ],
  "bytecode": "0x60a0604052306080523480156200001557600080fd5b506200002062000026565b620000e7565b600054610100900460ff1615620000935760405162461bcd60e51b815260206004820152602760248201527f496e697469616c697a61626c653a20636f6e747261637420697320696e697469604482015266616c697a696e6760c81b606482015260840160405180910390fd5b60005460ff90811614620000e5576000805460ff191660ff9081179091556040519081527f7f26b83ff96e1f2b6a682f133852f6798a09c465da95921460cefb38474024989060200160405180910390a15b565b6080516138836200011f60003960008181610b4401528181610bf4015281816112e00152818161139001526114d501526138836000f3fe6080604052600436106102855760003560e01c806386a8e98a11610153578063bcb39621116100cb578063df00bb241161007f578063e63ab1e911610064578063e63ab1e914610793578063f72c0d8b146107c7578063fc6f9468146107fb57600080fd5b8063df00bb2414610753578063e564a0e21461077357600080fd5b8063d14a5c71116100b0578063d14a5c71146106f3578063d547741f14610713578063dc893ce41461073357600080fd5b8063bcb39621146106ab578063c0542cfa146106c257600080fd5b80639cc7f70811610122578063a217fddf11610107578063a217fddf14610642578063a3b0b5a314610657578063ad3b1d481461068b57600080fd5b80639cc7f708146106025780639d70b0051461062257600080fd5b806386a8e98a1461054f578063906405a31461056f57806391d148541461058f57806399d342ac146105e257600080fd5b80633f30b00f1161020157806352d1902d116101b557806375b238fc1161019a57806375b238fc146104e6578063794459be1461051a5780638456cb591461053a57600080fd5b806352d1902d146104b95780635c975abb146104ce57600080fd5b80634529cc1b116101e65780634529cc1b14610455578063485cc955146104865780634f1ef286146104a657600080fd5b80633f30b00f146104205780633f4ba83a1461044057600080fd5b8063248a9ca3116102585780632f2ff15d1161023d5780632f2ff15d146103c057806336568abe146103e05780633659cfe61461040057600080fd5b8063248a9ca31461033d5780632b48dc721461036d57600080fd5b806301ffc9a71461028a578063098b6419146102bf578063141a468c146102ed57806318ee89f01461031b575b600080fd5b34801561029657600080fd5b506102aa6102a5366004612f90565b610829565b60405190151581526020015b60405180910390f35b3480156102cb57600080fd5b506102df6102da3660046130e6565b6108c2565b6040519081526020016102b6565b3480156102f957600080fd5b506102df610308366004613136565b6101326020526000908152604090205481565b34801561032757600080fd5b5061033b61033636600461314f565b610907565b005b34801561034957600080fd5b506102df610358366004613136565b60009081526097602052604090206001015490565b34801561037957600080fd5b5061012f5461039b9073ffffffffffffffffffffffffffffffffffffffff1681565b60405173ffffffffffffffffffffffffffffffffffffffff90911681526020016102b6565b3480156103cc57600080fd5b5061033b6103db3660046131ac565b610a50565b3480156103ec57600080fd5b5061033b6103fb3660046131ac565b610a7a565b34801561040c57600080fd5b5061033b61041b3660046131dc565b610b2d565b34801561042c57600080fd5b5061033b61043b3660046131f9565b610d32565b34801561044c57600080fd5b5061033b610f06565b34801561046157600080fd5b506102aa610470366004613136565b61012e6020526000908152604090205460ff1681565b34801561049257600080fd5b5061033b6104a136600461329f565b610f38565b61033b6104b43660046132cd565b6112c9565b3480156104c557600080fd5b506102df6114bb565b3480156104da57600080fd5b5060335460ff166102aa565b3480156104f257600080fd5b506102df7fa49807205ce4d355092ef5a8a18f56e8913cf4a201fbe287825b095693c2177581565b34801561052657600080fd5b506102df610535366004613331565b6115a7565b34801561054657600080fd5b5061033b6115f4565b34801561055b57600080fd5b5061033b61056a366004613136565b611626565b34801561057b57600080fd5b5061033b61058a3660046131f9565b6117a8565b34801561059b57600080fd5b506102aa6105aa3660046131ac565b600091825260976020908152604080842073ffffffffffffffffffffffffffffffffffffffff93909316845291905290205460ff1690565b3480156105ee57600080fd5b5061033b6105fd366004613384565b6118e5565b34801561060e57600080fd5b506102df61061d366004613136565b61190b565b34801561062e57600080fd5b5061033b61063d366004613402565b611948565b34801561064e57600080fd5b506102df600081565b34801561066357600080fd5b506102df7f8f4f2da22e8ac8f11e15f9fc141cddbb5deea8800186560abb6e68c5496619a981565b34801561069757600080fd5b506102df6106a636600461346e565b611a04565b3480156106b757600080fd5b506102df61012d5481565b3480156106ce57600080fd5b506102aa6106dd366004613136565b6000908152610133602052604090205460ff1690565b3480156106ff57600080fd5b5061033b61070e366004613490565b611a37565b34801561071f57600080fd5b5061033b61072e3660046131ac565b611a42565b34801561073f57600080fd5b5061033b61074e3660046134bc565b611a67565b34801561075f57600080fd5b506102df61076e366004613490565b611a7d565b34801561077f57600080fd5b5061033b61078e36600461350d565b611aee565b34801561079f57600080fd5b506102df7f65d7a28e3265b37a6474929f336521b332c1681b933f6cb9f3376673440d862a81565b3480156107d357600080fd5b506102df7f189ab7a9244df0848122154315af71fe140f3db0fe014031783b0946b8c9d2e381565b34801561080757600080fd5b506101305461039b9073ffffffffffffffffffffffffffffffffffffffff1681565b60007fffffffff0000000000000000000000000000000000000000000000000000000082167f7965db0b0000000000000000000000000000000000000000000000000000000014806108bc57507f01ffc9a7000000000000000000000000000000000000000000000000000000007fffffffff000000000000000000000000000000000000000000000000000000008316145b92915050565b6000806108cf8484611b07565b905060006108dc82611ba9565b6000968752610131602090815260408089209489529381528388209188525250909320549392505050565b3360009081527f28e8759d778413ba386bd9f909ab886584d0c872d3157abd7018c4ab794baf5a602052604090205460ff166109a4576040517f08c379a000000000000000000000000000000000000000000000000000000000815260206004820152600f60248201527f4e6f742061206465706f7369746f72000000000000000000000000000000000060448201526064015b60405180910390fd5b3360009081527f28e8759d778413ba386bd9f909ab886584d0c872d3157abd7018c4ab794baf5a602052604090205460ff16610a3c576040517f08c379a000000000000000000000000000000000000000000000000000000000815260206004820152600f60248201527f4e6f742061206465706f7369746f720000000000000000000000000000000000604482015260640161099b565b610a498585858585611c3e565b5050505050565b600082815260976020526040902060010154610a6b81611cc3565b610a758383611ccd565b505050565b73ffffffffffffffffffffffffffffffffffffffff81163314610b1f576040517f08c379a000000000000000000000000000000000000000000000000000000000815260206004820152602f60248201527f416363657373436f6e74726f6c3a2063616e206f6e6c792072656e6f756e636560448201527f20726f6c657320666f722073656c660000000000000000000000000000000000606482015260840161099b565b610b298282611dc1565b5050565b73ffffffffffffffffffffffffffffffffffffffff7f0000000000000000000000000000000000000000000000000000000000000000163003610bf2576040517f08c379a000000000000000000000000000000000000000000000000000000000815260206004820152602c60248201527f46756e6374696f6e206d7573742062652063616c6c6564207468726f7567682060448201527f64656c656761746563616c6c0000000000000000000000000000000000000000606482015260840161099b565b7f000000000000000000000000000000000000000000000000000000000000000073ffffffffffffffffffffffffffffffffffffffff16610c677f360894a13ba1a3210667c828492db98dca3e2076cc3735a920a3ca505d382bbc5473ffffffffffffffffffffffffffffffffffffffff1690565b73ffffffffffffffffffffffffffffffffffffffff1614610d0a576040517f08c379a000000000000000000000000000000000000000000000000000000000815260206004820152602c60248201527f46756e6374696f6e206d7573742062652063616c6c6564207468726f7567682060448201527f6163746976652070726f78790000000000000000000000000000000000000000606482015260840161099b565b610d1381611e7c565b60408051600080825260208201909252610d2f91839190611ea6565b50565b3360009081527f9805bb80c0cb3b8457cbce774d5adda6e717284b7d1e937eb2fdc8bbff924719602052604090205460ff16610dca576040517f08c379a000000000000000000000000000000000000000000000000000000000815260206004820152600c60248201527f4e6f7420616e2061646d696e0000000000000000000000000000000000000000604482015260640161099b565b60005b8151811015610ecb576101336000838381518110610ded57610ded613564565b60209081029190910181015182528101919091526040016000205460ff1615610e72576040517f08c379a000000000000000000000000000000000000000000000000000000000815260206004820152601a60248201527f526561736f6e20636f646520616c726561647920657869737473000000000000604482015260640161099b565b60016101336000848481518110610e8b57610e8b613564565b6020026020010151815260200190815260200160002060006101000a81548160ff0219169083151502179055508080610ec3906135c2565b915050610dcd565b507f0d8c56a8918ec09c2fe3c4d9fcc00ece66df217a1ab3ad768dd0a71620da5b4e81604051610efb91906135fa565b60405180910390a150565b7f65d7a28e3265b37a6474929f336521b332c1681b933f6cb9f3376673440d862a610f3081611cc3565b610d2f6120a5565b600054610100900460ff1615808015610f585750600054600160ff909116105b80610f725750303b158015610f72575060005460ff166001145b610ffe576040517f08c379a000000000000000000000000000000000000000000000000000000000815260206004820152602e60248201527f496e697469616c697a61626c653a20636f6e747261637420697320616c72656160448201527f647920696e697469616c697a6564000000000000000000000000000000000000606482015260840161099b565b600080547fffffffffffffffffffffffffffffffffffffffffffffffffffffffffffffff00166001179055801561105c57600080547fffffffffffffffffffffffffffffffffffffffffffffffffffffffffffff00ff166101001790555b611064612122565b61106c6121c3565b6110746121c3565b73ffffffffffffffffffffffffffffffffffffffff83166110f1576040517f08c379a000000000000000000000000000000000000000000000000000000000815260206004820152601c60248201527f4e6f7420612076616c696420436f6e7472616374204164647265737300000000604482015260640161099b565b73ffffffffffffffffffffffffffffffffffffffff821661116e576040517f08c379a000000000000000000000000000000000000000000000000000000000815260206004820152601960248201527f4e6f7420612076616c69642041646d696e204164647265737300000000000000604482015260640161099b565b611179600083611ccd565b6111a37f65d7a28e3265b37a6474929f336521b332c1681b933f6cb9f3376673440d862a83611ccd565b6111cd7f189ab7a9244df0848122154315af71fe140f3db0fe014031783b0946b8c9d2e383611ccd565b6111f77fa49807205ce4d355092ef5a8a18f56e8913cf4a201fbe287825b095693c2177583611ccd565b6112217f8f4f2da22e8ac8f11e15f9fc141cddbb5deea8800186560abb6e68c5496619a983611ccd565b61012f80547fffffffffffffffffffffffff00000000000000000000000000000000000000001673ffffffffffffffffffffffffffffffffffffffff85161790558015610a7557600080547fffffffffffffffffffffffffffffffffffffffffffffffffffffffffffff00ff169055604051600181527f7f26b83ff96e1f2b6a682f133852f6798a09c465da95921460cefb38474024989060200160405180910390a1505050565b73ffffffffffffffffffffffffffffffffffffffff7f000000000000000000000000000000000000000000000000000000000000000016300361138e576040517f08c379a000000000000000000000000000000000000000000000000000000000815260206004820152602c60248201527f46756e6374696f6e206d7573742062652063616c6c6564207468726f7567682060448201527f64656c656761746563616c6c0000000000000000000000000000000000000000606482015260840161099b565b7f000000000000000000000000000000000000000000000000000000000000000073ffffffffffffffffffffffffffffffffffffffff166114037f360894a13ba1a3210667c828492db98dca3e2076cc3735a920a3ca505d382bbc5473ffffffffffffffffffffffffffffffffffffffff1690565b73ffffffffffffffffffffffffffffffffffffffff16146114a6576040517f08c379a000000000000000000000000000000000000000000000000000000000815260206004820152602c60248201527f46756e6374696f6e206d7573742062652063616c6c6564207468726f7567682060448201527f6163746976652070726f78790000000000000000000000000000000000000000606482015260840161099b565b6114af82611e7c565b610b2982826001611ea6565b60003073ffffffffffffffffffffffffffffffffffffffff7f00000000000000000000000000000000000000000000000000000000000000001614611582576040517f08c379a000000000000000000000000000000000000000000000000000000000815260206004820152603860248201527f555550535570677261646561626c653a206d757374206e6f742062652063616c60448201527f6c6564207468726f7567682064656c656761746563616c6c0000000000000000606482015260840161099b565b507f360894a13ba1a3210667c828492db98dca3e2076cc3735a920a3ca505d382bbc90565b6000806115b48484611b07565b905060006115c182611ba9565b61012d54600090815261013160209081526040808320958352948152848220928252919091529190912054949350505050565b7f65d7a28e3265b37a6474929f336521b332c1681b933f6cb9f3376673440d862a61161e81611cc3565b610d2f61225a565b3360009081527f9805bb80c0cb3b8457cbce774d5adda6e717284b7d1e937eb2fdc8bbff924719602052604090205460ff166116be576040517f08c379a000000000000000000000000000000000000000000000000000000000815260206004820152600c60248201527f4e6f7420616e2061646d696e0000000000000000000000000000000000000000604482015260640161099b565b600081815261012e602052604090205460ff1615611738576040517f08c379a000000000000000000000000000000000000000000000000000000000815260206004820152601260248201527f536561736f6e20616c7265616479207365740000000000000000000000000000604482015260640161099b565b61012d819055600081815261012e60205260409081902080547fffffffffffffffffffffffffffffffffffffffffffffffffffffffffffffff00166001179055517f61228c895f8ba06548597d3e34a23bc0ecb6d1e62a1eb3fa30be04883a17ef3190610efb9083815260200190565b3360009081527f9805bb80c0cb3b8457cbce774d5adda6e717284b7d1e937eb2fdc8bbff924719602052604090205460ff16611840576040517f08c379a000000000000000000000000000000000000000000000000000000000815260206004820152600c60248201527f4e6f7420616e2061646d696e0000000000000000000000000000000000000000604482015260640161099b565b60005b81518110156118b557610133600083838151811061186357611863613564565b602090810291909101810151825281019190915260400160002080547fffffffffffffffffffffffffffffffffffffffffffffffffffffffffffffff00169055806118ad816135c2565b915050611843565b507f5b2c9fcbb27d48bdbfc59f0564b5ba81539309ebf09a940fad64d171bcfb9ff981604051610efb91906135fa565b60006118f18888611b07565b90506119018187878787876122b5565b5050505050505050565b60008061191783611ba9565b61012d5460009081526101316020908152604080832096835295815285822092825291909152929092205492915050565b3360009081527f28e8759d778413ba386bd9f909ab886584d0c872d3157abd7018c4ab794baf5a602052604090205460ff166119e0576040517f08c379a000000000000000000000000000000000000000000000000000000000815260206004820152600f60248201527f4e6f742061206465706f7369746f720000000000000000000000000000000000604482015260640161099b565b60006119ec8686611b07565b90506119fb8782868686611c3e565b50505050505050565b600080611a1083611ba9565b60009485526101316020908152604080872095875294815284862091865252505090205490565b610a758383836123a4565b600082815260976020526040902060010154611a5d81611cc3565b610a758383611dc1565b611a758686868686866122b5565b505050505050565b600080611a8985611ba9565b600086815261013260209081526040918290205461012d5483518084019a909a52898401949094526060890197909752608088019290925260a087019490945260c0808701959095528351808703909501855260e09095019092525050805191012090565b6000611afa8585611b07565b9050610a498184846123a4565b61012f546040517fcad6b90100000000000000000000000000000000000000000000000000000000815260009173ffffffffffffffffffffffffffffffffffffffff169063cad6b90190611b6190859087906004016136ac565b602060405180830381865afa158015611b7e573d6000803e3d6000fd5b505050506040513d601f19601f82011682018060405250810190611ba291906136ce565b9392505050565b61012f546040517fa9735f940000000000000000000000000000000000000000000000000000000081526004810183905260009173ffffffffffffffffffffffffffffffffffffffff169063a9735f9490602401602060405180830381865afa158015611c1a573d6000803e3d6000fd5b505050506040513d601f19601f820116820180604052508101906108bc91906136ce565b600085815261013160209081526040808320878452825280832086845290915281208054849290611c709084906136e7565b909155505060408051858152602081018590529081018390528190869033907f9092bf6bd1cf7db4fcf41aedc7c0333b51c57f5b80b429bc3d9caa5587c6ad829060600160405180910390a45050505050565b610d2f813361244a565b600082815260976020908152604080832073ffffffffffffffffffffffffffffffffffffffff8516845290915290205460ff16610b2957600082815260976020908152604080832073ffffffffffffffffffffffffffffffffffffffff85168452909152902080547fffffffffffffffffffffffffffffffffffffffffffffffffffffffffffffff00166001179055611d633390565b73ffffffffffffffffffffffffffffffffffffffff168173ffffffffffffffffffffffffffffffffffffffff16837f2f8788117e7eff1d82e926ec794901d17c78024a50270940304540a733656f0d60405160405180910390a45050565b600082815260976020908152604080832073ffffffffffffffffffffffffffffffffffffffff8516845290915290205460ff1615610b2957600082815260976020908152604080832073ffffffffffffffffffffffffffffffffffffffff8516808552925280832080547fffffffffffffffffffffffffffffffffffffffffffffffffffffffffffffff0016905551339285917ff6391f5c32d9c69d2a47ea670b442974b53935d1edc7fd64eb21e047a839171b9190a45050565b7f189ab7a9244df0848122154315af71fe140f3db0fe014031783b0946b8c9d2e3610b2981611cc3565b7f4910fdfa16fed3260ed0e7147f7cc6da11a60208b5b9406d12a635614ffd91435460ff1615611ed957610a7583612504565b8273ffffffffffffffffffffffffffffffffffffffff166352d1902d6040518163ffffffff1660e01b8152600401602060405180830381865afa925050508015611f5e575060408051601f3d9081017fffffffffffffffffffffffffffffffffffffffffffffffffffffffffffffffe0168201909252611f5b918101906136ce565b60015b611fea576040517f08c379a000000000000000000000000000000000000000000000000000000000815260206004820152602e60248201527f45524331393637557067726164653a206e657720696d706c656d656e7461746960448201527f6f6e206973206e6f742055555053000000000000000000000000000000000000606482015260840161099b565b7f360894a13ba1a3210667c828492db98dca3e2076cc3735a920a3ca505d382bbc8114612099576040517f08c379a000000000000000000000000000000000000000000000000000000000815260206004820152602960248201527f45524331393637557067726164653a20756e737570706f727465642070726f7860448201527f6961626c65555549440000000000000000000000000000000000000000000000606482015260840161099b565b50610a7583838361260e565b6120ad612639565b603380547fffffffffffffffffffffffffffffffffffffffffffffffffffffffffffffff001690557f5db9ee0a495bf2e6ff9c91a7834c1ba4fdd244a5e8aa4e537bd38aeae4b073aa335b60405173ffffffffffffffffffffffffffffffffffffffff909116815260200160405180910390a1565b600054610100900460ff166121b9576040517f08c379a000000000000000000000000000000000000000000000000000000000815260206004820152602b60248201527f496e697469616c697a61626c653a20636f6e7472616374206973206e6f74206960448201527f6e697469616c697a696e67000000000000000000000000000000000000000000606482015260840161099b565b6121c16126a5565b565b600054610100900460ff166121c1576040517f08c379a000000000000000000000000000000000000000000000000000000000815260206004820152602b60248201527f496e697469616c697a61626c653a20636f6e7472616374206973206e6f74206960448201527f6e697469616c697a696e67000000000000000000000000000000000000000000606482015260840161099b565b612262612766565b603380547fffffffffffffffffffffffffffffffffffffffffffffffffffffffffffffff001660011790557f62e78cea01bee320cd4e420270b5ea74000d11b0c9f74754ebdbfc544b05a2586120f83390565b60006122c087611ba9565b905060006122e888838961013260008d8152602001908152602001600020548a8a8a8a6127d3565b905060006122f5896128d0565b90508073ffffffffffffffffffffffffffffffffffffffff168273ffffffffffffffffffffffffffffffffffffffff161461238c576040517f08c379a000000000000000000000000000000000000000000000000000000000815260206004820152601b60248201527f5369676e6572206e6f74206f776e6572206f66207265616c6d49640000000000604482015260640161099b565b61239989848a8a85612969565b505050505050505050565b60006123af846128d0565b90503373ffffffffffffffffffffffffffffffffffffffff821614612430576040517f08c379a000000000000000000000000000000000000000000000000000000000815260206004820152601b60248201527f5369676e6572206e6f74206f776e6572206f66207265616c6d49640000000000604482015260640161099b565b600061243b85611ba9565b9050610a498582868633612969565b600082815260976020908152604080832073ffffffffffffffffffffffffffffffffffffffff8516845290915290205460ff16610b295761248a81612b50565b612495836020612b6f565b6040516020016124a69291906136fa565b604080517fffffffffffffffffffffffffffffffffffffffffffffffffffffffffffffffe0818403018152908290527f08c379a000000000000000000000000000000000000000000000000000000000825261099b9160040161377b565b73ffffffffffffffffffffffffffffffffffffffff81163b6125a8576040517f08c379a000000000000000000000000000000000000000000000000000000000815260206004820152602d60248201527f455243313936373a206e657720696d706c656d656e746174696f6e206973206e60448201527f6f74206120636f6e747261637400000000000000000000000000000000000000606482015260840161099b565b7f360894a13ba1a3210667c828492db98dca3e2076cc3735a920a3ca505d382bbc80547fffffffffffffffffffffffff00000000000000000000000000000000000000001673ffffffffffffffffffffffffffffffffffffffff92909216919091179055565b61261783612db2565b6000825111806126245750805b15610a75576126338383612dff565b50505050565b60335460ff166121c1576040517f08c379a000000000000000000000000000000000000000000000000000000000815260206004820152601460248201527f5061757361626c653a206e6f7420706175736564000000000000000000000000604482015260640161099b565b600054610100900460ff1661273c576040517f08c379a000000000000000000000000000000000000000000000000000000000815260206004820152602b60248201527f496e697469616c697a61626c653a20636f6e7472616374206973206e6f74206960448201527f6e697469616c697a696e67000000000000000000000000000000000000000000606482015260840161099b565b603380547fffffffffffffffffffffffffffffffffffffffffffffffffffffffffffffff00169055565b60335460ff16156121c1576040517f08c379a000000000000000000000000000000000000000000000000000000000815260206004820152601060248201527f5061757361626c653a2070617573656400000000000000000000000000000000604482015260640161099b565b61012d546040805160208082018c90528183018b9052606082018a9052608082019390935260a0810187905260c08082018990528251808303909101815260e08201808452815191850191909120600091829052610100830180855281905260ff88166101208401526101408301879052610160830186905292519093600192610180808201937fffffffffffffffffffffffffffffffffffffffffffffffffffffffffffffffe081019281900390910190855afa158015612899573d6000803e3d6000fd5b50506040517fffffffffffffffffffffffffffffffffffffffffffffffffffffffffffffffe001519b9a5050505050505050505050565b61012f546040517f6352211e00000000000000000000000000000000000000000000000000000000815260048101839052600091829173ffffffffffffffffffffffffffffffffffffffff90911690636352211e90602401602060405180830381865afa158015612945573d6000803e3d6000fd5b505050506040513d601f19601f82011682018060405250810190611ba2919061378e565b61012d5460009081526101316020908152604080832088845282528083208784529091529020548311156129f9576040517f08c379a000000000000000000000000000000000000000000000000000000000815260206004820152601460248201527f496e73756666696369656e742062616c616e6365000000000000000000000000604482015260640161099b565b6000828152610133602052604090205460ff16612a72576040517f08c379a000000000000000000000000000000000000000000000000000000000815260206004820152601b60248201527f496e76616c696420636f6e73756d6520726561736f6e20636f64650000000000604482015260640161099b565b61012d54600090815261013160209081526040808320888452825280832087845290915281208054859290612aa89084906137ab565b909155505061012d5460008681526101326020908152604091829020548251338152918201529081018690526060810185905273ffffffffffffffffffffffffffffffffffffffff8316608082015283919087907fd1255d580f215da0d3a191d00a885ae4716fac76b5813a6c309919fff6078bd19060a00160405180910390a4600085815261013260205260408120805491612b44836135c2565b91905055505050505050565b60606108bc73ffffffffffffffffffffffffffffffffffffffff831660145b60606000612b7e8360026137be565b612b899060026136e7565b67ffffffffffffffff811115612ba157612ba1612fd2565b6040519080825280601f01601f191660200182016040528015612bcb576020820181803683370190505b5090507f300000000000000000000000000000000000000000000000000000000000000081600081518110612c0257612c02613564565b60200101907effffffffffffffffffffffffffffffffffffffffffffffffffffffffffffff1916908160001a9053507f780000000000000000000000000000000000000000000000000000000000000081600181518110612c6557612c65613564565b60200101907effffffffffffffffffffffffffffffffffffffffffffffffffffffffffffff1916908160001a9053506000612ca18460026137be565b612cac9060016136e7565b90505b6001811115612d49577f303132333435363738396162636465660000000000000000000000000000000085600f1660108110612ced57612ced613564565b1a60f81b828281518110612d0357612d03613564565b60200101907effffffffffffffffffffffffffffffffffffffffffffffffffffffffffffff1916908160001a90535060049490941c93612d42816137d5565b9050612caf565b508315611ba2576040517f08c379a000000000000000000000000000000000000000000000000000000000815260206004820181905260248201527f537472696e67733a20686578206c656e67746820696e73756666696369656e74604482015260640161099b565b612dbb81612504565b60405173ffffffffffffffffffffffffffffffffffffffff8216907fbc7cd75a20ee27fd9adebab32041f755214dbc6bffa90cc0225b39da2e5c2d3b90600090a250565b6060611ba283836040518060600160405280602781526020016138276027913960606000808573ffffffffffffffffffffffffffffffffffffffff1685604051612e49919061380a565b600060405180830381855af49150503d8060008114612e84576040519150601f19603f3d011682016040523d82523d6000602084013e612e89565b606091505b5091509150612e9a86838387612ea4565b9695505050505050565b60608315612f3a578251600003612f335773ffffffffffffffffffffffffffffffffffffffff85163b612f33576040517f08c379a000000000000000000000000000000000000000000000000000000000815260206004820152601d60248201527f416464726573733a2063616c6c20746f206e6f6e2d636f6e7472616374000000604482015260640161099b565b5081612f44565b612f448383612f4c565b949350505050565b815115612f5c5781518083602001fd5b806040517f08c379a000000000000000000000000000000000000000000000000000000000815260040161099b919061377b565b600060208284031215612fa257600080fd5b81357fffffffff0000000000000000000000000000000000000000000000000000000081168114611ba257600080fd5b7f4e487b7100000000000000000000000000000000000000000000000000000000600052604160045260246000fd5b604051601f82017fffffffffffffffffffffffffffffffffffffffffffffffffffffffffffffffe016810167ffffffffffffffff8111828210171561304857613048612fd2565b604052919050565b600067ffffffffffffffff83111561306a5761306a612fd2565b61309b60207fffffffffffffffffffffffffffffffffffffffffffffffffffffffffffffffe0601f86011601613001565b90508281528383830111156130af57600080fd5b828260208301376000602084830101529392505050565b600082601f8301126130d757600080fd5b611ba283833560208501613050565b6000806000606084860312156130fb57600080fd5b8335925060208401359150604084013567ffffffffffffffff81111561312057600080fd5b61312c868287016130c6565b9150509250925092565b60006020828403121561314857600080fd5b5035919050565b600080600080600060a0868803121561316757600080fd5b505083359560208501359550604085013594606081013594506080013592509050565b73ffffffffffffffffffffffffffffffffffffffff81168114610d2f57600080fd5b600080604083850312156131bf57600080fd5b8235915060208301356131d18161318a565b809150509250929050565b6000602082840312156131ee57600080fd5b8135611ba28161318a565b6000602080838503121561320c57600080fd5b823567ffffffffffffffff8082111561322457600080fd5b818501915085601f83011261323857600080fd5b81358181111561324a5761324a612fd2565b8060051b915061325b848301613001565b818152918301840191848101908884111561327557600080fd5b938501935b838510156132935784358252938501939085019061327a565b98975050505050505050565b600080604083850312156132b257600080fd5b82356132bd8161318a565b915060208301356131d18161318a565b600080604083850312156132e057600080fd5b82356132eb8161318a565b9150602083013567ffffffffffffffff81111561330757600080fd5b8301601f8101851361331857600080fd5b61332785823560208401613050565b9150509250929050565b6000806040838503121561334457600080fd5b82359150602083013567ffffffffffffffff81111561336257600080fd5b613327858286016130c6565b803560ff8116811461337f57600080fd5b919050565b600080600080600080600060e0888a03121561339f57600080fd5b87359650602088013567ffffffffffffffff8111156133bd57600080fd5b6133c98a828b016130c6565b96505060408801359450606088013593506133e66080890161336e565b925060a0880135915060c0880135905092959891949750929550565b60008060008060008060c0878903121561341b57600080fd5b8635955060208701359450604087013567ffffffffffffffff81111561344057600080fd5b61344c89828a016130c6565b945050606087013592506080870135915060a087013590509295509295509295565b6000806040838503121561348157600080fd5b50508035926020909101359150565b6000806000606084860312156134a557600080fd5b505081359360208301359350604090920135919050565b60008060008060008060c087890312156134d557600080fd5b8635955060208701359450604087013593506134f36060880161336e565b92506080870135915060a087013590509295509295509295565b6000806000806080858703121561352357600080fd5b84359350602085013567ffffffffffffffff81111561354157600080fd5b61354d878288016130c6565b949794965050505060408301359260600135919050565b7f4e487b7100000000000000000000000000000000000000000000000000000000600052603260045260246000fd5b7f4e487b7100000000000000000000000000000000000000000000000000000000600052601160045260246000fd5b60007fffffffffffffffffffffffffffffffffffffffffffffffffffffffffffffffff82036135f3576135f3613593565b5060010190565b6020808252825182820181905260009190848201906040850190845b8181101561363257835183529284019291840191600101613616565b50909695505050505050565b60005b83811015613659578181015183820152602001613641565b50506000910152565b6000815180845261367a81602086016020860161363e565b601f017fffffffffffffffffffffffffffffffffffffffffffffffffffffffffffffffe0169290920160200192915050565b6040815260006136bf6040830185613662565b90508260208301529392505050565b6000602082840312156136e057600080fd5b5051919050565b808201808211156108bc576108bc613593565b7f416363657373436f6e74726f6c3a206163636f756e742000000000000000000081526000835161373281601785016020880161363e565b7f206973206d697373696e6720726f6c6520000000000000000000000000000000601791840191820152835161376f81602884016020880161363e565b01602801949350505050565b602081526000611ba26020830184613662565b6000602082840312156137a057600080fd5b8151611ba28161318a565b818103818111156108bc576108bc613593565b80820281158282048414176108bc576108bc613593565b6000816137e4576137e4613593565b507fffffffffffffffffffffffffffffffffffffffffffffffffffffffffffffffff0190565b6000825161381c81846020870161363e565b919091019291505056fe416464726573733a206c6f772d6c6576656c2064656c65676174652063616c6c206661696c6564a2646970667358221220e6c155adada431865271cb1c3222cdd474bf90cb894ab04b8160cf940250076864736f6c63430008110033",
  "linkReferences": {},
  "deployedLinkReferences": {}
}