{
  "_format": "hh-sol-artifact-1",
  "contractName": "MocaPoints",
  "sourceName": "contracts/MocaPoints/MocaPoints.sol",
  "abi": [
    {
      "inputs": [],
      "stateMutability": "nonpayable",
      "type": "constructor"
    },
    {
      "anonymous": false,
      "inputs": [
        {
          "indexed": false,
          "internalType": "address",
          "name": "previousAdmin",
          "type": "address"
        },
        {
          "indexed": false,
          "internalType": "address",
          "name": "newAdmin",
          "type": "address"
        }
      ],
      "name": "AdminChanged",
      "type": "event"
    },
    {
      "anonymous": false,
      "inputs": [
        {
          "indexed": false,
          "internalType": "bytes32[]",
          "name": "reasonCodes",
          "type": "bytes32[]"
        }
      ],
      "name": "BatchAddedConsumeReasonCode",
      "type": "event"
    },
    {
      "anonymous": false,
      "inputs": [
        {
          "indexed": false,
          "internalType": "bytes32[]",
          "name": "reasonCodes",
          "type": "bytes32[]"
        }
      ],
      "name": "BatchRemovedConsumeReasonCode",
      "type": "event"
    },
    {
      "anonymous": false,
      "inputs": [
        {
          "indexed": true,
          "internalType": "address",
          "name": "beacon",
          "type": "address"
        }
      ],
      "name": "BeaconUpgraded",
      "type": "event"
    },
    {
      "anonymous": false,
      "inputs": [
        {
          "indexed": true,
          "internalType": "uint256",
          "name": "realmId",
          "type": "uint256"
        },
        {
          "indexed": true,
          "internalType": "bytes32",
          "name": "season",
          "type": "bytes32"
        },
        {
          "indexed": true,
          "internalType": "bytes32",
          "name": "reasonCode",
          "type": "bytes32"
        },
        {
          "indexed": false,
          "internalType": "address",
          "name": "operator",
          "type": "address"
        },
        {
          "indexed": false,
          "internalType": "uint256",
          "name": "realmIdVersion",
          "type": "uint256"
        },
        {
          "indexed": false,
          "internalType": "uint256",
          "name": "amount",
          "type": "uint256"
        },
        {
          "indexed": false,
          "internalType": "address",
          "name": "realmIdOwner",
          "type": "address"
        },
        {
          "indexed": false,
          "internalType": "uint256",
          "name": "nonce",
          "type": "uint256"
        }
      ],
      "name": "Consumed",
      "type": "event"
    },
    {
      "anonymous": false,
      "inputs": [
        {
          "indexed": true,
          "internalType": "address",
          "name": "sender",
          "type": "address"
        },
        {
          "indexed": true,
          "internalType": "bytes32",
          "name": "season",
          "type": "bytes32"
        },
        {
          "indexed": true,
          "internalType": "bytes32",
          "name": "reasonCode",
          "type": "bytes32"
        },
        {
          "indexed": false,
          "internalType": "uint256",
          "name": "realmId",
          "type": "uint256"
        },
        {
          "indexed": false,
          "internalType": "uint256",
          "name": "realmIdVersion",
          "type": "uint256"
        },
        {
          "indexed": false,
          "internalType": "uint256",
          "name": "amount",
          "type": "uint256"
        }
      ],
      "name": "Deposited",
      "type": "event"
    },
    {
      "anonymous": false,
      "inputs": [
        {
          "indexed": false,
          "internalType": "uint8",
          "name": "version",
          "type": "uint8"
        }
      ],
      "name": "Initialized",
      "type": "event"
    },
    {
      "anonymous": false,
      "inputs": [
        {
          "indexed": true,
          "internalType": "bytes32",
          "name": "role",
          "type": "bytes32"
        },
        {
          "indexed": true,
          "internalType": "bytes32",
          "name": "previousAdminRole",
          "type": "bytes32"
        },
        {
          "indexed": true,
          "internalType": "bytes32",
          "name": "newAdminRole",
          "type": "bytes32"
        }
      ],
      "name": "RoleAdminChanged",
      "type": "event"
    },
    {
      "anonymous": false,
      "inputs": [
        {
          "indexed": true,
          "internalType": "bytes32",
          "name": "role",
          "type": "bytes32"
        },
        {
          "indexed": true,
          "internalType": "address",
          "name": "account",
          "type": "address"
        },
        {
          "indexed": true,
          "internalType": "address",
          "name": "sender",
          "type": "address"
        }
      ],
      "name": "RoleGranted",
      "type": "event"
    },
    {
      "anonymous": false,
      "inputs": [
        {
          "indexed": true,
          "internalType": "bytes32",
          "name": "role",
          "type": "bytes32"
        },
        {
          "indexed": true,
          "internalType": "address",
          "name": "account",
          "type": "address"
        },
        {
          "indexed": true,
          "internalType": "address",
          "name": "sender",
          "type": "address"
        }
      ],
      "name": "RoleRevoked",
      "type": "event"
    },
    {
      "anonymous": false,
      "inputs": [
        {
          "indexed": false,
          "internalType": "bytes32",
          "name": "season",
          "type": "bytes32"
        }
      ],
      "name": "SetCurrentSeason",
      "type": "event"
    },
    {
      "anonymous": false,
      "inputs": [
        {
          "indexed": true,
          "internalType": "address",
          "name": "implementation",
          "type": "address"
        }
      ],
      "name": "Upgraded",
      "type": "event"
    },
    {
      "inputs": [],
      "name": "ADMIN_ROLE",
      "outputs": [
        {
          "internalType": "bytes32",
          "name": "",
          "type": "bytes32"
        }
      ],
      "stateMutability": "view",
      "type": "function"
    },
    {
      "inputs": [],
      "name": "DEFAULT_ADMIN_ROLE",
      "outputs": [
        {
          "internalType": "bytes32",
          "name": "",
          "type": "bytes32"
        }
      ],
      "stateMutability": "view",
      "type": "function"
    },
    {
      "inputs": [],
      "name": "DEPOSITOR_ROLE",
      "outputs": [
        {
          "internalType": "bytes32",
          "name": "",
          "type": "bytes32"
        }
      ],
      "stateMutability": "view",
      "type": "function"
    },
    {
      "inputs": [],
      "name": "PAUSER_ROLE",
      "outputs": [
        {
          "internalType": "bytes32",
          "name": "",
          "type": "bytes32"
        }
      ],
      "stateMutability": "view",
      "type": "function"
    },
    {
      "inputs": [],
      "name": "UPGRADER_ROLE",
      "outputs": [
        {
          "internalType": "bytes32",
          "name": "",
          "type": "bytes32"
        }
      ],
      "stateMutability": "view",
      "type": "function"
    },
    {
      "inputs": [
        {
          "internalType": "bytes32",
          "name": "",
          "type": "bytes32"
        }
      ],
      "name": "allowedConsumeReasonCodes",
      "outputs": [
        {
          "internalType": "bool",
          "name": "",
          "type": "bool"
        }
      ],
      "stateMutability": "view",
      "type": "function"
    },
    {
      "inputs": [
        {
          "internalType": "bytes32",
          "name": "season",
          "type": "bytes32"
        },
        {
          "internalType": "bytes32",
          "name": "parentNode",
          "type": "bytes32"
        },
        {
          "internalType": "string",
          "name": "_name",
          "type": "string"
        }
      ],
      "name": "balanceOf",
      "outputs": [
        {
          "internalType": "uint256",
          "name": "",
          "type": "uint256"
        }
      ],
      "stateMutability": "view",
      "type": "function"
    },
    {
      "inputs": [
        {
          "internalType": "bytes32",
          "name": "parentNode",
          "type": "bytes32"
        },
        {
          "internalType": "string",
          "name": "_name",
          "type": "string"
        }
      ],
      "name": "balanceOf",
      "outputs": [
        {
          "internalType": "uint256",
          "name": "",
          "type": "uint256"
        }
      ],
      "stateMutability": "view",
      "type": "function"
    },
    {
      "inputs": [
        {
          "internalType": "uint256",
          "name": "realmId",
          "type": "uint256"
        }
      ],
      "name": "balanceOf",
      "outputs": [
        {
          "internalType": "uint256",
          "name": "",
          "type": "uint256"
        }
      ],
      "stateMutability": "view",
      "type": "function"
    },
    {
      "inputs": [
        {
          "internalType": "bytes32",
          "name": "season",
          "type": "bytes32"
        },
        {
          "internalType": "uint256",
          "name": "realmId",
          "type": "uint256"
        }
      ],
      "name": "balanceOf",
      "outputs": [
        {
          "internalType": "uint256",
          "name": "",
          "type": "uint256"
        }
      ],
      "stateMutability": "view",
      "type": "function"
    },
    {
      "inputs": [
        {
          "internalType": "bytes32",
          "name": "",
          "type": "bytes32"
        },
        {
          "internalType": "uint256",
          "name": "",
          "type": "uint256"
        },
        {
          "internalType": "uint256",
          "name": "",
          "type": "uint256"
        }
      ],
      "name": "balances",
      "outputs": [
        {
          "internalType": "uint256",
          "name": "",
          "type": "uint256"
        }
      ],
      "stateMutability": "view",
      "type": "function"
    },
    {
      "inputs": [
        {
          "internalType": "bytes32[]",
          "name": "_reasonCodes",
          "type": "bytes32[]"
        }
      ],
      "name": "batchAddConsumeReasonCodes",
      "outputs": [],
      "stateMutability": "nonpayable",
      "type": "function"
    },
    {
      "inputs": [
        {
          "internalType": "bytes32[]",
          "name": "_reasonCodes",
          "type": "bytes32[]"
        }
      ],
      "name": "batchRemoveConsumeReasonCodes",
      "outputs": [],
      "stateMutability": "nonpayable",
      "type": "function"
    },
    {
      "inputs": [
        {
          "internalType": "bytes32",
          "name": "parentNode",
          "type": "bytes32"
        },
        {
          "internalType": "string",
          "name": "_name",
          "type": "string"
        },
        {
          "internalType": "uint256",
          "name": "amount",
          "type": "uint256"
        },
        {
          "internalType": "bytes32",
          "name": "consumeReasonCode",
          "type": "bytes32"
        },
        {
          "internalType": "uint8",
          "name": "v",
          "type": "uint8"
        },
        {
          "internalType": "bytes32",
          "name": "r",
          "type": "bytes32"
        },
        {
          "internalType": "bytes32",
          "name": "s",
          "type": "bytes32"
        }
      ],
      "name": "consume",
      "outputs": [],
      "stateMutability": "nonpayable",
      "type": "function"
    },
    {
      "inputs": [
        {
          "internalType": "uint256",
          "name": "realmId",
          "type": "uint256"
        },
        {
          "internalType": "uint256",
          "name": "amount",
          "type": "uint256"
        },
        {
          "internalType": "bytes32",
          "name": "consumeReasonCode",
          "type": "bytes32"
        }
      ],
      "name": "consume",
      "outputs": [],
      "stateMutability": "nonpayable",
      "type": "function"
    },
    {
      "inputs": [
        {
          "internalType": "uint256",
          "name": "realmId",
          "type": "uint256"
        },
        {
          "internalType": "uint256",
          "name": "amount",
          "type": "uint256"
        },
        {
          "internalType": "bytes32",
          "name": "consumeReasonCode",
          "type": "bytes32"
        },
        {
          "internalType": "uint8",
          "name": "v",
          "type": "uint8"
        },
        {
          "internalType": "bytes32",
          "name": "r",
          "type": "bytes32"
        },
        {
          "internalType": "bytes32",
          "name": "s",
          "type": "bytes32"
        }
      ],
      "name": "consume",
      "outputs": [],
      "stateMutability": "nonpayable",
      "type": "function"
    },
    {
      "inputs": [
        {
          "internalType": "bytes32",
          "name": "parentNode",
          "type": "bytes32"
        },
        {
          "internalType": "string",
          "name": "_name",
          "type": "string"
        },
        {
          "internalType": "uint256",
          "name": "amount",
          "type": "uint256"
        },
        {
          "internalType": "bytes32",
          "name": "consumeReasonCode",
          "type": "bytes32"
        }
      ],
      "name": "consume",
      "outputs": [],
      "stateMutability": "nonpayable",
      "type": "function"
    },
    {
      "inputs": [],
      "name": "currentSeason",
      "outputs": [
        {
          "internalType": "bytes32",
          "name": "",
          "type": "bytes32"
        }
      ],
      "stateMutability": "view",
      "type": "function"
    },
    {
      "inputs": [
        {
          "internalType": "bytes32",
          "name": "season",
          "type": "bytes32"
        },
        {
          "internalType": "uint256",
          "name": "realmId",
          "type": "uint256"
        },
        {
          "internalType": "uint256",
          "name": "realmIdVersion",
          "type": "uint256"
        },
        {
          "internalType": "uint256",
          "name": "amount",
          "type": "uint256"
        },
        {
          "internalType": "bytes32",
          "name": "depositReasonCode",
          "type": "bytes32"
        }
      ],
      "name": "deposit",
      "outputs": [],
      "stateMutability": "nonpayable",
      "type": "function"
    },
    {
      "inputs": [
        {
          "internalType": "bytes32",
          "name": "season",
          "type": "bytes32"
        },
        {
          "internalType": "bytes32",
          "name": "parentNode",
          "type": "bytes32"
        },
        {
          "internalType": "string",
          "name": "name",
          "type": "string"
        },
        {
          "internalType": "uint256",
          "name": "realmIdVersion",
          "type": "uint256"
        },
        {
          "internalType": "uint256",
          "name": "amount",
          "type": "uint256"
        },
        {
          "internalType": "bytes32",
          "name": "depositReasonCode",
          "type": "bytes32"
        }
      ],
      "name": "deposit",
      "outputs": [],
      "stateMutability": "nonpayable",
      "type": "function"
    },
    {
      "inputs": [
        {
          "internalType": "bytes32",
          "name": "role",
          "type": "bytes32"
        }
      ],
      "name": "getRoleAdmin",
      "outputs": [
        {
          "internalType": "bytes32",
          "name": "",
          "type": "bytes32"
        }
      ],
      "stateMutability": "view",
      "type": "function"
    },
    {
      "inputs": [
        {
          "internalType": "bytes32",
          "name": "role",
          "type": "bytes32"
        },
        {
          "internalType": "address",
          "name": "account",
          "type": "address"
        }
      ],
      "name": "grantRole",
      "outputs": [],
      "stateMutability": "nonpayable",
      "type": "function"
    },
    {
      "inputs": [
        {
          "internalType": "bytes32",
          "name": "role",
          "type": "bytes32"
        },
        {
          "internalType": "address",
          "name": "account",
          "type": "address"
        }
      ],
      "name": "hasRole",
      "outputs": [
        {
          "internalType": "bool",
          "name": "",
          "type": "bool"
        }
      ],
      "stateMutability": "view",
      "type": "function"
    },
    {
      "inputs": [
        {
          "internalType": "address",
          "name": "_realmIdContract",
          "type": "address"
        },
        {
          "internalType": "address",
          "name": "_adminAddress",
          "type": "address"
        }
      ],
      "name": "initialize",
      "outputs": [],
      "stateMutability": "nonpayable",
      "type": "function"
    },
    {
      "inputs": [
        {
          "internalType": "uint256",
          "name": "",
          "type": "uint256"
        }
      ],
      "name": "nonces",
      "outputs": [
        {
          "internalType": "uint256",
          "name": "",
          "type": "uint256"
        }
      ],
      "stateMutability": "view",
      "type": "function"
    },
    {
      "inputs": [
        {
          "internalType": "uint256",
          "name": "realmId",
          "type": "uint256"
        },
        {
          "internalType": "uint256",
          "name": "amount",
          "type": "uint256"
        },
        {
          "internalType": "bytes32",
          "name": "reasonCode",
          "type": "bytes32"
        }
      ],
      "name": "preparePayload",
      "outputs": [
        {
          "internalType": "bytes32",
          "name": "",
          "type": "bytes32"
        }
      ],
      "stateMutability": "view",
      "type": "function"
    },
    {
      "inputs": [],
      "name": "proxiableUUID",
      "outputs": [
        {
          "internalType": "bytes32",
          "name": "",
          "type": "bytes32"
        }
      ],
      "stateMutability": "view",
      "type": "function"
    },
    {
      "inputs": [],
      "name": "realmIdContract",
      "outputs": [
        {
          "internalType": "contract IRealmId",
          "name": "",
          "type": "address"
        }
      ],
      "stateMutability": "view",
      "type": "function"
    },
    {
      "inputs": [
        {
          "internalType": "bytes32",
          "name": "role",
          "type": "bytes32"
        },
        {
          "internalType": "address",
          "name": "account",
          "type": "address"
        }
      ],
      "name": "renounceRole",
      "outputs": [],
      "stateMutability": "nonpayable",
      "type": "function"
    },
    {
      "inputs": [
        {
          "internalType": "bytes32",
          "name": "role",
          "type": "bytes32"
        },
        {
          "internalType": "address",
          "name": "account",
          "type": "address"
        }
      ],
      "name": "revokeRole",
      "outputs": [],
      "stateMutability": "nonpayable",
      "type": "function"
    },
    {
      "inputs": [
        {
          "internalType": "bytes32",
          "name": "",
          "type": "bytes32"
        }
      ],
      "name": "seasons",
      "outputs": [
        {
          "internalType": "bool",
          "name": "",
          "type": "bool"
        }
      ],
      "stateMutability": "view",
      "type": "function"
    },
    {
      "inputs": [
        {
          "internalType": "bytes32",
          "name": "_season",
          "type": "bytes32"
        }
      ],
      "name": "setCurrentSeason",
      "outputs": [],
      "stateMutability": "nonpayable",
      "type": "function"
    },
    {
      "inputs": [
        {
          "internalType": "bytes4",
          "name": "interfaceId",
          "type": "bytes4"
        }
      ],
      "name": "supportsInterface",
      "outputs": [
        {
          "internalType": "bool",
          "name": "",
          "type": "bool"
        }
      ],
      "stateMutability": "view",
      "type": "function"
    },
    {
      "inputs": [
        {
          "internalType": "address",
          "name": "newImplementation",
          "type": "address"
        }
      ],
      "name": "upgradeTo",
      "outputs": [],
      "stateMutability": "nonpayable",
      "type": "function"
    },
    {
      "inputs": [
        {
          "internalType": "address",
          "name": "newImplementation",
          "type": "address"
        },
        {
          "internalType": "bytes",
          "name": "data",
          "type": "bytes"
        }
      ],
      "name": "upgradeToAndCall",
      "outputs": [],
      "stateMutability": "payable",
      "type": "function"
    }
  ],
  "bytecode": "0x60a0604052306080523480156200001557600080fd5b506200002062000026565b620000e7565b600054610100900460ff1615620000935760405162461bcd60e51b815260206004820152602760248201527f496e697469616c697a61626c653a20636f6e747261637420697320696e697469604482015266616c697a696e6760c81b606482015260840160405180910390fd5b60005460ff90811614620000e5576000805460ff191660ff9081179091556040519081527f7f26b83ff96e1f2b6a682f133852f6798a09c465da95921460cefb38474024989060200160405180910390a15b565b60805161392d6200011f60003960008181610bb101528181610c610152818161126a0152818161131a015261145f015261392d6000f3fe6080604052600436106102345760003560e01c806386a8e98a11610138578063bcb39621116100b0578063df00bb241161007f578063e63ab1e911610064578063e63ab1e914610709578063f72c0d8b1461073d578063f95159621461077157600080fd5b8063df00bb24146106c9578063e564a0e2146106e957600080fd5b8063bcb3962114610653578063d14a5c7114610669578063d547741f14610689578063dc893ce4146106a957600080fd5b80639cc7f70811610107578063a217fddf116100ec578063a217fddf146105ea578063a3b0b5a3146105ff578063ad3b1d481461063357600080fd5b80639cc7f708146105aa5780639d70b005146105ca57600080fd5b806386a8e98a146104f7578063906405a31461051757806391d148541461053757806399d342ac1461058a57600080fd5b80633659cfe6116101cb5780634f1ef2861161019a57806352d1902d1161017f57806352d1902d1461048e57806375b238fc146104a3578063794459be146104d757600080fd5b80634f1ef2861461043d57806351955dfc1461045057600080fd5b80633659cfe6146103ad5780633f30b00f146103cd5780634529cc1b146103ed578063485cc9551461041d57600080fd5b8063248a9ca311610207578063248a9ca3146102eb5780632b48dc721461031b5780632f2ff15d1461036d57806336568abe1461038d57600080fd5b806301ffc9a714610239578063098b64191461026e578063141a468c1461029c57806318ee89f0146102c9575b600080fd5b34801561024557600080fd5b5061025961025436600461303a565b6107a2565b60405190151581526020015b60405180910390f35b34801561027a57600080fd5b5061028e610289366004613190565b61083b565b604051908152602001610265565b3480156102a857600080fd5b5061028e6102b73660046131e0565b60ff6020526000908152604090205481565b3480156102d557600080fd5b506102e96102e43660046131f9565b61099c565b005b3480156102f757600080fd5b5061028e6103063660046131e0565b60009081526065602052604090206001015490565b34801561032757600080fd5b5060fd546103489073ffffffffffffffffffffffffffffffffffffffff1681565b60405173ffffffffffffffffffffffffffffffffffffffff9091168152602001610265565b34801561037957600080fd5b506102e9610388366004613256565b610abd565b34801561039957600080fd5b506102e96103a8366004613256565b610ae7565b3480156103b957600080fd5b506102e96103c8366004613286565b610b9a565b3480156103d957600080fd5b506102e96103e83660046132a3565b610d9f565b3480156103f957600080fd5b506102596104083660046131e0565b60fc6020526000908152604090205460ff1681565b34801561042957600080fd5b506102e9610438366004613349565b610f73565b6102e961044b366004613377565b611253565b34801561045c57600080fd5b5061028e61046b3660046133db565b60fe60209081526000938452604080852082529284528284209052825290205481565b34801561049a57600080fd5b5061028e611445565b3480156104af57600080fd5b5061028e7fa49807205ce4d355092ef5a8a18f56e8913cf4a201fbe287825b095693c2177581565b3480156104e357600080fd5b5061028e6104f2366004613407565b611531565b34801561050357600080fd5b506102e96105123660046131e0565b611699565b34801561052357600080fd5b506102e96105323660046132a3565b611818565b34801561054357600080fd5b50610259610552366004613256565b600091825260656020908152604080842073ffffffffffffffffffffffffffffffffffffffff93909316845291905290205460ff1690565b34801561059657600080fd5b506102e96105a536600461345a565b6119f0565b3480156105b657600080fd5b5061028e6105c53660046131e0565b611aa4565b3480156105d657600080fd5b506102e96105e53660046134d8565b611b6b565b3480156105f657600080fd5b5061028e600081565b34801561060b57600080fd5b5061028e7f8f4f2da22e8ac8f11e15f9fc141cddbb5deea8800186560abb6e68c5496619a981565b34801561063f57600080fd5b5061028e61064e366004613544565b611c1d565b34801561065f57600080fd5b5061028e60fb5481565b34801561067557600080fd5b506102e96106843660046133db565b611cdb565b34801561069557600080fd5b506102e96106a4366004613256565b611e9a565b3480156106b557600080fd5b506102e96106c4366004613566565b611ebf565b3480156106d557600080fd5b5061028e6106e43660046133db565b6120c2565b3480156106f557600080fd5b506102e96107043660046135b7565b6121bd565b34801561071557600080fd5b5061028e7f65d7a28e3265b37a6474929f336521b332c1681b933f6cb9f3376673440d862a81565b34801561074957600080fd5b5061028e7f189ab7a9244df0848122154315af71fe140f3db0fe014031783b0946b8c9d2e381565b34801561077d57600080fd5b5061025961078c3660046131e0565b6101006020526000908152604090205460ff1681565b60007fffffffff0000000000000000000000000000000000000000000000000000000082167f7965db0b00000000000000000000000000000000000000000000000000000000148061083557507f01ffc9a7000000000000000000000000000000000000000000000000000000007fffffffff000000000000000000000000000000000000000000000000000000008316145b92915050565b60fd546040517fcad6b901000000000000000000000000000000000000000000000000000000008152600091829173ffffffffffffffffffffffffffffffffffffffff9091169063cad6b90190610898908690889060040161367c565b602060405180830381865afa1580156108b5573d6000803e3d6000fd5b505050506040513d601f19601f820116820180604052508101906108d9919061369e565b60fd546040517fa9735f940000000000000000000000000000000000000000000000000000000081526004810183905291925060009173ffffffffffffffffffffffffffffffffffffffff9091169063a9735f9490602401602060405180830381865afa15801561094e573d6000803e3d6000fd5b505050506040513d601f19601f82011682018060405250810190610972919061369e565b600096875260fe602090815260408089209489529381528388209188525250909320549392505050565b3360009081527f85c17057e64b90c0253930284e1a55b6799192f06efd0cf6b55dde7bdc2502b4602052604090205460ff16610a39576040517f08c379a000000000000000000000000000000000000000000000000000000000815260206004820152600f60248201527f4e6f742061206465706f7369746f72000000000000000000000000000000000060448201526064015b60405180910390fd5b600085815260fe60209081526040808320878452825280832086845290915281208054849290610a6a9084906136e6565b909155505060408051858152602081018590529081018390528190869033907f9092bf6bd1cf7db4fcf41aedc7c0333b51c57f5b80b429bc3d9caa5587c6ad829060600160405180910390a45050505050565b600082815260656020526040902060010154610ad881612264565b610ae2838361226e565b505050565b73ffffffffffffffffffffffffffffffffffffffff81163314610b8c576040517f08c379a000000000000000000000000000000000000000000000000000000000815260206004820152602f60248201527f416363657373436f6e74726f6c3a2063616e206f6e6c792072656e6f756e636560448201527f20726f6c657320666f722073656c6600000000000000000000000000000000006064820152608401610a30565b610b968282612362565b5050565b73ffffffffffffffffffffffffffffffffffffffff7f0000000000000000000000000000000000000000000000000000000000000000163003610c5f576040517f08c379a000000000000000000000000000000000000000000000000000000000815260206004820152602c60248201527f46756e6374696f6e206d7573742062652063616c6c6564207468726f7567682060448201527f64656c656761746563616c6c00000000000000000000000000000000000000006064820152608401610a30565b7f000000000000000000000000000000000000000000000000000000000000000073ffffffffffffffffffffffffffffffffffffffff16610cd47f360894a13ba1a3210667c828492db98dca3e2076cc3735a920a3ca505d382bbc5473ffffffffffffffffffffffffffffffffffffffff1690565b73ffffffffffffffffffffffffffffffffffffffff1614610d77576040517f08c379a000000000000000000000000000000000000000000000000000000000815260206004820152602c60248201527f46756e6374696f6e206d7573742062652063616c6c6564207468726f7567682060448201527f6163746976652070726f787900000000000000000000000000000000000000006064820152608401610a30565b610d808161241d565b60408051600080825260208201909252610d9c91839190612447565b50565b3360009081527fffdfc1249c027f9191656349feb0761381bb32c9f557e01f419fd08754bf5a1b602052604090205460ff16610e37576040517f08c379a000000000000000000000000000000000000000000000000000000000815260206004820152600c60248201527f4e6f7420616e2061646d696e00000000000000000000000000000000000000006044820152606401610a30565b60005b8151811015610f38576101006000838381518110610e5a57610e5a6136f9565b60209081029190910181015182528101919091526040016000205460ff1615610edf576040517f08c379a000000000000000000000000000000000000000000000000000000000815260206004820152601a60248201527f526561736f6e20636f646520616c7265616479206578697374730000000000006044820152606401610a30565b60016101006000848481518110610ef857610ef86136f9565b6020026020010151815260200190815260200160002060006101000a81548160ff0219169083151502179055508080610f3090613728565b915050610e3a565b507f0d8c56a8918ec09c2fe3c4d9fcc00ece66df217a1ab3ad768dd0a71620da5b4e81604051610f689190613760565b60405180910390a150565b600054610100900460ff1615808015610f935750600054600160ff909116105b80610fad5750303b158015610fad575060005460ff166001145b611039576040517f08c379a000000000000000000000000000000000000000000000000000000000815260206004820152602e60248201527f496e697469616c697a61626c653a20636f6e747261637420697320616c72656160448201527f647920696e697469616c697a65640000000000000000000000000000000000006064820152608401610a30565b600080547fffffffffffffffffffffffffffffffffffffffffffffffffffffffffffffff00166001179055801561109757600080547fffffffffffffffffffffffffffffffffffffffffffffffffffffffffffff00ff166101001790555b61109f612646565b6110a7612646565b73ffffffffffffffffffffffffffffffffffffffff8316611124576040517f08c379a000000000000000000000000000000000000000000000000000000000815260206004820152601c60248201527f4e6f7420612076616c696420436f6e74726163742041646472657373000000006044820152606401610a30565b73ffffffffffffffffffffffffffffffffffffffff82166111a1576040517f08c379a000000000000000000000000000000000000000000000000000000000815260206004820152601960248201527f4e6f7420612076616c69642041646d696e2041646472657373000000000000006044820152606401610a30565b6111ac60008361226e565b60fd80547fffffffffffffffffffffffff00000000000000000000000000000000000000001673ffffffffffffffffffffffffffffffffffffffff85161790558015610ae257600080547fffffffffffffffffffffffffffffffffffffffffffffffffffffffffffff00ff169055604051600181527f7f26b83ff96e1f2b6a682f133852f6798a09c465da95921460cefb38474024989060200160405180910390a1505050565b73ffffffffffffffffffffffffffffffffffffffff7f0000000000000000000000000000000000000000000000000000000000000000163003611318576040517f08c379a000000000000000000000000000000000000000000000000000000000815260206004820152602c60248201527f46756e6374696f6e206d7573742062652063616c6c6564207468726f7567682060448201527f64656c656761746563616c6c00000000000000000000000000000000000000006064820152608401610a30565b7f000000000000000000000000000000000000000000000000000000000000000073ffffffffffffffffffffffffffffffffffffffff1661138d7f360894a13ba1a3210667c828492db98dca3e2076cc3735a920a3ca505d382bbc5473ffffffffffffffffffffffffffffffffffffffff1690565b73ffffffffffffffffffffffffffffffffffffffff1614611430576040517f08c379a000000000000000000000000000000000000000000000000000000000815260206004820152602c60248201527f46756e6374696f6e206d7573742062652063616c6c6564207468726f7567682060448201527f6163746976652070726f787900000000000000000000000000000000000000006064820152608401610a30565b6114398261241d565b610b9682826001612447565b60003073ffffffffffffffffffffffffffffffffffffffff7f0000000000000000000000000000000000000000000000000000000000000000161461150c576040517f08c379a000000000000000000000000000000000000000000000000000000000815260206004820152603860248201527f555550535570677261646561626c653a206d757374206e6f742062652063616c60448201527f6c6564207468726f7567682064656c656761746563616c6c00000000000000006064820152608401610a30565b507f360894a13ba1a3210667c828492db98dca3e2076cc3735a920a3ca505d382bbc90565b60fd546040517fcad6b901000000000000000000000000000000000000000000000000000000008152600091829173ffffffffffffffffffffffffffffffffffffffff9091169063cad6b9019061158e908690889060040161367c565b602060405180830381865afa1580156115ab573d6000803e3d6000fd5b505050506040513d601f19601f820116820180604052508101906115cf919061369e565b60fd546040517fa9735f940000000000000000000000000000000000000000000000000000000081526004810183905291925060009173ffffffffffffffffffffffffffffffffffffffff9091169063a9735f9490602401602060405180830381865afa158015611644573d6000803e3d6000fd5b505050506040513d601f19601f82011682018060405250810190611668919061369e565b60fb54600090815260fe60209081526040808320958352948152848220928252919091529190912054949350505050565b3360009081527fffdfc1249c027f9191656349feb0761381bb32c9f557e01f419fd08754bf5a1b602052604090205460ff16611731576040517f08c379a000000000000000000000000000000000000000000000000000000000815260206004820152600c60248201527f4e6f7420616e2061646d696e00000000000000000000000000000000000000006044820152606401610a30565b600081815260fc602052604090205460ff16156117aa576040517f08c379a000000000000000000000000000000000000000000000000000000000815260206004820152601260248201527f536561736f6e20616c72656164792073657400000000000000000000000000006044820152606401610a30565b60fb819055600081815260fc60205260409081902080547fffffffffffffffffffffffffffffffffffffffffffffffffffffffffffffff00166001179055517f61228c895f8ba06548597d3e34a23bc0ecb6d1e62a1eb3fa30be04883a17ef3190610f689083815260200190565b3360009081527fffdfc1249c027f9191656349feb0761381bb32c9f557e01f419fd08754bf5a1b602052604090205460ff166118b0576040517f08c379a000000000000000000000000000000000000000000000000000000000815260206004820152600c60248201527f4e6f7420616e2061646d696e00000000000000000000000000000000000000006044820152606401610a30565b60005b81518110156119c05761010060008383815181106118d3576118d36136f9565b60209081029190910181015182528101919091526040016000205460ff16611957576040517f08c379a000000000000000000000000000000000000000000000000000000000815260206004820152601a60248201527f526561736f6e20636f646520646f6573206e6f742065786973740000000000006044820152606401610a30565b610100600083838151811061196e5761196e6136f9565b602090810291909101810151825281019190915260400160002080547fffffffffffffffffffffffffffffffffffffffffffffffffffffffffffffff00169055806119b881613728565b9150506118b3565b507f5b2c9fcbb27d48bdbfc59f0564b5ba81539309ebf09a940fad64d171bcfb9ff981604051610f689190613760565b60fd546040517fcad6b90100000000000000000000000000000000000000000000000000000000815260009173ffffffffffffffffffffffffffffffffffffffff169063cad6b90190611a49908a908c9060040161367c565b602060405180830381865afa158015611a66573d6000803e3d6000fd5b505050506040513d601f19601f82011682018060405250810190611a8a919061369e565b9050611a9a818787878787611ebf565b5050505050505050565b60fd546040517fa9735f9400000000000000000000000000000000000000000000000000000000815260048101839052600091829173ffffffffffffffffffffffffffffffffffffffff9091169063a9735f9490602401602060405180830381865afa158015611b18573d6000803e3d6000fd5b505050506040513d601f19601f82011682018060405250810190611b3c919061369e565b60fb54600090815260fe6020908152604080832096835295815285822092825291909152929092205492915050565b60fd546040517fcad6b90100000000000000000000000000000000000000000000000000000000815260009173ffffffffffffffffffffffffffffffffffffffff169063cad6b90190611bc49088908a9060040161367c565b602060405180830381865afa158015611be1573d6000803e3d6000fd5b505050506040513d601f19601f82011682018060405250810190611c05919061369e565b9050611c14878286868661099c565b50505050505050565b60fd546040517fa9735f9400000000000000000000000000000000000000000000000000000000815260048101839052600091829173ffffffffffffffffffffffffffffffffffffffff9091169063a9735f9490602401602060405180830381865afa158015611c91573d6000803e3d6000fd5b505050506040513d601f19601f82011682018060405250810190611cb5919061369e565b600094855260fe6020908152604080872095875294815284862091865252505090205490565b60fd546040517f6352211e0000000000000000000000000000000000000000000000000000000081526004810185905260009173ffffffffffffffffffffffffffffffffffffffff1690636352211e90602401602060405180830381865afa158015611d4b573d6000803e3d6000fd5b505050506040513d601f19601f82011682018060405250810190611d6f91906137a4565b90503373ffffffffffffffffffffffffffffffffffffffff821614611df0576040517f08c379a000000000000000000000000000000000000000000000000000000000815260206004820152601b60248201527f53656e646572206e6f74206f776e6572206f66207265616c6d496400000000006044820152606401610a30565b60fd546040517fa9735f940000000000000000000000000000000000000000000000000000000081526004810186905260009173ffffffffffffffffffffffffffffffffffffffff169063a9735f9490602401602060405180830381865afa158015611e60573d6000803e3d6000fd5b505050506040513d601f19601f82011682018060405250810190611e84919061369e565b9050611e9385828686336126df565b5050505050565b600082815260656020526040902060010154611eb581612264565b610ae28383612362565b60fd546040517fa9735f940000000000000000000000000000000000000000000000000000000081526004810188905260009173ffffffffffffffffffffffffffffffffffffffff169063a9735f9490602401602060405180830381865afa158015611f2f573d6000803e3d6000fd5b505050506040513d601f19601f82011682018060405250810190611f53919061369e565b90506000611f7a88838960ff60008d8152602001908152602001600020548a8a8a8a6128be565b60fd546040517f6352211e000000000000000000000000000000000000000000000000000000008152600481018b905291925060009173ffffffffffffffffffffffffffffffffffffffff90911690636352211e90602401602060405180830381865afa158015611fef573d6000803e3d6000fd5b505050506040513d601f19601f8201168201806040525081019061201391906137a4565b90508073ffffffffffffffffffffffffffffffffffffffff168273ffffffffffffffffffffffffffffffffffffffff16146120aa576040517f08c379a000000000000000000000000000000000000000000000000000000000815260206004820152601b60248201527f5369676e6572206e6f74206f776e6572206f66207265616c6d496400000000006044820152606401610a30565b6120b789848a8a856126df565b505050505050505050565b60fd546040517fa9735f9400000000000000000000000000000000000000000000000000000000815260048101859052600091829173ffffffffffffffffffffffffffffffffffffffff9091169063a9735f9490602401602060405180830381865afa158015612136573d6000803e3d6000fd5b505050506040513d601f19601f8201168201806040525081019061215a919061369e565b600086815260ff60209081526040918290205460fb5483518084019a909a52898401949094526060890197909752608088019290925260a087019490945260c0808701959095528351808703909501855260e09095019092525050805191012090565b60fd546040517fcad6b90100000000000000000000000000000000000000000000000000000000815260009173ffffffffffffffffffffffffffffffffffffffff169063cad6b90190612216908790899060040161367c565b602060405180830381865afa158015612233573d6000803e3d6000fd5b505050506040513d601f19601f82011682018060405250810190612257919061369e565b9050611e93818484611cdb565b610d9c8133612a04565b600082815260656020908152604080832073ffffffffffffffffffffffffffffffffffffffff8516845290915290205460ff16610b9657600082815260656020908152604080832073ffffffffffffffffffffffffffffffffffffffff85168452909152902080547fffffffffffffffffffffffffffffffffffffffffffffffffffffffffffffff001660011790556123043390565b73ffffffffffffffffffffffffffffffffffffffff168173ffffffffffffffffffffffffffffffffffffffff16837f2f8788117e7eff1d82e926ec794901d17c78024a50270940304540a733656f0d60405160405180910390a45050565b600082815260656020908152604080832073ffffffffffffffffffffffffffffffffffffffff8516845290915290205460ff1615610b9657600082815260656020908152604080832073ffffffffffffffffffffffffffffffffffffffff8516808552925280832080547fffffffffffffffffffffffffffffffffffffffffffffffffffffffffffffff0016905551339285917ff6391f5c32d9c69d2a47ea670b442974b53935d1edc7fd64eb21e047a839171b9190a45050565b7f189ab7a9244df0848122154315af71fe140f3db0fe014031783b0946b8c9d2e3610b9681612264565b7f4910fdfa16fed3260ed0e7147f7cc6da11a60208b5b9406d12a635614ffd91435460ff161561247a57610ae283612abe565b8273ffffffffffffffffffffffffffffffffffffffff166352d1902d6040518163ffffffff1660e01b8152600401602060405180830381865afa9250505080156124ff575060408051601f3d9081017fffffffffffffffffffffffffffffffffffffffffffffffffffffffffffffffe01682019092526124fc9181019061369e565b60015b61258b576040517f08c379a000000000000000000000000000000000000000000000000000000000815260206004820152602e60248201527f45524331393637557067726164653a206e657720696d706c656d656e7461746960448201527f6f6e206973206e6f7420555550530000000000000000000000000000000000006064820152608401610a30565b7f360894a13ba1a3210667c828492db98dca3e2076cc3735a920a3ca505d382bbc811461263a576040517f08c379a000000000000000000000000000000000000000000000000000000000815260206004820152602960248201527f45524331393637557067726164653a20756e737570706f727465642070726f7860448201527f6961626c655555494400000000000000000000000000000000000000000000006064820152608401610a30565b50610ae2838383612bc8565b600054610100900460ff166126dd576040517f08c379a000000000000000000000000000000000000000000000000000000000815260206004820152602b60248201527f496e697469616c697a61626c653a20636f6e7472616374206973206e6f74206960448201527f6e697469616c697a696e670000000000000000000000000000000000000000006064820152608401610a30565b565b60fb54600090815260fe60209081526040808320888452825280832087845290915290205483111561276d576040517f08c379a000000000000000000000000000000000000000000000000000000000815260206004820152601460248201527f496e73756666696369656e742062616c616e63650000000000000000000000006044820152606401610a30565b6000828152610100602052604090205460ff166127e6576040517f08c379a000000000000000000000000000000000000000000000000000000000815260206004820152601b60248201527f496e76616c696420636f6e73756d6520726561736f6e20636f646500000000006044820152606401610a30565b60fb54600090815260fe6020908152604080832088845282528083208784529091528120805485929061281a9084906137c1565b909155505060fb54600086815260ff602090815260409182902054825133815291820188905281830187905273ffffffffffffffffffffffffffffffffffffffff851660608301526080820152905184929188917f42d4212eaef22a85f07461ad57d262e7c780323e1ed2af838b92d5bcf85138c19181900360a00190a4600085815260ff602052604081208054916128b283613728565b91905055505050505050565b60fb546040805160208082018c90528183018b9052606082018a9052608082019390935260a0810187905260c08082018990528251808303909101815260e0909101909152805191012060009081906040517f19457468657265756d205369676e6564204d6573736167653a0a3332000000006020820152603c8101829052909150600090605c01604080517fffffffffffffffffffffffffffffffffffffffffffffffffffffffffffffffe081840301815282825280516020918201206000845290830180835281905260ff8916918301919091526060820187905260808201869052915060019060a0016020604051602081039080840390855afa1580156129cc573d6000803e3d6000fd5b50506040517fffffffffffffffffffffffffffffffffffffffffffffffffffffffffffffffe001519c9b505050505050505050505050565b600082815260656020908152604080832073ffffffffffffffffffffffffffffffffffffffff8516845290915290205460ff16610b9657612a4481612bf3565b612a4f836020612c12565b604051602001612a609291906137d4565b604080517fffffffffffffffffffffffffffffffffffffffffffffffffffffffffffffffe0818403018152908290527f08c379a0000000000000000000000000000000000000000000000000000000008252610a3091600401613855565b73ffffffffffffffffffffffffffffffffffffffff81163b612b62576040517f08c379a000000000000000000000000000000000000000000000000000000000815260206004820152602d60248201527f455243313936373a206e657720696d706c656d656e746174696f6e206973206e60448201527f6f74206120636f6e7472616374000000000000000000000000000000000000006064820152608401610a30565b7f360894a13ba1a3210667c828492db98dca3e2076cc3735a920a3ca505d382bbc80547fffffffffffffffffffffffff00000000000000000000000000000000000000001673ffffffffffffffffffffffffffffffffffffffff92909216919091179055565b612bd183612e5c565b600082511180612bde5750805b15610ae257612bed8383612ea9565b50505050565b606061083573ffffffffffffffffffffffffffffffffffffffff831660145b60606000612c21836002613868565b612c2c9060026136e6565b67ffffffffffffffff811115612c4457612c4461307c565b6040519080825280601f01601f191660200182016040528015612c6e576020820181803683370190505b5090507f300000000000000000000000000000000000000000000000000000000000000081600081518110612ca557612ca56136f9565b60200101907effffffffffffffffffffffffffffffffffffffffffffffffffffffffffffff1916908160001a9053507f780000000000000000000000000000000000000000000000000000000000000081600181518110612d0857612d086136f9565b60200101907effffffffffffffffffffffffffffffffffffffffffffffffffffffffffffff1916908160001a9053506000612d44846002613868565b612d4f9060016136e6565b90505b6001811115612dec577f303132333435363738396162636465660000000000000000000000000000000085600f1660108110612d9057612d906136f9565b1a60f81b828281518110612da657612da66136f9565b60200101907effffffffffffffffffffffffffffffffffffffffffffffffffffffffffffff1916908160001a90535060049490941c93612de58161387f565b9050612d52565b508315612e55576040517f08c379a000000000000000000000000000000000000000000000000000000000815260206004820181905260248201527f537472696e67733a20686578206c656e67746820696e73756666696369656e746044820152606401610a30565b9392505050565b612e6581612abe565b60405173ffffffffffffffffffffffffffffffffffffffff8216907fbc7cd75a20ee27fd9adebab32041f755214dbc6bffa90cc0225b39da2e5c2d3b90600090a250565b6060612e5583836040518060600160405280602781526020016138d16027913960606000808573ffffffffffffffffffffffffffffffffffffffff1685604051612ef391906138b4565b600060405180830381855af49150503d8060008114612f2e576040519150601f19603f3d011682016040523d82523d6000602084013e612f33565b606091505b5091509150612f4486838387612f4e565b9695505050505050565b60608315612fe4578251600003612fdd5773ffffffffffffffffffffffffffffffffffffffff85163b612fdd576040517f08c379a000000000000000000000000000000000000000000000000000000000815260206004820152601d60248201527f416464726573733a2063616c6c20746f206e6f6e2d636f6e74726163740000006044820152606401610a30565b5081612fee565b612fee8383612ff6565b949350505050565b8151156130065781518083602001fd5b806040517f08c379a0000000000000000000000000000000000000000000000000000000008152600401610a309190613855565b60006020828403121561304c57600080fd5b81357fffffffff0000000000000000000000000000000000000000000000000000000081168114612e5557600080fd5b7f4e487b7100000000000000000000000000000000000000000000000000000000600052604160045260246000fd5b604051601f82017fffffffffffffffffffffffffffffffffffffffffffffffffffffffffffffffe016810167ffffffffffffffff811182821017156130f2576130f261307c565b604052919050565b600067ffffffffffffffff8311156131145761311461307c565b61314560207fffffffffffffffffffffffffffffffffffffffffffffffffffffffffffffffe0601f860116016130ab565b905082815283838301111561315957600080fd5b828260208301376000602084830101529392505050565b600082601f83011261318157600080fd5b612e55838335602085016130fa565b6000806000606084860312156131a557600080fd5b8335925060208401359150604084013567ffffffffffffffff8111156131ca57600080fd5b6131d686828701613170565b9150509250925092565b6000602082840312156131f257600080fd5b5035919050565b600080600080600060a0868803121561321157600080fd5b505083359560208501359550604085013594606081013594506080013592509050565b73ffffffffffffffffffffffffffffffffffffffff81168114610d9c57600080fd5b6000806040838503121561326957600080fd5b82359150602083013561327b81613234565b809150509250929050565b60006020828403121561329857600080fd5b8135612e5581613234565b600060208083850312156132b657600080fd5b823567ffffffffffffffff808211156132ce57600080fd5b818501915085601f8301126132e257600080fd5b8135818111156132f4576132f461307c565b8060051b91506133058483016130ab565b818152918301840191848101908884111561331f57600080fd5b938501935b8385101561333d57843582529385019390850190613324565b98975050505050505050565b6000806040838503121561335c57600080fd5b823561336781613234565b9150602083013561327b81613234565b6000806040838503121561338a57600080fd5b823561339581613234565b9150602083013567ffffffffffffffff8111156133b157600080fd5b8301601f810185136133c257600080fd5b6133d1858235602084016130fa565b9150509250929050565b6000806000606084860312156133f057600080fd5b505081359360208301359350604090920135919050565b6000806040838503121561341a57600080fd5b82359150602083013567ffffffffffffffff81111561343857600080fd5b6133d185828601613170565b803560ff8116811461345557600080fd5b919050565b600080600080600080600060e0888a03121561347557600080fd5b87359650602088013567ffffffffffffffff81111561349357600080fd5b61349f8a828b01613170565b96505060408801359450606088013593506134bc60808901613444565b925060a0880135915060c0880135905092959891949750929550565b60008060008060008060c087890312156134f157600080fd5b8635955060208701359450604087013567ffffffffffffffff81111561351657600080fd5b61352289828a01613170565b945050606087013592506080870135915060a087013590509295509295509295565b6000806040838503121561355757600080fd5b50508035926020909101359150565b60008060008060008060c0878903121561357f57600080fd5b86359550602087013594506040870135935061359d60608801613444565b92506080870135915060a087013590509295509295509295565b600080600080608085870312156135cd57600080fd5b84359350602085013567ffffffffffffffff8111156135eb57600080fd5b6135f787828801613170565b949794965050505060408301359260600135919050565b60005b83811015613629578181015183820152602001613611565b50506000910152565b6000815180845261364a81602086016020860161360e565b601f017fffffffffffffffffffffffffffffffffffffffffffffffffffffffffffffffe0169290920160200192915050565b60408152600061368f6040830185613632565b90508260208301529392505050565b6000602082840312156136b057600080fd5b5051919050565b7f4e487b7100000000000000000000000000000000000000000000000000000000600052601160045260246000fd5b80820180821115610835576108356136b7565b7f4e487b7100000000000000000000000000000000000000000000000000000000600052603260045260246000fd5b60007fffffffffffffffffffffffffffffffffffffffffffffffffffffffffffffffff8203613759576137596136b7565b5060010190565b6020808252825182820181905260009190848201906040850190845b818110156137985783518352928401929184019160010161377c565b50909695505050505050565b6000602082840312156137b657600080fd5b8151612e5581613234565b81810381811115610835576108356136b7565b7f416363657373436f6e74726f6c3a206163636f756e742000000000000000000081526000835161380c81601785016020880161360e565b7f206973206d697373696e6720726f6c6520000000000000000000000000000000601791840191820152835161384981602884016020880161360e565b01602801949350505050565b602081526000612e556020830184613632565b8082028115828204841417610835576108356136b7565b60008161388e5761388e6136b7565b507fffffffffffffffffffffffffffffffffffffffffffffffffffffffffffffffff0190565b600082516138c681846020870161360e565b919091019291505056fe416464726573733a206c6f772d6c6576656c2064656c65676174652063616c6c206661696c6564a2646970667358221220c1328e89f3fa04e49695956f5500b5350711878bf82be9b1ff0792f3e69e562c64736f6c63430008150033",
  "linkReferences": {},
  "deployedLinkReferences": {}
}