{
  "_format": "hh-sol-artifact-1",
  "contractName": "MocaPoints",
  "sourceName": "contracts/MocaPoints/MocaPoints.sol",
  "abi": [
    {
      "inputs": [],
      "name": "IllegalInterfaceId",
      "type": "error"
    },
    {
      "inputs": [
        {
          "internalType": "uint256",
          "name": "currentPhase",
          "type": "uint256"
        },
        {
          "internalType": "uint256",
          "name": "newPhase",
          "type": "uint256"
        }
      ],
      "name": "InitializationPhaseAlreadyReached",
      "type": "error"
    },
    {
      "inputs": [
        {
          "internalType": "address",
          "name": "account",
          "type": "address"
        }
      ],
      "name": "NotContractOwner",
      "type": "error"
    },
    {
      "inputs": [
        {
          "internalType": "bytes32",
          "name": "role",
          "type": "bytes32"
        },
        {
          "internalType": "address",
          "name": "account",
          "type": "address"
        }
      ],
      "name": "NotRoleHolder",
      "type": "error"
    },
    {
      "anonymous": false,
      "inputs": [
        {
          "indexed": false,
          "internalType": "address",
          "name": "previousAdmin",
          "type": "address"
        },
        {
          "indexed": false,
          "internalType": "address",
          "name": "newAdmin",
          "type": "address"
        }
      ],
      "name": "AdminChanged",
      "type": "event"
    },
    {
      "anonymous": false,
      "inputs": [
        {
          "indexed": false,
          "internalType": "bytes32[]",
          "name": "reasonCodes",
          "type": "bytes32[]"
        }
      ],
      "name": "BatchAddedConsumeReasonCode",
      "type": "event"
    },
    {
      "anonymous": false,
      "inputs": [
        {
          "indexed": false,
          "internalType": "bytes32[]",
          "name": "reasonCodes",
          "type": "bytes32[]"
        }
      ],
      "name": "BatchRemovedConsumeReasonCode",
      "type": "event"
    },
    {
      "anonymous": false,
      "inputs": [
        {
          "indexed": true,
          "internalType": "address",
          "name": "beacon",
          "type": "address"
        }
      ],
      "name": "BeaconUpgraded",
      "type": "event"
    },
    {
      "anonymous": false,
      "inputs": [
        {
          "indexed": true,
          "internalType": "uint256",
          "name": "realmId",
          "type": "uint256"
        },
        {
          "indexed": true,
          "internalType": "bytes32",
          "name": "season",
          "type": "bytes32"
        },
        {
          "indexed": true,
          "internalType": "bytes32",
          "name": "reasonCode",
          "type": "bytes32"
        },
        {
          "indexed": false,
          "internalType": "address",
          "name": "operator",
          "type": "address"
        },
        {
          "indexed": false,
          "internalType": "uint256",
          "name": "realmIdVersion",
          "type": "uint256"
        },
        {
          "indexed": false,
          "internalType": "uint256",
          "name": "amount",
          "type": "uint256"
        },
        {
          "indexed": false,
          "internalType": "address",
          "name": "realmIdOwner",
          "type": "address"
        }
      ],
      "name": "Consumed",
      "type": "event"
    },
    {
      "anonymous": false,
      "inputs": [
        {
          "indexed": true,
          "internalType": "address",
          "name": "sender",
          "type": "address"
        },
        {
          "indexed": true,
          "internalType": "bytes32",
          "name": "season",
          "type": "bytes32"
        },
        {
          "indexed": true,
          "internalType": "bytes32",
          "name": "reasonCode",
          "type": "bytes32"
        },
        {
          "indexed": false,
          "internalType": "uint256",
          "name": "realmId",
          "type": "uint256"
        },
        {
          "indexed": false,
          "internalType": "uint256",
          "name": "realmIdVersion",
          "type": "uint256"
        },
        {
          "indexed": false,
          "internalType": "uint256",
          "name": "amount",
          "type": "uint256"
        }
      ],
      "name": "Deposited",
      "type": "event"
    },
    {
      "anonymous": false,
      "inputs": [
        {
          "indexed": false,
          "internalType": "uint8",
          "name": "version",
          "type": "uint8"
        }
      ],
      "name": "Initialized",
      "type": "event"
    },
    {
      "anonymous": false,
      "inputs": [
        {
          "indexed": true,
          "internalType": "address",
          "name": "previousOwner",
          "type": "address"
        },
        {
          "indexed": true,
          "internalType": "address",
          "name": "newOwner",
          "type": "address"
        }
      ],
      "name": "OwnershipTransferred",
      "type": "event"
    },
    {
      "anonymous": false,
      "inputs": [
        {
          "indexed": false,
          "internalType": "bytes32",
          "name": "role",
          "type": "bytes32"
        },
        {
          "indexed": false,
          "internalType": "address",
          "name": "account",
          "type": "address"
        },
        {
          "indexed": false,
          "internalType": "address",
          "name": "operator",
          "type": "address"
        }
      ],
      "name": "RoleGranted",
      "type": "event"
    },
    {
      "anonymous": false,
      "inputs": [
        {
          "indexed": false,
          "internalType": "bytes32",
          "name": "role",
          "type": "bytes32"
        },
        {
          "indexed": false,
          "internalType": "address",
          "name": "account",
          "type": "address"
        },
        {
          "indexed": false,
          "internalType": "address",
          "name": "operator",
          "type": "address"
        }
      ],
      "name": "RoleRevoked",
      "type": "event"
    },
    {
      "anonymous": false,
      "inputs": [
        {
          "indexed": false,
          "internalType": "bytes32",
          "name": "season",
          "type": "bytes32"
        }
      ],
      "name": "SetCurrentSeason",
      "type": "event"
    },
    {
      "anonymous": false,
      "inputs": [
        {
          "indexed": true,
          "internalType": "address",
          "name": "implementation",
          "type": "address"
        }
      ],
      "name": "Upgraded",
      "type": "event"
    },
    {
      "inputs": [],
      "name": "ADMIN_ROLE",
      "outputs": [
        {
          "internalType": "bytes32",
          "name": "",
          "type": "bytes32"
        }
      ],
      "stateMutability": "view",
      "type": "function"
    },
    {
      "inputs": [],
      "name": "DEPOSITOR_ROLE",
      "outputs": [
        {
          "internalType": "bytes32",
          "name": "",
          "type": "bytes32"
        }
      ],
      "stateMutability": "view",
      "type": "function"
    },
    {
      "inputs": [
        {
          "internalType": "bytes32",
          "name": "",
          "type": "bytes32"
        }
      ],
      "name": "allowedConsumeReasonCodes",
      "outputs": [
        {
          "internalType": "bool",
          "name": "",
          "type": "bool"
        }
      ],
      "stateMutability": "view",
      "type": "function"
    },
    {
      "inputs": [
        {
          "internalType": "bytes32",
          "name": "season",
          "type": "bytes32"
        },
        {
          "internalType": "bytes32",
          "name": "parentNode",
          "type": "bytes32"
        },
        {
          "internalType": "string",
          "name": "_name",
          "type": "string"
        }
      ],
      "name": "balanceOf",
      "outputs": [
        {
          "internalType": "uint256",
          "name": "",
          "type": "uint256"
        }
      ],
      "stateMutability": "view",
      "type": "function"
    },
    {
      "inputs": [
        {
          "internalType": "bytes32",
          "name": "parentNode",
          "type": "bytes32"
        },
        {
          "internalType": "string",
          "name": "_name",
          "type": "string"
        }
      ],
      "name": "balanceOf",
      "outputs": [
        {
          "internalType": "uint256",
          "name": "",
          "type": "uint256"
        }
      ],
      "stateMutability": "view",
      "type": "function"
    },
    {
      "inputs": [
        {
          "internalType": "uint256",
          "name": "realmId",
          "type": "uint256"
        }
      ],
      "name": "balanceOf",
      "outputs": [
        {
          "internalType": "uint256",
          "name": "",
          "type": "uint256"
        }
      ],
      "stateMutability": "view",
      "type": "function"
    },
    {
      "inputs": [
        {
          "internalType": "bytes32",
          "name": "season",
          "type": "bytes32"
        },
        {
          "internalType": "uint256",
          "name": "realmId",
          "type": "uint256"
        }
      ],
      "name": "balanceOf",
      "outputs": [
        {
          "internalType": "uint256",
          "name": "",
          "type": "uint256"
        }
      ],
      "stateMutability": "view",
      "type": "function"
    },
    {
      "inputs": [
        {
          "internalType": "bytes32",
          "name": "",
          "type": "bytes32"
        },
        {
          "internalType": "uint256",
          "name": "",
          "type": "uint256"
        },
        {
          "internalType": "uint256",
          "name": "",
          "type": "uint256"
        }
      ],
      "name": "balances",
      "outputs": [
        {
          "internalType": "uint256",
          "name": "",
          "type": "uint256"
        }
      ],
      "stateMutability": "view",
      "type": "function"
    },
    {
      "inputs": [
        {
          "internalType": "bytes32[]",
          "name": "_reasonCodes",
          "type": "bytes32[]"
        }
      ],
      "name": "batchAddConsumeReasonCodes",
      "outputs": [],
      "stateMutability": "nonpayable",
      "type": "function"
    },
    {
      "inputs": [
        {
          "internalType": "bytes32[]",
          "name": "_reasonCodes",
          "type": "bytes32[]"
        }
      ],
      "name": "batchRemoveConsumeReasonCodes",
      "outputs": [],
      "stateMutability": "nonpayable",
      "type": "function"
    },
    {
      "inputs": [
        {
          "internalType": "bytes32",
          "name": "parentNode",
          "type": "bytes32"
        },
        {
          "internalType": "string",
          "name": "_name",
          "type": "string"
        },
        {
          "internalType": "uint256",
          "name": "amount",
          "type": "uint256"
        },
        {
          "internalType": "bytes32",
          "name": "consumeReasonCode",
          "type": "bytes32"
        },
        {
          "internalType": "uint8",
          "name": "v",
          "type": "uint8"
        },
        {
          "internalType": "bytes32",
          "name": "r",
          "type": "bytes32"
        },
        {
          "internalType": "bytes32",
          "name": "s",
          "type": "bytes32"
        }
      ],
      "name": "consume",
      "outputs": [],
      "stateMutability": "nonpayable",
      "type": "function"
    },
    {
      "inputs": [
        {
          "internalType": "uint256",
          "name": "realmId",
          "type": "uint256"
        },
        {
          "internalType": "uint256",
          "name": "amount",
          "type": "uint256"
        },
        {
          "internalType": "bytes32",
          "name": "consumeReasonCode",
          "type": "bytes32"
        }
      ],
      "name": "consume",
      "outputs": [],
      "stateMutability": "nonpayable",
      "type": "function"
    },
    {
      "inputs": [
        {
          "internalType": "uint256",
          "name": "realmId",
          "type": "uint256"
        },
        {
          "internalType": "uint256",
          "name": "amount",
          "type": "uint256"
        },
        {
          "internalType": "bytes32",
          "name": "consumeReasonCode",
          "type": "bytes32"
        },
        {
          "internalType": "uint8",
          "name": "v",
          "type": "uint8"
        },
        {
          "internalType": "bytes32",
          "name": "r",
          "type": "bytes32"
        },
        {
          "internalType": "bytes32",
          "name": "s",
          "type": "bytes32"
        }
      ],
      "name": "consume",
      "outputs": [],
      "stateMutability": "nonpayable",
      "type": "function"
    },
    {
      "inputs": [
        {
          "internalType": "bytes32",
          "name": "parentNode",
          "type": "bytes32"
        },
        {
          "internalType": "string",
          "name": "_name",
          "type": "string"
        },
        {
          "internalType": "uint256",
          "name": "amount",
          "type": "uint256"
        },
        {
          "internalType": "bytes32",
          "name": "consumeReasonCode",
          "type": "bytes32"
        }
      ],
      "name": "consume",
      "outputs": [],
      "stateMutability": "nonpayable",
      "type": "function"
    },
    {
      "inputs": [],
      "name": "currentSeason",
      "outputs": [
        {
          "internalType": "bytes32",
          "name": "",
          "type": "bytes32"
        }
      ],
      "stateMutability": "view",
      "type": "function"
    },
    {
      "inputs": [
        {
          "internalType": "bytes32",
          "name": "season",
          "type": "bytes32"
        },
        {
          "internalType": "uint256",
          "name": "realmId",
          "type": "uint256"
        },
        {
          "internalType": "uint256",
          "name": "realmIdVersion",
          "type": "uint256"
        },
        {
          "internalType": "uint256",
          "name": "amount",
          "type": "uint256"
        },
        {
          "internalType": "bytes32",
          "name": "depositReasonCode",
          "type": "bytes32"
        }
      ],
      "name": "deposit",
      "outputs": [],
      "stateMutability": "nonpayable",
      "type": "function"
    },
    {
      "inputs": [
        {
          "internalType": "bytes32",
          "name": "season",
          "type": "bytes32"
        },
        {
          "internalType": "bytes32",
          "name": "parentNode",
          "type": "bytes32"
        },
        {
          "internalType": "string",
          "name": "name",
          "type": "string"
        },
        {
          "internalType": "uint256",
          "name": "realmIdVersion",
          "type": "uint256"
        },
        {
          "internalType": "uint256",
          "name": "amount",
          "type": "uint256"
        },
        {
          "internalType": "bytes32",
          "name": "depositReasonCode",
          "type": "bytes32"
        }
      ],
      "name": "deposit",
      "outputs": [],
      "stateMutability": "nonpayable",
      "type": "function"
    },
    {
      "inputs": [
        {
          "internalType": "bytes32",
          "name": "role",
          "type": "bytes32"
        },
        {
          "internalType": "address",
          "name": "account",
          "type": "address"
        }
      ],
      "name": "grantRole",
      "outputs": [],
      "stateMutability": "nonpayable",
      "type": "function"
    },
    {
      "inputs": [
        {
          "internalType": "bytes32",
          "name": "role",
          "type": "bytes32"
        },
        {
          "internalType": "address",
          "name": "account",
          "type": "address"
        }
      ],
      "name": "hasRole",
      "outputs": [
        {
          "internalType": "bool",
          "name": "hasRole_",
          "type": "bool"
        }
      ],
      "stateMutability": "view",
      "type": "function"
    },
    {
      "inputs": [
        {
          "internalType": "address",
          "name": "_realmIdContract",
          "type": "address"
        },
        {
          "internalType": "address",
          "name": "_owner",
          "type": "address"
        }
      ],
      "name": "initialize",
      "outputs": [],
      "stateMutability": "nonpayable",
      "type": "function"
    },
    {
      "inputs": [
        {
          "internalType": "uint256",
          "name": "",
          "type": "uint256"
        }
      ],
      "name": "nonces",
      "outputs": [
        {
          "internalType": "uint256",
          "name": "",
          "type": "uint256"
        }
      ],
      "stateMutability": "view",
      "type": "function"
    },
    {
      "inputs": [],
      "name": "owner",
      "outputs": [
        {
          "internalType": "address",
          "name": "",
          "type": "address"
        }
      ],
      "stateMutability": "view",
      "type": "function"
    },
    {
      "inputs": [
        {
          "internalType": "uint256",
          "name": "realmId",
          "type": "uint256"
        },
        {
          "internalType": "uint256",
          "name": "realmIdVersion",
          "type": "uint256"
        },
        {
          "internalType": "uint256",
          "name": "amount",
          "type": "uint256"
        },
        {
          "internalType": "bytes32",
          "name": "reasonCode",
          "type": "bytes32"
        }
      ],
      "name": "preparePayload",
      "outputs": [
        {
          "internalType": "bytes32",
          "name": "",
          "type": "bytes32"
        }
      ],
      "stateMutability": "view",
      "type": "function"
    },
    {
      "inputs": [],
      "name": "proxiableUUID",
      "outputs": [
        {
          "internalType": "bytes32",
          "name": "",
          "type": "bytes32"
        }
      ],
      "stateMutability": "view",
      "type": "function"
    },
    {
      "inputs": [],
      "name": "realmIdContract",
      "outputs": [
        {
          "internalType": "contract IRealmId",
          "name": "",
          "type": "address"
        }
      ],
      "stateMutability": "view",
      "type": "function"
    },
    {
      "inputs": [
        {
          "internalType": "bytes32",
          "name": "role",
          "type": "bytes32"
        }
      ],
      "name": "renounceRole",
      "outputs": [],
      "stateMutability": "nonpayable",
      "type": "function"
    },
    {
      "inputs": [
        {
          "internalType": "bytes32",
          "name": "role",
          "type": "bytes32"
        },
        {
          "internalType": "address",
          "name": "account",
          "type": "address"
        }
      ],
      "name": "revokeRole",
      "outputs": [],
      "stateMutability": "nonpayable",
      "type": "function"
    },
    {
      "inputs": [
        {
          "internalType": "bytes32",
          "name": "",
          "type": "bytes32"
        }
      ],
      "name": "seasons",
      "outputs": [
        {
          "internalType": "bool",
          "name": "",
          "type": "bool"
        }
      ],
      "stateMutability": "view",
      "type": "function"
    },
    {
      "inputs": [
        {
          "internalType": "bytes32",
          "name": "_season",
          "type": "bytes32"
        }
      ],
      "name": "setCurrentSeason",
      "outputs": [],
      "stateMutability": "nonpayable",
      "type": "function"
    },
    {
      "inputs": [
        {
          "internalType": "address",
          "name": "newOwner",
          "type": "address"
        }
      ],
      "name": "transferOwnership",
      "outputs": [],
      "stateMutability": "nonpayable",
      "type": "function"
    },
    {
      "inputs": [
        {
          "internalType": "address",
          "name": "newImplementation",
          "type": "address"
        }
      ],
      "name": "upgradeTo",
      "outputs": [],
      "stateMutability": "nonpayable",
      "type": "function"
    },
    {
      "inputs": [
        {
          "internalType": "address",
          "name": "newImplementation",
          "type": "address"
        },
        {
          "internalType": "bytes",
          "name": "data",
          "type": "bytes"
        }
      ],
      "name": "upgradeToAndCall",
      "outputs": [],
      "stateMutability": "payable",
      "type": "function"
    }
  ],
  "bytecode": "0x60a06040523060805234801561001457600080fd5b5060805161360b61004c600039600081816108e40152818161099901528181610f3201528181610fe2015261112b015261360b6000f3fe6080604052600436106101e35760003560e01c80638da5cb5b11610102578063ad3b1d4811610095578063dc893ce411610064578063dc893ce4146105f5578063e564a0e214610615578063f2fde38b14610635578063f95159621461065557600080fd5b8063ad3b1d481461057f578063bcb396211461059f578063d14a5c71146105b5578063d547741f146105d557600080fd5b806399d342ac116100d157806399d342ac146104eb5780639cc7f7081461050b5780639d70b0051461052b578063a3b0b5a31461054b57600080fd5b80638da5cb5b14610476578063906405a31461048b57806391d14854146104ab5780639848a4c1146104cb57600080fd5b8063485cc9551161017a57806375b238fc1161014957806375b238fc146103e2578063794459be1461041657806386a8e98a146104365780638bb9c5bf1461045657600080fd5b8063485cc9551461035c5780634f1ef2861461037c57806351955dfc1461038f57806352d1902d146103cd57600080fd5b80632f2ff15d116101b65780632f2ff15d146102bc5780633659cfe6146102dc5780633f30b00f146102fc5780634529cc1b1461031c57600080fd5b8063098b6419146101e8578063141a468c1461021b57806318ee89f0146102485780632b48dc721461026a575b600080fd5b3480156101f457600080fd5b50610208610203366004612f09565b610685565b6040519081526020015b60405180910390f35b34801561022757600080fd5b50610208610236366004612f59565b60696020526000908152604090205481565b34801561025457600080fd5b50610268610263366004612f72565b6107e6565b005b34801561027657600080fd5b506067546102979073ffffffffffffffffffffffffffffffffffffffff1681565b60405173ffffffffffffffffffffffffffffffffffffffff9091168152602001610212565b3480156102c857600080fd5b506102686102d7366004612fcf565b61089f565b3480156102e857600080fd5b506102686102f7366004612fff565b6108cd565b34801561030857600080fd5b5061026861031736600461301c565b610ad7565b34801561032857600080fd5b5061034c610337366004612f59565b60666020526000908152604090205460ff1681565b6040519015158152602001610212565b34801561036857600080fd5b506102686103773660046130c2565b610c3b565b61026861038a3660046130f0565b610f1b565b34801561039b57600080fd5b506102086103aa366004613154565b606860209081526000938452604080852082529284528284209052825290205481565b3480156103d957600080fd5b50610208611111565b3480156103ee57600080fd5b506102087fa49807205ce4d355092ef5a8a18f56e8913cf4a201fbe287825b095693c2177581565b34801561042257600080fd5b50610208610431366004613180565b6111fd565b34801561044257600080fd5b50610268610451366004612f59565b611367565b34801561046257600080fd5b50610268610471366004612f59565b611478565b34801561048257600080fd5b5061029761148c565b34801561049757600080fd5b506102686104a636600461301c565b6114b8565b3480156104b757600080fd5b5061034c6104c6366004612fcf565b611620565b3480156104d757600080fd5b506102086104e63660046131bd565b61166b565b3480156104f757600080fd5b50610268610506366004613205565b6116cc565b34801561051757600080fd5b50610208610526366004612f59565b611780565b34801561053757600080fd5b50610268610546366004613283565b611847565b34801561055757600080fd5b506102087f8f4f2da22e8ac8f11e15f9fc141cddbb5deea8800186560abb6e68c5496619a981565b34801561058b57600080fd5b5061020861059a3660046132ef565b6118f9565b3480156105ab57600080fd5b5061020860655481565b3480156105c157600080fd5b506102686105d0366004613154565b6119b7565b3480156105e157600080fd5b506102686105f0366004612fcf565b611b76565b34801561060157600080fd5b50610268610610366004613311565b611b99565b34801561062157600080fd5b50610268610630366004613362565b611eb9565b34801561064157600080fd5b50610268610650366004612fff565b611f60565b34801561066157600080fd5b5061034c610670366004612f59565b606a6020526000908152604090205460ff1681565b6067546040517fcad6b901000000000000000000000000000000000000000000000000000000008152600091829173ffffffffffffffffffffffffffffffffffffffff9091169063cad6b901906106e29086908890600401613427565b602060405180830381865afa1580156106ff573d6000803e3d6000fd5b505050506040513d601f19601f820116820180604052508101906107239190613449565b6067546040517fa9735f940000000000000000000000000000000000000000000000000000000081526004810183905291925060009173ffffffffffffffffffffffffffffffffffffffff9091169063a9735f9490602401602060405180830381865afa158015610798573d6000803e3d6000fd5b505050506040513d601f19601f820116820180604052508101906107bc9190613449565b60009687526068602090815260408089209489529381528388209188525250909320549392505050565b61081b7f8f4f2da22e8ac8f11e15f9fc141cddbb5deea8800186560abb6e68c5496619a9335b610814611f74565b9190611fa2565b600085815260686020908152604080832087845282528083208684529091528120805484929061084c908490613491565b909155505060408051858152602081018590529081018390528190869033907f9092bf6bd1cf7db4fcf41aedc7c0333b51c57f5b80b429bc3d9caa5587c6ad829060600160405180910390a45050505050565b336108b2816108ac612028565b90612056565b6108c88383836108c0611f74565b9291906120c1565b505050565b73ffffffffffffffffffffffffffffffffffffffff7f0000000000000000000000000000000000000000000000000000000000000000163003610997576040517f08c379a000000000000000000000000000000000000000000000000000000000815260206004820152602c60248201527f46756e6374696f6e206d7573742062652063616c6c6564207468726f7567682060448201527f64656c656761746563616c6c000000000000000000000000000000000000000060648201526084015b60405180910390fd5b7f000000000000000000000000000000000000000000000000000000000000000073ffffffffffffffffffffffffffffffffffffffff16610a0c7f360894a13ba1a3210667c828492db98dca3e2076cc3735a920a3ca505d382bbc5473ffffffffffffffffffffffffffffffffffffffff1690565b73ffffffffffffffffffffffffffffffffffffffff1614610aaf576040517f08c379a000000000000000000000000000000000000000000000000000000000815260206004820152602c60248201527f46756e6374696f6e206d7573742062652063616c6c6564207468726f7567682060448201527f6163746976652070726f78790000000000000000000000000000000000000000606482015260840161098e565b610ab881612198565b60408051600080825260208201909252610ad4918391906121c2565b50565b610b017fa49807205ce4d355092ef5a8a18f56e8913cf4a201fbe287825b095693c217753361080c565b60005b8151811015610c0057606a6000838381518110610b2357610b236134a4565b60209081029190910181015182528101919091526040016000205460ff1615610ba8576040517f08c379a000000000000000000000000000000000000000000000000000000000815260206004820152601a60248201527f526561736f6e20636f646520616c726561647920657869737473000000000000604482015260640161098e565b6001606a6000848481518110610bc057610bc06134a4565b6020026020010151815260200190815260200160002060006101000a81548160ff0219169083151502179055508080610bf8906134d3565b915050610b04565b507f0d8c56a8918ec09c2fe3c4d9fcc00ece66df217a1ab3ad768dd0a71620da5b4e81604051610c30919061350b565b60405180910390a150565b600054610100900460ff1615808015610c5b5750600054600160ff909116105b80610c755750303b158015610c75575060005460ff166001145b610d01576040517f08c379a000000000000000000000000000000000000000000000000000000000815260206004820152602e60248201527f496e697469616c697a61626c653a20636f6e747261637420697320616c72656160448201527f647920696e697469616c697a6564000000000000000000000000000000000000606482015260840161098e565b600080547fffffffffffffffffffffffffffffffffffffffffffffffffffffffffffffff001660011790558015610d5f57600080547fffffffffffffffffffffffffffffffffffffffffffffffffffffffffffff00ff166101001790555b610d676123c1565b73ffffffffffffffffffffffffffffffffffffffff8316610de4576040517f08c379a000000000000000000000000000000000000000000000000000000000815260206004820152601c60248201527f4e6f7420612076616c696420436f6e7472616374204164647265737300000000604482015260640161098e565b73ffffffffffffffffffffffffffffffffffffffff8216610e61576040517f08c379a000000000000000000000000000000000000000000000000000000000815260206004820152601960248201527f4e6f7420612076616c69642041646d696e204164647265737300000000000000604482015260640161098e565b610e7382610e6d612028565b9061245a565b606780547fffffffffffffffffffffffff00000000000000000000000000000000000000001673ffffffffffffffffffffffffffffffffffffffff851617905580156108c857600080547fffffffffffffffffffffffffffffffffffffffffffffffffffffffffffff00ff169055604051600181527f7f26b83ff96e1f2b6a682f133852f6798a09c465da95921460cefb3847402498906020015b60405180910390a1505050565b73ffffffffffffffffffffffffffffffffffffffff7f0000000000000000000000000000000000000000000000000000000000000000163003610fe0576040517f08c379a000000000000000000000000000000000000000000000000000000000815260206004820152602c60248201527f46756e6374696f6e206d7573742062652063616c6c6564207468726f7567682060448201527f64656c656761746563616c6c0000000000000000000000000000000000000000606482015260840161098e565b7f000000000000000000000000000000000000000000000000000000000000000073ffffffffffffffffffffffffffffffffffffffff166110557f360894a13ba1a3210667c828492db98dca3e2076cc3735a920a3ca505d382bbc5473ffffffffffffffffffffffffffffffffffffffff1690565b73ffffffffffffffffffffffffffffffffffffffff16146110f8576040517f08c379a000000000000000000000000000000000000000000000000000000000815260206004820152602c60248201527f46756e6374696f6e206d7573742062652063616c6c6564207468726f7567682060448201527f6163746976652070726f78790000000000000000000000000000000000000000606482015260840161098e565b61110182612198565b61110d828260016121c2565b5050565b60003073ffffffffffffffffffffffffffffffffffffffff7f000000000000000000000000000000000000000000000000000000000000000016146111d8576040517f08c379a000000000000000000000000000000000000000000000000000000000815260206004820152603860248201527f555550535570677261646561626c653a206d757374206e6f742062652063616c60448201527f6c6564207468726f7567682064656c656761746563616c6c0000000000000000606482015260840161098e565b507f360894a13ba1a3210667c828492db98dca3e2076cc3735a920a3ca505d382bbc90565b6067546040517fcad6b901000000000000000000000000000000000000000000000000000000008152600091829173ffffffffffffffffffffffffffffffffffffffff9091169063cad6b9019061125a9086908890600401613427565b602060405180830381865afa158015611277573d6000803e3d6000fd5b505050506040513d601f19601f8201168201806040525081019061129b9190613449565b6067546040517fa9735f940000000000000000000000000000000000000000000000000000000081526004810183905291925060009173ffffffffffffffffffffffffffffffffffffffff9091169063a9735f9490602401602060405180830381865afa158015611310573d6000803e3d6000fd5b505050506040513d601f19601f820116820180604052508101906113349190613449565b60655460009081526068602090815260408083209583529481528482209282529190915291909120549150505b92915050565b6113917fa49807205ce4d355092ef5a8a18f56e8913cf4a201fbe287825b095693c217753361080c565b60008181526066602052604090205460ff161561140a576040517f08c379a000000000000000000000000000000000000000000000000000000000815260206004820152601260248201527f536561736f6e20616c7265616479207365740000000000000000000000000000604482015260640161098e565b60658190556000818152606660205260409081902080547fffffffffffffffffffffffffffffffffffffffffffffffffffffffffffffff00166001179055517f61228c895f8ba06548597d3e34a23bc0ecb6d1e62a1eb3fa30be04883a17ef3190610c309083815260200190565b610ad43382611485611f74565b9190612499565b60006114b3611499612028565b5473ffffffffffffffffffffffffffffffffffffffff1690565b905090565b6114e27fa49807205ce4d355092ef5a8a18f56e8913cf4a201fbe287825b095693c217753361080c565b60005b81518110156115f057606a6000838381518110611504576115046134a4565b60209081029190910181015182528101919091526040016000205460ff16611588576040517f08c379a000000000000000000000000000000000000000000000000000000000815260206004820152601a60248201527f526561736f6e20636f646520646f6573206e6f74206578697374000000000000604482015260640161098e565b606a600083838151811061159e5761159e6134a4565b602090810291909101810151825281019190915260400160002080547fffffffffffffffffffffffffffffffffffffffffffffffffffffffffffffff00169055806115e8816134d3565b9150506114e5565b507f5b2c9fcbb27d48bdbfc59f0564b5ba81539309ebf09a940fad64d171bcfb9ff981604051610c30919061350b565b6000611664838361162f611f74565b60009283526020908152604080842073ffffffffffffffffffffffffffffffffffffffff909316845291905290205460ff1690565b9392505050565b60008481526069602090815260409182902054606554835180840189905280850188905260608101879052608081019190915260a0810185905260c0808201929092528351808203909201825260e00190925281519101205b949350505050565b6067546040517fcad6b90100000000000000000000000000000000000000000000000000000000815260009173ffffffffffffffffffffffffffffffffffffffff169063cad6b90190611725908a908c90600401613427565b602060405180830381865afa158015611742573d6000803e3d6000fd5b505050506040513d601f19601f820116820180604052508101906117669190613449565b9050611776818787878787611b99565b5050505050505050565b6067546040517fa9735f9400000000000000000000000000000000000000000000000000000000815260048101839052600091829173ffffffffffffffffffffffffffffffffffffffff9091169063a9735f9490602401602060405180830381865afa1580156117f4573d6000803e3d6000fd5b505050506040513d601f19601f820116820180604052508101906118189190613449565b606554600090815260686020908152604080832096835295815285822092825291909152929092205492915050565b6067546040517fcad6b90100000000000000000000000000000000000000000000000000000000815260009173ffffffffffffffffffffffffffffffffffffffff169063cad6b901906118a09088908a90600401613427565b602060405180830381865afa1580156118bd573d6000803e3d6000fd5b505050506040513d601f19601f820116820180604052508101906118e19190613449565b90506118f087828686866107e6565b50505050505050565b6067546040517fa9735f9400000000000000000000000000000000000000000000000000000000815260048101839052600091829173ffffffffffffffffffffffffffffffffffffffff9091169063a9735f9490602401602060405180830381865afa15801561196d573d6000803e3d6000fd5b505050506040513d601f19601f820116820180604052508101906119919190613449565b600094855260686020908152604080872095875294815284862091865252505090205490565b6067546040517f6352211e0000000000000000000000000000000000000000000000000000000081526004810185905260009173ffffffffffffffffffffffffffffffffffffffff1690636352211e90602401602060405180830381865afa158015611a27573d6000803e3d6000fd5b505050506040513d601f19601f82011682018060405250810190611a4b919061354f565b90503373ffffffffffffffffffffffffffffffffffffffff821614611acc576040517f08c379a000000000000000000000000000000000000000000000000000000000815260206004820152601760248201527f53656e646572206973206e6f7420746865206f776e6572000000000000000000604482015260640161098e565b6067546040517fa9735f940000000000000000000000000000000000000000000000000000000081526004810186905260009173ffffffffffffffffffffffffffffffffffffffff169063a9735f9490602401602060405180830381865afa158015611b3c573d6000803e3d6000fd5b505050506040513d601f19601f82011682018060405250810190611b609190613449565b9050611b6f8582868633612535565b5050505050565b33611b83816108ac612028565b6108c8838383611b91611f74565b9291906126ff565b6067546040517fa9735f940000000000000000000000000000000000000000000000000000000081526004810188905260009173ffffffffffffffffffffffffffffffffffffffff169063a9735f9490602401602060405180830381865afa158015611c09573d6000803e3d6000fd5b505050506040513d601f19601f82011682018060405250810190611c2d9190613449565b60008881526069602090815260408083205460655482518085018e9052808401879052606081018d9052608081019190915260a081018b905260c0808201929092528251808203909201825260e0019091528051910120919250906040517f19457468657265756d205369676e6564204d6573736167653a0a3332000000006020820152603c8101829052909150600090605c01604080517fffffffffffffffffffffffffffffffffffffffffffffffffffffffffffffffe08184030181528282528051602091820120600080855291840180845281905260ff8a169284019290925260608301889052608083018790529092509060019060a0016020604051602081039080840390855afa158015611d4a573d6000803e3d6000fd5b50506040517fffffffffffffffffffffffffffffffffffffffffffffffffffffffffffffffe08101516067547f6352211e000000000000000000000000000000000000000000000000000000008352600483018e90529093506000925073ffffffffffffffffffffffffffffffffffffffff1690636352211e90602401602060405180830381865afa158015611de4573d6000803e3d6000fd5b505050506040513d601f19601f82011682018060405250810190611e08919061354f565b90508073ffffffffffffffffffffffffffffffffffffffff168273ffffffffffffffffffffffffffffffffffffffff1614611e9f576040517f08c379a000000000000000000000000000000000000000000000000000000000815260206004820152601760248201527f5369676e6572206973206e6f7420746865206f776e6572000000000000000000604482015260640161098e565b611eac8b868c8c85612535565b5050505050505050505050565b6067546040517fcad6b90100000000000000000000000000000000000000000000000000000000815260009173ffffffffffffffffffffffffffffffffffffffff169063cad6b90190611f129087908990600401613427565b602060405180830381865afa158015611f2f573d6000803e3d6000fd5b505050506040513d601f19601f82011682018060405250810190611f539190613449565b9050611b6f8184846119b7565b610ad43382611f6d612028565b91906127c9565b60008061136160017fc8827d3282af6f37b64c3e9e6f3ac9df286ab0bb0fccd6f8661bf19adb368b2361356c565b60008281526020848152604080832073ffffffffffffffffffffffffffffffffffffffff8516845290915290205460ff166108c8576040517f7aa728820000000000000000000000000000000000000000000000000000000081526004810183905273ffffffffffffffffffffffffffffffffffffffff8216602482015260440161098e565b60008061136160017fc9ed16f33ab3a66c84bfd83099ccb2a8845871e2e1c1928f63797152f0fd54cd61356c565b815473ffffffffffffffffffffffffffffffffffffffff82811691161461110d576040517f2ef4875e00000000000000000000000000000000000000000000000000000000815273ffffffffffffffffffffffffffffffffffffffff8216600482015260240161098e565b60008381526020858152604080832073ffffffffffffffffffffffffffffffffffffffff8616845290915290205460ff166121925760008381526020858152604080832073ffffffffffffffffffffffffffffffffffffffff8681168086529184529382902080547fffffffffffffffffffffffffffffffffffffffffffffffffffffffffffffff00166001179055815187815292830152918316918101919091527f2f8788117e7eff1d82e926ec794901d17c78024a50270940304540a733656f0d906060015b60405180910390a15b50505050565b610ad47fa49807205ce4d355092ef5a8a18f56e8913cf4a201fbe287825b095693c217753361080c565b7f4910fdfa16fed3260ed0e7147f7cc6da11a60208b5b9406d12a635614ffd91435460ff16156121f5576108c8836128dd565b8273ffffffffffffffffffffffffffffffffffffffff166352d1902d6040518163ffffffff1660e01b8152600401602060405180830381865afa92505050801561227a575060408051601f3d9081017fffffffffffffffffffffffffffffffffffffffffffffffffffffffffffffffe016820190925261227791810190613449565b60015b612306576040517f08c379a000000000000000000000000000000000000000000000000000000000815260206004820152602e60248201527f45524331393637557067726164653a206e657720696d706c656d656e7461746960448201527f6f6e206973206e6f742055555053000000000000000000000000000000000000606482015260840161098e565b7f360894a13ba1a3210667c828492db98dca3e2076cc3735a920a3ca505d382bbc81146123b5576040517f08c379a000000000000000000000000000000000000000000000000000000000815260206004820152602960248201527f45524331393637557067726164653a20756e737570706f727465642070726f7860448201527f6961626c65555549440000000000000000000000000000000000000000000000606482015260840161098e565b506108c88383836129e7565b600054610100900460ff16612458576040517f08c379a000000000000000000000000000000000000000000000000000000000815260206004820152602b60248201527f496e697469616c697a61626c653a20636f6e7472616374206973206e6f74206960448201527f6e697469616c697a696e67000000000000000000000000000000000000000000606482015260840161098e565b565b61248f61248860017f5b388d90dc1312ba799f321972f13311234fa1163bcabec7cf66101c4876eb8461356c565b6001612a0c565b61110d8282612a58565b6124a4838284611fa2565b60008181526020848152604080832073ffffffffffffffffffffffffffffffffffffffff86168085529083529281902080547fffffffffffffffffffffffffffffffffffffffffffffffffffffffffffffff0016905580518481529182018390528101919091527ff6391f5c32d9c69d2a47ea670b442974b53935d1edc7fd64eb21e047a839171b90606001610f0e565b606554600090815260686020908152604080832088845282528083208784529091529020548311156125c3576040517f08c379a000000000000000000000000000000000000000000000000000000000815260206004820152601460248201527f496e73756666696369656e742062616c616e6365000000000000000000000000604482015260640161098e565b6000828152606a602052604090205460ff1661263b576040517f08c379a000000000000000000000000000000000000000000000000000000000815260206004820152601b60248201527f496e76616c696420636f6e73756d6520726561736f6e20636f64650000000000604482015260640161098e565b606554600090815260686020908152604080832088845282528083208784529091528120805485929061266f90849061356c565b9091555050606554604080513381526020810187905290810185905273ffffffffffffffffffffffffffffffffffffffff8316606082015283919087907fe514533875fbd3f8f396088d636e746599d8b5c3ba77e9ccfa9fc01ff70646019060800160405180910390a460008581526069602052604081208054916126f3836134d3565b91905055505050505050565b60008381526020858152604080832073ffffffffffffffffffffffffffffffffffffffff8616845290915290205460ff16156121925760008381526020858152604080832073ffffffffffffffffffffffffffffffffffffffff8681168086529184529382902080547fffffffffffffffffffffffffffffffffffffffffffffffffffffffffffffff00169055815187815292830152918316918101919091527ff6391f5c32d9c69d2a47ea670b442974b53935d1edc7fd64eb21e047a839171b90606001612189565b825473ffffffffffffffffffffffffffffffffffffffff9081169083168114612836576040517f2ef4875e00000000000000000000000000000000000000000000000000000000815273ffffffffffffffffffffffffffffffffffffffff8416600482015260240161098e565b8173ffffffffffffffffffffffffffffffffffffffff168173ffffffffffffffffffffffffffffffffffffffff16146121925783547fffffffffffffffffffffffff00000000000000000000000000000000000000001673ffffffffffffffffffffffffffffffffffffffff8381169182178655604051908316907f8be0079c531659141344cd1fd0a4f28419497f9722a3daafe3b4186f6b6457e090600090a350505050565b73ffffffffffffffffffffffffffffffffffffffff81163b612981576040517f08c379a000000000000000000000000000000000000000000000000000000000815260206004820152602d60248201527f455243313936373a206e657720696d706c656d656e746174696f6e206973206e60448201527f6f74206120636f6e747261637400000000000000000000000000000000000000606482015260840161098e565b7f360894a13ba1a3210667c828492db98dca3e2076cc3735a920a3ca505d382bbc80547fffffffffffffffffffffffff00000000000000000000000000000000000000001673ffffffffffffffffffffffffffffffffffffffff92909216919091179055565b6129f083612b15565b6000825111806129fd5750805b156108c8576121928383612b62565b81548290828110612a53576040517fbf0c18ec000000000000000000000000000000000000000000000000000000008152600481018290526024810184905260440161098e565b505550565b73ffffffffffffffffffffffffffffffffffffffff811615612ae05781547fffffffffffffffffffffffff00000000000000000000000000000000000000001673ffffffffffffffffffffffffffffffffffffffff821690811783556040516000907f8be0079c531659141344cd1fd0a4f28419497f9722a3daafe3b4186f6b6457e0908290a35b61110d7f7f5828d0000000000000000000000000000000000000000000000000000000006001612b0e612b87565b9190612bb5565b612b1e816128dd565b60405173ffffffffffffffffffffffffffffffffffffffff8216907fbc7cd75a20ee27fd9adebab32041f755214dbc6bffa90cc0225b39da2e5c2d3b90600090a250565b606061166483836040518060600160405280602781526020016135af60279139612c91565b60008061136160017fca9d3e17f264b0f3984e2634e94adb37fa3e6a8103f06aeae6fa59e21c769f5e61356c565b7c01000000000000000000000000000000000000000000000000000000007fffffffff00000000000000000000000000000000000000000000000000000000831601612c2d576040517f72c683bb00000000000000000000000000000000000000000000000000000000815260040160405180910390fd5b7fffffffff00000000000000000000000000000000000000000000000000000000919091166000908152602092909252604090912080547fffffffffffffffffffffffffffffffffffffffffffffffffffffffffffffff0016911515919091179055565b60606000808573ffffffffffffffffffffffffffffffffffffffff1685604051612cbb919061357f565b600060405180830381855af49150503d8060008114612cf6576040519150601f19603f3d011682016040523d82523d6000602084013e612cfb565b606091505b5091509150612d0c86838387612d16565b9695505050505050565b60608315612dac578251600003612da55773ffffffffffffffffffffffffffffffffffffffff85163b612da5576040517f08c379a000000000000000000000000000000000000000000000000000000000815260206004820152601d60248201527f416464726573733a2063616c6c20746f206e6f6e2d636f6e7472616374000000604482015260640161098e565b50816116c4565b6116c48383815115612dc15781518083602001fd5b806040517f08c379a000000000000000000000000000000000000000000000000000000000815260040161098e919061359b565b7f4e487b7100000000000000000000000000000000000000000000000000000000600052604160045260246000fd5b604051601f82017fffffffffffffffffffffffffffffffffffffffffffffffffffffffffffffffe016810167ffffffffffffffff81118282101715612e6b57612e6b612df5565b604052919050565b600067ffffffffffffffff831115612e8d57612e8d612df5565b612ebe60207fffffffffffffffffffffffffffffffffffffffffffffffffffffffffffffffe0601f86011601612e24565b9050828152838383011115612ed257600080fd5b828260208301376000602084830101529392505050565b600082601f830112612efa57600080fd5b61166483833560208501612e73565b600080600060608486031215612f1e57600080fd5b8335925060208401359150604084013567ffffffffffffffff811115612f4357600080fd5b612f4f86828701612ee9565b9150509250925092565b600060208284031215612f6b57600080fd5b5035919050565b600080600080600060a08688031215612f8a57600080fd5b505083359560208501359550604085013594606081013594506080013592509050565b73ffffffffffffffffffffffffffffffffffffffff81168114610ad457600080fd5b60008060408385031215612fe257600080fd5b823591506020830135612ff481612fad565b809150509250929050565b60006020828403121561301157600080fd5b813561166481612fad565b6000602080838503121561302f57600080fd5b823567ffffffffffffffff8082111561304757600080fd5b818501915085601f83011261305b57600080fd5b81358181111561306d5761306d612df5565b8060051b915061307e848301612e24565b818152918301840191848101908884111561309857600080fd5b938501935b838510156130b65784358252938501939085019061309d565b98975050505050505050565b600080604083850312156130d557600080fd5b82356130e081612fad565b91506020830135612ff481612fad565b6000806040838503121561310357600080fd5b823561310e81612fad565b9150602083013567ffffffffffffffff81111561312a57600080fd5b8301601f8101851361313b57600080fd5b61314a85823560208401612e73565b9150509250929050565b60008060006060848603121561316957600080fd5b505081359360208301359350604090920135919050565b6000806040838503121561319357600080fd5b82359150602083013567ffffffffffffffff8111156131b157600080fd5b61314a85828601612ee9565b600080600080608085870312156131d357600080fd5b5050823594602084013594506040840135936060013592509050565b803560ff8116811461320057600080fd5b919050565b600080600080600080600060e0888a03121561322057600080fd5b87359650602088013567ffffffffffffffff81111561323e57600080fd5b61324a8a828b01612ee9565b9650506040880135945060608801359350613267608089016131ef565b925060a0880135915060c0880135905092959891949750929550565b60008060008060008060c0878903121561329c57600080fd5b8635955060208701359450604087013567ffffffffffffffff8111156132c157600080fd5b6132cd89828a01612ee9565b945050606087013592506080870135915060a087013590509295509295509295565b6000806040838503121561330257600080fd5b50508035926020909101359150565b60008060008060008060c0878903121561332a57600080fd5b863595506020870135945060408701359350613348606088016131ef565b92506080870135915060a087013590509295509295509295565b6000806000806080858703121561337857600080fd5b84359350602085013567ffffffffffffffff81111561339657600080fd5b6133a287828801612ee9565b949794965050505060408301359260600135919050565b60005b838110156133d45781810151838201526020016133bc565b50506000910152565b600081518084526133f58160208601602086016133b9565b601f017fffffffffffffffffffffffffffffffffffffffffffffffffffffffffffffffe0169290920160200192915050565b60408152600061343a60408301856133dd565b90508260208301529392505050565b60006020828403121561345b57600080fd5b5051919050565b7f4e487b7100000000000000000000000000000000000000000000000000000000600052601160045260246000fd5b8082018082111561136157611361613462565b7f4e487b7100000000000000000000000000000000000000000000000000000000600052603260045260246000fd5b60007fffffffffffffffffffffffffffffffffffffffffffffffffffffffffffffffff820361350457613504613462565b5060010190565b6020808252825182820181905260009190848201906040850190845b8181101561354357835183529284019291840191600101613527565b50909695505050505050565b60006020828403121561356157600080fd5b815161166481612fad565b8181038181111561136157611361613462565b600082516135918184602087016133b9565b9190910192915050565b60208152600061166460208301846133dd56fe416464726573733a206c6f772d6c6576656c2064656c65676174652063616c6c206661696c6564a2646970667358221220dbf65dbac387bf2012b51f583f4746d0f7ba770b2f4c2dc6f7e63f18f5adc6b264736f6c63430008150033",
  "linkReferences": {},
  "deployedLinkReferences": {}
}