{
  "_format": "hh-sol-artifact-1",
  "contractName": "SeasonalCumulativeMerkleClaim",
  "sourceName": "contracts/SeasonalCumulativeMerkleClaim/SeasonalCmulativeMerkleClaim.sol",
  "abi": [
    {
      "inputs": [
        {
          "internalType": "address",
          "name": "mocaPointsContractAddress",
          "type": "address"
        }
      ],
      "stateMutability": "nonpayable",
      "type": "constructor"
    },
    {
      "inputs": [
        {
          "internalType": "bytes32",
          "name": "season",
          "type": "bytes32"
        },
        {
          "internalType": "uint256",
          "name": "realmId",
          "type": "uint256"
        },
        {
          "internalType": "uint256",
          "name": "realmIdVersion",
          "type": "uint256"
        },
        {
          "internalType": "uint256",
          "name": "amount",
          "type": "uint256"
        },
        {
          "internalType": "bytes32",
          "name": "depositReasonCode",
          "type": "bytes32"
        },
        {
          "internalType": "uint256",
          "name": "nonce",
          "type": "uint256"
        }
      ],
      "name": "AlreadyClaimed",
      "type": "error"
    },
    {
      "inputs": [],
      "name": "IllegalInterfaceId",
      "type": "error"
    },
    {
      "inputs": [
        {
          "internalType": "uint256",
          "name": "amount",
          "type": "uint256"
        }
      ],
      "name": "InvalidClaimAmount",
      "type": "error"
    },
    {
      "inputs": [
        {
          "internalType": "bytes32",
          "name": "season",
          "type": "bytes32"
        },
        {
          "internalType": "uint256",
          "name": "realmId",
          "type": "uint256"
        },
        {
          "internalType": "uint256",
          "name": "realmIdVersion",
          "type": "uint256"
        },
        {
          "internalType": "uint256",
          "name": "amount",
          "type": "uint256"
        },
        {
          "internalType": "bytes32",
          "name": "depositReasonCode",
          "type": "bytes32"
        },
        {
          "internalType": "uint256",
          "name": "nonce",
          "type": "uint256"
        }
      ],
      "name": "InvalidProof",
      "type": "error"
    },
    {
      "inputs": [
        {
          "internalType": "bytes32",
          "name": "season",
          "type": "bytes32"
        }
      ],
      "name": "InvalidSeason",
      "type": "error"
    },
    {
      "inputs": [
        {
          "internalType": "bytes32",
          "name": "season",
          "type": "bytes32"
        }
      ],
      "name": "MerkleRootNotExists",
      "type": "error"
    },
    {
      "inputs": [
        {
          "internalType": "address",
          "name": "account",
          "type": "address"
        }
      ],
      "name": "NotContractOwner",
      "type": "error"
    },
    {
      "inputs": [
        {
          "internalType": "bytes32",
          "name": "season",
          "type": "bytes32"
        }
      ],
      "name": "SeasonIsPaused",
      "type": "error"
    },
    {
      "inputs": [
        {
          "internalType": "bytes32",
          "name": "season",
          "type": "bytes32"
        }
      ],
      "name": "SeasonNotPaused",
      "type": "error"
    },
    {
      "anonymous": false,
      "inputs": [
        {
          "indexed": false,
          "internalType": "bytes32",
          "name": "season",
          "type": "bytes32"
        },
        {
          "indexed": false,
          "internalType": "bytes32",
          "name": "root",
          "type": "bytes32"
        }
      ],
      "name": "MerkleRootSet",
      "type": "event"
    },
    {
      "anonymous": false,
      "inputs": [
        {
          "indexed": true,
          "internalType": "address",
          "name": "previousOwner",
          "type": "address"
        },
        {
          "indexed": true,
          "internalType": "address",
          "name": "newOwner",
          "type": "address"
        }
      ],
      "name": "OwnershipTransferred",
      "type": "event"
    },
    {
      "anonymous": false,
      "inputs": [
        {
          "indexed": false,
          "internalType": "bytes32",
          "name": "season",
          "type": "bytes32"
        }
      ],
      "name": "Paused",
      "type": "event"
    },
    {
      "anonymous": false,
      "inputs": [
        {
          "indexed": true,
          "internalType": "bytes32",
          "name": "season",
          "type": "bytes32"
        },
        {
          "indexed": true,
          "internalType": "bytes32",
          "name": "root",
          "type": "bytes32"
        },
        {
          "indexed": true,
          "internalType": "uint256",
          "name": "realmId",
          "type": "uint256"
        },
        {
          "indexed": false,
          "internalType": "uint256",
          "name": "realmIdVersion",
          "type": "uint256"
        },
        {
          "indexed": false,
          "internalType": "uint256",
          "name": "amount",
          "type": "uint256"
        },
        {
          "indexed": false,
          "internalType": "bytes32",
          "name": "depositReasonCode",
          "type": "bytes32"
        },
        {
          "indexed": false,
          "internalType": "uint256",
          "name": "nonce",
          "type": "uint256"
        }
      ],
      "name": "PayoutClaimed",
      "type": "event"
    },
    {
      "anonymous": false,
      "inputs": [
        {
          "indexed": false,
          "internalType": "bytes32",
          "name": "season",
          "type": "bytes32"
        }
      ],
      "name": "Unpaused",
      "type": "event"
    },
    {
      "inputs": [],
      "name": "MOCA_POINTS_CONTRACT",
      "outputs": [
        {
          "internalType": "contract IMocaPoints",
          "name": "",
          "type": "address"
        }
      ],
      "stateMutability": "view",
      "type": "function"
    },
    {
      "inputs": [
        {
          "internalType": "bytes32",
          "name": "season",
          "type": "bytes32"
        },
        {
          "internalType": "uint256",
          "name": "realmId",
          "type": "uint256"
        },
        {
          "internalType": "uint256",
          "name": "realmIdVersion",
          "type": "uint256"
        },
        {
          "internalType": "uint256",
          "name": "amount",
          "type": "uint256"
        },
        {
          "internalType": "bytes32",
          "name": "depositReasonCode",
          "type": "bytes32"
        },
        {
          "internalType": "bytes32[]",
          "name": "proof",
          "type": "bytes32[]"
        }
      ],
      "name": "claimPayout",
      "outputs": [],
      "stateMutability": "nonpayable",
      "type": "function"
    },
    {
      "inputs": [
        {
          "internalType": "bytes32",
          "name": "",
          "type": "bytes32"
        }
      ],
      "name": "claimed",
      "outputs": [
        {
          "internalType": "bool",
          "name": "",
          "type": "bool"
        }
      ],
      "stateMutability": "view",
      "type": "function"
    },
    {
      "inputs": [
        {
          "internalType": "bytes32",
          "name": "",
          "type": "bytes32"
        }
      ],
      "name": "nonces",
      "outputs": [
        {
          "internalType": "uint256",
          "name": "",
          "type": "uint256"
        }
      ],
      "stateMutability": "view",
      "type": "function"
    },
    {
      "inputs": [],
      "name": "owner",
      "outputs": [
        {
          "internalType": "address",
          "name": "",
          "type": "address"
        }
      ],
      "stateMutability": "view",
      "type": "function"
    },
    {
      "inputs": [
        {
          "internalType": "bytes32",
          "name": "",
          "type": "bytes32"
        }
      ],
      "name": "paused",
      "outputs": [
        {
          "internalType": "bool",
          "name": "",
          "type": "bool"
        }
      ],
      "stateMutability": "view",
      "type": "function"
    },
    {
      "inputs": [
        {
          "internalType": "bytes32",
          "name": "",
          "type": "bytes32"
        }
      ],
      "name": "roots",
      "outputs": [
        {
          "internalType": "bytes32",
          "name": "",
          "type": "bytes32"
        }
      ],
      "stateMutability": "view",
      "type": "function"
    },
    {
      "inputs": [
        {
          "internalType": "bytes32",
          "name": "season",
          "type": "bytes32"
        },
        {
          "internalType": "bytes32",
          "name": "merkleRoot",
          "type": "bytes32"
        }
      ],
      "name": "setMerkleRoot",
      "outputs": [],
      "stateMutability": "nonpayable",
      "type": "function"
    },
    {
      "inputs": [
        {
          "internalType": "bytes4",
          "name": "interfaceId",
          "type": "bytes4"
        }
      ],
      "name": "supportsInterface",
      "outputs": [
        {
          "internalType": "bool",
          "name": "",
          "type": "bool"
        }
      ],
      "stateMutability": "view",
      "type": "function"
    },
    {
      "inputs": [
        {
          "internalType": "address",
          "name": "newOwner",
          "type": "address"
        }
      ],
      "name": "transferOwnership",
      "outputs": [],
      "stateMutability": "nonpayable",
      "type": "function"
    }
  ],
  "bytecode": "0x60a06040523480156200001157600080fd5b5060405162000fa038038062000fa083398101604081905262000034916200019c565b336200004b81620000446200005e565b9062000094565b506001600160a01b0316608052620001f0565b6000806200008e60017fc9ed16f33ab3a66c84bfd83099ccb2a8845871e2e1c1928f63797152f0fd54cd620001ce565b92915050565b6001600160a01b03811615620000eb5781546001600160a01b0319166001600160a01b03821690811783556040516000907f8be0079c531659141344cd1fd0a4f28419497f9722a3daafe3b4186f6b6457e0908290a35b6200010b6307f5828d60e41b6001620001036200010f565b91906200013f565b5050565b6000806200008e60017fca9d3e17f264b0f3984e2634e94adb37fa3e6a8103f06aeae6fa59e21c769f5e620001ce565b600160e01b6001600160e01b03198316016200016e576040516372c683bb60e01b815260040160405180910390fd5b6001600160e01b03199190911660009081526020929092526040909120805460ff1916911515919091179055565b600060208284031215620001af57600080fd5b81516001600160a01b0381168114620001c757600080fd5b9392505050565b818103818111156200008e57634e487b7160e01b600052601160045260246000fd5b608051610d87620002196000396000818160f0015281816102d401526107100152610d876000f3fe608060405234801561001057600080fd5b50600436106100be5760003560e01c80639e317f1211610076578063ae6dead71161005b578063ae6dead7146101b8578063cc3c0f06146101d8578063f2fde38b146101fb57600080fd5b80639e317f12146101675780639e9e46661461019557600080fd5b806375edcbe0116100a757806375edcbe0146101375780638da5cb5b1461014c5780639931012e1461015457600080fd5b806301ffc9a7146100c35780632727aae8146100eb575b600080fd5b6100d66100d1366004610b2d565b61020e565b60405190151581526020015b60405180910390f35b6101127f000000000000000000000000000000000000000000000000000000000000000081565b60405173ffffffffffffffffffffffffffffffffffffffff90911681526020016100e2565b61014a610145366004610b6f565b610228565b005b610112610451565b61014a610162366004610b91565b61047d565b610187610175366004610c37565b60026020526000908152604090205481565b6040519081526020016100e2565b6100d66101a3366004610c37565b60006020819052908152604090205460ff1681565b6101876101c6366004610c37565b60016020526000908152604090205481565b6100d66101e6366004610c37565b60036020526000908152604090205460ff1681565b61014a610209366004610c50565b6107c6565b60006102228261021c6107dd565b9061080b565b92915050565b61023a336102346108e5565b90610913565b60008281526001602052604090205415801590610266575060008281526020819052604090205460ff16155b156102a5576040517fd7590240000000000000000000000000000000000000000000000000000000008152600481018390526024015b60405180910390fd5b6040517f4529cc1b000000000000000000000000000000000000000000000000000000008152600481018390527f000000000000000000000000000000000000000000000000000000000000000073ffffffffffffffffffffffffffffffffffffffff1690634529cc1b90602401602060405180830381865afa158015610330573d6000803e3d6000fd5b505050506040513d601f19601f820116820180604052508101906103549190610c86565b61038d576040517f0b22ca350000000000000000000000000000000000000000000000000000000081526004810183905260240161029c565b60008281526001602081815260408084208590556002825292839020805490920190915581518481529081018390527f4983a335d43faab715b8e7c23f104092b464c1b553f3f4aa3fc33c473b45dd49910160405180910390a16000828152602081815260409182902080547fffffffffffffffffffffffffffffffffffffffffffffffffffffffffffffff0016905590518381527fd05bfc2250abb0f8fd265a54c53a24359c5484af63cad2e4ce87c78ab751395a910160405180910390a15050565b600061047861045e6108e5565b5473ffffffffffffffffffffffffffffffffffffffff1690565b905090565b836000036104ba576040517f27ab1ee20000000000000000000000000000000000000000000000000000000081526004810185905260240161029c565b60008781526020819052604090205460ff1615610506576040517f4501e9a20000000000000000000000000000000000000000000000000000000081526004810188905260240161029c565b60008781526001602052604081205490819003610552576040517f1d3bbc3f0000000000000000000000000000000000000000000000000000000081526004810189905260240161029c565b60008881526002602090815260408083205481518084018d90528083018c9052606081018b9052608081018a905260a0810189905260c08082018390528351808303909101815260e09091018352805190840120808552600390935292205460ff1615610611576040517f57793e5c000000000000000000000000000000000000000000000000000000008152600481018b9052602481018a905260448101899052606481018890526084810187905260a4810183905260c40161029c565b61061d85858584610982565b610679576040517f50d53cc8000000000000000000000000000000000000000000000000000000008152600481018b9052602481018a905260448101899052606481018890526084810187905260a4810183905260c40161029c565b6000818152600360205260409081902080547fffffffffffffffffffffffffffffffffffffffffffffffffffffffffffffff00166001179055517f18ee89f0000000000000000000000000000000000000000000000000000000008152600481018b9052602481018a905260448101899052606481018890526084810187905273ffffffffffffffffffffffffffffffffffffffff7f000000000000000000000000000000000000000000000000000000000000000016906318ee89f09060a401600060405180830381600087803b15801561075457600080fd5b505af1158015610768573d6000803e3d6000fd5b5050604080518b8152602081018b9052908101899052606081018590528b92508591508c907f6e125d7bd8f9609ca71a5f3e816580b0eb4a45663664eb21343914c5db5aeae99060800160405180910390a450505050505050505050565b6107da33826107d36108e5565b919061099a565b50565b60008061022260017fca9d3e17f264b0f3984e2634e94adb37fa3e6a8103f06aeae6fa59e21c769f5e610cd7565b60007c01000000000000000000000000000000000000000000000000000000007fffffffff0000000000000000000000000000000000000000000000000000000083160161085b57506000610222565b7ffe003659000000000000000000000000000000000000000000000000000000007fffffffff000000000000000000000000000000000000000000000000000000008316016108ac57506001610222565b507fffffffff00000000000000000000000000000000000000000000000000000000166000908152602091909152604090205460ff1690565b60008061022260017fc9ed16f33ab3a66c84bfd83099ccb2a8845871e2e1c1928f63797152f0fd54cd610cd7565b815473ffffffffffffffffffffffffffffffffffffffff82811691161461097e576040517f2ef4875e00000000000000000000000000000000000000000000000000000000815273ffffffffffffffffffffffffffffffffffffffff8216600482015260240161029c565b5050565b600082610990868685610aaf565b1495945050505050565b825473ffffffffffffffffffffffffffffffffffffffff9081169083168114610a07576040517f2ef4875e00000000000000000000000000000000000000000000000000000000815273ffffffffffffffffffffffffffffffffffffffff8416600482015260240161029c565b8173ffffffffffffffffffffffffffffffffffffffff168173ffffffffffffffffffffffffffffffffffffffff1614610aa95783547fffffffffffffffffffffffff00000000000000000000000000000000000000001673ffffffffffffffffffffffffffffffffffffffff8381169182178655604051908316907f8be0079c531659141344cd1fd0a4f28419497f9722a3daafe3b4186f6b6457e090600090a35b50505050565b600081815b84811015610af257610ade82878784818110610ad257610ad2610cea565b90506020020135610afb565b915080610aea81610d19565b915050610ab4565b50949350505050565b6000818310610b17576000828152602084905260409020610b26565b60008381526020839052604090205b9392505050565b600060208284031215610b3f57600080fd5b81357fffffffff0000000000000000000000000000000000000000000000000000000081168114610b2657600080fd5b60008060408385031215610b8257600080fd5b50508035926020909101359150565b600080600080600080600060c0888a031215610bac57600080fd5b873596506020880135955060408801359450606088013593506080880135925060a088013567ffffffffffffffff80821115610be757600080fd5b818a0191508a601f830112610bfb57600080fd5b813581811115610c0a57600080fd5b8b60208260051b8501011115610c1f57600080fd5b60208301945080935050505092959891949750929550565b600060208284031215610c4957600080fd5b5035919050565b600060208284031215610c6257600080fd5b813573ffffffffffffffffffffffffffffffffffffffff81168114610b2657600080fd5b600060208284031215610c9857600080fd5b81518015158114610b2657600080fd5b7f4e487b7100000000000000000000000000000000000000000000000000000000600052601160045260246000fd5b8181038181111561022257610222610ca8565b7f4e487b7100000000000000000000000000000000000000000000000000000000600052603260045260246000fd5b60007fffffffffffffffffffffffffffffffffffffffffffffffffffffffffffffffff8203610d4a57610d4a610ca8565b506001019056fea26469706673582212207adef4ed1f976e0a52d7c91992fcb0614fe80c628ae084c40470ade2ad6200b064736f6c63430008150033",
  "linkReferences": {},
  "deployedLinkReferences": {}
}