{
  "_format": "hh-sol-artifact-1",
  "contractName": "MockERC1271",
  "sourceName": "contracts/mocks/MockERC1271.sol",
  "abi": [
    {
      "inputs": [
        {
          "internalType": "address",
          "name": "owner",
          "type": "address"
        }
      ],
      "stateMutability": "nonpayable",
      "type": "constructor"
    },
    {
      "inputs": [],
      "name": "IllegalInterfaceId",
      "type": "error"
    },
    {
      "inputs": [
        {
          "internalType": "address",
          "name": "account",
          "type": "address"
        }
      ],
      "name": "NotContractOwner",
      "type": "error"
    },
    {
      "anonymous": false,
      "inputs": [
        {
          "indexed": true,
          "internalType": "address",
          "name": "previousOwner",
          "type": "address"
        },
        {
          "indexed": true,
          "internalType": "address",
          "name": "newOwner",
          "type": "address"
        }
      ],
      "name": "OwnershipTransferred",
      "type": "event"
    },
    {
      "inputs": [
        {
          "internalType": "bytes32",
          "name": "hash",
          "type": "bytes32"
        },
        {
          "internalType": "bytes",
          "name": "signature",
          "type": "bytes"
        }
      ],
      "name": "isValidSignature",
      "outputs": [
        {
          "internalType": "bytes4",
          "name": "",
          "type": "bytes4"
        }
      ],
      "stateMutability": "view",
      "type": "function"
    },
    {
      "inputs": [],
      "name": "owner",
      "outputs": [
        {
          "internalType": "address",
          "name": "",
          "type": "address"
        }
      ],
      "stateMutability": "view",
      "type": "function"
    },
    {
      "inputs": [
        {
          "internalType": "bytes4",
          "name": "interfaceId",
          "type": "bytes4"
        }
      ],
      "name": "supportsInterface",
      "outputs": [
        {
          "internalType": "bool",
          "name": "",
          "type": "bool"
        }
      ],
      "stateMutability": "view",
      "type": "function"
    },
    {
      "inputs": [
        {
          "internalType": "address",
          "name": "newOwner",
          "type": "address"
        }
      ],
      "name": "transferOwnership",
      "outputs": [],
      "stateMutability": "nonpayable",
      "type": "function"
    }
  ],
  "bytecode": "0x608060405234801561001057600080fd5b50604051610af3380380610af383398101604081905261002f9161017d565b806100428161003c610049565b9061007d565b50506101ce565b60008061007760017fc9ed16f33ab3a66c84bfd83099ccb2a8845871e2e1c1928f63797152f0fd54cd6101ad565b92915050565b6001600160a01b038116156100d35781546001600160a01b0319166001600160a01b03821690811783556040516000907f8be0079c531659141344cd1fd0a4f28419497f9722a3daafe3b4186f6b6457e0908290a35b6100ef6307f5828d60e41b60016100e86100f3565b9190610121565b5050565b60008061007760017fca9d3e17f264b0f3984e2634e94adb37fa3e6a8103f06aeae6fa59e21c769f5e6101ad565b600160e01b6001600160e01b031983160161014f576040516372c683bb60e01b815260040160405180910390fd5b6001600160e01b03199190911660009081526020929092526040909120805460ff1916911515919091179055565b60006020828403121561018f57600080fd5b81516001600160a01b03811681146101a657600080fd5b9392505050565b8181038181111561007757634e487b7160e01b600052601160045260246000fd5b610916806101dd6000396000f3fe608060405234801561001057600080fd5b506004361061004c5760003560e01c806301ffc9a7146100515780631626ba7e146100795780638da5cb5b146100bd578063f2fde38b146100ea575b600080fd5b61006461005f366004610783565b6100ff565b60405190151581526020015b60405180910390f35b61008c6100873660046107c5565b610119565b6040517fffffffff000000000000000000000000000000000000000000000000000000009091168152602001610070565b6100c56101e5565b60405173ffffffffffffffffffffffffffffffffffffffff9091168152602001610070565b6100fd6100f8366004610841565b610211565b005b60006101138261010d610228565b90610256565b92915050565b60006101236101e5565b73ffffffffffffffffffffffffffffffffffffffff166101798585858080601f01602080910402602001604051908101604052809392919081815260200183838082843760009201919091525061033092505050565b73ffffffffffffffffffffffffffffffffffffffff16036101bb57507f1626ba7e000000000000000000000000000000000000000000000000000000006101de565b507fffffffff000000000000000000000000000000000000000000000000000000005b9392505050565b600061020c6101f2610354565b5473ffffffffffffffffffffffffffffffffffffffff1690565b905090565b610225338261021e610354565b9190610382565b50565b60008061011360017fca9d3e17f264b0f3984e2634e94adb37fa3e6a8103f06aeae6fa59e21c769f5e610877565b60007c01000000000000000000000000000000000000000000000000000000007fffffffff000000000000000000000000000000000000000000000000000000008316016102a657506000610113565b7ffe003659000000000000000000000000000000000000000000000000000000007fffffffff000000000000000000000000000000000000000000000000000000008316016102f757506001610113565b507fffffffff00000000000000000000000000000000000000000000000000000000166000908152602091909152604090205460ff1690565b600080600061033f858561049c565b9150915061034c816104e1565b509392505050565b60008061011360017fc9ed16f33ab3a66c84bfd83099ccb2a8845871e2e1c1928f63797152f0fd54cd610877565b825473ffffffffffffffffffffffffffffffffffffffff90811690831681146103f4576040517f2ef4875e00000000000000000000000000000000000000000000000000000000815273ffffffffffffffffffffffffffffffffffffffff841660048201526024015b60405180910390fd5b8173ffffffffffffffffffffffffffffffffffffffff168173ffffffffffffffffffffffffffffffffffffffff16146104965783547fffffffffffffffffffffffff00000000000000000000000000000000000000001673ffffffffffffffffffffffffffffffffffffffff8381169182178655604051908316907f8be0079c531659141344cd1fd0a4f28419497f9722a3daafe3b4186f6b6457e090600090a35b50505050565b60008082516041036104d25760208301516040840151606085015160001a6104c687828585610694565b945094505050506104da565b506000905060025b9250929050565b60008160048111156104f5576104f56108b1565b036104fd5750565b6001816004811115610511576105116108b1565b03610578576040517f08c379a000000000000000000000000000000000000000000000000000000000815260206004820152601860248201527f45434453413a20696e76616c6964207369676e6174757265000000000000000060448201526064016103eb565b600281600481111561058c5761058c6108b1565b036105f3576040517f08c379a000000000000000000000000000000000000000000000000000000000815260206004820152601f60248201527f45434453413a20696e76616c6964207369676e6174757265206c656e6774680060448201526064016103eb565b6003816004811115610607576106076108b1565b03610225576040517f08c379a000000000000000000000000000000000000000000000000000000000815260206004820152602260248201527f45434453413a20696e76616c6964207369676e6174757265202773272076616c60448201527f756500000000000000000000000000000000000000000000000000000000000060648201526084016103eb565b6000807f7fffffffffffffffffffffffffffffff5d576e7357a4501ddfe92f46681b20a08311156106cb575060009050600361077a565b6040805160008082526020820180845289905260ff881692820192909252606081018690526080810185905260019060a0016020604051602081039080840390855afa15801561071f573d6000803e3d6000fd5b50506040517fffffffffffffffffffffffffffffffffffffffffffffffffffffffffffffffe0015191505073ffffffffffffffffffffffffffffffffffffffff81166107735760006001925092505061077a565b9150600090505b94509492505050565b60006020828403121561079557600080fd5b81357fffffffff00000000000000000000000000000000000000000000000000000000811681146101de57600080fd5b6000806000604084860312156107da57600080fd5b83359250602084013567ffffffffffffffff808211156107f957600080fd5b818601915086601f83011261080d57600080fd5b81358181111561081c57600080fd5b87602082850101111561082e57600080fd5b6020830194508093505050509250925092565b60006020828403121561085357600080fd5b813573ffffffffffffffffffffffffffffffffffffffff811681146101de57600080fd5b81810381811115610113577f4e487b7100000000000000000000000000000000000000000000000000000000600052601160045260246000fd5b7f4e487b7100000000000000000000000000000000000000000000000000000000600052602160045260246000fdfea26469706673582212204a4add33d811b1fca97e29bb3d4855ac6ee253f28087501275fb5e363376512e64736f6c63430008150033",
  "linkReferences": {},
  "deployedLinkReferences": {}
}