{
  "_format": "hh-sol-artifact-1",
  "contractName": "RealmId",
  "sourceName": "contracts/MocaPoints/mock/realmIdContract/RealmId.sol",
  "abi": [
    {
      "anonymous": false,
      "inputs": [
        {
          "indexed": false,
          "internalType": "address",
          "name": "previousAdmin",
          "type": "address"
        },
        {
          "indexed": false,
          "internalType": "address",
          "name": "newAdmin",
          "type": "address"
        }
      ],
      "name": "AdminChanged",
      "type": "event"
    },
    {
      "anonymous": false,
      "inputs": [
        {
          "indexed": true,
          "internalType": "address",
          "name": "owner",
          "type": "address"
        },
        {
          "indexed": true,
          "internalType": "address",
          "name": "approved",
          "type": "address"
        },
        {
          "indexed": true,
          "internalType": "uint256",
          "name": "tokenId",
          "type": "uint256"
        }
      ],
      "name": "Approval",
      "type": "event"
    },
    {
      "anonymous": false,
      "inputs": [
        {
          "indexed": true,
          "internalType": "address",
          "name": "owner",
          "type": "address"
        },
        {
          "indexed": true,
          "internalType": "address",
          "name": "operator",
          "type": "address"
        },
        {
          "indexed": false,
          "internalType": "bool",
          "name": "approved",
          "type": "bool"
        }
      ],
      "name": "ApprovalForAll",
      "type": "event"
    },
    {
      "anonymous": false,
      "inputs": [
        {
          "indexed": false,
          "internalType": "bytes32",
          "name": "node",
          "type": "bytes32"
        },
        {
          "indexed": false,
          "internalType": "string",
          "name": "uri",
          "type": "string"
        }
      ],
      "name": "BaseTokenURISet",
      "type": "event"
    },
    {
      "anonymous": false,
      "inputs": [
        {
          "indexed": true,
          "internalType": "address",
          "name": "beacon",
          "type": "address"
        }
      ],
      "name": "BeaconUpgraded",
      "type": "event"
    },
    {
      "anonymous": false,
      "inputs": [
        {
          "indexed": true,
          "internalType": "uint256",
          "name": "tokenId",
          "type": "uint256"
        },
        {
          "indexed": false,
          "internalType": "uint256",
          "name": "burnCount",
          "type": "uint256"
        }
      ],
      "name": "Burn",
      "type": "event"
    },
    {
      "anonymous": false,
      "inputs": [
        {
          "indexed": true,
          "internalType": "uint256",
          "name": "tokenId",
          "type": "uint256"
        },
        {
          "indexed": false,
          "internalType": "string",
          "name": "key",
          "type": "string"
        },
        {
          "indexed": false,
          "internalType": "string",
          "name": "value",
          "type": "string"
        }
      ],
      "name": "GatedMetadataChanged",
      "type": "event"
    },
    {
      "anonymous": false,
      "inputs": [
        {
          "indexed": true,
          "internalType": "uint256",
          "name": "tokenId",
          "type": "uint256"
        },
        {
          "indexed": false,
          "internalType": "uint64",
          "name": "newVersion",
          "type": "uint64"
        }
      ],
      "name": "GatedMetadataVersionChanged",
      "type": "event"
    },
    {
      "anonymous": false,
      "inputs": [
        {
          "indexed": false,
          "internalType": "uint8",
          "name": "version",
          "type": "uint8"
        }
      ],
      "name": "Initialized",
      "type": "event"
    },
    {
      "anonymous": false,
      "inputs": [
        {
          "indexed": true,
          "internalType": "uint256",
          "name": "tokenId",
          "type": "uint256"
        },
        {
          "indexed": false,
          "internalType": "string",
          "name": "key",
          "type": "string"
        },
        {
          "indexed": false,
          "internalType": "string",
          "name": "value",
          "type": "string"
        }
      ],
      "name": "MetadataChanged",
      "type": "event"
    },
    {
      "anonymous": false,
      "inputs": [
        {
          "indexed": true,
          "internalType": "uint256",
          "name": "tokenId",
          "type": "uint256"
        },
        {
          "indexed": false,
          "internalType": "uint64",
          "name": "newVersion",
          "type": "uint64"
        }
      ],
      "name": "MetadataVersionChanged",
      "type": "event"
    },
    {
      "anonymous": false,
      "inputs": [
        {
          "indexed": false,
          "internalType": "bytes32",
          "name": "node",
          "type": "bytes32"
        },
        {
          "indexed": true,
          "internalType": "address",
          "name": "middleware",
          "type": "address"
        },
        {
          "indexed": false,
          "internalType": "bytes",
          "name": "data",
          "type": "bytes"
        }
      ],
      "name": "MiddlewareSet",
      "type": "event"
    },
    {
      "anonymous": false,
      "inputs": [
        {
          "indexed": true,
          "internalType": "bytes32",
          "name": "node",
          "type": "bytes32"
        },
        {
          "indexed": false,
          "internalType": "string",
          "name": "label",
          "type": "string"
        },
        {
          "indexed": false,
          "internalType": "bytes32",
          "name": "parentNode",
          "type": "bytes32"
        },
        {
          "indexed": false,
          "internalType": "bool",
          "name": "allowed",
          "type": "bool"
        }
      ],
      "name": "NodeAllowanceChanged",
      "type": "event"
    },
    {
      "anonymous": false,
      "inputs": [
        {
          "indexed": true,
          "internalType": "address",
          "name": "previousOwner",
          "type": "address"
        },
        {
          "indexed": true,
          "internalType": "address",
          "name": "newOwner",
          "type": "address"
        }
      ],
      "name": "OwnershipTransferred",
      "type": "event"
    },
    {
      "anonymous": false,
      "inputs": [
        {
          "indexed": false,
          "internalType": "address",
          "name": "account",
          "type": "address"
        }
      ],
      "name": "Paused",
      "type": "event"
    },
    {
      "anonymous": false,
      "inputs": [
        {
          "indexed": false,
          "internalType": "string",
          "name": "name",
          "type": "string"
        },
        {
          "indexed": false,
          "internalType": "bytes32",
          "name": "parentNode",
          "type": "bytes32"
        },
        {
          "indexed": true,
          "internalType": "uint256",
          "name": "tokenId",
          "type": "uint256"
        },
        {
          "indexed": true,
          "internalType": "address",
          "name": "to",
          "type": "address"
        }
      ],
      "name": "Register",
      "type": "event"
    },
    {
      "anonymous": false,
      "inputs": [
        {
          "indexed": true,
          "internalType": "address",
          "name": "from",
          "type": "address"
        },
        {
          "indexed": true,
          "internalType": "address",
          "name": "to",
          "type": "address"
        },
        {
          "indexed": true,
          "internalType": "uint256",
          "name": "tokenId",
          "type": "uint256"
        }
      ],
      "name": "Transfer",
      "type": "event"
    },
    {
      "anonymous": false,
      "inputs": [
        {
          "indexed": false,
          "internalType": "address",
          "name": "account",
          "type": "address"
        }
      ],
      "name": "Unpaused",
      "type": "event"
    },
    {
      "anonymous": false,
      "inputs": [
        {
          "indexed": true,
          "internalType": "address",
          "name": "implementation",
          "type": "address"
        }
      ],
      "name": "Upgraded",
      "type": "event"
    },
    {
      "inputs": [
        {
          "internalType": "string",
          "name": "label",
          "type": "string"
        },
        {
          "internalType": "bytes32",
          "name": "parentNode",
          "type": "bytes32"
        },
        {
          "internalType": "bool",
          "name": "allow",
          "type": "bool"
        },
        {
          "internalType": "string",
          "name": "baseTokenURI",
          "type": "string"
        },
        {
          "internalType": "address",
          "name": "middleware",
          "type": "address"
        },
        {
          "internalType": "bytes",
          "name": "middlewareData",
          "type": "bytes"
        }
      ],
      "name": "allowNode",
      "outputs": [
        {
          "internalType": "bytes32",
          "name": "allowedNode",
          "type": "bytes32"
        }
      ],
      "stateMutability": "nonpayable",
      "type": "function"
    },
    {
      "inputs": [
        {
          "internalType": "bytes32",
          "name": "",
          "type": "bytes32"
        }
      ],
      "name": "allowedParentNodes",
      "outputs": [
        {
          "internalType": "bool",
          "name": "",
          "type": "bool"
        }
      ],
      "stateMutability": "view",
      "type": "function"
    },
    {
      "inputs": [
        {
          "internalType": "address",
          "name": "to",
          "type": "address"
        },
        {
          "internalType": "uint256",
          "name": "tokenId",
          "type": "uint256"
        }
      ],
      "name": "approve",
      "outputs": [],
      "stateMutability": "nonpayable",
      "type": "function"
    },
    {
      "inputs": [
        {
          "internalType": "string",
          "name": "_name",
          "type": "string"
        },
        {
          "internalType": "bytes32",
          "name": "parentNode",
          "type": "bytes32"
        }
      ],
      "name": "available",
      "outputs": [
        {
          "internalType": "bool",
          "name": "",
          "type": "bool"
        }
      ],
      "stateMutability": "view",
      "type": "function"
    },
    {
      "inputs": [
        {
          "internalType": "address",
          "name": "owner",
          "type": "address"
        }
      ],
      "name": "balanceOf",
      "outputs": [
        {
          "internalType": "uint256",
          "name": "",
          "type": "uint256"
        }
      ],
      "stateMutability": "view",
      "type": "function"
    },
    {
      "inputs": [
        {
          "internalType": "bytes32",
          "name": "",
          "type": "bytes32"
        }
      ],
      "name": "baseTokenURIs",
      "outputs": [
        {
          "internalType": "string",
          "name": "",
          "type": "string"
        }
      ],
      "stateMutability": "view",
      "type": "function"
    },
    {
      "inputs": [
        {
          "internalType": "uint256",
          "name": "tokenId",
          "type": "uint256"
        },
        {
          "components": [
            {
              "internalType": "string",
              "name": "key",
              "type": "string"
            },
            {
              "internalType": "string",
              "name": "value",
              "type": "string"
            }
          ],
          "internalType": "struct DataTypes.MetadataPair[]",
          "name": "pairs",
          "type": "tuple[]"
        }
      ],
      "name": "batchSetGatedMetadatas",
      "outputs": [],
      "stateMutability": "nonpayable",
      "type": "function"
    },
    {
      "inputs": [
        {
          "internalType": "uint256",
          "name": "tokenId",
          "type": "uint256"
        },
        {
          "components": [
            {
              "internalType": "string",
              "name": "key",
              "type": "string"
            },
            {
              "internalType": "string",
              "name": "value",
              "type": "string"
            }
          ],
          "internalType": "struct DataTypes.MetadataPair[]",
          "name": "pairs",
          "type": "tuple[]"
        }
      ],
      "name": "batchSetMetadatas",
      "outputs": [],
      "stateMutability": "nonpayable",
      "type": "function"
    },
    {
      "inputs": [
        {
          "internalType": "uint256",
          "name": "tokenId",
          "type": "uint256"
        }
      ],
      "name": "burn",
      "outputs": [],
      "stateMutability": "nonpayable",
      "type": "function"
    },
    {
      "inputs": [
        {
          "internalType": "uint256",
          "name": "",
          "type": "uint256"
        }
      ],
      "name": "burnCounts",
      "outputs": [
        {
          "internalType": "uint256",
          "name": "",
          "type": "uint256"
        }
      ],
      "stateMutability": "view",
      "type": "function"
    },
    {
      "inputs": [
        {
          "internalType": "uint256",
          "name": "tokenId",
          "type": "uint256"
        }
      ],
      "name": "clearGatedMetadatas",
      "outputs": [],
      "stateMutability": "nonpayable",
      "type": "function"
    },
    {
      "inputs": [
        {
          "internalType": "uint256",
          "name": "tokenId",
          "type": "uint256"
        }
      ],
      "name": "clearMetadatas",
      "outputs": [],
      "stateMutability": "nonpayable",
      "type": "function"
    },
    {
      "inputs": [
        {
          "internalType": "uint256",
          "name": "",
          "type": "uint256"
        }
      ],
      "name": "gatedMetadataVersions",
      "outputs": [
        {
          "internalType": "uint64",
          "name": "",
          "type": "uint64"
        }
      ],
      "stateMutability": "view",
      "type": "function"
    },
    {
      "inputs": [
        {
          "internalType": "uint256",
          "name": "tokenId",
          "type": "uint256"
        }
      ],
      "name": "getApproved",
      "outputs": [
        {
          "internalType": "address",
          "name": "",
          "type": "address"
        }
      ],
      "stateMutability": "view",
      "type": "function"
    },
    {
      "inputs": [
        {
          "internalType": "uint256",
          "name": "tokenId",
          "type": "uint256"
        },
        {
          "internalType": "string",
          "name": "key",
          "type": "string"
        }
      ],
      "name": "getGatedMetadata",
      "outputs": [
        {
          "internalType": "string",
          "name": "",
          "type": "string"
        }
      ],
      "stateMutability": "view",
      "type": "function"
    },
    {
      "inputs": [
        {
          "internalType": "uint256",
          "name": "tokenId",
          "type": "uint256"
        },
        {
          "internalType": "string",
          "name": "key",
          "type": "string"
        }
      ],
      "name": "getMetadata",
      "outputs": [
        {
          "internalType": "string",
          "name": "",
          "type": "string"
        }
      ],
      "stateMutability": "view",
      "type": "function"
    },
    {
      "inputs": [
        {
          "internalType": "string",
          "name": "_name",
          "type": "string"
        },
        {
          "internalType": "bytes32",
          "name": "parentNode",
          "type": "bytes32"
        }
      ],
      "name": "getTokenId",
      "outputs": [
        {
          "internalType": "uint256",
          "name": "",
          "type": "uint256"
        }
      ],
      "stateMutability": "pure",
      "type": "function"
    },
    {
      "inputs": [
        {
          "internalType": "string",
          "name": "_tokenName",
          "type": "string"
        },
        {
          "internalType": "string",
          "name": "_tokenSymbol",
          "type": "string"
        },
        {
          "internalType": "address",
          "name": "_owner",
          "type": "address"
        }
      ],
      "name": "initialize",
      "outputs": [],
      "stateMutability": "nonpayable",
      "type": "function"
    },
    {
      "inputs": [
        {
          "internalType": "address",
          "name": "owner",
          "type": "address"
        },
        {
          "internalType": "address",
          "name": "operator",
          "type": "address"
        }
      ],
      "name": "isApprovedForAll",
      "outputs": [
        {
          "internalType": "bool",
          "name": "",
          "type": "bool"
        }
      ],
      "stateMutability": "view",
      "type": "function"
    },
    {
      "inputs": [
        {
          "internalType": "uint256",
          "name": "",
          "type": "uint256"
        }
      ],
      "name": "metadataVersions",
      "outputs": [
        {
          "internalType": "uint64",
          "name": "",
          "type": "uint64"
        }
      ],
      "stateMutability": "view",
      "type": "function"
    },
    {
      "inputs": [
        {
          "internalType": "bytes32",
          "name": "",
          "type": "bytes32"
        }
      ],
      "name": "middlewares",
      "outputs": [
        {
          "internalType": "address",
          "name": "",
          "type": "address"
        }
      ],
      "stateMutability": "view",
      "type": "function"
    },
    {
      "inputs": [],
      "name": "name",
      "outputs": [
        {
          "internalType": "string",
          "name": "",
          "type": "string"
        }
      ],
      "stateMutability": "view",
      "type": "function"
    },
    {
      "inputs": [],
      "name": "owner",
      "outputs": [
        {
          "internalType": "address",
          "name": "",
          "type": "address"
        }
      ],
      "stateMutability": "view",
      "type": "function"
    },
    {
      "inputs": [
        {
          "internalType": "uint256",
          "name": "tokenId",
          "type": "uint256"
        }
      ],
      "name": "ownerOf",
      "outputs": [
        {
          "internalType": "address",
          "name": "",
          "type": "address"
        }
      ],
      "stateMutability": "view",
      "type": "function"
    },
    {
      "inputs": [
        {
          "internalType": "uint256",
          "name": "",
          "type": "uint256"
        }
      ],
      "name": "parents",
      "outputs": [
        {
          "internalType": "bytes32",
          "name": "",
          "type": "bytes32"
        }
      ],
      "stateMutability": "view",
      "type": "function"
    },
    {
      "inputs": [],
      "name": "pause",
      "outputs": [],
      "stateMutability": "nonpayable",
      "type": "function"
    },
    {
      "inputs": [],
      "name": "paused",
      "outputs": [
        {
          "internalType": "bool",
          "name": "",
          "type": "bool"
        }
      ],
      "stateMutability": "view",
      "type": "function"
    },
    {
      "inputs": [],
      "name": "proxiableUUID",
      "outputs": [
        {
          "internalType": "bytes32",
          "name": "",
          "type": "bytes32"
        }
      ],
      "stateMutability": "view",
      "type": "function"
    },
    {
      "inputs": [
        {
          "internalType": "string",
          "name": "_name",
          "type": "string"
        },
        {
          "internalType": "bytes32",
          "name": "parentNode",
          "type": "bytes32"
        },
        {
          "internalType": "address",
          "name": "to",
          "type": "address"
        },
        {
          "internalType": "bytes",
          "name": "preData",
          "type": "bytes"
        }
      ],
      "name": "register",
      "outputs": [
        {
          "internalType": "uint256",
          "name": "",
          "type": "uint256"
        }
      ],
      "stateMutability": "nonpayable",
      "type": "function"
    },
    {
      "inputs": [],
      "name": "renounceOwnership",
      "outputs": [],
      "stateMutability": "nonpayable",
      "type": "function"
    },
    {
      "inputs": [
        {
          "internalType": "address",
          "name": "from",
          "type": "address"
        },
        {
          "internalType": "address",
          "name": "to",
          "type": "address"
        },
        {
          "internalType": "uint256",
          "name": "tokenId",
          "type": "uint256"
        }
      ],
      "name": "safeTransferFrom",
      "outputs": [],
      "stateMutability": "nonpayable",
      "type": "function"
    },
    {
      "inputs": [
        {
          "internalType": "address",
          "name": "from",
          "type": "address"
        },
        {
          "internalType": "address",
          "name": "to",
          "type": "address"
        },
        {
          "internalType": "uint256",
          "name": "tokenId",
          "type": "uint256"
        },
        {
          "internalType": "bytes",
          "name": "data",
          "type": "bytes"
        }
      ],
      "name": "safeTransferFrom",
      "outputs": [],
      "stateMutability": "nonpayable",
      "type": "function"
    },
    {
      "inputs": [
        {
          "internalType": "address",
          "name": "operator",
          "type": "address"
        },
        {
          "internalType": "bool",
          "name": "approved",
          "type": "bool"
        }
      ],
      "name": "setApprovalForAll",
      "outputs": [],
      "stateMutability": "nonpayable",
      "type": "function"
    },
    {
      "inputs": [
        {
          "internalType": "bytes32",
          "name": "node",
          "type": "bytes32"
        },
        {
          "internalType": "string",
          "name": "uri",
          "type": "string"
        }
      ],
      "name": "setBaseTokenURI",
      "outputs": [],
      "stateMutability": "nonpayable",
      "type": "function"
    },
    {
      "inputs": [
        {
          "internalType": "bytes32",
          "name": "node",
          "type": "bytes32"
        },
        {
          "internalType": "address",
          "name": "_middleware",
          "type": "address"
        },
        {
          "internalType": "bytes",
          "name": "data",
          "type": "bytes"
        }
      ],
      "name": "setMiddleware",
      "outputs": [],
      "stateMutability": "nonpayable",
      "type": "function"
    },
    {
      "inputs": [
        {
          "internalType": "bytes4",
          "name": "interfaceId",
          "type": "bytes4"
        }
      ],
      "name": "supportsInterface",
      "outputs": [
        {
          "internalType": "bool",
          "name": "",
          "type": "bool"
        }
      ],
      "stateMutability": "view",
      "type": "function"
    },
    {
      "inputs": [],
      "name": "symbol",
      "outputs": [
        {
          "internalType": "string",
          "name": "",
          "type": "string"
        }
      ],
      "stateMutability": "view",
      "type": "function"
    },
    {
      "inputs": [
        {
          "internalType": "uint256",
          "name": "tokenId",
          "type": "uint256"
        }
      ],
      "name": "tokenURI",
      "outputs": [
        {
          "internalType": "string",
          "name": "",
          "type": "string"
        }
      ],
      "stateMutability": "view",
      "type": "function"
    },
    {
      "inputs": [],
      "name": "totalSupply",
      "outputs": [
        {
          "internalType": "uint256",
          "name": "",
          "type": "uint256"
        }
      ],
      "stateMutability": "view",
      "type": "function"
    },
    {
      "inputs": [
        {
          "internalType": "address",
          "name": "from",
          "type": "address"
        },
        {
          "internalType": "address",
          "name": "to",
          "type": "address"
        },
        {
          "internalType": "uint256",
          "name": "tokenId",
          "type": "uint256"
        }
      ],
      "name": "transferFrom",
      "outputs": [],
      "stateMutability": "nonpayable",
      "type": "function"
    },
    {
      "inputs": [
        {
          "internalType": "address",
          "name": "newOwner",
          "type": "address"
        }
      ],
      "name": "transferOwnership",
      "outputs": [],
      "stateMutability": "nonpayable",
      "type": "function"
    },
    {
      "inputs": [],
      "name": "unpause",
      "outputs": [],
      "stateMutability": "nonpayable",
      "type": "function"
    },
    {
      "inputs": [
        {
          "internalType": "address",
          "name": "newImplementation",
          "type": "address"
        }
      ],
      "name": "upgradeTo",
      "outputs": [],
      "stateMutability": "nonpayable",
      "type": "function"
    },
    {
      "inputs": [
        {
          "internalType": "address",
          "name": "newImplementation",
          "type": "address"
        },
        {
          "internalType": "bytes",
          "name": "data",
          "type": "bytes"
        }
      ],
      "name": "upgradeToAndCall",
      "outputs": [],
      "stateMutability": "payable",
      "type": "function"
    }
  ],
  "bytecode": "0x60a06040523060805234801561001457600080fd5b5060805161534561004c600039600081816113eb0152818161149b0152818161178301528181611833015261197801526153456000f3fe6080604052600436106102e75760003560e01c80636352211e11610184578063a9735f94116100d6578063cb4799f21161008a578063e985e9c511610064578063e985e9c5146108a4578063f2fde38b146108fa578063f97c6dae1461091a57600080fd5b8063cb4799f21461082c578063d619cee51461084c578063d9a9eb241461086c57600080fd5b8063b88d4fde116100bb578063b88d4fde146107cc578063c87b56dd146107ec578063cad6b9011461080c57600080fd5b8063a9735f941461077e578063b33dab09146107ac57600080fd5b8063898572a61161013857806395d89b411161011257806395d89b411461072957806396977c1b1461073e578063a22cb4651461075e57600080fd5b8063898572a6146106b05780638da5cb5b146106de5780638e73361e1461070957600080fd5b8063715018a611610169578063715018a6146106665780637c7efe6b1461067b5780638456cb591461069b57600080fd5b80636352211e1461062657806370a082311461064657600080fd5b806323b872dd1161023d57806342842e0e116101f157806352d1902d116101cb57806352d1902d146105b457806357ad9c90146105c95780635c975abb1461060d57600080fd5b806342842e0e1461056157806342966c68146105815780634f1ef286146105a157600080fd5b806326ec9ad81161022257806326ec9ad81461050c5780633659cfe61461052c5780633f4ba83a1461054c57600080fd5b806323b872dd146104cc5780632595eacb146104ec57600080fd5b8063081812fc1161029f57806316404d011161027957806316404d011461045b57806318160ddd1461048c5780631f0509e0146104ac57600080fd5b8063081812fc146103a5578063095ea7b3146103ea5780630ae16e531461040a57600080fd5b80630739d191116102d05780630739d19114610343578063077f224a1461036357806307b472c41461038557600080fd5b806301ffc9a7146102ec57806306fdde0314610321575b600080fd5b3480156102f857600080fd5b5061030c610307366004614363565b61093a565b60405190151581526020015b60405180910390f35b34801561032d57600080fd5b50610336610a1f565b60405161031891906143ee565b34801561034f57600080fd5b5061033661035e36600461450d565b610ab1565b34801561036f57600080fd5b5061038361037e3660046145c6565b610b92565b005b34801561039157600080fd5b506103836103a0366004614647565b610dc2565b3480156103b157600080fd5b506103c56103c0366004614647565b610e3f565b60405173ffffffffffffffffffffffffffffffffffffffff9091168152602001610318565b3480156103f657600080fd5b50610383610405366004614660565b610e73565b34801561041657600080fd5b50610442610425366004614647565b6101626020526000908152604090205467ffffffffffffffff1681565b60405167ffffffffffffffff9091168152602001610318565b34801561046757600080fd5b5061030c610476366004614647565b61018d6020526000908152604090205460ff1681565b34801561049857600080fd5b5061018f545b604051908152602001610318565b3480156104b857600080fd5b506103836104c736600461468a565b610fff565b3480156104d857600080fd5b506103836104e73660046146d6565b611062565b3480156104f857600080fd5b5061030c610507366004614712565b6110db565b34801561051857600080fd5b5061038361052736600461475e565b61126f565b34801561053857600080fd5b506103836105473660046147dd565b6113d4565b34801561055857600080fd5b506103836115d9565b34801561056d57600080fd5b5061038361057c3660046146d6565b6115eb565b34801561058d57600080fd5b5061038361059c366004614647565b611664565b6103836105af3660046147f8565b61176c565b3480156105c057600080fd5b5061049e61195e565b3480156105d557600080fd5b506103c56105e4366004614647565b61018c6020526000908152604090205473ffffffffffffffffffffffffffffffffffffffff1681565b34801561061957600080fd5b5061012d5460ff1661030c565b34801561063257600080fd5b506103c5610641366004614647565b611a4a565b34801561065257600080fd5b5061049e6106613660046147dd565b611ad6565b34801561067257600080fd5b50610383611ba4565b34801561068757600080fd5b5061049e610696366004614830565b611bb6565b3480156106a757600080fd5b50610383611cf8565b3480156106bc57600080fd5b5061049e6106cb366004614647565b61018e6020526000908152604090205481565b3480156106ea57600080fd5b5060975473ffffffffffffffffffffffffffffffffffffffff166103c5565b34801561071557600080fd5b50610383610724366004614647565b611d08565b34801561073557600080fd5b50610336611d81565b34801561074a57600080fd5b50610336610759366004614647565b611d90565b34801561076a57600080fd5b506103836107793660046148cb565b611e2b565b34801561078a57600080fd5b5061049e610799366004614647565b6101906020526000908152604090205481565b3480156107b857600080fd5b506103836107c736600461498c565b611e36565b3480156107d857600080fd5b506103836107e7366004614a5b565b611f8b565b3480156107f857600080fd5b50610336610807366004614647565b612005565b34801561081857600080fd5b5061049e610827366004614712565b6120e0565b34801561083857600080fd5b5061033661084736600461468a565b612152565b34801561085857600080fd5b5061049e610867366004614ac3565b612236565b34801561087857600080fd5b50610442610887366004614647565b6101606020526000908152604090205467ffffffffffffffff1681565b3480156108b057600080fd5b5061030c6108bf366004614b91565b73ffffffffffffffffffffffffffffffffffffffff9182166000908152606a6020908152604080832093909416825291909152205460ff1690565b34801561090657600080fd5b506103836109153660046147dd565b612341565b34801561092657600080fd5b50610383610935366004614bc4565b6123f5565b60007fffffffff0000000000000000000000000000000000000000000000000000000082167f80ac58cd0000000000000000000000000000000000000000000000000000000014806109cd57507fffffffff0000000000000000000000000000000000000000000000000000000082167f5b5e139f00000000000000000000000000000000000000000000000000000000145b80610a1957507f01ffc9a7000000000000000000000000000000000000000000000000000000007fffffffff000000000000000000000000000000000000000000000000000000008316145b92915050565b606060658054610a2e90614c1e565b80601f0160208091040260200160405190810160405280929190818152602001828054610a5a90614c1e565b8015610aa75780601f10610a7c57610100808354040283529160200191610aa7565b820191906000526020600020905b815481529060010190602001808311610a8a57829003601f168201915b5050505050905090565b6000828152610162602090815260408083205467ffffffffffffffff168352610161825280832085845290915290819020905160609190610af3908490614c71565b90815260200160405180910390208054610b0c90614c1e565b80601f0160208091040260200160405190810160405280929190818152602001828054610b3890614c1e565b8015610b855780601f10610b5a57610100808354040283529160200191610b85565b820191906000526020600020905b815481529060010190602001808311610b6857829003601f168201915b5050505050905092915050565b600054610100900460ff1615808015610bb25750600054600160ff909116105b80610bcc5750303b158015610bcc575060005460ff166001145b610c5d576040517f08c379a000000000000000000000000000000000000000000000000000000000815260206004820152602e60248201527f496e697469616c697a61626c653a20636f6e747261637420697320616c72656160448201527f647920696e697469616c697a656400000000000000000000000000000000000060648201526084015b60405180910390fd5b600080547fffffffffffffffffffffffffffffffffffffffffffffffffffffffffffffff001660011790558015610cbb57600080547fffffffffffffffffffffffffffffffffffffffffffffffffffffffffffff00ff166101001790555b610d2e86868080601f01602080910402602001604051908101604052809392919081815260200183838082843760009201919091525050604080516020601f8a01819004810282018101909252888152925088915087908190840183828082843760009201919091525061253192505050565b610d366125d2565b610d3e612669565b610d46612708565b610d4e6127a7565b610d578261282d565b8015610dba57600080547fffffffffffffffffffffffffffffffffffffffffffffffffffffffffffff00ff169055604051600181527f7f26b83ff96e1f2b6a682f133852f6798a09c465da95921460cefb38474024989060200160405180910390a15b505050505050565b80610dcc816128a4565b610e32576040517f08c379a000000000000000000000000000000000000000000000000000000000815260206004820152601560248201527f4d455441444154415f554e415554484f524953454400000000000000000000006044820152606401610c54565b610e3b826128b0565b5050565b6000610e4a8261293d565b5060009081526069602052604090205473ffffffffffffffffffffffffffffffffffffffff1690565b6000610e7e82611a4a565b90508073ffffffffffffffffffffffffffffffffffffffff168373ffffffffffffffffffffffffffffffffffffffff1603610f3b576040517f08c379a000000000000000000000000000000000000000000000000000000000815260206004820152602160248201527f4552433732313a20617070726f76616c20746f2063757272656e74206f776e6560448201527f72000000000000000000000000000000000000000000000000000000000000006064820152608401610c54565b3373ffffffffffffffffffffffffffffffffffffffff82161480610f645750610f6481336108bf565b610ff0576040517f08c379a000000000000000000000000000000000000000000000000000000000815260206004820152603d60248201527f4552433732313a20617070726f76652063616c6c6572206973206e6f7420746f60448201527f6b656e206f776e6572206f7220617070726f76656420666f7220616c6c0000006064820152608401610c54565b610ffa83836129c8565b505050565b611007612a68565b600083815261018b60205260409020611021828483614cd3565b507fe091ab4d07f328dfaf2dcd8b50b82e02d05cf20d71197646ac6b2611395947b783838360405161105593929190614e36565b60405180910390a1505050565b61012d5460ff16156110d0576040517f08c379a000000000000000000000000000000000000000000000000000000000815260206004820152601460248201527f5452414e534645525f4e4f545f414c4c4f5745440000000000000000000000006044820152606401610c54565b610ffa838383612ae9565b600081815261018d602052604081205460ff16611154576040517f08c379a000000000000000000000000000000000000000000000000000000000815260206004820152601060248201527f4e4f44455f4e4f545f414c4c4f574544000000000000000000000000000000006044820152606401610c54565b60006111618585856120e0565b60008181526067602052604090205490915073ffffffffffffffffffffffffffffffffffffffff1661126257600083815261018c602052604090205473ffffffffffffffffffffffffffffffffffffffff168015611257576040517f7ac3e6ea00000000000000000000000000000000000000000000000000000000815273ffffffffffffffffffffffffffffffffffffffff821690637ac3e6ea9061120d9089908990600401614e59565b602060405180830381865afa15801561122a573d6000803e3d6000fd5b505050506040513d601f19601f8201168201806040525081019061124e9190614e6d565b92505050611268565b600192505050611268565b60009150505b9392505050565b82611279816128a4565b6112df576040517f08c379a000000000000000000000000000000000000000000000000000000000815260206004820152601560248201527f4d455441444154415f554e415554484f524953454400000000000000000000006044820152606401610c54565b60005b828110156113cd5760008484838181106112fe576112fe614e8a565b90506020028101906113109190614eb9565b61131990614eed565b6020808201516000898152610160835260408082205467ffffffffffffffff16825261015f84528082208b8352909352829020835192519394509092909161136091614c71565b9081526020016040518091039020908161137a9190614ef9565b508051602082015160405188927f601d4b2f0f06545c0f60d4f70e3bc5d78db246f7b66aaeb1ea23a56aa854c670926113b292615013565b60405180910390a250806113c581615067565b9150506112e2565b5050505050565b73ffffffffffffffffffffffffffffffffffffffff7f0000000000000000000000000000000000000000000000000000000000000000163003611499576040517f08c379a000000000000000000000000000000000000000000000000000000000815260206004820152602c60248201527f46756e6374696f6e206d7573742062652063616c6c6564207468726f7567682060448201527f64656c656761746563616c6c00000000000000000000000000000000000000006064820152608401610c54565b7f000000000000000000000000000000000000000000000000000000000000000073ffffffffffffffffffffffffffffffffffffffff1661150e7f360894a13ba1a3210667c828492db98dca3e2076cc3735a920a3ca505d382bbc5473ffffffffffffffffffffffffffffffffffffffff1690565b73ffffffffffffffffffffffffffffffffffffffff16146115b1576040517f08c379a000000000000000000000000000000000000000000000000000000000815260206004820152602c60248201527f46756e6374696f6e206d7573742062652063616c6c6564207468726f7567682060448201527f6163746976652070726f787900000000000000000000000000000000000000006064820152608401610c54565b6115ba81612b8a565b604080516000808252602082019092526115d691839190612c27565b50565b6115e1612a68565b6115e9612e26565b565b61012d5460ff1615611659576040517f08c379a000000000000000000000000000000000000000000000000000000000815260206004820152601460248201527f5452414e534645525f4e4f545f414c4c4f5745440000000000000000000000006044820152606401610c54565b610ffa838383612e7e565b61166e3382612e99565b6116d4576040517f08c379a000000000000000000000000000000000000000000000000000000000815260206004820152600c60248201527f554e415554484f52495a454400000000000000000000000000000000000000006044820152606401610c54565b6116dd816128b0565b6116e681612f59565b600081815261018e60205260408120556116ff81612fe6565b61018f6000815461170f9061509f565b90915550600081815261019060205260408120805483927f410c5c259085cde81fedf70c1aa308ec839373c26e9b7ada6560a2aca0254eb6929161175290615067565b91829055506040519081526020015b60405180910390a250565b73ffffffffffffffffffffffffffffffffffffffff7f0000000000000000000000000000000000000000000000000000000000000000163003611831576040517f08c379a000000000000000000000000000000000000000000000000000000000815260206004820152602c60248201527f46756e6374696f6e206d7573742062652063616c6c6564207468726f7567682060448201527f64656c656761746563616c6c00000000000000000000000000000000000000006064820152608401610c54565b7f000000000000000000000000000000000000000000000000000000000000000073ffffffffffffffffffffffffffffffffffffffff166118a67f360894a13ba1a3210667c828492db98dca3e2076cc3735a920a3ca505d382bbc5473ffffffffffffffffffffffffffffffffffffffff1690565b73ffffffffffffffffffffffffffffffffffffffff1614611949576040517f08c379a000000000000000000000000000000000000000000000000000000000815260206004820152602c60248201527f46756e6374696f6e206d7573742062652063616c6c6564207468726f7567682060448201527f6163746976652070726f787900000000000000000000000000000000000000006064820152608401610c54565b61195282612b8a565b610e3b82826001612c27565b60003073ffffffffffffffffffffffffffffffffffffffff7f00000000000000000000000000000000000000000000000000000000000000001614611a25576040517f08c379a000000000000000000000000000000000000000000000000000000000815260206004820152603860248201527f555550535570677261646561626c653a206d757374206e6f742062652063616c60448201527f6c6564207468726f7567682064656c656761746563616c6c00000000000000006064820152608401610c54565b507f360894a13ba1a3210667c828492db98dca3e2076cc3735a920a3ca505d382bbc90565b60008181526067602052604081205473ffffffffffffffffffffffffffffffffffffffff1680610a19576040517f08c379a000000000000000000000000000000000000000000000000000000000815260206004820152601860248201527f4552433732313a20696e76616c696420746f6b656e20494400000000000000006044820152606401610c54565b600073ffffffffffffffffffffffffffffffffffffffff8216611b7b576040517f08c379a000000000000000000000000000000000000000000000000000000000815260206004820152602960248201527f4552433732313a2061646472657373207a65726f206973206e6f74206120766160448201527f6c6964206f776e657200000000000000000000000000000000000000000000006064820152608401610c54565b5073ffffffffffffffffffffffffffffffffffffffff1660009081526068602052604090205490565b611bac612a68565b6115e9600061282d565b600084815261018c602052604081205473ffffffffffffffffffffffffffffffffffffffff168015611ce057600060405180608001604052803373ffffffffffffffffffffffffffffffffffffffff1681526020018a8a8080601f0160208091040260200160405190810160405280939291908181526020018383808284376000920191909152505050908252506020810189905273ffffffffffffffffffffffffffffffffffffffff80891660409283015290517fcab80ede00000000000000000000000000000000000000000000000000000000815291925083169063cab80ede90611cac908490899089906004016150d4565b600060405180830381600087803b158015611cc657600080fd5b505af1158015611cda573d6000803e3d6000fd5b50505050505b611cec888888886130be565b98975050505050505050565b611d00612a68565b6115e96127a7565b80611d12816131cf565b611d78576040517f08c379a000000000000000000000000000000000000000000000000000000000815260206004820152601b60248201527f47415445445f4d455441444154415f554e415554484f524953454400000000006044820152606401610c54565b610e3b82612f59565b606060668054610a2e90614c1e565b61018b6020526000908152604090208054611daa90614c1e565b80601f0160208091040260200160405190810160405280929190818152602001828054611dd690614c1e565b8015611e235780601f10611df857610100808354040283529160200191611e23565b820191906000526020600020905b815481529060010190602001808311611e0657829003601f168201915b505050505081565b610e3b338383613297565b81611e40816131cf565b611ea6576040517f08c379a000000000000000000000000000000000000000000000000000000000815260206004820152601b60248201527f47415445445f4d455441444154415f554e415554484f524953454400000000006044820152606401610c54565b60005b8251811015611f85576000838281518110611ec657611ec6614e8a565b602090810291909101810151808201516000888152610162845260408082205467ffffffffffffffff16825261016185528082208a83529094528390208251935192945090929091611f189190614c71565b90815260200160405180910390209081611f329190614ef9565b508051602082015160405187927f29d4cd326b134d55e630ceb2871cea5e243b89bc9667e0c840b5da53b26ffd6a92611f6a92615013565b60405180910390a25080611f7d81615067565b915050611ea9565b50505050565b61012d5460ff1615611ff9576040517f08c379a000000000000000000000000000000000000000000000000000000000815260206004820152601460248201527f5452414e534645525f4e4f545f414c4c4f5745440000000000000000000000006044820152606401610c54565b611f85848484846133c4565b60008181526067602052604090205460609073ffffffffffffffffffffffffffffffffffffffff16612093576040517f08c379a000000000000000000000000000000000000000000000000000000000815260206004820152601060248201527f494e56414c49445f544f4b454e5f4944000000000000000000000000000000006044820152606401610c54565b600082815261018e6020908152604080832054835261018b90915290206120b983613466565b6040516020016120ca929190615147565b6040516020818303038152906040529050919050565b6000808285856040516120f49291906151ec565b6040519081900381206121139291602001918252602082015260400190565b604080518083037fffffffffffffffffffffffffffffffffffffffffffffffffffffffffffffffe0018152919052805160209091012095945050505050565b6000838152610160602090815260408083205467ffffffffffffffff16835261015f82528083208684529091529081902090516060919061219690859085906151ec565b908152602001604051809103902080546121af90614c1e565b80601f01602080910402602001604051908101604052809291908181526020018280546121db90614c1e565b80156122285780601f106121fd57610100808354040283529160200191612228565b820191906000526020600020905b81548152906001019060200180831161220b57829003601f168201915b505050505090509392505050565b6000612240612a68565b878a8a6040516122519291906151ec565b6040519081900381206122709291602001918252602082015260400190565b604080518083037fffffffffffffffffffffffffffffffffffffffffffffffffffffffffffffffe00181528282528051602091820120600081815261018d90925291902080547fffffffffffffffffffffffffffffffffffffffffffffffffffffffffffffff00168a1515179055915081907ffbbc4187cf8cd340d071ee02e4e44eb8e04903a03649ef31a26e38798390351d90612315908d908d908d908d906151fc565b60405180910390a2612328818787610fff565b612334818585856123f5565b9998505050505050505050565b612349612a68565b73ffffffffffffffffffffffffffffffffffffffff81166123ec576040517f08c379a000000000000000000000000000000000000000000000000000000000815260206004820152602660248201527f4f776e61626c653a206e6577206f776e657220697320746865207a65726f206160448201527f64647265737300000000000000000000000000000000000000000000000000006064820152608401610c54565b6115d68161282d565b6123fd612a68565b600084815261018c6020526040902080547fffffffffffffffffffffffff00000000000000000000000000000000000000001673ffffffffffffffffffffffffffffffffffffffff8516908117909155156124d9576040517f42a0d9b400000000000000000000000000000000000000000000000000000000815273ffffffffffffffffffffffffffffffffffffffff8416906342a0d9b4906124a69085908590600401614e59565b600060405180830381600087803b1580156124c057600080fd5b505af11580156124d4573d6000803e3d6000fd5b505050505b8273ffffffffffffffffffffffffffffffffffffffff167f057da1406f81e1f47cda5874100d33118bf695f202882aacc5ca6d45ca91744985848460405161252393929190614e36565b60405180910390a250505050565b600054610100900460ff166125c8576040517f08c379a000000000000000000000000000000000000000000000000000000000815260206004820152602b60248201527f496e697469616c697a61626c653a20636f6e7472616374206973206e6f74206960448201527f6e697469616c697a696e670000000000000000000000000000000000000000006064820152608401610c54565b610e3b82826134d3565b600054610100900460ff166115e9576040517f08c379a000000000000000000000000000000000000000000000000000000000815260206004820152602b60248201527f496e697469616c697a61626c653a20636f6e7472616374206973206e6f74206960448201527f6e697469616c697a696e670000000000000000000000000000000000000000006064820152608401610c54565b600054610100900460ff16612700576040517f08c379a000000000000000000000000000000000000000000000000000000000815260206004820152602b60248201527f496e697469616c697a61626c653a20636f6e7472616374206973206e6f74206960448201527f6e697469616c697a696e670000000000000000000000000000000000000000006064820152608401610c54565b6115e9613583565b600054610100900460ff1661279f576040517f08c379a000000000000000000000000000000000000000000000000000000000815260206004820152602b60248201527f496e697469616c697a61626c653a20636f6e7472616374206973206e6f74206960448201527f6e697469616c697a696e670000000000000000000000000000000000000000006064820152608401610c54565b6115e9613623565b6127af6136e5565b61012d80547fffffffffffffffffffffffffffffffffffffffffffffffffffffffffffffff001660011790557f62e78cea01bee320cd4e420270b5ea74000d11b0c9f74754ebdbfc544b05a2586128033390565b60405173ffffffffffffffffffffffffffffffffffffffff909116815260200160405180910390a1565b6097805473ffffffffffffffffffffffffffffffffffffffff8381167fffffffffffffffffffffffff0000000000000000000000000000000000000000831681179093556040519116919082907f8be0079c531659141344cd1fd0a4f28419497f9722a3daafe3b4186f6b6457e090600090a35050565b6000610a193383612e99565b600081815261016060205260408120805467ffffffffffffffff16916128d583615228565b82546101009290920a67ffffffffffffffff818102199093169183160217909155600083815261016060209081526040918290205491519190921681528392507f3773c27b7f05829d86b67403e26562fb9d776452b918d74b238bfdc1203bf0ed9101611761565b60008181526067602052604090205473ffffffffffffffffffffffffffffffffffffffff166115d6576040517f08c379a000000000000000000000000000000000000000000000000000000000815260206004820152601860248201527f4552433732313a20696e76616c696420746f6b656e20494400000000000000006044820152606401610c54565b600081815260696020526040902080547fffffffffffffffffffffffff00000000000000000000000000000000000000001673ffffffffffffffffffffffffffffffffffffffff84169081179091558190612a2282611a4a565b73ffffffffffffffffffffffffffffffffffffffff167f8c5be1e5ebec7d5bd14f71427d1e84f3dd0314c0f7b2291e5b200ac8c7c3b92560405160405180910390a45050565b60975473ffffffffffffffffffffffffffffffffffffffff1633146115e9576040517f08c379a000000000000000000000000000000000000000000000000000000000815260206004820181905260248201527f4f776e61626c653a2063616c6c6572206973206e6f7420746865206f776e65726044820152606401610c54565b612af33382612e99565b612b7f576040517f08c379a000000000000000000000000000000000000000000000000000000000815260206004820152602d60248201527f4552433732313a2063616c6c6572206973206e6f7420746f6b656e206f776e6560448201527f72206f7220617070726f766564000000000000000000000000000000000000006064820152608401610c54565b610ffa838383613753565b33612baa60975473ffffffffffffffffffffffffffffffffffffffff1690565b73ffffffffffffffffffffffffffffffffffffffff16146115d6576040517f08c379a000000000000000000000000000000000000000000000000000000000815260206004820152600960248201527f4e4f545f4f574e455200000000000000000000000000000000000000000000006044820152606401610c54565b7f4910fdfa16fed3260ed0e7147f7cc6da11a60208b5b9406d12a635614ffd91435460ff1615612c5a57610ffa83613a4e565b8273ffffffffffffffffffffffffffffffffffffffff166352d1902d6040518163ffffffff1660e01b8152600401602060405180830381865afa925050508015612cdf575060408051601f3d9081017fffffffffffffffffffffffffffffffffffffffffffffffffffffffffffffffe0168201909252612cdc9181019061524f565b60015b612d6b576040517f08c379a000000000000000000000000000000000000000000000000000000000815260206004820152602e60248201527f45524331393637557067726164653a206e657720696d706c656d656e7461746960448201527f6f6e206973206e6f7420555550530000000000000000000000000000000000006064820152608401610c54565b7f360894a13ba1a3210667c828492db98dca3e2076cc3735a920a3ca505d382bbc8114612e1a576040517f08c379a000000000000000000000000000000000000000000000000000000000815260206004820152602960248201527f45524331393637557067726164653a20756e737570706f727465642070726f7860448201527f6961626c655555494400000000000000000000000000000000000000000000006064820152608401610c54565b50610ffa838383613b58565b612e2e613b7d565b61012d80547fffffffffffffffffffffffffffffffffffffffffffffffffffffffffffffff001690557f5db9ee0a495bf2e6ff9c91a7834c1ba4fdd244a5e8aa4e537bd38aeae4b073aa33612803565b610ffa83838360405180602001604052806000815250611f8b565b600080612ea583611a4a565b90508073ffffffffffffffffffffffffffffffffffffffff168473ffffffffffffffffffffffffffffffffffffffff161480612f13575073ffffffffffffffffffffffffffffffffffffffff8082166000908152606a602090815260408083209388168352929052205460ff165b80612f5157508373ffffffffffffffffffffffffffffffffffffffff16612f3984610e3f565b73ffffffffffffffffffffffffffffffffffffffff16145b949350505050565b600081815261016260205260408120805467ffffffffffffffff1691612f7e83615228565b82546101009290920a67ffffffffffffffff818102199093169183160217909155600083815261016260209081526040918290205491519190921681528392507fc87757beabcc5d61e477f4ffafb24461a0eb17e06d5bbf82354b4df70f3580c39101611761565b6000612ff182611a4a565b9050612ffc82611a4a565b600083815260696020908152604080832080547fffffffffffffffffffffffff000000000000000000000000000000000000000090811690915573ffffffffffffffffffffffffffffffffffffffff85168085526068845282852080547fffffffffffffffffffffffffffffffffffffffffffffffffffffffffffffffff0190558785526067909352818420805490911690555192935084927fddf252ad1be2c89b69c2b068fc378daa952ba7f163c4a11628f55a4df523b3ef908390a45050565b60006130cb8585856110db565b613131576040517f08c379a000000000000000000000000000000000000000000000000000000000815260206004820152601260248201527f4e414d455f4e4f545f415641494c41424c4500000000000000000000000000006044820152606401610c54565b600061313e8686866120e0565b905061314a8382613bea565b61018f6000815461315a90615067565b90915550600081815261018e6020526040908190208590555173ffffffffffffffffffffffffffffffffffffffff84169082907ffe530e3b4b61411a7dd546adc0e6736d4255abefc6b610401d26068e02dd495e906131be908a908a908a90615268565b60405180910390a395945050505050565b60008181526067602052604081205473ffffffffffffffffffffffffffffffffffffffff1661325a576040517f08c379a000000000000000000000000000000000000000000000000000000000815260206004820152601060248201527f544f4b454e5f4e4f545f4d494e544544000000000000000000000000000000006044820152606401610c54565b3361327a60975473ffffffffffffffffffffffffffffffffffffffff1690565b73ffffffffffffffffffffffffffffffffffffffff161492915050565b8173ffffffffffffffffffffffffffffffffffffffff168373ffffffffffffffffffffffffffffffffffffffff160361332c576040517f08c379a000000000000000000000000000000000000000000000000000000000815260206004820152601960248201527f4552433732313a20617070726f766520746f2063616c6c6572000000000000006044820152606401610c54565b73ffffffffffffffffffffffffffffffffffffffff8381166000818152606a602090815260408083209487168084529482529182902080547fffffffffffffffffffffffffffffffffffffffffffffffffffffffffffffff001686151590811790915591519182527f17307eab39ab6107e8899845ad3d59bd9653f200f220920489ca2b5937696c31910160405180910390a3505050565b6133ce3383612e99565b61345a576040517f08c379a000000000000000000000000000000000000000000000000000000000815260206004820152602d60248201527f4552433732313a2063616c6c6572206973206e6f7420746f6b656e206f776e6560448201527f72206f7220617070726f766564000000000000000000000000000000000000006064820152608401610c54565b611f8584848484613c04565b604080516080810191829052607f0190826030600a8206018353600a90045b80156134a357600183039250600a81066030018353600a9004613485565b508190037fffffffffffffffffffffffffffffffffffffffffffffffffffffffffffffffe0909101908152919050565b600054610100900460ff1661356a576040517f08c379a000000000000000000000000000000000000000000000000000000000815260206004820152602b60248201527f496e697469616c697a61626c653a20636f6e7472616374206973206e6f74206960448201527f6e697469616c697a696e670000000000000000000000000000000000000000006064820152608401610c54565b60656135768382614ef9565b506066610ffa8282614ef9565b600054610100900460ff1661361a576040517f08c379a000000000000000000000000000000000000000000000000000000000815260206004820152602b60248201527f496e697469616c697a61626c653a20636f6e7472616374206973206e6f74206960448201527f6e697469616c697a696e670000000000000000000000000000000000000000006064820152608401610c54565b6115e93361282d565b600054610100900460ff166136ba576040517f08c379a000000000000000000000000000000000000000000000000000000000815260206004820152602b60248201527f496e697469616c697a61626c653a20636f6e7472616374206973206e6f74206960448201527f6e697469616c697a696e670000000000000000000000000000000000000000006064820152608401610c54565b61012d80547fffffffffffffffffffffffffffffffffffffffffffffffffffffffffffffff00169055565b61012d5460ff16156115e9576040517f08c379a000000000000000000000000000000000000000000000000000000000815260206004820152601060248201527f5061757361626c653a20706175736564000000000000000000000000000000006044820152606401610c54565b8273ffffffffffffffffffffffffffffffffffffffff1661377382611a4a565b73ffffffffffffffffffffffffffffffffffffffff1614613816576040517f08c379a000000000000000000000000000000000000000000000000000000000815260206004820152602560248201527f4552433732313a207472616e736665722066726f6d20696e636f72726563742060448201527f6f776e65720000000000000000000000000000000000000000000000000000006064820152608401610c54565b73ffffffffffffffffffffffffffffffffffffffff82166138b8576040517f08c379a0000000000000000000000000000000000000000000000000000000008152602060048201526024808201527f4552433732313a207472616e7366657220746f20746865207a65726f2061646460448201527f72657373000000000000000000000000000000000000000000000000000000006064820152608401610c54565b8273ffffffffffffffffffffffffffffffffffffffff166138d882611a4a565b73ffffffffffffffffffffffffffffffffffffffff161461397b576040517f08c379a000000000000000000000000000000000000000000000000000000000815260206004820152602560248201527f4552433732313a207472616e736665722066726f6d20696e636f72726563742060448201527f6f776e65720000000000000000000000000000000000000000000000000000006064820152608401610c54565b600081815260696020908152604080832080547fffffffffffffffffffffffff000000000000000000000000000000000000000090811690915573ffffffffffffffffffffffffffffffffffffffff8781168086526068855283862080547fffffffffffffffffffffffffffffffffffffffffffffffffffffffffffffffff01905590871680865283862080546001019055868652606790945282852080549092168417909155905184937fddf252ad1be2c89b69c2b068fc378daa952ba7f163c4a11628f55a4df523b3ef91a4505050565b73ffffffffffffffffffffffffffffffffffffffff81163b613af2576040517f08c379a000000000000000000000000000000000000000000000000000000000815260206004820152602d60248201527f455243313936373a206e657720696d706c656d656e746174696f6e206973206e60448201527f6f74206120636f6e7472616374000000000000000000000000000000000000006064820152608401610c54565b7f360894a13ba1a3210667c828492db98dca3e2076cc3735a920a3ca505d382bbc80547fffffffffffffffffffffffff00000000000000000000000000000000000000001673ffffffffffffffffffffffffffffffffffffffff92909216919091179055565b613b6183613ca7565b600082511180613b6e5750805b15610ffa57611f858383613cf4565b61012d5460ff166115e9576040517f08c379a000000000000000000000000000000000000000000000000000000000815260206004820152601460248201527f5061757361626c653a206e6f74207061757365640000000000000000000000006044820152606401610c54565b610e3b828260405180602001604052806000815250613d19565b613c0f848484613753565b613c1b84848484613dbc565b611f85576040517f08c379a000000000000000000000000000000000000000000000000000000000815260206004820152603260248201527f4552433732313a207472616e7366657220746f206e6f6e20455243373231526560448201527f63656976657220696d706c656d656e74657200000000000000000000000000006064820152608401610c54565b613cb081613a4e565b60405173ffffffffffffffffffffffffffffffffffffffff8216907fbc7cd75a20ee27fd9adebab32041f755214dbc6bffa90cc0225b39da2e5c2d3b90600090a250565b606061126883836040518060600160405280602781526020016152e960279139613fac565b613d238383614031565b613d306000848484613dbc565b610ffa576040517f08c379a000000000000000000000000000000000000000000000000000000000815260206004820152603260248201527f4552433732313a207472616e7366657220746f206e6f6e20455243373231526560448201527f63656976657220696d706c656d656e74657200000000000000000000000000006064820152608401610c54565b600073ffffffffffffffffffffffffffffffffffffffff84163b15613fa4576040517f150b7a0200000000000000000000000000000000000000000000000000000000815273ffffffffffffffffffffffffffffffffffffffff85169063150b7a0290613e3390339089908890889060040161528c565b6020604051808303816000875af1925050508015613e8c575060408051601f3d9081017fffffffffffffffffffffffffffffffffffffffffffffffffffffffffffffffe0168201909252613e89918101906152cb565b60015b613f59573d808015613eba576040519150601f19603f3d011682016040523d82523d6000602084013e613ebf565b606091505b508051600003613f51576040517f08c379a000000000000000000000000000000000000000000000000000000000815260206004820152603260248201527f4552433732313a207472616e7366657220746f206e6f6e20455243373231526560448201527f63656976657220696d706c656d656e74657200000000000000000000000000006064820152608401610c54565b805181602001fd5b7fffffffff00000000000000000000000000000000000000000000000000000000167f150b7a0200000000000000000000000000000000000000000000000000000000149050612f51565b506001612f51565b60606000808573ffffffffffffffffffffffffffffffffffffffff1685604051613fd69190614c71565b600060405180830381855af49150503d8060008114614011576040519150601f19603f3d011682016040523d82523d6000602084013e614016565b606091505b509150915061402786838387614256565b9695505050505050565b73ffffffffffffffffffffffffffffffffffffffff82166140ae576040517f08c379a000000000000000000000000000000000000000000000000000000000815260206004820181905260248201527f4552433732313a206d696e7420746f20746865207a65726f20616464726573736044820152606401610c54565b60008181526067602052604090205473ffffffffffffffffffffffffffffffffffffffff161561413a576040517f08c379a000000000000000000000000000000000000000000000000000000000815260206004820152601c60248201527f4552433732313a20746f6b656e20616c7265616479206d696e746564000000006044820152606401610c54565b60008181526067602052604090205473ffffffffffffffffffffffffffffffffffffffff16156141c6576040517f08c379a000000000000000000000000000000000000000000000000000000000815260206004820152601c60248201527f4552433732313a20746f6b656e20616c7265616479206d696e746564000000006044820152606401610c54565b73ffffffffffffffffffffffffffffffffffffffff8216600081815260686020908152604080832080546001019055848352606790915280822080547fffffffffffffffffffffffff0000000000000000000000000000000000000000168417905551839291907fddf252ad1be2c89b69c2b068fc378daa952ba7f163c4a11628f55a4df523b3ef908290a45050565b606083156142ec5782516000036142e55773ffffffffffffffffffffffffffffffffffffffff85163b6142e5576040517f08c379a000000000000000000000000000000000000000000000000000000000815260206004820152601d60248201527f416464726573733a2063616c6c20746f206e6f6e2d636f6e74726163740000006044820152606401610c54565b5081612f51565b612f5183838151156143015781518083602001fd5b806040517f08c379a0000000000000000000000000000000000000000000000000000000008152600401610c5491906143ee565b7fffffffff00000000000000000000000000000000000000000000000000000000811681146115d657600080fd5b60006020828403121561437557600080fd5b813561126881614335565b60005b8381101561439b578181015183820152602001614383565b50506000910152565b600081518084526143bc816020860160208601614380565b601f017fffffffffffffffffffffffffffffffffffffffffffffffffffffffffffffffe0169290920160200192915050565b60208152600061126860208301846143a4565b7f4e487b7100000000000000000000000000000000000000000000000000000000600052604160045260246000fd5b604051601f82017fffffffffffffffffffffffffffffffffffffffffffffffffffffffffffffffe016810167ffffffffffffffff8111828210171561447757614477614401565b604052919050565b600082601f83011261449057600080fd5b813567ffffffffffffffff8111156144aa576144aa614401565b6144db60207fffffffffffffffffffffffffffffffffffffffffffffffffffffffffffffffe0601f84011601614430565b8181528460208386010111156144f057600080fd5b816020850160208301376000918101602001919091529392505050565b6000806040838503121561452057600080fd5b82359150602083013567ffffffffffffffff81111561453e57600080fd5b61454a8582860161447f565b9150509250929050565b60008083601f84011261456657600080fd5b50813567ffffffffffffffff81111561457e57600080fd5b60208301915083602082850101111561459657600080fd5b9250929050565b803573ffffffffffffffffffffffffffffffffffffffff811681146145c157600080fd5b919050565b6000806000806000606086880312156145de57600080fd5b853567ffffffffffffffff808211156145f657600080fd5b61460289838a01614554565b9097509550602088013591508082111561461b57600080fd5b5061462888828901614554565b909450925061463b90506040870161459d565b90509295509295909350565b60006020828403121561465957600080fd5b5035919050565b6000806040838503121561467357600080fd5b61467c8361459d565b946020939093013593505050565b60008060006040848603121561469f57600080fd5b83359250602084013567ffffffffffffffff8111156146bd57600080fd5b6146c986828701614554565b9497909650939450505050565b6000806000606084860312156146eb57600080fd5b6146f48461459d565b92506147026020850161459d565b9150604084013590509250925092565b60008060006040848603121561472757600080fd5b833567ffffffffffffffff81111561473e57600080fd5b61474a86828701614554565b909790965060209590950135949350505050565b60008060006040848603121561477357600080fd5b83359250602084013567ffffffffffffffff8082111561479257600080fd5b818601915086601f8301126147a657600080fd5b8135818111156147b557600080fd5b8760208260051b85010111156147ca57600080fd5b6020830194508093505050509250925092565b6000602082840312156147ef57600080fd5b6112688261459d565b6000806040838503121561480b57600080fd5b6148148361459d565b9150602083013567ffffffffffffffff81111561453e57600080fd5b6000806000806000806080878903121561484957600080fd5b863567ffffffffffffffff8082111561486157600080fd5b61486d8a838b01614554565b90985096506020890135955086915061488860408a0161459d565b9450606089013591508082111561489e57600080fd5b506148ab89828a01614554565b979a9699509497509295939492505050565b80151581146115d657600080fd5b600080604083850312156148de57600080fd5b6148e78361459d565b915060208301356148f7816148bd565b809150509250929050565b60006040828403121561491457600080fd5b6040516040810167ffffffffffffffff828210818311171561493857614938614401565b81604052829350843591508082111561495057600080fd5b61495c8683870161447f565b8352602085013591508082111561497257600080fd5b5061497f8582860161447f565b6020830152505092915050565b6000806040838503121561499f57600080fd5b8235915060208084013567ffffffffffffffff808211156149bf57600080fd5b818601915086601f8301126149d357600080fd5b8135818111156149e5576149e5614401565b8060051b6149f4858201614430565b918252838101850191858101908a841115614a0e57600080fd5b86860192505b83831015614a4a57823585811115614a2c5760008081fd5b614a3a8c89838a0101614902565b8352509186019190860190614a14565b809750505050505050509250929050565b60008060008060808587031215614a7157600080fd5b614a7a8561459d565b9350614a886020860161459d565b925060408501359150606085013567ffffffffffffffff811115614aab57600080fd5b614ab78782880161447f565b91505092959194509250565b600080600080600080600080600060c08a8c031215614ae157600080fd5b893567ffffffffffffffff80821115614af957600080fd5b614b058d838e01614554565b909b50995060208c0135985060408c01359150614b21826148bd565b90965060608b01359080821115614b3757600080fd5b614b438d838e01614554565b9097509550859150614b5760808d0161459d565b945060a08c0135915080821115614b6d57600080fd5b50614b7a8c828d01614554565b915080935050809150509295985092959850929598565b60008060408385031215614ba457600080fd5b614bad8361459d565b9150614bbb6020840161459d565b90509250929050565b60008060008060608587031215614bda57600080fd5b84359350614bea6020860161459d565b9250604085013567ffffffffffffffff811115614c0657600080fd5b614c1287828801614554565b95989497509550505050565b600181811c90821680614c3257607f821691505b602082108103614c6b577f4e487b7100000000000000000000000000000000000000000000000000000000600052602260045260246000fd5b50919050565b60008251614c83818460208701614380565b9190910192915050565b601f821115610ffa57600081815260208120601f850160051c81016020861015614cb45750805b601f850160051c820191505b81811015610dba57828155600101614cc0565b67ffffffffffffffff831115614ceb57614ceb614401565b614cff83614cf98354614c1e565b83614c8d565b6000601f841160018114614d515760008515614d1b5750838201355b7fffffffffffffffffffffffffffffffffffffffffffffffffffffffffffffffff600387901b1c1916600186901b1783556113cd565b6000838152602090207fffffffffffffffffffffffffffffffffffffffffffffffffffffffffffffffe0861690835b82811015614da05786850135825560209485019460019092019101614d80565b5086821015614ddb577fffffffffffffffffffffffffffffffffffffffffffffffffffffffffffffffff60f88860031b161c19848701351681555b505060018560011b0183555050505050565b8183528181602085013750600060208284010152600060207fffffffffffffffffffffffffffffffffffffffffffffffffffffffffffffffe0601f840116840101905092915050565b838152604060208201526000614e50604083018486614ded565b95945050505050565b602081526000612f51602083018486614ded565b600060208284031215614e7f57600080fd5b8151611268816148bd565b7f4e487b7100000000000000000000000000000000000000000000000000000000600052603260045260246000fd5b600082357fffffffffffffffffffffffffffffffffffffffffffffffffffffffffffffffc1833603018112614c8357600080fd5b6000610a193683614902565b815167ffffffffffffffff811115614f1357614f13614401565b614f2781614f218454614c1e565b84614c8d565b602080601f831160018114614f7a5760008415614f445750858301515b7fffffffffffffffffffffffffffffffffffffffffffffffffffffffffffffffff600386901b1c1916600185901b178555610dba565b6000858152602081207fffffffffffffffffffffffffffffffffffffffffffffffffffffffffffffffe08616915b82811015614fc757888601518255948401946001909101908401614fa8565b508582101561500357878501517fffffffffffffffffffffffffffffffffffffffffffffffffffffffffffffffff600388901b60f8161c191681555b5050505050600190811b01905550565b60408152600061502660408301856143a4565b8281036020840152614e5081856143a4565b7f4e487b7100000000000000000000000000000000000000000000000000000000600052601160045260246000fd5b60007fffffffffffffffffffffffffffffffffffffffffffffffffffffffffffffffff820361509857615098615038565b5060010190565b6000816150ae576150ae615038565b507fffffffffffffffffffffffffffffffffffffffffffffffffffffffffffffffff0190565b60408152600073ffffffffffffffffffffffffffffffffffffffff80865116604084015260208601516080606085015261511160c08501826143a4565b9050604087015160808501528160608801511660a0850152838103602085015261513c818688614ded565b979650505050505050565b600080845461515581614c1e565b6001828116801561516d57600181146151a0576151cf565b7fffffffffffffffffffffffffffffffffffffffffffffffffffffffffffffff00841687528215158302870194506151cf565b8860005260208060002060005b858110156151c65781548a8201529084019082016151ad565b50505082870194505b5050505083516151e3818360208801614380565b01949350505050565b8183823760009101908152919050565b606081526000615210606083018688614ded565b60208301949094525090151560409091015292915050565b600067ffffffffffffffff80831681810361524557615245615038565b6001019392505050565b60006020828403121561526157600080fd5b5051919050565b60408152600061527c604083018587614ded565b9050826020830152949350505050565b600073ffffffffffffffffffffffffffffffffffffffff80871683528086166020840152508360408301526080606083015261402760808301846143a4565b6000602082840312156152dd57600080fd5b81516112688161433556fe416464726573733a206c6f772d6c6576656c2064656c65676174652063616c6c206661696c6564a264697066735822122053b05310978f67ec8df531fa5f6579e375eed7f3d9a0c89fd0122bdb5e71733e64736f6c63430008150033",
  "linkReferences": {},
  "deployedLinkReferences": {}
}